{
  "contractName": "CDS",
  "abi": [
    {
      "inputs": [
        {
          "internalType": "uint256",
          "name": "_initAssetPrice",
          "type": "uint256"
        },
        {
          "internalType": "uint256",
          "name": "_claimPrice",
          "type": "uint256"
        },
        {
          "internalType": "uint256",
          "name": "_liquidationPrice",
          "type": "uint256"
        },
        {
          "internalType": "uint256",
          "name": "_premium",
          "type": "uint256"
        },
        {
          "internalType": "uint256",
          "name": "_sellerDeposit",
          "type": "uint256"
        },
        {
          "internalType": "uint32",
          "name": "_rounds",
          "type": "uint32"
        },
        {
          "internalType": "uint32",
          "name": "_assetType",
          "type": "uint32"
        }
      ],
      "stateMutability": "nonpayable",
      "type": "constructor"
    },
    {
      "anonymous": false,
      "inputs": [
        {
          "indexed": true,
          "internalType": "address",
          "name": "previousOwner",
          "type": "address"
        },
        {
          "indexed": true,
          "internalType": "address",
          "name": "newOwner",
          "type": "address"
        }
      ],
      "name": "OwnershipTransferred",
      "type": "event"
    },
    {
      "inputs": [],
      "name": "assetType",
      "outputs": [
        {
          "internalType": "uint32",
          "name": "",
          "type": "uint32"
        }
      ],
      "stateMutability": "view",
      "type": "function"
    },
    {
      "inputs": [],
      "name": "claimPrice",
      "outputs": [
        {
          "internalType": "uint256",
          "name": "",
          "type": "uint256"
        }
      ],
      "stateMutability": "view",
      "type": "function"
    },
    {
      "inputs": [
        {
          "internalType": "uint32",
          "name": "_assetType",
          "type": "uint32"
        }
      ],
      "name": "getCurrPrice",
      "outputs": [
        {
          "internalType": "uint256",
          "name": "",
          "type": "uint256"
        }
      ],
      "stateMutability": "view",
      "type": "function"
    },
    {
      "inputs": [],
      "name": "initAssetPrice",
      "outputs": [
        {
          "internalType": "uint256",
          "name": "",
          "type": "uint256"
        }
      ],
      "stateMutability": "view",
      "type": "function"
    },
    {
      "inputs": [],
      "name": "liquidationPrice",
      "outputs": [
        {
          "internalType": "uint256",
          "name": "",
          "type": "uint256"
        }
      ],
      "stateMutability": "view",
      "type": "function"
    },
    {
      "inputs": [],
      "name": "nextPayDate",
      "outputs": [
        {
          "internalType": "uint256",
          "name": "",
          "type": "uint256"
        }
      ],
      "stateMutability": "view",
      "type": "function"
    },
    {
      "inputs": [],
      "name": "owner",
      "outputs": [
        {
          "internalType": "address",
          "name": "",
          "type": "address"
        }
      ],
      "stateMutability": "view",
      "type": "function"
    },
    {
      "inputs": [],
      "name": "premium",
      "outputs": [
        {
          "internalType": "uint256",
          "name": "",
          "type": "uint256"
        }
      ],
      "stateMutability": "view",
      "type": "function"
    },
    {
      "inputs": [],
      "name": "renounceOwnership",
      "outputs": [],
      "stateMutability": "nonpayable",
      "type": "function"
    },
    {
      "inputs": [],
      "name": "rounds",
      "outputs": [
        {
          "internalType": "uint32",
          "name": "",
          "type": "uint32"
        }
      ],
      "stateMutability": "view",
      "type": "function"
    },
    {
      "inputs": [],
      "name": "sellerDeposit",
      "outputs": [
        {
          "internalType": "uint256",
          "name": "",
          "type": "uint256"
        }
      ],
      "stateMutability": "view",
      "type": "function"
    },
    {
      "inputs": [],
      "name": "status",
      "outputs": [
        {
          "internalType": "enum CDS.Status",
          "name": "",
          "type": "uint8"
        }
      ],
      "stateMutability": "view",
      "type": "function"
    },
    {
      "inputs": [],
      "name": "totalRounds",
      "outputs": [
        {
          "internalType": "uint32",
          "name": "",
          "type": "uint32"
        }
      ],
      "stateMutability": "view",
      "type": "function"
    },
    {
      "inputs": [
        {
          "internalType": "address",
          "name": "newOwner",
          "type": "address"
        }
      ],
      "name": "transferOwnership",
      "outputs": [],
      "stateMutability": "nonpayable",
      "type": "function"
    },
    {
      "inputs": [],
      "name": "premiumPaid",
      "outputs": [],
      "stateMutability": "nonpayable",
      "type": "function"
    },
    {
      "inputs": [
        {
          "internalType": "uint256",
          "name": "_initAssetPrice",
          "type": "uint256"
        },
        {
          "internalType": "bool",
          "name": "_isBuyerHost",
          "type": "bool"
        }
      ],
      "name": "accept",
      "outputs": [],
      "stateMutability": "nonpayable",
      "type": "function"
    },
    {
      "inputs": [],
      "name": "cancel",
      "outputs": [],
      "stateMutability": "nonpayable",
      "type": "function"
    },
    {
      "inputs": [],
      "name": "close",
      "outputs": [],
      "stateMutability": "nonpayable",
      "type": "function"
    },
    {
      "inputs": [],
      "name": "claim",
      "outputs": [],
      "stateMutability": "nonpayable",
      "type": "function"
    },
    {
      "inputs": [],
      "name": "checkRoundsZero",
      "outputs": [
        {
          "internalType": "bool",
          "name": "",
          "type": "bool"
        }
      ],
      "stateMutability": "view",
      "type": "function"
    },
    {
      "inputs": [],
      "name": "checkPayDatePassed",
      "outputs": [
        {
          "internalType": "bool",
          "name": "",
          "type": "bool"
        }
      ],
      "stateMutability": "view",
      "type": "function"
    },
    {
      "inputs": [
        {
          "internalType": "uint256",
          "name": "_initAssetPrice",
          "type": "uint256"
        }
      ],
      "name": "setInitAssetPrice",
      "outputs": [
        {
          "internalType": "uint256",
          "name": "",
          "type": "uint256"
        }
      ],
      "stateMutability": "nonpayable",
      "type": "function"
    },
    {
      "inputs": [
        {
          "internalType": "address",
          "name": "_participants",
          "type": "address"
        },
        {
          "internalType": "bool",
          "name": "_isBuyer",
          "type": "bool"
        }
      ],
      "name": "setParticipants",
      "outputs": [],
      "stateMutability": "nonpayable",
      "type": "function"
    },
    {
      "inputs": [
        {
          "internalType": "address",
          "name": "_buyer",
          "type": "address"
        }
      ],
      "name": "setBuyer",
      "outputs": [
        {
          "internalType": "address",
          "name": "",
          "type": "address"
        }
      ],
      "stateMutability": "nonpayable",
      "type": "function"
    },
    {
      "inputs": [
        {
          "internalType": "address",
          "name": "_seller",
          "type": "address"
        }
      ],
      "name": "setSeller",
      "outputs": [
        {
          "internalType": "address",
          "name": "",
          "type": "address"
        }
      ],
      "stateMutability": "nonpayable",
      "type": "function"
    },
    {
      "inputs": [],
      "name": "getPrices",
      "outputs": [
        {
          "internalType": "uint256[5]",
          "name": "",
          "type": "uint256[5]"
        }
      ],
      "stateMutability": "view",
      "type": "function"
    },
    {
      "inputs": [],
      "name": "getAmountOfAsset",
      "outputs": [
        {
          "internalType": "uint256",
          "name": "",
          "type": "uint256"
        }
      ],
      "stateMutability": "view",
      "type": "function"
    },
    {
      "inputs": [],
      "name": "getBuyer",
      "outputs": [
        {
          "internalType": "address",
          "name": "",
          "type": "address"
        }
      ],
      "stateMutability": "view",
      "type": "function"
    },
    {
      "inputs": [],
      "name": "getSeller",
      "outputs": [
        {
          "internalType": "address",
          "name": "",
          "type": "address"
        }
      ],
      "stateMutability": "view",
      "type": "function"
    },
    {
      "inputs": [],
      "name": "getClaimReward",
      "outputs": [
        {
          "internalType": "uint256",
          "name": "",
          "type": "uint256"
        }
      ],
      "stateMutability": "view",
      "type": "function"
    }
  ],
  "bytecode": "0x60806040523480156200001157600080fd5b5060405162002151380380620021518339818101604052810190620000379190620003b0565b7321558c2cda098e7e0ac7d38775b3e2b4a09452226200006c620000606200026360201b60201c565b6200026b60201b60201c565b80600160006101000a81548173ffffffffffffffffffffffffffffffffffffffff021916908373ffffffffffffffffffffffffffffffffffffffff16021790555050866003819055508560048190555084600581905550836006819055508260078190555081600a60146101000a81548163ffffffff021916908363ffffffff16021790555081600a60186101000a81548163ffffffff021916908363ffffffff16021790555060008163ffffffff1614806200012f575060018163ffffffff16145b8062000141575060028163ffffffff16145b62000183576040517f08c379a00000000000000000000000000000000000000000000000000000000081526004016200017a90620004c4565b60405180910390fd5b80600a601c6101000a81548163ffffffff021916908363ffffffff1602179055506000600960006101000a81548173ffffffffffffffffffffffffffffffffffffffff021916908373ffffffffffffffffffffffffffffffffffffffff1602179055506000600a60006101000a81548173ffffffffffffffffffffffffffffffffffffffff021916908373ffffffffffffffffffffffffffffffffffffffff1602179055506001600260146101000a81548160ff02191690836004811115620002515762000250620004e6565b5b02179055505050505050505062000515565b600033905090565b60008060009054906101000a900473ffffffffffffffffffffffffffffffffffffffff169050816000806101000a81548173ffffffffffffffffffffffffffffffffffffffff021916908373ffffffffffffffffffffffffffffffffffffffff1602179055508173ffffffffffffffffffffffffffffffffffffffff168173ffffffffffffffffffffffffffffffffffffffff167f8be0079c531659141344cd1fd0a4f28419497f9722a3daafe3b4186f6b6457e060405160405180910390a35050565b600080fd5b6000819050919050565b620003498162000334565b81146200035557600080fd5b50565b60008151905062000369816200033e565b92915050565b600063ffffffff82169050919050565b6200038a816200036f565b81146200039657600080fd5b50565b600081519050620003aa816200037f565b92915050565b600080600080600080600060e0888a031215620003d257620003d16200032f565b5b6000620003e28a828b0162000358565b9750506020620003f58a828b0162000358565b9650506040620004088a828b0162000358565b95505060606200041b8a828b0162000358565b94505060806200042e8a828b0162000358565b93505060a0620004418a828b0162000399565b92505060c0620004548a828b0162000399565b91505092959891949750929550565b600082825260208201905092915050565b7f4254433a302c204554483a312c204c494e4b3a32000000000000000000000000600082015250565b6000620004ac60148362000463565b9150620004b98262000474565b602082019050919050565b60006020820190508181036000830152620004df816200049d565b9050919050565b7f4e487b7100000000000000000000000000000000000000000000000000000000600052602160045260246000fd5b611c2c80620005256000396000f3fe608060405234801561001057600080fd5b50600436106101da5760003560e01c8063a3f09ad611610104578063dbd0e1b6116100a2578063f26cc58e11610071578063f26cc58e146104cb578063f2fde38b146104e9578063fcb341df14610505578063ffd0e69f14610523576101da565b8063dbd0e1b614610455578063e0a73a9314610473578063e99d286614610491578063ea8a1af0146104c1576101da565b8063bd9a548b116100de578063bd9a548b146103b9578063bef904e3146103d7578063cbed244914610407578063d868379814610437576101da565b8063a3f09ad61461034f578063b6fc2d5f1461037f578063bab215f81461039d576101da565b80635b6a251b1161017c57806386be75b71161014b57806386be75b7146102d75780638a568299146102f55780638da5cb5b14610313578063a2e800ad14610331576101da565b80635b6a251b14610287578063603daf9a14610291578063715018a6146102af578063839966af146102b9576101da565b80633fe3347a116101b85780633fe3347a1461023757806343d726d6146102555780634c1786ea1461025f5780634e71d92d1461027d576101da565b806315d655c9146101df578063200d2ed2146101fd5780633b41e19c1461021b575b600080fd5b6101e7610541565b6040516101f491906112ff565b60405180910390f35b610205610547565b6040516102129190611391565b60405180910390f35b61023560048036038101906102309190611415565b61055a565b005b61023f610651565b60405161024c9190611474565b60405180910390f35b61025d610667565b005b6102676106f2565b60405161027491906112ff565b60405180910390f35b6102856106f8565b005b61028f6107cd565b005b6102996108ec565b6040516102a691906114d0565b60405180910390f35b6102b7610916565b005b6102c161092a565b6040516102ce91906114fa565b60405180910390f35b6102df6109ad565b6040516102ec91906112ff565b60405180910390f35b6102fd6109b3565b60405161030a9190611474565b60405180910390f35b61031b6109c9565b60405161032891906114d0565b60405180910390f35b6103396109f2565b6040516103469190611474565b60405180910390f35b61036960048036038101906103649190611541565b610a08565b60405161037691906114d0565b60405180910390f35b610387610a7d565b60405161039491906112ff565b60405180910390f35b6103b760048036038101906103b2919061156e565b610a83565b005b6103c1610aad565b6040516103ce9190611659565b60405180910390f35b6103f160048036038101906103ec9190611674565b610aeb565b6040516103fe91906112ff565b60405180910390f35b610421600480360381019061041c91906116cd565b610afe565b60405161042e91906112ff565b60405180910390f35b61043f610d3c565b60405161044c91906112ff565b60405180910390f35b61045d610d42565b60405161046a91906114d0565b60405180910390f35b61047b610d6c565b60405161048891906112ff565b60405180910390f35b6104ab60048036038101906104a69190611541565b610d72565b6040516104b891906114d0565b60405180910390f35b6104c9610de7565b005b6104d3610e72565b6040516104e091906112ff565b60405180910390f35b61050360048036038101906104fe9190611541565b610eca565b005b61050d610f4d565b60405161051a91906112ff565b60405180910390f35b61052b610f6f565b60405161053891906114fa565b60405180910390f35b60045481565b600260149054906101000a900460ff1681565b610562611008565b600160048111156105765761057561131a565b5b600260149054906101000a900460ff1660048111156105985761059761131a565b5b146105d8576040517f08c379a00000000000000000000000000000000000000000000000000000000081526004016105cf9061177d565b60405180910390fd5b6105e182610aeb565b506105ed338215610a83565b6105f76002611086565b506224ea004261060791906117cc565b6008819055506001600a60148282829054906101000a900463ffffffff1661062f9190611800565b92506101000a81548163ffffffff021916908363ffffffff1602179055505050565b600a601c9054906101000a900463ffffffff1681565b61066f611008565b600260048111156106835761068261131a565b5b600260149054906101000a900460ff1660048111156106a5576106a461131a565b5b146106e5576040517f08c379a00000000000000000000000000000000000000000000000000000000081526004016106dc906118aa565b60405180910390fd5b6106ef6004611086565b50565b60075481565b610700611008565b600260048111156107145761071361131a565b5b600260149054906101000a900460ff1660048111156107365761073561131a565b5b14610776576040517f08c379a000000000000000000000000000000000000000000000000000000000815260040161076d906118aa565b60405180910390fd5b6000610780610e72565b036107c0576040517f08c379a00000000000000000000000000000000000000000000000000000000081526004016107b79061193c565b60405180910390fd5b6107ca6003611086565b50565b6107d5611008565b600260048111156107e9576107e861131a565b5b600260149054906101000a900460ff16600481111561080b5761080a61131a565b5b1461084b576040517f08c379a0000000000000000000000000000000000000000000000000000000008152600401610842906118aa565b60405180910390fd5b6000600a60149054906101000a900463ffffffff1663ffffffff16116108a6576040517f08c379a000000000000000000000000000000000000000000000000000000000815260040161089d906119a8565b60405180910390fd5b6224ea00600860008282546108bb91906117cc565b925050819055506108e96001600a60149054906101000a900463ffffffff166108e49190611800565b6110d1565b50565b6000600960009054906101000a900473ffffffffffffffffffffffffffffffffffffffff16905090565b61091e611008565b6109286000611116565b565b6000600260048111156109405761093f61131a565b5b600260149054906101000a900460ff1660048111156109625761096161131a565b5b146109a2576040517f08c379a0000000000000000000000000000000000000000000000000000000008152600401610999906118aa565b60405180910390fd5b600854421015905090565b60035481565b600a60189054906101000a900463ffffffff1681565b60008060009054906101000a900473ffffffffffffffffffffffffffffffffffffffff16905090565b600a60149054906101000a900463ffffffff1681565b6000610a12611008565b81600960006101000a81548173ffffffffffffffffffffffffffffffffffffffff021916908373ffffffffffffffffffffffffffffffffffffffff160217905550600960009054906101000a900473ffffffffffffffffffffffffffffffffffffffff169050919050565b60055481565b610a8b611008565b80610a9e57610a9982610d72565b610aa8565b610aa782610a08565b5b505050565b610ab56112c4565b6040518060a001604052806003548152602001600454815260200160055481526020016006548152602001600754815250905090565b6000816003819055506003549050919050565b60008060008363ffffffff1603610bbd57610bb66305f5e100600160009054906101000a900473ffffffffffffffffffffffffffffffffffffffff1673ffffffffffffffffffffffffffffffffffffffff1663a8ad52d16040518163ffffffff1660e01b8152600401602060405180830381865afa158015610b84573d6000803e3d6000fd5b505050506040513d601f19601f82011682018060405250810190610ba891906119dd565b6111da90919063ffffffff16565b9050610d33565b60018363ffffffff1603610c7957610c726305f5e100600160009054906101000a900473ffffffffffffffffffffffffffffffffffffffff1673ffffffffffffffffffffffffffffffffffffffff1663ff186b2e6040518163ffffffff1660e01b8152600401602060405180830381865afa158015610c40573d6000803e3d6000fd5b505050506040513d601f19601f82011682018060405250810190610c6491906119dd565b6111da90919063ffffffff16565b9050610d32565b60028363ffffffff1603610d3157610d2e6305f5e100600160009054906101000a900473ffffffffffffffffffffffffffffffffffffffff1673ffffffffffffffffffffffffffffffffffffffff16630cf785356040518163ffffffff1660e01b8152600401602060405180830381865afa158015610cfc573d6000803e3d6000fd5b505050506040513d601f19601f82011682018060405250810190610d2091906119dd565b6111da90919063ffffffff16565b90505b5b5b80915050919050565b60085481565b6000600a60009054906101000a900473ffffffffffffffffffffffffffffffffffffffff16905090565b60065481565b6000610d7c611008565b81600a60006101000a81548173ffffffffffffffffffffffffffffffffffffffff021916908373ffffffffffffffffffffffffffffffffffffffff160217905550600a60009054906101000a900473ffffffffffffffffffffffffffffffffffffffff169050919050565b610def611008565b60016004811115610e0357610e0261131a565b5b600260149054906101000a900460ff166004811115610e2557610e2461131a565b5b14610e65576040517f08c379a0000000000000000000000000000000000000000000000000000000008152600401610e5c9061177d565b60405180910390fd5b610e6f6000611086565b50565b600080610e90600a601c9054906101000a900463ffffffff16610afe565b9050806004541015610ea6576000915050610ec7565b610ec3600554600354836007546111f0909392919063ffffffff16565b9150505b90565b610ed2611008565b600073ffffffffffffffffffffffffffffffffffffffff168173ffffffffffffffffffffffffffffffffffffffff1603610f41576040517f08c379a0000000000000000000000000000000000000000000000000000000008152600401610f3890611a7c565b60405180910390fd5b610f4a81611116565b50565b6000610f6a6005546007546003546112609092919063ffffffff16565b905090565b600060026004811115610f8557610f8461131a565b5b600260149054906101000a900460ff166004811115610fa757610fa661131a565b5b14610fe7576040517f08c379a0000000000000000000000000000000000000000000000000000000008152600401610fde906118aa565b60405180910390fd5b6000600a60149054906101000a900463ffffffff1663ffffffff1614905090565b611010611290565b73ffffffffffffffffffffffffffffffffffffffff1661102e6109c9565b73ffffffffffffffffffffffffffffffffffffffff1614611084576040517f08c379a000000000000000000000000000000000000000000000000000000000815260040161107b90611ae8565b60405180910390fd5b565b6000611090611008565b81600260146101000a81548160ff021916908360048111156110b5576110b461131a565b5b0217905550600260149054906101000a900460ff169050919050565b60006110db611008565b81600a60146101000a81548163ffffffff021916908363ffffffff160217905550600a60149054906101000a900463ffffffff169050919050565b60008060009054906101000a900473ffffffffffffffffffffffffffffffffffffffff169050816000806101000a81548173ffffffffffffffffffffffffffffffffffffffff021916908373ffffffffffffffffffffffffffffffffffffffff1602179055508173ffffffffffffffffffffffffffffffffffffffff168173ffffffffffffffffffffffffffffffffffffffff167f8be0079c531659141344cd1fd0a4f28419497f9722a3daafe3b4186f6b6457e060405160405180910390a35050565b600081836111e89190611b37565b905092915050565b60008082851061120257859050611254565b600061122961121a878761129890919063ffffffff16565b886111da90919063ffffffff16565b9050611250611241858761129890919063ffffffff16565b826112ae90919063ffffffff16565b9150505b80915050949350505050565b6000611287611278848661129890919063ffffffff16565b836111da90919063ffffffff16565b90509392505050565b600033905090565b600081836112a69190611b68565b905092915050565b600081836112bc9190611b9c565b905092915050565b6040518060a00160405280600590602082028036833780820191505090505090565b6000819050919050565b6112f9816112e6565b82525050565b600060208201905061131460008301846112f0565b92915050565b7f4e487b7100000000000000000000000000000000000000000000000000000000600052602160045260246000fd5b6005811061135a5761135961131a565b5b50565b600081905061136b82611349565b919050565b600061137b8261135d565b9050919050565b61138b81611370565b82525050565b60006020820190506113a66000830184611382565b92915050565b600080fd5b6113ba816112e6565b81146113c557600080fd5b50565b6000813590506113d7816113b1565b92915050565b60008115159050919050565b6113f2816113dd565b81146113fd57600080fd5b50565b60008135905061140f816113e9565b92915050565b6000806040838503121561142c5761142b6113ac565b5b600061143a858286016113c8565b925050602061144b85828601611400565b9150509250929050565b600063ffffffff82169050919050565b61146e81611455565b82525050565b60006020820190506114896000830184611465565b92915050565b600073ffffffffffffffffffffffffffffffffffffffff82169050919050565b60006114ba8261148f565b9050919050565b6114ca816114af565b82525050565b60006020820190506114e560008301846114c1565b92915050565b6114f4816113dd565b82525050565b600060208201905061150f60008301846114eb565b92915050565b61151e816114af565b811461152957600080fd5b50565b60008135905061153b81611515565b92915050565b600060208284031215611557576115566113ac565b5b60006115658482850161152c565b91505092915050565b60008060408385031215611585576115846113ac565b5b60006115938582860161152c565b92505060206115a485828601611400565b9150509250929050565b600060059050919050565b600081905092915050565b6000819050919050565b6115d7816112e6565b82525050565b60006115e983836115ce565b60208301905092915050565b6000602082019050919050565b61160b816115ae565b61161581846115b9565b9250611620826115c4565b8060005b8381101561165157815161163887826115dd565b9650611643836115f5565b925050600181019050611624565b505050505050565b600060a08201905061166e6000830184611602565b92915050565b60006020828403121561168a576116896113ac565b5b6000611698848285016113c8565b91505092915050565b6116aa81611455565b81146116b557600080fd5b50565b6000813590506116c7816116a1565b92915050565b6000602082840312156116e3576116e26113ac565b5b60006116f1848285016116b8565b91505092915050565b600082825260208201905092915050565b7f54686520737461747573206f6620746865204344532073686f756c642062652060008201527f70656e64696e6700000000000000000000000000000000000000000000000000602082015250565b60006117676027836116fa565b91506117728261170b565b604082019050919050565b600060208201905081810360008301526117968161175a565b9050919050565b7f4e487b7100000000000000000000000000000000000000000000000000000000600052601160045260246000fd5b60006117d7826112e6565b91506117e2836112e6565b92508282019050808211156117fa576117f961179d565b5b92915050565b600061180b82611455565b915061181683611455565b9250828203905063ffffffff8111156118325761183161179d565b5b92915050565b7f54686520737461747573206f6620746865204344532073686f756c642062652060008201527f6163746976650000000000000000000000000000000000000000000000000000602082015250565b60006118946026836116fa565b915061189f82611838565b604082019050919050565b600060208201905081810360008301526118c381611887565b9050919050565b7f43757272656e7420707269636520697320686967686572207468616e2074686560008201527f20636c61696d20707269636520696e2043445300000000000000000000000000602082015250565b60006119266033836116fa565b9150611931826118ca565b604082019050919050565b6000602082019050818103600083015261195581611919565b9050919050565b7f526f756e6420616c726561647920656e64656400000000000000000000000000600082015250565b60006119926013836116fa565b915061199d8261195c565b602082019050919050565b600060208201905081810360008301526119c181611985565b9050919050565b6000815190506119d7816113b1565b92915050565b6000602082840312156119f3576119f26113ac565b5b6000611a01848285016119c8565b91505092915050565b7f4f776e61626c653a206e6577206f776e657220697320746865207a65726f206160008201527f6464726573730000000000000000000000000000000000000000000000000000602082015250565b6000611a666026836116fa565b9150611a7182611a0a565b604082019050919050565b60006020820190508181036000830152611a9581611a59565b9050919050565b7f4f776e61626c653a2063616c6c6572206973206e6f7420746865206f776e6572600082015250565b6000611ad26020836116fa565b9150611add82611a9c565b602082019050919050565b60006020820190508181036000830152611b0181611ac5565b9050919050565b7f4e487b7100000000000000000000000000000000000000000000000000000000600052601260045260246000fd5b6000611b42826112e6565b9150611b4d836112e6565b925082611b5d57611b5c611b08565b5b828204905092915050565b6000611b73826112e6565b9150611b7e836112e6565b9250828203905081811115611b9657611b9561179d565b5b92915050565b6000611ba7826112e6565b9150611bb2836112e6565b9250817fffffffffffffffffffffffffffffffffffffffffffffffffffffffffffffffff0483118215151615611beb57611bea61179d565b5b82820290509291505056fea2646970667358221220f641e061c4109a5c08cd8ebd1d82929042db453f0052bc3db36fc97b528cd7c564736f6c63430008100033",
  "immutableReferences": {},
  "source": "// SPDX-License-Identifier: MIT\npragma solidity ^0.8.7;\n\nimport './PriceConsumer.sol';\nimport '../libs/LibSwap.sol';\nimport '@openzeppelin/contracts/access/Ownable.sol';\n\n// PriceConsumberGoerli({assetType})\ncontract CDS is Ownable, PriceConsumer(0x21558C2cDA098e7e0ac7d38775B3E2b4a0945222) {\n  using LibSwap for uint256;\n\n  PriceOracleMock private priceOracle;\n\n  enum Status {\n    inactive,\n    pending,\n    active,\n    claimed,\n    expired\n  }\n  Status public status;\n\n  uint256 public initAssetPrice;\n  uint256 public claimPrice;\n  uint256 public liquidationPrice;\n  uint256 public premium;\n  uint256 public sellerDeposit;\n  uint256 public nextPayDate;\n  address private buyer;\n  address private seller;\n  uint32 public rounds;\n  uint32 public totalRounds;\n  uint32 public assetType;\n\n  constructor(\n    uint256 _initAssetPrice,\n    uint256 _claimPrice,\n    uint256 _liquidationPrice,\n    uint256 _premium,\n    uint256 _sellerDeposit,\n    uint32 _rounds,\n    uint32 _assetType\n  ) {\n    initAssetPrice = _initAssetPrice;\n    claimPrice = _claimPrice;\n    liquidationPrice = _liquidationPrice;\n    premium = _premium;\n    sellerDeposit = _sellerDeposit;\n    rounds = _rounds;\n    totalRounds = _rounds;\n\n    require(\n      _assetType == 0 || _assetType == 1 || _assetType == 2,\n      'BTC:0, ETH:1, LINK:2'\n    );\n    assetType = _assetType;\n\n    buyer = address(0);\n    seller = address(0);\n    status = Status.pending;\n  }\n\n\n  // transactions\n\n  function premiumPaid() external onlyOwner isActive {\n    require(rounds > 0, 'Round already ended');\n    nextPayDate += 4 weeks;\n    setRounds(rounds - 1);\n  }\n\n  function accept(uint256 _initAssetPrice, bool _isBuyerHost) external onlyOwner isPending {\n    setInitAssetPrice(_initAssetPrice);\n    setParticipants(msg.sender, !_isBuyerHost);\n    setStatus(CDS.Status.active);\n    nextPayDate = block.timestamp + 4 weeks;\n    rounds -= 1;\n  }\n\n  function cancel() external onlyOwner isPending {\n    setStatus(CDS.Status.inactive);\n  }\n\n  function close() external onlyOwner isActive {\n    setStatus(CDS.Status.expired);\n  }\n\n  function claim() external onlyOwner isActive {\n    require(\n      getClaimReward() != 0,\n      'Current price is higher than the claim price in CDS'\n    );\n    setStatus(CDS.Status.claimed);\n  }\n\n  function checkRoundsZero() external view isActive returns (bool) {\n    return (rounds == 0);\n  }\n\n  function checkPayDatePassed() external view isActive returns (bool) {\n    return (block.timestamp >= nextPayDate);\n  }\n\n\n  // setter\n\n  function setInitAssetPrice(uint256 _initAssetPrice) public returns (uint256) {\n    initAssetPrice = _initAssetPrice;\n    return initAssetPrice;\n  }\n\n  function setStatus(Status _status) private onlyOwner returns (Status) {\n    status = _status;\n    return status;\n  }\n\n  function setParticipants(address _participants, bool _isBuyer) public onlyOwner {\n    _isBuyer ? setBuyer(_participants) : setSeller(_participants);\n  }\n\n  function setBuyer(address _buyer) public onlyOwner returns (address) {\n    buyer = _buyer;\n    return buyer;\n  }\n\n  function setSeller(address _seller) public onlyOwner returns (address) {\n    seller = _seller;\n    return seller;\n  }\n\n  function setRounds(uint32 _rounds) private onlyOwner returns (uint32) {\n    rounds = _rounds;\n    return rounds;\n  }\n\n  function setNextPayDate() private onlyOwner returns (uint256) {\n    nextPayDate += 4 weeks;\n    return nextPayDate;\n  }\n\n\n  // getter\n\n  function getPrices() public view returns (uint256[5] memory) {\n    return [\n      initAssetPrice,\n      claimPrice,\n      liquidationPrice,\n      premium,\n      sellerDeposit\n    ];\n  }\n\n  function getAmountOfAsset() public view returns (uint256) {\n    return initAssetPrice.calcAmountOfAsset(\n      liquidationPrice,\n      sellerDeposit\n    );\n  }\n\n  function getBuyer() public view returns (address) {\n    return buyer;\n  }\n\n  function getSeller() public view returns (address) {\n    return seller;\n  }\n\n  function getClaimReward() public view returns (uint256) {\n    uint256 currPrice = getCurrPrice(assetType);\n    if (claimPrice < currPrice) {\n      return 0;\n    }\n    return\n      sellerDeposit.calcClaimReward(\n        liquidationPrice,\n        initAssetPrice,\n        currPrice\n      );\n  }\n\n\n  // modifiers\n\n  modifier isPending() {\n    require(\n      status == Status.pending,\n      'The status of the CDS should be pending'\n    );\n    _;\n  }\n\n  modifier isActive() {\n    require(\n      status == Status.active,\n      'The status of the CDS should be active'\n    );\n    _;\n  }\n}\n",
  "sourcePath": "/Users/yoonsoo/codestates/BEB-07-final-CDS/contract/contracts/CDS/CDS.sol",
  "compiler": {
    "name": "solc",
    "version": "0.8.16+commit.07a7930e.Emscripten.clang"
  },
  "schemaVersion": "3.4.11",
  "updatedAt": "2023-03-21T14:01:12.626Z",
  "devdoc": {
    "kind": "dev",
    "methods": {
      "owner()": {
        "details": "Returns the address of the current owner."
      },
      "renounceOwnership()": {
        "details": "Leaves the contract without owner. It will not be possible to call `onlyOwner` functions anymore. Can only be called by the current owner. NOTE: Renouncing ownership will leave the contract without an owner, thereby removing any functionality that is only available to the owner."
      },
      "transferOwnership(address)": {
        "details": "Transfers ownership of the contract to a new account (`newOwner`). Can only be called by the current owner."
      }
    },
    "version": 1
  },
  "userdoc": {
    "kind": "user",
    "methods": {},
    "version": 1
  }
}