{
  "contractName": "CDS",
  "abi": [
    {
      "inputs": [
        {
          "internalType": "uint256",
          "name": "_initAssetPrice",
          "type": "uint256"
        },
        {
          "internalType": "uint256",
          "name": "_claimPrice",
          "type": "uint256"
        },
        {
          "internalType": "uint256",
          "name": "_liquidationPrice",
          "type": "uint256"
        },
        {
          "internalType": "uint256",
          "name": "_premium",
          "type": "uint256"
        },
        {
          "internalType": "uint256",
          "name": "_sellerDeposit",
          "type": "uint256"
        },
        {
          "internalType": "uint32",
          "name": "_rounds",
          "type": "uint32"
        },
        {
          "internalType": "uint32",
          "name": "_assetType",
          "type": "uint32"
        }
      ],
      "stateMutability": "nonpayable",
      "type": "constructor"
    },
    {
      "anonymous": false,
      "inputs": [
        {
          "indexed": true,
          "internalType": "address",
          "name": "previousOwner",
          "type": "address"
        },
        {
          "indexed": true,
          "internalType": "address",
          "name": "newOwner",
          "type": "address"
        }
      ],
      "name": "OwnershipTransferred",
      "type": "event"
    },
    {
      "inputs": [],
      "name": "assetType",
      "outputs": [
        {
          "internalType": "uint32",
          "name": "",
          "type": "uint32"
        }
      ],
      "stateMutability": "view",
      "type": "function",
      "constant": true
    },
    {
      "inputs": [],
      "name": "claimPrice",
      "outputs": [
        {
          "internalType": "uint256",
          "name": "",
          "type": "uint256"
        }
      ],
      "stateMutability": "view",
      "type": "function",
      "constant": true
    },
    {
      "inputs": [
        {
          "internalType": "uint32",
          "name": "_assetType",
          "type": "uint32"
        }
      ],
      "name": "getCurrPrice",
      "outputs": [
        {
          "internalType": "uint256",
          "name": "",
          "type": "uint256"
        }
      ],
      "stateMutability": "view",
      "type": "function",
      "constant": true
    },
    {
      "inputs": [],
      "name": "initAssetPrice",
      "outputs": [
        {
          "internalType": "uint256",
          "name": "",
          "type": "uint256"
        }
      ],
      "stateMutability": "view",
      "type": "function",
      "constant": true
    },
    {
      "inputs": [],
      "name": "liquidationPrice",
      "outputs": [
        {
          "internalType": "uint256",
          "name": "",
          "type": "uint256"
        }
      ],
      "stateMutability": "view",
      "type": "function",
      "constant": true
    },
    {
      "inputs": [],
      "name": "nextPayDate",
      "outputs": [
        {
          "internalType": "uint256",
          "name": "",
          "type": "uint256"
        }
      ],
      "stateMutability": "view",
      "type": "function",
      "constant": true
    },
    {
      "inputs": [],
      "name": "owner",
      "outputs": [
        {
          "internalType": "address",
          "name": "",
          "type": "address"
        }
      ],
      "stateMutability": "view",
      "type": "function",
      "constant": true
    },
    {
      "inputs": [],
      "name": "premium",
      "outputs": [
        {
          "internalType": "uint256",
          "name": "",
          "type": "uint256"
        }
      ],
      "stateMutability": "view",
      "type": "function",
      "constant": true
    },
    {
      "inputs": [],
      "name": "renounceOwnership",
      "outputs": [],
      "stateMutability": "nonpayable",
      "type": "function"
    },
    {
      "inputs": [],
      "name": "rounds",
      "outputs": [
        {
          "internalType": "uint32",
          "name": "",
          "type": "uint32"
        }
      ],
      "stateMutability": "view",
      "type": "function",
      "constant": true
    },
    {
      "inputs": [],
      "name": "sellerDeposit",
      "outputs": [
        {
          "internalType": "uint256",
          "name": "",
          "type": "uint256"
        }
      ],
      "stateMutability": "view",
      "type": "function",
      "constant": true
    },
    {
      "inputs": [],
      "name": "status",
      "outputs": [
        {
          "internalType": "enum CDS.Status",
          "name": "",
          "type": "uint8"
        }
      ],
      "stateMutability": "view",
      "type": "function",
      "constant": true
    },
    {
      "inputs": [],
      "name": "totalRounds",
      "outputs": [
        {
          "internalType": "uint32",
          "name": "",
          "type": "uint32"
        }
      ],
      "stateMutability": "view",
      "type": "function",
      "constant": true
    },
    {
      "inputs": [
        {
          "internalType": "address",
          "name": "newOwner",
          "type": "address"
        }
      ],
      "name": "transferOwnership",
      "outputs": [],
      "stateMutability": "nonpayable",
      "type": "function"
    },
    {
      "inputs": [],
      "name": "premiumPaid",
      "outputs": [],
      "stateMutability": "nonpayable",
      "type": "function"
    },
    {
      "inputs": [
        {
          "internalType": "uint256",
          "name": "_initAssetPrice",
          "type": "uint256"
        },
        {
          "internalType": "address",
          "name": "msgSender",
          "type": "address"
        },
        {
          "internalType": "bool",
          "name": "_isBuyerHost",
          "type": "bool"
        }
      ],
      "name": "accept",
      "outputs": [],
      "stateMutability": "nonpayable",
      "type": "function"
    },
    {
      "inputs": [],
      "name": "cancel",
      "outputs": [],
      "stateMutability": "nonpayable",
      "type": "function"
    },
    {
      "inputs": [],
      "name": "close",
      "outputs": [],
      "stateMutability": "nonpayable",
      "type": "function"
    },
    {
      "inputs": [],
      "name": "claim",
      "outputs": [],
      "stateMutability": "nonpayable",
      "type": "function"
    },
    {
      "inputs": [],
      "name": "checkRoundsZero",
      "outputs": [
        {
          "internalType": "bool",
          "name": "",
          "type": "bool"
        }
      ],
      "stateMutability": "view",
      "type": "function",
      "constant": true
    },
    {
      "inputs": [],
      "name": "checkPayDatePassed",
      "outputs": [
        {
          "internalType": "bool",
          "name": "",
          "type": "bool"
        }
      ],
      "stateMutability": "view",
      "type": "function",
      "constant": true
    },
    {
      "inputs": [
        {
          "internalType": "uint256",
          "name": "_initAssetPrice",
          "type": "uint256"
        }
      ],
      "name": "setInitAssetPrice",
      "outputs": [
        {
          "internalType": "uint256",
          "name": "",
          "type": "uint256"
        }
      ],
      "stateMutability": "nonpayable",
      "type": "function"
    },
    {
      "inputs": [
        {
          "internalType": "address",
          "name": "_participants",
          "type": "address"
        },
        {
          "internalType": "bool",
          "name": "_isBuyer",
          "type": "bool"
        }
      ],
      "name": "setParticipants",
      "outputs": [],
      "stateMutability": "nonpayable",
      "type": "function"
    },
    {
      "inputs": [
        {
          "internalType": "address",
          "name": "_buyer",
          "type": "address"
        }
      ],
      "name": "setBuyer",
      "outputs": [
        {
          "internalType": "address",
          "name": "",
          "type": "address"
        }
      ],
      "stateMutability": "nonpayable",
      "type": "function"
    },
    {
      "inputs": [
        {
          "internalType": "address",
          "name": "_seller",
          "type": "address"
        }
      ],
      "name": "setSeller",
      "outputs": [
        {
          "internalType": "address",
          "name": "",
          "type": "address"
        }
      ],
      "stateMutability": "nonpayable",
      "type": "function"
    },
    {
      "inputs": [],
      "name": "getPrices",
      "outputs": [
        {
          "internalType": "uint256[5]",
          "name": "",
          "type": "uint256[5]"
        }
      ],
      "stateMutability": "view",
      "type": "function",
      "constant": true
    },
    {
      "inputs": [],
      "name": "getAmountOfAsset",
      "outputs": [
        {
          "internalType": "uint256",
          "name": "",
          "type": "uint256"
        }
      ],
      "stateMutability": "view",
      "type": "function",
      "constant": true
    },
    {
      "inputs": [],
      "name": "getBuyer",
      "outputs": [
        {
          "internalType": "address",
          "name": "",
          "type": "address"
        }
      ],
      "stateMutability": "view",
      "type": "function",
      "constant": true
    },
    {
      "inputs": [],
      "name": "getSeller",
      "outputs": [
        {
          "internalType": "address",
          "name": "",
          "type": "address"
        }
      ],
      "stateMutability": "view",
      "type": "function",
      "constant": true
    },
    {
      "inputs": [],
      "name": "getClaimReward",
      "outputs": [
        {
          "internalType": "uint256",
          "name": "",
          "type": "uint256"
        }
      ],
      "stateMutability": "view",
      "type": "function",
      "constant": true
    }
  ],
  "bytecode": "0x60806040523480156200001157600080fd5b5060405162002165380380620021658339818101604052810190620000379190620003b0565b732abdf4a7ad585effcc16b61643e058130b1311b86200006c620000606200026360201b60201c565b6200026b60201b60201c565b80600160006101000a81548173ffffffffffffffffffffffffffffffffffffffff021916908373ffffffffffffffffffffffffffffffffffffffff16021790555050866003819055508560048190555084600581905550836006819055508260078190555081600a60146101000a81548163ffffffff021916908363ffffffff16021790555081600a60186101000a81548163ffffffff021916908363ffffffff16021790555060008163ffffffff1614806200012f575060018163ffffffff16145b8062000141575060028163ffffffff16145b62000183576040517f08c379a00000000000000000000000000000000000000000000000000000000081526004016200017a90620004c4565b60405180910390fd5b80600a601c6101000a81548163ffffffff021916908363ffffffff1602179055506000600960006101000a81548173ffffffffffffffffffffffffffffffffffffffff021916908373ffffffffffffffffffffffffffffffffffffffff1602179055506000600a60006101000a81548173ffffffffffffffffffffffffffffffffffffffff021916908373ffffffffffffffffffffffffffffffffffffffff1602179055506001600260146101000a81548160ff02191690836004811115620002515762000250620004e6565b5b02179055505050505050505062000515565b600033905090565b60008060009054906101000a900473ffffffffffffffffffffffffffffffffffffffff169050816000806101000a81548173ffffffffffffffffffffffffffffffffffffffff021916908373ffffffffffffffffffffffffffffffffffffffff1602179055508173ffffffffffffffffffffffffffffffffffffffff168173ffffffffffffffffffffffffffffffffffffffff167f8be0079c531659141344cd1fd0a4f28419497f9722a3daafe3b4186f6b6457e060405160405180910390a35050565b600080fd5b6000819050919050565b620003498162000334565b81146200035557600080fd5b50565b60008151905062000369816200033e565b92915050565b600063ffffffff82169050919050565b6200038a816200036f565b81146200039657600080fd5b50565b600081519050620003aa816200037f565b92915050565b600080600080600080600060e0888a031215620003d257620003d16200032f565b5b6000620003e28a828b0162000358565b9750506020620003f58a828b0162000358565b9650506040620004088a828b0162000358565b95505060606200041b8a828b0162000358565b94505060806200042e8a828b0162000358565b93505060a0620004418a828b0162000399565b92505060c0620004548a828b0162000399565b91505092959891949750929550565b600082825260208201905092915050565b7f4254433a302c204554483a312c204c494e4b3a32000000000000000000000000600082015250565b6000620004ac60148362000463565b9150620004b98262000474565b602082019050919050565b60006020820190508181036000830152620004df816200049d565b9050919050565b7f4e487b7100000000000000000000000000000000000000000000000000000000600052602160045260246000fd5b611c4080620005256000396000f3fe608060405234801561001057600080fd5b50600436106101da5760003560e01c8063b6fc2d5f11610104578063dbd0e1b6116100a2578063f26cc58e11610071578063f26cc58e146104cb578063f2fde38b146104e9578063fcb341df14610505578063ffd0e69f14610523576101da565b8063dbd0e1b614610455578063e0a73a9314610473578063e99d286614610491578063ea8a1af0146104c1576101da565b8063bef904e3116100de578063bef904e3146103bb578063cbe97245146103eb578063cbed244914610407578063d868379814610437576101da565b8063b6fc2d5f14610363578063bab215f814610381578063bd9a548b1461039d576101da565b8063603daf9a1161017c5780638a5682991161014b5780638a568299146102d95780638da5cb5b146102f7578063a2e800ad14610315578063a3f09ad614610333576101da565b8063603daf9a14610275578063715018a614610293578063839966af1461029d57806386be75b7146102bb576101da565b806343d726d6116101b857806343d726d6146102395780634c1786ea146102435780634e71d92d146102615780635b6a251b1461026b576101da565b806315d655c9146101df578063200d2ed2146101fd5780633fe3347a1461021b575b600080fd5b6101e7610541565b6040516101f49190611300565b60405180910390f35b610205610547565b6040516102129190611392565b60405180910390f35b61022361055a565b60405161023091906113cc565b60405180910390f35b610241610570565b005b61024b6105fb565b6040516102589190611300565b60405180910390f35b610269610601565b005b6102736106d6565b005b61027d6107f5565b60405161028a9190611428565b60405180910390f35b61029b61081f565b005b6102a5610833565b6040516102b2919061145e565b60405180910390f35b6102c36108b6565b6040516102d09190611300565b60405180910390f35b6102e16108bc565b6040516102ee91906113cc565b60405180910390f35b6102ff6108d2565b60405161030c9190611428565b60405180910390f35b61031d6108fb565b60405161032a91906113cc565b60405180910390f35b61034d600480360381019061034891906114aa565b610911565b60405161035a9190611428565b60405180910390f35b61036b610986565b6040516103789190611300565b60405180910390f35b61039b60048036038101906103969190611503565b61098c565b005b6103a56109b6565b6040516103b291906115ee565b60405180910390f35b6103d560048036038101906103d09190611635565b6109f4565b6040516103e29190611300565b60405180910390f35b61040560048036038101906104009190611662565b610a07565b005b610421600480360381019061041c91906116e1565b610aff565b60405161042e9190611300565b60405180910390f35b61043f610d3d565b60405161044c9190611300565b60405180910390f35b61045d610d43565b60405161046a9190611428565b60405180910390f35b61047b610d6d565b6040516104889190611300565b60405180910390f35b6104ab60048036038101906104a691906114aa565b610d73565b6040516104b89190611428565b60405180910390f35b6104c9610de8565b005b6104d3610e73565b6040516104e09190611300565b60405180910390f35b61050360048036038101906104fe91906114aa565b610ecb565b005b61050d610f4e565b60405161051a9190611300565b60405180910390f35b61052b610f70565b604051610538919061145e565b60405180910390f35b60045481565b600260149054906101000a900460ff1681565b600a601c9054906101000a900463ffffffff1681565b610578611009565b6002600481111561058c5761058b61131b565b5b600260149054906101000a900460ff1660048111156105ae576105ad61131b565b5b146105ee576040517f08c379a00000000000000000000000000000000000000000000000000000000081526004016105e590611791565b60405180910390fd5b6105f86004611087565b50565b60075481565b610609611009565b6002600481111561061d5761061c61131b565b5b600260149054906101000a900460ff16600481111561063f5761063e61131b565b5b1461067f576040517f08c379a000000000000000000000000000000000000000000000000000000000815260040161067690611791565b60405180910390fd5b6000610689610e73565b036106c9576040517f08c379a00000000000000000000000000000000000000000000000000000000081526004016106c090611823565b60405180910390fd5b6106d36003611087565b50565b6106de611009565b600260048111156106f2576106f161131b565b5b600260149054906101000a900460ff1660048111156107145761071361131b565b5b14610754576040517f08c379a000000000000000000000000000000000000000000000000000000000815260040161074b90611791565b60405180910390fd5b6000600a60149054906101000a900463ffffffff1663ffffffff16116107af576040517f08c379a00000000000000000000000000000000000000000000000000000000081526004016107a69061188f565b60405180910390fd5b6224ea00600860008282546107c491906118de565b925050819055506107f26001600a60149054906101000a900463ffffffff166107ed9190611912565b6110d2565b50565b6000600960009054906101000a900473ffffffffffffffffffffffffffffffffffffffff16905090565b610827611009565b6108316000611117565b565b6000600260048111156108495761084861131b565b5b600260149054906101000a900460ff16600481111561086b5761086a61131b565b5b146108ab576040517f08c379a00000000000000000000000000000000000000000000000000000000081526004016108a290611791565b60405180910390fd5b600854421015905090565b60035481565b600a60189054906101000a900463ffffffff1681565b60008060009054906101000a900473ffffffffffffffffffffffffffffffffffffffff16905090565b600a60149054906101000a900463ffffffff1681565b600061091b611009565b81600960006101000a81548173ffffffffffffffffffffffffffffffffffffffff021916908373ffffffffffffffffffffffffffffffffffffffff160217905550600960009054906101000a900473ffffffffffffffffffffffffffffffffffffffff169050919050565b60055481565b610994611009565b806109a7576109a282610d73565b6109b1565b6109b082610911565b5b505050565b6109be6112c5565b6040518060a001604052806003548152602001600454815260200160055481526020016006548152602001600754815250905090565b6000816003819055506003549050919050565b610a0f611009565b60016004811115610a2357610a2261131b565b5b600260149054906101000a900460ff166004811115610a4557610a4461131b565b5b14610a85576040517f08c379a0000000000000000000000000000000000000000000000000000000008152600401610a7c906119bc565b60405180910390fd5b610a8e836109f4565b50610a9a82821561098c565b610aa46002611087565b506224ea0042610ab491906118de565b6008819055506001600a60148282829054906101000a900463ffffffff16610adc9190611912565b92506101000a81548163ffffffff021916908363ffffffff160217905550505050565b60008060008363ffffffff1603610bbe57610bb76305f5e100600160009054906101000a900473ffffffffffffffffffffffffffffffffffffffff1673ffffffffffffffffffffffffffffffffffffffff1663a8ad52d16040518163ffffffff1660e01b8152600401602060405180830381865afa158015610b85573d6000803e3d6000fd5b505050506040513d601f19601f82011682018060405250810190610ba991906119f1565b6111db90919063ffffffff16565b9050610d34565b60018363ffffffff1603610c7a57610c736305f5e100600160009054906101000a900473ffffffffffffffffffffffffffffffffffffffff1673ffffffffffffffffffffffffffffffffffffffff1663ff186b2e6040518163ffffffff1660e01b8152600401602060405180830381865afa158015610c41573d6000803e3d6000fd5b505050506040513d601f19601f82011682018060405250810190610c6591906119f1565b6111db90919063ffffffff16565b9050610d33565b60028363ffffffff1603610d3257610d2f6305f5e100600160009054906101000a900473ffffffffffffffffffffffffffffffffffffffff1673ffffffffffffffffffffffffffffffffffffffff16630cf785356040518163ffffffff1660e01b8152600401602060405180830381865afa158015610cfd573d6000803e3d6000fd5b505050506040513d601f19601f82011682018060405250810190610d2191906119f1565b6111db90919063ffffffff16565b90505b5b5b80915050919050565b60085481565b6000600a60009054906101000a900473ffffffffffffffffffffffffffffffffffffffff16905090565b60065481565b6000610d7d611009565b81600a60006101000a81548173ffffffffffffffffffffffffffffffffffffffff021916908373ffffffffffffffffffffffffffffffffffffffff160217905550600a60009054906101000a900473ffffffffffffffffffffffffffffffffffffffff169050919050565b610df0611009565b60016004811115610e0457610e0361131b565b5b600260149054906101000a900460ff166004811115610e2657610e2561131b565b5b14610e66576040517f08c379a0000000000000000000000000000000000000000000000000000000008152600401610e5d906119bc565b60405180910390fd5b610e706000611087565b50565b600080610e91600a601c9054906101000a900463ffffffff16610aff565b9050806004541015610ea7576000915050610ec8565b610ec4600554600354836007546111f1909392919063ffffffff16565b9150505b90565b610ed3611009565b600073ffffffffffffffffffffffffffffffffffffffff168173ffffffffffffffffffffffffffffffffffffffff1603610f42576040517f08c379a0000000000000000000000000000000000000000000000000000000008152600401610f3990611a90565b60405180910390fd5b610f4b81611117565b50565b6000610f6b6005546007546003546112619092919063ffffffff16565b905090565b600060026004811115610f8657610f8561131b565b5b600260149054906101000a900460ff166004811115610fa857610fa761131b565b5b14610fe8576040517f08c379a0000000000000000000000000000000000000000000000000000000008152600401610fdf90611791565b60405180910390fd5b6000600a60149054906101000a900463ffffffff1663ffffffff1614905090565b611011611291565b73ffffffffffffffffffffffffffffffffffffffff1661102f6108d2565b73ffffffffffffffffffffffffffffffffffffffff1614611085576040517f08c379a000000000000000000000000000000000000000000000000000000000815260040161107c90611afc565b60405180910390fd5b565b6000611091611009565b81600260146101000a81548160ff021916908360048111156110b6576110b561131b565b5b0217905550600260149054906101000a900460ff169050919050565b60006110dc611009565b81600a60146101000a81548163ffffffff021916908363ffffffff160217905550600a60149054906101000a900463ffffffff169050919050565b60008060009054906101000a900473ffffffffffffffffffffffffffffffffffffffff169050816000806101000a81548173ffffffffffffffffffffffffffffffffffffffff021916908373ffffffffffffffffffffffffffffffffffffffff1602179055508173ffffffffffffffffffffffffffffffffffffffff168173ffffffffffffffffffffffffffffffffffffffff167f8be0079c531659141344cd1fd0a4f28419497f9722a3daafe3b4186f6b6457e060405160405180910390a35050565b600081836111e99190611b4b565b905092915050565b60008082851061120357859050611255565b600061122a61121b878761129990919063ffffffff16565b886111db90919063ffffffff16565b9050611251611242858761129990919063ffffffff16565b826112af90919063ffffffff16565b9150505b80915050949350505050565b6000611288611279848661129990919063ffffffff16565b836111db90919063ffffffff16565b90509392505050565b600033905090565b600081836112a79190611b7c565b905092915050565b600081836112bd9190611bb0565b905092915050565b6040518060a00160405280600590602082028036833780820191505090505090565b6000819050919050565b6112fa816112e7565b82525050565b600060208201905061131560008301846112f1565b92915050565b7f4e487b7100000000000000000000000000000000000000000000000000000000600052602160045260246000fd5b6005811061135b5761135a61131b565b5b50565b600081905061136c8261134a565b919050565b600061137c8261135e565b9050919050565b61138c81611371565b82525050565b60006020820190506113a76000830184611383565b92915050565b600063ffffffff82169050919050565b6113c6816113ad565b82525050565b60006020820190506113e160008301846113bd565b92915050565b600073ffffffffffffffffffffffffffffffffffffffff82169050919050565b6000611412826113e7565b9050919050565b61142281611407565b82525050565b600060208201905061143d6000830184611419565b92915050565b60008115159050919050565b61145881611443565b82525050565b6000602082019050611473600083018461144f565b92915050565b600080fd5b61148781611407565b811461149257600080fd5b50565b6000813590506114a48161147e565b92915050565b6000602082840312156114c0576114bf611479565b5b60006114ce84828501611495565b91505092915050565b6114e081611443565b81146114eb57600080fd5b50565b6000813590506114fd816114d7565b92915050565b6000806040838503121561151a57611519611479565b5b600061152885828601611495565b9250506020611539858286016114ee565b9150509250929050565b600060059050919050565b600081905092915050565b6000819050919050565b61156c816112e7565b82525050565b600061157e8383611563565b60208301905092915050565b6000602082019050919050565b6115a081611543565b6115aa818461154e565b92506115b582611559565b8060005b838110156115e65781516115cd8782611572565b96506115d88361158a565b9250506001810190506115b9565b505050505050565b600060a0820190506116036000830184611597565b92915050565b611612816112e7565b811461161d57600080fd5b50565b60008135905061162f81611609565b92915050565b60006020828403121561164b5761164a611479565b5b600061165984828501611620565b91505092915050565b60008060006060848603121561167b5761167a611479565b5b600061168986828701611620565b935050602061169a86828701611495565b92505060406116ab868287016114ee565b9150509250925092565b6116be816113ad565b81146116c957600080fd5b50565b6000813590506116db816116b5565b92915050565b6000602082840312156116f7576116f6611479565b5b6000611705848285016116cc565b91505092915050565b600082825260208201905092915050565b7f54686520737461747573206f6620746865204344532073686f756c642062652060008201527f6163746976650000000000000000000000000000000000000000000000000000602082015250565b600061177b60268361170e565b91506117868261171f565b604082019050919050565b600060208201905081810360008301526117aa8161176e565b9050919050565b7f43757272656e7420707269636520697320686967686572207468616e2074686560008201527f20636c61696d20707269636520696e2043445300000000000000000000000000602082015250565b600061180d60338361170e565b9150611818826117b1565b604082019050919050565b6000602082019050818103600083015261183c81611800565b9050919050565b7f526f756e6420616c726561647920656e64656400000000000000000000000000600082015250565b600061187960138361170e565b915061188482611843565b602082019050919050565b600060208201905081810360008301526118a88161186c565b9050919050565b7f4e487b7100000000000000000000000000000000000000000000000000000000600052601160045260246000fd5b60006118e9826112e7565b91506118f4836112e7565b925082820190508082111561190c5761190b6118af565b5b92915050565b600061191d826113ad565b9150611928836113ad565b9250828203905063ffffffff811115611944576119436118af565b5b92915050565b7f54686520737461747573206f6620746865204344532073686f756c642062652060008201527f70656e64696e6700000000000000000000000000000000000000000000000000602082015250565b60006119a660278361170e565b91506119b18261194a565b604082019050919050565b600060208201905081810360008301526119d581611999565b9050919050565b6000815190506119eb81611609565b92915050565b600060208284031215611a0757611a06611479565b5b6000611a15848285016119dc565b91505092915050565b7f4f776e61626c653a206e6577206f776e657220697320746865207a65726f206160008201527f6464726573730000000000000000000000000000000000000000000000000000602082015250565b6000611a7a60268361170e565b9150611a8582611a1e565b604082019050919050565b60006020820190508181036000830152611aa981611a6d565b9050919050565b7f4f776e61626c653a2063616c6c6572206973206e6f7420746865206f776e6572600082015250565b6000611ae660208361170e565b9150611af182611ab0565b602082019050919050565b60006020820190508181036000830152611b1581611ad9565b9050919050565b7f4e487b7100000000000000000000000000000000000000000000000000000000600052601260045260246000fd5b6000611b56826112e7565b9150611b61836112e7565b925082611b7157611b70611b1c565b5b828204905092915050565b6000611b87826112e7565b9150611b92836112e7565b9250828203905081811115611baa57611ba96118af565b5b92915050565b6000611bbb826112e7565b9150611bc6836112e7565b9250817fffffffffffffffffffffffffffffffffffffffffffffffffffffffffffffffff0483118215151615611bff57611bfe6118af565b5b82820290509291505056fea264697066735822122000b97d7dd19ab04861fe5c9188062e027e002a35d2065ad38c885f76ebc0c5ef64736f6c63430008100033",
  "immutableReferences": {},
  "source": "// SPDX-License-Identifier: MIT\npragma solidity ^0.8.7;\n\nimport './PriceConsumer.sol';\nimport '../libs/LibSwap.sol';\nimport '@openzeppelin/contracts/access/Ownable.sol';\n\n// PriceConsumberGoerli({assetType})\ncontract CDS is\n  Ownable,\n  PriceConsumer(0x2ABDf4a7aD585EffCc16b61643e058130b1311b8)\n{\n  using LibSwap for uint256;\n\n  PriceOracleMock private priceOracle;\n\n  enum Status {\n    inactive,\n    pending,\n    active,\n    claimed,\n    expired\n  }\n  Status public status;\n\n  uint256 public initAssetPrice;\n  uint256 public claimPrice;\n  uint256 public liquidationPrice;\n  uint256 public premium;\n  uint256 public sellerDeposit;\n  uint256 public nextPayDate;\n  address private buyer;\n  address private seller;\n  uint32 public rounds;\n  uint32 public totalRounds;\n  uint32 public assetType;\n\n  constructor(\n    uint256 _initAssetPrice,\n    uint256 _claimPrice,\n    uint256 _liquidationPrice,\n    uint256 _premium,\n    uint256 _sellerDeposit,\n    uint32 _rounds,\n    uint32 _assetType\n  ) {\n    initAssetPrice = _initAssetPrice;\n    claimPrice = _claimPrice;\n    liquidationPrice = _liquidationPrice;\n    premium = _premium;\n    sellerDeposit = _sellerDeposit;\n    rounds = _rounds;\n    totalRounds = _rounds;\n\n    require(\n      _assetType == 0 || _assetType == 1 || _assetType == 2,\n      'BTC:0, ETH:1, LINK:2'\n    );\n    assetType = _assetType;\n\n    buyer = address(0);\n    seller = address(0);\n    status = Status.pending;\n  }\n\n  // transactions\n\n  function premiumPaid() external onlyOwner isActive {\n    require(rounds > 0, 'Round already ended');\n    nextPayDate += 4 weeks;\n    setRounds(rounds - 1);\n  }\n\n  function accept(\n    uint256 _initAssetPrice,\n    address msgSender,\n    bool _isBuyerHost // true when seller is accepting\n  ) external onlyOwner isPending {\n    setInitAssetPrice(_initAssetPrice);\n    setParticipants(msgSender, !_isBuyerHost);\n    setStatus(CDS.Status.active);\n    nextPayDate = block.timestamp + 4 weeks;\n    rounds -= 1;\n  }\n\n  function cancel() external onlyOwner isPending {\n    setStatus(CDS.Status.inactive);\n  }\n\n  function close() external onlyOwner isActive {\n    setStatus(CDS.Status.expired);\n  }\n\n  function claim() external onlyOwner isActive {\n    require(\n      getClaimReward() != 0,\n      'Current price is higher than the claim price in CDS'\n    );\n    setStatus(CDS.Status.claimed);\n  }\n\n  function checkRoundsZero() external view isActive returns (bool) {\n    return (rounds == 0);\n  }\n\n  function checkPayDatePassed() external view isActive returns (bool) {\n    return (block.timestamp >= nextPayDate);\n  }\n\n  // setter\n\n  function setInitAssetPrice(uint256 _initAssetPrice) public returns (uint256) {\n    initAssetPrice = _initAssetPrice;\n    return initAssetPrice;\n  }\n\n  function setStatus(Status _status) private onlyOwner returns (Status) {\n    status = _status;\n    return status;\n  }\n\n  function setParticipants(\n    address _participants,\n    bool _isBuyer\n  ) public onlyOwner {\n    _isBuyer ? setBuyer(_participants) : setSeller(_participants);\n  }\n\n  function setBuyer(address _buyer) public onlyOwner returns (address) {\n    buyer = _buyer;\n    return buyer;\n  }\n\n  function setSeller(address _seller) public onlyOwner returns (address) {\n    seller = _seller;\n    return seller;\n  }\n\n  function setRounds(uint32 _rounds) private onlyOwner returns (uint32) {\n    rounds = _rounds;\n    return rounds;\n  }\n\n  function setNextPayDate() private onlyOwner returns (uint256) {\n    nextPayDate += 4 weeks;\n    return nextPayDate;\n  }\n\n  // getter\n\n  function getPrices() public view returns (uint256[5] memory) {\n    return [\n      initAssetPrice,\n      claimPrice,\n      liquidationPrice,\n      premium,\n      sellerDeposit\n    ];\n  }\n\n  function getAmountOfAsset() public view returns (uint256) {\n    return initAssetPrice.calcAmountOfAsset(liquidationPrice, sellerDeposit);\n  }\n\n  function getBuyer() public view returns (address) {\n    return buyer;\n  }\n\n  function getSeller() public view returns (address) {\n    return seller;\n  }\n\n  function getClaimReward() public view returns (uint256) {\n    uint256 currPrice = getCurrPrice(assetType);\n    if (claimPrice < currPrice) {\n      return 0;\n    }\n    return\n      sellerDeposit.calcClaimReward(\n        liquidationPrice,\n        initAssetPrice,\n        currPrice\n      );\n  }\n\n  // modifiers\n\n  modifier isPending() {\n    require(\n      status == Status.pending,\n      'The status of the CDS should be pending'\n    );\n    _;\n  }\n\n  modifier isActive() {\n    require(status == Status.active, 'The status of the CDS should be active');\n    _;\n  }\n}\n",
  "sourcePath": "/Users/yoonsoo/codestates/BEB-07-final-CDS/contract/contracts/CDS/CDS.sol",
  "compiler": {
    "name": "solc",
    "version": "0.8.16+commit.07a7930e.Emscripten.clang"
  },
  "schemaVersion": "3.4.11",
  "updatedAt": "2023-03-22T09:00:20.986Z",
  "networkType": "ethereum",
  "devdoc": {
    "kind": "dev",
    "methods": {
      "owner()": {
        "details": "Returns the address of the current owner."
      },
      "renounceOwnership()": {
        "details": "Leaves the contract without owner. It will not be possible to call `onlyOwner` functions anymore. Can only be called by the current owner. NOTE: Renouncing ownership will leave the contract without an owner, thereby removing any functionality that is only available to the owner."
      },
      "transferOwnership(address)": {
        "details": "Transfers ownership of the contract to a new account (`newOwner`). Can only be called by the current owner."
      }
    },
    "version": 1
  },
  "userdoc": {
    "kind": "user",
    "methods": {},
    "version": 1
  }
}