{
  "contractName": "CDS",
  "abi": [
    {
      "inputs": [
        {
          "internalType": "uint256",
          "name": "_initAssetPrice",
          "type": "uint256"
        },
        {
          "internalType": "uint256",
          "name": "_claimPrice",
          "type": "uint256"
        },
        {
          "internalType": "uint256",
          "name": "_liquidationPrice",
          "type": "uint256"
        },
        {
          "internalType": "uint256",
          "name": "_premium",
          "type": "uint256"
        },
        {
          "internalType": "uint256",
          "name": "_sellerDeposit",
          "type": "uint256"
        },
        {
          "internalType": "uint32",
          "name": "_rounds",
          "type": "uint32"
        },
        {
          "internalType": "uint32",
          "name": "_assetType",
          "type": "uint32"
        }
      ],
      "stateMutability": "nonpayable",
      "type": "constructor"
    },
    {
      "anonymous": false,
      "inputs": [
        {
          "indexed": true,
          "internalType": "address",
          "name": "previousOwner",
          "type": "address"
        },
        {
          "indexed": true,
          "internalType": "address",
          "name": "newOwner",
          "type": "address"
        }
      ],
      "name": "OwnershipTransferred",
      "type": "event"
    },
    {
      "inputs": [],
      "name": "amountOfAsset",
      "outputs": [
        {
          "internalType": "uint256",
          "name": "",
          "type": "uint256"
        }
      ],
      "stateMutability": "view",
      "type": "function"
    },
    {
      "inputs": [],
      "name": "assetType",
      "outputs": [
        {
          "internalType": "uint32",
          "name": "",
          "type": "uint32"
        }
      ],
      "stateMutability": "view",
      "type": "function"
    },
    {
      "inputs": [],
      "name": "claimPrice",
      "outputs": [
        {
          "internalType": "uint256",
          "name": "",
          "type": "uint256"
        }
      ],
      "stateMutability": "view",
      "type": "function"
    },
    {
      "inputs": [
        {
          "internalType": "uint32",
          "name": "_assetType",
          "type": "uint32"
        }
      ],
      "name": "getCurrPrice",
      "outputs": [
        {
          "internalType": "uint256",
          "name": "",
          "type": "uint256"
        }
      ],
      "stateMutability": "view",
      "type": "function"
    },
    {
      "inputs": [],
      "name": "initAssetPrice",
      "outputs": [
        {
          "internalType": "uint256",
          "name": "",
          "type": "uint256"
        }
      ],
      "stateMutability": "view",
      "type": "function"
    },
    {
      "inputs": [],
      "name": "liquidationPrice",
      "outputs": [
        {
          "internalType": "uint256",
          "name": "",
          "type": "uint256"
        }
      ],
      "stateMutability": "view",
      "type": "function"
    },
    {
      "inputs": [],
      "name": "owner",
      "outputs": [
        {
          "internalType": "address",
          "name": "",
          "type": "address"
        }
      ],
      "stateMutability": "view",
      "type": "function"
    },
    {
      "inputs": [],
      "name": "premium",
      "outputs": [
        {
          "internalType": "uint256",
          "name": "",
          "type": "uint256"
        }
      ],
      "stateMutability": "view",
      "type": "function"
    },
    {
      "inputs": [],
      "name": "renounceOwnership",
      "outputs": [],
      "stateMutability": "nonpayable",
      "type": "function"
    },
    {
      "inputs": [],
      "name": "rounds",
      "outputs": [
        {
          "internalType": "uint32",
          "name": "",
          "type": "uint32"
        }
      ],
      "stateMutability": "view",
      "type": "function"
    },
    {
      "inputs": [],
      "name": "sellerDeposit",
      "outputs": [
        {
          "internalType": "uint256",
          "name": "",
          "type": "uint256"
        }
      ],
      "stateMutability": "view",
      "type": "function"
    },
    {
      "inputs": [],
      "name": "status",
      "outputs": [
        {
          "internalType": "enum CDS.Status",
          "name": "",
          "type": "uint8"
        }
      ],
      "stateMutability": "view",
      "type": "function"
    },
    {
      "inputs": [],
      "name": "totalRounds",
      "outputs": [
        {
          "internalType": "uint32",
          "name": "",
          "type": "uint32"
        }
      ],
      "stateMutability": "view",
      "type": "function"
    },
    {
      "inputs": [
        {
          "internalType": "address",
          "name": "newOwner",
          "type": "address"
        }
      ],
      "name": "transferOwnership",
      "outputs": [],
      "stateMutability": "nonpayable",
      "type": "function"
    },
    {
      "inputs": [],
      "name": "getPrices",
      "outputs": [
        {
          "internalType": "uint256[5]",
          "name": "",
          "type": "uint256[5]"
        }
      ],
      "stateMutability": "view",
      "type": "function"
    },
    {
      "inputs": [],
      "name": "getBuyer",
      "outputs": [
        {
          "internalType": "address",
          "name": "",
          "type": "address"
        }
      ],
      "stateMutability": "view",
      "type": "function"
    },
    {
      "inputs": [],
      "name": "getSeller",
      "outputs": [
        {
          "internalType": "address",
          "name": "",
          "type": "address"
        }
      ],
      "stateMutability": "view",
      "type": "function"
    },
    {
      "inputs": [],
      "name": "getClaimReward",
      "outputs": [
        {
          "internalType": "uint256",
          "name": "",
          "type": "uint256"
        }
      ],
      "stateMutability": "view",
      "type": "function"
    },
    {
      "inputs": [
        {
          "internalType": "uint256",
          "name": "_initAssetPrice",
          "type": "uint256"
        }
      ],
      "name": "setInitAssetPrice",
      "outputs": [
        {
          "internalType": "uint256",
          "name": "",
          "type": "uint256"
        }
      ],
      "stateMutability": "nonpayable",
      "type": "function"
    },
    {
      "inputs": [
        {
          "internalType": "enum CDS.Status",
          "name": "_status",
          "type": "uint8"
        }
      ],
      "name": "setStatus",
      "outputs": [
        {
          "internalType": "enum CDS.Status",
          "name": "",
          "type": "uint8"
        }
      ],
      "stateMutability": "nonpayable",
      "type": "function"
    },
    {
      "inputs": [
        {
          "internalType": "address",
          "name": "_participants",
          "type": "address"
        },
        {
          "internalType": "bool",
          "name": "_isBuyer",
          "type": "bool"
        }
      ],
      "name": "setParticipants",
      "outputs": [],
      "stateMutability": "nonpayable",
      "type": "function"
    },
    {
      "inputs": [
        {
          "internalType": "address",
          "name": "_buyer",
          "type": "address"
        }
      ],
      "name": "setBuyer",
      "outputs": [
        {
          "internalType": "address",
          "name": "",
          "type": "address"
        }
      ],
      "stateMutability": "nonpayable",
      "type": "function"
    },
    {
      "inputs": [
        {
          "internalType": "address",
          "name": "_seller",
          "type": "address"
        }
      ],
      "name": "setSeller",
      "outputs": [
        {
          "internalType": "address",
          "name": "",
          "type": "address"
        }
      ],
      "stateMutability": "nonpayable",
      "type": "function"
    },
    {
      "inputs": [
        {
          "internalType": "uint32",
          "name": "_rounds",
          "type": "uint32"
        }
      ],
      "name": "setRounds",
      "outputs": [
        {
          "internalType": "uint32",
          "name": "",
          "type": "uint32"
        }
      ],
      "stateMutability": "nonpayable",
      "type": "function"
    }
  ],
  "bytecode": "0x60806040523480156200001157600080fd5b5060405162001a1338038062001a13833981810160405281019062000037919062000446565b73f2a3fa0266a0feffa87da45f0d3c45ac66fe05c56200006c620000606200028b60201b60201c565b6200029360201b60201c565b80600160006101000a81548173ffffffffffffffffffffffffffffffffffffffff021916908373ffffffffffffffffffffffffffffffffffffffff16021790555050866003819055508560048190555084600581905550836006819055508260078190555081600a60146101000a81548163ffffffff021916908363ffffffff16021790555081600a60186101000a81548163ffffffff021916908363ffffffff160217905550620001356005546007546003546200035760201b62000a99179092919060201c565b60088190555060008163ffffffff16148062000157575060018163ffffffff16145b8062000169575060028163ffffffff16145b620001ab576040517f08c379a0000000000000000000000000000000000000000000000000000000008152600401620001a2906200055a565b60405180910390fd5b80600a601c6101000a81548163ffffffff021916908363ffffffff1602179055506000600960006101000a81548173ffffffffffffffffffffffffffffffffffffffff021916908373ffffffffffffffffffffffffffffffffffffffff1602179055506000600a60006101000a81548173ffffffffffffffffffffffffffffffffffffffff021916908373ffffffffffffffffffffffffffffffffffffffff1602179055506001600260146101000a81548160ff021916908360048111156200027957620002786200057c565b5b0217905550505050505050506200067c565b600033905090565b60008060009054906101000a900473ffffffffffffffffffffffffffffffffffffffff169050816000806101000a81548173ffffffffffffffffffffffffffffffffffffffff021916908373ffffffffffffffffffffffffffffffffffffffff1602179055508173ffffffffffffffffffffffffffffffffffffffff168173ffffffffffffffffffffffffffffffffffffffff167f8be0079c531659141344cd1fd0a4f28419497f9722a3daafe3b4186f6b6457e060405160405180910390a35050565b60006200038c6200037784866200039560201b62000ac91790919060201c565b83620003ad60201b62000adf1790919060201c565b90509392505050565b60008183620003a59190620005da565b905092915050565b60008183620003bd919062000644565b905092915050565b600080fd5b6000819050919050565b620003df81620003ca565b8114620003eb57600080fd5b50565b600081519050620003ff81620003d4565b92915050565b600063ffffffff82169050919050565b620004208162000405565b81146200042c57600080fd5b50565b600081519050620004408162000415565b92915050565b600080600080600080600060e0888a031215620004685762000467620003c5565b5b6000620004788a828b01620003ee565b97505060206200048b8a828b01620003ee565b96505060406200049e8a828b01620003ee565b9550506060620004b18a828b01620003ee565b9450506080620004c48a828b01620003ee565b93505060a0620004d78a828b016200042f565b92505060c0620004ea8a828b016200042f565b91505092959891949750929550565b600082825260208201905092915050565b7f4254433a302c204554483a312c204c494e4b3a32000000000000000000000000600082015250565b600062000542601483620004f9565b91506200054f826200050a565b602082019050919050565b60006020820190508181036000830152620005758162000533565b9050919050565b7f4e487b7100000000000000000000000000000000000000000000000000000000600052602160045260246000fd5b7f4e487b7100000000000000000000000000000000000000000000000000000000600052601160045260246000fd5b6000620005e782620003ca565b9150620005f483620003ca565b92508282039050818111156200060f576200060e620005ab565b5b92915050565b7f4e487b7100000000000000000000000000000000000000000000000000000000600052601260045260246000fd5b60006200065182620003ca565b91506200065e83620003ca565b92508262000671576200067062000615565b5b828204905092915050565b611387806200068c6000396000f3fe608060405234801561001057600080fd5b50600436106101585760003560e01c8063a3f09ad6116100c3578063d2895e931161007c578063d2895e93146103ab578063dbd0e1b6146103db578063e0a73a93146103f9578063e99d286614610417578063f26cc58e14610447578063f2fde38b1461046557610158565b8063a3f09ad6146102c3578063b6fc2d5f146102f3578063bab215f814610311578063bd9a548b1461032d578063bef904e31461034b578063cbed24491461037b57610158565b8063715018a611610115578063715018a614610223578063762db7ee1461022d57806386be75b71461024b5780638a568299146102695780638da5cb5b14610287578063a2e800ad146102a557610158565b806315d655c91461015d578063200d2ed21461017b5780632e49d78b146101995780633fe3347a146101c95780634c1786ea146101e7578063603daf9a14610205575b600080fd5b610165610481565b6040516101729190610d00565b60405180910390f35b610183610487565b6040516101909190610d92565b60405180910390f35b6101b360048036038101906101ae9190610dd7565b61049a565b6040516101c09190610d92565b60405180910390f35b6101d16104e5565b6040516101de9190610e23565b60405180910390f35b6101ef6104fb565b6040516101fc9190610d00565b60405180910390f35b61020d610501565b60405161021a9190610e7f565b60405180910390f35b61022b61052b565b005b61023561053f565b6040516102429190610d00565b60405180910390f35b610253610545565b6040516102609190610d00565b60405180910390f35b61027161054b565b60405161027e9190610e23565b60405180910390f35b61028f610561565b60405161029c9190610e7f565b60405180910390f35b6102ad61058a565b6040516102ba9190610e23565b60405180910390f35b6102dd60048036038101906102d89190610ec6565b6105a0565b6040516102ea9190610e7f565b60405180910390f35b6102fb610615565b6040516103089190610d00565b60405180910390f35b61032b60048036038101906103269190610f2b565b61061b565b005b610335610645565b6040516103429190611016565b60405180910390f35b6103656004803603810190610360919061105d565b610683565b6040516103729190610d00565b60405180910390f35b610395600480360381019061039091906110b6565b610696565b6040516103a29190610d00565b60405180910390f35b6103c560048036038101906103c091906110b6565b6108d4565b6040516103d29190610e23565b60405180910390f35b6103e3610919565b6040516103f09190610e7f565b60405180910390f35b610401610943565b60405161040e9190610d00565b60405180910390f35b610431600480360381019061042c9190610ec6565b610949565b60405161043e9190610e7f565b60405180910390f35b61044f6109be565b60405161045c9190610d00565b60405180910390f35b61047f600480360381019061047a9190610ec6565b610a16565b005b60045481565b600260149054906101000a900460ff1681565b60006104a4610af5565b81600260146101000a81548160ff021916908360048111156104c9576104c8610d1b565b5b0217905550600260149054906101000a900460ff169050919050565b600a601c9054906101000a900463ffffffff1681565b60075481565b6000600960009054906101000a900473ffffffffffffffffffffffffffffffffffffffff16905090565b610533610af5565b61053d6000610b73565b565b60085481565b60035481565b600a60189054906101000a900463ffffffff1681565b60008060009054906101000a900473ffffffffffffffffffffffffffffffffffffffff16905090565b600a60149054906101000a900463ffffffff1681565b60006105aa610af5565b81600960006101000a81548173ffffffffffffffffffffffffffffffffffffffff021916908373ffffffffffffffffffffffffffffffffffffffff160217905550600960009054906101000a900473ffffffffffffffffffffffffffffffffffffffff169050919050565b60055481565b610623610af5565b806106365761063182610949565b610640565b61063f826105a0565b5b505050565b61064d610cc5565b6040518060a001604052806003548152602001600454815260200160055481526020016006548152602001600754815250905090565b6000816003819055506003549050919050565b60008060008363ffffffff16036107555761074e6305f5e100600160009054906101000a900473ffffffffffffffffffffffffffffffffffffffff1673ffffffffffffffffffffffffffffffffffffffff1663a8ad52d16040518163ffffffff1660e01b8152600401602060405180830381865afa15801561071c573d6000803e3d6000fd5b505050506040513d601f19601f8201168201806040525081019061074091906110f8565b610adf90919063ffffffff16565b90506108cb565b60018363ffffffff16036108115761080a6305f5e100600160009054906101000a900473ffffffffffffffffffffffffffffffffffffffff1673ffffffffffffffffffffffffffffffffffffffff1663ff186b2e6040518163ffffffff1660e01b8152600401602060405180830381865afa1580156107d8573d6000803e3d6000fd5b505050506040513d601f19601f820116820180604052508101906107fc91906110f8565b610adf90919063ffffffff16565b90506108ca565b60028363ffffffff16036108c9576108c66305f5e100600160009054906101000a900473ffffffffffffffffffffffffffffffffffffffff1673ffffffffffffffffffffffffffffffffffffffff16630cf785356040518163ffffffff1660e01b8152600401602060405180830381865afa158015610894573d6000803e3d6000fd5b505050506040513d601f19601f820116820180604052508101906108b891906110f8565b610adf90919063ffffffff16565b90505b5b5b80915050919050565b60006108de610af5565b81600a60146101000a81548163ffffffff021916908363ffffffff160217905550600a60149054906101000a900463ffffffff169050919050565b6000600a60009054906101000a900473ffffffffffffffffffffffffffffffffffffffff16905090565b60065481565b6000610953610af5565b81600a60006101000a81548173ffffffffffffffffffffffffffffffffffffffff021916908373ffffffffffffffffffffffffffffffffffffffff160217905550600a60009054906101000a900473ffffffffffffffffffffffffffffffffffffffff169050919050565b6000806109dc600a601c9054906101000a900463ffffffff16610696565b90508060045410156109f2576000915050610a13565b610a0f60055460035483600754610c37909392919063ffffffff16565b9150505b90565b610a1e610af5565b600073ffffffffffffffffffffffffffffffffffffffff168173ffffffffffffffffffffffffffffffffffffffff1603610a8d576040517f08c379a0000000000000000000000000000000000000000000000000000000008152600401610a84906111a8565b60405180910390fd5b610a9681610b73565b50565b6000610ac0610ab18486610ac990919063ffffffff16565b83610adf90919063ffffffff16565b90509392505050565b60008183610ad791906111f7565b905092915050565b60008183610aed919061125a565b905092915050565b610afd610ca7565b73ffffffffffffffffffffffffffffffffffffffff16610b1b610561565b73ffffffffffffffffffffffffffffffffffffffff1614610b71576040517f08c379a0000000000000000000000000000000000000000000000000000000008152600401610b68906112d7565b60405180910390fd5b565b60008060009054906101000a900473ffffffffffffffffffffffffffffffffffffffff169050816000806101000a81548173ffffffffffffffffffffffffffffffffffffffff021916908373ffffffffffffffffffffffffffffffffffffffff1602179055508173ffffffffffffffffffffffffffffffffffffffff168173ffffffffffffffffffffffffffffffffffffffff167f8be0079c531659141344cd1fd0a4f28419497f9722a3daafe3b4186f6b6457e060405160405180910390a35050565b600080828510610c4957859050610c9b565b6000610c70610c618787610ac990919063ffffffff16565b88610adf90919063ffffffff16565b9050610c97610c888587610ac990919063ffffffff16565b82610caf90919063ffffffff16565b9150505b80915050949350505050565b600033905090565b60008183610cbd91906112f7565b905092915050565b6040518060a00160405280600590602082028036833780820191505090505090565b6000819050919050565b610cfa81610ce7565b82525050565b6000602082019050610d156000830184610cf1565b92915050565b7f4e487b7100000000000000000000000000000000000000000000000000000000600052602160045260246000fd5b60058110610d5b57610d5a610d1b565b5b50565b6000819050610d6c82610d4a565b919050565b6000610d7c82610d5e565b9050919050565b610d8c81610d71565b82525050565b6000602082019050610da76000830184610d83565b92915050565b600080fd5b60058110610dbf57600080fd5b50565b600081359050610dd181610db2565b92915050565b600060208284031215610ded57610dec610dad565b5b6000610dfb84828501610dc2565b91505092915050565b600063ffffffff82169050919050565b610e1d81610e04565b82525050565b6000602082019050610e386000830184610e14565b92915050565b600073ffffffffffffffffffffffffffffffffffffffff82169050919050565b6000610e6982610e3e565b9050919050565b610e7981610e5e565b82525050565b6000602082019050610e946000830184610e70565b92915050565b610ea381610e5e565b8114610eae57600080fd5b50565b600081359050610ec081610e9a565b92915050565b600060208284031215610edc57610edb610dad565b5b6000610eea84828501610eb1565b91505092915050565b60008115159050919050565b610f0881610ef3565b8114610f1357600080fd5b50565b600081359050610f2581610eff565b92915050565b60008060408385031215610f4257610f41610dad565b5b6000610f5085828601610eb1565b9250506020610f6185828601610f16565b9150509250929050565b600060059050919050565b600081905092915050565b6000819050919050565b610f9481610ce7565b82525050565b6000610fa68383610f8b565b60208301905092915050565b6000602082019050919050565b610fc881610f6b565b610fd28184610f76565b9250610fdd82610f81565b8060005b8381101561100e578151610ff58782610f9a565b965061100083610fb2565b925050600181019050610fe1565b505050505050565b600060a08201905061102b6000830184610fbf565b92915050565b61103a81610ce7565b811461104557600080fd5b50565b60008135905061105781611031565b92915050565b60006020828403121561107357611072610dad565b5b600061108184828501611048565b91505092915050565b61109381610e04565b811461109e57600080fd5b50565b6000813590506110b08161108a565b92915050565b6000602082840312156110cc576110cb610dad565b5b60006110da848285016110a1565b91505092915050565b6000815190506110f281611031565b92915050565b60006020828403121561110e5761110d610dad565b5b600061111c848285016110e3565b91505092915050565b600082825260208201905092915050565b7f4f776e61626c653a206e6577206f776e657220697320746865207a65726f206160008201527f6464726573730000000000000000000000000000000000000000000000000000602082015250565b6000611192602683611125565b915061119d82611136565b604082019050919050565b600060208201905081810360008301526111c181611185565b9050919050565b7f4e487b7100000000000000000000000000000000000000000000000000000000600052601160045260246000fd5b600061120282610ce7565b915061120d83610ce7565b9250828203905081811115611225576112246111c8565b5b92915050565b7f4e487b7100000000000000000000000000000000000000000000000000000000600052601260045260246000fd5b600061126582610ce7565b915061127083610ce7565b9250826112805761127f61122b565b5b828204905092915050565b7f4f776e61626c653a2063616c6c6572206973206e6f7420746865206f776e6572600082015250565b60006112c1602083611125565b91506112cc8261128b565b602082019050919050565b600060208201905081810360008301526112f0816112b4565b9050919050565b600061130282610ce7565b915061130d83610ce7565b9250817fffffffffffffffffffffffffffffffffffffffffffffffffffffffffffffffff0483118215151615611346576113456111c8565b5b82820290509291505056fea26469706673582212202bfd13ab9213ad63216874f2d4925ec9146a35b063166949489135597ca9122964736f6c63430008100033",
  "immutableReferences": {},
  "source": "// SPDX-License-Identifier: MIT\npragma solidity ^0.8.7;\n\nimport './PriceConsumer.sol';\nimport '../libs/LibSwap.sol';\nimport '@openzeppelin/contracts/access/Ownable.sol';\n\n// PriceConsumberGoerli({assetType})\ncontract CDS is Ownable, PriceConsumer(0xF2A3Fa0266A0fEFFA87DA45F0D3C45aC66FE05c5) {\n  using LibSwap for uint256;\n\n  PriceOracleMock private priceOracle;\n\n  enum Status {\n    inactive,\n    pending,\n    active,\n    claimed,\n    expired\n  }\n  Status public status;\n\n  uint256 public initAssetPrice;\n  uint256 public claimPrice;\n  uint256 public liquidationPrice;\n  uint256 public premium;\n  uint256 public sellerDeposit;\n  uint256 public amountOfAsset;\n  address private buyer;\n  address private seller;\n  uint32 public rounds;\n  uint32 public totalRounds;\n  uint32 public assetType;\n\n  constructor(\n    uint256 _initAssetPrice,\n    uint256 _claimPrice,\n    uint256 _liquidationPrice,\n    uint256 _premium,\n    uint256 _sellerDeposit,\n    uint32 _rounds,\n    uint32 _assetType\n  ) {\n    initAssetPrice = _initAssetPrice;\n    claimPrice = _claimPrice;\n    liquidationPrice = _liquidationPrice;\n    premium = _premium;\n    sellerDeposit = _sellerDeposit;\n    rounds = _rounds;\n    totalRounds = _rounds;\n    amountOfAsset = initAssetPrice.calcAmountOfAsset(\n      liquidationPrice,\n      sellerDeposit\n    );\n    require(\n      _assetType == 0 || _assetType == 1 || _assetType == 2,\n      'BTC:0, ETH:1, LINK:2'\n    );\n    assetType = _assetType;\n\n    buyer = address(0);\n    seller = address(0);\n    status = Status.pending;\n  }\n\n  function getPrices() public view returns (uint256[5] memory) {\n    return [\n      initAssetPrice,\n      claimPrice,\n      liquidationPrice,\n      premium,\n      sellerDeposit\n    ];\n  }\n\n  function getBuyer() public view returns (address) {\n    return buyer;\n  }\n\n  function getSeller() public view returns (address) {\n    return seller;\n  }\n\n  function getClaimReward() public view returns (uint256) {\n    uint256 currPrice = getCurrPrice(assetType);\n    if (claimPrice < currPrice) {\n      return 0;\n    }\n    return\n      sellerDeposit.calcClaimReward(\n        liquidationPrice,\n        initAssetPrice,\n        currPrice\n      );\n  }\n\n  function setInitAssetPrice(uint256 _initAssetPrice) public returns (uint256) {\n    initAssetPrice = _initAssetPrice;\n    return initAssetPrice;\n  }\n\n  function setStatus(Status _status) public onlyOwner returns (Status) {\n    status = _status;\n    return status;\n  }\n\n  function setParticipants(address _participants, bool _isBuyer) public onlyOwner {\n    _isBuyer ? setBuyer(_participants) : setSeller(_participants);\n  }\n\n  function setBuyer(address _buyer) public onlyOwner returns (address) {\n    buyer = _buyer;\n    return buyer;\n  }\n\n  function setSeller(address _seller) public onlyOwner returns (address) {\n    seller = _seller;\n    return seller;\n  }\n\n  function setRounds(uint32 _rounds) public onlyOwner returns (uint32) {\n    rounds = _rounds;\n    return rounds;\n  }\n}\n",
  "sourcePath": "/Users/yoonsoo/codestates/BEB-07-final-CDS/contract/contracts/CDS/CDS.sol",
  "compiler": {
    "name": "solc",
    "version": "0.8.16+commit.07a7930e.Emscripten.clang"
  },
  "schemaVersion": "3.4.11",
  "updatedAt": "2023-03-21T06:14:00.563Z",
  "devdoc": {
    "kind": "dev",
    "methods": {
      "owner()": {
        "details": "Returns the address of the current owner."
      },
      "renounceOwnership()": {
        "details": "Leaves the contract without owner. It will not be possible to call `onlyOwner` functions anymore. Can only be called by the current owner. NOTE: Renouncing ownership will leave the contract without an owner, thereby removing any functionality that is only available to the owner."
      },
      "transferOwnership(address)": {
        "details": "Transfers ownership of the contract to a new account (`newOwner`). Can only be called by the current owner."
      }
    },
    "version": 1
  },
  "userdoc": {
    "kind": "user",
    "methods": {},
    "version": 1
  }
}