{
  "contractName": "CDSBank",
  "abi": [
    {
      "inputs": [],
      "stateMutability": "nonpayable",
      "type": "constructor"
    },
    {
      "inputs": [
        {
          "internalType": "uint256",
          "name": "",
          "type": "uint256"
        },
        {
          "internalType": "uint256",
          "name": "",
          "type": "uint256"
        }
      ],
      "name": "deposits",
      "outputs": [
        {
          "internalType": "uint256",
          "name": "",
          "type": "uint256"
        }
      ],
      "stateMutability": "view",
      "type": "function"
    },
    {
      "inputs": [
        {
          "internalType": "uint256",
          "name": "cdsId",
          "type": "uint256"
        }
      ],
      "name": "getBuyer",
      "outputs": [
        {
          "internalType": "address",
          "name": "",
          "type": "address"
        }
      ],
      "stateMutability": "view",
      "type": "function"
    },
    {
      "inputs": [
        {
          "internalType": "uint256",
          "name": "cdsId",
          "type": "uint256"
        }
      ],
      "name": "getCDS",
      "outputs": [
        {
          "internalType": "contract CDS",
          "name": "",
          "type": "address"
        }
      ],
      "stateMutability": "view",
      "type": "function"
    },
    {
      "inputs": [],
      "name": "getCDSId",
      "outputs": [
        {
          "components": [
            {
              "internalType": "uint256",
              "name": "_value",
              "type": "uint256"
            }
          ],
          "internalType": "struct Counters.Counter",
          "name": "",
          "type": "tuple"
        }
      ],
      "stateMutability": "view",
      "type": "function"
    },
    {
      "inputs": [
        {
          "internalType": "address",
          "name": "owner",
          "type": "address"
        }
      ],
      "name": "getOwnedCDS",
      "outputs": [
        {
          "internalType": "address[]",
          "name": "",
          "type": "address[]"
        }
      ],
      "stateMutability": "view",
      "type": "function"
    },
    {
      "inputs": [
        {
          "internalType": "uint256",
          "name": "cdsId",
          "type": "uint256"
        }
      ],
      "name": "getSeller",
      "outputs": [
        {
          "internalType": "address",
          "name": "",
          "type": "address"
        }
      ],
      "stateMutability": "view",
      "type": "function"
    },
    {
      "inputs": [],
      "name": "token",
      "outputs": [
        {
          "internalType": "contract IERC20",
          "name": "",
          "type": "address"
        }
      ],
      "stateMutability": "view",
      "type": "function"
    }
  ],
  "bytecode": "0x608060405234801561001057600080fd5b507344f818644e6bbc02e58c81b550d80611857233b5600360006101000a81548173ffffffffffffffffffffffffffffffffffffffff021916908373ffffffffffffffffffffffffffffffffffffffff16021790555061086e806100756000396000f3fe608060405234801561001057600080fd5b506004361061007d5760003560e01c80637f5c4d4a1161005b5780637f5c4d4a14610112578063d0e5d95514610142578063d6a9de5114610160578063fc0c546a146101905761007d565b80632bd49780146100825780635af8d21c146100b25780635bf608b8146100e2575b600080fd5b61009c600480360381019061009791906104ce565b6101ae565b6040516100a9919061051d565b60405180910390f35b6100cc60048036038101906100c79190610538565b6101d6565b6040516100d991906105e4565b60405180910390f35b6100fc60048036038101906100f79190610538565b610213565b6040516101099190610620565b60405180910390f35b61012c60048036038101906101279190610667565b6102be565b6040516101399190610752565b60405180910390f35b61014a61038b565b604051610157919061079f565b60405180910390f35b61017a60048036038101906101759190610538565b6103af565b6040516101879190610620565b60405180910390f35b61019861045a565b6040516101a591906107db565b60405180910390f35b600460205281600052604060002081600281106101ca57600080fd5b01600091509150505481565b60006001600083815260200190815260200160002060009054906101000a900473ffffffffffffffffffffffffffffffffffffffff169050919050565b60006001600083815260200190815260200160002060009054906101000a900473ffffffffffffffffffffffffffffffffffffffff1673ffffffffffffffffffffffffffffffffffffffff1663603daf9a6040518163ffffffff1660e01b8152600401602060405180830381865afa158015610293573d6000803e3d6000fd5b505050506040513d601f19601f820116820180604052508101906102b7919061080b565b9050919050565b6060600260008373ffffffffffffffffffffffffffffffffffffffff1673ffffffffffffffffffffffffffffffffffffffff16815260200190815260200160002080548060200260200160405190810160405280929190818152602001828054801561037f57602002820191906000526020600020905b8160009054906101000a900473ffffffffffffffffffffffffffffffffffffffff1673ffffffffffffffffffffffffffffffffffffffff1681526020019060010190808311610335575b50505050509050919050565b610393610480565b6000604051806020016040529081600082015481525050905090565b60006001600083815260200190815260200160002060009054906101000a900473ffffffffffffffffffffffffffffffffffffffff1673ffffffffffffffffffffffffffffffffffffffff1663dbd0e1b66040518163ffffffff1660e01b8152600401602060405180830381865afa15801561042f573d6000803e3d6000fd5b505050506040513d601f19601f82011682018060405250810190610453919061080b565b9050919050565b600360009054906101000a900473ffffffffffffffffffffffffffffffffffffffff1681565b6040518060200160405280600081525090565b600080fd5b6000819050919050565b6104ab81610498565b81146104b657600080fd5b50565b6000813590506104c8816104a2565b92915050565b600080604083850312156104e5576104e4610493565b5b60006104f3858286016104b9565b9250506020610504858286016104b9565b9150509250929050565b61051781610498565b82525050565b6000602082019050610532600083018461050e565b92915050565b60006020828403121561054e5761054d610493565b5b600061055c848285016104b9565b91505092915050565b600073ffffffffffffffffffffffffffffffffffffffff82169050919050565b6000819050919050565b60006105aa6105a56105a084610565565b610585565b610565565b9050919050565b60006105bc8261058f565b9050919050565b60006105ce826105b1565b9050919050565b6105de816105c3565b82525050565b60006020820190506105f960008301846105d5565b92915050565b600061060a82610565565b9050919050565b61061a816105ff565b82525050565b60006020820190506106356000830184610611565b92915050565b610644816105ff565b811461064f57600080fd5b50565b6000813590506106618161063b565b92915050565b60006020828403121561067d5761067c610493565b5b600061068b84828501610652565b91505092915050565b600081519050919050565b600082825260208201905092915050565b6000819050602082019050919050565b6106c9816105ff565b82525050565b60006106db83836106c0565b60208301905092915050565b6000602082019050919050565b60006106ff82610694565b610709818561069f565b9350610714836106b0565b8060005b8381101561074557815161072c88826106cf565b9750610737836106e7565b925050600181019050610718565b5085935050505092915050565b6000602082019050818103600083015261076c81846106f4565b905092915050565b61077d81610498565b82525050565b6020820160008201516107996000850182610774565b50505050565b60006020820190506107b46000830184610783565b92915050565b60006107c5826105b1565b9050919050565b6107d5816107ba565b82525050565b60006020820190506107f060008301846107cc565b92915050565b6000815190506108058161063b565b92915050565b60006020828403121561082157610820610493565b5b600061082f848285016107f6565b9150509291505056fea2646970667358221220c50d7da50b53898ae13f6ed48208890dc11c8ce30d714f49314549f8d034865464736f6c63430008100033",
  "immutableReferences": {},
  "source": "// SPDX-License-Identifier: MIT\npragma solidity ^0.8.7;\n\nimport './CDSFactory.sol';\nimport '@openzeppelin/contracts/utils/math/SafeMath.sol';\nimport '@openzeppelin/contracts/token/ERC20/IERC20.sol';\n\ncontract CDSBank is CDSFactory {\n  using SafeMath for uint256;\n\n  IERC20 public token;\n\n  mapping(uint256 => uint256[2]) public deposits;\n\n  constructor() {\n    token = IERC20(0x44F818644e6BbC02E58C81B550d80611857233b5);\n  }\n\n  // transactions\n\n  function _sendDeposit(uint256 _cdsId, bool _isBuyer) internal returns (bool) {\n    uint256 deposit;\n    if (_isBuyer) {\n      deposit = getCDS(_cdsId).premium().mul(4);\n      token.transferFrom(getBuyer(_cdsId), address(this), deposit);\n      deposits[_cdsId][0] = deposit;\n    } else {\n      deposit = getCDS(_cdsId).sellerDeposit();\n      token.transferFrom(getSeller(_cdsId), address(this), deposit);\n      deposits[_cdsId][1] = deposit;\n    }\n    // token.transferFrom(msg.sender, address(this), deposit);\n    return true;\n  }\n\n  function _sendFirstPremium(uint256 _cdsId) internal returns (bool) {\n    uint256 premium = getCDS(_cdsId).premium();\n    bool sent = token.transfer(getSeller(_cdsId), premium);\n    require(sent, 'Sending first premium failed');\n    deposits[_cdsId][0] -= premium;\n    return true;\n  }\n\n  function _endCDS(uint256 _cdsId) internal returns (bool) {\n    address[2] memory participants = [getBuyer(_cdsId), getSeller(_cdsId)];\n    for (uint i = 0; i <= 1; i++) {\n      uint256 deposit = deposits[_cdsId][i];\n      if (deposit != 0) {\n        bool sent = token.transfer(participants[i], deposit);\n        require(sent, 'Sending deposit back failed');\n      }\n    }\n    clearDeposit(_cdsId);\n    return true;\n  }\n\n  function _afterClaim(uint256 _cdsId) internal returns (uint256) {\n    uint256 claimReward = getCDS(_cdsId).getClaimReward();\n    bool sentBuyer = token.transfer(\n      getBuyer(_cdsId),\n      claimReward + deposits[_cdsId][0]\n    );\n    bool sentSeller = token.transfer(\n      getSeller(_cdsId),\n      deposits[_cdsId][1] - claimReward\n    );\n    require(sentBuyer && sentSeller, 'Sending reward failed');\n    clearDeposit(_cdsId);\n    return claimReward;\n  }\n\n  function _expire(uint256 _cdsId) internal isSeller(_cdsId) {\n    bool isRoundZero = getCDS(_cdsId).checkRoundsZero();\n    bool isDepositZero = (deposits[_cdsId][0] == 0);\n    // bool isPayDatePassed = getCDS(_cdsId).checkPayDatePassed();\n    bool isPayDatePassed = true;\n\n    // bool byRounds = (currRounds == 0);\n    // bool byDeposit = (deposits[_cdsId][0] == 0);\n    require(\n      (isRoundZero && isPayDatePassed) || (isDepositZero && isPayDatePassed),\n      'Buyer deposit / Rounds remaining'\n    );\n    getCDS(_cdsId).close();\n  }\n\n  function _sendPremiumByDeposit(uint256 _cdsId) internal {\n    // bool isPayDatePassed = getCDS(_cdsId).checkPayDatePassed();\n    // require(isPayDatePassed, 'Invalid date to pay premium by deposit');\n\n    uint256 premium = getCDS(_cdsId).premium();\n    require(deposits[_cdsId][0] >= premium, 'Not enough deposit');\n\n    bool sent = token.transfer(getSeller(_cdsId), premium);\n    require(sent, 'Sending premium failed');\n\n    deposits[_cdsId][0] -= premium;\n  }\n\n  function _sendPremium(uint256 _cdsId) internal {\n    // uint256 nextPayDate = getCDS(_cdsId).nextPayDate();\n    // require(\n    //   (nextPayDate - 3 days <= block.timestamp) &&\n    //     (block.timestamp <= nextPayDate),\n    //   'Invalid date to pay premium'\n    // );\n\n    uint256 premium = getCDS(_cdsId).premium();\n    bool sent = token.transferFrom(\n      getBuyer(_cdsId),\n      getSeller(_cdsId),\n      premium\n    );\n    require(sent, 'Sending premium failed');\n  }\n\n  function clearDeposit(uint256 _cdsId) private {\n    for (uint i = 0; i <= 1; i++) {\n      deposits[_cdsId][i] = 0;\n    }\n  }\n\n  // modifiers\n\n  modifier isBuyer(uint256 cdsId) {\n    require(msg.sender == getBuyer(cdsId), 'Only buyer of the CDS can call');\n    _;\n  }\n\n  modifier isSeller(uint256 cdsId) {\n    require(msg.sender == getSeller(cdsId), 'Only seller of the CDS can call');\n    _;\n  }\n\n  modifier isParticipants(uint256 cdsId) {\n    require(\n      msg.sender == getBuyer(cdsId) || msg.sender == getSeller(cdsId),\n      'Only buyer/seller of the CDS can call'\n    );\n    _;\n  }\n}\n",
  "sourcePath": "/Users/yoonsoo/smartContract/CDSv2/contract/contracts/Handler/CDSBank.sol",
  "compiler": {
    "name": "solc",
    "version": "0.8.16+commit.07a7930e.Emscripten.clang"
  },
  "schemaVersion": "3.4.11",
  "updatedAt": "2023-03-25T14:32:31.812Z",
  "devdoc": {
    "kind": "dev",
    "methods": {},
    "version": 1
  },
  "userdoc": {
    "kind": "user",
    "methods": {},
    "version": 1
  }
}