{
  "contractName": "CDSBank",
  "abi": [
    {
      "inputs": [],
      "stateMutability": "nonpayable",
      "type": "constructor"
    },
    {
      "inputs": [
        {
          "internalType": "uint256",
          "name": "",
          "type": "uint256"
        },
        {
          "internalType": "uint256",
          "name": "",
          "type": "uint256"
        }
      ],
      "name": "deposits",
      "outputs": [
        {
          "internalType": "uint256",
          "name": "",
          "type": "uint256"
        }
      ],
      "stateMutability": "view",
      "type": "function"
    },
    {
      "inputs": [
        {
          "internalType": "uint256",
          "name": "cdsId",
          "type": "uint256"
        }
      ],
      "name": "getBuyer",
      "outputs": [
        {
          "internalType": "address",
          "name": "",
          "type": "address"
        }
      ],
      "stateMutability": "view",
      "type": "function"
    },
    {
      "inputs": [
        {
          "internalType": "uint256",
          "name": "cdsId",
          "type": "uint256"
        }
      ],
      "name": "getCDS",
      "outputs": [
        {
          "internalType": "contract CDS",
          "name": "",
          "type": "address"
        }
      ],
      "stateMutability": "view",
      "type": "function"
    },
    {
      "inputs": [],
      "name": "getCDSId",
      "outputs": [
        {
          "components": [
            {
              "internalType": "uint256",
              "name": "_value",
              "type": "uint256"
            }
          ],
          "internalType": "struct Counters.Counter",
          "name": "",
          "type": "tuple"
        }
      ],
      "stateMutability": "view",
      "type": "function"
    },
    {
      "inputs": [
        {
          "internalType": "uint256",
          "name": "cdsId",
          "type": "uint256"
        }
      ],
      "name": "getSeller",
      "outputs": [
        {
          "internalType": "address",
          "name": "",
          "type": "address"
        }
      ],
      "stateMutability": "view",
      "type": "function"
    },
    {
      "inputs": [
        {
          "internalType": "address",
          "name": "",
          "type": "address"
        },
        {
          "internalType": "uint256",
          "name": "",
          "type": "uint256"
        }
      ],
      "name": "ownedCDS",
      "outputs": [
        {
          "internalType": "address",
          "name": "",
          "type": "address"
        }
      ],
      "stateMutability": "view",
      "type": "function"
    },
    {
      "inputs": [],
      "name": "token",
      "outputs": [
        {
          "internalType": "contract IERC20",
          "name": "",
          "type": "address"
        }
      ],
      "stateMutability": "view",
      "type": "function"
    }
  ],
  "bytecode": "0x608060405234801561001057600080fd5b5073f904778c896c24cc2284e5e5f86baa4c8f75734d600360006101000a81548173ffffffffffffffffffffffffffffffffffffffff021916908373ffffffffffffffffffffffffffffffffffffffff160217905550610722806100756000396000f3fe608060405234801561001057600080fd5b506004361061007d5760003560e01c8063b1645a611161005b578063b1645a6114610112578063d0e5d95514610142578063d6a9de5114610160578063fc0c546a146101905761007d565b80632bd49780146100825780635af8d21c146100b25780635bf608b8146100e2575b600080fd5b61009c6004803603810190610097919061044f565b6101ae565b6040516100a9919061049e565b60405180910390f35b6100cc60048036038101906100c791906104b9565b6101d6565b6040516100d99190610565565b60405180910390f35b6100fc60048036038101906100f791906104b9565b610213565b60405161010991906105a1565b60405180910390f35b61012c600480360381019061012791906105e8565b6102be565b60405161013991906105a1565b60405180910390f35b61014a61030c565b6040516101579190610653565b60405180910390f35b61017a600480360381019061017591906104b9565b610330565b60405161018791906105a1565b60405180910390f35b6101986103db565b6040516101a5919061068f565b60405180910390f35b600460205281600052604060002081600281106101ca57600080fd5b01600091509150505481565b60006001600083815260200190815260200160002060009054906101000a900473ffffffffffffffffffffffffffffffffffffffff169050919050565b60006001600083815260200190815260200160002060009054906101000a900473ffffffffffffffffffffffffffffffffffffffff1673ffffffffffffffffffffffffffffffffffffffff1663603daf9a6040518163ffffffff1660e01b8152600401602060405180830381865afa158015610293573d6000803e3d6000fd5b505050506040513d601f19601f820116820180604052508101906102b791906106bf565b9050919050565b600260205281600052604060002081815481106102da57600080fd5b906000526020600020016000915091509054906101000a900473ffffffffffffffffffffffffffffffffffffffff1681565b610314610401565b6000604051806020016040529081600082015481525050905090565b60006001600083815260200190815260200160002060009054906101000a900473ffffffffffffffffffffffffffffffffffffffff1673ffffffffffffffffffffffffffffffffffffffff1663dbd0e1b66040518163ffffffff1660e01b8152600401602060405180830381865afa1580156103b0573d6000803e3d6000fd5b505050506040513d601f19601f820116820180604052508101906103d491906106bf565b9050919050565b600360009054906101000a900473ffffffffffffffffffffffffffffffffffffffff1681565b6040518060200160405280600081525090565b600080fd5b6000819050919050565b61042c81610419565b811461043757600080fd5b50565b60008135905061044981610423565b92915050565b6000806040838503121561046657610465610414565b5b60006104748582860161043a565b92505060206104858582860161043a565b9150509250929050565b61049881610419565b82525050565b60006020820190506104b3600083018461048f565b92915050565b6000602082840312156104cf576104ce610414565b5b60006104dd8482850161043a565b91505092915050565b600073ffffffffffffffffffffffffffffffffffffffff82169050919050565b6000819050919050565b600061052b610526610521846104e6565b610506565b6104e6565b9050919050565b600061053d82610510565b9050919050565b600061054f82610532565b9050919050565b61055f81610544565b82525050565b600060208201905061057a6000830184610556565b92915050565b600061058b826104e6565b9050919050565b61059b81610580565b82525050565b60006020820190506105b66000830184610592565b92915050565b6105c581610580565b81146105d057600080fd5b50565b6000813590506105e2816105bc565b92915050565b600080604083850312156105ff576105fe610414565b5b600061060d858286016105d3565b925050602061061e8582860161043a565b9150509250929050565b61063181610419565b82525050565b60208201600082015161064d6000850182610628565b50505050565b60006020820190506106686000830184610637565b92915050565b600061067982610532565b9050919050565b6106898161066e565b82525050565b60006020820190506106a46000830184610680565b92915050565b6000815190506106b9816105bc565b92915050565b6000602082840312156106d5576106d4610414565b5b60006106e3848285016106aa565b9150509291505056fea2646970667358221220e046cd86ada31978135c34a6faecbf619c3e0e04bd1f9f649b3ef89e365d92ea64736f6c63430008100033",
  "immutableReferences": {},
  "source": "// SPDX-License-Identifier: MIT\npragma solidity ^0.8.7;\n\nimport './CDSFactory.sol';\nimport '@openzeppelin/contracts/utils/math/SafeMath.sol';\nimport '@openzeppelin/contracts/token/ERC20/IERC20.sol';\n\ncontract CDSBank is CDSFactory {\n  using SafeMath for uint256;\n\n  IERC20 public token;\n\n  mapping(uint256 => uint256[2]) public deposits;\n\n  constructor() {\n    token = IERC20(0xf904778c896C24cC2284E5E5F86BAa4c8F75734D);\n  }\n\n  \n  // transactions\n\n  function _sendDeposit(uint256 _cdsId, bool _isBuyer) internal returns (bool) {\n    uint256 deposit;\n    if (_isBuyer) {\n      deposit = getCDS(_cdsId).premium().mul(4);\n      token.transferFrom(getBuyer(_cdsId), address(this), deposit);\n      deposits[_cdsId][0] = deposit;\n    } else {\n      deposit = getCDS(_cdsId).sellerDeposit();\n      token.transferFrom(getSeller(_cdsId), address(this), deposit);\n      deposits[_cdsId][1] = deposit;\n    }\n    return true;\n  }\n\n  function _sendFirstPremium(uint256 _cdsId) internal returns (bool) {\n    uint256 premium = getCDS(_cdsId).premium();\n    bool sent = token.transfer(getSeller(_cdsId), premium);\n    require(sent, 'Sending first premium failed');\n    deposits[_cdsId][0] -= premium;\n    return true;\n  }\n\n  function _endCDS(uint256 _cdsId) internal returns (bool) {\n    address[2] memory participants = [getBuyer(_cdsId), getSeller(_cdsId)];\n    for (uint i = 0; i <= 1; i++) {\n      uint256 deposit = deposits[_cdsId][i];\n      if (deposit != 0) {\n        bool sent = token.transfer(participants[i], deposit);\n        require(sent, 'Sending deposit back failed');\n      }\n    }\n    clearDeposit(_cdsId);\n    return true;\n  }\n\n  function _afterClaim(uint256 _cdsId) internal returns (uint256) {\n    uint256 claimReward = getCDS(_cdsId).getClaimReward();\n    bool sentBuyer = token.transfer(\n      getBuyer(_cdsId),\n      claimReward + deposits[_cdsId][0]\n    );\n    bool sentSeller = token.transfer(\n      getSeller(_cdsId),\n      deposits[_cdsId][1] - claimReward\n    );\n    require(sentBuyer && sentSeller, 'Sending reward failed');\n    clearDeposit(_cdsId);\n    return claimReward;\n  }\n\n  function _expire(uint256 _cdsId) internal isSeller(_cdsId) {\n    bool isRoundZero = getCDS(_cdsId).checkRoundsZero();\n    bool isPayDatePassed = getCDS(_cdsId).checkPayDatePassed();\n    bool isDepositZero = (deposits[_cdsId][0] == 0);\n    // bool byRounds = (currRounds == 0);\n    // bool byDeposit = (deposits[_cdsId][0] == 0);\n    require((isRoundZero && isPayDatePassed) || (isDepositZero && isPayDatePassed), 'Buyer deposit / Rounds remaining');\n    getCDS(_cdsId).close();\n  }\n\n  function _sendPremiumByDeposit(uint256 _cdsId) internal {\n    bool isPayDatePassed = getCDS(_cdsId).checkPayDatePassed();\n    require(isPayDatePassed, \"Invalid date to pay premium by deposit\");\n\n    uint256 premium = getCDS(_cdsId).premium();\n    require(deposits[_cdsId][0] >= premium, 'Not enough deposit');\n    \n    bool sent = token.transfer(getSeller(_cdsId), premium);\n    require(sent, 'Sending premium failed');\n\n    deposits[_cdsId][0] -= premium;\n  }\n\n  function _sendPremium(uint256 _cdsId) internal {\n    uint256 nextPayDate = getCDS(_cdsId).nextPayDate();\n    require(\n      (nextPayDate - 3 days <= block.timestamp) &&\n        (block.timestamp <= nextPayDate),\n      'Invalid date to pay premium'\n    );\n\n    uint256 premium = getCDS(_cdsId).premium();\n    bool sent = token.transferFrom(\n      getBuyer(_cdsId),\n      getSeller(_cdsId),\n      premium\n    );\n    require(sent, 'Sending premium failed');\n  }\n\n  function clearDeposit(uint256 _cdsId) private {\n    for (uint i = 0; i <= 1; i++) {\n      deposits[_cdsId][i] = 0;\n    }\n  }\n\n  \n  // modifiers\n  \n  modifier isBuyer(uint256 cdsId) {\n    require(msg.sender == getBuyer(cdsId), 'Only buyer of the CDS can call');\n    _;\n  }\n\n  modifier isSeller(uint256 cdsId) {\n    require(msg.sender == getSeller(cdsId), 'Only seller of the CDS can call');\n    _;\n  }\n\n  modifier isParticipants(uint256 cdsId) {\n    require(\n      msg.sender == getBuyer(cdsId) || msg.sender == getSeller(cdsId),\n      'Only buyer/seller of the CDS can call'\n    );\n    _;\n  }\n}\n",
  "sourcePath": "/Users/yoonsoo/codestates/BEB-07-final-CDS/contract/contracts/Handler/CDSBank.sol",
  "compiler": {
    "name": "solc",
    "version": "0.8.16+commit.07a7930e.Emscripten.clang"
  },
  "schemaVersion": "3.4.11",
  "updatedAt": "2023-03-21T14:01:12.641Z",
  "devdoc": {
    "kind": "dev",
    "methods": {},
    "version": 1
  },
  "userdoc": {
    "kind": "user",
    "methods": {},
    "version": 1
  }
}