{
  "contractName": "CDSBank",
  "abi": [
    {
      "inputs": [],
      "stateMutability": "nonpayable",
      "type": "constructor"
    },
    {
      "inputs": [
        {
          "internalType": "uint256",
          "name": "",
          "type": "uint256"
        },
        {
          "internalType": "uint256",
          "name": "",
          "type": "uint256"
        }
      ],
      "name": "deposits",
      "outputs": [
        {
          "internalType": "uint256",
          "name": "",
          "type": "uint256"
        }
      ],
      "stateMutability": "view",
      "type": "function"
    },
    {
      "inputs": [
        {
          "internalType": "uint256",
          "name": "cdsId",
          "type": "uint256"
        }
      ],
      "name": "getBuyer",
      "outputs": [
        {
          "internalType": "address",
          "name": "",
          "type": "address"
        }
      ],
      "stateMutability": "view",
      "type": "function"
    },
    {
      "inputs": [
        {
          "internalType": "uint256",
          "name": "cdsId",
          "type": "uint256"
        }
      ],
      "name": "getCDS",
      "outputs": [
        {
          "internalType": "contract CDS",
          "name": "",
          "type": "address"
        }
      ],
      "stateMutability": "view",
      "type": "function"
    },
    {
      "inputs": [],
      "name": "getCDSId",
      "outputs": [
        {
          "components": [
            {
              "internalType": "uint256",
              "name": "_value",
              "type": "uint256"
            }
          ],
          "internalType": "struct Counters.Counter",
          "name": "",
          "type": "tuple"
        }
      ],
      "stateMutability": "view",
      "type": "function"
    },
    {
      "inputs": [
        {
          "internalType": "address",
          "name": "owner",
          "type": "address"
        }
      ],
      "name": "getOwnedCDS",
      "outputs": [
        {
          "internalType": "address[]",
          "name": "",
          "type": "address[]"
        }
      ],
      "stateMutability": "view",
      "type": "function"
    },
    {
      "inputs": [
        {
          "internalType": "uint256",
          "name": "cdsId",
          "type": "uint256"
        }
      ],
      "name": "getSeller",
      "outputs": [
        {
          "internalType": "address",
          "name": "",
          "type": "address"
        }
      ],
      "stateMutability": "view",
      "type": "function"
    },
    {
      "inputs": [
        {
          "internalType": "uint256",
          "name": "",
          "type": "uint256"
        }
      ],
      "name": "pendingCDSs",
      "outputs": [
        {
          "internalType": "uint256",
          "name": "",
          "type": "uint256"
        }
      ],
      "stateMutability": "view",
      "type": "function"
    },
    {
      "inputs": [],
      "name": "token",
      "outputs": [
        {
          "internalType": "contract IERC20",
          "name": "",
          "type": "address"
        }
      ],
      "stateMutability": "view",
      "type": "function"
    }
  ],
  "bytecode": "0x608060405234801561001057600080fd5b507344f818644e6bbc02e58c81b550d80611857233b5600460006101000a81548173ffffffffffffffffffffffffffffffffffffffff021916908373ffffffffffffffffffffffffffffffffffffffff1602179055506108cd806100756000396000f3fe608060405234801561001057600080fd5b50600436106100885760003560e01c8063d0e5d9551161005b578063d0e5d9551461014d578063d6a9de511461016b578063dd618aba1461019b578063fc0c546a146101cb57610088565b80632bd497801461008d5780635af8d21c146100bd5780635bf608b8146100ed5780637f5c4d4a1461011d575b600080fd5b6100a760048036038101906100a2919061052d565b6101e9565b6040516100b4919061057c565b60405180910390f35b6100d760048036038101906100d29190610597565b610211565b6040516100e49190610643565b60405180910390f35b61010760048036038101906101029190610597565b61024e565b604051610114919061067f565b60405180910390f35b610137600480360381019061013291906106c6565b6102f9565b60405161014491906107b1565b60405180910390f35b6101556103c6565b60405161016291906107fe565b60405180910390f35b61018560048036038101906101809190610597565b6103ea565b604051610192919061067f565b60405180910390f35b6101b560048036038101906101b09190610597565b610495565b6040516101c2919061057c565b60405180910390f35b6101d36104b9565b6040516101e0919061083a565b60405180910390f35b6005602052816000526040600020816002811061020557600080fd5b01600091509150505481565b60006001600083815260200190815260200160002060009054906101000a900473ffffffffffffffffffffffffffffffffffffffff169050919050565b60006001600083815260200190815260200160002060009054906101000a900473ffffffffffffffffffffffffffffffffffffffff1673ffffffffffffffffffffffffffffffffffffffff1663603daf9a6040518163ffffffff1660e01b8152600401602060405180830381865afa1580156102ce573d6000803e3d6000fd5b505050506040513d601f19601f820116820180604052508101906102f2919061086a565b9050919050565b6060600260008373ffffffffffffffffffffffffffffffffffffffff1673ffffffffffffffffffffffffffffffffffffffff1681526020019081526020016000208054806020026020016040519081016040528092919081815260200182805480156103ba57602002820191906000526020600020905b8160009054906101000a900473ffffffffffffffffffffffffffffffffffffffff1673ffffffffffffffffffffffffffffffffffffffff1681526020019060010190808311610370575b50505050509050919050565b6103ce6104df565b6000604051806020016040529081600082015481525050905090565b60006001600083815260200190815260200160002060009054906101000a900473ffffffffffffffffffffffffffffffffffffffff1673ffffffffffffffffffffffffffffffffffffffff1663dbd0e1b66040518163ffffffff1660e01b8152600401602060405180830381865afa15801561046a573d6000803e3d6000fd5b505050506040513d601f19601f8201168201806040525081019061048e919061086a565b9050919050565b600381815481106104a557600080fd5b906000526020600020016000915090505481565b600460009054906101000a900473ffffffffffffffffffffffffffffffffffffffff1681565b6040518060200160405280600081525090565b600080fd5b6000819050919050565b61050a816104f7565b811461051557600080fd5b50565b60008135905061052781610501565b92915050565b60008060408385031215610544576105436104f2565b5b600061055285828601610518565b925050602061056385828601610518565b9150509250929050565b610576816104f7565b82525050565b6000602082019050610591600083018461056d565b92915050565b6000602082840312156105ad576105ac6104f2565b5b60006105bb84828501610518565b91505092915050565b600073ffffffffffffffffffffffffffffffffffffffff82169050919050565b6000819050919050565b60006106096106046105ff846105c4565b6105e4565b6105c4565b9050919050565b600061061b826105ee565b9050919050565b600061062d82610610565b9050919050565b61063d81610622565b82525050565b60006020820190506106586000830184610634565b92915050565b6000610669826105c4565b9050919050565b6106798161065e565b82525050565b60006020820190506106946000830184610670565b92915050565b6106a38161065e565b81146106ae57600080fd5b50565b6000813590506106c08161069a565b92915050565b6000602082840312156106dc576106db6104f2565b5b60006106ea848285016106b1565b91505092915050565b600081519050919050565b600082825260208201905092915050565b6000819050602082019050919050565b6107288161065e565b82525050565b600061073a838361071f565b60208301905092915050565b6000602082019050919050565b600061075e826106f3565b61076881856106fe565b93506107738361070f565b8060005b838110156107a457815161078b888261072e565b975061079683610746565b925050600181019050610777565b5085935050505092915050565b600060208201905081810360008301526107cb8184610753565b905092915050565b6107dc816104f7565b82525050565b6020820160008201516107f860008501826107d3565b50505050565b600060208201905061081360008301846107e2565b92915050565b600061082482610610565b9050919050565b61083481610819565b82525050565b600060208201905061084f600083018461082b565b92915050565b6000815190506108648161069a565b92915050565b6000602082840312156108805761087f6104f2565b5b600061088e84828501610855565b9150509291505056fea2646970667358221220bf7feb1af1f5ac7516675bd2763a247167604ec8482aaa22194272d2515708df64736f6c63430008100033",
  "immutableReferences": {},
  "source": "// SPDX-License-Identifier: MIT\npragma solidity ^0.8.7;\n\nimport './CDSFactory.sol';\nimport '@openzeppelin/contracts/utils/math/SafeMath.sol';\nimport '@openzeppelin/contracts/token/ERC20/IERC20.sol';\n\ncontract CDSBank is CDSFactory {\n  using SafeMath for uint256;\n\n  IERC20 public token;\n\n  mapping(uint256 => uint256[2]) public deposits;\n\n  constructor() {\n    token = IERC20(0x44F818644e6BbC02E58C81B550d80611857233b5);\n  }\n\n  // transactions\n\n  function _sendDeposit(uint256 _cdsId, bool _isBuyer) internal returns (bool) {\n    uint256 deposit;\n    if (_isBuyer) {\n      deposit = getCDS(_cdsId).premium().mul(4);\n      token.transferFrom(getBuyer(_cdsId), address(this), deposit);\n      deposits[_cdsId][0] = deposit;\n    } else {\n      deposit = getCDS(_cdsId).sellerDeposit();\n      token.transferFrom(getSeller(_cdsId), address(this), deposit);\n      deposits[_cdsId][1] = deposit;\n    }\n    // token.transferFrom(msg.sender, address(this), deposit);\n    return true;\n  }\n\n  function _sendFirstPremium(uint256 _cdsId) internal returns (bool) {\n    uint256 premium = getCDS(_cdsId).premium();\n    bool sent = token.transfer(getSeller(_cdsId), premium);\n    require(sent, 'Sending first premium failed');\n    deposits[_cdsId][0] -= premium;\n    return true;\n  }\n\n  function _endCDS(uint256 _cdsId) internal returns (bool) {\n    address[2] memory participants = [getBuyer(_cdsId), getSeller(_cdsId)];\n    for (uint i = 0; i <= 1; i++) {\n      uint256 deposit = deposits[_cdsId][i];\n      if (deposit != 0) {\n        bool sent = token.transfer(participants[i], deposit);\n        require(sent, 'Sending deposit back failed');\n      }\n    }\n    clearDeposit(_cdsId);\n    return true;\n  }\n\n  function _afterClaim(uint256 _cdsId) internal returns (uint256) {\n    uint256 claimReward = getCDS(_cdsId).getClaimReward();\n    bool sentBuyer = token.transfer(\n      getBuyer(_cdsId),\n      claimReward + deposits[_cdsId][0]\n    );\n    bool sentSeller = token.transfer(\n      getSeller(_cdsId),\n      deposits[_cdsId][1] - claimReward\n    );\n    require(sentBuyer && sentSeller, 'Sending reward failed');\n    clearDeposit(_cdsId);\n    return claimReward;\n  }\n\n  function _expire(uint256 _cdsId) internal isSeller(_cdsId) {\n    bool isRoundZero = getCDS(_cdsId).checkRoundsZero();\n    bool isDepositZero = (deposits[_cdsId][0] == 0);\n    // bool isPayDatePassed = getCDS(_cdsId).checkPayDatePassed();\n    bool isPayDatePassed = true;\n\n    // bool byRounds = (currRounds == 0);\n    // bool byDeposit = (deposits[_cdsId][0] == 0);\n    require(\n      (isRoundZero && isPayDatePassed) || (isDepositZero && isPayDatePassed),\n      'Buyer deposit / Rounds remaining'\n    );\n    getCDS(_cdsId).close();\n  }\n\n  function _sendPremiumByDeposit(uint256 _cdsId) internal {\n    // bool isPayDatePassed = getCDS(_cdsId).checkPayDatePassed();\n    // require(isPayDatePassed, 'Invalid date to pay premium by deposit');\n\n    uint256 premium = getCDS(_cdsId).premium();\n    require(deposits[_cdsId][0] >= premium, 'Not enough deposit');\n\n    bool sent = token.transfer(getSeller(_cdsId), premium);\n    require(sent, 'Sending premium failed');\n\n    deposits[_cdsId][0] -= premium;\n  }\n\n  function _sendPremium(uint256 _cdsId) internal {\n    // uint256 nextPayDate = getCDS(_cdsId).nextPayDate();\n    // require(\n    //   (nextPayDate - 3 days <= block.timestamp) &&\n    //     (block.timestamp <= nextPayDate),\n    //   'Invalid date to pay premium'\n    // );\n\n    uint256 premium = getCDS(_cdsId).premium();\n    bool sent = token.transferFrom(\n      getBuyer(_cdsId),\n      getSeller(_cdsId),\n      premium\n    );\n    require(sent, 'Sending premium failed');\n  }\n\n  function clearDeposit(uint256 _cdsId) private {\n    for (uint i = 0; i <= 1; i++) {\n      deposits[_cdsId][i] = 0;\n    }\n  }\n\n  // modifiers\n\n  modifier isBuyer(uint256 cdsId) {\n    require(msg.sender == getBuyer(cdsId), 'Only buyer of the CDS can call');\n    _;\n  }\n\n  modifier isSeller(uint256 cdsId) {\n    require(msg.sender == getSeller(cdsId), 'Only seller of the CDS can call');\n    _;\n  }\n\n  modifier isParticipants(uint256 cdsId) {\n    require(\n      msg.sender == getBuyer(cdsId) || msg.sender == getSeller(cdsId),\n      'Only buyer/seller of the CDS can call'\n    );\n    _;\n  }\n}\n",
  "sourcePath": "/Users/yoonsoo/codestates/BEB-07-final-CDS/contract/contracts/Handler/CDSBank.sol",
  "compiler": {
    "name": "solc",
    "version": "0.8.16+commit.07a7930e.Emscripten.clang"
  },
  "schemaVersion": "3.4.11",
  "updatedAt": "2023-03-22T08:59:33.941Z",
  "devdoc": {
    "kind": "dev",
    "methods": {},
    "version": 1
  },
  "userdoc": {
    "kind": "user",
    "methods": {},
    "version": 1
  }
}