{
  "contractName": "CDSFactory",
  "abi": [
    {
      "inputs": [
        {
          "internalType": "uint256",
          "name": "",
          "type": "uint256"
        }
      ],
      "name": "pendingCDSs",
      "outputs": [
        {
          "internalType": "uint256",
          "name": "",
          "type": "uint256"
        }
      ],
      "stateMutability": "view",
      "type": "function"
    },
    {
      "inputs": [],
      "name": "getCDSId",
      "outputs": [
        {
          "components": [
            {
              "internalType": "uint256",
              "name": "_value",
              "type": "uint256"
            }
          ],
          "internalType": "struct Counters.Counter",
          "name": "",
          "type": "tuple"
        }
      ],
      "stateMutability": "view",
      "type": "function"
    },
    {
      "inputs": [
        {
          "internalType": "uint256",
          "name": "cdsId",
          "type": "uint256"
        }
      ],
      "name": "getCDS",
      "outputs": [
        {
          "internalType": "contract CDS",
          "name": "",
          "type": "address"
        }
      ],
      "stateMutability": "view",
      "type": "function"
    },
    {
      "inputs": [
        {
          "internalType": "uint256",
          "name": "cdsId",
          "type": "uint256"
        }
      ],
      "name": "getBuyer",
      "outputs": [
        {
          "internalType": "address",
          "name": "",
          "type": "address"
        }
      ],
      "stateMutability": "view",
      "type": "function"
    },
    {
      "inputs": [
        {
          "internalType": "uint256",
          "name": "cdsId",
          "type": "uint256"
        }
      ],
      "name": "getSeller",
      "outputs": [
        {
          "internalType": "address",
          "name": "",
          "type": "address"
        }
      ],
      "stateMutability": "view",
      "type": "function"
    },
    {
      "inputs": [
        {
          "internalType": "address",
          "name": "owner",
          "type": "address"
        }
      ],
      "name": "getOwnedCDS",
      "outputs": [
        {
          "internalType": "address[]",
          "name": "",
          "type": "address[]"
        }
      ],
      "stateMutability": "view",
      "type": "function"
    }
  ],
  "bytecode": "0x608060405234801561001057600080fd5b5061078f806100206000396000f3fe608060405234801561001057600080fd5b50600436106100625760003560e01c80635af8d21c146100675780635bf608b8146100975780637f5c4d4a146100c7578063d0e5d955146100f7578063d6a9de5114610115578063dd618aba14610145575b600080fd5b610081600480360381019061007c919061046b565b610175565b60405161008e9190610517565b60405180910390f35b6100b160048036038101906100ac919061046b565b6101b2565b6040516100be9190610553565b60405180910390f35b6100e160048036038101906100dc919061059a565b61025d565b6040516100ee9190610685565b60405180910390f35b6100ff61032a565b60405161010c91906106d2565b60405180910390f35b61012f600480360381019061012a919061046b565b61034e565b60405161013c9190610553565b60405180910390f35b61015f600480360381019061015a919061046b565b6103f9565b60405161016c91906106fc565b60405180910390f35b60006001600083815260200190815260200160002060009054906101000a900473ffffffffffffffffffffffffffffffffffffffff169050919050565b60006001600083815260200190815260200160002060009054906101000a900473ffffffffffffffffffffffffffffffffffffffff1673ffffffffffffffffffffffffffffffffffffffff1663603daf9a6040518163ffffffff1660e01b8152600401602060405180830381865afa158015610232573d6000803e3d6000fd5b505050506040513d601f19601f82011682018060405250810190610256919061072c565b9050919050565b6060600260008373ffffffffffffffffffffffffffffffffffffffff1673ffffffffffffffffffffffffffffffffffffffff16815260200190815260200160002080548060200260200160405190810160405280929190818152602001828054801561031e57602002820191906000526020600020905b8160009054906101000a900473ffffffffffffffffffffffffffffffffffffffff1673ffffffffffffffffffffffffffffffffffffffff16815260200190600101908083116102d4575b50505050509050919050565b61033261041d565b6000604051806020016040529081600082015481525050905090565b60006001600083815260200190815260200160002060009054906101000a900473ffffffffffffffffffffffffffffffffffffffff1673ffffffffffffffffffffffffffffffffffffffff1663dbd0e1b66040518163ffffffff1660e01b8152600401602060405180830381865afa1580156103ce573d6000803e3d6000fd5b505050506040513d601f19601f820116820180604052508101906103f2919061072c565b9050919050565b6003818154811061040957600080fd5b906000526020600020016000915090505481565b6040518060200160405280600081525090565b600080fd5b6000819050919050565b61044881610435565b811461045357600080fd5b50565b6000813590506104658161043f565b92915050565b60006020828403121561048157610480610430565b5b600061048f84828501610456565b91505092915050565b600073ffffffffffffffffffffffffffffffffffffffff82169050919050565b6000819050919050565b60006104dd6104d86104d384610498565b6104b8565b610498565b9050919050565b60006104ef826104c2565b9050919050565b6000610501826104e4565b9050919050565b610511816104f6565b82525050565b600060208201905061052c6000830184610508565b92915050565b600061053d82610498565b9050919050565b61054d81610532565b82525050565b60006020820190506105686000830184610544565b92915050565b61057781610532565b811461058257600080fd5b50565b6000813590506105948161056e565b92915050565b6000602082840312156105b0576105af610430565b5b60006105be84828501610585565b91505092915050565b600081519050919050565b600082825260208201905092915050565b6000819050602082019050919050565b6105fc81610532565b82525050565b600061060e83836105f3565b60208301905092915050565b6000602082019050919050565b6000610632826105c7565b61063c81856105d2565b9350610647836105e3565b8060005b8381101561067857815161065f8882610602565b975061066a8361061a565b92505060018101905061064b565b5085935050505092915050565b6000602082019050818103600083015261069f8184610627565b905092915050565b6106b081610435565b82525050565b6020820160008201516106cc60008501826106a7565b50505050565b60006020820190506106e760008301846106b6565b92915050565b6106f681610435565b82525050565b600060208201905061071160008301846106ed565b92915050565b6000815190506107268161056e565b92915050565b60006020828403121561074257610741610430565b5b600061075084828501610717565b9150509291505056fea264697066735822122087881064ecb7f6daafddc88acd424f1eb015aaa082a27068371b89acfe4f1a1d64736f6c63430008100033",
  "immutableReferences": {},
  "source": "// SPDX-License-Identifier: MIT\npragma solidity ^0.8.7;\n\nimport '../CDS/CDS.sol';\nimport '@openzeppelin/contracts/utils/Counters.sol';\n\ncontract CDSFactory {\n  using Counters for Counters.Counter;\n  Counters.Counter internal _cdsId;\n\n  mapping(uint256 => CDS) private _cdsList;\n  mapping(address => address[]) private ownedCDS;\n  uint256[] public pendingCDSs; \n\n  function _create(\n    bool _isBuyer,\n    uint256 _initAssetPrice,\n    uint256 _claimPrice,\n    uint256 _liquidationPrice,\n    uint256 _sellerDeposit,\n    uint256 _premium,\n    uint32 _totalRounds,\n    uint32 _assetType\n  ) internal returns (uint256) {\n    _cdsId.increment();\n    uint256 newCDSId = _cdsId.current();\n\n    CDS newCDS = new CDS(\n      _initAssetPrice,\n      _claimPrice,\n      _liquidationPrice,\n      _premium,\n      _sellerDeposit,\n      _totalRounds,\n      _assetType\n    );\n    _cdsList[newCDSId] = newCDS;\n    newCDS.setParticipants(msg.sender, _isBuyer);\n    return newCDSId;\n  }\n\n  function _accept(\n    bool _isBuyerHost, // true when seller is accepting\n    uint256 _initAssetPrice,\n    uint256 _targetCDSId\n  ) internal {\n    CDS targetCDS = _cdsList[_targetCDSId];\n    \n    targetCDS.accept(_initAssetPrice, msg.sender,_isBuyerHost);\n    \n    ownedCDS[targetCDS.getBuyer()].push(address(targetCDS));\n    ownedCDS[targetCDS.getSeller()].push(address(targetCDS));\n  }\n\n\n  function _cancel(uint256 _targetCDSId) internal {\n    getCDS(_targetCDSId).cancel();\n  }\n\n  function _close(uint256 _targetCDSId) internal {\n    getCDS(_targetCDSId).close();\n  }\n\n  function _claim(uint256 _targetCDSId) internal {\n    getCDS(_targetCDSId).claim();\n  }\n\n  function _payPremium(uint256 _targetCDSId) internal {\n    getCDS(_targetCDSId).premiumPaid();\n  }\n\n  // getter \n  function getCDSId() public view returns (Counters.Counter memory) {\n    return _cdsId;\n  }\n\n  function getCDS(uint256 cdsId) public view returns (CDS) {\n    return _cdsList[cdsId];\n  }\n\n  function getBuyer(uint256 cdsId) public view returns (address) {\n    return _cdsList[cdsId].getBuyer();\n  }\n\n  function getSeller(uint256 cdsId) public view returns (address) {\n    return _cdsList[cdsId].getSeller();\n  }\n\n  function getOwnedCDS(address owner) external view returns (address[] memory) {\n    return ownedCDS[owner];\n  }\n}\n",
  "sourcePath": "/Users/yoonsoo/codestates/BEB-07-final-CDS/contract/contracts/Handler/CDSFactory.sol",
  "compiler": {
    "name": "solc",
    "version": "0.8.16+commit.07a7930e.Emscripten.clang"
  },
  "schemaVersion": "3.4.11",
  "updatedAt": "2023-03-22T08:59:33.946Z",
  "devdoc": {
    "kind": "dev",
    "methods": {},
    "version": 1
  },
  "userdoc": {
    "kind": "user",
    "methods": {},
    "version": 1
  }
}