{
  "contractName": "CDSFactory",
  "abi": [
    {
      "inputs": [],
      "name": "getCDSId",
      "outputs": [
        {
          "components": [
            {
              "internalType": "uint256",
              "name": "_value",
              "type": "uint256"
            }
          ],
          "internalType": "struct Counters.Counter",
          "name": "",
          "type": "tuple"
        }
      ],
      "stateMutability": "view",
      "type": "function"
    },
    {
      "inputs": [
        {
          "internalType": "uint256",
          "name": "cdsId",
          "type": "uint256"
        }
      ],
      "name": "getCDS",
      "outputs": [
        {
          "internalType": "contract CDS",
          "name": "",
          "type": "address"
        }
      ],
      "stateMutability": "view",
      "type": "function"
    },
    {
      "inputs": [
        {
          "internalType": "uint256",
          "name": "cdsId",
          "type": "uint256"
        }
      ],
      "name": "getBuyer",
      "outputs": [
        {
          "internalType": "address",
          "name": "",
          "type": "address"
        }
      ],
      "stateMutability": "view",
      "type": "function"
    },
    {
      "inputs": [
        {
          "internalType": "uint256",
          "name": "cdsId",
          "type": "uint256"
        }
      ],
      "name": "getSeller",
      "outputs": [
        {
          "internalType": "address",
          "name": "",
          "type": "address"
        }
      ],
      "stateMutability": "view",
      "type": "function"
    },
    {
      "inputs": [
        {
          "internalType": "address",
          "name": "owner",
          "type": "address"
        }
      ],
      "name": "getOwnedCDS",
      "outputs": [
        {
          "internalType": "address[]",
          "name": "",
          "type": "address[]"
        }
      ],
      "stateMutability": "view",
      "type": "function"
    }
  ],
  "bytecode": "0x608060405234801561001057600080fd5b50610706806100206000396000f3fe608060405234801561001057600080fd5b50600436106100575760003560e01c80635af8d21c1461005c5780635bf608b81461008c5780637f5c4d4a146100bc578063d0e5d955146100ec578063d6a9de511461010a575b600080fd5b6100766004803603810190610071919061040c565b61013a565b60405161008391906104b8565b60405180910390f35b6100a660048036038101906100a1919061040c565b610177565b6040516100b391906104f4565b60405180910390f35b6100d660048036038101906100d1919061053b565b610222565b6040516100e39190610626565b60405180910390f35b6100f46102ef565b6040516101019190610673565b60405180910390f35b610124600480360381019061011f919061040c565b610313565b60405161013191906104f4565b60405180910390f35b60006001600083815260200190815260200160002060009054906101000a900473ffffffffffffffffffffffffffffffffffffffff169050919050565b60006001600083815260200190815260200160002060009054906101000a900473ffffffffffffffffffffffffffffffffffffffff1673ffffffffffffffffffffffffffffffffffffffff1663603daf9a6040518163ffffffff1660e01b8152600401602060405180830381865afa1580156101f7573d6000803e3d6000fd5b505050506040513d601f19601f8201168201806040525081019061021b91906106a3565b9050919050565b6060600260008373ffffffffffffffffffffffffffffffffffffffff1673ffffffffffffffffffffffffffffffffffffffff1681526020019081526020016000208054806020026020016040519081016040528092919081815260200182805480156102e357602002820191906000526020600020905b8160009054906101000a900473ffffffffffffffffffffffffffffffffffffffff1673ffffffffffffffffffffffffffffffffffffffff1681526020019060010190808311610299575b50505050509050919050565b6102f76103be565b6000604051806020016040529081600082015481525050905090565b60006001600083815260200190815260200160002060009054906101000a900473ffffffffffffffffffffffffffffffffffffffff1673ffffffffffffffffffffffffffffffffffffffff1663dbd0e1b66040518163ffffffff1660e01b8152600401602060405180830381865afa158015610393573d6000803e3d6000fd5b505050506040513d601f19601f820116820180604052508101906103b791906106a3565b9050919050565b6040518060200160405280600081525090565b600080fd5b6000819050919050565b6103e9816103d6565b81146103f457600080fd5b50565b600081359050610406816103e0565b92915050565b600060208284031215610422576104216103d1565b5b6000610430848285016103f7565b91505092915050565b600073ffffffffffffffffffffffffffffffffffffffff82169050919050565b6000819050919050565b600061047e61047961047484610439565b610459565b610439565b9050919050565b600061049082610463565b9050919050565b60006104a282610485565b9050919050565b6104b281610497565b82525050565b60006020820190506104cd60008301846104a9565b92915050565b60006104de82610439565b9050919050565b6104ee816104d3565b82525050565b600060208201905061050960008301846104e5565b92915050565b610518816104d3565b811461052357600080fd5b50565b6000813590506105358161050f565b92915050565b600060208284031215610551576105506103d1565b5b600061055f84828501610526565b91505092915050565b600081519050919050565b600082825260208201905092915050565b6000819050602082019050919050565b61059d816104d3565b82525050565b60006105af8383610594565b60208301905092915050565b6000602082019050919050565b60006105d382610568565b6105dd8185610573565b93506105e883610584565b8060005b8381101561061957815161060088826105a3565b975061060b836105bb565b9250506001810190506105ec565b5085935050505092915050565b6000602082019050818103600083015261064081846105c8565b905092915050565b610651816103d6565b82525050565b60208201600082015161066d6000850182610648565b50505050565b60006020820190506106886000830184610657565b92915050565b60008151905061069d8161050f565b92915050565b6000602082840312156106b9576106b86103d1565b5b60006106c78482850161068e565b9150509291505056fea264697066735822122045d11113888b7b77901308422edc578c2fb96f50d16c0e2cae1c78a58072b52964736f6c63430008100033",
  "immutableReferences": {},
  "source": "// SPDX-License-Identifier: MIT\npragma solidity ^0.8.7;\n\nimport '../CDS/CDS.sol';\nimport '@openzeppelin/contracts/utils/Counters.sol';\n\ncontract CDSFactory {\n  using Counters for Counters.Counter;\n  Counters.Counter internal _cdsId;\n\n  mapping(uint256 => CDS) private _cdsList;\n  mapping(address => address[]) private ownedCDS;\n\n  function _create(\n    bool _isBuyer,\n    uint256 _initAssetPrice,\n    uint256 _claimPrice,\n    uint256 _liquidationPrice,\n    uint256 _sellerDeposit,\n    uint256 _premium,\n    uint32 _totalRounds,\n    uint32 _assetType\n  ) internal returns (uint256) {\n    _cdsId.increment();\n    uint256 newCDSId = _cdsId.current();\n\n    CDS newCDS = new CDS(\n      _initAssetPrice,\n      _claimPrice,\n      _liquidationPrice,\n      _premium,\n      _sellerDeposit,\n      _totalRounds,\n      _assetType\n    );\n    _cdsList[newCDSId] = newCDS;\n    newCDS.setParticipants(msg.sender, _isBuyer);\n    return newCDSId;\n  }\n\n  function _accept(\n    bool _isBuyerHost, // true when seller is accepting\n    uint256 _initAssetPrice,\n    uint256 _targetCDSId\n  ) internal {\n    CDS targetCDS = _cdsList[_targetCDSId];\n\n    targetCDS.accept(_initAssetPrice, msg.sender, _isBuyerHost);\n\n    ownedCDS[targetCDS.getBuyer()].push(address(targetCDS));\n    ownedCDS[targetCDS.getSeller()].push(address(targetCDS));\n  }\n\n  function _cancel(uint256 _targetCDSId) internal {\n    getCDS(_targetCDSId).cancel();\n  }\n\n  function _close(uint256 _targetCDSId) internal {\n    getCDS(_targetCDSId).close();\n  }\n\n  function _claim(uint256 _targetCDSId) internal {\n    getCDS(_targetCDSId).claim();\n  }\n\n  function _payPremium(uint256 _targetCDSId) internal {\n    getCDS(_targetCDSId).premiumPaid();\n  }\n\n  // getter\n  function getCDSId() public view returns (Counters.Counter memory) {\n    return _cdsId;\n  }\n\n  function getCDS(uint256 cdsId) public view returns (CDS) {\n    return _cdsList[cdsId];\n  }\n\n  function getBuyer(uint256 cdsId) public view returns (address) {\n    return _cdsList[cdsId].getBuyer();\n  }\n\n  function getSeller(uint256 cdsId) public view returns (address) {\n    return _cdsList[cdsId].getSeller();\n  }\n\n  function getOwnedCDS(address owner) external view returns (address[] memory) {\n    return ownedCDS[owner];\n  }\n}\n",
  "sourcePath": "/Users/yoonsoo/smartContract/CDSv2/contract/contracts/Handler/CDSFactory.sol",
  "compiler": {
    "name": "solc",
    "version": "0.8.16+commit.07a7930e.Emscripten.clang"
  },
  "schemaVersion": "3.4.11",
  "updatedAt": "2023-03-25T14:32:31.816Z",
  "devdoc": {
    "kind": "dev",
    "methods": {},
    "version": 1
  },
  "userdoc": {
    "kind": "user",
    "methods": {},
    "version": 1
  }
}