{
  "contractName": "CDSFactory",
  "abi": [
    {
      "inputs": [
        {
          "internalType": "address",
          "name": "",
          "type": "address"
        },
        {
          "internalType": "uint256",
          "name": "",
          "type": "uint256"
        }
      ],
      "name": "ownedCDS",
      "outputs": [
        {
          "internalType": "address",
          "name": "",
          "type": "address"
        }
      ],
      "stateMutability": "view",
      "type": "function"
    },
    {
      "inputs": [],
      "name": "getCDSId",
      "outputs": [
        {
          "components": [
            {
              "internalType": "uint256",
              "name": "_value",
              "type": "uint256"
            }
          ],
          "internalType": "struct Counters.Counter",
          "name": "",
          "type": "tuple"
        }
      ],
      "stateMutability": "view",
      "type": "function"
    },
    {
      "inputs": [
        {
          "internalType": "uint256",
          "name": "cdsId",
          "type": "uint256"
        }
      ],
      "name": "getCDS",
      "outputs": [
        {
          "internalType": "contract CDS",
          "name": "",
          "type": "address"
        }
      ],
      "stateMutability": "view",
      "type": "function"
    },
    {
      "inputs": [
        {
          "internalType": "uint256",
          "name": "cdsId",
          "type": "uint256"
        }
      ],
      "name": "getBuyer",
      "outputs": [
        {
          "internalType": "address",
          "name": "",
          "type": "address"
        }
      ],
      "stateMutability": "view",
      "type": "function"
    },
    {
      "inputs": [
        {
          "internalType": "uint256",
          "name": "cdsId",
          "type": "uint256"
        }
      ],
      "name": "getSeller",
      "outputs": [
        {
          "internalType": "address",
          "name": "",
          "type": "address"
        }
      ],
      "stateMutability": "view",
      "type": "function"
    }
  ],
  "bytecode": "0x608060405234801561001057600080fd5b506105ba806100206000396000f3fe608060405234801561001057600080fd5b50600436106100575760003560e01c80635af8d21c1461005c5780635bf608b81461008c578063b1645a61146100bc578063d0e5d955146100ec578063d6a9de511461010a575b600080fd5b6100766004803603810190610071919061038d565b61013a565b6040516100839190610439565b60405180910390f35b6100a660048036038101906100a1919061038d565b610177565b6040516100b39190610475565b60405180910390f35b6100d660048036038101906100d191906104bc565b610222565b6040516100e39190610475565b60405180910390f35b6100f4610270565b6040516101019190610527565b60405180910390f35b610124600480360381019061011f919061038d565b610294565b6040516101319190610475565b60405180910390f35b60006001600083815260200190815260200160002060009054906101000a900473ffffffffffffffffffffffffffffffffffffffff169050919050565b60006001600083815260200190815260200160002060009054906101000a900473ffffffffffffffffffffffffffffffffffffffff1673ffffffffffffffffffffffffffffffffffffffff1663603daf9a6040518163ffffffff1660e01b8152600401602060405180830381865afa1580156101f7573d6000803e3d6000fd5b505050506040513d601f19601f8201168201806040525081019061021b9190610557565b9050919050565b6002602052816000526040600020818154811061023e57600080fd5b906000526020600020016000915091509054906101000a900473ffffffffffffffffffffffffffffffffffffffff1681565b61027861033f565b6000604051806020016040529081600082015481525050905090565b60006001600083815260200190815260200160002060009054906101000a900473ffffffffffffffffffffffffffffffffffffffff1673ffffffffffffffffffffffffffffffffffffffff1663dbd0e1b66040518163ffffffff1660e01b8152600401602060405180830381865afa158015610314573d6000803e3d6000fd5b505050506040513d601f19601f820116820180604052508101906103389190610557565b9050919050565b6040518060200160405280600081525090565b600080fd5b6000819050919050565b61036a81610357565b811461037557600080fd5b50565b60008135905061038781610361565b92915050565b6000602082840312156103a3576103a2610352565b5b60006103b184828501610378565b91505092915050565b600073ffffffffffffffffffffffffffffffffffffffff82169050919050565b6000819050919050565b60006103ff6103fa6103f5846103ba565b6103da565b6103ba565b9050919050565b6000610411826103e4565b9050919050565b600061042382610406565b9050919050565b61043381610418565b82525050565b600060208201905061044e600083018461042a565b92915050565b600061045f826103ba565b9050919050565b61046f81610454565b82525050565b600060208201905061048a6000830184610466565b92915050565b61049981610454565b81146104a457600080fd5b50565b6000813590506104b681610490565b92915050565b600080604083850312156104d3576104d2610352565b5b60006104e1858286016104a7565b92505060206104f285828601610378565b9150509250929050565b61050581610357565b82525050565b60208201600082015161052160008501826104fc565b50505050565b600060208201905061053c600083018461050b565b92915050565b60008151905061055181610490565b92915050565b60006020828403121561056d5761056c610352565b5b600061057b84828501610542565b9150509291505056fea2646970667358221220b8ced7127c1e4c47c3a2cc391a6734e1d26a8428f2443e23ca8165008630f0ca64736f6c63430008100033",
  "immutableReferences": {},
  "source": "// SPDX-License-Identifier: MIT\npragma solidity ^0.8.7;\n\nimport '../CDS/CDS.sol';\nimport '@openzeppelin/contracts/utils/Counters.sol';\n\ncontract CDSFactory {\n  using Counters for Counters.Counter;\n  Counters.Counter internal _cdsId;\n\n  mapping(uint256 => CDS) private _cdsList;\n  mapping(address => address[]) public ownedCDS;\n\n  function _create(\n    bool _isBuyer,\n    uint256 _initAssetPrice,\n    uint256 _claimPrice,\n    uint256 _liquidationPrice,\n    uint256 _sellerDeposit,\n    uint256 _premium,\n    uint32 _totalRounds,\n    uint32 _assetType\n  ) internal returns (uint256) {\n    _cdsId.increment();\n    uint256 newCDSId = _cdsId.current();\n\n    CDS newCDS = new CDS(\n      _initAssetPrice,\n      _claimPrice,\n      _liquidationPrice,\n      _premium,\n      _sellerDeposit,\n      _totalRounds,\n      _assetType\n    );\n    _cdsList[newCDSId] = newCDS;\n    newCDS.setParticipants(msg.sender, _isBuyer);\n    return newCDSId;\n  }\n\n  function _accept(\n    bool _isBuyerHost,\n    uint256 _initAssetPrice,\n    uint256 _targetCDSId\n  ) internal {\n    CDS targetCDS = _cdsList[_targetCDSId];\n    \n    targetCDS.accept(_initAssetPrice, _isBuyerHost);\n    \n    ownedCDS[targetCDS.getBuyer()].push(address(targetCDS));\n    ownedCDS[targetCDS.getSeller()].push(address(targetCDS));\n  }\n\n\n  function _cancel(uint256 _targetCDSId) internal {\n    getCDS(_targetCDSId).cancel();\n  }\n\n  function _close(uint256 _targetCDSId) internal {\n    getCDS(_targetCDSId).close();\n  }\n\n  function _claim(uint256 _targetCDSId) internal {\n    getCDS(_targetCDSId).claim();\n  }\n\n  function _payPremium(uint256 _targetCDSId) internal {\n    getCDS(_targetCDSId).premiumPaid();\n  }\n\n  // getter \n  function getCDSId() public view returns (Counters.Counter memory) {\n    return _cdsId;\n  }\n\n  function getCDS(uint256 cdsId) public view returns (CDS) {\n    return _cdsList[cdsId];\n  }\n\n  function getBuyer(uint256 cdsId) public view returns (address) {\n    return _cdsList[cdsId].getBuyer();\n  }\n\n  function getSeller(uint256 cdsId) public view returns (address) {\n    return _cdsList[cdsId].getSeller();\n  }\n}\n",
  "sourcePath": "/Users/yoonsoo/codestates/BEB-07-final-CDS/contract/contracts/Handler/CDSFactory.sol",
  "compiler": {
    "name": "solc",
    "version": "0.8.16+commit.07a7930e.Emscripten.clang"
  },
  "schemaVersion": "3.4.11",
  "updatedAt": "2023-03-21T14:01:12.646Z",
  "devdoc": {
    "kind": "dev",
    "methods": {},
    "version": 1
  },
  "userdoc": {
    "kind": "user",
    "methods": {},
    "version": 1
  }
}