{
  "contractName": "CDSLounge",
  "abi": [
    {
      "anonymous": false,
      "inputs": [
        {
          "indexed": true,
          "internalType": "address",
          "name": "guestAddr",
          "type": "address"
        },
        {
          "indexed": false,
          "internalType": "uint256",
          "name": "cdsId",
          "type": "uint256"
        }
      ],
      "name": "Accept",
      "type": "event"
    },
    {
      "anonymous": false,
      "inputs": [
        {
          "indexed": false,
          "internalType": "uint256",
          "name": "cdsId",
          "type": "uint256"
        }
      ],
      "name": "Cancel",
      "type": "event"
    },
    {
      "anonymous": false,
      "inputs": [
        {
          "indexed": false,
          "internalType": "uint256",
          "name": "cdsId",
          "type": "uint256"
        },
        {
          "indexed": false,
          "internalType": "uint256",
          "name": "claimReward",
          "type": "uint256"
        }
      ],
      "name": "Claim",
      "type": "event"
    },
    {
      "anonymous": false,
      "inputs": [
        {
          "indexed": false,
          "internalType": "uint256",
          "name": "cdsId",
          "type": "uint256"
        }
      ],
      "name": "Close",
      "type": "event"
    },
    {
      "anonymous": false,
      "inputs": [
        {
          "indexed": true,
          "internalType": "address",
          "name": "hostAddr",
          "type": "address"
        },
        {
          "indexed": false,
          "internalType": "bool",
          "name": "isBuyer",
          "type": "bool"
        },
        {
          "indexed": false,
          "internalType": "uint256",
          "name": "cdsId",
          "type": "uint256"
        },
        {
          "indexed": false,
          "internalType": "uint32",
          "name": "assetType",
          "type": "uint32"
        },
        {
          "indexed": false,
          "internalType": "address",
          "name": "swap",
          "type": "address"
        }
      ],
      "name": "Create",
      "type": "event"
    },
    {
      "anonymous": false,
      "inputs": [
        {
          "indexed": false,
          "internalType": "uint256",
          "name": "cdsId",
          "type": "uint256"
        }
      ],
      "name": "Expire",
      "type": "event"
    },
    {
      "anonymous": false,
      "inputs": [
        {
          "indexed": true,
          "internalType": "address",
          "name": "previousOwner",
          "type": "address"
        },
        {
          "indexed": true,
          "internalType": "address",
          "name": "newOwner",
          "type": "address"
        }
      ],
      "name": "OwnershipTransferred",
      "type": "event"
    },
    {
      "anonymous": false,
      "inputs": [
        {
          "indexed": false,
          "internalType": "uint256",
          "name": "cdsId",
          "type": "uint256"
        }
      ],
      "name": "PayPremium",
      "type": "event"
    },
    {
      "inputs": [
        {
          "internalType": "uint256",
          "name": "",
          "type": "uint256"
        },
        {
          "internalType": "uint256",
          "name": "",
          "type": "uint256"
        }
      ],
      "name": "deposits",
      "outputs": [
        {
          "internalType": "uint256",
          "name": "",
          "type": "uint256"
        }
      ],
      "stateMutability": "view",
      "type": "function",
      "constant": true
    },
    {
      "inputs": [
        {
          "internalType": "uint256",
          "name": "cdsId",
          "type": "uint256"
        }
      ],
      "name": "getBuyer",
      "outputs": [
        {
          "internalType": "address",
          "name": "",
          "type": "address"
        }
      ],
      "stateMutability": "view",
      "type": "function",
      "constant": true
    },
    {
      "inputs": [
        {
          "internalType": "uint256",
          "name": "cdsId",
          "type": "uint256"
        }
      ],
      "name": "getCDS",
      "outputs": [
        {
          "internalType": "contract CDS",
          "name": "",
          "type": "address"
        }
      ],
      "stateMutability": "view",
      "type": "function",
      "constant": true
    },
    {
      "inputs": [],
      "name": "getCDSId",
      "outputs": [
        {
          "components": [
            {
              "internalType": "uint256",
              "name": "_value",
              "type": "uint256"
            }
          ],
          "internalType": "struct Counters.Counter",
          "name": "",
          "type": "tuple"
        }
      ],
      "stateMutability": "view",
      "type": "function",
      "constant": true
    },
    {
      "inputs": [
        {
          "internalType": "uint256",
          "name": "cdsId",
          "type": "uint256"
        }
      ],
      "name": "getSeller",
      "outputs": [
        {
          "internalType": "address",
          "name": "",
          "type": "address"
        }
      ],
      "stateMutability": "view",
      "type": "function",
      "constant": true
    },
    {
      "inputs": [
        {
          "internalType": "address",
          "name": "",
          "type": "address"
        },
        {
          "internalType": "uint256",
          "name": "",
          "type": "uint256"
        }
      ],
      "name": "ownedCDS",
      "outputs": [
        {
          "internalType": "address",
          "name": "",
          "type": "address"
        }
      ],
      "stateMutability": "view",
      "type": "function",
      "constant": true
    },
    {
      "inputs": [],
      "name": "owner",
      "outputs": [
        {
          "internalType": "address",
          "name": "",
          "type": "address"
        }
      ],
      "stateMutability": "view",
      "type": "function",
      "constant": true
    },
    {
      "inputs": [],
      "name": "renounceOwnership",
      "outputs": [],
      "stateMutability": "nonpayable",
      "type": "function"
    },
    {
      "inputs": [],
      "name": "token",
      "outputs": [
        {
          "internalType": "contract IERC20",
          "name": "",
          "type": "address"
        }
      ],
      "stateMutability": "view",
      "type": "function",
      "constant": true
    },
    {
      "inputs": [
        {
          "internalType": "address",
          "name": "newOwner",
          "type": "address"
        }
      ],
      "name": "transferOwnership",
      "outputs": [],
      "stateMutability": "nonpayable",
      "type": "function"
    },
    {
      "inputs": [
        {
          "internalType": "bool",
          "name": "isBuyer",
          "type": "bool"
        },
        {
          "internalType": "uint256",
          "name": "initAssetPrice",
          "type": "uint256"
        },
        {
          "internalType": "uint256",
          "name": "claimPrice",
          "type": "uint256"
        },
        {
          "internalType": "uint256",
          "name": "liquidationPrice",
          "type": "uint256"
        },
        {
          "internalType": "uint256",
          "name": "sellerDeposit",
          "type": "uint256"
        },
        {
          "internalType": "uint256",
          "name": "premium",
          "type": "uint256"
        },
        {
          "internalType": "uint32",
          "name": "totalRounds",
          "type": "uint32"
        },
        {
          "internalType": "uint32",
          "name": "assetType",
          "type": "uint32"
        }
      ],
      "name": "create",
      "outputs": [
        {
          "internalType": "uint256",
          "name": "",
          "type": "uint256"
        }
      ],
      "stateMutability": "nonpayable",
      "type": "function"
    },
    {
      "inputs": [
        {
          "internalType": "uint256",
          "name": "_initAssetPrice",
          "type": "uint256"
        },
        {
          "internalType": "uint256",
          "name": "_cdsId",
          "type": "uint256"
        }
      ],
      "name": "accept",
      "outputs": [
        {
          "internalType": "uint256",
          "name": "",
          "type": "uint256"
        }
      ],
      "stateMutability": "nonpayable",
      "type": "function"
    },
    {
      "inputs": [
        {
          "internalType": "uint256",
          "name": "cdsId",
          "type": "uint256"
        }
      ],
      "name": "cancel",
      "outputs": [
        {
          "internalType": "bool",
          "name": "",
          "type": "bool"
        }
      ],
      "stateMutability": "nonpayable",
      "type": "function"
    },
    {
      "inputs": [
        {
          "internalType": "uint256",
          "name": "cdsId",
          "type": "uint256"
        }
      ],
      "name": "close",
      "outputs": [
        {
          "internalType": "bool",
          "name": "",
          "type": "bool"
        }
      ],
      "stateMutability": "nonpayable",
      "type": "function"
    },
    {
      "inputs": [
        {
          "internalType": "uint256",
          "name": "cdsId",
          "type": "uint256"
        }
      ],
      "name": "claim",
      "outputs": [
        {
          "internalType": "bool",
          "name": "",
          "type": "bool"
        }
      ],
      "stateMutability": "nonpayable",
      "type": "function"
    },
    {
      "inputs": [
        {
          "internalType": "uint256",
          "name": "cdsId",
          "type": "uint256"
        }
      ],
      "name": "expire",
      "outputs": [
        {
          "internalType": "bool",
          "name": "",
          "type": "bool"
        }
      ],
      "stateMutability": "nonpayable",
      "type": "function"
    },
    {
      "inputs": [
        {
          "internalType": "uint256",
          "name": "cdsId",
          "type": "uint256"
        }
      ],
      "name": "payPremium",
      "outputs": [
        {
          "internalType": "bool",
          "name": "",
          "type": "bool"
        }
      ],
      "stateMutability": "nonpayable",
      "type": "function"
    },
    {
      "inputs": [
        {
          "internalType": "uint256",
          "name": "cdsId",
          "type": "uint256"
        }
      ],
      "name": "payPremiumByDeposit",
      "outputs": [
        {
          "internalType": "bool",
          "name": "",
          "type": "bool"
        }
      ],
      "stateMutability": "nonpayable",
      "type": "function"
    }
  ],
  "bytecode": "0x60806040523480156200001157600080fd5b5073f904778c896c24cc2284e5e5f86baa4c8f75734d600360006101000a81548173ffffffffffffffffffffffffffffffffffffffff021916908373ffffffffffffffffffffffffffffffffffffffff160217905550620000876200007b6200008d60201b60201c565b6200009560201b60201c565b6200015b565b600033905090565b6000600560009054906101000a900473ffffffffffffffffffffffffffffffffffffffff16905081600560006101000a81548173ffffffffffffffffffffffffffffffffffffffff021916908373ffffffffffffffffffffffffffffffffffffffff1602179055508173ffffffffffffffffffffffffffffffffffffffff168173ffffffffffffffffffffffffffffffffffffffff167f8be0079c531659141344cd1fd0a4f28419497f9722a3daafe3b4186f6b6457e060405160405180910390a35050565b61589a806200016b6000396000f3fe60806040523480156200001157600080fd5b5060043610620001305760003560e01c8063715018a611620000b1578063bf81bf43116200007b578063bf81bf4314620003b5578063d0e5d95514620003eb578063d6a9de51146200040d578063f2fde38b1462000443578063fc0c546a14620004635762000130565b8063715018a6146200031b5780638a614dd514620003275780638da5cb5b146200035d578063b1645a61146200037f5762000130565b8063379607f511620000ff578063379607f5146200020d57806340e58ee514620002435780634364b26e14620002795780635af8d21c14620002af5780635bf608b814620002e55762000130565b80630935847914620001355780630aebeb4e146200016b5780632926ea2a14620001a15780632bd4978014620001d7575b600080fd5b6200015360048036038101906200014d9190620027ed565b62000485565b60405162000162919062002845565b60405180910390f35b62000189600480360381019062000183919062002862565b62000604565b604051620001989190620028b1565b60405180910390f35b620001bf6004803603810190620001b9919062002862565b620006dc565b604051620001ce9190620028b1565b60405180910390f35b620001f56004803603810190620001ef9190620027ed565b620007b3565b60405162000204919062002845565b60405180910390f35b6200022b600480360381019062000225919062002862565b620007dc565b6040516200023a9190620028b1565b60405180910390f35b6200026160048036038101906200025b919062002862565b620008ba565b604051620002709190620028b1565b60405180910390f35b62000297600480360381019062000291919062002862565b620009d3565b604051620002a69190620028b1565b60405180910390f35b620002cd6004803603810190620002c7919062002862565b62000aaa565b604051620002dc919062002959565b60405180910390f35b620003036004803603810190620002fd919062002862565b62000ae7565b6040516200031291906200299b565b60405180910390f35b6200032562000b95565b005b6200034560048036038101906200033f919062002a2a565b62000bad565b60405162000354919062002845565b60405180910390f35b6200036762000c41565b6040516200037691906200299b565b60405180910390f35b6200039d600480360381019062000397919062002b24565b62000c6b565b604051620003ac91906200299b565b60405180910390f35b620003d36004803603810190620003cd919062002862565b62000cba565b604051620003e29190620028b1565b60405180910390f35b620003f562000d15565b60405162000404919062002b9a565b60405180910390f35b6200042b600480360381019062000425919062002862565b62000d3b565b6040516200043a91906200299b565b60405180910390f35b6200046160048036038101906200045b919062002bb7565b62000de9565b005b6200046d62000e73565b6040516200047c919062002c0e565b60405180910390f35b6000620004928262000ae7565b73ffffffffffffffffffffffffffffffffffffffff163373ffffffffffffffffffffffffffffffffffffffff1614158015620005045750620004d48262000d3b565b73ffffffffffffffffffffffffffffffffffffffff163373ffffffffffffffffffffffffffffffffffffffff1614155b62000546576040517f08c379a00000000000000000000000000000000000000000000000000000000081526004016200053d9062002c8c565b60405180910390fd5b60008073ffffffffffffffffffffffffffffffffffffffff166200056a8462000d3b565b73ffffffffffffffffffffffffffffffffffffffff161490506200059081858562000e99565b6200059d8382156200116a565b50620005a98362001459565b503373ffffffffffffffffffffffffffffffffffffffff167f68e07974e86f9190b39c5e1783e6ba66b3d0d7ccf507de51450f14e594d1686884604051620005f2919062002845565b60405180910390a28291505092915050565b600081620006128162000ae7565b73ffffffffffffffffffffffffffffffffffffffff163373ffffffffffffffffffffffffffffffffffffffff161462000682576040517f08c379a0000000000000000000000000000000000000000000000000000000008152600401620006799062002cfe565b60405180910390fd5b6200068d836200161e565b62000698836200168d565b507fbf67515a38ee520223d32c1266d52101c30d936ed1f3e436c8caeb0a43cb06bf83604051620006ca919062002845565b60405180910390a16001915050919050565b600081620006ea8162000d3b565b73ffffffffffffffffffffffffffffffffffffffff163373ffffffffffffffffffffffffffffffffffffffff16146200075a576040517f08c379a0000000000000000000000000000000000000000000000000000000008152600401620007519062002d70565b60405180910390fd5b62000765836200188b565b6200077083620018fa565b7f73fe46267e05ae56a3625c045df1b74c1b1736a7535eeadef3c57551bfd0059983604051620007a1919062002845565b60405180910390a16001915050919050565b60046020528160005260406000208160028110620007d057600080fd5b01600091509150505481565b600081620007ea8162000ae7565b73ffffffffffffffffffffffffffffffffffffffff163373ffffffffffffffffffffffffffffffffffffffff16146200085a576040517f08c379a0000000000000000000000000000000000000000000000000000000008152600401620008519062002cfe565b60405180910390fd5b620008658362001bec565b6000620008728462001c5b565b90507f022e3d29644ead4083349ca84d24bcac368b2461819b70f5921fea15de4dec4d8482604051620008a792919062002d92565b60405180910390a1600192505050919050565b600081620008c88162000ae7565b73ffffffffffffffffffffffffffffffffffffffff163373ffffffffffffffffffffffffffffffffffffffff161480620009375750620009088162000d3b565b73ffffffffffffffffffffffffffffffffffffffff163373ffffffffffffffffffffffffffffffffffffffff16145b62000979576040517f08c379a0000000000000000000000000000000000000000000000000000000008152600401620009709062002e35565b60405180910390fd5b620009848362001f13565b6200098f836200168d565b507f8bf30e7ff26833413be5f69e1d373744864d600b664204b4a2f9844a8eedb9ed83604051620009c1919062002845565b60405180910390a16001915050919050565b600081620009e18162000ae7565b73ffffffffffffffffffffffffffffffffffffffff163373ffffffffffffffffffffffffffffffffffffffff161462000a51576040517f08c379a000000000000000000000000000000000000000000000000000000000815260040162000a489062002cfe565b60405180910390fd5b62000a5c836200188b565b62000a678362001f82565b7f73fe46267e05ae56a3625c045df1b74c1b1736a7535eeadef3c57551bfd005998360405162000a98919062002845565b60405180910390a16001915050919050565b60006001600083815260200190815260200160002060009054906101000a900473ffffffffffffffffffffffffffffffffffffffff169050919050565b60006001600083815260200190815260200160002060009054906101000a900473ffffffffffffffffffffffffffffffffffffffff1673ffffffffffffffffffffffffffffffffffffffff1663603daf9a6040518163ffffffff1660e01b8152600401602060405180830381865afa15801562000b68573d6000803e3d6000fd5b505050506040513d601f19601f8201168201806040525081019062000b8e919062002e6e565b9050919050565b62000b9f620021ed565b62000bab600062002272565b565b60008062000bc28a8a8a8a8a8a8a8a62002338565b905062000bd0818b6200116a565b503373ffffffffffffffffffffffffffffffffffffffff167f9eab9cfac223c6527657a8d86c920796a5ab5038bc0f4497038958ac33fa8f838b838662000c178662000aaa565b60405162000c29949392919062002eb1565b60405180910390a28091505098975050505050505050565b6000600560009054906101000a900473ffffffffffffffffffffffffffffffffffffffff16905090565b6002602052816000526040600020818154811062000c8857600080fd5b906000526020600020016000915091509054906101000a900473ffffffffffffffffffffffffffffffffffffffff1681565b600062000cc78262002473565b62000cd2826200168d565b507fa33fd53ba34795ffefaea3759c71f87d38b89ae12e40bc434c826fae0ca535838260405162000d04919062002845565b60405180910390a160019050919050565b62000d1f6200278c565b6000604051806020016040529081600082015481525050905090565b60006001600083815260200190815260200160002060009054906101000a900473ffffffffffffffffffffffffffffffffffffffff1673ffffffffffffffffffffffffffffffffffffffff1663dbd0e1b66040518163ffffffff1660e01b8152600401602060405180830381865afa15801562000dbc573d6000803e3d6000fd5b505050506040513d601f19601f8201168201806040525081019062000de2919062002e6e565b9050919050565b62000df3620021ed565b600073ffffffffffffffffffffffffffffffffffffffff168173ffffffffffffffffffffffffffffffffffffffff160362000e65576040517f08c379a000000000000000000000000000000000000000000000000000000000815260040162000e5c9062002f74565b60405180910390fd5b62000e708162002272565b50565b600360009054906101000a900473ffffffffffffffffffffffffffffffffffffffff1681565b60006001600083815260200190815260200160002060009054906101000a900473ffffffffffffffffffffffffffffffffffffffff1690508073ffffffffffffffffffffffffffffffffffffffff16633b41e19c84866040518363ffffffff1660e01b815260040162000f0e92919062002f96565b600060405180830381600087803b15801562000f2957600080fd5b505af115801562000f3e573d6000803e3d6000fd5b50505050600260008273ffffffffffffffffffffffffffffffffffffffff1663603daf9a6040518163ffffffff1660e01b8152600401602060405180830381865afa15801562000f92573d6000803e3d6000fd5b505050506040513d601f19601f8201168201806040525081019062000fb8919062002e6e565b73ffffffffffffffffffffffffffffffffffffffff1673ffffffffffffffffffffffffffffffffffffffff168152602001908152602001600020819080600181540180825580915050600190039060005260206000200160009091909190916101000a81548173ffffffffffffffffffffffffffffffffffffffff021916908373ffffffffffffffffffffffffffffffffffffffff160217905550600260008273ffffffffffffffffffffffffffffffffffffffff1663dbd0e1b66040518163ffffffff1660e01b8152600401602060405180830381865afa158015620010a3573d6000803e3d6000fd5b505050506040513d601f19601f82011682018060405250810190620010c9919062002e6e565b73ffffffffffffffffffffffffffffffffffffffff1673ffffffffffffffffffffffffffffffffffffffff168152602001908152602001600020819080600181540180825580915050600190039060005260206000200160009091909190916101000a81548173ffffffffffffffffffffffffffffffffffffffff021916908373ffffffffffffffffffffffffffffffffffffffff16021790555050505050565b6000808215620012ee57620012056004620011858662000aaa565b73ffffffffffffffffffffffffffffffffffffffff1663e0a73a936040518163ffffffff1660e01b8152600401602060405180830381865afa158015620011d0573d6000803e3d6000fd5b505050506040513d601f19601f82011682018060405250810190620011f6919062002fda565b620026f390919063ffffffff16565b9050600360009054906101000a900473ffffffffffffffffffffffffffffffffffffffff1673ffffffffffffffffffffffffffffffffffffffff166323b872dd620012508662000ae7565b30846040518463ffffffff1660e01b815260040162001272939291906200300c565b6020604051808303816000875af115801562001292573d6000803e3d6000fd5b505050506040513d601f19601f82011682018060405250810190620012b8919062003060565b508060046000868152602001908152602001600020600060028110620012e357620012e262003092565b5b01819055506200144e565b620012f98462000aaa565b73ffffffffffffffffffffffffffffffffffffffff16634c1786ea6040518163ffffffff1660e01b8152600401602060405180830381865afa15801562001344573d6000803e3d6000fd5b505050506040513d601f19601f820116820180604052508101906200136a919062002fda565b9050600360009054906101000a900473ffffffffffffffffffffffffffffffffffffffff1673ffffffffffffffffffffffffffffffffffffffff166323b872dd620013b58662000d3b565b30846040518463ffffffff1660e01b8152600401620013d7939291906200300c565b6020604051808303816000875af1158015620013f7573d6000803e3d6000fd5b505050506040513d601f19601f820116820180604052508101906200141d919062003060565b50806004600086815260200190815260200160002060016002811062001448576200144762003092565b5b01819055505b600191505092915050565b600080620014678362000aaa565b73ffffffffffffffffffffffffffffffffffffffff1663e0a73a936040518163ffffffff1660e01b8152600401602060405180830381865afa158015620014b2573d6000803e3d6000fd5b505050506040513d601f19601f82011682018060405250810190620014d8919062002fda565b90506000600360009054906101000a900473ffffffffffffffffffffffffffffffffffffffff1673ffffffffffffffffffffffffffffffffffffffff1663a9059cbb620015258662000d3b565b846040518363ffffffff1660e01b815260040162001545929190620030c1565b6020604051808303816000875af115801562001565573d6000803e3d6000fd5b505050506040513d601f19601f820116820180604052508101906200158b919062003060565b905080620015d0576040517f08c379a0000000000000000000000000000000000000000000000000000000008152600401620015c7906200313e565b60405180910390fd5b8160046000868152602001908152602001600020600060028110620015fa57620015f962003092565b5b0160008282546200160c91906200318f565b92505081905550600192505050919050565b620016298162000aaa565b73ffffffffffffffffffffffffffffffffffffffff166343d726d66040518163ffffffff1660e01b8152600401600060405180830381600087803b1580156200167157600080fd5b505af115801562001686573d6000803e3d6000fd5b5050505050565b6000806040518060400160405280620016a68562000ae7565b73ffffffffffffffffffffffffffffffffffffffff1673ffffffffffffffffffffffffffffffffffffffff168152602001620016e28562000d3b565b73ffffffffffffffffffffffffffffffffffffffff1673ffffffffffffffffffffffffffffffffffffffff16815250905060005b600181116200187557600060046000868152602001908152602001600020826002811062001749576200174862003092565b5b01549050600081146200185e576000600360009054906101000a900473ffffffffffffffffffffffffffffffffffffffff1673ffffffffffffffffffffffffffffffffffffffff1663a9059cbb858560028110620017ac57620017ab62003092565b5b6020020151846040518363ffffffff1660e01b8152600401620017d1929190620030c1565b6020604051808303816000875af1158015620017f1573d6000803e3d6000fd5b505050506040513d601f19601f8201168201806040525081019062001817919062003060565b9050806200185c576040517f08c379a000000000000000000000000000000000000000000000000000000000815260040162001853906200321a565b60405180910390fd5b505b5080806200186c906200323c565b91505062001716565b5062001881836200270b565b6001915050919050565b620018968162000aaa565b73ffffffffffffffffffffffffffffffffffffffff16635b6a251b6040518163ffffffff1660e01b8152600401600060405180830381600087803b158015620018de57600080fd5b505af1158015620018f3573d6000803e3d6000fd5b5050505050565b6000620019078262000aaa565b73ffffffffffffffffffffffffffffffffffffffff1663839966af6040518163ffffffff1660e01b8152600401602060405180830381865afa15801562001952573d6000803e3d6000fd5b505050506040513d601f19601f8201168201806040525081019062001978919062003060565b905080620019bd576040517f08c379a0000000000000000000000000000000000000000000000000000000008152600401620019b490620032ff565b60405180910390fd5b6000620019ca8362000aaa565b73ffffffffffffffffffffffffffffffffffffffff1663e0a73a936040518163ffffffff1660e01b8152600401602060405180830381865afa15801562001a15573d6000803e3d6000fd5b505050506040513d601f19601f8201168201806040525081019062001a3b919062002fda565b9050806004600085815260200190815260200160002060006002811062001a675762001a6662003092565b5b0154101562001aad576040517f08c379a000000000000000000000000000000000000000000000000000000000815260040162001aa49062003371565b60405180910390fd5b6000600360009054906101000a900473ffffffffffffffffffffffffffffffffffffffff1673ffffffffffffffffffffffffffffffffffffffff1663a9059cbb62001af88662000d3b565b846040518363ffffffff1660e01b815260040162001b18929190620030c1565b6020604051808303816000875af115801562001b38573d6000803e3d6000fd5b505050506040513d601f19601f8201168201806040525081019062001b5e919062003060565b90508062001ba3576040517f08c379a000000000000000000000000000000000000000000000000000000000815260040162001b9a90620033e3565b60405180910390fd5b816004600086815260200190815260200160002060006002811062001bcd5762001bcc62003092565b5b01600082825462001bdf91906200318f565b9250508190555050505050565b62001bf78162000aaa565b73ffffffffffffffffffffffffffffffffffffffff16634e71d92d6040518163ffffffff1660e01b8152600401600060405180830381600087803b15801562001c3f57600080fd5b505af115801562001c54573d6000803e3d6000fd5b5050505050565b60008062001c698362000aaa565b73ffffffffffffffffffffffffffffffffffffffff1663f26cc58e6040518163ffffffff1660e01b8152600401602060405180830381865afa15801562001cb4573d6000803e3d6000fd5b505050506040513d601f19601f8201168201806040525081019062001cda919062002fda565b90506000600360009054906101000a900473ffffffffffffffffffffffffffffffffffffffff1673ffffffffffffffffffffffffffffffffffffffff1663a9059cbb62001d278662000ae7565b6004600088815260200190815260200160002060006002811062001d505762001d4f62003092565b5b01548562001d5f919062003405565b6040518363ffffffff1660e01b815260040162001d7e929190620030c1565b6020604051808303816000875af115801562001d9e573d6000803e3d6000fd5b505050506040513d601f19601f8201168201806040525081019062001dc4919062003060565b90506000600360009054906101000a900473ffffffffffffffffffffffffffffffffffffffff1673ffffffffffffffffffffffffffffffffffffffff1663a9059cbb62001e118762000d3b565b85600460008a815260200190815260200160002060016002811062001e3b5762001e3a62003092565b5b015462001e4991906200318f565b6040518363ffffffff1660e01b815260040162001e68929190620030c1565b6020604051808303816000875af115801562001e88573d6000803e3d6000fd5b505050506040513d601f19601f8201168201806040525081019062001eae919062003060565b905081801562001ebb5750805b62001efd576040517f08c379a000000000000000000000000000000000000000000000000000000000815260040162001ef49062003490565b60405180910390fd5b62001f08856200270b565b829350505050919050565b62001f1e8162000aaa565b73ffffffffffffffffffffffffffffffffffffffff1663ea8a1af06040518163ffffffff1660e01b8152600401600060405180830381600087803b15801562001f6657600080fd5b505af115801562001f7b573d6000803e3d6000fd5b5050505050565b600062001f8f8262000aaa565b73ffffffffffffffffffffffffffffffffffffffff1663d86837986040518163ffffffff1660e01b8152600401602060405180830381865afa15801562001fda573d6000803e3d6000fd5b505050506040513d601f19601f8201168201806040525081019062002000919062002fda565b9050426203f480826200201491906200318f565b11158015620020235750804211155b62002065576040517f08c379a00000000000000000000000000000000000000000000000000000000081526004016200205c9062003502565b60405180910390fd5b6000620020728362000aaa565b73ffffffffffffffffffffffffffffffffffffffff1663e0a73a936040518163ffffffff1660e01b8152600401602060405180830381865afa158015620020bd573d6000803e3d6000fd5b505050506040513d601f19601f82011682018060405250810190620020e3919062002fda565b90506000600360009054906101000a900473ffffffffffffffffffffffffffffffffffffffff1673ffffffffffffffffffffffffffffffffffffffff166323b872dd620021308662000ae7565b6200213b8762000d3b565b856040518463ffffffff1660e01b81526004016200215c939291906200300c565b6020604051808303816000875af11580156200217c573d6000803e3d6000fd5b505050506040513d601f19601f82011682018060405250810190620021a2919062003060565b905080620021e7576040517f08c379a0000000000000000000000000000000000000000000000000000000008152600401620021de90620033e3565b60405180910390fd5b50505050565b620021f762002760565b73ffffffffffffffffffffffffffffffffffffffff166200221762000c41565b73ffffffffffffffffffffffffffffffffffffffff161462002270576040517f08c379a0000000000000000000000000000000000000000000000000000000008152600401620022679062003574565b60405180910390fd5b565b6000600560009054906101000a900473ffffffffffffffffffffffffffffffffffffffff16905081600560006101000a81548173ffffffffffffffffffffffffffffffffffffffff021916908373ffffffffffffffffffffffffffffffffffffffff1602179055508173ffffffffffffffffffffffffffffffffffffffff168173ffffffffffffffffffffffffffffffffffffffff167f8be0079c531659141344cd1fd0a4f28419497f9722a3daafe3b4186f6b6457e060405160405180910390a35050565b600062002346600062002768565b60006200235460006200277e565b90506000898989888a89896040516200236d906200279f565b6200237f979695949392919062003596565b604051809103906000f0801580156200239c573d6000803e3d6000fd5b509050806001600084815260200190815260200160002060006101000a81548173ffffffffffffffffffffffffffffffffffffffff021916908373ffffffffffffffffffffffffffffffffffffffff1602179055508073ffffffffffffffffffffffffffffffffffffffff1663bab215f8338d6040518363ffffffff1660e01b81526004016200242e92919062003613565b600060405180830381600087803b1580156200244957600080fd5b505af11580156200245e573d6000803e3d6000fd5b50505050819250505098975050505050505050565b806200247f8162000d3b565b73ffffffffffffffffffffffffffffffffffffffff163373ffffffffffffffffffffffffffffffffffffffff1614620024ef576040517f08c379a0000000000000000000000000000000000000000000000000000000008152600401620024e69062002d70565b60405180910390fd5b6000620024fc8362000aaa565b73ffffffffffffffffffffffffffffffffffffffff1663ffd0e69f6040518163ffffffff1660e01b8152600401602060405180830381865afa15801562002547573d6000803e3d6000fd5b505050506040513d601f19601f820116820180604052508101906200256d919062003060565b905060006200257c8462000aaa565b73ffffffffffffffffffffffffffffffffffffffff1663839966af6040518163ffffffff1660e01b8152600401602060405180830381865afa158015620025c7573d6000803e3d6000fd5b505050506040513d601f19601f82011682018060405250810190620025ed919062003060565b9050600080600460008781526020019081526020016000206000600281106200261b576200261a62003092565b5b01541490508280156200262b5750815b806200263e57508080156200263d5750815b5b62002680576040517f08c379a0000000000000000000000000000000000000000000000000000000008152600401620026779062003690565b60405180910390fd5b6200268b8562000aaa565b73ffffffffffffffffffffffffffffffffffffffff166343d726d66040518163ffffffff1660e01b8152600401600060405180830381600087803b158015620026d357600080fd5b505af1158015620026e8573d6000803e3d6000fd5b505050505050505050565b60008183620027039190620036b2565b905092915050565b60005b600181116200275c57600060046000848152602001908152602001600020826002811062002741576200274062003092565b5b0181905550808062002753906200323c565b9150506200270e565b5050565b600033905090565b6001816000016000828254019250508190555050565b600081600001549050919050565b6040518060200160405280600081525090565b612151806200371483390190565b600080fd5b6000819050919050565b620027c781620027b2565b8114620027d357600080fd5b50565b600081359050620027e781620027bc565b92915050565b60008060408385031215620028075762002806620027ad565b5b60006200281785828601620027d6565b92505060206200282a85828601620027d6565b9150509250929050565b6200283f81620027b2565b82525050565b60006020820190506200285c600083018462002834565b92915050565b6000602082840312156200287b576200287a620027ad565b5b60006200288b84828501620027d6565b91505092915050565b60008115159050919050565b620028ab8162002894565b82525050565b6000602082019050620028c86000830184620028a0565b92915050565b600073ffffffffffffffffffffffffffffffffffffffff82169050919050565b6000819050919050565b600062002919620029136200290d84620028ce565b620028ee565b620028ce565b9050919050565b60006200292d82620028f8565b9050919050565b6000620029418262002920565b9050919050565b620029538162002934565b82525050565b600060208201905062002970600083018462002948565b92915050565b60006200298382620028ce565b9050919050565b620029958162002976565b82525050565b6000602082019050620029b260008301846200298a565b92915050565b620029c38162002894565b8114620029cf57600080fd5b50565b600081359050620029e381620029b8565b92915050565b600063ffffffff82169050919050565b62002a0481620029e9565b811462002a1057600080fd5b50565b60008135905062002a2481620029f9565b92915050565b600080600080600080600080610100898b03121562002a4e5762002a4d620027ad565b5b600062002a5e8b828c01620029d2565b985050602062002a718b828c01620027d6565b975050604062002a848b828c01620027d6565b965050606062002a978b828c01620027d6565b955050608062002aaa8b828c01620027d6565b94505060a062002abd8b828c01620027d6565b93505060c062002ad08b828c0162002a13565b92505060e062002ae38b828c0162002a13565b9150509295985092959890939650565b62002afe8162002976565b811462002b0a57600080fd5b50565b60008135905062002b1e8162002af3565b92915050565b6000806040838503121562002b3e5762002b3d620027ad565b5b600062002b4e8582860162002b0d565b925050602062002b6185828601620027d6565b9150509250929050565b62002b7681620027b2565b82525050565b60208201600082015162002b94600085018262002b6b565b50505050565b600060208201905062002bb1600083018462002b7c565b92915050565b60006020828403121562002bd05762002bcf620027ad565b5b600062002be08482850162002b0d565b91505092915050565b600062002bf68262002920565b9050919050565b62002c088162002be9565b82525050565b600060208201905062002c25600083018462002bfd565b92915050565b600082825260208201905092915050565b7f54686520686f73742063616e206e6f742063616c6c20746865206d6574686f64600082015250565b600062002c7460208362002c2b565b915062002c818262002c3c565b602082019050919050565b6000602082019050818103600083015262002ca78162002c65565b9050919050565b7f4f6e6c79206275796572206f6620746865204344532063616e2063616c6c0000600082015250565b600062002ce6601e8362002c2b565b915062002cf38262002cae565b602082019050919050565b6000602082019050818103600083015262002d198162002cd7565b9050919050565b7f4f6e6c792073656c6c6572206f6620746865204344532063616e2063616c6c00600082015250565b600062002d58601f8362002c2b565b915062002d658262002d20565b602082019050919050565b6000602082019050818103600083015262002d8b8162002d49565b9050919050565b600060408201905062002da9600083018562002834565b62002db8602083018462002834565b9392505050565b7f4f6e6c792062757965722f73656c6c6572206f6620746865204344532063616e60008201527f2063616c6c000000000000000000000000000000000000000000000000000000602082015250565b600062002e1d60258362002c2b565b915062002e2a8262002dbf565b604082019050919050565b6000602082019050818103600083015262002e508162002e0e565b9050919050565b60008151905062002e688162002af3565b92915050565b60006020828403121562002e875762002e86620027ad565b5b600062002e978482850162002e57565b91505092915050565b62002eab81620029e9565b82525050565b600060808201905062002ec86000830187620028a0565b62002ed7602083018662002834565b62002ee6604083018562002ea0565b62002ef560608301846200298a565b95945050505050565b7f4f776e61626c653a206e6577206f776e657220697320746865207a65726f206160008201527f6464726573730000000000000000000000000000000000000000000000000000602082015250565b600062002f5c60268362002c2b565b915062002f698262002efe565b604082019050919050565b6000602082019050818103600083015262002f8f8162002f4d565b9050919050565b600060408201905062002fad600083018562002834565b62002fbc6020830184620028a0565b9392505050565b60008151905062002fd481620027bc565b92915050565b60006020828403121562002ff35762002ff2620027ad565b5b6000620030038482850162002fc3565b91505092915050565b60006060820190506200302360008301866200298a565b6200303260208301856200298a565b62003041604083018462002834565b949350505050565b6000815190506200305a81620029b8565b92915050565b600060208284031215620030795762003078620027ad565b5b6000620030898482850162003049565b91505092915050565b7f4e487b7100000000000000000000000000000000000000000000000000000000600052603260045260246000fd5b6000604082019050620030d860008301856200298a565b620030e7602083018462002834565b9392505050565b7f53656e64696e67206669727374207072656d69756d206661696c656400000000600082015250565b600062003126601c8362002c2b565b91506200313382620030ee565b602082019050919050565b60006020820190508181036000830152620031598162003117565b9050919050565b7f4e487b7100000000000000000000000000000000000000000000000000000000600052601160045260246000fd5b60006200319c82620027b2565b9150620031a983620027b2565b9250828203905081811115620031c457620031c362003160565b5b92915050565b7f53656e64696e67206465706f736974206261636b206661696c65640000000000600082015250565b600062003202601b8362002c2b565b91506200320f82620031ca565b602082019050919050565b600060208201905081810360008301526200323581620031f3565b9050919050565b60006200324982620027b2565b91507fffffffffffffffffffffffffffffffffffffffffffffffffffffffffffffffff82036200327e576200327d62003160565b5b600182019050919050565b7f496e76616c6964206461746520746f20706179207072656d69756d206279206460008201527f65706f7369740000000000000000000000000000000000000000000000000000602082015250565b6000620032e760268362002c2b565b9150620032f48262003289565b604082019050919050565b600060208201905081810360008301526200331a81620032d8565b9050919050565b7f4e6f7420656e6f756768206465706f7369740000000000000000000000000000600082015250565b60006200335960128362002c2b565b9150620033668262003321565b602082019050919050565b600060208201905081810360008301526200338c816200334a565b9050919050565b7f53656e64696e67207072656d69756d206661696c656400000000000000000000600082015250565b6000620033cb60168362002c2b565b9150620033d88262003393565b602082019050919050565b60006020820190508181036000830152620033fe81620033bc565b9050919050565b60006200341282620027b2565b91506200341f83620027b2565b92508282019050808211156200343a576200343962003160565b5b92915050565b7f53656e64696e6720726577617264206661696c65640000000000000000000000600082015250565b60006200347860158362002c2b565b9150620034858262003440565b602082019050919050565b60006020820190508181036000830152620034ab8162003469565b9050919050565b7f496e76616c6964206461746520746f20706179207072656d69756d0000000000600082015250565b6000620034ea601b8362002c2b565b9150620034f782620034b2565b602082019050919050565b600060208201905081810360008301526200351d81620034db565b9050919050565b7f4f776e61626c653a2063616c6c6572206973206e6f7420746865206f776e6572600082015250565b60006200355c60208362002c2b565b9150620035698262003524565b602082019050919050565b600060208201905081810360008301526200358f816200354d565b9050919050565b600060e082019050620035ad600083018a62002834565b620035bc602083018962002834565b620035cb604083018862002834565b620035da606083018762002834565b620035e9608083018662002834565b620035f860a083018562002ea0565b6200360760c083018462002ea0565b98975050505050505050565b60006040820190506200362a60008301856200298a565b620036396020830184620028a0565b9392505050565b7f4275796572206465706f736974202f20526f756e64732072656d61696e696e67600082015250565b60006200367860208362002c2b565b9150620036858262003640565b602082019050919050565b60006020820190508181036000830152620036ab8162003669565b9050919050565b6000620036bf82620027b2565b9150620036cc83620027b2565b9250817fffffffffffffffffffffffffffffffffffffffffffffffffffffffffffffffff048311821515161562003708576200370762003160565b5b82820290509291505056fe60806040523480156200001157600080fd5b5060405162002151380380620021518339818101604052810190620000379190620003b0565b7321558c2cda098e7e0ac7d38775b3e2b4a09452226200006c620000606200026360201b60201c565b6200026b60201b60201c565b80600160006101000a81548173ffffffffffffffffffffffffffffffffffffffff021916908373ffffffffffffffffffffffffffffffffffffffff16021790555050866003819055508560048190555084600581905550836006819055508260078190555081600a60146101000a81548163ffffffff021916908363ffffffff16021790555081600a60186101000a81548163ffffffff021916908363ffffffff16021790555060008163ffffffff1614806200012f575060018163ffffffff16145b8062000141575060028163ffffffff16145b62000183576040517f08c379a00000000000000000000000000000000000000000000000000000000081526004016200017a90620004c4565b60405180910390fd5b80600a601c6101000a81548163ffffffff021916908363ffffffff1602179055506000600960006101000a81548173ffffffffffffffffffffffffffffffffffffffff021916908373ffffffffffffffffffffffffffffffffffffffff1602179055506000600a60006101000a81548173ffffffffffffffffffffffffffffffffffffffff021916908373ffffffffffffffffffffffffffffffffffffffff1602179055506001600260146101000a81548160ff02191690836004811115620002515762000250620004e6565b5b02179055505050505050505062000515565b600033905090565b60008060009054906101000a900473ffffffffffffffffffffffffffffffffffffffff169050816000806101000a81548173ffffffffffffffffffffffffffffffffffffffff021916908373ffffffffffffffffffffffffffffffffffffffff1602179055508173ffffffffffffffffffffffffffffffffffffffff168173ffffffffffffffffffffffffffffffffffffffff167f8be0079c531659141344cd1fd0a4f28419497f9722a3daafe3b4186f6b6457e060405160405180910390a35050565b600080fd5b6000819050919050565b620003498162000334565b81146200035557600080fd5b50565b60008151905062000369816200033e565b92915050565b600063ffffffff82169050919050565b6200038a816200036f565b81146200039657600080fd5b50565b600081519050620003aa816200037f565b92915050565b600080600080600080600060e0888a031215620003d257620003d16200032f565b5b6000620003e28a828b0162000358565b9750506020620003f58a828b0162000358565b9650506040620004088a828b0162000358565b95505060606200041b8a828b0162000358565b94505060806200042e8a828b0162000358565b93505060a0620004418a828b0162000399565b92505060c0620004548a828b0162000399565b91505092959891949750929550565b600082825260208201905092915050565b7f4254433a302c204554483a312c204c494e4b3a32000000000000000000000000600082015250565b6000620004ac60148362000463565b9150620004b98262000474565b602082019050919050565b60006020820190508181036000830152620004df816200049d565b9050919050565b7f4e487b7100000000000000000000000000000000000000000000000000000000600052602160045260246000fd5b611c2c80620005256000396000f3fe608060405234801561001057600080fd5b50600436106101da5760003560e01c8063a3f09ad611610104578063dbd0e1b6116100a2578063f26cc58e11610071578063f26cc58e146104cb578063f2fde38b146104e9578063fcb341df14610505578063ffd0e69f14610523576101da565b8063dbd0e1b614610455578063e0a73a9314610473578063e99d286614610491578063ea8a1af0146104c1576101da565b8063bd9a548b116100de578063bd9a548b146103b9578063bef904e3146103d7578063cbed244914610407578063d868379814610437576101da565b8063a3f09ad61461034f578063b6fc2d5f1461037f578063bab215f81461039d576101da565b80635b6a251b1161017c57806386be75b71161014b57806386be75b7146102d75780638a568299146102f55780638da5cb5b14610313578063a2e800ad14610331576101da565b80635b6a251b14610287578063603daf9a14610291578063715018a6146102af578063839966af146102b9576101da565b80633fe3347a116101b85780633fe3347a1461023757806343d726d6146102555780634c1786ea1461025f5780634e71d92d1461027d576101da565b806315d655c9146101df578063200d2ed2146101fd5780633b41e19c1461021b575b600080fd5b6101e7610541565b6040516101f491906112ff565b60405180910390f35b610205610547565b6040516102129190611391565b60405180910390f35b61023560048036038101906102309190611415565b61055a565b005b61023f610651565b60405161024c9190611474565b60405180910390f35b61025d610667565b005b6102676106f2565b60405161027491906112ff565b60405180910390f35b6102856106f8565b005b61028f6107cd565b005b6102996108ec565b6040516102a691906114d0565b60405180910390f35b6102b7610916565b005b6102c161092a565b6040516102ce91906114fa565b60405180910390f35b6102df6109ad565b6040516102ec91906112ff565b60405180910390f35b6102fd6109b3565b60405161030a9190611474565b60405180910390f35b61031b6109c9565b60405161032891906114d0565b60405180910390f35b6103396109f2565b6040516103469190611474565b60405180910390f35b61036960048036038101906103649190611541565b610a08565b60405161037691906114d0565b60405180910390f35b610387610a7d565b60405161039491906112ff565b60405180910390f35b6103b760048036038101906103b2919061156e565b610a83565b005b6103c1610aad565b6040516103ce9190611659565b60405180910390f35b6103f160048036038101906103ec9190611674565b610aeb565b6040516103fe91906112ff565b60405180910390f35b610421600480360381019061041c91906116cd565b610afe565b60405161042e91906112ff565b60405180910390f35b61043f610d3c565b60405161044c91906112ff565b60405180910390f35b61045d610d42565b60405161046a91906114d0565b60405180910390f35b61047b610d6c565b60405161048891906112ff565b60405180910390f35b6104ab60048036038101906104a69190611541565b610d72565b6040516104b891906114d0565b60405180910390f35b6104c9610de7565b005b6104d3610e72565b6040516104e091906112ff565b60405180910390f35b61050360048036038101906104fe9190611541565b610eca565b005b61050d610f4d565b60405161051a91906112ff565b60405180910390f35b61052b610f6f565b60405161053891906114fa565b60405180910390f35b60045481565b600260149054906101000a900460ff1681565b610562611008565b600160048111156105765761057561131a565b5b600260149054906101000a900460ff1660048111156105985761059761131a565b5b146105d8576040517f08c379a00000000000000000000000000000000000000000000000000000000081526004016105cf9061177d565b60405180910390fd5b6105e182610aeb565b506105ed338215610a83565b6105f76002611086565b506224ea004261060791906117cc565b6008819055506001600a60148282829054906101000a900463ffffffff1661062f9190611800565b92506101000a81548163ffffffff021916908363ffffffff1602179055505050565b600a601c9054906101000a900463ffffffff1681565b61066f611008565b600260048111156106835761068261131a565b5b600260149054906101000a900460ff1660048111156106a5576106a461131a565b5b146106e5576040517f08c379a00000000000000000000000000000000000000000000000000000000081526004016106dc906118aa565b60405180910390fd5b6106ef6004611086565b50565b60075481565b610700611008565b600260048111156107145761071361131a565b5b600260149054906101000a900460ff1660048111156107365761073561131a565b5b14610776576040517f08c379a000000000000000000000000000000000000000000000000000000000815260040161076d906118aa565b60405180910390fd5b6000610780610e72565b036107c0576040517f08c379a00000000000000000000000000000000000000000000000000000000081526004016107b79061193c565b60405180910390fd5b6107ca6003611086565b50565b6107d5611008565b600260048111156107e9576107e861131a565b5b600260149054906101000a900460ff16600481111561080b5761080a61131a565b5b1461084b576040517f08c379a0000000000000000000000000000000000000000000000000000000008152600401610842906118aa565b60405180910390fd5b6000600a60149054906101000a900463ffffffff1663ffffffff16116108a6576040517f08c379a000000000000000000000000000000000000000000000000000000000815260040161089d906119a8565b60405180910390fd5b6224ea00600860008282546108bb91906117cc565b925050819055506108e96001600a60149054906101000a900463ffffffff166108e49190611800565b6110d1565b50565b6000600960009054906101000a900473ffffffffffffffffffffffffffffffffffffffff16905090565b61091e611008565b6109286000611116565b565b6000600260048111156109405761093f61131a565b5b600260149054906101000a900460ff1660048111156109625761096161131a565b5b146109a2576040517f08c379a0000000000000000000000000000000000000000000000000000000008152600401610999906118aa565b60405180910390fd5b600854421015905090565b60035481565b600a60189054906101000a900463ffffffff1681565b60008060009054906101000a900473ffffffffffffffffffffffffffffffffffffffff16905090565b600a60149054906101000a900463ffffffff1681565b6000610a12611008565b81600960006101000a81548173ffffffffffffffffffffffffffffffffffffffff021916908373ffffffffffffffffffffffffffffffffffffffff160217905550600960009054906101000a900473ffffffffffffffffffffffffffffffffffffffff169050919050565b60055481565b610a8b611008565b80610a9e57610a9982610d72565b610aa8565b610aa782610a08565b5b505050565b610ab56112c4565b6040518060a001604052806003548152602001600454815260200160055481526020016006548152602001600754815250905090565b6000816003819055506003549050919050565b60008060008363ffffffff1603610bbd57610bb66305f5e100600160009054906101000a900473ffffffffffffffffffffffffffffffffffffffff1673ffffffffffffffffffffffffffffffffffffffff1663a8ad52d16040518163ffffffff1660e01b8152600401602060405180830381865afa158015610b84573d6000803e3d6000fd5b505050506040513d601f19601f82011682018060405250810190610ba891906119dd565b6111da90919063ffffffff16565b9050610d33565b60018363ffffffff1603610c7957610c726305f5e100600160009054906101000a900473ffffffffffffffffffffffffffffffffffffffff1673ffffffffffffffffffffffffffffffffffffffff1663ff186b2e6040518163ffffffff1660e01b8152600401602060405180830381865afa158015610c40573d6000803e3d6000fd5b505050506040513d601f19601f82011682018060405250810190610c6491906119dd565b6111da90919063ffffffff16565b9050610d32565b60028363ffffffff1603610d3157610d2e6305f5e100600160009054906101000a900473ffffffffffffffffffffffffffffffffffffffff1673ffffffffffffffffffffffffffffffffffffffff16630cf785356040518163ffffffff1660e01b8152600401602060405180830381865afa158015610cfc573d6000803e3d6000fd5b505050506040513d601f19601f82011682018060405250810190610d2091906119dd565b6111da90919063ffffffff16565b90505b5b5b80915050919050565b60085481565b6000600a60009054906101000a900473ffffffffffffffffffffffffffffffffffffffff16905090565b60065481565b6000610d7c611008565b81600a60006101000a81548173ffffffffffffffffffffffffffffffffffffffff021916908373ffffffffffffffffffffffffffffffffffffffff160217905550600a60009054906101000a900473ffffffffffffffffffffffffffffffffffffffff169050919050565b610def611008565b60016004811115610e0357610e0261131a565b5b600260149054906101000a900460ff166004811115610e2557610e2461131a565b5b14610e65576040517f08c379a0000000000000000000000000000000000000000000000000000000008152600401610e5c9061177d565b60405180910390fd5b610e6f6000611086565b50565b600080610e90600a601c9054906101000a900463ffffffff16610afe565b9050806004541015610ea6576000915050610ec7565b610ec3600554600354836007546111f0909392919063ffffffff16565b9150505b90565b610ed2611008565b600073ffffffffffffffffffffffffffffffffffffffff168173ffffffffffffffffffffffffffffffffffffffff1603610f41576040517f08c379a0000000000000000000000000000000000000000000000000000000008152600401610f3890611a7c565b60405180910390fd5b610f4a81611116565b50565b6000610f6a6005546007546003546112609092919063ffffffff16565b905090565b600060026004811115610f8557610f8461131a565b5b600260149054906101000a900460ff166004811115610fa757610fa661131a565b5b14610fe7576040517f08c379a0000000000000000000000000000000000000000000000000000000008152600401610fde906118aa565b60405180910390fd5b6000600a60149054906101000a900463ffffffff1663ffffffff1614905090565b611010611290565b73ffffffffffffffffffffffffffffffffffffffff1661102e6109c9565b73ffffffffffffffffffffffffffffffffffffffff1614611084576040517f08c379a000000000000000000000000000000000000000000000000000000000815260040161107b90611ae8565b60405180910390fd5b565b6000611090611008565b81600260146101000a81548160ff021916908360048111156110b5576110b461131a565b5b0217905550600260149054906101000a900460ff169050919050565b60006110db611008565b81600a60146101000a81548163ffffffff021916908363ffffffff160217905550600a60149054906101000a900463ffffffff169050919050565b60008060009054906101000a900473ffffffffffffffffffffffffffffffffffffffff169050816000806101000a81548173ffffffffffffffffffffffffffffffffffffffff021916908373ffffffffffffffffffffffffffffffffffffffff1602179055508173ffffffffffffffffffffffffffffffffffffffff168173ffffffffffffffffffffffffffffffffffffffff167f8be0079c531659141344cd1fd0a4f28419497f9722a3daafe3b4186f6b6457e060405160405180910390a35050565b600081836111e89190611b37565b905092915050565b60008082851061120257859050611254565b600061122961121a878761129890919063ffffffff16565b886111da90919063ffffffff16565b9050611250611241858761129890919063ffffffff16565b826112ae90919063ffffffff16565b9150505b80915050949350505050565b6000611287611278848661129890919063ffffffff16565b836111da90919063ffffffff16565b90509392505050565b600033905090565b600081836112a69190611b68565b905092915050565b600081836112bc9190611b9c565b905092915050565b6040518060a00160405280600590602082028036833780820191505090505090565b6000819050919050565b6112f9816112e6565b82525050565b600060208201905061131460008301846112f0565b92915050565b7f4e487b7100000000000000000000000000000000000000000000000000000000600052602160045260246000fd5b6005811061135a5761135961131a565b5b50565b600081905061136b82611349565b919050565b600061137b8261135d565b9050919050565b61138b81611370565b82525050565b60006020820190506113a66000830184611382565b92915050565b600080fd5b6113ba816112e6565b81146113c557600080fd5b50565b6000813590506113d7816113b1565b92915050565b60008115159050919050565b6113f2816113dd565b81146113fd57600080fd5b50565b60008135905061140f816113e9565b92915050565b6000806040838503121561142c5761142b6113ac565b5b600061143a858286016113c8565b925050602061144b85828601611400565b9150509250929050565b600063ffffffff82169050919050565b61146e81611455565b82525050565b60006020820190506114896000830184611465565b92915050565b600073ffffffffffffffffffffffffffffffffffffffff82169050919050565b60006114ba8261148f565b9050919050565b6114ca816114af565b82525050565b60006020820190506114e560008301846114c1565b92915050565b6114f4816113dd565b82525050565b600060208201905061150f60008301846114eb565b92915050565b61151e816114af565b811461152957600080fd5b50565b60008135905061153b81611515565b92915050565b600060208284031215611557576115566113ac565b5b60006115658482850161152c565b91505092915050565b60008060408385031215611585576115846113ac565b5b60006115938582860161152c565b92505060206115a485828601611400565b9150509250929050565b600060059050919050565b600081905092915050565b6000819050919050565b6115d7816112e6565b82525050565b60006115e983836115ce565b60208301905092915050565b6000602082019050919050565b61160b816115ae565b61161581846115b9565b9250611620826115c4565b8060005b8381101561165157815161163887826115dd565b9650611643836115f5565b925050600181019050611624565b505050505050565b600060a08201905061166e6000830184611602565b92915050565b60006020828403121561168a576116896113ac565b5b6000611698848285016113c8565b91505092915050565b6116aa81611455565b81146116b557600080fd5b50565b6000813590506116c7816116a1565b92915050565b6000602082840312156116e3576116e26113ac565b5b60006116f1848285016116b8565b91505092915050565b600082825260208201905092915050565b7f54686520737461747573206f6620746865204344532073686f756c642062652060008201527f70656e64696e6700000000000000000000000000000000000000000000000000602082015250565b60006117676027836116fa565b91506117728261170b565b604082019050919050565b600060208201905081810360008301526117968161175a565b9050919050565b7f4e487b7100000000000000000000000000000000000000000000000000000000600052601160045260246000fd5b60006117d7826112e6565b91506117e2836112e6565b92508282019050808211156117fa576117f961179d565b5b92915050565b600061180b82611455565b915061181683611455565b9250828203905063ffffffff8111156118325761183161179d565b5b92915050565b7f54686520737461747573206f6620746865204344532073686f756c642062652060008201527f6163746976650000000000000000000000000000000000000000000000000000602082015250565b60006118946026836116fa565b915061189f82611838565b604082019050919050565b600060208201905081810360008301526118c381611887565b9050919050565b7f43757272656e7420707269636520697320686967686572207468616e2074686560008201527f20636c61696d20707269636520696e2043445300000000000000000000000000602082015250565b60006119266033836116fa565b9150611931826118ca565b604082019050919050565b6000602082019050818103600083015261195581611919565b9050919050565b7f526f756e6420616c726561647920656e64656400000000000000000000000000600082015250565b60006119926013836116fa565b915061199d8261195c565b602082019050919050565b600060208201905081810360008301526119c181611985565b9050919050565b6000815190506119d7816113b1565b92915050565b6000602082840312156119f3576119f26113ac565b5b6000611a01848285016119c8565b91505092915050565b7f4f776e61626c653a206e6577206f776e657220697320746865207a65726f206160008201527f6464726573730000000000000000000000000000000000000000000000000000602082015250565b6000611a666026836116fa565b9150611a7182611a0a565b604082019050919050565b60006020820190508181036000830152611a9581611a59565b9050919050565b7f4f776e61626c653a2063616c6c6572206973206e6f7420746865206f776e6572600082015250565b6000611ad26020836116fa565b9150611add82611a9c565b602082019050919050565b60006020820190508181036000830152611b0181611ac5565b9050919050565b7f4e487b7100000000000000000000000000000000000000000000000000000000600052601260045260246000fd5b6000611b42826112e6565b9150611b4d836112e6565b925082611b5d57611b5c611b08565b5b828204905092915050565b6000611b73826112e6565b9150611b7e836112e6565b9250828203905081811115611b9657611b9561179d565b5b92915050565b6000611ba7826112e6565b9150611bb2836112e6565b9250817fffffffffffffffffffffffffffffffffffffffffffffffffffffffffffffffff0483118215151615611beb57611bea61179d565b5b82820290509291505056fea2646970667358221220f641e061c4109a5c08cd8ebd1d82929042db453f0052bc3db36fc97b528cd7c564736f6c63430008100033a26469706673582212208ecc40334c5918413d47117bc82b4e68444bbd9a5cf382ee47acae9118b6e19a64736f6c63430008100033",
  "immutableReferences": {},
  "source": "// SPDX-License-Identifier: MIT\npragma solidity ^0.8.7;\n\nimport '@openzeppelin/contracts/access/Ownable.sol';\nimport './Handler/CDSBank.sol';\n\ninterface CDSInterface {\n  function create(\n    bool isBuyer,\n    uint256 initAssetPrice,\n    uint256 claimPrice,\n    uint256 liquidationPrice,\n    uint256 sellerDeposit,\n    uint256 premium,\n    uint32 totalRounds,\n    uint32 assetType\n  ) external returns (uint256);\n\n  function accept(\n    uint256 initAssetPrice,\n    uint256 cdsId\n  ) external returns (uint256);\n\n  function cancel(uint256 cdsId) external returns (bool);\n\n  function close(uint256 cdsId) external returns (bool);\n\n  function claim(uint256 cdsId) external returns (bool);\n\n  function expire(uint256 cdsId) external returns (bool);\n\n  function payPremium(uint256 cdsId) external returns (bool);\n\n  function payPremiumByDeposit(\n    uint256 cdsId\n  ) external returns (bool);\n\n  event Create(\n    address indexed hostAddr,\n    bool isBuyer,\n    uint256 cdsId,\n    uint32 assetType,\n    address swap\n  );\n  event Accept(address indexed guestAddr, uint256 cdsId);\n  event Cancel(uint256 cdsId);\n  event Claim(uint256 cdsId, uint256 claimReward);\n  event Close(uint256 cdsId);\n  event Expire(uint256 cdsId);\n  event PayPremium(uint256 cdsId);\n}\n\ncontract CDSLounge is CDSBank, Ownable, CDSInterface {\n  // transactions\n  function create(\n    bool isBuyer,\n    uint256 initAssetPrice,\n    uint256 claimPrice,\n    uint256 liquidationPrice,\n    uint256 sellerDeposit,\n    uint256 premium,\n    uint32 totalRounds,\n    uint32 assetType\n  ) external override returns (uint256) {\n    uint256 newCDSId = _create(\n      isBuyer,\n      initAssetPrice,\n      claimPrice,\n      liquidationPrice,\n      sellerDeposit,\n      premium,\n      totalRounds,\n      assetType\n    );\n    _sendDeposit(newCDSId, isBuyer);\n    emit Create(\n      msg.sender,\n      isBuyer,\n      newCDSId,\n      assetType,\n      address(getCDS(newCDSId))\n    );\n    return newCDSId;\n  }\n\n  function accept(\n    uint256 _initAssetPrice,\n    uint256 _cdsId\n  ) external override returns (uint256) {\n    require(\n      msg.sender != getBuyer(_cdsId) && msg.sender != getSeller(_cdsId),\n      'The host can not call the method'\n    );\n    \n    bool isSeller = (getSeller(_cdsId) == address(0));\n    _accept(isSeller, _initAssetPrice, _cdsId);\n    _sendDeposit(_cdsId, !isSeller);\n    _sendFirstPremium(_cdsId);\n\n    emit Accept(msg.sender, _cdsId);\n    return _cdsId;\n  }\n\n  function cancel(\n    uint256 cdsId\n  ) external override isParticipants(cdsId) returns (bool) {\n    _cancel(cdsId);\n    _endCDS(cdsId);\n    emit Cancel(cdsId);\n    return true;\n  }\n\n  function close(\n    uint256 cdsId\n  ) external override isBuyer(cdsId) returns (bool) {\n    _close(cdsId);\n    _endCDS(cdsId);\n    emit Close(cdsId);\n    return true;\n  }\n\n  function claim(\n    uint256 cdsId\n  ) external override isBuyer(cdsId) returns (bool) {\n    _claim(cdsId);\n    uint256 claimReward = _afterClaim(cdsId);\n    emit Claim(cdsId, claimReward);\n    return true;\n  }\n\n  function expire(uint256 cdsId) external override returns (bool) {\n    _expire(cdsId);\n    _endCDS(cdsId);\n    emit Expire(cdsId);\n    return true;\n  }\n\n  function payPremium(\n    uint256 cdsId\n  ) external override isBuyer(cdsId) returns (bool) {\n    _payPremium(cdsId);\n    _sendPremium(cdsId);\n    emit PayPremium(cdsId);\n    return true;\n  }\n\n  function payPremiumByDeposit(\n    uint256 cdsId\n  ) external override isSeller(cdsId) returns (bool) {\n    _payPremium(cdsId);\n    _sendPremiumByDeposit(cdsId);\n    emit PayPremium(cdsId);\n    return true;\n  }\n}\n\n// cds contract deposit   .\n// cdsLounge allowance from cds contract\n//   cds  cdsLounge  .",
  "sourcePath": "/Users/yoonsoo/codestates/BEB-07-final-CDS/contract/contracts/CDSLounge.sol",
  "compiler": {
    "name": "solc",
    "version": "0.8.16+commit.07a7930e.Emscripten.clang"
  },
  "schemaVersion": "3.4.11",
  "updatedAt": "2023-03-21T14:01:17.224Z",
  "networkType": "ethereum",
  "devdoc": {
    "kind": "dev",
    "methods": {
      "owner()": {
        "details": "Returns the address of the current owner."
      },
      "renounceOwnership()": {
        "details": "Leaves the contract without owner. It will not be possible to call `onlyOwner` functions anymore. Can only be called by the current owner. NOTE: Renouncing ownership will leave the contract without an owner, thereby removing any functionality that is only available to the owner."
      },
      "transferOwnership(address)": {
        "details": "Transfers ownership of the contract to a new account (`newOwner`). Can only be called by the current owner."
      }
    },
    "version": 1
  },
  "userdoc": {
    "kind": "user",
    "methods": {},
    "version": 1
  }
}