{
  "contractName": "CDSLounge",
  "abi": [
    {
      "anonymous": false,
      "inputs": [
        {
          "indexed": true,
          "internalType": "address",
          "name": "guestAddr",
          "type": "address"
        },
        {
          "indexed": false,
          "internalType": "uint256",
          "name": "cdsId",
          "type": "uint256"
        }
      ],
      "name": "Accept",
      "type": "event"
    },
    {
      "anonymous": false,
      "inputs": [
        {
          "indexed": false,
          "internalType": "uint256",
          "name": "cdsId",
          "type": "uint256"
        }
      ],
      "name": "Cancel",
      "type": "event"
    },
    {
      "anonymous": false,
      "inputs": [
        {
          "indexed": false,
          "internalType": "uint256",
          "name": "cdsId",
          "type": "uint256"
        },
        {
          "indexed": false,
          "internalType": "uint256",
          "name": "claimReward",
          "type": "uint256"
        }
      ],
      "name": "Claim",
      "type": "event"
    },
    {
      "anonymous": false,
      "inputs": [
        {
          "indexed": false,
          "internalType": "uint256",
          "name": "cdsId",
          "type": "uint256"
        }
      ],
      "name": "Close",
      "type": "event"
    },
    {
      "anonymous": false,
      "inputs": [
        {
          "indexed": true,
          "internalType": "address",
          "name": "hostAddr",
          "type": "address"
        },
        {
          "indexed": false,
          "internalType": "bool",
          "name": "isBuyer",
          "type": "bool"
        },
        {
          "indexed": false,
          "internalType": "uint256",
          "name": "cdsId",
          "type": "uint256"
        },
        {
          "indexed": false,
          "internalType": "uint32",
          "name": "assetType",
          "type": "uint32"
        },
        {
          "indexed": false,
          "internalType": "address",
          "name": "swap",
          "type": "address"
        }
      ],
      "name": "Create",
      "type": "event"
    },
    {
      "anonymous": false,
      "inputs": [
        {
          "indexed": false,
          "internalType": "uint256",
          "name": "cdsId",
          "type": "uint256"
        }
      ],
      "name": "Expire",
      "type": "event"
    },
    {
      "anonymous": false,
      "inputs": [
        {
          "indexed": true,
          "internalType": "address",
          "name": "previousOwner",
          "type": "address"
        },
        {
          "indexed": true,
          "internalType": "address",
          "name": "newOwner",
          "type": "address"
        }
      ],
      "name": "OwnershipTransferred",
      "type": "event"
    },
    {
      "anonymous": false,
      "inputs": [
        {
          "indexed": false,
          "internalType": "uint256",
          "name": "cdsId",
          "type": "uint256"
        }
      ],
      "name": "PayPremium",
      "type": "event"
    },
    {
      "inputs": [
        {
          "internalType": "uint256",
          "name": "",
          "type": "uint256"
        },
        {
          "internalType": "uint256",
          "name": "",
          "type": "uint256"
        }
      ],
      "name": "deposits",
      "outputs": [
        {
          "internalType": "uint256",
          "name": "",
          "type": "uint256"
        }
      ],
      "stateMutability": "view",
      "type": "function",
      "constant": true
    },
    {
      "inputs": [
        {
          "internalType": "uint256",
          "name": "cdsId",
          "type": "uint256"
        }
      ],
      "name": "getBuyer",
      "outputs": [
        {
          "internalType": "address",
          "name": "",
          "type": "address"
        }
      ],
      "stateMutability": "view",
      "type": "function",
      "constant": true
    },
    {
      "inputs": [
        {
          "internalType": "uint256",
          "name": "cdsId",
          "type": "uint256"
        }
      ],
      "name": "getCDS",
      "outputs": [
        {
          "internalType": "contract CDS",
          "name": "",
          "type": "address"
        }
      ],
      "stateMutability": "view",
      "type": "function",
      "constant": true
    },
    {
      "inputs": [],
      "name": "getCDSId",
      "outputs": [
        {
          "components": [
            {
              "internalType": "uint256",
              "name": "_value",
              "type": "uint256"
            }
          ],
          "internalType": "struct Counters.Counter",
          "name": "",
          "type": "tuple"
        }
      ],
      "stateMutability": "view",
      "type": "function",
      "constant": true
    },
    {
      "inputs": [
        {
          "internalType": "address",
          "name": "owner",
          "type": "address"
        }
      ],
      "name": "getOwnedCDS",
      "outputs": [
        {
          "internalType": "address[]",
          "name": "",
          "type": "address[]"
        }
      ],
      "stateMutability": "view",
      "type": "function",
      "constant": true
    },
    {
      "inputs": [
        {
          "internalType": "uint256",
          "name": "cdsId",
          "type": "uint256"
        }
      ],
      "name": "getSeller",
      "outputs": [
        {
          "internalType": "address",
          "name": "",
          "type": "address"
        }
      ],
      "stateMutability": "view",
      "type": "function",
      "constant": true
    },
    {
      "inputs": [],
      "name": "owner",
      "outputs": [
        {
          "internalType": "address",
          "name": "",
          "type": "address"
        }
      ],
      "stateMutability": "view",
      "type": "function",
      "constant": true
    },
    {
      "inputs": [],
      "name": "renounceOwnership",
      "outputs": [],
      "stateMutability": "nonpayable",
      "type": "function"
    },
    {
      "inputs": [],
      "name": "token",
      "outputs": [
        {
          "internalType": "contract IERC20",
          "name": "",
          "type": "address"
        }
      ],
      "stateMutability": "view",
      "type": "function",
      "constant": true
    },
    {
      "inputs": [
        {
          "internalType": "address",
          "name": "newOwner",
          "type": "address"
        }
      ],
      "name": "transferOwnership",
      "outputs": [],
      "stateMutability": "nonpayable",
      "type": "function"
    },
    {
      "inputs": [
        {
          "internalType": "bool",
          "name": "isBuyer",
          "type": "bool"
        },
        {
          "internalType": "uint256",
          "name": "initAssetPrice",
          "type": "uint256"
        },
        {
          "internalType": "uint256",
          "name": "claimPrice",
          "type": "uint256"
        },
        {
          "internalType": "uint256",
          "name": "liquidationPrice",
          "type": "uint256"
        },
        {
          "internalType": "uint256",
          "name": "sellerDeposit",
          "type": "uint256"
        },
        {
          "internalType": "uint256",
          "name": "premium",
          "type": "uint256"
        },
        {
          "internalType": "uint32",
          "name": "totalRounds",
          "type": "uint32"
        },
        {
          "internalType": "uint32",
          "name": "assetType",
          "type": "uint32"
        }
      ],
      "name": "create",
      "outputs": [
        {
          "internalType": "uint256",
          "name": "",
          "type": "uint256"
        }
      ],
      "stateMutability": "nonpayable",
      "type": "function"
    },
    {
      "inputs": [
        {
          "internalType": "uint256",
          "name": "_initAssetPrice",
          "type": "uint256"
        },
        {
          "internalType": "uint256",
          "name": "_cdsId",
          "type": "uint256"
        }
      ],
      "name": "accept",
      "outputs": [
        {
          "internalType": "uint256",
          "name": "",
          "type": "uint256"
        }
      ],
      "stateMutability": "nonpayable",
      "type": "function"
    },
    {
      "inputs": [
        {
          "internalType": "uint256",
          "name": "cdsId",
          "type": "uint256"
        }
      ],
      "name": "cancel",
      "outputs": [
        {
          "internalType": "bool",
          "name": "",
          "type": "bool"
        }
      ],
      "stateMutability": "nonpayable",
      "type": "function"
    },
    {
      "inputs": [
        {
          "internalType": "uint256",
          "name": "cdsId",
          "type": "uint256"
        }
      ],
      "name": "close",
      "outputs": [
        {
          "internalType": "bool",
          "name": "",
          "type": "bool"
        }
      ],
      "stateMutability": "nonpayable",
      "type": "function"
    },
    {
      "inputs": [
        {
          "internalType": "uint256",
          "name": "cdsId",
          "type": "uint256"
        }
      ],
      "name": "claim",
      "outputs": [
        {
          "internalType": "bool",
          "name": "",
          "type": "bool"
        }
      ],
      "stateMutability": "nonpayable",
      "type": "function"
    },
    {
      "inputs": [
        {
          "internalType": "uint256",
          "name": "cdsId",
          "type": "uint256"
        }
      ],
      "name": "expire",
      "outputs": [
        {
          "internalType": "bool",
          "name": "",
          "type": "bool"
        }
      ],
      "stateMutability": "nonpayable",
      "type": "function"
    },
    {
      "inputs": [
        {
          "internalType": "uint256",
          "name": "cdsId",
          "type": "uint256"
        }
      ],
      "name": "payPremium",
      "outputs": [
        {
          "internalType": "bool",
          "name": "",
          "type": "bool"
        }
      ],
      "stateMutability": "nonpayable",
      "type": "function"
    },
    {
      "inputs": [
        {
          "internalType": "uint256",
          "name": "cdsId",
          "type": "uint256"
        }
      ],
      "name": "payPremiumByDeposit",
      "outputs": [
        {
          "internalType": "bool",
          "name": "",
          "type": "bool"
        }
      ],
      "stateMutability": "nonpayable",
      "type": "function"
    }
  ],
  "bytecode": "0x60806040523480156200001157600080fd5b507344f818644e6bbc02e58c81b550d80611857233b5600360006101000a81548173ffffffffffffffffffffffffffffffffffffffff021916908373ffffffffffffffffffffffffffffffffffffffff160217905550620000876200007b6200008d60201b60201c565b6200009560201b60201c565b6200015b565b600033905090565b6000600560009054906101000a900473ffffffffffffffffffffffffffffffffffffffff16905081600560006101000a81548173ffffffffffffffffffffffffffffffffffffffff021916908373ffffffffffffffffffffffffffffffffffffffff1602179055508173ffffffffffffffffffffffffffffffffffffffff168173ffffffffffffffffffffffffffffffffffffffff167f8be0079c531659141344cd1fd0a4f28419497f9722a3daafe3b4186f6b6457e060405160405180910390a35050565b6156bf806200016b6000396000f3fe60806040523480156200001157600080fd5b5060043610620001305760003560e01c8063715018a611620000b1578063bf81bf43116200007b578063bf81bf4314620003b5578063d0e5d95514620003eb578063d6a9de51146200040d578063f2fde38b1462000443578063fc0c546a14620004635762000130565b8063715018a6146200031b5780637f5c4d4a14620003275780638a614dd5146200035d5780638da5cb5b14620003935762000130565b8063379607f511620000ff578063379607f5146200020d57806340e58ee514620002435780634364b26e14620002795780635af8d21c14620002af5780635bf608b814620002e55762000130565b80630935847914620001355780630aebeb4e146200016b5780632926ea2a14620001a15780632bd4978014620001d7575b600080fd5b6200015360048036038101906200014d91906200264d565b62000485565b604051620001629190620026a5565b60405180910390f35b620001896004803603810190620001839190620026c2565b62000604565b60405162000198919062002711565b60405180910390f35b620001bf6004803603810190620001b99190620026c2565b620006dc565b604051620001ce919062002711565b60405180910390f35b620001f56004803603810190620001ef91906200264d565b620007b3565b604051620002049190620026a5565b60405180910390f35b6200022b6004803603810190620002259190620026c2565b620007dc565b6040516200023a919062002711565b60405180910390f35b6200026160048036038101906200025b9190620026c2565b620008ba565b60405162000270919062002711565b60405180910390f35b620002976004803603810190620002919190620026c2565b620009d3565b604051620002a6919062002711565b60405180910390f35b620002cd6004803603810190620002c79190620026c2565b62000aaa565b604051620002dc9190620027b9565b60405180910390f35b620003036004803603810190620002fd9190620026c2565b62000ae7565b604051620003129190620027fb565b60405180910390f35b6200032562000b95565b005b6200034560048036038101906200033f919062002849565b62000bad565b60405162000354919062002949565b60405180910390f35b6200037b6004803603810190620003759190620029df565b62000c7c565b6040516200038a9190620026a5565b60405180910390f35b6200039d62000d10565b604051620003ac9190620027fb565b60405180910390f35b620003d36004803603810190620003cd9190620026c2565b62000d3a565b604051620003e2919062002711565b60405180910390f35b620003f562000d95565b60405162000404919062002ad7565b60405180910390f35b6200042b6004803603810190620004259190620026c2565b62000dbb565b6040516200043a9190620027fb565b60405180910390f35b6200046160048036038101906200045b919062002849565b62000e69565b005b6200046d62000ef3565b6040516200047c919062002b19565b60405180910390f35b6000620004928262000ae7565b73ffffffffffffffffffffffffffffffffffffffff163373ffffffffffffffffffffffffffffffffffffffff1614158015620005045750620004d48262000dbb565b73ffffffffffffffffffffffffffffffffffffffff163373ffffffffffffffffffffffffffffffffffffffff1614155b62000546576040517f08c379a00000000000000000000000000000000000000000000000000000000081526004016200053d9062002b97565b60405180910390fd5b60008073ffffffffffffffffffffffffffffffffffffffff166200056a8462000dbb565b73ffffffffffffffffffffffffffffffffffffffff161490506200059081858562000f19565b6200059d838215620011ec565b50620005a983620014db565b503373ffffffffffffffffffffffffffffffffffffffff167f68e07974e86f9190b39c5e1783e6ba66b3d0d7ccf507de51450f14e594d1686884604051620005f29190620026a5565b60405180910390a28291505092915050565b600081620006128162000ae7565b73ffffffffffffffffffffffffffffffffffffffff163373ffffffffffffffffffffffffffffffffffffffff161462000682576040517f08c379a0000000000000000000000000000000000000000000000000000000008152600401620006799062002c09565b60405180910390fd5b6200068d83620016a0565b62000698836200170f565b507fbf67515a38ee520223d32c1266d52101c30d936ed1f3e436c8caeb0a43cb06bf83604051620006ca9190620026a5565b60405180910390a16001915050919050565b600081620006ea8162000dbb565b73ffffffffffffffffffffffffffffffffffffffff163373ffffffffffffffffffffffffffffffffffffffff16146200075a576040517f08c379a0000000000000000000000000000000000000000000000000000000008152600401620007519062002c7b565b60405180910390fd5b62000765836200190d565b62000770836200197c565b7f73fe46267e05ae56a3625c045df1b74c1b1736a7535eeadef3c57551bfd0059983604051620007a19190620026a5565b60405180910390a16001915050919050565b60046020528160005260406000208160028110620007d057600080fd5b01600091509150505481565b600081620007ea8162000ae7565b73ffffffffffffffffffffffffffffffffffffffff163373ffffffffffffffffffffffffffffffffffffffff16146200085a576040517f08c379a0000000000000000000000000000000000000000000000000000000008152600401620008519062002c09565b60405180910390fd5b620008658362001baa565b6000620008728462001c19565b90507f022e3d29644ead4083349ca84d24bcac368b2461819b70f5921fea15de4dec4d8482604051620008a792919062002c9d565b60405180910390a1600192505050919050565b600081620008c88162000ae7565b73ffffffffffffffffffffffffffffffffffffffff163373ffffffffffffffffffffffffffffffffffffffff161480620009375750620009088162000dbb565b73ffffffffffffffffffffffffffffffffffffffff163373ffffffffffffffffffffffffffffffffffffffff16145b62000979576040517f08c379a0000000000000000000000000000000000000000000000000000000008152600401620009709062002d40565b60405180910390fd5b620009848362001ed1565b6200098f836200170f565b507f8bf30e7ff26833413be5f69e1d373744864d600b664204b4a2f9844a8eedb9ed83604051620009c19190620026a5565b60405180910390a16001915050919050565b600081620009e18162000ae7565b73ffffffffffffffffffffffffffffffffffffffff163373ffffffffffffffffffffffffffffffffffffffff161462000a51576040517f08c379a000000000000000000000000000000000000000000000000000000000815260040162000a489062002c09565b60405180910390fd5b62000a5c836200190d565b62000a678362001f40565b7f73fe46267e05ae56a3625c045df1b74c1b1736a7535eeadef3c57551bfd005998360405162000a989190620026a5565b60405180910390a16001915050919050565b60006001600083815260200190815260200160002060009054906101000a900473ffffffffffffffffffffffffffffffffffffffff169050919050565b60006001600083815260200190815260200160002060009054906101000a900473ffffffffffffffffffffffffffffffffffffffff1673ffffffffffffffffffffffffffffffffffffffff1663603daf9a6040518163ffffffff1660e01b8152600401602060405180830381865afa15801562000b68573d6000803e3d6000fd5b505050506040513d601f19601f8201168201806040525081019062000b8e919062002d79565b9050919050565b62000b9f620020c7565b62000bab60006200214c565b565b6060600260008373ffffffffffffffffffffffffffffffffffffffff1673ffffffffffffffffffffffffffffffffffffffff16815260200190815260200160002080548060200260200160405190810160405280929190818152602001828054801562000c7057602002820191906000526020600020905b8160009054906101000a900473ffffffffffffffffffffffffffffffffffffffff1673ffffffffffffffffffffffffffffffffffffffff168152602001906001019080831162000c25575b50505050509050919050565b60008062000c918a8a8a8a8a8a8a8a62002212565b905062000c9f818b620011ec565b503373ffffffffffffffffffffffffffffffffffffffff167f9eab9cfac223c6527657a8d86c920796a5ab5038bc0f4497038958ac33fa8f838b838662000ce68662000aaa565b60405162000cf8949392919062002dbc565b60405180910390a28091505098975050505050505050565b6000600560009054906101000a900473ffffffffffffffffffffffffffffffffffffffff16905090565b600062000d47826200234d565b62000d52826200170f565b507fa33fd53ba34795ffefaea3759c71f87d38b89ae12e40bc434c826fae0ca535838260405162000d849190620026a5565b60405180910390a160019050919050565b62000d9f620025ec565b6000604051806020016040529081600082015481525050905090565b60006001600083815260200190815260200160002060009054906101000a900473ffffffffffffffffffffffffffffffffffffffff1673ffffffffffffffffffffffffffffffffffffffff1663dbd0e1b66040518163ffffffff1660e01b8152600401602060405180830381865afa15801562000e3c573d6000803e3d6000fd5b505050506040513d601f19601f8201168201806040525081019062000e62919062002d79565b9050919050565b62000e73620020c7565b600073ffffffffffffffffffffffffffffffffffffffff168173ffffffffffffffffffffffffffffffffffffffff160362000ee5576040517f08c379a000000000000000000000000000000000000000000000000000000000815260040162000edc9062002e7f565b60405180910390fd5b62000ef0816200214c565b50565b600360009054906101000a900473ffffffffffffffffffffffffffffffffffffffff1681565b60006001600083815260200190815260200160002060009054906101000a900473ffffffffffffffffffffffffffffffffffffffff1690508073ffffffffffffffffffffffffffffffffffffffff1663cbe972458433876040518463ffffffff1660e01b815260040162000f909392919062002ea1565b600060405180830381600087803b15801562000fab57600080fd5b505af115801562000fc0573d6000803e3d6000fd5b50505050600260008273ffffffffffffffffffffffffffffffffffffffff1663603daf9a6040518163ffffffff1660e01b8152600401602060405180830381865afa15801562001014573d6000803e3d6000fd5b505050506040513d601f19601f820116820180604052508101906200103a919062002d79565b73ffffffffffffffffffffffffffffffffffffffff1673ffffffffffffffffffffffffffffffffffffffff168152602001908152602001600020819080600181540180825580915050600190039060005260206000200160009091909190916101000a81548173ffffffffffffffffffffffffffffffffffffffff021916908373ffffffffffffffffffffffffffffffffffffffff160217905550600260008273ffffffffffffffffffffffffffffffffffffffff1663dbd0e1b66040518163ffffffff1660e01b8152600401602060405180830381865afa15801562001125573d6000803e3d6000fd5b505050506040513d601f19601f820116820180604052508101906200114b919062002d79565b73ffffffffffffffffffffffffffffffffffffffff1673ffffffffffffffffffffffffffffffffffffffff168152602001908152602001600020819080600181540180825580915050600190039060005260206000200160009091909190916101000a81548173ffffffffffffffffffffffffffffffffffffffff021916908373ffffffffffffffffffffffffffffffffffffffff16021790555050505050565b60008082156200137057620012876004620012078662000aaa565b73ffffffffffffffffffffffffffffffffffffffff1663e0a73a936040518163ffffffff1660e01b8152600401602060405180830381865afa15801562001252573d6000803e3d6000fd5b505050506040513d601f19601f8201168201806040525081019062001278919062002ef5565b6200255390919063ffffffff16565b9050600360009054906101000a900473ffffffffffffffffffffffffffffffffffffffff1673ffffffffffffffffffffffffffffffffffffffff166323b872dd620012d28662000ae7565b30846040518463ffffffff1660e01b8152600401620012f49392919062002f27565b6020604051808303816000875af115801562001314573d6000803e3d6000fd5b505050506040513d601f19601f820116820180604052508101906200133a919062002f7b565b50806004600086815260200190815260200160002060006002811062001365576200136462002fad565b5b0181905550620014d0565b6200137b8462000aaa565b73ffffffffffffffffffffffffffffffffffffffff16634c1786ea6040518163ffffffff1660e01b8152600401602060405180830381865afa158015620013c6573d6000803e3d6000fd5b505050506040513d601f19601f82011682018060405250810190620013ec919062002ef5565b9050600360009054906101000a900473ffffffffffffffffffffffffffffffffffffffff1673ffffffffffffffffffffffffffffffffffffffff166323b872dd620014378662000dbb565b30846040518463ffffffff1660e01b8152600401620014599392919062002f27565b6020604051808303816000875af115801562001479573d6000803e3d6000fd5b505050506040513d601f19601f820116820180604052508101906200149f919062002f7b565b508060046000868152602001908152602001600020600160028110620014ca57620014c962002fad565b5b01819055505b600191505092915050565b600080620014e98362000aaa565b73ffffffffffffffffffffffffffffffffffffffff1663e0a73a936040518163ffffffff1660e01b8152600401602060405180830381865afa15801562001534573d6000803e3d6000fd5b505050506040513d601f19601f820116820180604052508101906200155a919062002ef5565b90506000600360009054906101000a900473ffffffffffffffffffffffffffffffffffffffff1673ffffffffffffffffffffffffffffffffffffffff1663a9059cbb620015a78662000dbb565b846040518363ffffffff1660e01b8152600401620015c792919062002fdc565b6020604051808303816000875af1158015620015e7573d6000803e3d6000fd5b505050506040513d601f19601f820116820180604052508101906200160d919062002f7b565b90508062001652576040517f08c379a0000000000000000000000000000000000000000000000000000000008152600401620016499062003059565b60405180910390fd5b81600460008681526020019081526020016000206000600281106200167c576200167b62002fad565b5b0160008282546200168e9190620030aa565b92505081905550600192505050919050565b620016ab8162000aaa565b73ffffffffffffffffffffffffffffffffffffffff166343d726d66040518163ffffffff1660e01b8152600401600060405180830381600087803b158015620016f357600080fd5b505af115801562001708573d6000803e3d6000fd5b5050505050565b6000806040518060400160405280620017288562000ae7565b73ffffffffffffffffffffffffffffffffffffffff1673ffffffffffffffffffffffffffffffffffffffff168152602001620017648562000dbb565b73ffffffffffffffffffffffffffffffffffffffff1673ffffffffffffffffffffffffffffffffffffffff16815250905060005b60018111620018f7576000600460008681526020019081526020016000208260028110620017cb57620017ca62002fad565b5b0154905060008114620018e0576000600360009054906101000a900473ffffffffffffffffffffffffffffffffffffffff1673ffffffffffffffffffffffffffffffffffffffff1663a9059cbb8585600281106200182e576200182d62002fad565b5b6020020151846040518363ffffffff1660e01b81526004016200185392919062002fdc565b6020604051808303816000875af115801562001873573d6000803e3d6000fd5b505050506040513d601f19601f8201168201806040525081019062001899919062002f7b565b905080620018de576040517f08c379a0000000000000000000000000000000000000000000000000000000008152600401620018d59062003135565b60405180910390fd5b505b508080620018ee9062003157565b91505062001798565b5062001903836200256b565b6001915050919050565b620019188162000aaa565b73ffffffffffffffffffffffffffffffffffffffff16635b6a251b6040518163ffffffff1660e01b8152600401600060405180830381600087803b1580156200196057600080fd5b505af115801562001975573d6000803e3d6000fd5b5050505050565b6000620019898262000aaa565b73ffffffffffffffffffffffffffffffffffffffff1663e0a73a936040518163ffffffff1660e01b8152600401602060405180830381865afa158015620019d4573d6000803e3d6000fd5b505050506040513d601f19601f82011682018060405250810190620019fa919062002ef5565b9050806004600084815260200190815260200160002060006002811062001a265762001a2562002fad565b5b0154101562001a6c576040517f08c379a000000000000000000000000000000000000000000000000000000000815260040162001a6390620031f4565b60405180910390fd5b6000600360009054906101000a900473ffffffffffffffffffffffffffffffffffffffff1673ffffffffffffffffffffffffffffffffffffffff1663a9059cbb62001ab78562000dbb565b846040518363ffffffff1660e01b815260040162001ad792919062002fdc565b6020604051808303816000875af115801562001af7573d6000803e3d6000fd5b505050506040513d601f19601f8201168201806040525081019062001b1d919062002f7b565b90508062001b62576040517f08c379a000000000000000000000000000000000000000000000000000000000815260040162001b599062003266565b60405180910390fd5b816004600085815260200190815260200160002060006002811062001b8c5762001b8b62002fad565b5b01600082825462001b9e9190620030aa565b92505081905550505050565b62001bb58162000aaa565b73ffffffffffffffffffffffffffffffffffffffff16634e71d92d6040518163ffffffff1660e01b8152600401600060405180830381600087803b15801562001bfd57600080fd5b505af115801562001c12573d6000803e3d6000fd5b5050505050565b60008062001c278362000aaa565b73ffffffffffffffffffffffffffffffffffffffff1663f26cc58e6040518163ffffffff1660e01b8152600401602060405180830381865afa15801562001c72573d6000803e3d6000fd5b505050506040513d601f19601f8201168201806040525081019062001c98919062002ef5565b90506000600360009054906101000a900473ffffffffffffffffffffffffffffffffffffffff1673ffffffffffffffffffffffffffffffffffffffff1663a9059cbb62001ce58662000ae7565b6004600088815260200190815260200160002060006002811062001d0e5762001d0d62002fad565b5b01548562001d1d919062003288565b6040518363ffffffff1660e01b815260040162001d3c92919062002fdc565b6020604051808303816000875af115801562001d5c573d6000803e3d6000fd5b505050506040513d601f19601f8201168201806040525081019062001d82919062002f7b565b90506000600360009054906101000a900473ffffffffffffffffffffffffffffffffffffffff1673ffffffffffffffffffffffffffffffffffffffff1663a9059cbb62001dcf8762000dbb565b85600460008a815260200190815260200160002060016002811062001df95762001df862002fad565b5b015462001e079190620030aa565b6040518363ffffffff1660e01b815260040162001e2692919062002fdc565b6020604051808303816000875af115801562001e46573d6000803e3d6000fd5b505050506040513d601f19601f8201168201806040525081019062001e6c919062002f7b565b905081801562001e795750805b62001ebb576040517f08c379a000000000000000000000000000000000000000000000000000000000815260040162001eb29062003313565b60405180910390fd5b62001ec6856200256b565b829350505050919050565b62001edc8162000aaa565b73ffffffffffffffffffffffffffffffffffffffff1663ea8a1af06040518163ffffffff1660e01b8152600401600060405180830381600087803b15801562001f2457600080fd5b505af115801562001f39573d6000803e3d6000fd5b5050505050565b600062001f4d8262000aaa565b73ffffffffffffffffffffffffffffffffffffffff1663e0a73a936040518163ffffffff1660e01b8152600401602060405180830381865afa15801562001f98573d6000803e3d6000fd5b505050506040513d601f19601f8201168201806040525081019062001fbe919062002ef5565b90506000600360009054906101000a900473ffffffffffffffffffffffffffffffffffffffff1673ffffffffffffffffffffffffffffffffffffffff166323b872dd6200200b8562000ae7565b620020168662000dbb565b856040518463ffffffff1660e01b8152600401620020379392919062002f27565b6020604051808303816000875af115801562002057573d6000803e3d6000fd5b505050506040513d601f19601f820116820180604052508101906200207d919062002f7b565b905080620020c2576040517f08c379a0000000000000000000000000000000000000000000000000000000008152600401620020b99062003266565b60405180910390fd5b505050565b620020d1620025c0565b73ffffffffffffffffffffffffffffffffffffffff16620020f162000d10565b73ffffffffffffffffffffffffffffffffffffffff16146200214a576040517f08c379a0000000000000000000000000000000000000000000000000000000008152600401620021419062003385565b60405180910390fd5b565b6000600560009054906101000a900473ffffffffffffffffffffffffffffffffffffffff16905081600560006101000a81548173ffffffffffffffffffffffffffffffffffffffff021916908373ffffffffffffffffffffffffffffffffffffffff1602179055508173ffffffffffffffffffffffffffffffffffffffff168173ffffffffffffffffffffffffffffffffffffffff167f8be0079c531659141344cd1fd0a4f28419497f9722a3daafe3b4186f6b6457e060405160405180910390a35050565b6000620022206000620025c8565b60006200222e6000620025de565b90506000898989888a89896040516200224790620025ff565b620022599796959493929190620033a7565b604051809103906000f08015801562002276573d6000803e3d6000fd5b509050806001600084815260200190815260200160002060006101000a81548173ffffffffffffffffffffffffffffffffffffffff021916908373ffffffffffffffffffffffffffffffffffffffff1602179055508073ffffffffffffffffffffffffffffffffffffffff1663bab215f8338d6040518363ffffffff1660e01b81526004016200230892919062003424565b600060405180830381600087803b1580156200232357600080fd5b505af115801562002338573d6000803e3d6000fd5b50505050819250505098975050505050505050565b80620023598162000dbb565b73ffffffffffffffffffffffffffffffffffffffff163373ffffffffffffffffffffffffffffffffffffffff1614620023c9576040517f08c379a0000000000000000000000000000000000000000000000000000000008152600401620023c09062002c7b565b60405180910390fd5b6000620023d68362000aaa565b73ffffffffffffffffffffffffffffffffffffffff1663ffd0e69f6040518163ffffffff1660e01b8152600401602060405180830381865afa15801562002421573d6000803e3d6000fd5b505050506040513d601f19601f8201168201806040525081019062002447919062002f7b565b90506000806004600086815260200190815260200160002060006002811062002475576200247462002fad565b5b01541490506000600190508280156200248b5750805b806200249e57508180156200249d5750805b5b620024e0576040517f08c379a0000000000000000000000000000000000000000000000000000000008152600401620024d790620034a1565b60405180910390fd5b620024eb8562000aaa565b73ffffffffffffffffffffffffffffffffffffffff166343d726d66040518163ffffffff1660e01b8152600401600060405180830381600087803b1580156200253357600080fd5b505af115801562002548573d6000803e3d6000fd5b505050505050505050565b60008183620025639190620034c3565b905092915050565b60005b60018111620025bc576000600460008481526020019081526020016000208260028110620025a157620025a062002fad565b5b01819055508080620025b39062003157565b9150506200256e565b5050565b600033905090565b6001816000016000828254019250508190555050565b600081600001549050919050565b6040518060200160405280600081525090565b612165806200352583390190565b600080fd5b6000819050919050565b620026278162002612565b81146200263357600080fd5b50565b60008135905062002647816200261c565b92915050565b600080604083850312156200266757620026666200260d565b5b6000620026778582860162002636565b92505060206200268a8582860162002636565b9150509250929050565b6200269f8162002612565b82525050565b6000602082019050620026bc600083018462002694565b92915050565b600060208284031215620026db57620026da6200260d565b5b6000620026eb8482850162002636565b91505092915050565b60008115159050919050565b6200270b81620026f4565b82525050565b600060208201905062002728600083018462002700565b92915050565b600073ffffffffffffffffffffffffffffffffffffffff82169050919050565b6000819050919050565b600062002779620027736200276d846200272e565b6200274e565b6200272e565b9050919050565b60006200278d8262002758565b9050919050565b6000620027a18262002780565b9050919050565b620027b38162002794565b82525050565b6000602082019050620027d06000830184620027a8565b92915050565b6000620027e3826200272e565b9050919050565b620027f581620027d6565b82525050565b6000602082019050620028126000830184620027ea565b92915050565b6200282381620027d6565b81146200282f57600080fd5b50565b600081359050620028438162002818565b92915050565b6000602082840312156200286257620028616200260d565b5b6000620028728482850162002832565b91505092915050565b600081519050919050565b600082825260208201905092915050565b6000819050602082019050919050565b620028b281620027d6565b82525050565b6000620028c68383620028a7565b60208301905092915050565b6000602082019050919050565b6000620028ec826200287b565b620028f8818562002886565b9350620029058362002897565b8060005b838110156200293c578151620029208882620028b8565b97506200292d83620028d2565b92505060018101905062002909565b5085935050505092915050565b60006020820190508181036000830152620029658184620028df565b905092915050565b6200297881620026f4565b81146200298457600080fd5b50565b60008135905062002998816200296d565b92915050565b600063ffffffff82169050919050565b620029b9816200299e565b8114620029c557600080fd5b50565b600081359050620029d981620029ae565b92915050565b600080600080600080600080610100898b03121562002a035762002a026200260d565b5b600062002a138b828c0162002987565b985050602062002a268b828c0162002636565b975050604062002a398b828c0162002636565b965050606062002a4c8b828c0162002636565b955050608062002a5f8b828c0162002636565b94505060a062002a728b828c0162002636565b93505060c062002a858b828c01620029c8565b92505060e062002a988b828c01620029c8565b9150509295985092959890939650565b62002ab38162002612565b82525050565b60208201600082015162002ad1600085018262002aa8565b50505050565b600060208201905062002aee600083018462002ab9565b92915050565b600062002b018262002780565b9050919050565b62002b138162002af4565b82525050565b600060208201905062002b30600083018462002b08565b92915050565b600082825260208201905092915050565b7f54686520686f73742063616e206e6f742063616c6c20746865206d6574686f64600082015250565b600062002b7f60208362002b36565b915062002b8c8262002b47565b602082019050919050565b6000602082019050818103600083015262002bb28162002b70565b9050919050565b7f4f6e6c79206275796572206f6620746865204344532063616e2063616c6c0000600082015250565b600062002bf1601e8362002b36565b915062002bfe8262002bb9565b602082019050919050565b6000602082019050818103600083015262002c248162002be2565b9050919050565b7f4f6e6c792073656c6c6572206f6620746865204344532063616e2063616c6c00600082015250565b600062002c63601f8362002b36565b915062002c708262002c2b565b602082019050919050565b6000602082019050818103600083015262002c968162002c54565b9050919050565b600060408201905062002cb4600083018562002694565b62002cc3602083018462002694565b9392505050565b7f4f6e6c792062757965722f73656c6c6572206f6620746865204344532063616e60008201527f2063616c6c000000000000000000000000000000000000000000000000000000602082015250565b600062002d2860258362002b36565b915062002d358262002cca565b604082019050919050565b6000602082019050818103600083015262002d5b8162002d19565b9050919050565b60008151905062002d738162002818565b92915050565b60006020828403121562002d925762002d916200260d565b5b600062002da28482850162002d62565b91505092915050565b62002db6816200299e565b82525050565b600060808201905062002dd3600083018762002700565b62002de2602083018662002694565b62002df1604083018562002dab565b62002e006060830184620027ea565b95945050505050565b7f4f776e61626c653a206e6577206f776e657220697320746865207a65726f206160008201527f6464726573730000000000000000000000000000000000000000000000000000602082015250565b600062002e6760268362002b36565b915062002e748262002e09565b604082019050919050565b6000602082019050818103600083015262002e9a8162002e58565b9050919050565b600060608201905062002eb8600083018662002694565b62002ec76020830185620027ea565b62002ed6604083018462002700565b949350505050565b60008151905062002eef816200261c565b92915050565b60006020828403121562002f0e5762002f0d6200260d565b5b600062002f1e8482850162002ede565b91505092915050565b600060608201905062002f3e6000830186620027ea565b62002f4d6020830185620027ea565b62002f5c604083018462002694565b949350505050565b60008151905062002f75816200296d565b92915050565b60006020828403121562002f945762002f936200260d565b5b600062002fa48482850162002f64565b91505092915050565b7f4e487b7100000000000000000000000000000000000000000000000000000000600052603260045260246000fd5b600060408201905062002ff36000830185620027ea565b62003002602083018462002694565b9392505050565b7f53656e64696e67206669727374207072656d69756d206661696c656400000000600082015250565b600062003041601c8362002b36565b91506200304e8262003009565b602082019050919050565b60006020820190508181036000830152620030748162003032565b9050919050565b7f4e487b7100000000000000000000000000000000000000000000000000000000600052601160045260246000fd5b6000620030b78262002612565b9150620030c48362002612565b9250828203905081811115620030df57620030de6200307b565b5b92915050565b7f53656e64696e67206465706f736974206261636b206661696c65640000000000600082015250565b60006200311d601b8362002b36565b91506200312a82620030e5565b602082019050919050565b6000602082019050818103600083015262003150816200310e565b9050919050565b6000620031648262002612565b91507fffffffffffffffffffffffffffffffffffffffffffffffffffffffffffffffff82036200319957620031986200307b565b5b600182019050919050565b7f4e6f7420656e6f756768206465706f7369740000000000000000000000000000600082015250565b6000620031dc60128362002b36565b9150620031e982620031a4565b602082019050919050565b600060208201905081810360008301526200320f81620031cd565b9050919050565b7f53656e64696e67207072656d69756d206661696c656400000000000000000000600082015250565b60006200324e60168362002b36565b91506200325b8262003216565b602082019050919050565b6000602082019050818103600083015262003281816200323f565b9050919050565b6000620032958262002612565b9150620032a28362002612565b9250828201905080821115620032bd57620032bc6200307b565b5b92915050565b7f53656e64696e6720726577617264206661696c65640000000000000000000000600082015250565b6000620032fb60158362002b36565b91506200330882620032c3565b602082019050919050565b600060208201905081810360008301526200332e81620032ec565b9050919050565b7f4f776e61626c653a2063616c6c6572206973206e6f7420746865206f776e6572600082015250565b60006200336d60208362002b36565b91506200337a8262003335565b602082019050919050565b60006020820190508181036000830152620033a0816200335e565b9050919050565b600060e082019050620033be600083018a62002694565b620033cd602083018962002694565b620033dc604083018862002694565b620033eb606083018762002694565b620033fa608083018662002694565b6200340960a083018562002dab565b6200341860c083018462002dab565b98975050505050505050565b60006040820190506200343b6000830185620027ea565b6200344a602083018462002700565b9392505050565b7f4275796572206465706f736974202f20526f756e64732072656d61696e696e67600082015250565b60006200348960208362002b36565b9150620034968262003451565b602082019050919050565b60006020820190508181036000830152620034bc816200347a565b9050919050565b6000620034d08262002612565b9150620034dd8362002612565b9250817fffffffffffffffffffffffffffffffffffffffffffffffffffffffffffffffff04831182151516156200351957620035186200307b565b5b82820290509291505056fe60806040523480156200001157600080fd5b5060405162002165380380620021658339818101604052810190620000379190620003b0565b732abdf4a7ad585effcc16b61643e058130b1311b86200006c620000606200026360201b60201c565b6200026b60201b60201c565b80600160006101000a81548173ffffffffffffffffffffffffffffffffffffffff021916908373ffffffffffffffffffffffffffffffffffffffff16021790555050866003819055508560048190555084600581905550836006819055508260078190555081600a60146101000a81548163ffffffff021916908363ffffffff16021790555081600a60186101000a81548163ffffffff021916908363ffffffff16021790555060008163ffffffff1614806200012f575060018163ffffffff16145b8062000141575060028163ffffffff16145b62000183576040517f08c379a00000000000000000000000000000000000000000000000000000000081526004016200017a90620004c4565b60405180910390fd5b80600a601c6101000a81548163ffffffff021916908363ffffffff1602179055506000600960006101000a81548173ffffffffffffffffffffffffffffffffffffffff021916908373ffffffffffffffffffffffffffffffffffffffff1602179055506000600a60006101000a81548173ffffffffffffffffffffffffffffffffffffffff021916908373ffffffffffffffffffffffffffffffffffffffff1602179055506001600260146101000a81548160ff02191690836004811115620002515762000250620004e6565b5b02179055505050505050505062000515565b600033905090565b60008060009054906101000a900473ffffffffffffffffffffffffffffffffffffffff169050816000806101000a81548173ffffffffffffffffffffffffffffffffffffffff021916908373ffffffffffffffffffffffffffffffffffffffff1602179055508173ffffffffffffffffffffffffffffffffffffffff168173ffffffffffffffffffffffffffffffffffffffff167f8be0079c531659141344cd1fd0a4f28419497f9722a3daafe3b4186f6b6457e060405160405180910390a35050565b600080fd5b6000819050919050565b620003498162000334565b81146200035557600080fd5b50565b60008151905062000369816200033e565b92915050565b600063ffffffff82169050919050565b6200038a816200036f565b81146200039657600080fd5b50565b600081519050620003aa816200037f565b92915050565b600080600080600080600060e0888a031215620003d257620003d16200032f565b5b6000620003e28a828b0162000358565b9750506020620003f58a828b0162000358565b9650506040620004088a828b0162000358565b95505060606200041b8a828b0162000358565b94505060806200042e8a828b0162000358565b93505060a0620004418a828b0162000399565b92505060c0620004548a828b0162000399565b91505092959891949750929550565b600082825260208201905092915050565b7f4254433a302c204554483a312c204c494e4b3a32000000000000000000000000600082015250565b6000620004ac60148362000463565b9150620004b98262000474565b602082019050919050565b60006020820190508181036000830152620004df816200049d565b9050919050565b7f4e487b7100000000000000000000000000000000000000000000000000000000600052602160045260246000fd5b611c4080620005256000396000f3fe608060405234801561001057600080fd5b50600436106101da5760003560e01c8063b6fc2d5f11610104578063dbd0e1b6116100a2578063f26cc58e11610071578063f26cc58e146104cb578063f2fde38b146104e9578063fcb341df14610505578063ffd0e69f14610523576101da565b8063dbd0e1b614610455578063e0a73a9314610473578063e99d286614610491578063ea8a1af0146104c1576101da565b8063bef904e3116100de578063bef904e3146103bb578063cbe97245146103eb578063cbed244914610407578063d868379814610437576101da565b8063b6fc2d5f14610363578063bab215f814610381578063bd9a548b1461039d576101da565b8063603daf9a1161017c5780638a5682991161014b5780638a568299146102d95780638da5cb5b146102f7578063a2e800ad14610315578063a3f09ad614610333576101da565b8063603daf9a14610275578063715018a614610293578063839966af1461029d57806386be75b7146102bb576101da565b806343d726d6116101b857806343d726d6146102395780634c1786ea146102435780634e71d92d146102615780635b6a251b1461026b576101da565b806315d655c9146101df578063200d2ed2146101fd5780633fe3347a1461021b575b600080fd5b6101e7610541565b6040516101f49190611300565b60405180910390f35b610205610547565b6040516102129190611392565b60405180910390f35b61022361055a565b60405161023091906113cc565b60405180910390f35b610241610570565b005b61024b6105fb565b6040516102589190611300565b60405180910390f35b610269610601565b005b6102736106d6565b005b61027d6107f5565b60405161028a9190611428565b60405180910390f35b61029b61081f565b005b6102a5610833565b6040516102b2919061145e565b60405180910390f35b6102c36108b6565b6040516102d09190611300565b60405180910390f35b6102e16108bc565b6040516102ee91906113cc565b60405180910390f35b6102ff6108d2565b60405161030c9190611428565b60405180910390f35b61031d6108fb565b60405161032a91906113cc565b60405180910390f35b61034d600480360381019061034891906114aa565b610911565b60405161035a9190611428565b60405180910390f35b61036b610986565b6040516103789190611300565b60405180910390f35b61039b60048036038101906103969190611503565b61098c565b005b6103a56109b6565b6040516103b291906115ee565b60405180910390f35b6103d560048036038101906103d09190611635565b6109f4565b6040516103e29190611300565b60405180910390f35b61040560048036038101906104009190611662565b610a07565b005b610421600480360381019061041c91906116e1565b610aff565b60405161042e9190611300565b60405180910390f35b61043f610d3d565b60405161044c9190611300565b60405180910390f35b61045d610d43565b60405161046a9190611428565b60405180910390f35b61047b610d6d565b6040516104889190611300565b60405180910390f35b6104ab60048036038101906104a691906114aa565b610d73565b6040516104b89190611428565b60405180910390f35b6104c9610de8565b005b6104d3610e73565b6040516104e09190611300565b60405180910390f35b61050360048036038101906104fe91906114aa565b610ecb565b005b61050d610f4e565b60405161051a9190611300565b60405180910390f35b61052b610f70565b604051610538919061145e565b60405180910390f35b60045481565b600260149054906101000a900460ff1681565b600a601c9054906101000a900463ffffffff1681565b610578611009565b6002600481111561058c5761058b61131b565b5b600260149054906101000a900460ff1660048111156105ae576105ad61131b565b5b146105ee576040517f08c379a00000000000000000000000000000000000000000000000000000000081526004016105e590611791565b60405180910390fd5b6105f86004611087565b50565b60075481565b610609611009565b6002600481111561061d5761061c61131b565b5b600260149054906101000a900460ff16600481111561063f5761063e61131b565b5b1461067f576040517f08c379a000000000000000000000000000000000000000000000000000000000815260040161067690611791565b60405180910390fd5b6000610689610e73565b036106c9576040517f08c379a00000000000000000000000000000000000000000000000000000000081526004016106c090611823565b60405180910390fd5b6106d36003611087565b50565b6106de611009565b600260048111156106f2576106f161131b565b5b600260149054906101000a900460ff1660048111156107145761071361131b565b5b14610754576040517f08c379a000000000000000000000000000000000000000000000000000000000815260040161074b90611791565b60405180910390fd5b6000600a60149054906101000a900463ffffffff1663ffffffff16116107af576040517f08c379a00000000000000000000000000000000000000000000000000000000081526004016107a69061188f565b60405180910390fd5b6224ea00600860008282546107c491906118de565b925050819055506107f26001600a60149054906101000a900463ffffffff166107ed9190611912565b6110d2565b50565b6000600960009054906101000a900473ffffffffffffffffffffffffffffffffffffffff16905090565b610827611009565b6108316000611117565b565b6000600260048111156108495761084861131b565b5b600260149054906101000a900460ff16600481111561086b5761086a61131b565b5b146108ab576040517f08c379a00000000000000000000000000000000000000000000000000000000081526004016108a290611791565b60405180910390fd5b600854421015905090565b60035481565b600a60189054906101000a900463ffffffff1681565b60008060009054906101000a900473ffffffffffffffffffffffffffffffffffffffff16905090565b600a60149054906101000a900463ffffffff1681565b600061091b611009565b81600960006101000a81548173ffffffffffffffffffffffffffffffffffffffff021916908373ffffffffffffffffffffffffffffffffffffffff160217905550600960009054906101000a900473ffffffffffffffffffffffffffffffffffffffff169050919050565b60055481565b610994611009565b806109a7576109a282610d73565b6109b1565b6109b082610911565b5b505050565b6109be6112c5565b6040518060a001604052806003548152602001600454815260200160055481526020016006548152602001600754815250905090565b6000816003819055506003549050919050565b610a0f611009565b60016004811115610a2357610a2261131b565b5b600260149054906101000a900460ff166004811115610a4557610a4461131b565b5b14610a85576040517f08c379a0000000000000000000000000000000000000000000000000000000008152600401610a7c906119bc565b60405180910390fd5b610a8e836109f4565b50610a9a82821561098c565b610aa46002611087565b506224ea0042610ab491906118de565b6008819055506001600a60148282829054906101000a900463ffffffff16610adc9190611912565b92506101000a81548163ffffffff021916908363ffffffff160217905550505050565b60008060008363ffffffff1603610bbe57610bb76305f5e100600160009054906101000a900473ffffffffffffffffffffffffffffffffffffffff1673ffffffffffffffffffffffffffffffffffffffff1663a8ad52d16040518163ffffffff1660e01b8152600401602060405180830381865afa158015610b85573d6000803e3d6000fd5b505050506040513d601f19601f82011682018060405250810190610ba991906119f1565b6111db90919063ffffffff16565b9050610d34565b60018363ffffffff1603610c7a57610c736305f5e100600160009054906101000a900473ffffffffffffffffffffffffffffffffffffffff1673ffffffffffffffffffffffffffffffffffffffff1663ff186b2e6040518163ffffffff1660e01b8152600401602060405180830381865afa158015610c41573d6000803e3d6000fd5b505050506040513d601f19601f82011682018060405250810190610c6591906119f1565b6111db90919063ffffffff16565b9050610d33565b60028363ffffffff1603610d3257610d2f6305f5e100600160009054906101000a900473ffffffffffffffffffffffffffffffffffffffff1673ffffffffffffffffffffffffffffffffffffffff16630cf785356040518163ffffffff1660e01b8152600401602060405180830381865afa158015610cfd573d6000803e3d6000fd5b505050506040513d601f19601f82011682018060405250810190610d2191906119f1565b6111db90919063ffffffff16565b90505b5b5b80915050919050565b60085481565b6000600a60009054906101000a900473ffffffffffffffffffffffffffffffffffffffff16905090565b60065481565b6000610d7d611009565b81600a60006101000a81548173ffffffffffffffffffffffffffffffffffffffff021916908373ffffffffffffffffffffffffffffffffffffffff160217905550600a60009054906101000a900473ffffffffffffffffffffffffffffffffffffffff169050919050565b610df0611009565b60016004811115610e0457610e0361131b565b5b600260149054906101000a900460ff166004811115610e2657610e2561131b565b5b14610e66576040517f08c379a0000000000000000000000000000000000000000000000000000000008152600401610e5d906119bc565b60405180910390fd5b610e706000611087565b50565b600080610e91600a601c9054906101000a900463ffffffff16610aff565b9050806004541015610ea7576000915050610ec8565b610ec4600554600354836007546111f1909392919063ffffffff16565b9150505b90565b610ed3611009565b600073ffffffffffffffffffffffffffffffffffffffff168173ffffffffffffffffffffffffffffffffffffffff1603610f42576040517f08c379a0000000000000000000000000000000000000000000000000000000008152600401610f3990611a90565b60405180910390fd5b610f4b81611117565b50565b6000610f6b6005546007546003546112619092919063ffffffff16565b905090565b600060026004811115610f8657610f8561131b565b5b600260149054906101000a900460ff166004811115610fa857610fa761131b565b5b14610fe8576040517f08c379a0000000000000000000000000000000000000000000000000000000008152600401610fdf90611791565b60405180910390fd5b6000600a60149054906101000a900463ffffffff1663ffffffff1614905090565b611011611291565b73ffffffffffffffffffffffffffffffffffffffff1661102f6108d2565b73ffffffffffffffffffffffffffffffffffffffff1614611085576040517f08c379a000000000000000000000000000000000000000000000000000000000815260040161107c90611afc565b60405180910390fd5b565b6000611091611009565b81600260146101000a81548160ff021916908360048111156110b6576110b561131b565b5b0217905550600260149054906101000a900460ff169050919050565b60006110dc611009565b81600a60146101000a81548163ffffffff021916908363ffffffff160217905550600a60149054906101000a900463ffffffff169050919050565b60008060009054906101000a900473ffffffffffffffffffffffffffffffffffffffff169050816000806101000a81548173ffffffffffffffffffffffffffffffffffffffff021916908373ffffffffffffffffffffffffffffffffffffffff1602179055508173ffffffffffffffffffffffffffffffffffffffff168173ffffffffffffffffffffffffffffffffffffffff167f8be0079c531659141344cd1fd0a4f28419497f9722a3daafe3b4186f6b6457e060405160405180910390a35050565b600081836111e99190611b4b565b905092915050565b60008082851061120357859050611255565b600061122a61121b878761129990919063ffffffff16565b886111db90919063ffffffff16565b9050611251611242858761129990919063ffffffff16565b826112af90919063ffffffff16565b9150505b80915050949350505050565b6000611288611279848661129990919063ffffffff16565b836111db90919063ffffffff16565b90509392505050565b600033905090565b600081836112a79190611b7c565b905092915050565b600081836112bd9190611bb0565b905092915050565b6040518060a00160405280600590602082028036833780820191505090505090565b6000819050919050565b6112fa816112e7565b82525050565b600060208201905061131560008301846112f1565b92915050565b7f4e487b7100000000000000000000000000000000000000000000000000000000600052602160045260246000fd5b6005811061135b5761135a61131b565b5b50565b600081905061136c8261134a565b919050565b600061137c8261135e565b9050919050565b61138c81611371565b82525050565b60006020820190506113a76000830184611383565b92915050565b600063ffffffff82169050919050565b6113c6816113ad565b82525050565b60006020820190506113e160008301846113bd565b92915050565b600073ffffffffffffffffffffffffffffffffffffffff82169050919050565b6000611412826113e7565b9050919050565b61142281611407565b82525050565b600060208201905061143d6000830184611419565b92915050565b60008115159050919050565b61145881611443565b82525050565b6000602082019050611473600083018461144f565b92915050565b600080fd5b61148781611407565b811461149257600080fd5b50565b6000813590506114a48161147e565b92915050565b6000602082840312156114c0576114bf611479565b5b60006114ce84828501611495565b91505092915050565b6114e081611443565b81146114eb57600080fd5b50565b6000813590506114fd816114d7565b92915050565b6000806040838503121561151a57611519611479565b5b600061152885828601611495565b9250506020611539858286016114ee565b9150509250929050565b600060059050919050565b600081905092915050565b6000819050919050565b61156c816112e7565b82525050565b600061157e8383611563565b60208301905092915050565b6000602082019050919050565b6115a081611543565b6115aa818461154e565b92506115b582611559565b8060005b838110156115e65781516115cd8782611572565b96506115d88361158a565b9250506001810190506115b9565b505050505050565b600060a0820190506116036000830184611597565b92915050565b611612816112e7565b811461161d57600080fd5b50565b60008135905061162f81611609565b92915050565b60006020828403121561164b5761164a611479565b5b600061165984828501611620565b91505092915050565b60008060006060848603121561167b5761167a611479565b5b600061168986828701611620565b935050602061169a86828701611495565b92505060406116ab868287016114ee565b9150509250925092565b6116be816113ad565b81146116c957600080fd5b50565b6000813590506116db816116b5565b92915050565b6000602082840312156116f7576116f6611479565b5b6000611705848285016116cc565b91505092915050565b600082825260208201905092915050565b7f54686520737461747573206f6620746865204344532073686f756c642062652060008201527f6163746976650000000000000000000000000000000000000000000000000000602082015250565b600061177b60268361170e565b91506117868261171f565b604082019050919050565b600060208201905081810360008301526117aa8161176e565b9050919050565b7f43757272656e7420707269636520697320686967686572207468616e2074686560008201527f20636c61696d20707269636520696e2043445300000000000000000000000000602082015250565b600061180d60338361170e565b9150611818826117b1565b604082019050919050565b6000602082019050818103600083015261183c81611800565b9050919050565b7f526f756e6420616c726561647920656e64656400000000000000000000000000600082015250565b600061187960138361170e565b915061188482611843565b602082019050919050565b600060208201905081810360008301526118a88161186c565b9050919050565b7f4e487b7100000000000000000000000000000000000000000000000000000000600052601160045260246000fd5b60006118e9826112e7565b91506118f4836112e7565b925082820190508082111561190c5761190b6118af565b5b92915050565b600061191d826113ad565b9150611928836113ad565b9250828203905063ffffffff811115611944576119436118af565b5b92915050565b7f54686520737461747573206f6620746865204344532073686f756c642062652060008201527f70656e64696e6700000000000000000000000000000000000000000000000000602082015250565b60006119a660278361170e565b91506119b18261194a565b604082019050919050565b600060208201905081810360008301526119d581611999565b9050919050565b6000815190506119eb81611609565b92915050565b600060208284031215611a0757611a06611479565b5b6000611a15848285016119dc565b91505092915050565b7f4f776e61626c653a206e6577206f776e657220697320746865207a65726f206160008201527f6464726573730000000000000000000000000000000000000000000000000000602082015250565b6000611a7a60268361170e565b9150611a8582611a1e565b604082019050919050565b60006020820190508181036000830152611aa981611a6d565b9050919050565b7f4f776e61626c653a2063616c6c6572206973206e6f7420746865206f776e6572600082015250565b6000611ae660208361170e565b9150611af182611ab0565b602082019050919050565b60006020820190508181036000830152611b1581611ad9565b9050919050565b7f4e487b7100000000000000000000000000000000000000000000000000000000600052601260045260246000fd5b6000611b56826112e7565b9150611b61836112e7565b925082611b7157611b70611b1c565b5b828204905092915050565b6000611b87826112e7565b9150611b92836112e7565b9250828203905081811115611baa57611ba96118af565b5b92915050565b6000611bbb826112e7565b9150611bc6836112e7565b9250817fffffffffffffffffffffffffffffffffffffffffffffffffffffffffffffffff0483118215151615611bff57611bfe6118af565b5b82820290509291505056fea264697066735822122000b97d7dd19ab04861fe5c9188062e027e002a35d2065ad38c885f76ebc0c5ef64736f6c63430008100033a2646970667358221220d1a355126d23550db1c3a201ade3f585cb0953b85eb1382852efb045f015e1d164736f6c63430008100033",
  "immutableReferences": {},
  "source": "// SPDX-License-Identifier: MIT\npragma solidity ^0.8.7;\n\nimport '@openzeppelin/contracts/access/Ownable.sol';\nimport './Handler/CDSBank.sol';\n\ninterface CDSInterface {\n  function create(\n    bool isBuyer,\n    uint256 initAssetPrice,\n    uint256 claimPrice,\n    uint256 liquidationPrice,\n    uint256 sellerDeposit,\n    uint256 premium,\n    uint32 totalRounds,\n    uint32 assetType\n  ) external returns (uint256);\n\n  function accept(\n    uint256 initAssetPrice,\n    uint256 cdsId\n  ) external returns (uint256);\n\n  function cancel(uint256 cdsId) external returns (bool);\n\n  function close(uint256 cdsId) external returns (bool);\n\n  function claim(uint256 cdsId) external returns (bool);\n\n  function expire(uint256 cdsId) external returns (bool);\n\n  function payPremium(uint256 cdsId) external returns (bool);\n\n  function payPremiumByDeposit(uint256 cdsId) external returns (bool);\n\n  event Create(\n    address indexed hostAddr,\n    bool isBuyer,\n    uint256 cdsId,\n    uint32 assetType,\n    address swap\n  );\n  event Accept(address indexed guestAddr, uint256 cdsId);\n  event Cancel(uint256 cdsId);\n  event Claim(uint256 cdsId, uint256 claimReward);\n  event Close(uint256 cdsId);\n  event Expire(uint256 cdsId);\n  event PayPremium(uint256 cdsId);\n}\n\ncontract CDSLounge is CDSBank, Ownable, CDSInterface {\n  // transactions\n  function create(\n    bool isBuyer,\n    uint256 initAssetPrice,\n    uint256 claimPrice,\n    uint256 liquidationPrice,\n    uint256 sellerDeposit,\n    uint256 premium,\n    uint32 totalRounds,\n    uint32 assetType\n  ) external override returns (uint256) {\n    // _sendDeposit(premium, sellerDeposit, isBuyer);\n    uint256 newCDSId = _create(\n      isBuyer,\n      initAssetPrice,\n      claimPrice,\n      liquidationPrice,\n      sellerDeposit,\n      premium,\n      totalRounds,\n      assetType\n    );\n    _sendDeposit(newCDSId, isBuyer);\n\n    emit Create(\n      msg.sender,\n      isBuyer,\n      newCDSId,\n      assetType,\n      address(getCDS(newCDSId))\n    );\n    return newCDSId;\n  }\n\n  function accept(\n    uint256 _initAssetPrice,\n    uint256 _cdsId\n  ) external override returns (uint256) {\n    require(\n      msg.sender != getBuyer(_cdsId) && msg.sender != getSeller(_cdsId),\n      'The host can not call the method'\n    );\n\n    bool isSeller = (getSeller(_cdsId) == address(0)); // true when seller is accepting \n    _accept(isSeller, _initAssetPrice, _cdsId);\n\n    _sendDeposit(_cdsId, !isSeller); // false when seller is accepting\n    _sendFirstPremium(_cdsId);\n\n    emit Accept(msg.sender, _cdsId);\n    return _cdsId;\n  }\n\n  function cancel(\n    uint256 cdsId\n  ) external override isParticipants(cdsId) returns (bool) {\n    _cancel(cdsId);\n    _endCDS(cdsId);\n    emit Cancel(cdsId);\n    return true;\n  }\n\n  function close(\n    uint256 cdsId\n  ) external override isBuyer(cdsId) returns (bool) {\n    _close(cdsId);\n    _endCDS(cdsId);\n    emit Close(cdsId);\n    return true;\n  }\n\n  function claim(\n    uint256 cdsId\n  ) external override isBuyer(cdsId) returns (bool) {\n    _claim(cdsId);\n    uint256 claimReward = _afterClaim(cdsId);\n    emit Claim(cdsId, claimReward);\n    return true;\n  }\n\n  function expire(uint256 cdsId) external override returns (bool) {\n    _expire(cdsId);\n    _endCDS(cdsId);\n    emit Expire(cdsId);\n    return true;\n  }\n\n  function payPremium(\n    uint256 cdsId\n  ) external override isBuyer(cdsId) returns (bool) {\n    _payPremium(cdsId);\n    _sendPremium(cdsId);\n    emit PayPremium(cdsId);\n    return true;\n  }\n\n  function payPremiumByDeposit(\n    uint256 cdsId\n  ) external override isSeller(cdsId) returns (bool) {\n    _payPremium(cdsId);\n    _sendPremiumByDeposit(cdsId);\n    emit PayPremium(cdsId);\n    return true;\n  }\n}\n\n// cds contract deposit   .\n// cdsLounge allowance from cds contract\n//   cds  cdsLounge  .\n\n// pending list =>     , offer . \n//  currId     ?\n\n//   .",
  "sourcePath": "/Users/yoonsoo/smartContract/CDSv2/contract/contracts/CDSLounge.sol",
  "compiler": {
    "name": "solc",
    "version": "0.8.16+commit.07a7930e.Emscripten.clang"
  },
  "schemaVersion": "3.4.11",
  "updatedAt": "2023-03-25T14:32:33.693Z",
  "networkType": "ethereum",
  "devdoc": {
    "kind": "dev",
    "methods": {
      "owner()": {
        "details": "Returns the address of the current owner."
      },
      "renounceOwnership()": {
        "details": "Leaves the contract without owner. It will not be possible to call `onlyOwner` functions anymore. Can only be called by the current owner. NOTE: Renouncing ownership will leave the contract without an owner, thereby removing any functionality that is only available to the owner."
      },
      "transferOwnership(address)": {
        "details": "Transfers ownership of the contract to a new account (`newOwner`). Can only be called by the current owner."
      }
    },
    "version": 1
  },
  "userdoc": {
    "kind": "user",
    "methods": {},
    "version": 1
  }
}