{
  "contractName": "CDSLounge",
  "abi": [
    {
      "anonymous": false,
      "inputs": [
        {
          "indexed": true,
          "internalType": "address",
          "name": "guestAddr",
          "type": "address"
        },
        {
          "indexed": false,
          "internalType": "uint256",
          "name": "cdsId",
          "type": "uint256"
        }
      ],
      "name": "Accept",
      "type": "event"
    },
    {
      "anonymous": false,
      "inputs": [
        {
          "indexed": false,
          "internalType": "uint256",
          "name": "cdsId",
          "type": "uint256"
        }
      ],
      "name": "Cancel",
      "type": "event"
    },
    {
      "anonymous": false,
      "inputs": [
        {
          "indexed": false,
          "internalType": "uint256",
          "name": "cdsId",
          "type": "uint256"
        },
        {
          "indexed": false,
          "internalType": "uint256",
          "name": "claimReward",
          "type": "uint256"
        }
      ],
      "name": "Claim",
      "type": "event"
    },
    {
      "anonymous": false,
      "inputs": [
        {
          "indexed": false,
          "internalType": "uint256",
          "name": "cdsId",
          "type": "uint256"
        }
      ],
      "name": "Close",
      "type": "event"
    },
    {
      "anonymous": false,
      "inputs": [
        {
          "indexed": true,
          "internalType": "address",
          "name": "hostAddr",
          "type": "address"
        },
        {
          "indexed": false,
          "internalType": "bool",
          "name": "isBuyer",
          "type": "bool"
        },
        {
          "indexed": false,
          "internalType": "uint256",
          "name": "cdsId",
          "type": "uint256"
        },
        {
          "indexed": false,
          "internalType": "uint32",
          "name": "assetType",
          "type": "uint32"
        },
        {
          "indexed": false,
          "internalType": "address",
          "name": "swap",
          "type": "address"
        }
      ],
      "name": "Create",
      "type": "event"
    },
    {
      "anonymous": false,
      "inputs": [
        {
          "indexed": false,
          "internalType": "uint256",
          "name": "cdsId",
          "type": "uint256"
        }
      ],
      "name": "Expire",
      "type": "event"
    },
    {
      "anonymous": false,
      "inputs": [
        {
          "indexed": true,
          "internalType": "address",
          "name": "previousOwner",
          "type": "address"
        },
        {
          "indexed": true,
          "internalType": "address",
          "name": "newOwner",
          "type": "address"
        }
      ],
      "name": "OwnershipTransferred",
      "type": "event"
    },
    {
      "anonymous": false,
      "inputs": [
        {
          "indexed": false,
          "internalType": "uint256",
          "name": "cdsId",
          "type": "uint256"
        }
      ],
      "name": "PayPremium",
      "type": "event"
    },
    {
      "inputs": [
        {
          "internalType": "uint256",
          "name": "",
          "type": "uint256"
        },
        {
          "internalType": "uint256",
          "name": "",
          "type": "uint256"
        }
      ],
      "name": "deposits",
      "outputs": [
        {
          "internalType": "uint256",
          "name": "",
          "type": "uint256"
        }
      ],
      "stateMutability": "view",
      "type": "function",
      "constant": true
    },
    {
      "inputs": [
        {
          "internalType": "uint256",
          "name": "cdsId",
          "type": "uint256"
        }
      ],
      "name": "getBuyer",
      "outputs": [
        {
          "internalType": "address",
          "name": "",
          "type": "address"
        }
      ],
      "stateMutability": "view",
      "type": "function",
      "constant": true
    },
    {
      "inputs": [
        {
          "internalType": "uint256",
          "name": "cdsId",
          "type": "uint256"
        }
      ],
      "name": "getCDS",
      "outputs": [
        {
          "internalType": "contract CDS",
          "name": "",
          "type": "address"
        }
      ],
      "stateMutability": "view",
      "type": "function",
      "constant": true
    },
    {
      "inputs": [],
      "name": "getCDSId",
      "outputs": [
        {
          "components": [
            {
              "internalType": "uint256",
              "name": "_value",
              "type": "uint256"
            }
          ],
          "internalType": "struct Counters.Counter",
          "name": "",
          "type": "tuple"
        }
      ],
      "stateMutability": "view",
      "type": "function",
      "constant": true
    },
    {
      "inputs": [
        {
          "internalType": "address",
          "name": "owner",
          "type": "address"
        }
      ],
      "name": "getOwnedCDS",
      "outputs": [
        {
          "internalType": "address[]",
          "name": "",
          "type": "address[]"
        }
      ],
      "stateMutability": "view",
      "type": "function",
      "constant": true
    },
    {
      "inputs": [
        {
          "internalType": "uint256",
          "name": "cdsId",
          "type": "uint256"
        }
      ],
      "name": "getSeller",
      "outputs": [
        {
          "internalType": "address",
          "name": "",
          "type": "address"
        }
      ],
      "stateMutability": "view",
      "type": "function",
      "constant": true
    },
    {
      "inputs": [],
      "name": "owner",
      "outputs": [
        {
          "internalType": "address",
          "name": "",
          "type": "address"
        }
      ],
      "stateMutability": "view",
      "type": "function",
      "constant": true
    },
    {
      "inputs": [
        {
          "internalType": "uint256",
          "name": "",
          "type": "uint256"
        }
      ],
      "name": "pendingCDSs",
      "outputs": [
        {
          "internalType": "uint256",
          "name": "",
          "type": "uint256"
        }
      ],
      "stateMutability": "view",
      "type": "function",
      "constant": true
    },
    {
      "inputs": [],
      "name": "renounceOwnership",
      "outputs": [],
      "stateMutability": "nonpayable",
      "type": "function"
    },
    {
      "inputs": [],
      "name": "token",
      "outputs": [
        {
          "internalType": "contract IERC20",
          "name": "",
          "type": "address"
        }
      ],
      "stateMutability": "view",
      "type": "function",
      "constant": true
    },
    {
      "inputs": [
        {
          "internalType": "address",
          "name": "newOwner",
          "type": "address"
        }
      ],
      "name": "transferOwnership",
      "outputs": [],
      "stateMutability": "nonpayable",
      "type": "function"
    },
    {
      "inputs": [
        {
          "internalType": "bool",
          "name": "isBuyer",
          "type": "bool"
        },
        {
          "internalType": "uint256",
          "name": "initAssetPrice",
          "type": "uint256"
        },
        {
          "internalType": "uint256",
          "name": "claimPrice",
          "type": "uint256"
        },
        {
          "internalType": "uint256",
          "name": "liquidationPrice",
          "type": "uint256"
        },
        {
          "internalType": "uint256",
          "name": "sellerDeposit",
          "type": "uint256"
        },
        {
          "internalType": "uint256",
          "name": "premium",
          "type": "uint256"
        },
        {
          "internalType": "uint32",
          "name": "totalRounds",
          "type": "uint32"
        },
        {
          "internalType": "uint32",
          "name": "assetType",
          "type": "uint32"
        }
      ],
      "name": "create",
      "outputs": [
        {
          "internalType": "uint256",
          "name": "",
          "type": "uint256"
        }
      ],
      "stateMutability": "nonpayable",
      "type": "function"
    },
    {
      "inputs": [
        {
          "internalType": "uint256",
          "name": "_initAssetPrice",
          "type": "uint256"
        },
        {
          "internalType": "uint256",
          "name": "_cdsId",
          "type": "uint256"
        }
      ],
      "name": "accept",
      "outputs": [
        {
          "internalType": "uint256",
          "name": "",
          "type": "uint256"
        }
      ],
      "stateMutability": "nonpayable",
      "type": "function"
    },
    {
      "inputs": [
        {
          "internalType": "uint256",
          "name": "cdsId",
          "type": "uint256"
        }
      ],
      "name": "cancel",
      "outputs": [
        {
          "internalType": "bool",
          "name": "",
          "type": "bool"
        }
      ],
      "stateMutability": "nonpayable",
      "type": "function"
    },
    {
      "inputs": [
        {
          "internalType": "uint256",
          "name": "cdsId",
          "type": "uint256"
        }
      ],
      "name": "close",
      "outputs": [
        {
          "internalType": "bool",
          "name": "",
          "type": "bool"
        }
      ],
      "stateMutability": "nonpayable",
      "type": "function"
    },
    {
      "inputs": [
        {
          "internalType": "uint256",
          "name": "cdsId",
          "type": "uint256"
        }
      ],
      "name": "claim",
      "outputs": [
        {
          "internalType": "bool",
          "name": "",
          "type": "bool"
        }
      ],
      "stateMutability": "nonpayable",
      "type": "function"
    },
    {
      "inputs": [
        {
          "internalType": "uint256",
          "name": "cdsId",
          "type": "uint256"
        }
      ],
      "name": "expire",
      "outputs": [
        {
          "internalType": "bool",
          "name": "",
          "type": "bool"
        }
      ],
      "stateMutability": "nonpayable",
      "type": "function"
    },
    {
      "inputs": [
        {
          "internalType": "uint256",
          "name": "cdsId",
          "type": "uint256"
        }
      ],
      "name": "payPremium",
      "outputs": [
        {
          "internalType": "bool",
          "name": "",
          "type": "bool"
        }
      ],
      "stateMutability": "nonpayable",
      "type": "function"
    },
    {
      "inputs": [
        {
          "internalType": "uint256",
          "name": "cdsId",
          "type": "uint256"
        }
      ],
      "name": "payPremiumByDeposit",
      "outputs": [
        {
          "internalType": "bool",
          "name": "",
          "type": "bool"
        }
      ],
      "stateMutability": "nonpayable",
      "type": "function"
    }
  ],
  "bytecode": "0x60806040523480156200001157600080fd5b507344f818644e6bbc02e58c81b550d80611857233b5600460006101000a81548173ffffffffffffffffffffffffffffffffffffffff021916908373ffffffffffffffffffffffffffffffffffffffff160217905550620000876200007b6200008d60201b60201c565b6200009560201b60201c565b6200015b565b600033905090565b6000600660009054906101000a900473ffffffffffffffffffffffffffffffffffffffff16905081600660006101000a81548173ffffffffffffffffffffffffffffffffffffffff021916908373ffffffffffffffffffffffffffffffffffffffff1602179055508173ffffffffffffffffffffffffffffffffffffffff168173ffffffffffffffffffffffffffffffffffffffff167f8be0079c531659141344cd1fd0a4f28419497f9722a3daafe3b4186f6b6457e060405160405180910390a35050565b615726806200016b6000396000f3fe60806040523480156200001157600080fd5b50600436106200013c5760003560e01c8063715018a611620000bd578063d0e5d955116200007b578063d0e5d95514620003f7578063d6a9de511462000419578063dd618aba146200044f578063f2fde38b1462000485578063fc0c546a14620004a5576200013c565b8063715018a614620003275780637f5c4d4a14620003335780638a614dd514620003695780638da5cb5b146200039f578063bf81bf4314620003c1576200013c565b8063379607f5116200010b578063379607f5146200021957806340e58ee5146200024f5780634364b26e14620002855780635af8d21c14620002bb5780635bf608b814620002f1576200013c565b80630935847914620001415780630aebeb4e14620001775780632926ea2a14620001ad5780632bd4978014620001e3575b600080fd5b6200015f6004803603810190620001599190620026b4565b620004c7565b6040516200016e91906200270c565b60405180910390f35b6200019560048036038101906200018f919062002729565b62000646565b604051620001a4919062002778565b60405180910390f35b620001cb6004803603810190620001c5919062002729565b6200071e565b604051620001da919062002778565b60405180910390f35b620002016004803603810190620001fb9190620026b4565b620007f5565b6040516200021091906200270c565b60405180910390f35b62000237600480360381019062000231919062002729565b6200081e565b60405162000246919062002778565b60405180910390f35b6200026d600480360381019062000267919062002729565b620008fc565b6040516200027c919062002778565b60405180910390f35b620002a360048036038101906200029d919062002729565b62000a15565b604051620002b2919062002778565b60405180910390f35b620002d96004803603810190620002d3919062002729565b62000aec565b604051620002e8919062002820565b60405180910390f35b6200030f600480360381019062000309919062002729565b62000b29565b6040516200031e919062002862565b60405180910390f35b6200033162000bd7565b005b6200035160048036038101906200034b9190620028b0565b62000bef565b604051620003609190620029b0565b60405180910390f35b62000387600480360381019062000381919062002a46565b62000cbe565b6040516200039691906200270c565b60405180910390f35b620003a962000d52565b604051620003b8919062002862565b60405180910390f35b620003df6004803603810190620003d9919062002729565b62000d7c565b604051620003ee919062002778565b60405180910390f35b6200040162000dd7565b60405162000410919062002b3e565b60405180910390f35b62000437600480360381019062000431919062002729565b62000dfd565b60405162000446919062002862565b60405180910390f35b6200046d600480360381019062000467919062002729565b62000eab565b6040516200047c91906200270c565b60405180910390f35b620004a360048036038101906200049d9190620028b0565b62000ed0565b005b620004af62000f5a565b604051620004be919062002b80565b60405180910390f35b6000620004d48262000b29565b73ffffffffffffffffffffffffffffffffffffffff163373ffffffffffffffffffffffffffffffffffffffff1614158015620005465750620005168262000dfd565b73ffffffffffffffffffffffffffffffffffffffff163373ffffffffffffffffffffffffffffffffffffffff1614155b62000588576040517f08c379a00000000000000000000000000000000000000000000000000000000081526004016200057f9062002bfe565b60405180910390fd5b60008073ffffffffffffffffffffffffffffffffffffffff16620005ac8462000dfd565b73ffffffffffffffffffffffffffffffffffffffff16149050620005d281858562000f80565b620005df83821562001253565b50620005eb8362001542565b503373ffffffffffffffffffffffffffffffffffffffff167f68e07974e86f9190b39c5e1783e6ba66b3d0d7ccf507de51450f14e594d16868846040516200063491906200270c565b60405180910390a28291505092915050565b600081620006548162000b29565b73ffffffffffffffffffffffffffffffffffffffff163373ffffffffffffffffffffffffffffffffffffffff1614620006c4576040517f08c379a0000000000000000000000000000000000000000000000000000000008152600401620006bb9062002c70565b60405180910390fd5b620006cf8362001707565b620006da8362001776565b507fbf67515a38ee520223d32c1266d52101c30d936ed1f3e436c8caeb0a43cb06bf836040516200070c91906200270c565b60405180910390a16001915050919050565b6000816200072c8162000dfd565b73ffffffffffffffffffffffffffffffffffffffff163373ffffffffffffffffffffffffffffffffffffffff16146200079c576040517f08c379a0000000000000000000000000000000000000000000000000000000008152600401620007939062002ce2565b60405180910390fd5b620007a78362001974565b620007b283620019e3565b7f73fe46267e05ae56a3625c045df1b74c1b1736a7535eeadef3c57551bfd0059983604051620007e391906200270c565b60405180910390a16001915050919050565b600560205281600052604060002081600281106200081257600080fd5b01600091509150505481565b6000816200082c8162000b29565b73ffffffffffffffffffffffffffffffffffffffff163373ffffffffffffffffffffffffffffffffffffffff16146200089c576040517f08c379a0000000000000000000000000000000000000000000000000000000008152600401620008939062002c70565b60405180910390fd5b620008a78362001c11565b6000620008b48462001c80565b90507f022e3d29644ead4083349ca84d24bcac368b2461819b70f5921fea15de4dec4d8482604051620008e992919062002d04565b60405180910390a1600192505050919050565b6000816200090a8162000b29565b73ffffffffffffffffffffffffffffffffffffffff163373ffffffffffffffffffffffffffffffffffffffff1614806200097957506200094a8162000dfd565b73ffffffffffffffffffffffffffffffffffffffff163373ffffffffffffffffffffffffffffffffffffffff16145b620009bb576040517f08c379a0000000000000000000000000000000000000000000000000000000008152600401620009b29062002da7565b60405180910390fd5b620009c68362001f38565b620009d18362001776565b507f8bf30e7ff26833413be5f69e1d373744864d600b664204b4a2f9844a8eedb9ed8360405162000a0391906200270c565b60405180910390a16001915050919050565b60008162000a238162000b29565b73ffffffffffffffffffffffffffffffffffffffff163373ffffffffffffffffffffffffffffffffffffffff161462000a93576040517f08c379a000000000000000000000000000000000000000000000000000000000815260040162000a8a9062002c70565b60405180910390fd5b62000a9e8362001974565b62000aa98362001fa7565b7f73fe46267e05ae56a3625c045df1b74c1b1736a7535eeadef3c57551bfd005998360405162000ada91906200270c565b60405180910390a16001915050919050565b60006001600083815260200190815260200160002060009054906101000a900473ffffffffffffffffffffffffffffffffffffffff169050919050565b60006001600083815260200190815260200160002060009054906101000a900473ffffffffffffffffffffffffffffffffffffffff1673ffffffffffffffffffffffffffffffffffffffff1663603daf9a6040518163ffffffff1660e01b8152600401602060405180830381865afa15801562000baa573d6000803e3d6000fd5b505050506040513d601f19601f8201168201806040525081019062000bd0919062002de0565b9050919050565b62000be16200212e565b62000bed6000620021b3565b565b6060600260008373ffffffffffffffffffffffffffffffffffffffff1673ffffffffffffffffffffffffffffffffffffffff16815260200190815260200160002080548060200260200160405190810160405280929190818152602001828054801562000cb257602002820191906000526020600020905b8160009054906101000a900473ffffffffffffffffffffffffffffffffffffffff1673ffffffffffffffffffffffffffffffffffffffff168152602001906001019080831162000c67575b50505050509050919050565b60008062000cd38a8a8a8a8a8a8a8a62002279565b905062000ce1818b62001253565b503373ffffffffffffffffffffffffffffffffffffffff167f9eab9cfac223c6527657a8d86c920796a5ab5038bc0f4497038958ac33fa8f838b838662000d288662000aec565b60405162000d3a949392919062002e23565b60405180910390a28091505098975050505050505050565b6000600660009054906101000a900473ffffffffffffffffffffffffffffffffffffffff16905090565b600062000d8982620023b4565b62000d948262001776565b507fa33fd53ba34795ffefaea3759c71f87d38b89ae12e40bc434c826fae0ca535838260405162000dc691906200270c565b60405180910390a160019050919050565b62000de162002653565b6000604051806020016040529081600082015481525050905090565b60006001600083815260200190815260200160002060009054906101000a900473ffffffffffffffffffffffffffffffffffffffff1673ffffffffffffffffffffffffffffffffffffffff1663dbd0e1b66040518163ffffffff1660e01b8152600401602060405180830381865afa15801562000e7e573d6000803e3d6000fd5b505050506040513d601f19601f8201168201806040525081019062000ea4919062002de0565b9050919050565b6003818154811062000ebc57600080fd5b906000526020600020016000915090505481565b62000eda6200212e565b600073ffffffffffffffffffffffffffffffffffffffff168173ffffffffffffffffffffffffffffffffffffffff160362000f4c576040517f08c379a000000000000000000000000000000000000000000000000000000000815260040162000f439062002ee6565b60405180910390fd5b62000f5781620021b3565b50565b600460009054906101000a900473ffffffffffffffffffffffffffffffffffffffff1681565b60006001600083815260200190815260200160002060009054906101000a900473ffffffffffffffffffffffffffffffffffffffff1690508073ffffffffffffffffffffffffffffffffffffffff1663cbe972458433876040518463ffffffff1660e01b815260040162000ff79392919062002f08565b600060405180830381600087803b1580156200101257600080fd5b505af115801562001027573d6000803e3d6000fd5b50505050600260008273ffffffffffffffffffffffffffffffffffffffff1663603daf9a6040518163ffffffff1660e01b8152600401602060405180830381865afa1580156200107b573d6000803e3d6000fd5b505050506040513d601f19601f82011682018060405250810190620010a1919062002de0565b73ffffffffffffffffffffffffffffffffffffffff1673ffffffffffffffffffffffffffffffffffffffff168152602001908152602001600020819080600181540180825580915050600190039060005260206000200160009091909190916101000a81548173ffffffffffffffffffffffffffffffffffffffff021916908373ffffffffffffffffffffffffffffffffffffffff160217905550600260008273ffffffffffffffffffffffffffffffffffffffff1663dbd0e1b66040518163ffffffff1660e01b8152600401602060405180830381865afa1580156200118c573d6000803e3d6000fd5b505050506040513d601f19601f82011682018060405250810190620011b2919062002de0565b73ffffffffffffffffffffffffffffffffffffffff1673ffffffffffffffffffffffffffffffffffffffff168152602001908152602001600020819080600181540180825580915050600190039060005260206000200160009091909190916101000a81548173ffffffffffffffffffffffffffffffffffffffff021916908373ffffffffffffffffffffffffffffffffffffffff16021790555050505050565b6000808215620013d757620012ee60046200126e8662000aec565b73ffffffffffffffffffffffffffffffffffffffff1663e0a73a936040518163ffffffff1660e01b8152600401602060405180830381865afa158015620012b9573d6000803e3d6000fd5b505050506040513d601f19601f82011682018060405250810190620012df919062002f5c565b620025ba90919063ffffffff16565b9050600460009054906101000a900473ffffffffffffffffffffffffffffffffffffffff1673ffffffffffffffffffffffffffffffffffffffff166323b872dd620013398662000b29565b30846040518463ffffffff1660e01b81526004016200135b9392919062002f8e565b6020604051808303816000875af11580156200137b573d6000803e3d6000fd5b505050506040513d601f19601f82011682018060405250810190620013a1919062002fe2565b508060056000868152602001908152602001600020600060028110620013cc57620013cb62003014565b5b018190555062001537565b620013e28462000aec565b73ffffffffffffffffffffffffffffffffffffffff16634c1786ea6040518163ffffffff1660e01b8152600401602060405180830381865afa1580156200142d573d6000803e3d6000fd5b505050506040513d601f19601f8201168201806040525081019062001453919062002f5c565b9050600460009054906101000a900473ffffffffffffffffffffffffffffffffffffffff1673ffffffffffffffffffffffffffffffffffffffff166323b872dd6200149e8662000dfd565b30846040518463ffffffff1660e01b8152600401620014c09392919062002f8e565b6020604051808303816000875af1158015620014e0573d6000803e3d6000fd5b505050506040513d601f19601f8201168201806040525081019062001506919062002fe2565b50806005600086815260200190815260200160002060016002811062001531576200153062003014565b5b01819055505b600191505092915050565b600080620015508362000aec565b73ffffffffffffffffffffffffffffffffffffffff1663e0a73a936040518163ffffffff1660e01b8152600401602060405180830381865afa1580156200159b573d6000803e3d6000fd5b505050506040513d601f19601f82011682018060405250810190620015c1919062002f5c565b90506000600460009054906101000a900473ffffffffffffffffffffffffffffffffffffffff1673ffffffffffffffffffffffffffffffffffffffff1663a9059cbb6200160e8662000dfd565b846040518363ffffffff1660e01b81526004016200162e92919062003043565b6020604051808303816000875af11580156200164e573d6000803e3d6000fd5b505050506040513d601f19601f8201168201806040525081019062001674919062002fe2565b905080620016b9576040517f08c379a0000000000000000000000000000000000000000000000000000000008152600401620016b090620030c0565b60405180910390fd5b8160056000868152602001908152602001600020600060028110620016e357620016e262003014565b5b016000828254620016f5919062003111565b92505081905550600192505050919050565b620017128162000aec565b73ffffffffffffffffffffffffffffffffffffffff166343d726d66040518163ffffffff1660e01b8152600401600060405180830381600087803b1580156200175a57600080fd5b505af11580156200176f573d6000803e3d6000fd5b5050505050565b60008060405180604001604052806200178f8562000b29565b73ffffffffffffffffffffffffffffffffffffffff1673ffffffffffffffffffffffffffffffffffffffff168152602001620017cb8562000dfd565b73ffffffffffffffffffffffffffffffffffffffff1673ffffffffffffffffffffffffffffffffffffffff16815250905060005b600181116200195e57600060056000868152602001908152602001600020826002811062001832576200183162003014565b5b015490506000811462001947576000600460009054906101000a900473ffffffffffffffffffffffffffffffffffffffff1673ffffffffffffffffffffffffffffffffffffffff1663a9059cbb85856002811062001895576200189462003014565b5b6020020151846040518363ffffffff1660e01b8152600401620018ba92919062003043565b6020604051808303816000875af1158015620018da573d6000803e3d6000fd5b505050506040513d601f19601f8201168201806040525081019062001900919062002fe2565b90508062001945576040517f08c379a00000000000000000000000000000000000000000000000000000000081526004016200193c906200319c565b60405180910390fd5b505b5080806200195590620031be565b915050620017ff565b506200196a83620025d2565b6001915050919050565b6200197f8162000aec565b73ffffffffffffffffffffffffffffffffffffffff16635b6a251b6040518163ffffffff1660e01b8152600401600060405180830381600087803b158015620019c757600080fd5b505af1158015620019dc573d6000803e3d6000fd5b5050505050565b6000620019f08262000aec565b73ffffffffffffffffffffffffffffffffffffffff1663e0a73a936040518163ffffffff1660e01b8152600401602060405180830381865afa15801562001a3b573d6000803e3d6000fd5b505050506040513d601f19601f8201168201806040525081019062001a61919062002f5c565b9050806005600084815260200190815260200160002060006002811062001a8d5762001a8c62003014565b5b0154101562001ad3576040517f08c379a000000000000000000000000000000000000000000000000000000000815260040162001aca906200325b565b60405180910390fd5b6000600460009054906101000a900473ffffffffffffffffffffffffffffffffffffffff1673ffffffffffffffffffffffffffffffffffffffff1663a9059cbb62001b1e8562000dfd565b846040518363ffffffff1660e01b815260040162001b3e92919062003043565b6020604051808303816000875af115801562001b5e573d6000803e3d6000fd5b505050506040513d601f19601f8201168201806040525081019062001b84919062002fe2565b90508062001bc9576040517f08c379a000000000000000000000000000000000000000000000000000000000815260040162001bc090620032cd565b60405180910390fd5b816005600085815260200190815260200160002060006002811062001bf35762001bf262003014565b5b01600082825462001c05919062003111565b92505081905550505050565b62001c1c8162000aec565b73ffffffffffffffffffffffffffffffffffffffff16634e71d92d6040518163ffffffff1660e01b8152600401600060405180830381600087803b15801562001c6457600080fd5b505af115801562001c79573d6000803e3d6000fd5b5050505050565b60008062001c8e8362000aec565b73ffffffffffffffffffffffffffffffffffffffff1663f26cc58e6040518163ffffffff1660e01b8152600401602060405180830381865afa15801562001cd9573d6000803e3d6000fd5b505050506040513d601f19601f8201168201806040525081019062001cff919062002f5c565b90506000600460009054906101000a900473ffffffffffffffffffffffffffffffffffffffff1673ffffffffffffffffffffffffffffffffffffffff1663a9059cbb62001d4c8662000b29565b6005600088815260200190815260200160002060006002811062001d755762001d7462003014565b5b01548562001d849190620032ef565b6040518363ffffffff1660e01b815260040162001da392919062003043565b6020604051808303816000875af115801562001dc3573d6000803e3d6000fd5b505050506040513d601f19601f8201168201806040525081019062001de9919062002fe2565b90506000600460009054906101000a900473ffffffffffffffffffffffffffffffffffffffff1673ffffffffffffffffffffffffffffffffffffffff1663a9059cbb62001e368762000dfd565b85600560008a815260200190815260200160002060016002811062001e605762001e5f62003014565b5b015462001e6e919062003111565b6040518363ffffffff1660e01b815260040162001e8d92919062003043565b6020604051808303816000875af115801562001ead573d6000803e3d6000fd5b505050506040513d601f19601f8201168201806040525081019062001ed3919062002fe2565b905081801562001ee05750805b62001f22576040517f08c379a000000000000000000000000000000000000000000000000000000000815260040162001f19906200337a565b60405180910390fd5b62001f2d85620025d2565b829350505050919050565b62001f438162000aec565b73ffffffffffffffffffffffffffffffffffffffff1663ea8a1af06040518163ffffffff1660e01b8152600401600060405180830381600087803b15801562001f8b57600080fd5b505af115801562001fa0573d6000803e3d6000fd5b5050505050565b600062001fb48262000aec565b73ffffffffffffffffffffffffffffffffffffffff1663e0a73a936040518163ffffffff1660e01b8152600401602060405180830381865afa15801562001fff573d6000803e3d6000fd5b505050506040513d601f19601f8201168201806040525081019062002025919062002f5c565b90506000600460009054906101000a900473ffffffffffffffffffffffffffffffffffffffff1673ffffffffffffffffffffffffffffffffffffffff166323b872dd620020728562000b29565b6200207d8662000dfd565b856040518463ffffffff1660e01b81526004016200209e9392919062002f8e565b6020604051808303816000875af1158015620020be573d6000803e3d6000fd5b505050506040513d601f19601f82011682018060405250810190620020e4919062002fe2565b90508062002129576040517f08c379a00000000000000000000000000000000000000000000000000000000081526004016200212090620032cd565b60405180910390fd5b505050565b6200213862002627565b73ffffffffffffffffffffffffffffffffffffffff166200215862000d52565b73ffffffffffffffffffffffffffffffffffffffff1614620021b1576040517f08c379a0000000000000000000000000000000000000000000000000000000008152600401620021a890620033ec565b60405180910390fd5b565b6000600660009054906101000a900473ffffffffffffffffffffffffffffffffffffffff16905081600660006101000a81548173ffffffffffffffffffffffffffffffffffffffff021916908373ffffffffffffffffffffffffffffffffffffffff1602179055508173ffffffffffffffffffffffffffffffffffffffff168173ffffffffffffffffffffffffffffffffffffffff167f8be0079c531659141344cd1fd0a4f28419497f9722a3daafe3b4186f6b6457e060405160405180910390a35050565b60006200228760006200262f565b600062002295600062002645565b90506000898989888a8989604051620022ae9062002666565b620022c097969594939291906200340e565b604051809103906000f080158015620022dd573d6000803e3d6000fd5b509050806001600084815260200190815260200160002060006101000a81548173ffffffffffffffffffffffffffffffffffffffff021916908373ffffffffffffffffffffffffffffffffffffffff1602179055508073ffffffffffffffffffffffffffffffffffffffff1663bab215f8338d6040518363ffffffff1660e01b81526004016200236f9291906200348b565b600060405180830381600087803b1580156200238a57600080fd5b505af11580156200239f573d6000803e3d6000fd5b50505050819250505098975050505050505050565b80620023c08162000dfd565b73ffffffffffffffffffffffffffffffffffffffff163373ffffffffffffffffffffffffffffffffffffffff161462002430576040517f08c379a0000000000000000000000000000000000000000000000000000000008152600401620024279062002ce2565b60405180910390fd5b60006200243d8362000aec565b73ffffffffffffffffffffffffffffffffffffffff1663ffd0e69f6040518163ffffffff1660e01b8152600401602060405180830381865afa15801562002488573d6000803e3d6000fd5b505050506040513d601f19601f82011682018060405250810190620024ae919062002fe2565b905060008060056000868152602001908152602001600020600060028110620024dc57620024db62003014565b5b0154149050600060019050828015620024f25750805b80620025055750818015620025045750805b5b62002547576040517f08c379a00000000000000000000000000000000000000000000000000000000081526004016200253e9062003508565b60405180910390fd5b620025528562000aec565b73ffffffffffffffffffffffffffffffffffffffff166343d726d66040518163ffffffff1660e01b8152600401600060405180830381600087803b1580156200259a57600080fd5b505af1158015620025af573d6000803e3d6000fd5b505050505050505050565b60008183620025ca91906200352a565b905092915050565b60005b600181116200262357600060056000848152602001908152602001600020826002811062002608576200260762003014565b5b018190555080806200261a90620031be565b915050620025d5565b5050565b600033905090565b6001816000016000828254019250508190555050565b600081600001549050919050565b6040518060200160405280600081525090565b612165806200358c83390190565b600080fd5b6000819050919050565b6200268e8162002679565b81146200269a57600080fd5b50565b600081359050620026ae8162002683565b92915050565b60008060408385031215620026ce57620026cd62002674565b5b6000620026de858286016200269d565b9250506020620026f1858286016200269d565b9150509250929050565b620027068162002679565b82525050565b6000602082019050620027236000830184620026fb565b92915050565b60006020828403121562002742576200274162002674565b5b600062002752848285016200269d565b91505092915050565b60008115159050919050565b62002772816200275b565b82525050565b60006020820190506200278f600083018462002767565b92915050565b600073ffffffffffffffffffffffffffffffffffffffff82169050919050565b6000819050919050565b6000620027e0620027da620027d48462002795565b620027b5565b62002795565b9050919050565b6000620027f482620027bf565b9050919050565b60006200280882620027e7565b9050919050565b6200281a81620027fb565b82525050565b60006020820190506200283760008301846200280f565b92915050565b60006200284a8262002795565b9050919050565b6200285c816200283d565b82525050565b600060208201905062002879600083018462002851565b92915050565b6200288a816200283d565b81146200289657600080fd5b50565b600081359050620028aa816200287f565b92915050565b600060208284031215620028c957620028c862002674565b5b6000620028d98482850162002899565b91505092915050565b600081519050919050565b600082825260208201905092915050565b6000819050602082019050919050565b62002919816200283d565b82525050565b60006200292d83836200290e565b60208301905092915050565b6000602082019050919050565b60006200295382620028e2565b6200295f8185620028ed565b93506200296c83620028fe565b8060005b83811015620029a35781516200298788826200291f565b9750620029948362002939565b92505060018101905062002970565b5085935050505092915050565b60006020820190508181036000830152620029cc818462002946565b905092915050565b620029df816200275b565b8114620029eb57600080fd5b50565b600081359050620029ff81620029d4565b92915050565b600063ffffffff82169050919050565b62002a208162002a05565b811462002a2c57600080fd5b50565b60008135905062002a408162002a15565b92915050565b600080600080600080600080610100898b03121562002a6a5762002a6962002674565b5b600062002a7a8b828c01620029ee565b985050602062002a8d8b828c016200269d565b975050604062002aa08b828c016200269d565b965050606062002ab38b828c016200269d565b955050608062002ac68b828c016200269d565b94505060a062002ad98b828c016200269d565b93505060c062002aec8b828c0162002a2f565b92505060e062002aff8b828c0162002a2f565b9150509295985092959890939650565b62002b1a8162002679565b82525050565b60208201600082015162002b38600085018262002b0f565b50505050565b600060208201905062002b55600083018462002b20565b92915050565b600062002b6882620027e7565b9050919050565b62002b7a8162002b5b565b82525050565b600060208201905062002b97600083018462002b6f565b92915050565b600082825260208201905092915050565b7f54686520686f73742063616e206e6f742063616c6c20746865206d6574686f64600082015250565b600062002be660208362002b9d565b915062002bf38262002bae565b602082019050919050565b6000602082019050818103600083015262002c198162002bd7565b9050919050565b7f4f6e6c79206275796572206f6620746865204344532063616e2063616c6c0000600082015250565b600062002c58601e8362002b9d565b915062002c658262002c20565b602082019050919050565b6000602082019050818103600083015262002c8b8162002c49565b9050919050565b7f4f6e6c792073656c6c6572206f6620746865204344532063616e2063616c6c00600082015250565b600062002cca601f8362002b9d565b915062002cd78262002c92565b602082019050919050565b6000602082019050818103600083015262002cfd8162002cbb565b9050919050565b600060408201905062002d1b6000830185620026fb565b62002d2a6020830184620026fb565b9392505050565b7f4f6e6c792062757965722f73656c6c6572206f6620746865204344532063616e60008201527f2063616c6c000000000000000000000000000000000000000000000000000000602082015250565b600062002d8f60258362002b9d565b915062002d9c8262002d31565b604082019050919050565b6000602082019050818103600083015262002dc28162002d80565b9050919050565b60008151905062002dda816200287f565b92915050565b60006020828403121562002df95762002df862002674565b5b600062002e098482850162002dc9565b91505092915050565b62002e1d8162002a05565b82525050565b600060808201905062002e3a600083018762002767565b62002e496020830186620026fb565b62002e58604083018562002e12565b62002e67606083018462002851565b95945050505050565b7f4f776e61626c653a206e6577206f776e657220697320746865207a65726f206160008201527f6464726573730000000000000000000000000000000000000000000000000000602082015250565b600062002ece60268362002b9d565b915062002edb8262002e70565b604082019050919050565b6000602082019050818103600083015262002f018162002ebf565b9050919050565b600060608201905062002f1f6000830186620026fb565b62002f2e602083018562002851565b62002f3d604083018462002767565b949350505050565b60008151905062002f568162002683565b92915050565b60006020828403121562002f755762002f7462002674565b5b600062002f858482850162002f45565b91505092915050565b600060608201905062002fa5600083018662002851565b62002fb4602083018562002851565b62002fc36040830184620026fb565b949350505050565b60008151905062002fdc81620029d4565b92915050565b60006020828403121562002ffb5762002ffa62002674565b5b60006200300b8482850162002fcb565b91505092915050565b7f4e487b7100000000000000000000000000000000000000000000000000000000600052603260045260246000fd5b60006040820190506200305a600083018562002851565b620030696020830184620026fb565b9392505050565b7f53656e64696e67206669727374207072656d69756d206661696c656400000000600082015250565b6000620030a8601c8362002b9d565b9150620030b58262003070565b602082019050919050565b60006020820190508181036000830152620030db8162003099565b9050919050565b7f4e487b7100000000000000000000000000000000000000000000000000000000600052601160045260246000fd5b60006200311e8262002679565b91506200312b8362002679565b9250828203905081811115620031465762003145620030e2565b5b92915050565b7f53656e64696e67206465706f736974206261636b206661696c65640000000000600082015250565b600062003184601b8362002b9d565b915062003191826200314c565b602082019050919050565b60006020820190508181036000830152620031b78162003175565b9050919050565b6000620031cb8262002679565b91507fffffffffffffffffffffffffffffffffffffffffffffffffffffffffffffffff82036200320057620031ff620030e2565b5b600182019050919050565b7f4e6f7420656e6f756768206465706f7369740000000000000000000000000000600082015250565b60006200324360128362002b9d565b915062003250826200320b565b602082019050919050565b60006020820190508181036000830152620032768162003234565b9050919050565b7f53656e64696e67207072656d69756d206661696c656400000000000000000000600082015250565b6000620032b560168362002b9d565b9150620032c2826200327d565b602082019050919050565b60006020820190508181036000830152620032e881620032a6565b9050919050565b6000620032fc8262002679565b9150620033098362002679565b9250828201905080821115620033245762003323620030e2565b5b92915050565b7f53656e64696e6720726577617264206661696c65640000000000000000000000600082015250565b60006200336260158362002b9d565b91506200336f826200332a565b602082019050919050565b60006020820190508181036000830152620033958162003353565b9050919050565b7f4f776e61626c653a2063616c6c6572206973206e6f7420746865206f776e6572600082015250565b6000620033d460208362002b9d565b9150620033e1826200339c565b602082019050919050565b600060208201905081810360008301526200340781620033c5565b9050919050565b600060e08201905062003425600083018a620026fb565b620034346020830189620026fb565b620034436040830188620026fb565b620034526060830187620026fb565b620034616080830186620026fb565b6200347060a083018562002e12565b6200347f60c083018462002e12565b98975050505050505050565b6000604082019050620034a2600083018562002851565b620034b1602083018462002767565b9392505050565b7f4275796572206465706f736974202f20526f756e64732072656d61696e696e67600082015250565b6000620034f060208362002b9d565b9150620034fd82620034b8565b602082019050919050565b600060208201905081810360008301526200352381620034e1565b9050919050565b6000620035378262002679565b9150620035448362002679565b9250817fffffffffffffffffffffffffffffffffffffffffffffffffffffffffffffffff048311821515161562003580576200357f620030e2565b5b82820290509291505056fe60806040523480156200001157600080fd5b5060405162002165380380620021658339818101604052810190620000379190620003b0565b732abdf4a7ad585effcc16b61643e058130b1311b86200006c620000606200026360201b60201c565b6200026b60201b60201c565b80600160006101000a81548173ffffffffffffffffffffffffffffffffffffffff021916908373ffffffffffffffffffffffffffffffffffffffff16021790555050866003819055508560048190555084600581905550836006819055508260078190555081600a60146101000a81548163ffffffff021916908363ffffffff16021790555081600a60186101000a81548163ffffffff021916908363ffffffff16021790555060008163ffffffff1614806200012f575060018163ffffffff16145b8062000141575060028163ffffffff16145b62000183576040517f08c379a00000000000000000000000000000000000000000000000000000000081526004016200017a90620004c4565b60405180910390fd5b80600a601c6101000a81548163ffffffff021916908363ffffffff1602179055506000600960006101000a81548173ffffffffffffffffffffffffffffffffffffffff021916908373ffffffffffffffffffffffffffffffffffffffff1602179055506000600a60006101000a81548173ffffffffffffffffffffffffffffffffffffffff021916908373ffffffffffffffffffffffffffffffffffffffff1602179055506001600260146101000a81548160ff02191690836004811115620002515762000250620004e6565b5b02179055505050505050505062000515565b600033905090565b60008060009054906101000a900473ffffffffffffffffffffffffffffffffffffffff169050816000806101000a81548173ffffffffffffffffffffffffffffffffffffffff021916908373ffffffffffffffffffffffffffffffffffffffff1602179055508173ffffffffffffffffffffffffffffffffffffffff168173ffffffffffffffffffffffffffffffffffffffff167f8be0079c531659141344cd1fd0a4f28419497f9722a3daafe3b4186f6b6457e060405160405180910390a35050565b600080fd5b6000819050919050565b620003498162000334565b81146200035557600080fd5b50565b60008151905062000369816200033e565b92915050565b600063ffffffff82169050919050565b6200038a816200036f565b81146200039657600080fd5b50565b600081519050620003aa816200037f565b92915050565b600080600080600080600060e0888a031215620003d257620003d16200032f565b5b6000620003e28a828b0162000358565b9750506020620003f58a828b0162000358565b9650506040620004088a828b0162000358565b95505060606200041b8a828b0162000358565b94505060806200042e8a828b0162000358565b93505060a0620004418a828b0162000399565b92505060c0620004548a828b0162000399565b91505092959891949750929550565b600082825260208201905092915050565b7f4254433a302c204554483a312c204c494e4b3a32000000000000000000000000600082015250565b6000620004ac60148362000463565b9150620004b98262000474565b602082019050919050565b60006020820190508181036000830152620004df816200049d565b9050919050565b7f4e487b7100000000000000000000000000000000000000000000000000000000600052602160045260246000fd5b611c4080620005256000396000f3fe608060405234801561001057600080fd5b50600436106101da5760003560e01c8063b6fc2d5f11610104578063dbd0e1b6116100a2578063f26cc58e11610071578063f26cc58e146104cb578063f2fde38b146104e9578063fcb341df14610505578063ffd0e69f14610523576101da565b8063dbd0e1b614610455578063e0a73a9314610473578063e99d286614610491578063ea8a1af0146104c1576101da565b8063bef904e3116100de578063bef904e3146103bb578063cbe97245146103eb578063cbed244914610407578063d868379814610437576101da565b8063b6fc2d5f14610363578063bab215f814610381578063bd9a548b1461039d576101da565b8063603daf9a1161017c5780638a5682991161014b5780638a568299146102d95780638da5cb5b146102f7578063a2e800ad14610315578063a3f09ad614610333576101da565b8063603daf9a14610275578063715018a614610293578063839966af1461029d57806386be75b7146102bb576101da565b806343d726d6116101b857806343d726d6146102395780634c1786ea146102435780634e71d92d146102615780635b6a251b1461026b576101da565b806315d655c9146101df578063200d2ed2146101fd5780633fe3347a1461021b575b600080fd5b6101e7610541565b6040516101f49190611300565b60405180910390f35b610205610547565b6040516102129190611392565b60405180910390f35b61022361055a565b60405161023091906113cc565b60405180910390f35b610241610570565b005b61024b6105fb565b6040516102589190611300565b60405180910390f35b610269610601565b005b6102736106d6565b005b61027d6107f5565b60405161028a9190611428565b60405180910390f35b61029b61081f565b005b6102a5610833565b6040516102b2919061145e565b60405180910390f35b6102c36108b6565b6040516102d09190611300565b60405180910390f35b6102e16108bc565b6040516102ee91906113cc565b60405180910390f35b6102ff6108d2565b60405161030c9190611428565b60405180910390f35b61031d6108fb565b60405161032a91906113cc565b60405180910390f35b61034d600480360381019061034891906114aa565b610911565b60405161035a9190611428565b60405180910390f35b61036b610986565b6040516103789190611300565b60405180910390f35b61039b60048036038101906103969190611503565b61098c565b005b6103a56109b6565b6040516103b291906115ee565b60405180910390f35b6103d560048036038101906103d09190611635565b6109f4565b6040516103e29190611300565b60405180910390f35b61040560048036038101906104009190611662565b610a07565b005b610421600480360381019061041c91906116e1565b610aff565b60405161042e9190611300565b60405180910390f35b61043f610d3d565b60405161044c9190611300565b60405180910390f35b61045d610d43565b60405161046a9190611428565b60405180910390f35b61047b610d6d565b6040516104889190611300565b60405180910390f35b6104ab60048036038101906104a691906114aa565b610d73565b6040516104b89190611428565b60405180910390f35b6104c9610de8565b005b6104d3610e73565b6040516104e09190611300565b60405180910390f35b61050360048036038101906104fe91906114aa565b610ecb565b005b61050d610f4e565b60405161051a9190611300565b60405180910390f35b61052b610f70565b604051610538919061145e565b60405180910390f35b60045481565b600260149054906101000a900460ff1681565b600a601c9054906101000a900463ffffffff1681565b610578611009565b6002600481111561058c5761058b61131b565b5b600260149054906101000a900460ff1660048111156105ae576105ad61131b565b5b146105ee576040517f08c379a00000000000000000000000000000000000000000000000000000000081526004016105e590611791565b60405180910390fd5b6105f86004611087565b50565b60075481565b610609611009565b6002600481111561061d5761061c61131b565b5b600260149054906101000a900460ff16600481111561063f5761063e61131b565b5b1461067f576040517f08c379a000000000000000000000000000000000000000000000000000000000815260040161067690611791565b60405180910390fd5b6000610689610e73565b036106c9576040517f08c379a00000000000000000000000000000000000000000000000000000000081526004016106c090611823565b60405180910390fd5b6106d36003611087565b50565b6106de611009565b600260048111156106f2576106f161131b565b5b600260149054906101000a900460ff1660048111156107145761071361131b565b5b14610754576040517f08c379a000000000000000000000000000000000000000000000000000000000815260040161074b90611791565b60405180910390fd5b6000600a60149054906101000a900463ffffffff1663ffffffff16116107af576040517f08c379a00000000000000000000000000000000000000000000000000000000081526004016107a69061188f565b60405180910390fd5b6224ea00600860008282546107c491906118de565b925050819055506107f26001600a60149054906101000a900463ffffffff166107ed9190611912565b6110d2565b50565b6000600960009054906101000a900473ffffffffffffffffffffffffffffffffffffffff16905090565b610827611009565b6108316000611117565b565b6000600260048111156108495761084861131b565b5b600260149054906101000a900460ff16600481111561086b5761086a61131b565b5b146108ab576040517f08c379a00000000000000000000000000000000000000000000000000000000081526004016108a290611791565b60405180910390fd5b600854421015905090565b60035481565b600a60189054906101000a900463ffffffff1681565b60008060009054906101000a900473ffffffffffffffffffffffffffffffffffffffff16905090565b600a60149054906101000a900463ffffffff1681565b600061091b611009565b81600960006101000a81548173ffffffffffffffffffffffffffffffffffffffff021916908373ffffffffffffffffffffffffffffffffffffffff160217905550600960009054906101000a900473ffffffffffffffffffffffffffffffffffffffff169050919050565b60055481565b610994611009565b806109a7576109a282610d73565b6109b1565b6109b082610911565b5b505050565b6109be6112c5565b6040518060a001604052806003548152602001600454815260200160055481526020016006548152602001600754815250905090565b6000816003819055506003549050919050565b610a0f611009565b60016004811115610a2357610a2261131b565b5b600260149054906101000a900460ff166004811115610a4557610a4461131b565b5b14610a85576040517f08c379a0000000000000000000000000000000000000000000000000000000008152600401610a7c906119bc565b60405180910390fd5b610a8e836109f4565b50610a9a82821561098c565b610aa46002611087565b506224ea0042610ab491906118de565b6008819055506001600a60148282829054906101000a900463ffffffff16610adc9190611912565b92506101000a81548163ffffffff021916908363ffffffff160217905550505050565b60008060008363ffffffff1603610bbe57610bb76305f5e100600160009054906101000a900473ffffffffffffffffffffffffffffffffffffffff1673ffffffffffffffffffffffffffffffffffffffff1663a8ad52d16040518163ffffffff1660e01b8152600401602060405180830381865afa158015610b85573d6000803e3d6000fd5b505050506040513d601f19601f82011682018060405250810190610ba991906119f1565b6111db90919063ffffffff16565b9050610d34565b60018363ffffffff1603610c7a57610c736305f5e100600160009054906101000a900473ffffffffffffffffffffffffffffffffffffffff1673ffffffffffffffffffffffffffffffffffffffff1663ff186b2e6040518163ffffffff1660e01b8152600401602060405180830381865afa158015610c41573d6000803e3d6000fd5b505050506040513d601f19601f82011682018060405250810190610c6591906119f1565b6111db90919063ffffffff16565b9050610d33565b60028363ffffffff1603610d3257610d2f6305f5e100600160009054906101000a900473ffffffffffffffffffffffffffffffffffffffff1673ffffffffffffffffffffffffffffffffffffffff16630cf785356040518163ffffffff1660e01b8152600401602060405180830381865afa158015610cfd573d6000803e3d6000fd5b505050506040513d601f19601f82011682018060405250810190610d2191906119f1565b6111db90919063ffffffff16565b90505b5b5b80915050919050565b60085481565b6000600a60009054906101000a900473ffffffffffffffffffffffffffffffffffffffff16905090565b60065481565b6000610d7d611009565b81600a60006101000a81548173ffffffffffffffffffffffffffffffffffffffff021916908373ffffffffffffffffffffffffffffffffffffffff160217905550600a60009054906101000a900473ffffffffffffffffffffffffffffffffffffffff169050919050565b610df0611009565b60016004811115610e0457610e0361131b565b5b600260149054906101000a900460ff166004811115610e2657610e2561131b565b5b14610e66576040517f08c379a0000000000000000000000000000000000000000000000000000000008152600401610e5d906119bc565b60405180910390fd5b610e706000611087565b50565b600080610e91600a601c9054906101000a900463ffffffff16610aff565b9050806004541015610ea7576000915050610ec8565b610ec4600554600354836007546111f1909392919063ffffffff16565b9150505b90565b610ed3611009565b600073ffffffffffffffffffffffffffffffffffffffff168173ffffffffffffffffffffffffffffffffffffffff1603610f42576040517f08c379a0000000000000000000000000000000000000000000000000000000008152600401610f3990611a90565b60405180910390fd5b610f4b81611117565b50565b6000610f6b6005546007546003546112619092919063ffffffff16565b905090565b600060026004811115610f8657610f8561131b565b5b600260149054906101000a900460ff166004811115610fa857610fa761131b565b5b14610fe8576040517f08c379a0000000000000000000000000000000000000000000000000000000008152600401610fdf90611791565b60405180910390fd5b6000600a60149054906101000a900463ffffffff1663ffffffff1614905090565b611011611291565b73ffffffffffffffffffffffffffffffffffffffff1661102f6108d2565b73ffffffffffffffffffffffffffffffffffffffff1614611085576040517f08c379a000000000000000000000000000000000000000000000000000000000815260040161107c90611afc565b60405180910390fd5b565b6000611091611009565b81600260146101000a81548160ff021916908360048111156110b6576110b561131b565b5b0217905550600260149054906101000a900460ff169050919050565b60006110dc611009565b81600a60146101000a81548163ffffffff021916908363ffffffff160217905550600a60149054906101000a900463ffffffff169050919050565b60008060009054906101000a900473ffffffffffffffffffffffffffffffffffffffff169050816000806101000a81548173ffffffffffffffffffffffffffffffffffffffff021916908373ffffffffffffffffffffffffffffffffffffffff1602179055508173ffffffffffffffffffffffffffffffffffffffff168173ffffffffffffffffffffffffffffffffffffffff167f8be0079c531659141344cd1fd0a4f28419497f9722a3daafe3b4186f6b6457e060405160405180910390a35050565b600081836111e99190611b4b565b905092915050565b60008082851061120357859050611255565b600061122a61121b878761129990919063ffffffff16565b886111db90919063ffffffff16565b9050611251611242858761129990919063ffffffff16565b826112af90919063ffffffff16565b9150505b80915050949350505050565b6000611288611279848661129990919063ffffffff16565b836111db90919063ffffffff16565b90509392505050565b600033905090565b600081836112a79190611b7c565b905092915050565b600081836112bd9190611bb0565b905092915050565b6040518060a00160405280600590602082028036833780820191505090505090565b6000819050919050565b6112fa816112e7565b82525050565b600060208201905061131560008301846112f1565b92915050565b7f4e487b7100000000000000000000000000000000000000000000000000000000600052602160045260246000fd5b6005811061135b5761135a61131b565b5b50565b600081905061136c8261134a565b919050565b600061137c8261135e565b9050919050565b61138c81611371565b82525050565b60006020820190506113a76000830184611383565b92915050565b600063ffffffff82169050919050565b6113c6816113ad565b82525050565b60006020820190506113e160008301846113bd565b92915050565b600073ffffffffffffffffffffffffffffffffffffffff82169050919050565b6000611412826113e7565b9050919050565b61142281611407565b82525050565b600060208201905061143d6000830184611419565b92915050565b60008115159050919050565b61145881611443565b82525050565b6000602082019050611473600083018461144f565b92915050565b600080fd5b61148781611407565b811461149257600080fd5b50565b6000813590506114a48161147e565b92915050565b6000602082840312156114c0576114bf611479565b5b60006114ce84828501611495565b91505092915050565b6114e081611443565b81146114eb57600080fd5b50565b6000813590506114fd816114d7565b92915050565b6000806040838503121561151a57611519611479565b5b600061152885828601611495565b9250506020611539858286016114ee565b9150509250929050565b600060059050919050565b600081905092915050565b6000819050919050565b61156c816112e7565b82525050565b600061157e8383611563565b60208301905092915050565b6000602082019050919050565b6115a081611543565b6115aa818461154e565b92506115b582611559565b8060005b838110156115e65781516115cd8782611572565b96506115d88361158a565b9250506001810190506115b9565b505050505050565b600060a0820190506116036000830184611597565b92915050565b611612816112e7565b811461161d57600080fd5b50565b60008135905061162f81611609565b92915050565b60006020828403121561164b5761164a611479565b5b600061165984828501611620565b91505092915050565b60008060006060848603121561167b5761167a611479565b5b600061168986828701611620565b935050602061169a86828701611495565b92505060406116ab868287016114ee565b9150509250925092565b6116be816113ad565b81146116c957600080fd5b50565b6000813590506116db816116b5565b92915050565b6000602082840312156116f7576116f6611479565b5b6000611705848285016116cc565b91505092915050565b600082825260208201905092915050565b7f54686520737461747573206f6620746865204344532073686f756c642062652060008201527f6163746976650000000000000000000000000000000000000000000000000000602082015250565b600061177b60268361170e565b91506117868261171f565b604082019050919050565b600060208201905081810360008301526117aa8161176e565b9050919050565b7f43757272656e7420707269636520697320686967686572207468616e2074686560008201527f20636c61696d20707269636520696e2043445300000000000000000000000000602082015250565b600061180d60338361170e565b9150611818826117b1565b604082019050919050565b6000602082019050818103600083015261183c81611800565b9050919050565b7f526f756e6420616c726561647920656e64656400000000000000000000000000600082015250565b600061187960138361170e565b915061188482611843565b602082019050919050565b600060208201905081810360008301526118a88161186c565b9050919050565b7f4e487b7100000000000000000000000000000000000000000000000000000000600052601160045260246000fd5b60006118e9826112e7565b91506118f4836112e7565b925082820190508082111561190c5761190b6118af565b5b92915050565b600061191d826113ad565b9150611928836113ad565b9250828203905063ffffffff811115611944576119436118af565b5b92915050565b7f54686520737461747573206f6620746865204344532073686f756c642062652060008201527f70656e64696e6700000000000000000000000000000000000000000000000000602082015250565b60006119a660278361170e565b91506119b18261194a565b604082019050919050565b600060208201905081810360008301526119d581611999565b9050919050565b6000815190506119eb81611609565b92915050565b600060208284031215611a0757611a06611479565b5b6000611a15848285016119dc565b91505092915050565b7f4f776e61626c653a206e6577206f776e657220697320746865207a65726f206160008201527f6464726573730000000000000000000000000000000000000000000000000000602082015250565b6000611a7a60268361170e565b9150611a8582611a1e565b604082019050919050565b60006020820190508181036000830152611aa981611a6d565b9050919050565b7f4f776e61626c653a2063616c6c6572206973206e6f7420746865206f776e6572600082015250565b6000611ae660208361170e565b9150611af182611ab0565b602082019050919050565b60006020820190508181036000830152611b1581611ad9565b9050919050565b7f4e487b7100000000000000000000000000000000000000000000000000000000600052601260045260246000fd5b6000611b56826112e7565b9150611b61836112e7565b925082611b7157611b70611b1c565b5b828204905092915050565b6000611b87826112e7565b9150611b92836112e7565b9250828203905081811115611baa57611ba96118af565b5b92915050565b6000611bbb826112e7565b9150611bc6836112e7565b9250817fffffffffffffffffffffffffffffffffffffffffffffffffffffffffffffffff0483118215151615611bff57611bfe6118af565b5b82820290509291505056fea264697066735822122000b97d7dd19ab04861fe5c9188062e027e002a35d2065ad38c885f76ebc0c5ef64736f6c63430008100033a26469706673582212208d337e1df53914bbfcd169cba1d0b6bd4b75ade5e3f7a6d24ae4b1c5842e9a7a64736f6c63430008100033",
  "immutableReferences": {},
  "source": "// SPDX-License-Identifier: MIT\npragma solidity ^0.8.7;\n\nimport '@openzeppelin/contracts/access/Ownable.sol';\nimport './Handler/CDSBank.sol';\n\ninterface CDSInterface {\n  function create(\n    bool isBuyer,\n    uint256 initAssetPrice,\n    uint256 claimPrice,\n    uint256 liquidationPrice,\n    uint256 sellerDeposit,\n    uint256 premium,\n    uint32 totalRounds,\n    uint32 assetType\n  ) external returns (uint256);\n\n  function accept(\n    uint256 initAssetPrice,\n    uint256 cdsId\n  ) external returns (uint256);\n\n  function cancel(uint256 cdsId) external returns (bool);\n\n  function close(uint256 cdsId) external returns (bool);\n\n  function claim(uint256 cdsId) external returns (bool);\n\n  function expire(uint256 cdsId) external returns (bool);\n\n  function payPremium(uint256 cdsId) external returns (bool);\n\n  function payPremiumByDeposit(uint256 cdsId) external returns (bool);\n\n  event Create(\n    address indexed hostAddr,\n    bool isBuyer,\n    uint256 cdsId,\n    uint32 assetType,\n    address swap\n  );\n  event Accept(address indexed guestAddr, uint256 cdsId);\n  event Cancel(uint256 cdsId);\n  event Claim(uint256 cdsId, uint256 claimReward);\n  event Close(uint256 cdsId);\n  event Expire(uint256 cdsId);\n  event PayPremium(uint256 cdsId);\n}\n\ncontract CDSLounge is CDSBank, Ownable, CDSInterface {\n  // transactions\n  function create(\n    bool isBuyer,\n    uint256 initAssetPrice,\n    uint256 claimPrice,\n    uint256 liquidationPrice,\n    uint256 sellerDeposit,\n    uint256 premium,\n    uint32 totalRounds,\n    uint32 assetType\n  ) external override returns (uint256) {\n    // _sendDeposit(premium, sellerDeposit, isBuyer);\n    uint256 newCDSId = _create(\n      isBuyer,\n      initAssetPrice,\n      claimPrice,\n      liquidationPrice,\n      sellerDeposit,\n      premium,\n      totalRounds,\n      assetType\n    );\n    _sendDeposit(newCDSId, isBuyer);\n\n    emit Create(\n      msg.sender,\n      isBuyer,\n      newCDSId,\n      assetType,\n      address(getCDS(newCDSId))\n    );\n    return newCDSId;\n  }\n\n  function accept(\n    uint256 _initAssetPrice,\n    uint256 _cdsId\n  ) external override returns (uint256) {\n    require(\n      msg.sender != getBuyer(_cdsId) && msg.sender != getSeller(_cdsId),\n      'The host can not call the method'\n    );\n\n    bool isSeller = (getSeller(_cdsId) == address(0)); // true when seller is accepting \n    _accept(isSeller, _initAssetPrice, _cdsId);\n\n    _sendDeposit(_cdsId, !isSeller); // false when seller is accepting\n    _sendFirstPremium(_cdsId);\n\n    emit Accept(msg.sender, _cdsId);\n    return _cdsId;\n  }\n\n  function cancel(\n    uint256 cdsId\n  ) external override isParticipants(cdsId) returns (bool) {\n    _cancel(cdsId);\n    _endCDS(cdsId);\n    emit Cancel(cdsId);\n    return true;\n  }\n\n  function close(\n    uint256 cdsId\n  ) external override isBuyer(cdsId) returns (bool) {\n    _close(cdsId);\n    _endCDS(cdsId);\n    emit Close(cdsId);\n    return true;\n  }\n\n  function claim(\n    uint256 cdsId\n  ) external override isBuyer(cdsId) returns (bool) {\n    _claim(cdsId);\n    uint256 claimReward = _afterClaim(cdsId);\n    emit Claim(cdsId, claimReward);\n    return true;\n  }\n\n  function expire(uint256 cdsId) external override returns (bool) {\n    _expire(cdsId);\n    _endCDS(cdsId);\n    emit Expire(cdsId);\n    return true;\n  }\n\n  function payPremium(\n    uint256 cdsId\n  ) external override isBuyer(cdsId) returns (bool) {\n    _payPremium(cdsId);\n    _sendPremium(cdsId);\n    emit PayPremium(cdsId);\n    return true;\n  }\n\n  function payPremiumByDeposit(\n    uint256 cdsId\n  ) external override isSeller(cdsId) returns (bool) {\n    _payPremium(cdsId);\n    _sendPremiumByDeposit(cdsId);\n    emit PayPremium(cdsId);\n    return true;\n  }\n}\n\n// cds contract deposit   .\n// cdsLounge allowance from cds contract\n//   cds  cdsLounge  .\n\n// pending list =>     , offer . \n//  currId     ?\n\n//   .",
  "sourcePath": "/Users/yoonsoo/codestates/BEB-07-final-CDS/contract/contracts/CDSLounge.sol",
  "compiler": {
    "name": "solc",
    "version": "0.8.16+commit.07a7930e.Emscripten.clang"
  },
  "schemaVersion": "3.4.11",
  "updatedAt": "2023-03-22T09:00:20.978Z",
  "networkType": "ethereum",
  "devdoc": {
    "kind": "dev",
    "methods": {
      "owner()": {
        "details": "Returns the address of the current owner."
      },
      "renounceOwnership()": {
        "details": "Leaves the contract without owner. It will not be possible to call `onlyOwner` functions anymore. Can only be called by the current owner. NOTE: Renouncing ownership will leave the contract without an owner, thereby removing any functionality that is only available to the owner."
      },
      "transferOwnership(address)": {
        "details": "Transfers ownership of the contract to a new account (`newOwner`). Can only be called by the current owner."
      }
    },
    "version": 1
  },
  "userdoc": {
    "kind": "user",
    "methods": {},
    "version": 1
  }
}