{
  "contractName": "CDSLounge",
  "abi": [
    {
      "anonymous": false,
      "inputs": [
        {
          "indexed": true,
          "internalType": "address",
          "name": "guestAddr",
          "type": "address"
        },
        {
          "indexed": false,
          "internalType": "uint256",
          "name": "cdsId",
          "type": "uint256"
        }
      ],
      "name": "Accept",
      "type": "event"
    },
    {
      "anonymous": false,
      "inputs": [
        {
          "indexed": false,
          "internalType": "uint256",
          "name": "cdsId",
          "type": "uint256"
        }
      ],
      "name": "Cancel",
      "type": "event"
    },
    {
      "anonymous": false,
      "inputs": [
        {
          "indexed": false,
          "internalType": "uint256",
          "name": "cdsId",
          "type": "uint256"
        },
        {
          "indexed": false,
          "internalType": "uint256",
          "name": "claimReward",
          "type": "uint256"
        }
      ],
      "name": "Claim",
      "type": "event"
    },
    {
      "anonymous": false,
      "inputs": [
        {
          "indexed": false,
          "internalType": "uint256",
          "name": "cdsId",
          "type": "uint256"
        }
      ],
      "name": "Close",
      "type": "event"
    },
    {
      "anonymous": false,
      "inputs": [
        {
          "indexed": true,
          "internalType": "address",
          "name": "hostAddr",
          "type": "address"
        },
        {
          "indexed": false,
          "internalType": "bool",
          "name": "isBuyer",
          "type": "bool"
        },
        {
          "indexed": false,
          "internalType": "uint256",
          "name": "cdsId",
          "type": "uint256"
        },
        {
          "indexed": false,
          "internalType": "uint32",
          "name": "assetType",
          "type": "uint32"
        },
        {
          "indexed": false,
          "internalType": "address",
          "name": "swap",
          "type": "address"
        }
      ],
      "name": "Create",
      "type": "event"
    },
    {
      "anonymous": false,
      "inputs": [
        {
          "indexed": false,
          "internalType": "uint256",
          "name": "cdsId",
          "type": "uint256"
        }
      ],
      "name": "Expire",
      "type": "event"
    },
    {
      "anonymous": false,
      "inputs": [
        {
          "indexed": true,
          "internalType": "address",
          "name": "previousOwner",
          "type": "address"
        },
        {
          "indexed": true,
          "internalType": "address",
          "name": "newOwner",
          "type": "address"
        }
      ],
      "name": "OwnershipTransferred",
      "type": "event"
    },
    {
      "anonymous": false,
      "inputs": [
        {
          "indexed": false,
          "internalType": "uint256",
          "name": "cdsId",
          "type": "uint256"
        }
      ],
      "name": "PayPremium",
      "type": "event"
    },
    {
      "inputs": [
        {
          "internalType": "uint256",
          "name": "",
          "type": "uint256"
        },
        {
          "internalType": "uint256",
          "name": "",
          "type": "uint256"
        }
      ],
      "name": "deposits",
      "outputs": [
        {
          "internalType": "uint256",
          "name": "",
          "type": "uint256"
        }
      ],
      "stateMutability": "view",
      "type": "function"
    },
    {
      "inputs": [
        {
          "internalType": "uint256",
          "name": "cdsId",
          "type": "uint256"
        }
      ],
      "name": "getBuyer",
      "outputs": [
        {
          "internalType": "address",
          "name": "",
          "type": "address"
        }
      ],
      "stateMutability": "view",
      "type": "function"
    },
    {
      "inputs": [
        {
          "internalType": "uint256",
          "name": "cdsId",
          "type": "uint256"
        }
      ],
      "name": "getCDS",
      "outputs": [
        {
          "internalType": "contract CDS",
          "name": "",
          "type": "address"
        }
      ],
      "stateMutability": "view",
      "type": "function"
    },
    {
      "inputs": [],
      "name": "getCDSId",
      "outputs": [
        {
          "components": [
            {
              "internalType": "uint256",
              "name": "_value",
              "type": "uint256"
            }
          ],
          "internalType": "struct Counters.Counter",
          "name": "",
          "type": "tuple"
        }
      ],
      "stateMutability": "view",
      "type": "function"
    },
    {
      "inputs": [
        {
          "internalType": "uint256",
          "name": "cdsId",
          "type": "uint256"
        }
      ],
      "name": "getSeller",
      "outputs": [
        {
          "internalType": "address",
          "name": "",
          "type": "address"
        }
      ],
      "stateMutability": "view",
      "type": "function"
    },
    {
      "inputs": [
        {
          "internalType": "uint256",
          "name": "",
          "type": "uint256"
        }
      ],
      "name": "nextPayDate",
      "outputs": [
        {
          "internalType": "uint256",
          "name": "",
          "type": "uint256"
        }
      ],
      "stateMutability": "view",
      "type": "function"
    },
    {
      "inputs": [],
      "name": "owner",
      "outputs": [
        {
          "internalType": "address",
          "name": "",
          "type": "address"
        }
      ],
      "stateMutability": "view",
      "type": "function"
    },
    {
      "inputs": [],
      "name": "renounceOwnership",
      "outputs": [],
      "stateMutability": "nonpayable",
      "type": "function"
    },
    {
      "inputs": [],
      "name": "token",
      "outputs": [
        {
          "internalType": "contract IERC20",
          "name": "",
          "type": "address"
        }
      ],
      "stateMutability": "view",
      "type": "function"
    },
    {
      "inputs": [
        {
          "internalType": "address",
          "name": "newOwner",
          "type": "address"
        }
      ],
      "name": "transferOwnership",
      "outputs": [],
      "stateMutability": "nonpayable",
      "type": "function"
    },
    {
      "inputs": [
        {
          "internalType": "bool",
          "name": "isBuyer",
          "type": "bool"
        },
        {
          "internalType": "uint256",
          "name": "initAssetPrice",
          "type": "uint256"
        },
        {
          "internalType": "uint256",
          "name": "claimPrice",
          "type": "uint256"
        },
        {
          "internalType": "uint256",
          "name": "liquidationPrice",
          "type": "uint256"
        },
        {
          "internalType": "uint256",
          "name": "sellerDeposit",
          "type": "uint256"
        },
        {
          "internalType": "uint256",
          "name": "premium",
          "type": "uint256"
        },
        {
          "internalType": "uint32",
          "name": "totalRounds",
          "type": "uint32"
        },
        {
          "internalType": "uint32",
          "name": "assetType",
          "type": "uint32"
        }
      ],
      "name": "create",
      "outputs": [
        {
          "internalType": "uint256",
          "name": "",
          "type": "uint256"
        }
      ],
      "stateMutability": "nonpayable",
      "type": "function"
    },
    {
      "inputs": [
        {
          "internalType": "uint256",
          "name": "initAssetPrice",
          "type": "uint256"
        },
        {
          "internalType": "uint256",
          "name": "cdsId",
          "type": "uint256"
        }
      ],
      "name": "accept",
      "outputs": [
        {
          "internalType": "uint256",
          "name": "",
          "type": "uint256"
        }
      ],
      "stateMutability": "nonpayable",
      "type": "function"
    },
    {
      "inputs": [
        {
          "internalType": "uint256",
          "name": "cdsId",
          "type": "uint256"
        }
      ],
      "name": "cancel",
      "outputs": [
        {
          "internalType": "bool",
          "name": "",
          "type": "bool"
        }
      ],
      "stateMutability": "nonpayable",
      "type": "function"
    },
    {
      "inputs": [
        {
          "internalType": "uint256",
          "name": "cdsId",
          "type": "uint256"
        }
      ],
      "name": "close",
      "outputs": [
        {
          "internalType": "bool",
          "name": "",
          "type": "bool"
        }
      ],
      "stateMutability": "nonpayable",
      "type": "function"
    },
    {
      "inputs": [
        {
          "internalType": "uint256",
          "name": "cdsId",
          "type": "uint256"
        }
      ],
      "name": "claim",
      "outputs": [
        {
          "internalType": "bool",
          "name": "",
          "type": "bool"
        }
      ],
      "stateMutability": "nonpayable",
      "type": "function"
    },
    {
      "inputs": [
        {
          "internalType": "uint256",
          "name": "cdsId",
          "type": "uint256"
        }
      ],
      "name": "expire",
      "outputs": [
        {
          "internalType": "bool",
          "name": "",
          "type": "bool"
        }
      ],
      "stateMutability": "nonpayable",
      "type": "function"
    },
    {
      "inputs": [
        {
          "internalType": "uint256",
          "name": "cdsId",
          "type": "uint256"
        }
      ],
      "name": "payPremium",
      "outputs": [
        {
          "internalType": "bool",
          "name": "",
          "type": "bool"
        }
      ],
      "stateMutability": "nonpayable",
      "type": "function"
    },
    {
      "inputs": [
        {
          "internalType": "uint256",
          "name": "cdsId",
          "type": "uint256"
        }
      ],
      "name": "payPremiumByDeposit",
      "outputs": [
        {
          "internalType": "bool",
          "name": "",
          "type": "bool"
        }
      ],
      "stateMutability": "nonpayable",
      "type": "function"
    },
    {
      "inputs": [
        {
          "internalType": "uint256",
          "name": "amount",
          "type": "uint256"
        }
      ],
      "name": "withdraw",
      "outputs": [
        {
          "internalType": "bool",
          "name": "",
          "type": "bool"
        }
      ],
      "stateMutability": "nonpayable",
      "type": "function"
    }
  ],
  "bytecode": "0x60806040523480156200001157600080fd5b5073a00468018e73518b20e3fae31fc6cc915a15eaa2600360006101000a81548173ffffffffffffffffffffffffffffffffffffffff021916908373ffffffffffffffffffffffffffffffffffffffff160217905550620000876200007b6200008d60201b60201c565b6200009560201b60201c565b6200015b565b600033905090565b6000600560009054906101000a900473ffffffffffffffffffffffffffffffffffffffff16905081600560006101000a81548173ffffffffffffffffffffffffffffffffffffffff021916908373ffffffffffffffffffffffffffffffffffffffff1602179055508173ffffffffffffffffffffffffffffffffffffffff168173ffffffffffffffffffffffffffffffffffffffff167f8be0079c531659141344cd1fd0a4f28419497f9722a3daafe3b4186f6b6457e060405160405180910390a35050565b615b3c806200016b6000396000f3fe60806040523480156200001157600080fd5b50600436106200013c5760003560e01c80635af8d21c11620000bd578063bf81bf43116200007b578063bf81bf4314620003f7578063d0e5d955146200042d578063d6a9de51146200044f578063f2fde38b1462000485578063fc0c546a14620004a5576200013c565b80635af8d21c14620003275780635bf608b8146200035d578063715018a614620003935780638a614dd5146200039f5780638da5cb5b14620003d5576200013c565b80632e1a7d4d116200010b5780632e1a7d4d1462000219578063379607f5146200024f57806340e58ee514620002855780634364b26e14620002bb57806344a9d24414620002f1576200013c565b80630935847914620001415780630aebeb4e14620001775780632926ea2a14620001ad5780632bd4978014620001e3575b600080fd5b6200015f600480360381019062000159919062002f75565b620004c7565b6040516200016e919062002fcd565b60405180910390f35b6200019560048036038101906200018f919062002fea565b6200064b565b604051620001a4919062003039565b60405180910390f35b620001cb6004803603810190620001c5919062002fea565b62000723565b604051620001da919062003039565b60405180910390f35b620002016004803603810190620001fb919062002f75565b62000787565b60405162000210919062002fcd565b60405180910390f35b62000237600480360381019062000231919062002fea565b620007b0565b60405162000246919062003039565b60405180910390f35b6200026d600480360381019062000267919062002fea565b62000874565b6040516200027c919062003039565b60405180910390f35b620002a360048036038101906200029d919062002fea565b62000a13565b604051620002b2919062003039565b60405180910390f35b620002d96004803603810190620002d3919062002fea565b62000b2c565b604051620002e8919062003039565b60405180910390f35b6200030f600480360381019062000309919062002fea565b62000c03565b6040516200031e919062002fcd565b60405180910390f35b6200034560048036038101906200033f919062002fea565b62000c1b565b604051620003549190620030e1565b60405180910390f35b6200037b600480360381019062000375919062002fea565b62000c58565b6040516200038a919062003123565b60405180910390f35b6200039d62000d06565b005b620003bd6004803603810190620003b79190620031b2565b62000d1e565b604051620003cc919062002fcd565b60405180910390f35b620003df62000db2565b604051620003ee919062003123565b60405180910390f35b6200041560048036038101906200040f919062002fea565b62000ddc565b60405162000424919062003039565b60405180910390f35b6200043762000e37565b604051620004469190620032aa565b60405180910390f35b6200046d600480360381019062000467919062002fea565b62000e5d565b6040516200047c919062003123565b60405180910390f35b620004a360048036038101906200049d9190620032f8565b62000f0b565b005b620004af62000f95565b604051620004be91906200334f565b60405180910390f35b6000620004d48262000c58565b73ffffffffffffffffffffffffffffffffffffffff163373ffffffffffffffffffffffffffffffffffffffff1614158015620005465750620005168262000e5d565b73ffffffffffffffffffffffffffffffffffffffff163373ffffffffffffffffffffffffffffffffffffffff1614155b62000588576040517f08c379a00000000000000000000000000000000000000000000000000000000081526004016200057f90620033cd565b60405180910390fd5b60008073ffffffffffffffffffffffffffffffffffffffff16620005ac8462000e5d565b73ffffffffffffffffffffffffffffffffffffffff161490506000620005d482868662000fbb565b9050620005e3848315620012b5565b50620005ef84620015a4565b503373ffffffffffffffffffffffffffffffffffffffff167f68e07974e86f9190b39c5e1783e6ba66b3d0d7ccf507de51450f14e594d168688260405162000638919062002fcd565b60405180910390a2809250505092915050565b600081620006598162000c58565b73ffffffffffffffffffffffffffffffffffffffff163373ffffffffffffffffffffffffffffffffffffffff1614620006c9576040517f08c379a0000000000000000000000000000000000000000000000000000000008152600401620006c0906200343f565b60405180910390fd5b620006d48362001884565b620006df8362001a2a565b507fbf67515a38ee520223d32c1266d52101c30d936ed1f3e436c8caeb0a43cb06bf8360405162000711919062002fcd565b60405180910390a16001915050919050565b60006200072f62001c28565b6200073a8262001cad565b620007458262001f85565b7f73fe46267e05ae56a3625c045df1b74c1b1736a7535eeadef3c57551bfd005998260405162000776919062002fcd565b60405180910390a160019050919050565b60046020528160005260406000208160028110620007a457600080fd5b01600091509150505481565b6000620007bc62001c28565b600360009054906101000a900473ffffffffffffffffffffffffffffffffffffffff1673ffffffffffffffffffffffffffffffffffffffff1663a9059cbb6200080462000db2565b846040518363ffffffff1660e01b81526004016200082492919062003461565b6020604051808303816000875af115801562000844573d6000803e3d6000fd5b505050506040513d601f19601f820116820180604052508101906200086a9190620034a5565b5060019050919050565b600081620008828162000c58565b73ffffffffffffffffffffffffffffffffffffffff163373ffffffffffffffffffffffffffffffffffffffff1614620008f2576040517f08c379a0000000000000000000000000000000000000000000000000000000008152600401620008e9906200343f565b60405180910390fd5b6000620008ff8462000c1b565b73ffffffffffffffffffffffffffffffffffffffff1663f26cc58e6040518163ffffffff1660e01b8152600401602060405180830381865afa1580156200094a573d6000803e3d6000fd5b505050506040513d601f19601f82011682018060405250810190620009709190620034ee565b03620009b3576040517f08c379a0000000000000000000000000000000000000000000000000000000008152600401620009aa9062003596565b60405180910390fd5b620009be83620021b9565b6000620009cb846200235f565b90507f022e3d29644ead4083349ca84d24bcac368b2461819b70f5921fea15de4dec4d848260405162000a00929190620035b8565b60405180910390a1600192505050919050565b60008162000a218162000c58565b73ffffffffffffffffffffffffffffffffffffffff163373ffffffffffffffffffffffffffffffffffffffff16148062000a90575062000a618162000e5d565b73ffffffffffffffffffffffffffffffffffffffff163373ffffffffffffffffffffffffffffffffffffffff16145b62000ad2576040517f08c379a000000000000000000000000000000000000000000000000000000000815260040162000ac9906200365b565b60405180910390fd5b62000add8362002617565b62000ae88362001a2a565b507f8bf30e7ff26833413be5f69e1d373744864d600b664204b4a2f9844a8eedb9ed8360405162000b1a919062002fcd565b60405180910390a16001915050919050565b60008162000b3a8162000c58565b73ffffffffffffffffffffffffffffffffffffffff163373ffffffffffffffffffffffffffffffffffffffff161462000baa576040517f08c379a000000000000000000000000000000000000000000000000000000000815260040162000ba1906200343f565b60405180910390fd5b62000bb58362001cad565b62000bc083620027bd565b7f73fe46267e05ae56a3625c045df1b74c1b1736a7535eeadef3c57551bfd005998360405162000bf1919062002fcd565b60405180910390a16001915050919050565b60026020528060005260406000206000915090505481565b60006001600083815260200190815260200160002060009054906101000a900473ffffffffffffffffffffffffffffffffffffffff169050919050565b60006001600083815260200190815260200160002060009054906101000a900473ffffffffffffffffffffffffffffffffffffffff1673ffffffffffffffffffffffffffffffffffffffff1663603daf9a6040518163ffffffff1660e01b8152600401602060405180830381865afa15801562000cd9573d6000803e3d6000fd5b505050506040513d601f19601f8201168201806040525081019062000cff919062003694565b9050919050565b62000d1062001c28565b62000d1c60006200294a565b565b60008062000d338a8a8a8a8a8a8a8a62002a10565b905062000d41818b620012b5565b503373ffffffffffffffffffffffffffffffffffffffff167f9eab9cfac223c6527657a8d86c920796a5ab5038bc0f4497038958ac33fa8f838b838662000d888662000c1b565b60405162000d9a9493929190620036d7565b60405180910390a28091505098975050505050505050565b6000600560009054906101000a900473ffffffffffffffffffffffffffffffffffffffff16905090565b600062000de98262002b4b565b62000df48262001a2a565b507fa33fd53ba34795ffefaea3759c71f87d38b89ae12e40bc434c826fae0ca535838260405162000e26919062002fcd565b60405180910390a160019050919050565b62000e4162002f14565b6000604051806020016040529081600082015481525050905090565b60006001600083815260200190815260200160002060009054906101000a900473ffffffffffffffffffffffffffffffffffffffff1673ffffffffffffffffffffffffffffffffffffffff1663dbd0e1b66040518163ffffffff1660e01b8152600401602060405180830381865afa15801562000ede573d6000803e3d6000fd5b505050506040513d601f19601f8201168201806040525081019062000f04919062003694565b9050919050565b62000f1562001c28565b600073ffffffffffffffffffffffffffffffffffffffff168173ffffffffffffffffffffffffffffffffffffffff160362000f87576040517f08c379a000000000000000000000000000000000000000000000000000000000815260040162000f7e906200379a565b60405180910390fd5b62000f92816200294a565b50565b600360009054906101000a900473ffffffffffffffffffffffffffffffffffffffff1681565b6000816001600481111562000fd55762000fd4620037bc565b5b6001600083815260200190815260200160002060009054906101000a900473ffffffffffffffffffffffffffffffffffffffff1673ffffffffffffffffffffffffffffffffffffffff1663200d2ed26040518163ffffffff1660e01b8152600401602060405180830381865afa15801562001054573d6000803e3d6000fd5b505050506040513d601f19601f820116820180604052508101906200107a919062003813565b60048111156200108f576200108e620037bc565b5b14620010d2576040517f08c379a0000000000000000000000000000000000000000000000000000000008152600401620010c990620038bb565b60405180910390fd5b60006001600085815260200190815260200160002060009054906101000a900473ffffffffffffffffffffffffffffffffffffffff1690508073ffffffffffffffffffffffffffffffffffffffff1663bef904e3866040518263ffffffff1660e01b815260040162001145919062002fcd565b6020604051808303816000875af115801562001165573d6000803e3d6000fd5b505050506040513d601f19601f820116820180604052508101906200118b9190620034ee565b506224ea00426200119d91906200390c565b60026000868152602001908152602001600020819055508073ffffffffffffffffffffffffffffffffffffffff1663bab215f83388156040518363ffffffff1660e01b8152600401620011f292919062003947565b600060405180830381600087803b1580156200120d57600080fd5b505af115801562001222573d6000803e3d6000fd5b505050508073ffffffffffffffffffffffffffffffffffffffff16632e49d78b60026040518263ffffffff1660e01b8152600401620012629190620039c5565b6020604051808303816000875af115801562001282573d6000803e3d6000fd5b505050506040513d601f19601f82011682018060405250810190620012a8919062003813565b5083925050509392505050565b60008082156200143957620013506004620012d08662000c1b565b73ffffffffffffffffffffffffffffffffffffffff1663e0a73a936040518163ffffffff1660e01b8152600401602060405180830381865afa1580156200131b573d6000803e3d6000fd5b505050506040513d601f19601f82011682018060405250810190620013419190620034ee565b62002e7b90919063ffffffff16565b9050600360009054906101000a900473ffffffffffffffffffffffffffffffffffffffff1673ffffffffffffffffffffffffffffffffffffffff166323b872dd6200139b8662000c58565b30846040518463ffffffff1660e01b8152600401620013bd93929190620039e2565b6020604051808303816000875af1158015620013dd573d6000803e3d6000fd5b505050506040513d601f19601f82011682018060405250810190620014039190620034a5565b5080600460008681526020019081526020016000206000600281106200142e576200142d62003a1f565b5b018190555062001599565b620014448462000c1b565b73ffffffffffffffffffffffffffffffffffffffff16634c1786ea6040518163ffffffff1660e01b8152600401602060405180830381865afa1580156200148f573d6000803e3d6000fd5b505050506040513d601f19601f82011682018060405250810190620014b59190620034ee565b9050600360009054906101000a900473ffffffffffffffffffffffffffffffffffffffff1673ffffffffffffffffffffffffffffffffffffffff166323b872dd620015008662000e5d565b30846040518463ffffffff1660e01b81526004016200152293929190620039e2565b6020604051808303816000875af115801562001542573d6000803e3d6000fd5b505050506040513d601f19601f82011682018060405250810190620015689190620034a5565b50806004600086815260200190815260200160002060016002811062001593576200159262003a1f565b5b01819055505b600191505092915050565b600080620015b28362000c1b565b73ffffffffffffffffffffffffffffffffffffffff1663e0a73a936040518163ffffffff1660e01b8152600401602060405180830381865afa158015620015fd573d6000803e3d6000fd5b505050506040513d601f19601f82011682018060405250810190620016239190620034ee565b90506000600360009054906101000a900473ffffffffffffffffffffffffffffffffffffffff1673ffffffffffffffffffffffffffffffffffffffff1663a9059cbb620016708662000e5d565b846040518363ffffffff1660e01b81526004016200169092919062003461565b6020604051808303816000875af1158015620016b0573d6000803e3d6000fd5b505050506040513d601f19601f82011682018060405250810190620016d69190620034a5565b9050806200171b576040517f08c379a0000000000000000000000000000000000000000000000000000000008152600401620017129062003a9e565b60405180910390fd5b816004600086815260200190815260200160002060006002811062001745576200174462003a1f565b5b01600082825462001757919062003ac0565b9250508190555060006200176b8562000c1b565b73ffffffffffffffffffffffffffffffffffffffff1663a2e800ad6040518163ffffffff1660e01b8152600401602060405180830381865afa158015620017b6573d6000803e3d6000fd5b505050506040513d601f19601f82011682018060405250810190620017dc919062003b12565b9050620017e98562000c1b565b73ffffffffffffffffffffffffffffffffffffffff1663d2895e9360018362001813919062003b44565b6040518263ffffffff1660e01b815260040162001831919062003b83565b6020604051808303816000875af115801562001851573d6000803e3d6000fd5b505050506040513d601f19601f8201168201806040525081019062001877919062003b12565b5060019350505050919050565b80600260048111156200189c576200189b620037bc565b5b6001600083815260200190815260200160002060009054906101000a900473ffffffffffffffffffffffffffffffffffffffff1673ffffffffffffffffffffffffffffffffffffffff1663200d2ed26040518163ffffffff1660e01b8152600401602060405180830381865afa1580156200191b573d6000803e3d6000fd5b505050506040513d601f19601f8201168201806040525081019062001941919062003813565b6004811115620019565762001955620037bc565b5b1462001999576040517f08c379a0000000000000000000000000000000000000000000000000000000008152600401620019909062003c16565b60405180910390fd5b620019a48262000c1b565b73ffffffffffffffffffffffffffffffffffffffff16632e49d78b60046040518263ffffffff1660e01b8152600401620019df9190620039c5565b6020604051808303816000875af1158015620019ff573d6000803e3d6000fd5b505050506040513d601f19601f8201168201806040525081019062001a25919062003813565b505050565b600080604051806040016040528062001a438562000c58565b73ffffffffffffffffffffffffffffffffffffffff1673ffffffffffffffffffffffffffffffffffffffff16815260200162001a7f8562000e5d565b73ffffffffffffffffffffffffffffffffffffffff1673ffffffffffffffffffffffffffffffffffffffff16815250905060005b6001811162001c1257600060046000868152602001908152602001600020826002811062001ae65762001ae562003a1f565b5b015490506000811462001bfb576000600360009054906101000a900473ffffffffffffffffffffffffffffffffffffffff1673ffffffffffffffffffffffffffffffffffffffff1663a9059cbb85856002811062001b495762001b4862003a1f565b5b6020020151846040518363ffffffff1660e01b815260040162001b6e92919062003461565b6020604051808303816000875af115801562001b8e573d6000803e3d6000fd5b505050506040513d601f19601f8201168201806040525081019062001bb49190620034a5565b90508062001bf9576040517f08c379a000000000000000000000000000000000000000000000000000000000815260040162001bf09062003c88565b60405180910390fd5b505b50808062001c099062003caa565b91505062001ab3565b5062001c1e8362002e93565b6001915050919050565b62001c3262002ee8565b73ffffffffffffffffffffffffffffffffffffffff1662001c5262000db2565b73ffffffffffffffffffffffffffffffffffffffff161462001cab576040517f08c379a000000000000000000000000000000000000000000000000000000000815260040162001ca29062003d47565b60405180910390fd5b565b806002600481111562001cc55762001cc4620037bc565b5b6001600083815260200190815260200160002060009054906101000a900473ffffffffffffffffffffffffffffffffffffffff1673ffffffffffffffffffffffffffffffffffffffff1663200d2ed26040518163ffffffff1660e01b8152600401602060405180830381865afa15801562001d44573d6000803e3d6000fd5b505050506040513d601f19601f8201168201806040525081019062001d6a919062003813565b600481111562001d7f5762001d7e620037bc565b5b1462001dc2576040517f08c379a000000000000000000000000000000000000000000000000000000000815260040162001db99062003c16565b60405180910390fd5b60006001600084815260200190815260200160002060009054906101000a900473ffffffffffffffffffffffffffffffffffffffff1673ffffffffffffffffffffffffffffffffffffffff1663a2e800ad6040518163ffffffff1660e01b8152600401602060405180830381865afa15801562001e43573d6000803e3d6000fd5b505050506040513d601f19601f8201168201806040525081019062001e69919062003b12565b905060008163ffffffff161162001eb7576040517f08c379a000000000000000000000000000000000000000000000000000000000815260040162001eae9062003db9565b60405180910390fd5b6224ea0060026000858152602001908152602001600020600082825462001edf91906200390c565b9250508190555062001ef18362000c1b565b73ffffffffffffffffffffffffffffffffffffffff1663d2895e9360018362001f1b919062003b44565b6040518263ffffffff1660e01b815260040162001f39919062003b83565b6020604051808303816000875af115801562001f59573d6000803e3d6000fd5b505050506040513d601f19601f8201168201806040525081019062001f7f919062003b12565b50505050565b6000429050600062001f978362000c1b565b73ffffffffffffffffffffffffffffffffffffffff1663e0a73a936040518163ffffffff1660e01b8152600401602060405180830381865afa15801562001fe2573d6000803e3d6000fd5b505050506040513d601f19601f82011682018060405250810190620020089190620034ee565b9050806004600085815260200190815260200160002060006002811062002034576200203362003a1f565b5b015410156200207a576040517f08c379a0000000000000000000000000000000000000000000000000000000008152600401620020719062003e2b565b60405180910390fd5b6000600360009054906101000a900473ffffffffffffffffffffffffffffffffffffffff1673ffffffffffffffffffffffffffffffffffffffff1663a9059cbb620020c58662000e5d565b846040518363ffffffff1660e01b8152600401620020e592919062003461565b6020604051808303816000875af115801562002105573d6000803e3d6000fd5b505050506040513d601f19601f820116820180604052508101906200212b9190620034a5565b90508062002170576040517f08c379a0000000000000000000000000000000000000000000000000000000008152600401620021679062003e9d565b60405180910390fd5b81600460008681526020019081526020016000206000600281106200219a576200219962003a1f565b5b016000828254620021ac919062003ac0565b9250508190555050505050565b8060026004811115620021d157620021d0620037bc565b5b6001600083815260200190815260200160002060009054906101000a900473ffffffffffffffffffffffffffffffffffffffff1673ffffffffffffffffffffffffffffffffffffffff1663200d2ed26040518163ffffffff1660e01b8152600401602060405180830381865afa15801562002250573d6000803e3d6000fd5b505050506040513d601f19601f8201168201806040525081019062002276919062003813565b60048111156200228b576200228a620037bc565b5b14620022ce576040517f08c379a0000000000000000000000000000000000000000000000000000000008152600401620022c59062003c16565b60405180910390fd5b620022d98262000c1b565b73ffffffffffffffffffffffffffffffffffffffff16632e49d78b60036040518263ffffffff1660e01b8152600401620023149190620039c5565b6020604051808303816000875af115801562002334573d6000803e3d6000fd5b505050506040513d601f19601f820116820180604052508101906200235a919062003813565b505050565b6000806200236d8362000c1b565b73ffffffffffffffffffffffffffffffffffffffff1663f26cc58e6040518163ffffffff1660e01b8152600401602060405180830381865afa158015620023b8573d6000803e3d6000fd5b505050506040513d601f19601f82011682018060405250810190620023de9190620034ee565b90506000600360009054906101000a900473ffffffffffffffffffffffffffffffffffffffff1673ffffffffffffffffffffffffffffffffffffffff1663a9059cbb6200242b8662000c58565b6004600088815260200190815260200160002060006002811062002454576200245362003a1f565b5b0154856200246391906200390c565b6040518363ffffffff1660e01b81526004016200248292919062003461565b6020604051808303816000875af1158015620024a2573d6000803e3d6000fd5b505050506040513d601f19601f82011682018060405250810190620024c89190620034a5565b90506000600360009054906101000a900473ffffffffffffffffffffffffffffffffffffffff1673ffffffffffffffffffffffffffffffffffffffff1663a9059cbb620025158762000e5d565b85600460008a81526020019081526020016000206001600281106200253f576200253e62003a1f565b5b01546200254d919062003ac0565b6040518363ffffffff1660e01b81526004016200256c92919062003461565b6020604051808303816000875af11580156200258c573d6000803e3d6000fd5b505050506040513d601f19601f82011682018060405250810190620025b29190620034a5565b9050818015620025bf5750805b62002601576040517f08c379a0000000000000000000000000000000000000000000000000000000008152600401620025f89062003f0f565b60405180910390fd5b6200260c8562002e93565b829350505050919050565b80600160048111156200262f576200262e620037bc565b5b6001600083815260200190815260200160002060009054906101000a900473ffffffffffffffffffffffffffffffffffffffff1673ffffffffffffffffffffffffffffffffffffffff1663200d2ed26040518163ffffffff1660e01b8152600401602060405180830381865afa158015620026ae573d6000803e3d6000fd5b505050506040513d601f19601f82011682018060405250810190620026d4919062003813565b6004811115620026e957620026e8620037bc565b5b146200272c576040517f08c379a00000000000000000000000000000000000000000000000000000000081526004016200272390620038bb565b60405180910390fd5b620027378262000c1b565b73ffffffffffffffffffffffffffffffffffffffff16632e49d78b60006040518263ffffffff1660e01b8152600401620027729190620039c5565b6020604051808303816000875af115801562002792573d6000803e3d6000fd5b505050506040513d601f19601f82011682018060405250810190620027b8919062003813565b505050565b60004290506000620027cf8362000c1b565b73ffffffffffffffffffffffffffffffffffffffff1663e0a73a936040518163ffffffff1660e01b8152600401602060405180830381865afa1580156200281a573d6000803e3d6000fd5b505050506040513d601f19601f82011682018060405250810190620028409190620034ee565b90506000600360009054906101000a900473ffffffffffffffffffffffffffffffffffffffff1673ffffffffffffffffffffffffffffffffffffffff166323b872dd6200288d8662000c58565b620028988762000e5d565b856040518463ffffffff1660e01b8152600401620028b993929190620039e2565b6020604051808303816000875af1158015620028d9573d6000803e3d6000fd5b505050506040513d601f19601f82011682018060405250810190620028ff9190620034a5565b90508062002944576040517f08c379a00000000000000000000000000000000000000000000000000000000081526004016200293b9062003e9d565b60405180910390fd5b50505050565b6000600560009054906101000a900473ffffffffffffffffffffffffffffffffffffffff16905081600560006101000a81548173ffffffffffffffffffffffffffffffffffffffff021916908373ffffffffffffffffffffffffffffffffffffffff1602179055508173ffffffffffffffffffffffffffffffffffffffff168173ffffffffffffffffffffffffffffffffffffffff167f8be0079c531659141344cd1fd0a4f28419497f9722a3daafe3b4186f6b6457e060405160405180910390a35050565b600062002a1e600062002ef0565b600062002a2c600062002f06565b90506000898989888a898960405162002a459062002f27565b62002a57979695949392919062003f31565b604051809103906000f08015801562002a74573d6000803e3d6000fd5b509050806001600084815260200190815260200160002060006101000a81548173ffffffffffffffffffffffffffffffffffffffff021916908373ffffffffffffffffffffffffffffffffffffffff1602179055508073ffffffffffffffffffffffffffffffffffffffff1663bab215f8338d6040518363ffffffff1660e01b815260040162002b0692919062003947565b600060405180830381600087803b15801562002b2157600080fd5b505af115801562002b36573d6000803e3d6000fd5b50505050819250505098975050505050505050565b8062002b578162000e5d565b73ffffffffffffffffffffffffffffffffffffffff163373ffffffffffffffffffffffffffffffffffffffff161462002bc7576040517f08c379a000000000000000000000000000000000000000000000000000000000815260040162002bbe9062003ffe565b60405180910390fd5b816002600481111562002bdf5762002bde620037bc565b5b6001600083815260200190815260200160002060009054906101000a900473ffffffffffffffffffffffffffffffffffffffff1673ffffffffffffffffffffffffffffffffffffffff1663200d2ed26040518163ffffffff1660e01b8152600401602060405180830381865afa15801562002c5e573d6000803e3d6000fd5b505050506040513d601f19601f8201168201806040525081019062002c84919062003813565b600481111562002c995762002c98620037bc565b5b1462002cdc576040517f08c379a000000000000000000000000000000000000000000000000000000000815260040162002cd39062003c16565b60405180910390fd5b600062002ce98462000c1b565b73ffffffffffffffffffffffffffffffffffffffff1663a2e800ad6040518163ffffffff1660e01b8152600401602060405180830381865afa15801562002d34573d6000803e3d6000fd5b505050506040513d601f19601f8201168201806040525081019062002d5a919062003b12565b90506000808263ffffffff161490506000806004600088815260200190815260200160002060006002811062002d955762002d9462003a1f565b5b0154149050808062002da45750815b62002de6576040517f08c379a000000000000000000000000000000000000000000000000000000000815260040162002ddd9062004070565b60405180910390fd5b62002df18662000c1b565b73ffffffffffffffffffffffffffffffffffffffff16632e49d78b60046040518263ffffffff1660e01b815260040162002e2c9190620039c5565b6020604051808303816000875af115801562002e4c573d6000803e3d6000fd5b505050506040513d601f19601f8201168201806040525081019062002e72919062003813565b50505050505050565b6000818362002e8b919062004092565b905092915050565b60005b6001811162002ee457600060046000848152602001908152602001600020826002811062002ec95762002ec862003a1f565b5b0181905550808062002edb9062003caa565b91505062002e96565b5050565b600033905090565b6001816000016000828254019250508190555050565b600081600001549050919050565b6040518060200160405280600081525090565b611a1380620040f483390190565b600080fd5b6000819050919050565b62002f4f8162002f3a565b811462002f5b57600080fd5b50565b60008135905062002f6f8162002f44565b92915050565b6000806040838503121562002f8f5762002f8e62002f35565b5b600062002f9f8582860162002f5e565b925050602062002fb28582860162002f5e565b9150509250929050565b62002fc78162002f3a565b82525050565b600060208201905062002fe4600083018462002fbc565b92915050565b60006020828403121562003003576200300262002f35565b5b6000620030138482850162002f5e565b91505092915050565b60008115159050919050565b62003033816200301c565b82525050565b600060208201905062003050600083018462003028565b92915050565b600073ffffffffffffffffffffffffffffffffffffffff82169050919050565b6000819050919050565b6000620030a16200309b620030958462003056565b62003076565b62003056565b9050919050565b6000620030b58262003080565b9050919050565b6000620030c982620030a8565b9050919050565b620030db81620030bc565b82525050565b6000602082019050620030f86000830184620030d0565b92915050565b60006200310b8262003056565b9050919050565b6200311d81620030fe565b82525050565b60006020820190506200313a600083018462003112565b92915050565b6200314b816200301c565b81146200315757600080fd5b50565b6000813590506200316b8162003140565b92915050565b600063ffffffff82169050919050565b6200318c8162003171565b81146200319857600080fd5b50565b600081359050620031ac8162003181565b92915050565b600080600080600080600080610100898b031215620031d657620031d562002f35565b5b6000620031e68b828c016200315a565b9850506020620031f98b828c0162002f5e565b97505060406200320c8b828c0162002f5e565b96505060606200321f8b828c0162002f5e565b9550506080620032328b828c0162002f5e565b94505060a0620032458b828c0162002f5e565b93505060c0620032588b828c016200319b565b92505060e06200326b8b828c016200319b565b9150509295985092959890939650565b620032868162002f3a565b82525050565b602082016000820151620032a460008501826200327b565b50505050565b6000602082019050620032c160008301846200328c565b92915050565b620032d281620030fe565b8114620032de57600080fd5b50565b600081359050620032f281620032c7565b92915050565b60006020828403121562003311576200331062002f35565b5b60006200332184828501620032e1565b91505092915050565b60006200333782620030a8565b9050919050565b62003349816200332a565b82525050565b60006020820190506200336660008301846200333e565b92915050565b600082825260208201905092915050565b7f54686520686f73742063616e206e6f742063616c6c20746865206d6574686f64600082015250565b6000620033b56020836200336c565b9150620033c2826200337d565b602082019050919050565b60006020820190508181036000830152620033e881620033a6565b9050919050565b7f4f6e6c79206275796572206f6620746865204344532063616e2063616c6c0000600082015250565b600062003427601e836200336c565b91506200343482620033ef565b602082019050919050565b600060208201905081810360008301526200345a8162003418565b9050919050565b600060408201905062003478600083018562003112565b62003487602083018462002fbc565b9392505050565b6000815190506200349f8162003140565b92915050565b600060208284031215620034be57620034bd62002f35565b5b6000620034ce848285016200348e565b91505092915050565b600081519050620034e88162002f44565b92915050565b60006020828403121562003507576200350662002f35565b5b60006200351784828501620034d7565b91505092915050565b7f43757272656e7420707269636520697320686967686572207468616e2074686560008201527f20636c61696d20707269636520696e2043445300000000000000000000000000602082015250565b60006200357e6033836200336c565b91506200358b8262003520565b604082019050919050565b60006020820190508181036000830152620035b1816200356f565b9050919050565b6000604082019050620035cf600083018562002fbc565b620035de602083018462002fbc565b9392505050565b7f4f6e6c792062757965722f73656c6c6572206f6620746865204344532063616e60008201527f2063616c6c000000000000000000000000000000000000000000000000000000602082015250565b6000620036436025836200336c565b91506200365082620035e5565b604082019050919050565b60006020820190508181036000830152620036768162003634565b9050919050565b6000815190506200368e81620032c7565b92915050565b600060208284031215620036ad57620036ac62002f35565b5b6000620036bd848285016200367d565b91505092915050565b620036d18162003171565b82525050565b6000608082019050620036ee600083018762003028565b620036fd602083018662002fbc565b6200370c6040830185620036c6565b6200371b606083018462003112565b95945050505050565b7f4f776e61626c653a206e6577206f776e657220697320746865207a65726f206160008201527f6464726573730000000000000000000000000000000000000000000000000000602082015250565b6000620037826026836200336c565b91506200378f8262003724565b604082019050919050565b60006020820190508181036000830152620037b58162003773565b9050919050565b7f4e487b7100000000000000000000000000000000000000000000000000000000600052602160045260246000fd5b60058110620037f957600080fd5b50565b6000815190506200380d81620037eb565b92915050565b6000602082840312156200382c576200382b62002f35565b5b60006200383c84828501620037fc565b91505092915050565b7f54686520737461747573206f6620746865204344532073686f756c642062652060008201527f70656e64696e6700000000000000000000000000000000000000000000000000602082015250565b6000620038a36027836200336c565b9150620038b08262003845565b604082019050919050565b60006020820190508181036000830152620038d68162003894565b9050919050565b7f4e487b7100000000000000000000000000000000000000000000000000000000600052601160045260246000fd5b6000620039198262002f3a565b9150620039268362002f3a565b9250828201905080821115620039415762003940620038dd565b5b92915050565b60006040820190506200395e600083018562003112565b6200396d602083018462003028565b9392505050565b60058110620039885762003987620037bc565b5b50565b60008190506200399b8262003974565b919050565b6000620039ad826200398b565b9050919050565b620039bf81620039a0565b82525050565b6000602082019050620039dc6000830184620039b4565b92915050565b6000606082019050620039f9600083018662003112565b62003a08602083018562003112565b62003a17604083018462002fbc565b949350505050565b7f4e487b7100000000000000000000000000000000000000000000000000000000600052603260045260246000fd5b7f53656e64696e67206669727374207072656d69756d206661696c656400000000600082015250565b600062003a86601c836200336c565b915062003a938262003a4e565b602082019050919050565b6000602082019050818103600083015262003ab98162003a77565b9050919050565b600062003acd8262002f3a565b915062003ada8362002f3a565b925082820390508181111562003af55762003af4620038dd565b5b92915050565b60008151905062003b0c8162003181565b92915050565b60006020828403121562003b2b5762003b2a62002f35565b5b600062003b3b8482850162003afb565b91505092915050565b600062003b518262003171565b915062003b5e8362003171565b9250828203905063ffffffff81111562003b7d5762003b7c620038dd565b5b92915050565b600060208201905062003b9a6000830184620036c6565b92915050565b7f54686520737461747573206f6620746865204344532073686f756c642062652060008201527f6163746976650000000000000000000000000000000000000000000000000000602082015250565b600062003bfe6026836200336c565b915062003c0b8262003ba0565b604082019050919050565b6000602082019050818103600083015262003c318162003bef565b9050919050565b7f53656e64696e67206465706f736974206261636b206661696c65640000000000600082015250565b600062003c70601b836200336c565b915062003c7d8262003c38565b602082019050919050565b6000602082019050818103600083015262003ca38162003c61565b9050919050565b600062003cb78262002f3a565b91507fffffffffffffffffffffffffffffffffffffffffffffffffffffffffffffffff820362003cec5762003ceb620038dd565b5b600182019050919050565b7f4f776e61626c653a2063616c6c6572206973206e6f7420746865206f776e6572600082015250565b600062003d2f6020836200336c565b915062003d3c8262003cf7565b602082019050919050565b6000602082019050818103600083015262003d628162003d20565b9050919050565b7f526f756e6420616c726561647920656e64656400000000000000000000000000600082015250565b600062003da16013836200336c565b915062003dae8262003d69565b602082019050919050565b6000602082019050818103600083015262003dd48162003d92565b9050919050565b7f4e6f7420656e6f756768206465706f7369740000000000000000000000000000600082015250565b600062003e136012836200336c565b915062003e208262003ddb565b602082019050919050565b6000602082019050818103600083015262003e468162003e04565b9050919050565b7f53656e64696e67207072656d69756d206661696c656400000000000000000000600082015250565b600062003e856016836200336c565b915062003e928262003e4d565b602082019050919050565b6000602082019050818103600083015262003eb88162003e76565b9050919050565b7f53656e64696e6720726577617264206661696c65640000000000000000000000600082015250565b600062003ef76015836200336c565b915062003f048262003ebf565b602082019050919050565b6000602082019050818103600083015262003f2a8162003ee8565b9050919050565b600060e08201905062003f48600083018a62002fbc565b62003f57602083018962002fbc565b62003f66604083018862002fbc565b62003f75606083018762002fbc565b62003f84608083018662002fbc565b62003f9360a0830185620036c6565b62003fa260c0830184620036c6565b98975050505050505050565b7f4f6e6c792073656c6c6572206f6620746865204344532063616e2063616c6c00600082015250565b600062003fe6601f836200336c565b915062003ff38262003fae565b602082019050919050565b60006020820190508181036000830152620040198162003fd7565b9050919050565b7f4275796572206465706f736974202f20526f756e64732072656d61696e696e67600082015250565b6000620040586020836200336c565b9150620040658262004020565b602082019050919050565b600060208201905081810360008301526200408b8162004049565b9050919050565b60006200409f8262002f3a565b9150620040ac8362002f3a565b9250817fffffffffffffffffffffffffffffffffffffffffffffffffffffffffffffffff0483118215151615620040e857620040e7620038dd565b5b82820290509291505056fe60806040523480156200001157600080fd5b5060405162001a1338038062001a13833981810160405281019062000037919062000446565b73f2a3fa0266a0feffa87da45f0d3c45ac66fe05c56200006c620000606200028b60201b60201c565b6200029360201b60201c565b80600160006101000a81548173ffffffffffffffffffffffffffffffffffffffff021916908373ffffffffffffffffffffffffffffffffffffffff16021790555050866003819055508560048190555084600581905550836006819055508260078190555081600a60146101000a81548163ffffffff021916908363ffffffff16021790555081600a60186101000a81548163ffffffff021916908363ffffffff160217905550620001356005546007546003546200035760201b62000a99179092919060201c565b60088190555060008163ffffffff16148062000157575060018163ffffffff16145b8062000169575060028163ffffffff16145b620001ab576040517f08c379a0000000000000000000000000000000000000000000000000000000008152600401620001a2906200055a565b60405180910390fd5b80600a601c6101000a81548163ffffffff021916908363ffffffff1602179055506000600960006101000a81548173ffffffffffffffffffffffffffffffffffffffff021916908373ffffffffffffffffffffffffffffffffffffffff1602179055506000600a60006101000a81548173ffffffffffffffffffffffffffffffffffffffff021916908373ffffffffffffffffffffffffffffffffffffffff1602179055506001600260146101000a81548160ff021916908360048111156200027957620002786200057c565b5b0217905550505050505050506200067c565b600033905090565b60008060009054906101000a900473ffffffffffffffffffffffffffffffffffffffff169050816000806101000a81548173ffffffffffffffffffffffffffffffffffffffff021916908373ffffffffffffffffffffffffffffffffffffffff1602179055508173ffffffffffffffffffffffffffffffffffffffff168173ffffffffffffffffffffffffffffffffffffffff167f8be0079c531659141344cd1fd0a4f28419497f9722a3daafe3b4186f6b6457e060405160405180910390a35050565b60006200038c6200037784866200039560201b62000ac91790919060201c565b83620003ad60201b62000adf1790919060201c565b90509392505050565b60008183620003a59190620005da565b905092915050565b60008183620003bd919062000644565b905092915050565b600080fd5b6000819050919050565b620003df81620003ca565b8114620003eb57600080fd5b50565b600081519050620003ff81620003d4565b92915050565b600063ffffffff82169050919050565b620004208162000405565b81146200042c57600080fd5b50565b600081519050620004408162000415565b92915050565b600080600080600080600060e0888a031215620004685762000467620003c5565b5b6000620004788a828b01620003ee565b97505060206200048b8a828b01620003ee565b96505060406200049e8a828b01620003ee565b9550506060620004b18a828b01620003ee565b9450506080620004c48a828b01620003ee565b93505060a0620004d78a828b016200042f565b92505060c0620004ea8a828b016200042f565b91505092959891949750929550565b600082825260208201905092915050565b7f4254433a302c204554483a312c204c494e4b3a32000000000000000000000000600082015250565b600062000542601483620004f9565b91506200054f826200050a565b602082019050919050565b60006020820190508181036000830152620005758162000533565b9050919050565b7f4e487b7100000000000000000000000000000000000000000000000000000000600052602160045260246000fd5b7f4e487b7100000000000000000000000000000000000000000000000000000000600052601160045260246000fd5b6000620005e782620003ca565b9150620005f483620003ca565b92508282039050818111156200060f576200060e620005ab565b5b92915050565b7f4e487b7100000000000000000000000000000000000000000000000000000000600052601260045260246000fd5b60006200065182620003ca565b91506200065e83620003ca565b92508262000671576200067062000615565b5b828204905092915050565b611387806200068c6000396000f3fe608060405234801561001057600080fd5b50600436106101585760003560e01c8063a3f09ad6116100c3578063d2895e931161007c578063d2895e93146103ab578063dbd0e1b6146103db578063e0a73a93146103f9578063e99d286614610417578063f26cc58e14610447578063f2fde38b1461046557610158565b8063a3f09ad6146102c3578063b6fc2d5f146102f3578063bab215f814610311578063bd9a548b1461032d578063bef904e31461034b578063cbed24491461037b57610158565b8063715018a611610115578063715018a614610223578063762db7ee1461022d57806386be75b71461024b5780638a568299146102695780638da5cb5b14610287578063a2e800ad146102a557610158565b806315d655c91461015d578063200d2ed21461017b5780632e49d78b146101995780633fe3347a146101c95780634c1786ea146101e7578063603daf9a14610205575b600080fd5b610165610481565b6040516101729190610d00565b60405180910390f35b610183610487565b6040516101909190610d92565b60405180910390f35b6101b360048036038101906101ae9190610dd7565b61049a565b6040516101c09190610d92565b60405180910390f35b6101d16104e5565b6040516101de9190610e23565b60405180910390f35b6101ef6104fb565b6040516101fc9190610d00565b60405180910390f35b61020d610501565b60405161021a9190610e7f565b60405180910390f35b61022b61052b565b005b61023561053f565b6040516102429190610d00565b60405180910390f35b610253610545565b6040516102609190610d00565b60405180910390f35b61027161054b565b60405161027e9190610e23565b60405180910390f35b61028f610561565b60405161029c9190610e7f565b60405180910390f35b6102ad61058a565b6040516102ba9190610e23565b60405180910390f35b6102dd60048036038101906102d89190610ec6565b6105a0565b6040516102ea9190610e7f565b60405180910390f35b6102fb610615565b6040516103089190610d00565b60405180910390f35b61032b60048036038101906103269190610f2b565b61061b565b005b610335610645565b6040516103429190611016565b60405180910390f35b6103656004803603810190610360919061105d565b610683565b6040516103729190610d00565b60405180910390f35b610395600480360381019061039091906110b6565b610696565b6040516103a29190610d00565b60405180910390f35b6103c560048036038101906103c091906110b6565b6108d4565b6040516103d29190610e23565b60405180910390f35b6103e3610919565b6040516103f09190610e7f565b60405180910390f35b610401610943565b60405161040e9190610d00565b60405180910390f35b610431600480360381019061042c9190610ec6565b610949565b60405161043e9190610e7f565b60405180910390f35b61044f6109be565b60405161045c9190610d00565b60405180910390f35b61047f600480360381019061047a9190610ec6565b610a16565b005b60045481565b600260149054906101000a900460ff1681565b60006104a4610af5565b81600260146101000a81548160ff021916908360048111156104c9576104c8610d1b565b5b0217905550600260149054906101000a900460ff169050919050565b600a601c9054906101000a900463ffffffff1681565b60075481565b6000600960009054906101000a900473ffffffffffffffffffffffffffffffffffffffff16905090565b610533610af5565b61053d6000610b73565b565b60085481565b60035481565b600a60189054906101000a900463ffffffff1681565b60008060009054906101000a900473ffffffffffffffffffffffffffffffffffffffff16905090565b600a60149054906101000a900463ffffffff1681565b60006105aa610af5565b81600960006101000a81548173ffffffffffffffffffffffffffffffffffffffff021916908373ffffffffffffffffffffffffffffffffffffffff160217905550600960009054906101000a900473ffffffffffffffffffffffffffffffffffffffff169050919050565b60055481565b610623610af5565b806106365761063182610949565b610640565b61063f826105a0565b5b505050565b61064d610cc5565b6040518060a001604052806003548152602001600454815260200160055481526020016006548152602001600754815250905090565b6000816003819055506003549050919050565b60008060008363ffffffff16036107555761074e6305f5e100600160009054906101000a900473ffffffffffffffffffffffffffffffffffffffff1673ffffffffffffffffffffffffffffffffffffffff1663a8ad52d16040518163ffffffff1660e01b8152600401602060405180830381865afa15801561071c573d6000803e3d6000fd5b505050506040513d601f19601f8201168201806040525081019061074091906110f8565b610adf90919063ffffffff16565b90506108cb565b60018363ffffffff16036108115761080a6305f5e100600160009054906101000a900473ffffffffffffffffffffffffffffffffffffffff1673ffffffffffffffffffffffffffffffffffffffff1663ff186b2e6040518163ffffffff1660e01b8152600401602060405180830381865afa1580156107d8573d6000803e3d6000fd5b505050506040513d601f19601f820116820180604052508101906107fc91906110f8565b610adf90919063ffffffff16565b90506108ca565b60028363ffffffff16036108c9576108c66305f5e100600160009054906101000a900473ffffffffffffffffffffffffffffffffffffffff1673ffffffffffffffffffffffffffffffffffffffff16630cf785356040518163ffffffff1660e01b8152600401602060405180830381865afa158015610894573d6000803e3d6000fd5b505050506040513d601f19601f820116820180604052508101906108b891906110f8565b610adf90919063ffffffff16565b90505b5b5b80915050919050565b60006108de610af5565b81600a60146101000a81548163ffffffff021916908363ffffffff160217905550600a60149054906101000a900463ffffffff169050919050565b6000600a60009054906101000a900473ffffffffffffffffffffffffffffffffffffffff16905090565b60065481565b6000610953610af5565b81600a60006101000a81548173ffffffffffffffffffffffffffffffffffffffff021916908373ffffffffffffffffffffffffffffffffffffffff160217905550600a60009054906101000a900473ffffffffffffffffffffffffffffffffffffffff169050919050565b6000806109dc600a601c9054906101000a900463ffffffff16610696565b90508060045410156109f2576000915050610a13565b610a0f60055460035483600754610c37909392919063ffffffff16565b9150505b90565b610a1e610af5565b600073ffffffffffffffffffffffffffffffffffffffff168173ffffffffffffffffffffffffffffffffffffffff1603610a8d576040517f08c379a0000000000000000000000000000000000000000000000000000000008152600401610a84906111a8565b60405180910390fd5b610a9681610b73565b50565b6000610ac0610ab18486610ac990919063ffffffff16565b83610adf90919063ffffffff16565b90509392505050565b60008183610ad791906111f7565b905092915050565b60008183610aed919061125a565b905092915050565b610afd610ca7565b73ffffffffffffffffffffffffffffffffffffffff16610b1b610561565b73ffffffffffffffffffffffffffffffffffffffff1614610b71576040517f08c379a0000000000000000000000000000000000000000000000000000000008152600401610b68906112d7565b60405180910390fd5b565b60008060009054906101000a900473ffffffffffffffffffffffffffffffffffffffff169050816000806101000a81548173ffffffffffffffffffffffffffffffffffffffff021916908373ffffffffffffffffffffffffffffffffffffffff1602179055508173ffffffffffffffffffffffffffffffffffffffff168173ffffffffffffffffffffffffffffffffffffffff167f8be0079c531659141344cd1fd0a4f28419497f9722a3daafe3b4186f6b6457e060405160405180910390a35050565b600080828510610c4957859050610c9b565b6000610c70610c618787610ac990919063ffffffff16565b88610adf90919063ffffffff16565b9050610c97610c888587610ac990919063ffffffff16565b82610caf90919063ffffffff16565b9150505b80915050949350505050565b600033905090565b60008183610cbd91906112f7565b905092915050565b6040518060a00160405280600590602082028036833780820191505090505090565b6000819050919050565b610cfa81610ce7565b82525050565b6000602082019050610d156000830184610cf1565b92915050565b7f4e487b7100000000000000000000000000000000000000000000000000000000600052602160045260246000fd5b60058110610d5b57610d5a610d1b565b5b50565b6000819050610d6c82610d4a565b919050565b6000610d7c82610d5e565b9050919050565b610d8c81610d71565b82525050565b6000602082019050610da76000830184610d83565b92915050565b600080fd5b60058110610dbf57600080fd5b50565b600081359050610dd181610db2565b92915050565b600060208284031215610ded57610dec610dad565b5b6000610dfb84828501610dc2565b91505092915050565b600063ffffffff82169050919050565b610e1d81610e04565b82525050565b6000602082019050610e386000830184610e14565b92915050565b600073ffffffffffffffffffffffffffffffffffffffff82169050919050565b6000610e6982610e3e565b9050919050565b610e7981610e5e565b82525050565b6000602082019050610e946000830184610e70565b92915050565b610ea381610e5e565b8114610eae57600080fd5b50565b600081359050610ec081610e9a565b92915050565b600060208284031215610edc57610edb610dad565b5b6000610eea84828501610eb1565b91505092915050565b60008115159050919050565b610f0881610ef3565b8114610f1357600080fd5b50565b600081359050610f2581610eff565b92915050565b60008060408385031215610f4257610f41610dad565b5b6000610f5085828601610eb1565b9250506020610f6185828601610f16565b9150509250929050565b600060059050919050565b600081905092915050565b6000819050919050565b610f9481610ce7565b82525050565b6000610fa68383610f8b565b60208301905092915050565b6000602082019050919050565b610fc881610f6b565b610fd28184610f76565b9250610fdd82610f81565b8060005b8381101561100e578151610ff58782610f9a565b965061100083610fb2565b925050600181019050610fe1565b505050505050565b600060a08201905061102b6000830184610fbf565b92915050565b61103a81610ce7565b811461104557600080fd5b50565b60008135905061105781611031565b92915050565b60006020828403121561107357611072610dad565b5b600061108184828501611048565b91505092915050565b61109381610e04565b811461109e57600080fd5b50565b6000813590506110b08161108a565b92915050565b6000602082840312156110cc576110cb610dad565b5b60006110da848285016110a1565b91505092915050565b6000815190506110f281611031565b92915050565b60006020828403121561110e5761110d610dad565b5b600061111c848285016110e3565b91505092915050565b600082825260208201905092915050565b7f4f776e61626c653a206e6577206f776e657220697320746865207a65726f206160008201527f6464726573730000000000000000000000000000000000000000000000000000602082015250565b6000611192602683611125565b915061119d82611136565b604082019050919050565b600060208201905081810360008301526111c181611185565b9050919050565b7f4e487b7100000000000000000000000000000000000000000000000000000000600052601160045260246000fd5b600061120282610ce7565b915061120d83610ce7565b9250828203905081811115611225576112246111c8565b5b92915050565b7f4e487b7100000000000000000000000000000000000000000000000000000000600052601260045260246000fd5b600061126582610ce7565b915061127083610ce7565b9250826112805761127f61122b565b5b828204905092915050565b7f4f776e61626c653a2063616c6c6572206973206e6f7420746865206f776e6572600082015250565b60006112c1602083611125565b91506112cc8261128b565b602082019050919050565b600060208201905081810360008301526112f0816112b4565b9050919050565b600061130282610ce7565b915061130d83610ce7565b9250817fffffffffffffffffffffffffffffffffffffffffffffffffffffffffffffffff0483118215151615611346576113456111c8565b5b82820290509291505056fea26469706673582212202bfd13ab9213ad63216874f2d4925ec9146a35b063166949489135597ca9122964736f6c63430008100033a2646970667358221220fc93ebedcb6e8f5b672c5c2d0d4d6cf7ca65a73d1a30687a2cc50b60e32c642f64736f6c63430008100033",
  "immutableReferences": {},
  "source": "// SPDX-License-Identifier: MIT\npragma solidity ^0.8.7;\n\nimport '@openzeppelin/contracts/access/Ownable.sol';\nimport './Handler/CDSBank.sol';\n\ninterface CDSInterface {\n  function create(\n    bool isBuyer,\n    uint256 initAssetPrice,\n    uint256 claimPrice,\n    uint256 liquidationPrice,\n    uint256 sellerDeposit,\n    uint256 premium,\n    uint32 totalRounds,\n    uint32 assetType\n  ) external returns (uint256);\n\n  function accept(\n    uint256 initAssetPrice,\n    uint256 cdsId\n  ) external returns (uint256);\n\n  function cancel(uint256 cdsId) external returns (bool);\n\n  function close(uint256 cdsId) external returns (bool);\n\n  function claim(uint256 cdsId) external returns (bool);\n\n  function expire(uint256 cdsId) external returns (bool);\n\n  function payPremium(uint256 cdsId) external returns (bool);\n\n  function payPremiumByDeposit(\n    uint256 cdsId\n  ) external returns (bool);\n\n  function withdraw(uint256 amount) external returns (bool);\n\n  event Create(\n    address indexed hostAddr,\n    bool isBuyer,\n    uint256 cdsId,\n    uint32 assetType,\n    address swap\n  );\n  event Accept(address indexed guestAddr, uint256 cdsId);\n  event Cancel(uint256 cdsId);\n  event Claim(uint256 cdsId, uint256 claimReward);\n  event Close(uint256 cdsId);\n  event Expire(uint256 cdsId);\n  event PayPremium(uint256 cdsId);\n}\n\ncontract CDSLounge is CDSBank, Ownable, CDSInterface {\n  // transactions\n  function create(\n    bool isBuyer,\n    uint256 initAssetPrice,\n    uint256 claimPrice,\n    uint256 liquidationPrice,\n    uint256 sellerDeposit,\n    uint256 premium,\n    uint32 totalRounds,\n    uint32 assetType\n  ) external override returns (uint256) {\n    uint256 newCDSId = _create(\n      isBuyer,\n      initAssetPrice,\n      claimPrice,\n      liquidationPrice,\n      sellerDeposit,\n      premium,\n      totalRounds,\n      assetType\n    );\n    _sendDeposit(newCDSId, isBuyer);\n    emit Create(\n      msg.sender,\n      isBuyer,\n      newCDSId,\n      assetType,\n      address(getCDS(newCDSId))\n    );\n    return newCDSId;\n  }\n\n  function accept(\n    uint256 initAssetPrice,\n    uint256 cdsId\n  ) external override returns (uint256) {\n    require(\n      msg.sender != getBuyer(cdsId) && msg.sender != getSeller(cdsId),\n      'The host can not call the method'\n    );\n    bool isSeller = (getSeller(cdsId) == address(0));\n    uint256 acceptedcdsId = _accept(isSeller, initAssetPrice, cdsId);\n    _sendDeposit(cdsId, !isSeller);\n    _sendFirstPremium(cdsId);\n    emit Accept(msg.sender, acceptedcdsId);\n    return acceptedcdsId;\n  }\n\n  function cancel(\n    uint256 cdsId\n  ) external override isParticipants(cdsId) returns (bool) {\n    _cancel(cdsId);\n    _endCDS(cdsId);\n    emit Cancel(cdsId);\n    return true;\n  }\n\n  function close(\n    uint256 cdsId\n  ) external override isBuyer(cdsId) returns (bool) {\n    _close(cdsId);\n    _endCDS(cdsId);\n    emit Close(cdsId);\n    return true;\n  }\n\n  function claim(\n    uint256 cdsId\n  ) external override isBuyer(cdsId) returns (bool) {\n    require(\n      getCDS(cdsId).getClaimReward() != 0,\n      'Current price is higher than the claim price in CDS'\n    );\n    _claim(cdsId);\n    uint256 claimReward = _afterClaim(cdsId);\n    emit Claim(cdsId, claimReward);\n    return true;\n  }\n\n  function expire(uint256 cdsId) external override returns (bool) {\n    _expire(cdsId);\n    _endCDS(cdsId);\n    emit Expire(cdsId);\n    return true;\n  }\n\n  function payPremium(\n    uint256 cdsId\n  ) external override isBuyer(cdsId) returns (bool) {\n    _payPremium(cdsId);\n    _sendPremium(cdsId);\n    emit PayPremium(cdsId);\n    return true;\n  }\n\n  function payPremiumByDeposit(\n    uint256 cdsId\n  ) external override onlyOwner returns (bool) {\n    _payPremium(cdsId);\n    _sendPremiumByDeposit(cdsId);\n    emit PayPremium(cdsId);\n    return true;\n  }\n\n  function withdraw(uint256 amount) external override onlyOwner returns (bool) {\n    token.transfer(owner(), amount);\n    return true;\n  }\n}\n\n// lounge => factory => cds\n//  factory => crud \n// factory assembly-create2;  uniswapv2factory <=> uniswapv2pair\n//  lounge or factory \n//  cds  ?  approved factory or lounge ca   . owner buyer&seller\n// factory address cdsId(or address)  \n\n// buyer seller   \n// seller  buyer     =>   contract  ?\n",
  "sourcePath": "/Users/yoonsoo/codestates/BEB-07-final-CDS/contract/contracts/CDSLounge.sol",
  "compiler": {
    "name": "solc",
    "version": "0.8.16+commit.07a7930e.Emscripten.clang"
  },
  "schemaVersion": "3.4.11",
  "updatedAt": "2023-03-21T06:14:00.578Z",
  "devdoc": {
    "kind": "dev",
    "methods": {
      "owner()": {
        "details": "Returns the address of the current owner."
      },
      "renounceOwnership()": {
        "details": "Leaves the contract without owner. It will not be possible to call `onlyOwner` functions anymore. Can only be called by the current owner. NOTE: Renouncing ownership will leave the contract without an owner, thereby removing any functionality that is only available to the owner."
      },
      "transferOwnership(address)": {
        "details": "Transfers ownership of the contract to a new account (`newOwner`). Can only be called by the current owner."
      }
    },
    "version": 1
  },
  "userdoc": {
    "kind": "user",
    "methods": {},
    "version": 1
  }
}