{
  "contractName": "PriceConsumerGoerli",
  "abi": [
    {
      "inputs": [
        {
          "internalType": "uint32",
          "name": "_assetType",
          "type": "uint32"
        }
      ],
      "stateMutability": "nonpayable",
      "type": "constructor"
    },
    {
      "inputs": [],
      "name": "getCurrPrice",
      "outputs": [
        {
          "internalType": "uint256",
          "name": "",
          "type": "uint256"
        }
      ],
      "stateMutability": "view",
      "type": "function"
    }
  ],
  "bytecode": "0x608060405234801561001057600080fd5b50604051610463380380610463833981810160405281019061003291906101ac565b60008163ffffffff16036100995773a39434a63a52e749f02807ae27335515ba4b07f76000806101000a81548173ffffffffffffffffffffffffffffffffffffffff021916908373ffffffffffffffffffffffffffffffffffffffff160217905550610165565b60018163ffffffff16036101005773d4a33860578de61dbabdc8bfdb98fd742fa7028e6000806101000a81548173ffffffffffffffffffffffffffffffffffffffff021916908373ffffffffffffffffffffffffffffffffffffffff160217905550610164565b60028163ffffffff1603610163577348731cf7e84dc94c5f84577882c14be11a5b74566000806101000a81548173ffffffffffffffffffffffffffffffffffffffff021916908373ffffffffffffffffffffffffffffffffffffffff1602179055505b5b5b506101d9565b600080fd5b600063ffffffff82169050919050565b61018981610170565b811461019457600080fd5b50565b6000815190506101a681610180565b92915050565b6000602082840312156101c2576101c161016b565b5b60006101d084828501610197565b91505092915050565b61027b806101e86000396000f3fe608060405234801561001057600080fd5b506004361061002b5760003560e01c806347fe810f14610030575b600080fd5b61003861004e565b6040516100459190610106565b60405180910390f35b60008060008054906101000a900473ffffffffffffffffffffffffffffffffffffffff1673ffffffffffffffffffffffffffffffffffffffff1663feaf968c6040518163ffffffff1660e01b815260040160a060405180830381865afa1580156100bc573d6000803e3d6000fd5b505050506040513d601f19601f820116820180604052508101906100e091906101ca565b5050509150508091505090565b6000819050919050565b610100816100ed565b82525050565b600060208201905061011b60008301846100f7565b92915050565b600080fd5b600069ffffffffffffffffffff82169050919050565b61014581610126565b811461015057600080fd5b50565b6000815190506101628161013c565b92915050565b6000819050919050565b61017b81610168565b811461018657600080fd5b50565b60008151905061019881610172565b92915050565b6101a7816100ed565b81146101b257600080fd5b50565b6000815190506101c48161019e565b92915050565b600080600080600060a086880312156101e6576101e5610121565b5b60006101f488828901610153565b955050602061020588828901610189565b9450506040610216888289016101b5565b9350506060610227888289016101b5565b925050608061023888828901610153565b915050929550929590935056fea264697066735822122046fee2d04ef9bdd82daea627bbbfa4185720b34c341345a038b958597d613aa264736f6c63430008100033",
  "immutableReferences": {},
  "source": "// SPDX-License-Identifier: MIT\npragma solidity ^0.8.7;\n\nimport '@chainlink/contracts/src/v0.8/interfaces/AggregatorV3Interface.sol';\n\ncontract PriceConsumerGoerli {\n  AggregatorV3Interface private oracle;\n\n  constructor(uint32 _assetType) {\n    if (_assetType == 0) {\n      oracle = AggregatorV3Interface(0xA39434A63A52E749F02807ae27335515BA4b07F7);\n    } else if (_assetType == 1) {\n      oracle = AggregatorV3Interface(0xD4a33860578De61DBAbDc8BFdb98FD742fA7028e);\n    } else if (_assetType == 2) {\n      oracle = AggregatorV3Interface(0x48731cF7e84dc94C5f84577882c14Be11a5B7456);\n    }\n  }\n\n  /**\n   * Returns the latest price\n   */\n  function getCurrPrice() public view returns (uint256) {\n    (, int price, , , ) = oracle.latestRoundData();\n\n    return uint(price);\n  }\n  \n}\n",
  "sourcePath": "/Users/yoonsoo/codestates/BEB-07-final-CDS/contract/contracts/CDS/PriceConsumerGoerli.sol",
  "compiler": {
    "name": "solc",
    "version": "0.8.16+commit.07a7930e.Emscripten.clang"
  },
  "schemaVersion": "3.4.11",
  "updatedAt": "2023-03-21T06:14:00.571Z",
  "devdoc": {
    "kind": "dev",
    "methods": {},
    "version": 1
  },
  "userdoc": {
    "kind": "user",
    "methods": {
      "getCurrPrice()": {
        "notice": "Returns the latest price"
      }
    },
    "version": 1
  }
}