{
  "contractName": "PriceConsumer",
  "abi": [
    {
      "inputs": [
        {
          "internalType": "address",
          "name": "_address",
          "type": "address"
        }
      ],
      "stateMutability": "nonpayable",
      "type": "constructor"
    },
    {
      "inputs": [
        {
          "internalType": "uint32",
          "name": "_assetType",
          "type": "uint32"
        }
      ],
      "name": "getCurrPrice",
      "outputs": [
        {
          "internalType": "uint256",
          "name": "",
          "type": "uint256"
        }
      ],
      "stateMutability": "view",
      "type": "function"
    }
  ],
  "bytecode": "0x608060405234801561001057600080fd5b50604051610556380380610556833981810160405281019061003291906100db565b806000806101000a81548173ffffffffffffffffffffffffffffffffffffffff021916908373ffffffffffffffffffffffffffffffffffffffff16021790555050610108565b600080fd5b600073ffffffffffffffffffffffffffffffffffffffff82169050919050565b60006100a88261007d565b9050919050565b6100b88161009d565b81146100c357600080fd5b50565b6000815190506100d5816100af565b92915050565b6000602082840312156100f1576100f0610078565b5b60006100ff848285016100c6565b91505092915050565b61043f806101176000396000f3fe608060405234801561001057600080fd5b506004361061002b5760003560e01c8063cbed244914610030575b600080fd5b61004a600480360381019061004591906102ef565b610060565b6040516100579190610335565b60405180910390f35b60008060008363ffffffff160361011d576101166305f5e10060008054906101000a900473ffffffffffffffffffffffffffffffffffffffff1673ffffffffffffffffffffffffffffffffffffffff1663a8ad52d16040518163ffffffff1660e01b8152600401602060405180830381865afa1580156100e4573d6000803e3d6000fd5b505050506040513d601f19601f82011682018060405250810190610108919061037c565b61029890919063ffffffff16565b905061028f565b60018363ffffffff16036101d7576101d06305f5e10060008054906101000a900473ffffffffffffffffffffffffffffffffffffffff1673ffffffffffffffffffffffffffffffffffffffff1663ff186b2e6040518163ffffffff1660e01b8152600401602060405180830381865afa15801561019e573d6000803e3d6000fd5b505050506040513d601f19601f820116820180604052508101906101c2919061037c565b61029890919063ffffffff16565b905061028e565b60028363ffffffff160361028d5761028a6305f5e10060008054906101000a900473ffffffffffffffffffffffffffffffffffffffff1673ffffffffffffffffffffffffffffffffffffffff16630cf785356040518163ffffffff1660e01b8152600401602060405180830381865afa158015610258573d6000803e3d6000fd5b505050506040513d601f19601f8201168201806040525081019061027c919061037c565b61029890919063ffffffff16565b90505b5b5b80915050919050565b600081836102a691906103d8565b905092915050565b600080fd5b600063ffffffff82169050919050565b6102cc816102b3565b81146102d757600080fd5b50565b6000813590506102e9816102c3565b92915050565b600060208284031215610305576103046102ae565b5b6000610313848285016102da565b91505092915050565b6000819050919050565b61032f8161031c565b82525050565b600060208201905061034a6000830184610326565b92915050565b6103598161031c565b811461036457600080fd5b50565b60008151905061037681610350565b92915050565b600060208284031215610392576103916102ae565b5b60006103a084828501610367565b91505092915050565b7f4e487b7100000000000000000000000000000000000000000000000000000000600052601260045260246000fd5b60006103e38261031c565b91506103ee8361031c565b9250826103fe576103fd6103a9565b5b82820490509291505056fea264697066735822122062df9c711ee8c9886552b8d2f9f490a9a63d29f7b72114018e121b1b06233e5164736f6c63430008100033",
  "immutableReferences": {},
  "source": "// SPDX-License-Identifier: MIT\npragma solidity ^0.8.7;\n\nimport '../Oracle/PriceOracleMock.sol';\nimport '@openzeppelin/contracts/utils/math/SafeMath.sol';\n\n\ncontract PriceConsumer {\n  using SafeMath for uint256;\n\n  PriceOracleMock private priceOracle;\n\n  constructor(address _address) {\n    priceOracle = PriceOracleMock(_address);\n  }\n\n  function getCurrPrice(uint32 _assetType) public view returns (uint256) {\n    uint256 price;\n    if (_assetType == 0) {\n      price = priceOracle.btcPrice().div(10 ** 8);\n    } else if (_assetType == 1) {\n      price = priceOracle.ethPrice().div(10 ** 8);\n    } else if (_assetType == 2) {\n      price = priceOracle.linkPrice().div(10 ** 8);\n    }\n    return price;\n  }\n}\n",
  "sourcePath": "/Users/yoonsoo/codestates/BEB-07-final-CDS/contract/contracts/CDS/PriceConsumer.sol",
  "compiler": {
    "name": "solc",
    "version": "0.8.16+commit.07a7930e.Emscripten.clang"
  },
  "schemaVersion": "3.4.11",
  "updatedAt": "2023-03-21T13:59:46.813Z",
  "devdoc": {
    "kind": "dev",
    "methods": {},
    "version": 1
  },
  "userdoc": {
    "kind": "user",
    "methods": {},
    "version": 1
  }
}