{
	"contracts/CDS/CDS.sol": {
		"CDS": {
			"abi": [
				{
					"inputs": [
						{
							"internalType": "uint256",
							"name": "_initAssetPrice",
							"type": "uint256"
						},
						{
							"internalType": "uint256",
							"name": "_claimPrice",
							"type": "uint256"
						},
						{
							"internalType": "uint256",
							"name": "_liquidationPrice",
							"type": "uint256"
						},
						{
							"internalType": "uint256",
							"name": "_premium",
							"type": "uint256"
						},
						{
							"internalType": "uint256",
							"name": "_sellerDeposit",
							"type": "uint256"
						},
						{
							"internalType": "uint32",
							"name": "_rounds",
							"type": "uint32"
						},
						{
							"internalType": "uint32",
							"name": "_assetType",
							"type": "uint32"
						}
					],
					"stateMutability": "nonpayable",
					"type": "constructor"
				},
				{
					"anonymous": false,
					"inputs": [
						{
							"indexed": true,
							"internalType": "address",
							"name": "previousOwner",
							"type": "address"
						},
						{
							"indexed": true,
							"internalType": "address",
							"name": "newOwner",
							"type": "address"
						}
					],
					"name": "OwnershipTransferred",
					"type": "event"
				},
				{
					"inputs": [
						{
							"internalType": "uint256",
							"name": "_initAssetPrice",
							"type": "uint256"
						},
						{
							"internalType": "bool",
							"name": "_isBuyerHost",
							"type": "bool"
						}
					],
					"name": "accept",
					"outputs": [],
					"stateMutability": "nonpayable",
					"type": "function"
				},
				{
					"inputs": [],
					"name": "assetType",
					"outputs": [
						{
							"internalType": "uint32",
							"name": "",
							"type": "uint32"
						}
					],
					"stateMutability": "view",
					"type": "function"
				},
				{
					"inputs": [],
					"name": "cancel",
					"outputs": [],
					"stateMutability": "nonpayable",
					"type": "function"
				},
				{
					"inputs": [],
					"name": "checkPayDatePassed",
					"outputs": [
						{
							"internalType": "bool",
							"name": "",
							"type": "bool"
						}
					],
					"stateMutability": "view",
					"type": "function"
				},
				{
					"inputs": [],
					"name": "checkRoundsZero",
					"outputs": [
						{
							"internalType": "bool",
							"name": "",
							"type": "bool"
						}
					],
					"stateMutability": "view",
					"type": "function"
				},
				{
					"inputs": [],
					"name": "claim",
					"outputs": [],
					"stateMutability": "nonpayable",
					"type": "function"
				},
				{
					"inputs": [],
					"name": "claimPrice",
					"outputs": [
						{
							"internalType": "uint256",
							"name": "",
							"type": "uint256"
						}
					],
					"stateMutability": "view",
					"type": "function"
				},
				{
					"inputs": [],
					"name": "close",
					"outputs": [],
					"stateMutability": "nonpayable",
					"type": "function"
				},
				{
					"inputs": [],
					"name": "getAmountOfAsset",
					"outputs": [
						{
							"internalType": "uint256",
							"name": "",
							"type": "uint256"
						}
					],
					"stateMutability": "view",
					"type": "function"
				},
				{
					"inputs": [],
					"name": "getBuyer",
					"outputs": [
						{
							"internalType": "address",
							"name": "",
							"type": "address"
						}
					],
					"stateMutability": "view",
					"type": "function"
				},
				{
					"inputs": [],
					"name": "getClaimReward",
					"outputs": [
						{
							"internalType": "uint256",
							"name": "",
							"type": "uint256"
						}
					],
					"stateMutability": "view",
					"type": "function"
				},
				{
					"inputs": [
						{
							"internalType": "uint32",
							"name": "_assetType",
							"type": "uint32"
						}
					],
					"name": "getCurrPrice",
					"outputs": [
						{
							"internalType": "uint256",
							"name": "",
							"type": "uint256"
						}
					],
					"stateMutability": "view",
					"type": "function"
				},
				{
					"inputs": [],
					"name": "getPrices",
					"outputs": [
						{
							"internalType": "uint256[5]",
							"name": "",
							"type": "uint256[5]"
						}
					],
					"stateMutability": "view",
					"type": "function"
				},
				{
					"inputs": [],
					"name": "getSeller",
					"outputs": [
						{
							"internalType": "address",
							"name": "",
							"type": "address"
						}
					],
					"stateMutability": "view",
					"type": "function"
				},
				{
					"inputs": [],
					"name": "initAssetPrice",
					"outputs": [
						{
							"internalType": "uint256",
							"name": "",
							"type": "uint256"
						}
					],
					"stateMutability": "view",
					"type": "function"
				},
				{
					"inputs": [],
					"name": "liquidationPrice",
					"outputs": [
						{
							"internalType": "uint256",
							"name": "",
							"type": "uint256"
						}
					],
					"stateMutability": "view",
					"type": "function"
				},
				{
					"inputs": [],
					"name": "nextPayDate",
					"outputs": [
						{
							"internalType": "uint256",
							"name": "",
							"type": "uint256"
						}
					],
					"stateMutability": "view",
					"type": "function"
				},
				{
					"inputs": [],
					"name": "owner",
					"outputs": [
						{
							"internalType": "address",
							"name": "",
							"type": "address"
						}
					],
					"stateMutability": "view",
					"type": "function"
				},
				{
					"inputs": [],
					"name": "premium",
					"outputs": [
						{
							"internalType": "uint256",
							"name": "",
							"type": "uint256"
						}
					],
					"stateMutability": "view",
					"type": "function"
				},
				{
					"inputs": [],
					"name": "premiumPaid",
					"outputs": [],
					"stateMutability": "nonpayable",
					"type": "function"
				},
				{
					"inputs": [],
					"name": "renounceOwnership",
					"outputs": [],
					"stateMutability": "nonpayable",
					"type": "function"
				},
				{
					"inputs": [],
					"name": "rounds",
					"outputs": [
						{
							"internalType": "uint32",
							"name": "",
							"type": "uint32"
						}
					],
					"stateMutability": "view",
					"type": "function"
				},
				{
					"inputs": [],
					"name": "sellerDeposit",
					"outputs": [
						{
							"internalType": "uint256",
							"name": "",
							"type": "uint256"
						}
					],
					"stateMutability": "view",
					"type": "function"
				},
				{
					"inputs": [
						{
							"internalType": "address",
							"name": "_buyer",
							"type": "address"
						}
					],
					"name": "setBuyer",
					"outputs": [
						{
							"internalType": "address",
							"name": "",
							"type": "address"
						}
					],
					"stateMutability": "nonpayable",
					"type": "function"
				},
				{
					"inputs": [
						{
							"internalType": "uint256",
							"name": "_initAssetPrice",
							"type": "uint256"
						}
					],
					"name": "setInitAssetPrice",
					"outputs": [
						{
							"internalType": "uint256",
							"name": "",
							"type": "uint256"
						}
					],
					"stateMutability": "nonpayable",
					"type": "function"
				},
				{
					"inputs": [
						{
							"internalType": "address",
							"name": "_participants",
							"type": "address"
						},
						{
							"internalType": "bool",
							"name": "_isBuyer",
							"type": "bool"
						}
					],
					"name": "setParticipants",
					"outputs": [],
					"stateMutability": "nonpayable",
					"type": "function"
				},
				{
					"inputs": [
						{
							"internalType": "address",
							"name": "_seller",
							"type": "address"
						}
					],
					"name": "setSeller",
					"outputs": [
						{
							"internalType": "address",
							"name": "",
							"type": "address"
						}
					],
					"stateMutability": "nonpayable",
					"type": "function"
				},
				{
					"inputs": [],
					"name": "status",
					"outputs": [
						{
							"internalType": "enum CDS.Status",
							"name": "",
							"type": "uint8"
						}
					],
					"stateMutability": "view",
					"type": "function"
				},
				{
					"inputs": [],
					"name": "totalRounds",
					"outputs": [
						{
							"internalType": "uint32",
							"name": "",
							"type": "uint32"
						}
					],
					"stateMutability": "view",
					"type": "function"
				},
				{
					"inputs": [
						{
							"internalType": "address",
							"name": "newOwner",
							"type": "address"
						}
					],
					"name": "transferOwnership",
					"outputs": [],
					"stateMutability": "nonpayable",
					"type": "function"
				}
			],
			"devdoc": {
				"kind": "dev",
				"methods": {
					"owner()": {
						"details": "Returns the address of the current owner."
					},
					"renounceOwnership()": {
						"details": "Leaves the contract without owner. It will not be possible to call `onlyOwner` functions anymore. Can only be called by the current owner. NOTE: Renouncing ownership will leave the contract without an owner, thereby removing any functionality that is only available to the owner."
					},
					"transferOwnership(address)": {
						"details": "Transfers ownership of the contract to a new account (`newOwner`). Can only be called by the current owner."
					}
				},
				"version": 1
			},
			"evm": {
				"assembly": "    /* \"contracts/CDS/CDS.sol\":208:4521  contract CDS is Ownable, PriceConsumer(0x21558C2cDA098e7e0ac7d38775B3E2b4a0945222) {... */\n  mstore(0x40, 0x80)\n    /* \"contracts/CDS/CDS.sol\":791:1427  constructor(... */\n  callvalue\n  dup1\n  iszero\n  tag_1\n  jumpi\n  0x00\n  dup1\n  revert\ntag_1:\n  pop\n  mload(0x40)\n  sub(codesize, bytecodeSize)\n  dup1\n  bytecodeSize\n  dup4\n  codecopy\n  dup2\n  dup2\n  add\n  0x40\n  mstore\n  dup2\n  add\n  swap1\n  tag_2\n  swap2\n  swap1\n  tag_3\n  jump\t// in\ntag_2:\n    /* \"contracts/CDS/CDS.sol\":247:289  0x21558C2cDA098e7e0ac7d38775B3E2b4a0945222 */\n  0x21558c2cda098e7e0ac7d38775b3e2b4a0945222\n    /* \"@openzeppelin/contracts/access/Ownable.sol\":936:968  _transferOwnership(_msgSender()) */\n  tag_8\n    /* \"@openzeppelin/contracts/access/Ownable.sol\":955:967  _msgSender() */\n  tag_9\n    /* \"@openzeppelin/contracts/access/Ownable.sol\":955:965  _msgSender */\n  shl(0x20, tag_10)\n    /* \"@openzeppelin/contracts/access/Ownable.sol\":955:967  _msgSender() */\n  0x20\n  shr\n  jump\t// in\ntag_9:\n    /* \"@openzeppelin/contracts/access/Ownable.sol\":936:954  _transferOwnership */\n  shl(0x20, tag_11)\n    /* \"@openzeppelin/contracts/access/Ownable.sol\":936:968  _transferOwnership(_msgSender()) */\n  0x20\n  shr\n  jump\t// in\ntag_8:\n    /* \"contracts/CDS/PriceConsumer.sol\":321:329  _address */\n  dup1\n    /* \"contracts/CDS/PriceConsumer.sol\":291:302  priceOracle */\n  0x01\n  0x00\n    /* \"contracts/CDS/PriceConsumer.sol\":291:330  priceOracle = PriceOracleMock(_address) */\n  0x0100\n  exp\n  dup2\n  sload\n  dup2\n  0xffffffffffffffffffffffffffffffffffffffff\n  mul\n  not\n  and\n  swap1\n  dup4\n  0xffffffffffffffffffffffffffffffffffffffff\n  and\n  mul\n  or\n  swap1\n  sstore\n  pop\n    /* \"contracts/CDS/PriceConsumer.sol\":255:335  constructor(address _address) {... */\n  pop\n    /* \"contracts/CDS/CDS.sol\":1008:1023  _initAssetPrice */\n  dup7\n    /* \"contracts/CDS/CDS.sol\":991:1005  initAssetPrice */\n  0x03\n    /* \"contracts/CDS/CDS.sol\":991:1023  initAssetPrice = _initAssetPrice */\n  dup2\n  swap1\n  sstore\n  pop\n    /* \"contracts/CDS/CDS.sol\":1042:1053  _claimPrice */\n  dup6\n    /* \"contracts/CDS/CDS.sol\":1029:1039  claimPrice */\n  0x04\n    /* \"contracts/CDS/CDS.sol\":1029:1053  claimPrice = _claimPrice */\n  dup2\n  swap1\n  sstore\n  pop\n    /* \"contracts/CDS/CDS.sol\":1078:1095  _liquidationPrice */\n  dup5\n    /* \"contracts/CDS/CDS.sol\":1059:1075  liquidationPrice */\n  0x05\n    /* \"contracts/CDS/CDS.sol\":1059:1095  liquidationPrice = _liquidationPrice */\n  dup2\n  swap1\n  sstore\n  pop\n    /* \"contracts/CDS/CDS.sol\":1111:1119  _premium */\n  dup4\n    /* \"contracts/CDS/CDS.sol\":1101:1108  premium */\n  0x06\n    /* \"contracts/CDS/CDS.sol\":1101:1119  premium = _premium */\n  dup2\n  swap1\n  sstore\n  pop\n    /* \"contracts/CDS/CDS.sol\":1141:1155  _sellerDeposit */\n  dup3\n    /* \"contracts/CDS/CDS.sol\":1125:1138  sellerDeposit */\n  0x07\n    /* \"contracts/CDS/CDS.sol\":1125:1155  sellerDeposit = _sellerDeposit */\n  dup2\n  swap1\n  sstore\n  pop\n    /* \"contracts/CDS/CDS.sol\":1170:1177  _rounds */\n  dup2\n    /* \"contracts/CDS/CDS.sol\":1161:1167  rounds */\n  0x0a\n  0x14\n    /* \"contracts/CDS/CDS.sol\":1161:1177  rounds = _rounds */\n  0x0100\n  exp\n  dup2\n  sload\n  dup2\n  0xffffffff\n  mul\n  not\n  and\n  swap1\n  dup4\n  0xffffffff\n  and\n  mul\n  or\n  swap1\n  sstore\n  pop\n    /* \"contracts/CDS/CDS.sol\":1197:1204  _rounds */\n  dup2\n    /* \"contracts/CDS/CDS.sol\":1183:1194  totalRounds */\n  0x0a\n  0x18\n    /* \"contracts/CDS/CDS.sol\":1183:1204  totalRounds = _rounds */\n  0x0100\n  exp\n  dup2\n  sload\n  dup2\n  0xffffffff\n  mul\n  not\n  and\n  swap1\n  dup4\n  0xffffffff\n  and\n  mul\n  or\n  swap1\n  sstore\n  pop\n    /* \"contracts/CDS/CDS.sol\":1240:1241  0 */\n  0x00\n    /* \"contracts/CDS/CDS.sol\":1226:1236  _assetType */\n  dup2\n    /* \"contracts/CDS/CDS.sol\":1226:1241  _assetType == 0 */\n  0xffffffff\n  and\n  eq\n    /* \"contracts/CDS/CDS.sol\":1226:1260  _assetType == 0 || _assetType == 1 */\n  dup1\n  tag_14\n  jumpi\n  pop\n    /* \"contracts/CDS/CDS.sol\":1259:1260  1 */\n  0x01\n    /* \"contracts/CDS/CDS.sol\":1245:1255  _assetType */\n  dup2\n    /* \"contracts/CDS/CDS.sol\":1245:1260  _assetType == 1 */\n  0xffffffff\n  and\n  eq\n    /* \"contracts/CDS/CDS.sol\":1226:1260  _assetType == 0 || _assetType == 1 */\ntag_14:\n    /* \"contracts/CDS/CDS.sol\":1226:1279  _assetType == 0 || _assetType == 1 || _assetType == 2 */\n  dup1\n  tag_15\n  jumpi\n  pop\n    /* \"contracts/CDS/CDS.sol\":1278:1279  2 */\n  0x02\n    /* \"contracts/CDS/CDS.sol\":1264:1274  _assetType */\n  dup2\n    /* \"contracts/CDS/CDS.sol\":1264:1279  _assetType == 2 */\n  0xffffffff\n  and\n  eq\n    /* \"contracts/CDS/CDS.sol\":1226:1279  _assetType == 0 || _assetType == 1 || _assetType == 2 */\ntag_15:\n    /* \"contracts/CDS/CDS.sol\":1211:1315  require(... */\n  tag_16\n  jumpi\n  mload(0x40)\n  0x08c379a000000000000000000000000000000000000000000000000000000000\n  dup2\n  mstore\n  0x04\n  add\n  tag_17\n  swap1\n  tag_18\n  jump\t// in\ntag_17:\n  mload(0x40)\n  dup1\n  swap2\n  sub\n  swap1\n  revert\ntag_16:\n    /* \"contracts/CDS/CDS.sol\":1333:1343  _assetType */\n  dup1\n    /* \"contracts/CDS/CDS.sol\":1321:1330  assetType */\n  0x0a\n  0x1c\n    /* \"contracts/CDS/CDS.sol\":1321:1343  assetType = _assetType */\n  0x0100\n  exp\n  dup2\n  sload\n  dup2\n  0xffffffff\n  mul\n  not\n  and\n  swap1\n  dup4\n  0xffffffff\n  and\n  mul\n  or\n  swap1\n  sstore\n  pop\n    /* \"contracts/CDS/CDS.sol\":1366:1367  0 */\n  0x00\n    /* \"contracts/CDS/CDS.sol\":1350:1355  buyer */\n  0x09\n  0x00\n    /* \"contracts/CDS/CDS.sol\":1350:1368  buyer = address(0) */\n  0x0100\n  exp\n  dup2\n  sload\n  dup2\n  0xffffffffffffffffffffffffffffffffffffffff\n  mul\n  not\n  and\n  swap1\n  dup4\n  0xffffffffffffffffffffffffffffffffffffffff\n  and\n  mul\n  or\n  swap1\n  sstore\n  pop\n    /* \"contracts/CDS/CDS.sol\":1391:1392  0 */\n  0x00\n    /* \"contracts/CDS/CDS.sol\":1374:1380  seller */\n  0x0a\n  0x00\n    /* \"contracts/CDS/CDS.sol\":1374:1393  seller = address(0) */\n  0x0100\n  exp\n  dup2\n  sload\n  dup2\n  0xffffffffffffffffffffffffffffffffffffffff\n  mul\n  not\n  and\n  swap1\n  dup4\n  0xffffffffffffffffffffffffffffffffffffffff\n  and\n  mul\n  or\n  swap1\n  sstore\n  pop\n    /* \"contracts/CDS/CDS.sol\":1408:1422  Status.pending */\n  0x01\n    /* \"contracts/CDS/CDS.sol\":1399:1405  status */\n  0x02\n  0x14\n    /* \"contracts/CDS/CDS.sol\":1399:1422  status = Status.pending */\n  0x0100\n  exp\n  dup2\n  sload\n  dup2\n  0xff\n  mul\n  not\n  and\n  swap1\n  dup4\n  0x04\n  dup2\n  gt\n  iszero\n  tag_19\n  jumpi\n  tag_20\n  tag_21\n  jump\t// in\ntag_20:\ntag_19:\n  mul\n  or\n  swap1\n  sstore\n  pop\n    /* \"contracts/CDS/CDS.sol\":791:1427  constructor(... */\n  pop\n  pop\n  pop\n  pop\n  pop\n  pop\n  pop\n    /* \"contracts/CDS/CDS.sol\":208:4521  contract CDS is Ownable, PriceConsumer(0x21558C2cDA098e7e0ac7d38775B3E2b4a0945222) {... */\n  jump(tag_22)\n    /* \"@openzeppelin/contracts/utils/Context.sol\":640:736  function _msgSender() internal view virtual returns (address) {... */\ntag_10:\n    /* \"@openzeppelin/contracts/utils/Context.sol\":693:700  address */\n  0x00\n    /* \"@openzeppelin/contracts/utils/Context.sol\":719:729  msg.sender */\n  caller\n    /* \"@openzeppelin/contracts/utils/Context.sol\":712:729  return msg.sender */\n  swap1\n  pop\n    /* \"@openzeppelin/contracts/utils/Context.sol\":640:736  function _msgSender() internal view virtual returns (address) {... */\n  swap1\n  jump\t// out\n    /* \"@openzeppelin/contracts/access/Ownable.sol\":2433:2620  function _transferOwnership(address newOwner) internal virtual {... */\ntag_11:\n    /* \"@openzeppelin/contracts/access/Ownable.sol\":2506:2522  address oldOwner */\n  0x00\n    /* \"@openzeppelin/contracts/access/Ownable.sol\":2525:2531  _owner */\n  dup1\n  0x00\n  swap1\n  sload\n  swap1\n  0x0100\n  exp\n  swap1\n  div\n  0xffffffffffffffffffffffffffffffffffffffff\n  and\n    /* \"@openzeppelin/contracts/access/Ownable.sol\":2506:2531  address oldOwner = _owner */\n  swap1\n  pop\n    /* \"@openzeppelin/contracts/access/Ownable.sol\":2550:2558  newOwner */\n  dup2\n    /* \"@openzeppelin/contracts/access/Ownable.sol\":2541:2547  _owner */\n  0x00\n  dup1\n    /* \"@openzeppelin/contracts/access/Ownable.sol\":2541:2558  _owner = newOwner */\n  0x0100\n  exp\n  dup2\n  sload\n  dup2\n  0xffffffffffffffffffffffffffffffffffffffff\n  mul\n  not\n  and\n  swap1\n  dup4\n  0xffffffffffffffffffffffffffffffffffffffff\n  and\n  mul\n  or\n  swap1\n  sstore\n  pop\n    /* \"@openzeppelin/contracts/access/Ownable.sol\":2604:2612  newOwner */\n  dup2\n    /* \"@openzeppelin/contracts/access/Ownable.sol\":2573:2613  OwnershipTransferred(oldOwner, newOwner) */\n  0xffffffffffffffffffffffffffffffffffffffff\n  and\n    /* \"@openzeppelin/contracts/access/Ownable.sol\":2594:2602  oldOwner */\n  dup2\n    /* \"@openzeppelin/contracts/access/Ownable.sol\":2573:2613  OwnershipTransferred(oldOwner, newOwner) */\n  0xffffffffffffffffffffffffffffffffffffffff\n  and\n  0x8be0079c531659141344cd1fd0a4f28419497f9722a3daafe3b4186f6b6457e0\n  mload(0x40)\n  mload(0x40)\n  dup1\n  swap2\n  sub\n  swap1\n  log3\n    /* \"@openzeppelin/contracts/access/Ownable.sol\":2496:2620  {... */\n  pop\n    /* \"@openzeppelin/contracts/access/Ownable.sol\":2433:2620  function _transferOwnership(address newOwner) internal virtual {... */\n  pop\n  jump\t// out\n    /* \"#utility.yul\":88:205   */\ntag_26:\n    /* \"#utility.yul\":197:198   */\n  0x00\n    /* \"#utility.yul\":194:195   */\n  dup1\n    /* \"#utility.yul\":187:199   */\n  revert\n    /* \"#utility.yul\":334:411   */\ntag_28:\n    /* \"#utility.yul\":371:378   */\n  0x00\n    /* \"#utility.yul\":400:405   */\n  dup2\n    /* \"#utility.yul\":389:405   */\n  swap1\n  pop\n    /* \"#utility.yul\":334:411   */\n  swap2\n  swap1\n  pop\n  jump\t// out\n    /* \"#utility.yul\":417:539   */\ntag_29:\n    /* \"#utility.yul\":490:514   */\n  tag_43\n    /* \"#utility.yul\":508:513   */\n  dup2\n    /* \"#utility.yul\":490:514   */\n  tag_28\n  jump\t// in\ntag_43:\n    /* \"#utility.yul\":483:488   */\n  dup2\n    /* \"#utility.yul\":480:515   */\n  eq\n    /* \"#utility.yul\":470:533   */\n  tag_44\n  jumpi\n    /* \"#utility.yul\":529:530   */\n  0x00\n    /* \"#utility.yul\":526:527   */\n  dup1\n    /* \"#utility.yul\":519:531   */\n  revert\n    /* \"#utility.yul\":470:533   */\ntag_44:\n    /* \"#utility.yul\":417:539   */\n  pop\n  jump\t// out\n    /* \"#utility.yul\":545:688   */\ntag_30:\n    /* \"#utility.yul\":602:607   */\n  0x00\n    /* \"#utility.yul\":633:639   */\n  dup2\n    /* \"#utility.yul\":627:640   */\n  mload\n    /* \"#utility.yul\":618:640   */\n  swap1\n  pop\n    /* \"#utility.yul\":649:682   */\n  tag_46\n    /* \"#utility.yul\":676:681   */\n  dup2\n    /* \"#utility.yul\":649:682   */\n  tag_29\n  jump\t// in\ntag_46:\n    /* \"#utility.yul\":545:688   */\n  swap3\n  swap2\n  pop\n  pop\n  jump\t// out\n    /* \"#utility.yul\":694:787   */\ntag_31:\n    /* \"#utility.yul\":730:737   */\n  0x00\n    /* \"#utility.yul\":770:780   */\n  0xffffffff\n    /* \"#utility.yul\":763:768   */\n  dup3\n    /* \"#utility.yul\":759:781   */\n  and\n    /* \"#utility.yul\":748:781   */\n  swap1\n  pop\n    /* \"#utility.yul\":694:787   */\n  swap2\n  swap1\n  pop\n  jump\t// out\n    /* \"#utility.yul\":793:913   */\ntag_32:\n    /* \"#utility.yul\":865:888   */\n  tag_49\n    /* \"#utility.yul\":882:887   */\n  dup2\n    /* \"#utility.yul\":865:888   */\n  tag_31\n  jump\t// in\ntag_49:\n    /* \"#utility.yul\":858:863   */\n  dup2\n    /* \"#utility.yul\":855:889   */\n  eq\n    /* \"#utility.yul\":845:907   */\n  tag_50\n  jumpi\n    /* \"#utility.yul\":903:904   */\n  0x00\n    /* \"#utility.yul\":900:901   */\n  dup1\n    /* \"#utility.yul\":893:905   */\n  revert\n    /* \"#utility.yul\":845:907   */\ntag_50:\n    /* \"#utility.yul\":793:913   */\n  pop\n  jump\t// out\n    /* \"#utility.yul\":919:1060   */\ntag_33:\n    /* \"#utility.yul\":975:980   */\n  0x00\n    /* \"#utility.yul\":1006:1012   */\n  dup2\n    /* \"#utility.yul\":1000:1013   */\n  mload\n    /* \"#utility.yul\":991:1013   */\n  swap1\n  pop\n    /* \"#utility.yul\":1022:1054   */\n  tag_52\n    /* \"#utility.yul\":1048:1053   */\n  dup2\n    /* \"#utility.yul\":1022:1054   */\n  tag_32\n  jump\t// in\ntag_52:\n    /* \"#utility.yul\":919:1060   */\n  swap3\n  swap2\n  pop\n  pop\n  jump\t// out\n    /* \"#utility.yul\":1066:2353   */\ntag_3:\n    /* \"#utility.yul\":1188:1194   */\n  0x00\n    /* \"#utility.yul\":1196:1202   */\n  dup1\n    /* \"#utility.yul\":1204:1210   */\n  0x00\n    /* \"#utility.yul\":1212:1218   */\n  dup1\n    /* \"#utility.yul\":1220:1226   */\n  0x00\n    /* \"#utility.yul\":1228:1234   */\n  dup1\n    /* \"#utility.yul\":1236:1242   */\n  0x00\n    /* \"#utility.yul\":1285:1288   */\n  0xe0\n    /* \"#utility.yul\":1273:1282   */\n  dup9\n    /* \"#utility.yul\":1264:1271   */\n  dup11\n    /* \"#utility.yul\":1260:1283   */\n  sub\n    /* \"#utility.yul\":1256:1289   */\n  slt\n    /* \"#utility.yul\":1253:1373   */\n  iszero\n  tag_54\n  jumpi\n    /* \"#utility.yul\":1292:1371   */\n  tag_55\n  tag_26\n  jump\t// in\ntag_55:\n    /* \"#utility.yul\":1253:1373   */\ntag_54:\n    /* \"#utility.yul\":1412:1413   */\n  0x00\n    /* \"#utility.yul\":1437:1501   */\n  tag_56\n    /* \"#utility.yul\":1493:1500   */\n  dup11\n    /* \"#utility.yul\":1484:1490   */\n  dup3\n    /* \"#utility.yul\":1473:1482   */\n  dup12\n    /* \"#utility.yul\":1469:1491   */\n  add\n    /* \"#utility.yul\":1437:1501   */\n  tag_30\n  jump\t// in\ntag_56:\n    /* \"#utility.yul\":1427:1501   */\n  swap8\n  pop\n    /* \"#utility.yul\":1383:1511   */\n  pop\n    /* \"#utility.yul\":1550:1552   */\n  0x20\n    /* \"#utility.yul\":1576:1640   */\n  tag_57\n    /* \"#utility.yul\":1632:1639   */\n  dup11\n    /* \"#utility.yul\":1623:1629   */\n  dup3\n    /* \"#utility.yul\":1612:1621   */\n  dup12\n    /* \"#utility.yul\":1608:1630   */\n  add\n    /* \"#utility.yul\":1576:1640   */\n  tag_30\n  jump\t// in\ntag_57:\n    /* \"#utility.yul\":1566:1640   */\n  swap7\n  pop\n    /* \"#utility.yul\":1521:1650   */\n  pop\n    /* \"#utility.yul\":1689:1691   */\n  0x40\n    /* \"#utility.yul\":1715:1779   */\n  tag_58\n    /* \"#utility.yul\":1771:1778   */\n  dup11\n    /* \"#utility.yul\":1762:1768   */\n  dup3\n    /* \"#utility.yul\":1751:1760   */\n  dup12\n    /* \"#utility.yul\":1747:1769   */\n  add\n    /* \"#utility.yul\":1715:1779   */\n  tag_30\n  jump\t// in\ntag_58:\n    /* \"#utility.yul\":1705:1779   */\n  swap6\n  pop\n    /* \"#utility.yul\":1660:1789   */\n  pop\n    /* \"#utility.yul\":1828:1830   */\n  0x60\n    /* \"#utility.yul\":1854:1918   */\n  tag_59\n    /* \"#utility.yul\":1910:1917   */\n  dup11\n    /* \"#utility.yul\":1901:1907   */\n  dup3\n    /* \"#utility.yul\":1890:1899   */\n  dup12\n    /* \"#utility.yul\":1886:1908   */\n  add\n    /* \"#utility.yul\":1854:1918   */\n  tag_30\n  jump\t// in\ntag_59:\n    /* \"#utility.yul\":1844:1918   */\n  swap5\n  pop\n    /* \"#utility.yul\":1799:1928   */\n  pop\n    /* \"#utility.yul\":1967:1970   */\n  0x80\n    /* \"#utility.yul\":1994:2058   */\n  tag_60\n    /* \"#utility.yul\":2050:2057   */\n  dup11\n    /* \"#utility.yul\":2041:2047   */\n  dup3\n    /* \"#utility.yul\":2030:2039   */\n  dup12\n    /* \"#utility.yul\":2026:2048   */\n  add\n    /* \"#utility.yul\":1994:2058   */\n  tag_30\n  jump\t// in\ntag_60:\n    /* \"#utility.yul\":1984:2058   */\n  swap4\n  pop\n    /* \"#utility.yul\":1938:2068   */\n  pop\n    /* \"#utility.yul\":2107:2110   */\n  0xa0\n    /* \"#utility.yul\":2134:2197   */\n  tag_61\n    /* \"#utility.yul\":2189:2196   */\n  dup11\n    /* \"#utility.yul\":2180:2186   */\n  dup3\n    /* \"#utility.yul\":2169:2178   */\n  dup12\n    /* \"#utility.yul\":2165:2187   */\n  add\n    /* \"#utility.yul\":2134:2197   */\n  tag_33\n  jump\t// in\ntag_61:\n    /* \"#utility.yul\":2124:2197   */\n  swap3\n  pop\n    /* \"#utility.yul\":2078:2207   */\n  pop\n    /* \"#utility.yul\":2246:2249   */\n  0xc0\n    /* \"#utility.yul\":2273:2336   */\n  tag_62\n    /* \"#utility.yul\":2328:2335   */\n  dup11\n    /* \"#utility.yul\":2319:2325   */\n  dup3\n    /* \"#utility.yul\":2308:2317   */\n  dup12\n    /* \"#utility.yul\":2304:2326   */\n  add\n    /* \"#utility.yul\":2273:2336   */\n  tag_33\n  jump\t// in\ntag_62:\n    /* \"#utility.yul\":2263:2336   */\n  swap2\n  pop\n    /* \"#utility.yul\":2217:2346   */\n  pop\n    /* \"#utility.yul\":1066:2353   */\n  swap3\n  swap6\n  swap9\n  swap2\n  swap5\n  swap8\n  pop\n  swap3\n  swap6\n  pop\n  jump\t// out\n    /* \"#utility.yul\":2359:2528   */\ntag_34:\n    /* \"#utility.yul\":2443:2454   */\n  0x00\n    /* \"#utility.yul\":2477:2483   */\n  dup3\n    /* \"#utility.yul\":2472:2475   */\n  dup3\n    /* \"#utility.yul\":2465:2484   */\n  mstore\n    /* \"#utility.yul\":2517:2521   */\n  0x20\n    /* \"#utility.yul\":2512:2515   */\n  dup3\n    /* \"#utility.yul\":2508:2522   */\n  add\n    /* \"#utility.yul\":2493:2522   */\n  swap1\n  pop\n    /* \"#utility.yul\":2359:2528   */\n  swap3\n  swap2\n  pop\n  pop\n  jump\t// out\n    /* \"#utility.yul\":2534:2704   */\ntag_35:\n    /* \"#utility.yul\":2674:2696   */\n  0x4254433a302c204554483a312c204c494e4b3a32000000000000000000000000\n    /* \"#utility.yul\":2670:2671   */\n  0x00\n    /* \"#utility.yul\":2662:2668   */\n  dup3\n    /* \"#utility.yul\":2658:2672   */\n  add\n    /* \"#utility.yul\":2651:2697   */\n  mstore\n    /* \"#utility.yul\":2534:2704   */\n  pop\n  jump\t// out\n    /* \"#utility.yul\":2710:3076   */\ntag_36:\n    /* \"#utility.yul\":2852:2855   */\n  0x00\n    /* \"#utility.yul\":2873:2940   */\n  tag_66\n    /* \"#utility.yul\":2937:2939   */\n  0x14\n    /* \"#utility.yul\":2932:2935   */\n  dup4\n    /* \"#utility.yul\":2873:2940   */\n  tag_34\n  jump\t// in\ntag_66:\n    /* \"#utility.yul\":2866:2940   */\n  swap2\n  pop\n    /* \"#utility.yul\":2949:3042   */\n  tag_67\n    /* \"#utility.yul\":3038:3041   */\n  dup3\n    /* \"#utility.yul\":2949:3042   */\n  tag_35\n  jump\t// in\ntag_67:\n    /* \"#utility.yul\":3067:3069   */\n  0x20\n    /* \"#utility.yul\":3062:3065   */\n  dup3\n    /* \"#utility.yul\":3058:3070   */\n  add\n    /* \"#utility.yul\":3051:3070   */\n  swap1\n  pop\n    /* \"#utility.yul\":2710:3076   */\n  swap2\n  swap1\n  pop\n  jump\t// out\n    /* \"#utility.yul\":3082:3501   */\ntag_18:\n    /* \"#utility.yul\":3248:3252   */\n  0x00\n    /* \"#utility.yul\":3286:3288   */\n  0x20\n    /* \"#utility.yul\":3275:3284   */\n  dup3\n    /* \"#utility.yul\":3271:3289   */\n  add\n    /* \"#utility.yul\":3263:3289   */\n  swap1\n  pop\n    /* \"#utility.yul\":3335:3344   */\n  dup2\n    /* \"#utility.yul\":3329:3333   */\n  dup2\n    /* \"#utility.yul\":3325:3345   */\n  sub\n    /* \"#utility.yul\":3321:3322   */\n  0x00\n    /* \"#utility.yul\":3310:3319   */\n  dup4\n    /* \"#utility.yul\":3306:3323   */\n  add\n    /* \"#utility.yul\":3299:3346   */\n  mstore\n    /* \"#utility.yul\":3363:3494   */\n  tag_69\n    /* \"#utility.yul\":3489:3493   */\n  dup2\n    /* \"#utility.yul\":3363:3494   */\n  tag_36\n  jump\t// in\ntag_69:\n    /* \"#utility.yul\":3355:3494   */\n  swap1\n  pop\n    /* \"#utility.yul\":3082:3501   */\n  swap2\n  swap1\n  pop\n  jump\t// out\n    /* \"#utility.yul\":3507:3687   */\ntag_21:\n    /* \"#utility.yul\":3555:3632   */\n  0x4e487b7100000000000000000000000000000000000000000000000000000000\n    /* \"#utility.yul\":3552:3553   */\n  0x00\n    /* \"#utility.yul\":3545:3633   */\n  mstore\n    /* \"#utility.yul\":3652:3656   */\n  0x21\n    /* \"#utility.yul\":3649:3650   */\n  0x04\n    /* \"#utility.yul\":3642:3657   */\n  mstore\n    /* \"#utility.yul\":3676:3680   */\n  0x24\n    /* \"#utility.yul\":3673:3674   */\n  0x00\n    /* \"#utility.yul\":3666:3681   */\n  revert\n    /* \"contracts/CDS/CDS.sol\":208:4521  contract CDS is Ownable, PriceConsumer(0x21558C2cDA098e7e0ac7d38775B3E2b4a0945222) {... */\ntag_22:\n  dataSize(sub_0)\n  dup1\n  dataOffset(sub_0)\n  0x00\n  codecopy\n  0x00\n  return\nstop\n\nsub_0: assembly {\n        /* \"contracts/CDS/CDS.sol\":208:4521  contract CDS is Ownable, PriceConsumer(0x21558C2cDA098e7e0ac7d38775B3E2b4a0945222) {... */\n      mstore(0x40, 0x80)\n      callvalue\n      dup1\n      iszero\n      tag_1\n      jumpi\n      0x00\n      dup1\n      revert\n    tag_1:\n      pop\n      jumpi(tag_2, lt(calldatasize, 0x04))\n      shr(0xe0, calldataload(0x00))\n      dup1\n      0xa3f09ad6\n      gt\n      tag_33\n      jumpi\n      dup1\n      0xdbd0e1b6\n      gt\n      tag_34\n      jumpi\n      dup1\n      0xf26cc58e\n      gt\n      tag_35\n      jumpi\n      dup1\n      0xf26cc58e\n      eq\n      tag_29\n      jumpi\n      dup1\n      0xf2fde38b\n      eq\n      tag_30\n      jumpi\n      dup1\n      0xfcb341df\n      eq\n      tag_31\n      jumpi\n      dup1\n      0xffd0e69f\n      eq\n      tag_32\n      jumpi\n      jump(tag_2)\n    tag_35:\n      dup1\n      0xdbd0e1b6\n      eq\n      tag_25\n      jumpi\n      dup1\n      0xe0a73a93\n      eq\n      tag_26\n      jumpi\n      dup1\n      0xe99d2866\n      eq\n      tag_27\n      jumpi\n      dup1\n      0xea8a1af0\n      eq\n      tag_28\n      jumpi\n      jump(tag_2)\n    tag_34:\n      dup1\n      0xbd9a548b\n      gt\n      tag_36\n      jumpi\n      dup1\n      0xbd9a548b\n      eq\n      tag_21\n      jumpi\n      dup1\n      0xbef904e3\n      eq\n      tag_22\n      jumpi\n      dup1\n      0xcbed2449\n      eq\n      tag_23\n      jumpi\n      dup1\n      0xd8683798\n      eq\n      tag_24\n      jumpi\n      jump(tag_2)\n    tag_36:\n      dup1\n      0xa3f09ad6\n      eq\n      tag_18\n      jumpi\n      dup1\n      0xb6fc2d5f\n      eq\n      tag_19\n      jumpi\n      dup1\n      0xbab215f8\n      eq\n      tag_20\n      jumpi\n      jump(tag_2)\n    tag_33:\n      dup1\n      0x5b6a251b\n      gt\n      tag_37\n      jumpi\n      dup1\n      0x86be75b7\n      gt\n      tag_38\n      jumpi\n      dup1\n      0x86be75b7\n      eq\n      tag_14\n      jumpi\n      dup1\n      0x8a568299\n      eq\n      tag_15\n      jumpi\n      dup1\n      0x8da5cb5b\n      eq\n      tag_16\n      jumpi\n      dup1\n      0xa2e800ad\n      eq\n      tag_17\n      jumpi\n      jump(tag_2)\n    tag_38:\n      dup1\n      0x5b6a251b\n      eq\n      tag_10\n      jumpi\n      dup1\n      0x603daf9a\n      eq\n      tag_11\n      jumpi\n      dup1\n      0x715018a6\n      eq\n      tag_12\n      jumpi\n      dup1\n      0x839966af\n      eq\n      tag_13\n      jumpi\n      jump(tag_2)\n    tag_37:\n      dup1\n      0x3fe3347a\n      gt\n      tag_39\n      jumpi\n      dup1\n      0x3fe3347a\n      eq\n      tag_6\n      jumpi\n      dup1\n      0x43d726d6\n      eq\n      tag_7\n      jumpi\n      dup1\n      0x4c1786ea\n      eq\n      tag_8\n      jumpi\n      dup1\n      0x4e71d92d\n      eq\n      tag_9\n      jumpi\n      jump(tag_2)\n    tag_39:\n      dup1\n      0x15d655c9\n      eq\n      tag_3\n      jumpi\n      dup1\n      0x200d2ed2\n      eq\n      tag_4\n      jumpi\n      dup1\n      0x3b41e19c\n      eq\n      tag_5\n      jumpi\n    tag_2:\n      0x00\n      dup1\n      revert\n        /* \"contracts/CDS/CDS.sol\":507:532  uint256 public claimPrice */\n    tag_3:\n      tag_40\n      tag_41\n      jump\t// in\n    tag_40:\n      mload(0x40)\n      tag_42\n      swap2\n      swap1\n      tag_43\n      jump\t// in\n    tag_42:\n      mload(0x40)\n      dup1\n      swap2\n      sub\n      swap1\n      return\n        /* \"contracts/CDS/CDS.sol\":449:469  Status public status */\n    tag_4:\n      tag_44\n      tag_45\n      jump\t// in\n    tag_44:\n      mload(0x40)\n      tag_46\n      swap2\n      swap1\n      tag_47\n      jump\t// in\n    tag_46:\n      mload(0x40)\n      dup1\n      swap2\n      sub\n      swap1\n      return\n        /* \"contracts/CDS/CDS.sol\":1614:1892  function accept(uint256 _initAssetPrice, bool _isBuyerHost) external onlyOwner isPending {... */\n    tag_5:\n      tag_48\n      0x04\n      dup1\n      calldatasize\n      sub\n      dup2\n      add\n      swap1\n      tag_49\n      swap2\n      swap1\n      tag_50\n      jump\t// in\n    tag_49:\n      tag_51\n      jump\t// in\n    tag_48:\n      stop\n        /* \"contracts/CDS/CDS.sol\":763:786  uint32 public assetType */\n    tag_6:\n      tag_52\n      tag_53\n      jump\t// in\n    tag_52:\n      mload(0x40)\n      tag_54\n      swap2\n      swap1\n      tag_55\n      jump\t// in\n    tag_54:\n      mload(0x40)\n      dup1\n      swap2\n      sub\n      swap1\n      return\n        /* \"contracts/CDS/CDS.sol\":1988:2073  function close() external onlyOwner isActive {... */\n    tag_7:\n      tag_56\n      tag_57\n      jump\t// in\n    tag_56:\n      stop\n        /* \"contracts/CDS/CDS.sol\":597:625  uint256 public sellerDeposit */\n    tag_8:\n      tag_58\n      tag_59\n      jump\t// in\n    tag_58:\n      mload(0x40)\n      tag_60\n      swap2\n      swap1\n      tag_43\n      jump\t// in\n    tag_60:\n      mload(0x40)\n      dup1\n      swap2\n      sub\n      swap1\n      return\n        /* \"contracts/CDS/CDS.sol\":2077:2271  function claim() external onlyOwner isActive {... */\n    tag_9:\n      tag_61\n      tag_62\n      jump\t// in\n    tag_61:\n      stop\n        /* \"contracts/CDS/CDS.sol\":1451:1610  function premiumPaid() external onlyOwner isActive {... */\n    tag_10:\n      tag_63\n      tag_64\n      jump\t// in\n    tag_63:\n      stop\n        /* \"contracts/CDS/CDS.sol\":3784:3857  function getBuyer() public view returns (address) {... */\n    tag_11:\n      tag_65\n      tag_66\n      jump\t// in\n    tag_65:\n      mload(0x40)\n      tag_67\n      swap2\n      swap1\n      tag_68\n      jump\t// in\n    tag_67:\n      mload(0x40)\n      dup1\n      swap2\n      sub\n      swap1\n      return\n        /* \"@openzeppelin/contracts/access/Ownable.sol\":1831:1932  function renounceOwnership() public virtual onlyOwner {... */\n    tag_12:\n      tag_69\n      tag_70\n      jump\t// in\n    tag_69:\n      stop\n        /* \"contracts/CDS/CDS.sol\":2375:2493  function checkPayDatePassed() external view isActive returns (bool) {... */\n    tag_13:\n      tag_71\n      tag_72\n      jump\t// in\n    tag_71:\n      mload(0x40)\n      tag_73\n      swap2\n      swap1\n      tag_74\n      jump\t// in\n    tag_73:\n      mload(0x40)\n      dup1\n      swap2\n      sub\n      swap1\n      return\n        /* \"contracts/CDS/CDS.sol\":474:503  uint256 public initAssetPrice */\n    tag_14:\n      tag_75\n      tag_76\n      jump\t// in\n    tag_75:\n      mload(0x40)\n      tag_77\n      swap2\n      swap1\n      tag_43\n      jump\t// in\n    tag_77:\n      mload(0x40)\n      dup1\n      swap2\n      sub\n      swap1\n      return\n        /* \"contracts/CDS/CDS.sol\":734:759  uint32 public totalRounds */\n    tag_15:\n      tag_78\n      tag_79\n      jump\t// in\n    tag_78:\n      mload(0x40)\n      tag_80\n      swap2\n      swap1\n      tag_55\n      jump\t// in\n    tag_80:\n      mload(0x40)\n      dup1\n      swap2\n      sub\n      swap1\n      return\n        /* \"@openzeppelin/contracts/access/Ownable.sol\":1201:1286  function owner() public view virtual returns (address) {... */\n    tag_16:\n      tag_81\n      tag_82\n      jump\t// in\n    tag_81:\n      mload(0x40)\n      tag_83\n      swap2\n      swap1\n      tag_68\n      jump\t// in\n    tag_83:\n      mload(0x40)\n      dup1\n      swap2\n      sub\n      swap1\n      return\n        /* \"contracts/CDS/CDS.sol\":710:730  uint32 public rounds */\n    tag_17:\n      tag_84\n      tag_85\n      jump\t// in\n    tag_84:\n      mload(0x40)\n      tag_86\n      swap2\n      swap1\n      tag_55\n      jump\t// in\n    tag_86:\n      mload(0x40)\n      dup1\n      swap2\n      sub\n      swap1\n      return\n        /* \"contracts/CDS/CDS.sol\":2938:3050  function setBuyer(address _buyer) public onlyOwner returns (address) {... */\n    tag_18:\n      tag_87\n      0x04\n      dup1\n      calldatasize\n      sub\n      dup2\n      add\n      swap1\n      tag_88\n      swap2\n      swap1\n      tag_89\n      jump\t// in\n    tag_88:\n      tag_90\n      jump\t// in\n    tag_87:\n      mload(0x40)\n      tag_91\n      swap2\n      swap1\n      tag_68\n      jump\t// in\n    tag_91:\n      mload(0x40)\n      dup1\n      swap2\n      sub\n      swap1\n      return\n        /* \"contracts/CDS/CDS.sol\":536:567  uint256 public liquidationPrice */\n    tag_19:\n      tag_92\n      tag_93\n      jump\t// in\n    tag_92:\n      mload(0x40)\n      tag_94\n      swap2\n      swap1\n      tag_43\n      jump\t// in\n    tag_94:\n      mload(0x40)\n      dup1\n      swap2\n      sub\n      swap1\n      return\n        /* \"contracts/CDS/CDS.sol\":2782:2934  function setParticipants(address _participants, bool _isBuyer) public onlyOwner {... */\n    tag_20:\n      tag_95\n      0x04\n      dup1\n      calldatasize\n      sub\n      dup2\n      add\n      swap1\n      tag_96\n      swap2\n      swap1\n      tag_97\n      jump\t// in\n    tag_96:\n      tag_98\n      jump\t// in\n    tag_95:\n      stop\n        /* \"contracts/CDS/CDS.sol\":3432:3617  function getPrices() public view returns (uint256[5] memory) {... */\n    tag_21:\n      tag_99\n      tag_100\n      jump\t// in\n    tag_99:\n      mload(0x40)\n      tag_101\n      swap2\n      swap1\n      tag_102\n      jump\t// in\n    tag_101:\n      mload(0x40)\n      dup1\n      swap2\n      sub\n      swap1\n      return\n        /* \"contracts/CDS/CDS.sol\":2511:2658  function setInitAssetPrice(uint256 _initAssetPrice) public returns (uint256) {... */\n    tag_22:\n      tag_103\n      0x04\n      dup1\n      calldatasize\n      sub\n      dup2\n      add\n      swap1\n      tag_104\n      swap2\n      swap1\n      tag_105\n      jump\t// in\n    tag_104:\n      tag_106\n      jump\t// in\n    tag_103:\n      mload(0x40)\n      tag_107\n      swap2\n      swap1\n      tag_43\n      jump\t// in\n    tag_107:\n      mload(0x40)\n      dup1\n      swap2\n      sub\n      swap1\n      return\n        /* \"contracts/CDS/PriceConsumer.sol\":339:707  function getCurrPrice(uint32 _assetType) public view returns (uint256) {... */\n    tag_23:\n      tag_108\n      0x04\n      dup1\n      calldatasize\n      sub\n      dup2\n      add\n      swap1\n      tag_109\n      swap2\n      swap1\n      tag_110\n      jump\t// in\n    tag_109:\n      tag_111\n      jump\t// in\n    tag_108:\n      mload(0x40)\n      tag_112\n      swap2\n      swap1\n      tag_43\n      jump\t// in\n    tag_112:\n      mload(0x40)\n      dup1\n      swap2\n      sub\n      swap1\n      return\n        /* \"contracts/CDS/CDS.sol\":629:655  uint256 public nextPayDate */\n    tag_24:\n      tag_113\n      tag_114\n      jump\t// in\n    tag_113:\n      mload(0x40)\n      tag_115\n      swap2\n      swap1\n      tag_43\n      jump\t// in\n    tag_115:\n      mload(0x40)\n      dup1\n      swap2\n      sub\n      swap1\n      return\n        /* \"contracts/CDS/CDS.sol\":3861:3936  function getSeller() public view returns (address) {... */\n    tag_25:\n      tag_116\n      tag_117\n      jump\t// in\n    tag_116:\n      mload(0x40)\n      tag_118\n      swap2\n      swap1\n      tag_68\n      jump\t// in\n    tag_118:\n      mload(0x40)\n      dup1\n      swap2\n      sub\n      swap1\n      return\n        /* \"contracts/CDS/CDS.sol\":571:593  uint256 public premium */\n    tag_26:\n      tag_119\n      tag_120\n      jump\t// in\n    tag_119:\n      mload(0x40)\n      tag_121\n      swap2\n      swap1\n      tag_43\n      jump\t// in\n    tag_121:\n      mload(0x40)\n      dup1\n      swap2\n      sub\n      swap1\n      return\n        /* \"contracts/CDS/CDS.sol\":3054:3171  function setSeller(address _seller) public onlyOwner returns (address) {... */\n    tag_27:\n      tag_122\n      0x04\n      dup1\n      calldatasize\n      sub\n      dup2\n      add\n      swap1\n      tag_123\n      swap2\n      swap1\n      tag_89\n      jump\t// in\n    tag_123:\n      tag_124\n      jump\t// in\n    tag_122:\n      mload(0x40)\n      tag_125\n      swap2\n      swap1\n      tag_68\n      jump\t// in\n    tag_125:\n      mload(0x40)\n      dup1\n      swap2\n      sub\n      swap1\n      return\n        /* \"contracts/CDS/CDS.sol\":1896:1984  function cancel() external onlyOwner isPending {... */\n    tag_28:\n      tag_126\n      tag_127\n      jump\t// in\n    tag_126:\n      stop\n        /* \"contracts/CDS/CDS.sol\":3940:4231  function getClaimReward() public view returns (uint256) {... */\n    tag_29:\n      tag_128\n      tag_129\n      jump\t// in\n    tag_128:\n      mload(0x40)\n      tag_130\n      swap2\n      swap1\n      tag_43\n      jump\t// in\n    tag_130:\n      mload(0x40)\n      dup1\n      swap2\n      sub\n      swap1\n      return\n        /* \"@openzeppelin/contracts/access/Ownable.sol\":2081:2279  function transferOwnership(address newOwner) public virtual onlyOwner {... */\n    tag_30:\n      tag_131\n      0x04\n      dup1\n      calldatasize\n      sub\n      dup2\n      add\n      swap1\n      tag_132\n      swap2\n      swap1\n      tag_89\n      jump\t// in\n    tag_132:\n      tag_133\n      jump\t// in\n    tag_131:\n      stop\n        /* \"contracts/CDS/CDS.sol\":3621:3780  function getAmountOfAsset() public view returns (uint256) {... */\n    tag_31:\n      tag_134\n      tag_135\n      jump\t// in\n    tag_134:\n      mload(0x40)\n      tag_136\n      swap2\n      swap1\n      tag_43\n      jump\t// in\n    tag_136:\n      mload(0x40)\n      dup1\n      swap2\n      sub\n      swap1\n      return\n        /* \"contracts/CDS/CDS.sol\":2275:2371  function checkRoundsZero() external view isActive returns (bool) {... */\n    tag_32:\n      tag_137\n      tag_138\n      jump\t// in\n    tag_137:\n      mload(0x40)\n      tag_139\n      swap2\n      swap1\n      tag_74\n      jump\t// in\n    tag_139:\n      mload(0x40)\n      dup1\n      swap2\n      sub\n      swap1\n      return\n        /* \"contracts/CDS/CDS.sol\":507:532  uint256 public claimPrice */\n    tag_41:\n      sload(0x04)\n      dup2\n      jump\t// out\n        /* \"contracts/CDS/CDS.sol\":449:469  Status public status */\n    tag_45:\n      0x02\n      0x14\n      swap1\n      sload\n      swap1\n      0x0100\n      exp\n      swap1\n      div\n      0xff\n      and\n      dup2\n      jump\t// out\n        /* \"contracts/CDS/CDS.sol\":1614:1892  function accept(uint256 _initAssetPrice, bool _isBuyerHost) external onlyOwner isPending {... */\n    tag_51:\n        /* \"@openzeppelin/contracts/access/Ownable.sol\":1094:1107  _checkOwner() */\n      tag_141\n        /* \"@openzeppelin/contracts/access/Ownable.sol\":1094:1105  _checkOwner */\n      tag_142\n        /* \"@openzeppelin/contracts/access/Ownable.sol\":1094:1107  _checkOwner() */\n      jump\t// in\n    tag_141:\n        /* \"contracts/CDS/CDS.sol\":4304:4318  Status.pending */\n      0x01\n        /* \"contracts/CDS/CDS.sol\":4294:4318  status == Status.pending */\n      0x04\n      dup2\n      gt\n      iszero\n      tag_144\n      jumpi\n      tag_145\n      tag_146\n      jump\t// in\n    tag_145:\n    tag_144:\n        /* \"contracts/CDS/CDS.sol\":4294:4300  status */\n      0x02\n      0x14\n      swap1\n      sload\n      swap1\n      0x0100\n      exp\n      swap1\n      div\n      0xff\n      and\n        /* \"contracts/CDS/CDS.sol\":4294:4318  status == Status.pending */\n      0x04\n      dup2\n      gt\n      iszero\n      tag_147\n      jumpi\n      tag_148\n      tag_146\n      jump\t// in\n    tag_148:\n    tag_147:\n      eq\n        /* \"contracts/CDS/CDS.sol\":4279:4373  require(... */\n      tag_149\n      jumpi\n      mload(0x40)\n      0x08c379a000000000000000000000000000000000000000000000000000000000\n      dup2\n      mstore\n      0x04\n      add\n      tag_150\n      swap1\n      tag_151\n      jump\t// in\n    tag_150:\n      mload(0x40)\n      dup1\n      swap2\n      sub\n      swap1\n      revert\n    tag_149:\n        /* \"contracts/CDS/CDS.sol\":1709:1743  setInitAssetPrice(_initAssetPrice) */\n      tag_153\n        /* \"contracts/CDS/CDS.sol\":1727:1742  _initAssetPrice */\n      dup3\n        /* \"contracts/CDS/CDS.sol\":1709:1726  setInitAssetPrice */\n      tag_106\n        /* \"contracts/CDS/CDS.sol\":1709:1743  setInitAssetPrice(_initAssetPrice) */\n      jump\t// in\n    tag_153:\n      pop\n        /* \"contracts/CDS/CDS.sol\":1749:1791  setParticipants(msg.sender, !_isBuyerHost) */\n      tag_154\n        /* \"contracts/CDS/CDS.sol\":1765:1775  msg.sender */\n      caller\n        /* \"contracts/CDS/CDS.sol\":1778:1790  _isBuyerHost */\n      dup3\n        /* \"contracts/CDS/CDS.sol\":1777:1790  !_isBuyerHost */\n      iszero\n        /* \"contracts/CDS/CDS.sol\":1749:1764  setParticipants */\n      tag_98\n        /* \"contracts/CDS/CDS.sol\":1749:1791  setParticipants(msg.sender, !_isBuyerHost) */\n      jump\t// in\n    tag_154:\n        /* \"contracts/CDS/CDS.sol\":1797:1825  setStatus(CDS.Status.active) */\n      tag_155\n        /* \"contracts/CDS/CDS.sol\":1807:1824  CDS.Status.active */\n      0x02\n        /* \"contracts/CDS/CDS.sol\":1797:1806  setStatus */\n      tag_156\n        /* \"contracts/CDS/CDS.sol\":1797:1825  setStatus(CDS.Status.active) */\n      jump\t// in\n    tag_155:\n      pop\n        /* \"contracts/CDS/CDS.sol\":1863:1870  4 weeks */\n      0x24ea00\n        /* \"contracts/CDS/CDS.sol\":1845:1860  block.timestamp */\n      timestamp\n        /* \"contracts/CDS/CDS.sol\":1845:1870  block.timestamp + 4 weeks */\n      tag_157\n      swap2\n      swap1\n      tag_158\n      jump\t// in\n    tag_157:\n        /* \"contracts/CDS/CDS.sol\":1831:1842  nextPayDate */\n      0x08\n        /* \"contracts/CDS/CDS.sol\":1831:1870  nextPayDate = block.timestamp + 4 weeks */\n      dup2\n      swap1\n      sstore\n      pop\n        /* \"contracts/CDS/CDS.sol\":1886:1887  1 */\n      0x01\n        /* \"contracts/CDS/CDS.sol\":1876:1882  rounds */\n      0x0a\n      0x14\n        /* \"contracts/CDS/CDS.sol\":1876:1887  rounds -= 1 */\n      dup3\n      dup3\n      dup3\n      swap1\n      sload\n      swap1\n      0x0100\n      exp\n      swap1\n      div\n      0xffffffff\n      and\n      tag_159\n      swap2\n      swap1\n      tag_160\n      jump\t// in\n    tag_159:\n      swap3\n      pop\n      0x0100\n      exp\n      dup2\n      sload\n      dup2\n      0xffffffff\n      mul\n      not\n      and\n      swap1\n      dup4\n      0xffffffff\n      and\n      mul\n      or\n      swap1\n      sstore\n      pop\n        /* \"contracts/CDS/CDS.sol\":1614:1892  function accept(uint256 _initAssetPrice, bool _isBuyerHost) external onlyOwner isPending {... */\n      pop\n      pop\n      jump\t// out\n        /* \"contracts/CDS/CDS.sol\":763:786  uint32 public assetType */\n    tag_53:\n      0x0a\n      0x1c\n      swap1\n      sload\n      swap1\n      0x0100\n      exp\n      swap1\n      div\n      0xffffffff\n      and\n      dup2\n      jump\t// out\n        /* \"contracts/CDS/CDS.sol\":1988:2073  function close() external onlyOwner isActive {... */\n    tag_57:\n        /* \"@openzeppelin/contracts/access/Ownable.sol\":1094:1107  _checkOwner() */\n      tag_162\n        /* \"@openzeppelin/contracts/access/Ownable.sol\":1094:1105  _checkOwner */\n      tag_142\n        /* \"@openzeppelin/contracts/access/Ownable.sol\":1094:1107  _checkOwner() */\n      jump\t// in\n    tag_162:\n        /* \"contracts/CDS/CDS.sol\":4440:4453  Status.active */\n      0x02\n        /* \"contracts/CDS/CDS.sol\":4430:4453  status == Status.active */\n      0x04\n      dup2\n      gt\n      iszero\n      tag_164\n      jumpi\n      tag_165\n      tag_146\n      jump\t// in\n    tag_165:\n    tag_164:\n        /* \"contracts/CDS/CDS.sol\":4430:4436  status */\n      0x02\n      0x14\n      swap1\n      sload\n      swap1\n      0x0100\n      exp\n      swap1\n      div\n      0xff\n      and\n        /* \"contracts/CDS/CDS.sol\":4430:4453  status == Status.active */\n      0x04\n      dup2\n      gt\n      iszero\n      tag_166\n      jumpi\n      tag_167\n      tag_146\n      jump\t// in\n    tag_167:\n    tag_166:\n      eq\n        /* \"contracts/CDS/CDS.sol\":4415:4507  require(... */\n      tag_168\n      jumpi\n      mload(0x40)\n      0x08c379a000000000000000000000000000000000000000000000000000000000\n      dup2\n      mstore\n      0x04\n      add\n      tag_169\n      swap1\n      tag_170\n      jump\t// in\n    tag_169:\n      mload(0x40)\n      dup1\n      swap2\n      sub\n      swap1\n      revert\n    tag_168:\n        /* \"contracts/CDS/CDS.sol\":2039:2068  setStatus(CDS.Status.expired) */\n      tag_172\n        /* \"contracts/CDS/CDS.sol\":2049:2067  CDS.Status.expired */\n      0x04\n        /* \"contracts/CDS/CDS.sol\":2039:2048  setStatus */\n      tag_156\n        /* \"contracts/CDS/CDS.sol\":2039:2068  setStatus(CDS.Status.expired) */\n      jump\t// in\n    tag_172:\n      pop\n        /* \"contracts/CDS/CDS.sol\":1988:2073  function close() external onlyOwner isActive {... */\n      jump\t// out\n        /* \"contracts/CDS/CDS.sol\":597:625  uint256 public sellerDeposit */\n    tag_59:\n      sload(0x07)\n      dup2\n      jump\t// out\n        /* \"contracts/CDS/CDS.sol\":2077:2271  function claim() external onlyOwner isActive {... */\n    tag_62:\n        /* \"@openzeppelin/contracts/access/Ownable.sol\":1094:1107  _checkOwner() */\n      tag_174\n        /* \"@openzeppelin/contracts/access/Ownable.sol\":1094:1105  _checkOwner */\n      tag_142\n        /* \"@openzeppelin/contracts/access/Ownable.sol\":1094:1107  _checkOwner() */\n      jump\t// in\n    tag_174:\n        /* \"contracts/CDS/CDS.sol\":4440:4453  Status.active */\n      0x02\n        /* \"contracts/CDS/CDS.sol\":4430:4453  status == Status.active */\n      0x04\n      dup2\n      gt\n      iszero\n      tag_176\n      jumpi\n      tag_177\n      tag_146\n      jump\t// in\n    tag_177:\n    tag_176:\n        /* \"contracts/CDS/CDS.sol\":4430:4436  status */\n      0x02\n      0x14\n      swap1\n      sload\n      swap1\n      0x0100\n      exp\n      swap1\n      div\n      0xff\n      and\n        /* \"contracts/CDS/CDS.sol\":4430:4453  status == Status.active */\n      0x04\n      dup2\n      gt\n      iszero\n      tag_178\n      jumpi\n      tag_179\n      tag_146\n      jump\t// in\n    tag_179:\n    tag_178:\n      eq\n        /* \"contracts/CDS/CDS.sol\":4415:4507  require(... */\n      tag_180\n      jumpi\n      mload(0x40)\n      0x08c379a000000000000000000000000000000000000000000000000000000000\n      dup2\n      mstore\n      0x04\n      add\n      tag_181\n      swap1\n      tag_170\n      jump\t// in\n    tag_181:\n      mload(0x40)\n      dup1\n      swap2\n      sub\n      swap1\n      revert\n    tag_180:\n        /* \"contracts/CDS/CDS.sol\":2163:2164  0 */\n      0x00\n        /* \"contracts/CDS/CDS.sol\":2143:2159  getClaimReward() */\n      tag_183\n        /* \"contracts/CDS/CDS.sol\":2143:2157  getClaimReward */\n      tag_129\n        /* \"contracts/CDS/CDS.sol\":2143:2159  getClaimReward() */\n      jump\t// in\n    tag_183:\n        /* \"contracts/CDS/CDS.sol\":2143:2164  getClaimReward() != 0 */\n      eq\n      iszero\n        /* \"contracts/CDS/CDS.sol\":2128:2231  require(... */\n      tag_184\n      jumpi\n      mload(0x40)\n      0x08c379a000000000000000000000000000000000000000000000000000000000\n      dup2\n      mstore\n      0x04\n      add\n      tag_185\n      swap1\n      tag_186\n      jump\t// in\n    tag_185:\n      mload(0x40)\n      dup1\n      swap2\n      sub\n      swap1\n      revert\n    tag_184:\n        /* \"contracts/CDS/CDS.sol\":2237:2266  setStatus(CDS.Status.claimed) */\n      tag_187\n        /* \"contracts/CDS/CDS.sol\":2247:2265  CDS.Status.claimed */\n      0x03\n        /* \"contracts/CDS/CDS.sol\":2237:2246  setStatus */\n      tag_156\n        /* \"contracts/CDS/CDS.sol\":2237:2266  setStatus(CDS.Status.claimed) */\n      jump\t// in\n    tag_187:\n      pop\n        /* \"contracts/CDS/CDS.sol\":2077:2271  function claim() external onlyOwner isActive {... */\n      jump\t// out\n        /* \"contracts/CDS/CDS.sol\":1451:1610  function premiumPaid() external onlyOwner isActive {... */\n    tag_64:\n        /* \"@openzeppelin/contracts/access/Ownable.sol\":1094:1107  _checkOwner() */\n      tag_189\n        /* \"@openzeppelin/contracts/access/Ownable.sol\":1094:1105  _checkOwner */\n      tag_142\n        /* \"@openzeppelin/contracts/access/Ownable.sol\":1094:1107  _checkOwner() */\n      jump\t// in\n    tag_189:\n        /* \"contracts/CDS/CDS.sol\":4440:4453  Status.active */\n      0x02\n        /* \"contracts/CDS/CDS.sol\":4430:4453  status == Status.active */\n      0x04\n      dup2\n      gt\n      iszero\n      tag_191\n      jumpi\n      tag_192\n      tag_146\n      jump\t// in\n    tag_192:\n    tag_191:\n        /* \"contracts/CDS/CDS.sol\":4430:4436  status */\n      0x02\n      0x14\n      swap1\n      sload\n      swap1\n      0x0100\n      exp\n      swap1\n      div\n      0xff\n      and\n        /* \"contracts/CDS/CDS.sol\":4430:4453  status == Status.active */\n      0x04\n      dup2\n      gt\n      iszero\n      tag_193\n      jumpi\n      tag_194\n      tag_146\n      jump\t// in\n    tag_194:\n    tag_193:\n      eq\n        /* \"contracts/CDS/CDS.sol\":4415:4507  require(... */\n      tag_195\n      jumpi\n      mload(0x40)\n      0x08c379a000000000000000000000000000000000000000000000000000000000\n      dup2\n      mstore\n      0x04\n      add\n      tag_196\n      swap1\n      tag_170\n      jump\t// in\n    tag_196:\n      mload(0x40)\n      dup1\n      swap2\n      sub\n      swap1\n      revert\n    tag_195:\n        /* \"contracts/CDS/CDS.sol\":1525:1526  0 */\n      0x00\n        /* \"contracts/CDS/CDS.sol\":1516:1522  rounds */\n      0x0a\n      0x14\n      swap1\n      sload\n      swap1\n      0x0100\n      exp\n      swap1\n      div\n      0xffffffff\n      and\n        /* \"contracts/CDS/CDS.sol\":1516:1526  rounds > 0 */\n      0xffffffff\n      and\n      gt\n        /* \"contracts/CDS/CDS.sol\":1508:1550  require(rounds > 0, 'Round already ended') */\n      tag_198\n      jumpi\n      mload(0x40)\n      0x08c379a000000000000000000000000000000000000000000000000000000000\n      dup2\n      mstore\n      0x04\n      add\n      tag_199\n      swap1\n      tag_200\n      jump\t// in\n    tag_199:\n      mload(0x40)\n      dup1\n      swap2\n      sub\n      swap1\n      revert\n    tag_198:\n        /* \"contracts/CDS/CDS.sol\":1571:1578  4 weeks */\n      0x24ea00\n        /* \"contracts/CDS/CDS.sol\":1556:1567  nextPayDate */\n      0x08\n      0x00\n        /* \"contracts/CDS/CDS.sol\":1556:1578  nextPayDate += 4 weeks */\n      dup3\n      dup3\n      sload\n      tag_201\n      swap2\n      swap1\n      tag_158\n      jump\t// in\n    tag_201:\n      swap3\n      pop\n      pop\n      dup2\n      swap1\n      sstore\n      pop\n        /* \"contracts/CDS/CDS.sol\":1584:1605  setRounds(rounds - 1) */\n      tag_202\n        /* \"contracts/CDS/CDS.sol\":1603:1604  1 */\n      0x01\n        /* \"contracts/CDS/CDS.sol\":1594:1600  rounds */\n      0x0a\n      0x14\n      swap1\n      sload\n      swap1\n      0x0100\n      exp\n      swap1\n      div\n      0xffffffff\n      and\n        /* \"contracts/CDS/CDS.sol\":1594:1604  rounds - 1 */\n      tag_203\n      swap2\n      swap1\n      tag_160\n      jump\t// in\n    tag_203:\n        /* \"contracts/CDS/CDS.sol\":1584:1593  setRounds */\n      tag_204\n        /* \"contracts/CDS/CDS.sol\":1584:1605  setRounds(rounds - 1) */\n      jump\t// in\n    tag_202:\n      pop\n        /* \"contracts/CDS/CDS.sol\":1451:1610  function premiumPaid() external onlyOwner isActive {... */\n      jump\t// out\n        /* \"contracts/CDS/CDS.sol\":3784:3857  function getBuyer() public view returns (address) {... */\n    tag_66:\n        /* \"contracts/CDS/CDS.sol\":3825:3832  address */\n      0x00\n        /* \"contracts/CDS/CDS.sol\":3847:3852  buyer */\n      0x09\n      0x00\n      swap1\n      sload\n      swap1\n      0x0100\n      exp\n      swap1\n      div\n      0xffffffffffffffffffffffffffffffffffffffff\n      and\n        /* \"contracts/CDS/CDS.sol\":3840:3852  return buyer */\n      swap1\n      pop\n        /* \"contracts/CDS/CDS.sol\":3784:3857  function getBuyer() public view returns (address) {... */\n      swap1\n      jump\t// out\n        /* \"@openzeppelin/contracts/access/Ownable.sol\":1831:1932  function renounceOwnership() public virtual onlyOwner {... */\n    tag_70:\n        /* \"@openzeppelin/contracts/access/Ownable.sol\":1094:1107  _checkOwner() */\n      tag_207\n        /* \"@openzeppelin/contracts/access/Ownable.sol\":1094:1105  _checkOwner */\n      tag_142\n        /* \"@openzeppelin/contracts/access/Ownable.sol\":1094:1107  _checkOwner() */\n      jump\t// in\n    tag_207:\n        /* \"@openzeppelin/contracts/access/Ownable.sol\":1895:1925  _transferOwnership(address(0)) */\n      tag_209\n        /* \"@openzeppelin/contracts/access/Ownable.sol\":1922:1923  0 */\n      0x00\n        /* \"@openzeppelin/contracts/access/Ownable.sol\":1895:1913  _transferOwnership */\n      tag_210\n        /* \"@openzeppelin/contracts/access/Ownable.sol\":1895:1925  _transferOwnership(address(0)) */\n      jump\t// in\n    tag_209:\n        /* \"@openzeppelin/contracts/access/Ownable.sol\":1831:1932  function renounceOwnership() public virtual onlyOwner {... */\n      jump\t// out\n        /* \"contracts/CDS/CDS.sol\":2375:2493  function checkPayDatePassed() external view isActive returns (bool) {... */\n    tag_72:\n        /* \"contracts/CDS/CDS.sol\":2437:2441  bool */\n      0x00\n        /* \"contracts/CDS/CDS.sol\":4440:4453  Status.active */\n      0x02\n        /* \"contracts/CDS/CDS.sol\":4430:4453  status == Status.active */\n      0x04\n      dup2\n      gt\n      iszero\n      tag_212\n      jumpi\n      tag_213\n      tag_146\n      jump\t// in\n    tag_213:\n    tag_212:\n        /* \"contracts/CDS/CDS.sol\":4430:4436  status */\n      0x02\n      0x14\n      swap1\n      sload\n      swap1\n      0x0100\n      exp\n      swap1\n      div\n      0xff\n      and\n        /* \"contracts/CDS/CDS.sol\":4430:4453  status == Status.active */\n      0x04\n      dup2\n      gt\n      iszero\n      tag_214\n      jumpi\n      tag_215\n      tag_146\n      jump\t// in\n    tag_215:\n    tag_214:\n      eq\n        /* \"contracts/CDS/CDS.sol\":4415:4507  require(... */\n      tag_216\n      jumpi\n      mload(0x40)\n      0x08c379a000000000000000000000000000000000000000000000000000000000\n      dup2\n      mstore\n      0x04\n      add\n      tag_217\n      swap1\n      tag_170\n      jump\t// in\n    tag_217:\n      mload(0x40)\n      dup1\n      swap2\n      sub\n      swap1\n      revert\n    tag_216:\n        /* \"contracts/CDS/CDS.sol\":2476:2487  nextPayDate */\n      sload(0x08)\n        /* \"contracts/CDS/CDS.sol\":2457:2472  block.timestamp */\n      timestamp\n        /* \"contracts/CDS/CDS.sol\":2457:2487  block.timestamp >= nextPayDate */\n      lt\n      iszero\n        /* \"contracts/CDS/CDS.sol\":2449:2488  return (block.timestamp >= nextPayDate) */\n      swap1\n      pop\n        /* \"contracts/CDS/CDS.sol\":2375:2493  function checkPayDatePassed() external view isActive returns (bool) {... */\n      swap1\n      jump\t// out\n        /* \"contracts/CDS/CDS.sol\":474:503  uint256 public initAssetPrice */\n    tag_76:\n      sload(0x03)\n      dup2\n      jump\t// out\n        /* \"contracts/CDS/CDS.sol\":734:759  uint32 public totalRounds */\n    tag_79:\n      0x0a\n      0x18\n      swap1\n      sload\n      swap1\n      0x0100\n      exp\n      swap1\n      div\n      0xffffffff\n      and\n      dup2\n      jump\t// out\n        /* \"@openzeppelin/contracts/access/Ownable.sol\":1201:1286  function owner() public view virtual returns (address) {... */\n    tag_82:\n        /* \"@openzeppelin/contracts/access/Ownable.sol\":1247:1254  address */\n      0x00\n        /* \"@openzeppelin/contracts/access/Ownable.sol\":1273:1279  _owner */\n      dup1\n      0x00\n      swap1\n      sload\n      swap1\n      0x0100\n      exp\n      swap1\n      div\n      0xffffffffffffffffffffffffffffffffffffffff\n      and\n        /* \"@openzeppelin/contracts/access/Ownable.sol\":1266:1279  return _owner */\n      swap1\n      pop\n        /* \"@openzeppelin/contracts/access/Ownable.sol\":1201:1286  function owner() public view virtual returns (address) {... */\n      swap1\n      jump\t// out\n        /* \"contracts/CDS/CDS.sol\":710:730  uint32 public rounds */\n    tag_85:\n      0x0a\n      0x14\n      swap1\n      sload\n      swap1\n      0x0100\n      exp\n      swap1\n      div\n      0xffffffff\n      and\n      dup2\n      jump\t// out\n        /* \"contracts/CDS/CDS.sol\":2938:3050  function setBuyer(address _buyer) public onlyOwner returns (address) {... */\n    tag_90:\n        /* \"contracts/CDS/CDS.sol\":2998:3005  address */\n      0x00\n        /* \"@openzeppelin/contracts/access/Ownable.sol\":1094:1107  _checkOwner() */\n      tag_221\n        /* \"@openzeppelin/contracts/access/Ownable.sol\":1094:1105  _checkOwner */\n      tag_142\n        /* \"@openzeppelin/contracts/access/Ownable.sol\":1094:1107  _checkOwner() */\n      jump\t// in\n    tag_221:\n        /* \"contracts/CDS/CDS.sol\":3021:3027  _buyer */\n      dup2\n        /* \"contracts/CDS/CDS.sol\":3013:3018  buyer */\n      0x09\n      0x00\n        /* \"contracts/CDS/CDS.sol\":3013:3027  buyer = _buyer */\n      0x0100\n      exp\n      dup2\n      sload\n      dup2\n      0xffffffffffffffffffffffffffffffffffffffff\n      mul\n      not\n      and\n      swap1\n      dup4\n      0xffffffffffffffffffffffffffffffffffffffff\n      and\n      mul\n      or\n      swap1\n      sstore\n      pop\n        /* \"contracts/CDS/CDS.sol\":3040:3045  buyer */\n      0x09\n      0x00\n      swap1\n      sload\n      swap1\n      0x0100\n      exp\n      swap1\n      div\n      0xffffffffffffffffffffffffffffffffffffffff\n      and\n        /* \"contracts/CDS/CDS.sol\":3033:3045  return buyer */\n      swap1\n      pop\n        /* \"contracts/CDS/CDS.sol\":2938:3050  function setBuyer(address _buyer) public onlyOwner returns (address) {... */\n      swap2\n      swap1\n      pop\n      jump\t// out\n        /* \"contracts/CDS/CDS.sol\":536:567  uint256 public liquidationPrice */\n    tag_93:\n      sload(0x05)\n      dup2\n      jump\t// out\n        /* \"contracts/CDS/CDS.sol\":2782:2934  function setParticipants(address _participants, bool _isBuyer) public onlyOwner {... */\n    tag_98:\n        /* \"@openzeppelin/contracts/access/Ownable.sol\":1094:1107  _checkOwner() */\n      tag_224\n        /* \"@openzeppelin/contracts/access/Ownable.sol\":1094:1105  _checkOwner */\n      tag_142\n        /* \"@openzeppelin/contracts/access/Ownable.sol\":1094:1107  _checkOwner() */\n      jump\t// in\n    tag_224:\n        /* \"contracts/CDS/CDS.sol\":2868:2876  _isBuyer */\n      dup1\n        /* \"contracts/CDS/CDS.sol\":2868:2929  _isBuyer ? setBuyer(_participants) : setSeller(_participants) */\n      tag_226\n      jumpi\n        /* \"contracts/CDS/CDS.sol\":2905:2929  setSeller(_participants) */\n      tag_227\n        /* \"contracts/CDS/CDS.sol\":2915:2928  _participants */\n      dup3\n        /* \"contracts/CDS/CDS.sol\":2905:2914  setSeller */\n      tag_124\n        /* \"contracts/CDS/CDS.sol\":2905:2929  setSeller(_participants) */\n      jump\t// in\n    tag_227:\n        /* \"contracts/CDS/CDS.sol\":2868:2929  _isBuyer ? setBuyer(_participants) : setSeller(_participants) */\n      jump(tag_228)\n    tag_226:\n        /* \"contracts/CDS/CDS.sol\":2879:2902  setBuyer(_participants) */\n      tag_229\n        /* \"contracts/CDS/CDS.sol\":2888:2901  _participants */\n      dup3\n        /* \"contracts/CDS/CDS.sol\":2879:2887  setBuyer */\n      tag_90\n        /* \"contracts/CDS/CDS.sol\":2879:2902  setBuyer(_participants) */\n      jump\t// in\n    tag_229:\n        /* \"contracts/CDS/CDS.sol\":2868:2929  _isBuyer ? setBuyer(_participants) : setSeller(_participants) */\n    tag_228:\n      pop\n        /* \"contracts/CDS/CDS.sol\":2782:2934  function setParticipants(address _participants, bool _isBuyer) public onlyOwner {... */\n      pop\n      pop\n      jump\t// out\n        /* \"contracts/CDS/CDS.sol\":3432:3617  function getPrices() public view returns (uint256[5] memory) {... */\n    tag_100:\n        /* \"contracts/CDS/CDS.sol\":3474:3491  uint256[5] memory */\n      tag_230\n      tag_231\n      jump\t// in\n    tag_230:\n        /* \"contracts/CDS/CDS.sol\":3499:3612  return [... */\n      mload(0x40)\n      dup1\n      0xa0\n      add\n      0x40\n      mstore\n      dup1\n        /* \"contracts/CDS/CDS.sol\":3514:3528  initAssetPrice */\n      sload(0x03)\n        /* \"contracts/CDS/CDS.sol\":3499:3612  return [... */\n      dup2\n      mstore\n      0x20\n      add\n        /* \"contracts/CDS/CDS.sol\":3536:3546  claimPrice */\n      sload(0x04)\n        /* \"contracts/CDS/CDS.sol\":3499:3612  return [... */\n      dup2\n      mstore\n      0x20\n      add\n        /* \"contracts/CDS/CDS.sol\":3554:3570  liquidationPrice */\n      sload(0x05)\n        /* \"contracts/CDS/CDS.sol\":3499:3612  return [... */\n      dup2\n      mstore\n      0x20\n      add\n        /* \"contracts/CDS/CDS.sol\":3578:3585  premium */\n      sload(0x06)\n        /* \"contracts/CDS/CDS.sol\":3499:3612  return [... */\n      dup2\n      mstore\n      0x20\n      add\n        /* \"contracts/CDS/CDS.sol\":3593:3606  sellerDeposit */\n      sload(0x07)\n        /* \"contracts/CDS/CDS.sol\":3499:3612  return [... */\n      dup2\n      mstore\n      pop\n      swap1\n      pop\n        /* \"contracts/CDS/CDS.sol\":3432:3617  function getPrices() public view returns (uint256[5] memory) {... */\n      swap1\n      jump\t// out\n        /* \"contracts/CDS/CDS.sol\":2511:2658  function setInitAssetPrice(uint256 _initAssetPrice) public returns (uint256) {... */\n    tag_106:\n        /* \"contracts/CDS/CDS.sol\":2579:2586  uint256 */\n      0x00\n        /* \"contracts/CDS/CDS.sol\":2611:2626  _initAssetPrice */\n      dup2\n        /* \"contracts/CDS/CDS.sol\":2594:2608  initAssetPrice */\n      0x03\n        /* \"contracts/CDS/CDS.sol\":2594:2626  initAssetPrice = _initAssetPrice */\n      dup2\n      swap1\n      sstore\n      pop\n        /* \"contracts/CDS/CDS.sol\":2639:2653  initAssetPrice */\n      sload(0x03)\n        /* \"contracts/CDS/CDS.sol\":2632:2653  return initAssetPrice */\n      swap1\n      pop\n        /* \"contracts/CDS/CDS.sol\":2511:2658  function setInitAssetPrice(uint256 _initAssetPrice) public returns (uint256) {... */\n      swap2\n      swap1\n      pop\n      jump\t// out\n        /* \"contracts/CDS/PriceConsumer.sol\":339:707  function getCurrPrice(uint32 _assetType) public view returns (uint256) {... */\n    tag_111:\n        /* \"contracts/CDS/PriceConsumer.sol\":401:408  uint256 */\n      0x00\n        /* \"contracts/CDS/PriceConsumer.sol\":416:429  uint256 price */\n      dup1\n        /* \"contracts/CDS/PriceConsumer.sol\":453:454  0 */\n      0x00\n        /* \"contracts/CDS/PriceConsumer.sol\":439:449  _assetType */\n      dup4\n        /* \"contracts/CDS/PriceConsumer.sol\":439:454  _assetType == 0 */\n      0xffffffff\n      and\n      eq\n        /* \"contracts/CDS/PriceConsumer.sol\":435:685  if (_assetType == 0) {... */\n      iszero\n      tag_235\n      jumpi\n        /* \"contracts/CDS/PriceConsumer.sol\":472:507  priceOracle.btcPrice().div(10 ** 8) */\n      tag_236\n        /* \"contracts/CDS/PriceConsumer.sol\":499:506  10 ** 8 */\n      0x05f5e100\n        /* \"contracts/CDS/PriceConsumer.sol\":472:483  priceOracle */\n      0x01\n      0x00\n      swap1\n      sload\n      swap1\n      0x0100\n      exp\n      swap1\n      div\n      0xffffffffffffffffffffffffffffffffffffffff\n      and\n        /* \"contracts/CDS/PriceConsumer.sol\":472:492  priceOracle.btcPrice */\n      0xffffffffffffffffffffffffffffffffffffffff\n      and\n      0xa8ad52d1\n        /* \"contracts/CDS/PriceConsumer.sol\":472:494  priceOracle.btcPrice() */\n      mload(0x40)\n      dup2\n      0xffffffff\n      and\n      0xe0\n      shl\n      dup2\n      mstore\n      0x04\n      add\n      0x20\n      mload(0x40)\n      dup1\n      dup4\n      sub\n      dup2\n      dup7\n      gas\n      staticcall\n      iszero\n      dup1\n      iszero\n      tag_238\n      jumpi\n      returndatasize\n      0x00\n      dup1\n      returndatacopy\n      revert(0x00, returndatasize)\n    tag_238:\n      pop\n      pop\n      pop\n      pop\n      mload(0x40)\n      returndatasize\n      not(0x1f)\n      0x1f\n      dup3\n      add\n      and\n      dup3\n      add\n      dup1\n      0x40\n      mstore\n      pop\n      dup2\n      add\n      swap1\n      tag_239\n      swap2\n      swap1\n      tag_240\n      jump\t// in\n    tag_239:\n        /* \"contracts/CDS/PriceConsumer.sol\":472:498  priceOracle.btcPrice().div */\n      tag_241\n      swap1\n        /* \"contracts/CDS/PriceConsumer.sol\":472:507  priceOracle.btcPrice().div(10 ** 8) */\n      swap2\n      swap1\n      0xffffffff\n      and\n      jump\t// in\n    tag_236:\n        /* \"contracts/CDS/PriceConsumer.sol\":464:507  price = priceOracle.btcPrice().div(10 ** 8) */\n      swap1\n      pop\n        /* \"contracts/CDS/PriceConsumer.sol\":435:685  if (_assetType == 0) {... */\n      jump(tag_242)\n    tag_235:\n        /* \"contracts/CDS/PriceConsumer.sol\":538:539  1 */\n      0x01\n        /* \"contracts/CDS/PriceConsumer.sol\":524:534  _assetType */\n      dup4\n        /* \"contracts/CDS/PriceConsumer.sol\":524:539  _assetType == 1 */\n      0xffffffff\n      and\n      eq\n        /* \"contracts/CDS/PriceConsumer.sol\":520:685  if (_assetType == 1) {... */\n      iszero\n      tag_243\n      jumpi\n        /* \"contracts/CDS/PriceConsumer.sol\":557:592  priceOracle.ethPrice().div(10 ** 8) */\n      tag_244\n        /* \"contracts/CDS/PriceConsumer.sol\":584:591  10 ** 8 */\n      0x05f5e100\n        /* \"contracts/CDS/PriceConsumer.sol\":557:568  priceOracle */\n      0x01\n      0x00\n      swap1\n      sload\n      swap1\n      0x0100\n      exp\n      swap1\n      div\n      0xffffffffffffffffffffffffffffffffffffffff\n      and\n        /* \"contracts/CDS/PriceConsumer.sol\":557:577  priceOracle.ethPrice */\n      0xffffffffffffffffffffffffffffffffffffffff\n      and\n      0xff186b2e\n        /* \"contracts/CDS/PriceConsumer.sol\":557:579  priceOracle.ethPrice() */\n      mload(0x40)\n      dup2\n      0xffffffff\n      and\n      0xe0\n      shl\n      dup2\n      mstore\n      0x04\n      add\n      0x20\n      mload(0x40)\n      dup1\n      dup4\n      sub\n      dup2\n      dup7\n      gas\n      staticcall\n      iszero\n      dup1\n      iszero\n      tag_246\n      jumpi\n      returndatasize\n      0x00\n      dup1\n      returndatacopy\n      revert(0x00, returndatasize)\n    tag_246:\n      pop\n      pop\n      pop\n      pop\n      mload(0x40)\n      returndatasize\n      not(0x1f)\n      0x1f\n      dup3\n      add\n      and\n      dup3\n      add\n      dup1\n      0x40\n      mstore\n      pop\n      dup2\n      add\n      swap1\n      tag_247\n      swap2\n      swap1\n      tag_240\n      jump\t// in\n    tag_247:\n        /* \"contracts/CDS/PriceConsumer.sol\":557:583  priceOracle.ethPrice().div */\n      tag_241\n      swap1\n        /* \"contracts/CDS/PriceConsumer.sol\":557:592  priceOracle.ethPrice().div(10 ** 8) */\n      swap2\n      swap1\n      0xffffffff\n      and\n      jump\t// in\n    tag_244:\n        /* \"contracts/CDS/PriceConsumer.sol\":549:592  price = priceOracle.ethPrice().div(10 ** 8) */\n      swap1\n      pop\n        /* \"contracts/CDS/PriceConsumer.sol\":520:685  if (_assetType == 1) {... */\n      jump(tag_248)\n    tag_243:\n        /* \"contracts/CDS/PriceConsumer.sol\":623:624  2 */\n      0x02\n        /* \"contracts/CDS/PriceConsumer.sol\":609:619  _assetType */\n      dup4\n        /* \"contracts/CDS/PriceConsumer.sol\":609:624  _assetType == 2 */\n      0xffffffff\n      and\n      eq\n        /* \"contracts/CDS/PriceConsumer.sol\":605:685  if (_assetType == 2) {... */\n      iszero\n      tag_249\n      jumpi\n        /* \"contracts/CDS/PriceConsumer.sol\":642:678  priceOracle.linkPrice().div(10 ** 8) */\n      tag_250\n        /* \"contracts/CDS/PriceConsumer.sol\":670:677  10 ** 8 */\n      0x05f5e100\n        /* \"contracts/CDS/PriceConsumer.sol\":642:653  priceOracle */\n      0x01\n      0x00\n      swap1\n      sload\n      swap1\n      0x0100\n      exp\n      swap1\n      div\n      0xffffffffffffffffffffffffffffffffffffffff\n      and\n        /* \"contracts/CDS/PriceConsumer.sol\":642:663  priceOracle.linkPrice */\n      0xffffffffffffffffffffffffffffffffffffffff\n      and\n      0x0cf78535\n        /* \"contracts/CDS/PriceConsumer.sol\":642:665  priceOracle.linkPrice() */\n      mload(0x40)\n      dup2\n      0xffffffff\n      and\n      0xe0\n      shl\n      dup2\n      mstore\n      0x04\n      add\n      0x20\n      mload(0x40)\n      dup1\n      dup4\n      sub\n      dup2\n      dup7\n      gas\n      staticcall\n      iszero\n      dup1\n      iszero\n      tag_252\n      jumpi\n      returndatasize\n      0x00\n      dup1\n      returndatacopy\n      revert(0x00, returndatasize)\n    tag_252:\n      pop\n      pop\n      pop\n      pop\n      mload(0x40)\n      returndatasize\n      not(0x1f)\n      0x1f\n      dup3\n      add\n      and\n      dup3\n      add\n      dup1\n      0x40\n      mstore\n      pop\n      dup2\n      add\n      swap1\n      tag_253\n      swap2\n      swap1\n      tag_240\n      jump\t// in\n    tag_253:\n        /* \"contracts/CDS/PriceConsumer.sol\":642:669  priceOracle.linkPrice().div */\n      tag_241\n      swap1\n        /* \"contracts/CDS/PriceConsumer.sol\":642:678  priceOracle.linkPrice().div(10 ** 8) */\n      swap2\n      swap1\n      0xffffffff\n      and\n      jump\t// in\n    tag_250:\n        /* \"contracts/CDS/PriceConsumer.sol\":634:678  price = priceOracle.linkPrice().div(10 ** 8) */\n      swap1\n      pop\n        /* \"contracts/CDS/PriceConsumer.sol\":605:685  if (_assetType == 2) {... */\n    tag_249:\n        /* \"contracts/CDS/PriceConsumer.sol\":520:685  if (_assetType == 1) {... */\n    tag_248:\n        /* \"contracts/CDS/PriceConsumer.sol\":435:685  if (_assetType == 0) {... */\n    tag_242:\n        /* \"contracts/CDS/PriceConsumer.sol\":697:702  price */\n      dup1\n        /* \"contracts/CDS/PriceConsumer.sol\":690:702  return price */\n      swap2\n      pop\n      pop\n        /* \"contracts/CDS/PriceConsumer.sol\":339:707  function getCurrPrice(uint32 _assetType) public view returns (uint256) {... */\n      swap2\n      swap1\n      pop\n      jump\t// out\n        /* \"contracts/CDS/CDS.sol\":629:655  uint256 public nextPayDate */\n    tag_114:\n      sload(0x08)\n      dup2\n      jump\t// out\n        /* \"contracts/CDS/CDS.sol\":3861:3936  function getSeller() public view returns (address) {... */\n    tag_117:\n        /* \"contracts/CDS/CDS.sol\":3903:3910  address */\n      0x00\n        /* \"contracts/CDS/CDS.sol\":3925:3931  seller */\n      0x0a\n      0x00\n      swap1\n      sload\n      swap1\n      0x0100\n      exp\n      swap1\n      div\n      0xffffffffffffffffffffffffffffffffffffffff\n      and\n        /* \"contracts/CDS/CDS.sol\":3918:3931  return seller */\n      swap1\n      pop\n        /* \"contracts/CDS/CDS.sol\":3861:3936  function getSeller() public view returns (address) {... */\n      swap1\n      jump\t// out\n        /* \"contracts/CDS/CDS.sol\":571:593  uint256 public premium */\n    tag_120:\n      sload(0x06)\n      dup2\n      jump\t// out\n        /* \"contracts/CDS/CDS.sol\":3054:3171  function setSeller(address _seller) public onlyOwner returns (address) {... */\n    tag_124:\n        /* \"contracts/CDS/CDS.sol\":3116:3123  address */\n      0x00\n        /* \"@openzeppelin/contracts/access/Ownable.sol\":1094:1107  _checkOwner() */\n      tag_256\n        /* \"@openzeppelin/contracts/access/Ownable.sol\":1094:1105  _checkOwner */\n      tag_142\n        /* \"@openzeppelin/contracts/access/Ownable.sol\":1094:1107  _checkOwner() */\n      jump\t// in\n    tag_256:\n        /* \"contracts/CDS/CDS.sol\":3140:3147  _seller */\n      dup2\n        /* \"contracts/CDS/CDS.sol\":3131:3137  seller */\n      0x0a\n      0x00\n        /* \"contracts/CDS/CDS.sol\":3131:3147  seller = _seller */\n      0x0100\n      exp\n      dup2\n      sload\n      dup2\n      0xffffffffffffffffffffffffffffffffffffffff\n      mul\n      not\n      and\n      swap1\n      dup4\n      0xffffffffffffffffffffffffffffffffffffffff\n      and\n      mul\n      or\n      swap1\n      sstore\n      pop\n        /* \"contracts/CDS/CDS.sol\":3160:3166  seller */\n      0x0a\n      0x00\n      swap1\n      sload\n      swap1\n      0x0100\n      exp\n      swap1\n      div\n      0xffffffffffffffffffffffffffffffffffffffff\n      and\n        /* \"contracts/CDS/CDS.sol\":3153:3166  return seller */\n      swap1\n      pop\n        /* \"contracts/CDS/CDS.sol\":3054:3171  function setSeller(address _seller) public onlyOwner returns (address) {... */\n      swap2\n      swap1\n      pop\n      jump\t// out\n        /* \"contracts/CDS/CDS.sol\":1896:1984  function cancel() external onlyOwner isPending {... */\n    tag_127:\n        /* \"@openzeppelin/contracts/access/Ownable.sol\":1094:1107  _checkOwner() */\n      tag_259\n        /* \"@openzeppelin/contracts/access/Ownable.sol\":1094:1105  _checkOwner */\n      tag_142\n        /* \"@openzeppelin/contracts/access/Ownable.sol\":1094:1107  _checkOwner() */\n      jump\t// in\n    tag_259:\n        /* \"contracts/CDS/CDS.sol\":4304:4318  Status.pending */\n      0x01\n        /* \"contracts/CDS/CDS.sol\":4294:4318  status == Status.pending */\n      0x04\n      dup2\n      gt\n      iszero\n      tag_261\n      jumpi\n      tag_262\n      tag_146\n      jump\t// in\n    tag_262:\n    tag_261:\n        /* \"contracts/CDS/CDS.sol\":4294:4300  status */\n      0x02\n      0x14\n      swap1\n      sload\n      swap1\n      0x0100\n      exp\n      swap1\n      div\n      0xff\n      and\n        /* \"contracts/CDS/CDS.sol\":4294:4318  status == Status.pending */\n      0x04\n      dup2\n      gt\n      iszero\n      tag_263\n      jumpi\n      tag_264\n      tag_146\n      jump\t// in\n    tag_264:\n    tag_263:\n      eq\n        /* \"contracts/CDS/CDS.sol\":4279:4373  require(... */\n      tag_265\n      jumpi\n      mload(0x40)\n      0x08c379a000000000000000000000000000000000000000000000000000000000\n      dup2\n      mstore\n      0x04\n      add\n      tag_266\n      swap1\n      tag_151\n      jump\t// in\n    tag_266:\n      mload(0x40)\n      dup1\n      swap2\n      sub\n      swap1\n      revert\n    tag_265:\n        /* \"contracts/CDS/CDS.sol\":1949:1979  setStatus(CDS.Status.inactive) */\n      tag_268\n        /* \"contracts/CDS/CDS.sol\":1959:1978  CDS.Status.inactive */\n      0x00\n        /* \"contracts/CDS/CDS.sol\":1949:1958  setStatus */\n      tag_156\n        /* \"contracts/CDS/CDS.sol\":1949:1979  setStatus(CDS.Status.inactive) */\n      jump\t// in\n    tag_268:\n      pop\n        /* \"contracts/CDS/CDS.sol\":1896:1984  function cancel() external onlyOwner isPending {... */\n      jump\t// out\n        /* \"contracts/CDS/CDS.sol\":3940:4231  function getClaimReward() public view returns (uint256) {... */\n    tag_129:\n        /* \"contracts/CDS/CDS.sol\":3987:3994  uint256 */\n      0x00\n        /* \"contracts/CDS/CDS.sol\":4002:4019  uint256 currPrice */\n      dup1\n        /* \"contracts/CDS/CDS.sol\":4022:4045  getCurrPrice(assetType) */\n      tag_270\n        /* \"contracts/CDS/CDS.sol\":4035:4044  assetType */\n      0x0a\n      0x1c\n      swap1\n      sload\n      swap1\n      0x0100\n      exp\n      swap1\n      div\n      0xffffffff\n      and\n        /* \"contracts/CDS/CDS.sol\":4022:4034  getCurrPrice */\n      tag_111\n        /* \"contracts/CDS/CDS.sol\":4022:4045  getCurrPrice(assetType) */\n      jump\t// in\n    tag_270:\n        /* \"contracts/CDS/CDS.sol\":4002:4045  uint256 currPrice = getCurrPrice(assetType) */\n      swap1\n      pop\n        /* \"contracts/CDS/CDS.sol\":4068:4077  currPrice */\n      dup1\n        /* \"contracts/CDS/CDS.sol\":4055:4065  claimPrice */\n      sload(0x04)\n        /* \"contracts/CDS/CDS.sol\":4055:4077  claimPrice < currPrice */\n      lt\n        /* \"contracts/CDS/CDS.sol\":4051:4102  if (claimPrice < currPrice) {... */\n      iszero\n      tag_271\n      jumpi\n        /* \"contracts/CDS/CDS.sol\":4094:4095  0 */\n      0x00\n        /* \"contracts/CDS/CDS.sol\":4087:4095  return 0 */\n      swap2\n      pop\n      pop\n      jump(tag_269)\n        /* \"contracts/CDS/CDS.sol\":4051:4102  if (claimPrice < currPrice) {... */\n    tag_271:\n        /* \"contracts/CDS/CDS.sol\":4120:4226  sellerDeposit.calcClaimReward(... */\n      tag_272\n        /* \"contracts/CDS/CDS.sol\":4159:4175  liquidationPrice */\n      sload(0x05)\n        /* \"contracts/CDS/CDS.sol\":4185:4199  initAssetPrice */\n      sload(0x03)\n        /* \"contracts/CDS/CDS.sol\":4209:4218  currPrice */\n      dup4\n        /* \"contracts/CDS/CDS.sol\":4120:4133  sellerDeposit */\n      sload(0x07)\n        /* \"contracts/CDS/CDS.sol\":4120:4149  sellerDeposit.calcClaimReward */\n      tag_273\n      swap1\n        /* \"contracts/CDS/CDS.sol\":4120:4226  sellerDeposit.calcClaimReward(... */\n      swap4\n      swap3\n      swap2\n      swap1\n      0xffffffff\n      and\n      jump\t// in\n    tag_272:\n        /* \"contracts/CDS/CDS.sol\":4107:4226  return... */\n      swap2\n      pop\n      pop\n        /* \"contracts/CDS/CDS.sol\":3940:4231  function getClaimReward() public view returns (uint256) {... */\n    tag_269:\n      swap1\n      jump\t// out\n        /* \"@openzeppelin/contracts/access/Ownable.sol\":2081:2279  function transferOwnership(address newOwner) public virtual onlyOwner {... */\n    tag_133:\n        /* \"@openzeppelin/contracts/access/Ownable.sol\":1094:1107  _checkOwner() */\n      tag_275\n        /* \"@openzeppelin/contracts/access/Ownable.sol\":1094:1105  _checkOwner */\n      tag_142\n        /* \"@openzeppelin/contracts/access/Ownable.sol\":1094:1107  _checkOwner() */\n      jump\t// in\n    tag_275:\n        /* \"@openzeppelin/contracts/access/Ownable.sol\":2189:2190  0 */\n      0x00\n        /* \"@openzeppelin/contracts/access/Ownable.sol\":2169:2191  newOwner != address(0) */\n      0xffffffffffffffffffffffffffffffffffffffff\n      and\n        /* \"@openzeppelin/contracts/access/Ownable.sol\":2169:2177  newOwner */\n      dup2\n        /* \"@openzeppelin/contracts/access/Ownable.sol\":2169:2191  newOwner != address(0) */\n      0xffffffffffffffffffffffffffffffffffffffff\n      and\n      eq\n      iszero\n        /* \"@openzeppelin/contracts/access/Ownable.sol\":2161:2234  require(newOwner != address(0), \"Ownable: new owner is the zero address\") */\n      tag_277\n      jumpi\n      mload(0x40)\n      0x08c379a000000000000000000000000000000000000000000000000000000000\n      dup2\n      mstore\n      0x04\n      add\n      tag_278\n      swap1\n      tag_279\n      jump\t// in\n    tag_278:\n      mload(0x40)\n      dup1\n      swap2\n      sub\n      swap1\n      revert\n    tag_277:\n        /* \"@openzeppelin/contracts/access/Ownable.sol\":2244:2272  _transferOwnership(newOwner) */\n      tag_280\n        /* \"@openzeppelin/contracts/access/Ownable.sol\":2263:2271  newOwner */\n      dup2\n        /* \"@openzeppelin/contracts/access/Ownable.sol\":2244:2262  _transferOwnership */\n      tag_210\n        /* \"@openzeppelin/contracts/access/Ownable.sol\":2244:2272  _transferOwnership(newOwner) */\n      jump\t// in\n    tag_280:\n        /* \"@openzeppelin/contracts/access/Ownable.sol\":2081:2279  function transferOwnership(address newOwner) public virtual onlyOwner {... */\n      pop\n      jump\t// out\n        /* \"contracts/CDS/CDS.sol\":3621:3780  function getAmountOfAsset() public view returns (uint256) {... */\n    tag_135:\n        /* \"contracts/CDS/CDS.sol\":3670:3677  uint256 */\n      0x00\n        /* \"contracts/CDS/CDS.sol\":3692:3775  initAssetPrice.calcAmountOfAsset(... */\n      tag_282\n        /* \"contracts/CDS/CDS.sol\":3732:3748  liquidationPrice */\n      sload(0x05)\n        /* \"contracts/CDS/CDS.sol\":3756:3769  sellerDeposit */\n      sload(0x07)\n        /* \"contracts/CDS/CDS.sol\":3692:3706  initAssetPrice */\n      sload(0x03)\n        /* \"contracts/CDS/CDS.sol\":3692:3724  initAssetPrice.calcAmountOfAsset */\n      tag_283\n      swap1\n        /* \"contracts/CDS/CDS.sol\":3692:3775  initAssetPrice.calcAmountOfAsset(... */\n      swap3\n      swap2\n      swap1\n      0xffffffff\n      and\n      jump\t// in\n    tag_282:\n        /* \"contracts/CDS/CDS.sol\":3685:3775  return initAssetPrice.calcAmountOfAsset(... */\n      swap1\n      pop\n        /* \"contracts/CDS/CDS.sol\":3621:3780  function getAmountOfAsset() public view returns (uint256) {... */\n      swap1\n      jump\t// out\n        /* \"contracts/CDS/CDS.sol\":2275:2371  function checkRoundsZero() external view isActive returns (bool) {... */\n    tag_138:\n        /* \"contracts/CDS/CDS.sol\":2334:2338  bool */\n      0x00\n        /* \"contracts/CDS/CDS.sol\":4440:4453  Status.active */\n      0x02\n        /* \"contracts/CDS/CDS.sol\":4430:4453  status == Status.active */\n      0x04\n      dup2\n      gt\n      iszero\n      tag_285\n      jumpi\n      tag_286\n      tag_146\n      jump\t// in\n    tag_286:\n    tag_285:\n        /* \"contracts/CDS/CDS.sol\":4430:4436  status */\n      0x02\n      0x14\n      swap1\n      sload\n      swap1\n      0x0100\n      exp\n      swap1\n      div\n      0xff\n      and\n        /* \"contracts/CDS/CDS.sol\":4430:4453  status == Status.active */\n      0x04\n      dup2\n      gt\n      iszero\n      tag_287\n      jumpi\n      tag_288\n      tag_146\n      jump\t// in\n    tag_288:\n    tag_287:\n      eq\n        /* \"contracts/CDS/CDS.sol\":4415:4507  require(... */\n      tag_289\n      jumpi\n      mload(0x40)\n      0x08c379a000000000000000000000000000000000000000000000000000000000\n      dup2\n      mstore\n      0x04\n      add\n      tag_290\n      swap1\n      tag_170\n      jump\t// in\n    tag_290:\n      mload(0x40)\n      dup1\n      swap2\n      sub\n      swap1\n      revert\n    tag_289:\n        /* \"contracts/CDS/CDS.sol\":2364:2365  0 */\n      0x00\n        /* \"contracts/CDS/CDS.sol\":2354:2360  rounds */\n      0x0a\n      0x14\n      swap1\n      sload\n      swap1\n      0x0100\n      exp\n      swap1\n      div\n      0xffffffff\n      and\n        /* \"contracts/CDS/CDS.sol\":2354:2365  rounds == 0 */\n      0xffffffff\n      and\n      eq\n        /* \"contracts/CDS/CDS.sol\":2346:2366  return (rounds == 0) */\n      swap1\n      pop\n        /* \"contracts/CDS/CDS.sol\":2275:2371  function checkRoundsZero() external view isActive returns (bool) {... */\n      swap1\n      jump\t// out\n        /* \"@openzeppelin/contracts/access/Ownable.sol\":1359:1489  function _checkOwner() internal view virtual {... */\n    tag_142:\n        /* \"@openzeppelin/contracts/access/Ownable.sol\":1433:1445  _msgSender() */\n      tag_293\n        /* \"@openzeppelin/contracts/access/Ownable.sol\":1433:1443  _msgSender */\n      tag_294\n        /* \"@openzeppelin/contracts/access/Ownable.sol\":1433:1445  _msgSender() */\n      jump\t// in\n    tag_293:\n        /* \"@openzeppelin/contracts/access/Ownable.sol\":1422:1445  owner() == _msgSender() */\n      0xffffffffffffffffffffffffffffffffffffffff\n      and\n        /* \"@openzeppelin/contracts/access/Ownable.sol\":1422:1429  owner() */\n      tag_295\n        /* \"@openzeppelin/contracts/access/Ownable.sol\":1422:1427  owner */\n      tag_82\n        /* \"@openzeppelin/contracts/access/Ownable.sol\":1422:1429  owner() */\n      jump\t// in\n    tag_295:\n        /* \"@openzeppelin/contracts/access/Ownable.sol\":1422:1445  owner() == _msgSender() */\n      0xffffffffffffffffffffffffffffffffffffffff\n      and\n      eq\n        /* \"@openzeppelin/contracts/access/Ownable.sol\":1414:1482  require(owner() == _msgSender(), \"Ownable: caller is not the owner\") */\n      tag_296\n      jumpi\n      mload(0x40)\n      0x08c379a000000000000000000000000000000000000000000000000000000000\n      dup2\n      mstore\n      0x04\n      add\n      tag_297\n      swap1\n      tag_298\n      jump\t// in\n    tag_297:\n      mload(0x40)\n      dup1\n      swap2\n      sub\n      swap1\n      revert\n    tag_296:\n        /* \"@openzeppelin/contracts/access/Ownable.sol\":1359:1489  function _checkOwner() internal view virtual {... */\n      jump\t// out\n        /* \"contracts/CDS/CDS.sol\":2662:2778  function setStatus(Status _status) private onlyOwner returns (Status) {... */\n    tag_156:\n        /* \"contracts/CDS/CDS.sol\":2724:2730  Status */\n      0x00\n        /* \"@openzeppelin/contracts/access/Ownable.sol\":1094:1107  _checkOwner() */\n      tag_300\n        /* \"@openzeppelin/contracts/access/Ownable.sol\":1094:1105  _checkOwner */\n      tag_142\n        /* \"@openzeppelin/contracts/access/Ownable.sol\":1094:1107  _checkOwner() */\n      jump\t// in\n    tag_300:\n        /* \"contracts/CDS/CDS.sol\":2747:2754  _status */\n      dup2\n        /* \"contracts/CDS/CDS.sol\":2738:2744  status */\n      0x02\n      0x14\n        /* \"contracts/CDS/CDS.sol\":2738:2754  status = _status */\n      0x0100\n      exp\n      dup2\n      sload\n      dup2\n      0xff\n      mul\n      not\n      and\n      swap1\n      dup4\n      0x04\n      dup2\n      gt\n      iszero\n      tag_302\n      jumpi\n      tag_303\n      tag_146\n      jump\t// in\n    tag_303:\n    tag_302:\n      mul\n      or\n      swap1\n      sstore\n      pop\n        /* \"contracts/CDS/CDS.sol\":2767:2773  status */\n      0x02\n      0x14\n      swap1\n      sload\n      swap1\n      0x0100\n      exp\n      swap1\n      div\n      0xff\n      and\n        /* \"contracts/CDS/CDS.sol\":2760:2773  return status */\n      swap1\n      pop\n        /* \"contracts/CDS/CDS.sol\":2662:2778  function setStatus(Status _status) private onlyOwner returns (Status) {... */\n      swap2\n      swap1\n      pop\n      jump\t// out\n        /* \"contracts/CDS/CDS.sol\":3175:3291  function setRounds(uint32 _rounds) private onlyOwner returns (uint32) {... */\n    tag_204:\n        /* \"contracts/CDS/CDS.sol\":3237:3243  uint32 */\n      0x00\n        /* \"@openzeppelin/contracts/access/Ownable.sol\":1094:1107  _checkOwner() */\n      tag_305\n        /* \"@openzeppelin/contracts/access/Ownable.sol\":1094:1105  _checkOwner */\n      tag_142\n        /* \"@openzeppelin/contracts/access/Ownable.sol\":1094:1107  _checkOwner() */\n      jump\t// in\n    tag_305:\n        /* \"contracts/CDS/CDS.sol\":3260:3267  _rounds */\n      dup2\n        /* \"contracts/CDS/CDS.sol\":3251:3257  rounds */\n      0x0a\n      0x14\n        /* \"contracts/CDS/CDS.sol\":3251:3267  rounds = _rounds */\n      0x0100\n      exp\n      dup2\n      sload\n      dup2\n      0xffffffff\n      mul\n      not\n      and\n      swap1\n      dup4\n      0xffffffff\n      and\n      mul\n      or\n      swap1\n      sstore\n      pop\n        /* \"contracts/CDS/CDS.sol\":3280:3286  rounds */\n      0x0a\n      0x14\n      swap1\n      sload\n      swap1\n      0x0100\n      exp\n      swap1\n      div\n      0xffffffff\n      and\n        /* \"contracts/CDS/CDS.sol\":3273:3286  return rounds */\n      swap1\n      pop\n        /* \"contracts/CDS/CDS.sol\":3175:3291  function setRounds(uint32 _rounds) private onlyOwner returns (uint32) {... */\n      swap2\n      swap1\n      pop\n      jump\t// out\n        /* \"@openzeppelin/contracts/access/Ownable.sol\":2433:2620  function _transferOwnership(address newOwner) internal virtual {... */\n    tag_210:\n        /* \"@openzeppelin/contracts/access/Ownable.sol\":2506:2522  address oldOwner */\n      0x00\n        /* \"@openzeppelin/contracts/access/Ownable.sol\":2525:2531  _owner */\n      dup1\n      0x00\n      swap1\n      sload\n      swap1\n      0x0100\n      exp\n      swap1\n      div\n      0xffffffffffffffffffffffffffffffffffffffff\n      and\n        /* \"@openzeppelin/contracts/access/Ownable.sol\":2506:2531  address oldOwner = _owner */\n      swap1\n      pop\n        /* \"@openzeppelin/contracts/access/Ownable.sol\":2550:2558  newOwner */\n      dup2\n        /* \"@openzeppelin/contracts/access/Ownable.sol\":2541:2547  _owner */\n      0x00\n      dup1\n        /* \"@openzeppelin/contracts/access/Ownable.sol\":2541:2558  _owner = newOwner */\n      0x0100\n      exp\n      dup2\n      sload\n      dup2\n      0xffffffffffffffffffffffffffffffffffffffff\n      mul\n      not\n      and\n      swap1\n      dup4\n      0xffffffffffffffffffffffffffffffffffffffff\n      and\n      mul\n      or\n      swap1\n      sstore\n      pop\n        /* \"@openzeppelin/contracts/access/Ownable.sol\":2604:2612  newOwner */\n      dup2\n        /* \"@openzeppelin/contracts/access/Ownable.sol\":2573:2613  OwnershipTransferred(oldOwner, newOwner) */\n      0xffffffffffffffffffffffffffffffffffffffff\n      and\n        /* \"@openzeppelin/contracts/access/Ownable.sol\":2594:2602  oldOwner */\n      dup2\n        /* \"@openzeppelin/contracts/access/Ownable.sol\":2573:2613  OwnershipTransferred(oldOwner, newOwner) */\n      0xffffffffffffffffffffffffffffffffffffffff\n      and\n      0x8be0079c531659141344cd1fd0a4f28419497f9722a3daafe3b4186f6b6457e0\n      mload(0x40)\n      mload(0x40)\n      dup1\n      swap2\n      sub\n      swap1\n      log3\n        /* \"@openzeppelin/contracts/access/Ownable.sol\":2496:2620  {... */\n      pop\n        /* \"@openzeppelin/contracts/access/Ownable.sol\":2433:2620  function _transferOwnership(address newOwner) internal virtual {... */\n      pop\n      jump\t// out\n        /* \"@openzeppelin/contracts/utils/math/SafeMath.sol\":3850:3946  function div(uint256 a, uint256 b) internal pure returns (uint256) {... */\n    tag_241:\n        /* \"@openzeppelin/contracts/utils/math/SafeMath.sol\":3908:3915  uint256 */\n      0x00\n        /* \"@openzeppelin/contracts/utils/math/SafeMath.sol\":3938:3939  b */\n      dup2\n        /* \"@openzeppelin/contracts/utils/math/SafeMath.sol\":3934:3935  a */\n      dup4\n        /* \"@openzeppelin/contracts/utils/math/SafeMath.sol\":3934:3939  a / b */\n      tag_309\n      swap2\n      swap1\n      tag_310\n      jump\t// in\n    tag_309:\n        /* \"@openzeppelin/contracts/utils/math/SafeMath.sol\":3927:3939  return a / b */\n      swap1\n      pop\n        /* \"@openzeppelin/contracts/utils/math/SafeMath.sol\":3850:3946  function div(uint256 a, uint256 b) internal pure returns (uint256) {... */\n      swap3\n      swap2\n      pop\n      pop\n      jump\t// out\n        /* \"contracts/libs/LibSwap.sol\":167:588  function calcClaimReward(... */\n    tag_273:\n        /* \"contracts/libs/LibSwap.sol\":311:318  uint256 */\n      0x00\n        /* \"contracts/libs/LibSwap.sol\":326:345  uint256 claimReward */\n      dup1\n        /* \"contracts/libs/LibSwap.sol\":371:379  _current */\n      dup3\n        /* \"contracts/libs/LibSwap.sol\":355:367  _liquidation */\n      dup6\n        /* \"contracts/libs/LibSwap.sol\":355:379  _liquidation >= _current */\n      lt\n        /* \"contracts/libs/LibSwap.sol\":351:560  if (_liquidation >= _current) {... */\n      tag_312\n      jumpi\n        /* \"contracts/libs/LibSwap.sol\":403:411  _deposit */\n      dup6\n        /* \"contracts/libs/LibSwap.sol\":389:411  claimReward = _deposit */\n      swap1\n      pop\n        /* \"contracts/libs/LibSwap.sol\":351:560  if (_liquidation >= _current) {... */\n      jump(tag_313)\n    tag_312:\n        /* \"contracts/libs/LibSwap.sol\":432:450  uint256 numOfAsset */\n      0x00\n        /* \"contracts/libs/LibSwap.sol\":453:493  _deposit.div(_initial.sub(_liquidation)) */\n      tag_314\n        /* \"contracts/libs/LibSwap.sol\":466:492  _initial.sub(_liquidation) */\n      tag_315\n        /* \"contracts/libs/LibSwap.sol\":479:491  _liquidation */\n      dup8\n        /* \"contracts/libs/LibSwap.sol\":466:474  _initial */\n      dup8\n        /* \"contracts/libs/LibSwap.sol\":466:478  _initial.sub */\n      tag_316\n      swap1\n        /* \"contracts/libs/LibSwap.sol\":466:492  _initial.sub(_liquidation) */\n      swap2\n      swap1\n      0xffffffff\n      and\n      jump\t// in\n    tag_315:\n        /* \"contracts/libs/LibSwap.sol\":453:461  _deposit */\n      dup9\n        /* \"contracts/libs/LibSwap.sol\":453:465  _deposit.div */\n      tag_241\n      swap1\n        /* \"contracts/libs/LibSwap.sol\":453:493  _deposit.div(_initial.sub(_liquidation)) */\n      swap2\n      swap1\n      0xffffffff\n      and\n      jump\t// in\n    tag_314:\n        /* \"contracts/libs/LibSwap.sol\":432:493  uint256 numOfAsset = _deposit.div(_initial.sub(_liquidation)) */\n      swap1\n      pop\n        /* \"contracts/libs/LibSwap.sol\":515:553  numOfAsset.mul(_initial.sub(_current)) */\n      tag_317\n        /* \"contracts/libs/LibSwap.sol\":530:552  _initial.sub(_current) */\n      tag_318\n        /* \"contracts/libs/LibSwap.sol\":543:551  _current */\n      dup6\n        /* \"contracts/libs/LibSwap.sol\":530:538  _initial */\n      dup8\n        /* \"contracts/libs/LibSwap.sol\":530:542  _initial.sub */\n      tag_316\n      swap1\n        /* \"contracts/libs/LibSwap.sol\":530:552  _initial.sub(_current) */\n      swap2\n      swap1\n      0xffffffff\n      and\n      jump\t// in\n    tag_318:\n        /* \"contracts/libs/LibSwap.sol\":515:525  numOfAsset */\n      dup3\n        /* \"contracts/libs/LibSwap.sol\":515:529  numOfAsset.mul */\n      tag_319\n      swap1\n        /* \"contracts/libs/LibSwap.sol\":515:553  numOfAsset.mul(_initial.sub(_current)) */\n      swap2\n      swap1\n      0xffffffff\n      and\n      jump\t// in\n    tag_317:\n        /* \"contracts/libs/LibSwap.sol\":501:553  claimReward = numOfAsset.mul(_initial.sub(_current)) */\n      swap2\n      pop\n        /* \"contracts/libs/LibSwap.sol\":424:560  {... */\n      pop\n        /* \"contracts/libs/LibSwap.sol\":351:560  if (_liquidation >= _current) {... */\n    tag_313:\n        /* \"contracts/libs/LibSwap.sol\":572:583  claimReward */\n      dup1\n        /* \"contracts/libs/LibSwap.sol\":565:583  return claimReward */\n      swap2\n      pop\n      pop\n        /* \"contracts/libs/LibSwap.sol\":167:588  function calcClaimReward(... */\n      swap5\n      swap4\n      pop\n      pop\n      pop\n      pop\n      jump\t// out\n        /* \"contracts/libs/LibSwap.sol\":592:795  function calcAmountOfAsset(... */\n    tag_283:\n        /* \"contracts/libs/LibSwap.sol\":722:729  uint256 */\n      0x00\n        /* \"contracts/libs/LibSwap.sol\":744:790  _sellerDeposit.div(_initial.sub(_liquidation)) */\n      tag_321\n        /* \"contracts/libs/LibSwap.sol\":763:789  _initial.sub(_liquidation) */\n      tag_322\n        /* \"contracts/libs/LibSwap.sol\":776:788  _liquidation */\n      dup5\n        /* \"contracts/libs/LibSwap.sol\":763:771  _initial */\n      dup7\n        /* \"contracts/libs/LibSwap.sol\":763:775  _initial.sub */\n      tag_316\n      swap1\n        /* \"contracts/libs/LibSwap.sol\":763:789  _initial.sub(_liquidation) */\n      swap2\n      swap1\n      0xffffffff\n      and\n      jump\t// in\n    tag_322:\n        /* \"contracts/libs/LibSwap.sol\":744:758  _sellerDeposit */\n      dup4\n        /* \"contracts/libs/LibSwap.sol\":744:762  _sellerDeposit.div */\n      tag_241\n      swap1\n        /* \"contracts/libs/LibSwap.sol\":744:790  _sellerDeposit.div(_initial.sub(_liquidation)) */\n      swap2\n      swap1\n      0xffffffff\n      and\n      jump\t// in\n    tag_321:\n        /* \"contracts/libs/LibSwap.sol\":737:790  return _sellerDeposit.div(_initial.sub(_liquidation)) */\n      swap1\n      pop\n        /* \"contracts/libs/LibSwap.sol\":592:795  function calcAmountOfAsset(... */\n      swap4\n      swap3\n      pop\n      pop\n      pop\n      jump\t// out\n        /* \"@openzeppelin/contracts/utils/Context.sol\":640:736  function _msgSender() internal view virtual returns (address) {... */\n    tag_294:\n        /* \"@openzeppelin/contracts/utils/Context.sol\":693:700  address */\n      0x00\n        /* \"@openzeppelin/contracts/utils/Context.sol\":719:729  msg.sender */\n      caller\n        /* \"@openzeppelin/contracts/utils/Context.sol\":712:729  return msg.sender */\n      swap1\n      pop\n        /* \"@openzeppelin/contracts/utils/Context.sol\":640:736  function _msgSender() internal view virtual returns (address) {... */\n      swap1\n      jump\t// out\n        /* \"@openzeppelin/contracts/utils/math/SafeMath.sol\":3122:3218  function sub(uint256 a, uint256 b) internal pure returns (uint256) {... */\n    tag_316:\n        /* \"@openzeppelin/contracts/utils/math/SafeMath.sol\":3180:3187  uint256 */\n      0x00\n        /* \"@openzeppelin/contracts/utils/math/SafeMath.sol\":3210:3211  b */\n      dup2\n        /* \"@openzeppelin/contracts/utils/math/SafeMath.sol\":3206:3207  a */\n      dup4\n        /* \"@openzeppelin/contracts/utils/math/SafeMath.sol\":3206:3211  a - b */\n      tag_325\n      swap2\n      swap1\n      tag_326\n      jump\t// in\n    tag_325:\n        /* \"@openzeppelin/contracts/utils/math/SafeMath.sol\":3199:3211  return a - b */\n      swap1\n      pop\n        /* \"@openzeppelin/contracts/utils/math/SafeMath.sol\":3122:3218  function sub(uint256 a, uint256 b) internal pure returns (uint256) {... */\n      swap3\n      swap2\n      pop\n      pop\n      jump\t// out\n        /* \"@openzeppelin/contracts/utils/math/SafeMath.sol\":3465:3561  function mul(uint256 a, uint256 b) internal pure returns (uint256) {... */\n    tag_319:\n        /* \"@openzeppelin/contracts/utils/math/SafeMath.sol\":3523:3530  uint256 */\n      0x00\n        /* \"@openzeppelin/contracts/utils/math/SafeMath.sol\":3553:3554  b */\n      dup2\n        /* \"@openzeppelin/contracts/utils/math/SafeMath.sol\":3549:3550  a */\n      dup4\n        /* \"@openzeppelin/contracts/utils/math/SafeMath.sol\":3549:3554  a * b */\n      tag_328\n      swap2\n      swap1\n      tag_329\n      jump\t// in\n    tag_328:\n        /* \"@openzeppelin/contracts/utils/math/SafeMath.sol\":3542:3554  return a * b */\n      swap1\n      pop\n        /* \"@openzeppelin/contracts/utils/math/SafeMath.sol\":3465:3561  function mul(uint256 a, uint256 b) internal pure returns (uint256) {... */\n      swap3\n      swap2\n      pop\n      pop\n      jump\t// out\n    tag_231:\n      mload(0x40)\n      dup1\n      0xa0\n      add\n      0x40\n      mstore\n      dup1\n      0x05\n      swap1\n      0x20\n      dup3\n      mul\n      dup1\n      calldatasize\n      dup4\n      calldatacopy\n      dup1\n      dup3\n      add\n      swap2\n      pop\n      pop\n      swap1\n      pop\n      pop\n      swap1\n      jump\t// out\n        /* \"#utility.yul\":7:84   */\n    tag_330:\n        /* \"#utility.yul\":44:51   */\n      0x00\n        /* \"#utility.yul\":73:78   */\n      dup2\n        /* \"#utility.yul\":62:78   */\n      swap1\n      pop\n        /* \"#utility.yul\":7:84   */\n      swap2\n      swap1\n      pop\n      jump\t// out\n        /* \"#utility.yul\":90:208   */\n    tag_331:\n        /* \"#utility.yul\":177:201   */\n      tag_380\n        /* \"#utility.yul\":195:200   */\n      dup2\n        /* \"#utility.yul\":177:201   */\n      tag_330\n      jump\t// in\n    tag_380:\n        /* \"#utility.yul\":172:175   */\n      dup3\n        /* \"#utility.yul\":165:202   */\n      mstore\n        /* \"#utility.yul\":90:208   */\n      pop\n      pop\n      jump\t// out\n        /* \"#utility.yul\":214:436   */\n    tag_43:\n        /* \"#utility.yul\":307:311   */\n      0x00\n        /* \"#utility.yul\":345:347   */\n      0x20\n        /* \"#utility.yul\":334:343   */\n      dup3\n        /* \"#utility.yul\":330:348   */\n      add\n        /* \"#utility.yul\":322:348   */\n      swap1\n      pop\n        /* \"#utility.yul\":358:429   */\n      tag_382\n        /* \"#utility.yul\":426:427   */\n      0x00\n        /* \"#utility.yul\":415:424   */\n      dup4\n        /* \"#utility.yul\":411:428   */\n      add\n        /* \"#utility.yul\":402:408   */\n      dup5\n        /* \"#utility.yul\":358:429   */\n      tag_331\n      jump\t// in\n    tag_382:\n        /* \"#utility.yul\":214:436   */\n      swap3\n      swap2\n      pop\n      pop\n      jump\t// out\n        /* \"#utility.yul\":442:622   */\n    tag_146:\n        /* \"#utility.yul\":490:567   */\n      0x4e487b7100000000000000000000000000000000000000000000000000000000\n        /* \"#utility.yul\":487:488   */\n      0x00\n        /* \"#utility.yul\":480:568   */\n      mstore\n        /* \"#utility.yul\":587:591   */\n      0x21\n        /* \"#utility.yul\":584:585   */\n      0x04\n        /* \"#utility.yul\":577:592   */\n      mstore\n        /* \"#utility.yul\":611:615   */\n      0x24\n        /* \"#utility.yul\":608:609   */\n      0x00\n        /* \"#utility.yul\":601:616   */\n      revert\n        /* \"#utility.yul\":628:743   */\n    tag_332:\n        /* \"#utility.yul\":711:712   */\n      0x05\n        /* \"#utility.yul\":704:709   */\n      dup2\n        /* \"#utility.yul\":701:713   */\n      lt\n        /* \"#utility.yul\":691:737   */\n      tag_385\n      jumpi\n        /* \"#utility.yul\":717:735   */\n      tag_386\n      tag_146\n      jump\t// in\n    tag_386:\n        /* \"#utility.yul\":691:737   */\n    tag_385:\n        /* \"#utility.yul\":628:743   */\n      pop\n      jump\t// out\n        /* \"#utility.yul\":749:880   */\n    tag_333:\n        /* \"#utility.yul\":796:803   */\n      0x00\n        /* \"#utility.yul\":825:830   */\n      dup2\n        /* \"#utility.yul\":814:830   */\n      swap1\n      pop\n        /* \"#utility.yul\":831:874   */\n      tag_388\n        /* \"#utility.yul\":868:873   */\n      dup3\n        /* \"#utility.yul\":831:874   */\n      tag_332\n      jump\t// in\n    tag_388:\n        /* \"#utility.yul\":749:880   */\n      swap2\n      swap1\n      pop\n      jump\t// out\n        /* \"#utility.yul\":886:1017   */\n    tag_334:\n        /* \"#utility.yul\":944:953   */\n      0x00\n        /* \"#utility.yul\":977:1011   */\n      tag_390\n        /* \"#utility.yul\":1005:1010   */\n      dup3\n        /* \"#utility.yul\":977:1011   */\n      tag_333\n      jump\t// in\n    tag_390:\n        /* \"#utility.yul\":964:1011   */\n      swap1\n      pop\n        /* \"#utility.yul\":886:1017   */\n      swap2\n      swap1\n      pop\n      jump\t// out\n        /* \"#utility.yul\":1023:1170   */\n    tag_335:\n        /* \"#utility.yul\":1118:1163   */\n      tag_392\n        /* \"#utility.yul\":1157:1162   */\n      dup2\n        /* \"#utility.yul\":1118:1163   */\n      tag_334\n      jump\t// in\n    tag_392:\n        /* \"#utility.yul\":1113:1116   */\n      dup3\n        /* \"#utility.yul\":1106:1164   */\n      mstore\n        /* \"#utility.yul\":1023:1170   */\n      pop\n      pop\n      jump\t// out\n        /* \"#utility.yul\":1176:1414   */\n    tag_47:\n        /* \"#utility.yul\":1277:1281   */\n      0x00\n        /* \"#utility.yul\":1315:1317   */\n      0x20\n        /* \"#utility.yul\":1304:1313   */\n      dup3\n        /* \"#utility.yul\":1300:1318   */\n      add\n        /* \"#utility.yul\":1292:1318   */\n      swap1\n      pop\n        /* \"#utility.yul\":1328:1407   */\n      tag_394\n        /* \"#utility.yul\":1404:1405   */\n      0x00\n        /* \"#utility.yul\":1393:1402   */\n      dup4\n        /* \"#utility.yul\":1389:1406   */\n      add\n        /* \"#utility.yul\":1380:1386   */\n      dup5\n        /* \"#utility.yul\":1328:1407   */\n      tag_335\n      jump\t// in\n    tag_394:\n        /* \"#utility.yul\":1176:1414   */\n      swap3\n      swap2\n      pop\n      pop\n      jump\t// out\n        /* \"#utility.yul\":1501:1618   */\n    tag_337:\n        /* \"#utility.yul\":1610:1611   */\n      0x00\n        /* \"#utility.yul\":1607:1608   */\n      dup1\n        /* \"#utility.yul\":1600:1612   */\n      revert\n        /* \"#utility.yul\":1747:1869   */\n    tag_339:\n        /* \"#utility.yul\":1820:1844   */\n      tag_399\n        /* \"#utility.yul\":1838:1843   */\n      dup2\n        /* \"#utility.yul\":1820:1844   */\n      tag_330\n      jump\t// in\n    tag_399:\n        /* \"#utility.yul\":1813:1818   */\n      dup2\n        /* \"#utility.yul\":1810:1845   */\n      eq\n        /* \"#utility.yul\":1800:1863   */\n      tag_400\n      jumpi\n        /* \"#utility.yul\":1859:1860   */\n      0x00\n        /* \"#utility.yul\":1856:1857   */\n      dup1\n        /* \"#utility.yul\":1849:1861   */\n      revert\n        /* \"#utility.yul\":1800:1863   */\n    tag_400:\n        /* \"#utility.yul\":1747:1869   */\n      pop\n      jump\t// out\n        /* \"#utility.yul\":1875:2014   */\n    tag_340:\n        /* \"#utility.yul\":1921:1926   */\n      0x00\n        /* \"#utility.yul\":1959:1965   */\n      dup2\n        /* \"#utility.yul\":1946:1966   */\n      calldataload\n        /* \"#utility.yul\":1937:1966   */\n      swap1\n      pop\n        /* \"#utility.yul\":1975:2008   */\n      tag_402\n        /* \"#utility.yul\":2002:2007   */\n      dup2\n        /* \"#utility.yul\":1975:2008   */\n      tag_339\n      jump\t// in\n    tag_402:\n        /* \"#utility.yul\":1875:2014   */\n      swap3\n      swap2\n      pop\n      pop\n      jump\t// out\n        /* \"#utility.yul\":2020:2110   */\n    tag_341:\n        /* \"#utility.yul\":2054:2061   */\n      0x00\n        /* \"#utility.yul\":2097:2102   */\n      dup2\n        /* \"#utility.yul\":2090:2103   */\n      iszero\n        /* \"#utility.yul\":2083:2104   */\n      iszero\n        /* \"#utility.yul\":2072:2104   */\n      swap1\n      pop\n        /* \"#utility.yul\":2020:2110   */\n      swap2\n      swap1\n      pop\n      jump\t// out\n        /* \"#utility.yul\":2116:2232   */\n    tag_342:\n        /* \"#utility.yul\":2186:2207   */\n      tag_405\n        /* \"#utility.yul\":2201:2206   */\n      dup2\n        /* \"#utility.yul\":2186:2207   */\n      tag_341\n      jump\t// in\n    tag_405:\n        /* \"#utility.yul\":2179:2184   */\n      dup2\n        /* \"#utility.yul\":2176:2208   */\n      eq\n        /* \"#utility.yul\":2166:2226   */\n      tag_406\n      jumpi\n        /* \"#utility.yul\":2222:2223   */\n      0x00\n        /* \"#utility.yul\":2219:2220   */\n      dup1\n        /* \"#utility.yul\":2212:2224   */\n      revert\n        /* \"#utility.yul\":2166:2226   */\n    tag_406:\n        /* \"#utility.yul\":2116:2232   */\n      pop\n      jump\t// out\n        /* \"#utility.yul\":2238:2371   */\n    tag_343:\n        /* \"#utility.yul\":2281:2286   */\n      0x00\n        /* \"#utility.yul\":2319:2325   */\n      dup2\n        /* \"#utility.yul\":2306:2326   */\n      calldataload\n        /* \"#utility.yul\":2297:2326   */\n      swap1\n      pop\n        /* \"#utility.yul\":2335:2365   */\n      tag_408\n        /* \"#utility.yul\":2359:2364   */\n      dup2\n        /* \"#utility.yul\":2335:2365   */\n      tag_342\n      jump\t// in\n    tag_408:\n        /* \"#utility.yul\":2238:2371   */\n      swap3\n      swap2\n      pop\n      pop\n      jump\t// out\n        /* \"#utility.yul\":2377:2845   */\n    tag_50:\n        /* \"#utility.yul\":2442:2448   */\n      0x00\n        /* \"#utility.yul\":2450:2456   */\n      dup1\n        /* \"#utility.yul\":2499:2501   */\n      0x40\n        /* \"#utility.yul\":2487:2496   */\n      dup4\n        /* \"#utility.yul\":2478:2485   */\n      dup6\n        /* \"#utility.yul\":2474:2497   */\n      sub\n        /* \"#utility.yul\":2470:2502   */\n      slt\n        /* \"#utility.yul\":2467:2586   */\n      iszero\n      tag_410\n      jumpi\n        /* \"#utility.yul\":2505:2584   */\n      tag_411\n      tag_337\n      jump\t// in\n    tag_411:\n        /* \"#utility.yul\":2467:2586   */\n    tag_410:\n        /* \"#utility.yul\":2625:2626   */\n      0x00\n        /* \"#utility.yul\":2650:2703   */\n      tag_412\n        /* \"#utility.yul\":2695:2702   */\n      dup6\n        /* \"#utility.yul\":2686:2692   */\n      dup3\n        /* \"#utility.yul\":2675:2684   */\n      dup7\n        /* \"#utility.yul\":2671:2693   */\n      add\n        /* \"#utility.yul\":2650:2703   */\n      tag_340\n      jump\t// in\n    tag_412:\n        /* \"#utility.yul\":2640:2703   */\n      swap3\n      pop\n        /* \"#utility.yul\":2596:2713   */\n      pop\n        /* \"#utility.yul\":2752:2754   */\n      0x20\n        /* \"#utility.yul\":2778:2828   */\n      tag_413\n        /* \"#utility.yul\":2820:2827   */\n      dup6\n        /* \"#utility.yul\":2811:2817   */\n      dup3\n        /* \"#utility.yul\":2800:2809   */\n      dup7\n        /* \"#utility.yul\":2796:2818   */\n      add\n        /* \"#utility.yul\":2778:2828   */\n      tag_343\n      jump\t// in\n    tag_413:\n        /* \"#utility.yul\":2768:2828   */\n      swap2\n      pop\n        /* \"#utility.yul\":2723:2838   */\n      pop\n        /* \"#utility.yul\":2377:2845   */\n      swap3\n      pop\n      swap3\n      swap1\n      pop\n      jump\t// out\n        /* \"#utility.yul\":2851:2944   */\n    tag_344:\n        /* \"#utility.yul\":2887:2894   */\n      0x00\n        /* \"#utility.yul\":2927:2937   */\n      0xffffffff\n        /* \"#utility.yul\":2920:2925   */\n      dup3\n        /* \"#utility.yul\":2916:2938   */\n      and\n        /* \"#utility.yul\":2905:2938   */\n      swap1\n      pop\n        /* \"#utility.yul\":2851:2944   */\n      swap2\n      swap1\n      pop\n      jump\t// out\n        /* \"#utility.yul\":2950:3065   */\n    tag_345:\n        /* \"#utility.yul\":3035:3058   */\n      tag_416\n        /* \"#utility.yul\":3052:3057   */\n      dup2\n        /* \"#utility.yul\":3035:3058   */\n      tag_344\n      jump\t// in\n    tag_416:\n        /* \"#utility.yul\":3030:3033   */\n      dup3\n        /* \"#utility.yul\":3023:3059   */\n      mstore\n        /* \"#utility.yul\":2950:3065   */\n      pop\n      pop\n      jump\t// out\n        /* \"#utility.yul\":3071:3289   */\n    tag_55:\n        /* \"#utility.yul\":3162:3166   */\n      0x00\n        /* \"#utility.yul\":3200:3202   */\n      0x20\n        /* \"#utility.yul\":3189:3198   */\n      dup3\n        /* \"#utility.yul\":3185:3203   */\n      add\n        /* \"#utility.yul\":3177:3203   */\n      swap1\n      pop\n        /* \"#utility.yul\":3213:3282   */\n      tag_418\n        /* \"#utility.yul\":3279:3280   */\n      0x00\n        /* \"#utility.yul\":3268:3277   */\n      dup4\n        /* \"#utility.yul\":3264:3281   */\n      add\n        /* \"#utility.yul\":3255:3261   */\n      dup5\n        /* \"#utility.yul\":3213:3282   */\n      tag_345\n      jump\t// in\n    tag_418:\n        /* \"#utility.yul\":3071:3289   */\n      swap3\n      swap2\n      pop\n      pop\n      jump\t// out\n        /* \"#utility.yul\":3295:3421   */\n    tag_346:\n        /* \"#utility.yul\":3332:3339   */\n      0x00\n        /* \"#utility.yul\":3372:3414   */\n      0xffffffffffffffffffffffffffffffffffffffff\n        /* \"#utility.yul\":3365:3370   */\n      dup3\n        /* \"#utility.yul\":3361:3415   */\n      and\n        /* \"#utility.yul\":3350:3415   */\n      swap1\n      pop\n        /* \"#utility.yul\":3295:3421   */\n      swap2\n      swap1\n      pop\n      jump\t// out\n        /* \"#utility.yul\":3427:3523   */\n    tag_347:\n        /* \"#utility.yul\":3464:3471   */\n      0x00\n        /* \"#utility.yul\":3493:3517   */\n      tag_421\n        /* \"#utility.yul\":3511:3516   */\n      dup3\n        /* \"#utility.yul\":3493:3517   */\n      tag_346\n      jump\t// in\n    tag_421:\n        /* \"#utility.yul\":3482:3517   */\n      swap1\n      pop\n        /* \"#utility.yul\":3427:3523   */\n      swap2\n      swap1\n      pop\n      jump\t// out\n        /* \"#utility.yul\":3529:3647   */\n    tag_348:\n        /* \"#utility.yul\":3616:3640   */\n      tag_423\n        /* \"#utility.yul\":3634:3639   */\n      dup2\n        /* \"#utility.yul\":3616:3640   */\n      tag_347\n      jump\t// in\n    tag_423:\n        /* \"#utility.yul\":3611:3614   */\n      dup3\n        /* \"#utility.yul\":3604:3641   */\n      mstore\n        /* \"#utility.yul\":3529:3647   */\n      pop\n      pop\n      jump\t// out\n        /* \"#utility.yul\":3653:3875   */\n    tag_68:\n        /* \"#utility.yul\":3746:3750   */\n      0x00\n        /* \"#utility.yul\":3784:3786   */\n      0x20\n        /* \"#utility.yul\":3773:3782   */\n      dup3\n        /* \"#utility.yul\":3769:3787   */\n      add\n        /* \"#utility.yul\":3761:3787   */\n      swap1\n      pop\n        /* \"#utility.yul\":3797:3868   */\n      tag_425\n        /* \"#utility.yul\":3865:3866   */\n      0x00\n        /* \"#utility.yul\":3854:3863   */\n      dup4\n        /* \"#utility.yul\":3850:3867   */\n      add\n        /* \"#utility.yul\":3841:3847   */\n      dup5\n        /* \"#utility.yul\":3797:3868   */\n      tag_348\n      jump\t// in\n    tag_425:\n        /* \"#utility.yul\":3653:3875   */\n      swap3\n      swap2\n      pop\n      pop\n      jump\t// out\n        /* \"#utility.yul\":3881:3990   */\n    tag_349:\n        /* \"#utility.yul\":3962:3983   */\n      tag_427\n        /* \"#utility.yul\":3977:3982   */\n      dup2\n        /* \"#utility.yul\":3962:3983   */\n      tag_341\n      jump\t// in\n    tag_427:\n        /* \"#utility.yul\":3957:3960   */\n      dup3\n        /* \"#utility.yul\":3950:3984   */\n      mstore\n        /* \"#utility.yul\":3881:3990   */\n      pop\n      pop\n      jump\t// out\n        /* \"#utility.yul\":3996:4206   */\n    tag_74:\n        /* \"#utility.yul\":4083:4087   */\n      0x00\n        /* \"#utility.yul\":4121:4123   */\n      0x20\n        /* \"#utility.yul\":4110:4119   */\n      dup3\n        /* \"#utility.yul\":4106:4124   */\n      add\n        /* \"#utility.yul\":4098:4124   */\n      swap1\n      pop\n        /* \"#utility.yul\":4134:4199   */\n      tag_429\n        /* \"#utility.yul\":4196:4197   */\n      0x00\n        /* \"#utility.yul\":4185:4194   */\n      dup4\n        /* \"#utility.yul\":4181:4198   */\n      add\n        /* \"#utility.yul\":4172:4178   */\n      dup5\n        /* \"#utility.yul\":4134:4199   */\n      tag_349\n      jump\t// in\n    tag_429:\n        /* \"#utility.yul\":3996:4206   */\n      swap3\n      swap2\n      pop\n      pop\n      jump\t// out\n        /* \"#utility.yul\":4212:4334   */\n    tag_350:\n        /* \"#utility.yul\":4285:4309   */\n      tag_431\n        /* \"#utility.yul\":4303:4308   */\n      dup2\n        /* \"#utility.yul\":4285:4309   */\n      tag_347\n      jump\t// in\n    tag_431:\n        /* \"#utility.yul\":4278:4283   */\n      dup2\n        /* \"#utility.yul\":4275:4310   */\n      eq\n        /* \"#utility.yul\":4265:4328   */\n      tag_432\n      jumpi\n        /* \"#utility.yul\":4324:4325   */\n      0x00\n        /* \"#utility.yul\":4321:4322   */\n      dup1\n        /* \"#utility.yul\":4314:4326   */\n      revert\n        /* \"#utility.yul\":4265:4328   */\n    tag_432:\n        /* \"#utility.yul\":4212:4334   */\n      pop\n      jump\t// out\n        /* \"#utility.yul\":4340:4479   */\n    tag_351:\n        /* \"#utility.yul\":4386:4391   */\n      0x00\n        /* \"#utility.yul\":4424:4430   */\n      dup2\n        /* \"#utility.yul\":4411:4431   */\n      calldataload\n        /* \"#utility.yul\":4402:4431   */\n      swap1\n      pop\n        /* \"#utility.yul\":4440:4473   */\n      tag_434\n        /* \"#utility.yul\":4467:4472   */\n      dup2\n        /* \"#utility.yul\":4440:4473   */\n      tag_350\n      jump\t// in\n    tag_434:\n        /* \"#utility.yul\":4340:4479   */\n      swap3\n      swap2\n      pop\n      pop\n      jump\t// out\n        /* \"#utility.yul\":4485:4814   */\n    tag_89:\n        /* \"#utility.yul\":4544:4550   */\n      0x00\n        /* \"#utility.yul\":4593:4595   */\n      0x20\n        /* \"#utility.yul\":4581:4590   */\n      dup3\n        /* \"#utility.yul\":4572:4579   */\n      dup5\n        /* \"#utility.yul\":4568:4591   */\n      sub\n        /* \"#utility.yul\":4564:4596   */\n      slt\n        /* \"#utility.yul\":4561:4680   */\n      iszero\n      tag_436\n      jumpi\n        /* \"#utility.yul\":4599:4678   */\n      tag_437\n      tag_337\n      jump\t// in\n    tag_437:\n        /* \"#utility.yul\":4561:4680   */\n    tag_436:\n        /* \"#utility.yul\":4719:4720   */\n      0x00\n        /* \"#utility.yul\":4744:4797   */\n      tag_438\n        /* \"#utility.yul\":4789:4796   */\n      dup5\n        /* \"#utility.yul\":4780:4786   */\n      dup3\n        /* \"#utility.yul\":4769:4778   */\n      dup6\n        /* \"#utility.yul\":4765:4787   */\n      add\n        /* \"#utility.yul\":4744:4797   */\n      tag_351\n      jump\t// in\n    tag_438:\n        /* \"#utility.yul\":4734:4797   */\n      swap2\n      pop\n        /* \"#utility.yul\":4690:4807   */\n      pop\n        /* \"#utility.yul\":4485:4814   */\n      swap3\n      swap2\n      pop\n      pop\n      jump\t// out\n        /* \"#utility.yul\":4820:5288   */\n    tag_97:\n        /* \"#utility.yul\":4885:4891   */\n      0x00\n        /* \"#utility.yul\":4893:4899   */\n      dup1\n        /* \"#utility.yul\":4942:4944   */\n      0x40\n        /* \"#utility.yul\":4930:4939   */\n      dup4\n        /* \"#utility.yul\":4921:4928   */\n      dup6\n        /* \"#utility.yul\":4917:4940   */\n      sub\n        /* \"#utility.yul\":4913:4945   */\n      slt\n        /* \"#utility.yul\":4910:5029   */\n      iszero\n      tag_440\n      jumpi\n        /* \"#utility.yul\":4948:5027   */\n      tag_441\n      tag_337\n      jump\t// in\n    tag_441:\n        /* \"#utility.yul\":4910:5029   */\n    tag_440:\n        /* \"#utility.yul\":5068:5069   */\n      0x00\n        /* \"#utility.yul\":5093:5146   */\n      tag_442\n        /* \"#utility.yul\":5138:5145   */\n      dup6\n        /* \"#utility.yul\":5129:5135   */\n      dup3\n        /* \"#utility.yul\":5118:5127   */\n      dup7\n        /* \"#utility.yul\":5114:5136   */\n      add\n        /* \"#utility.yul\":5093:5146   */\n      tag_351\n      jump\t// in\n    tag_442:\n        /* \"#utility.yul\":5083:5146   */\n      swap3\n      pop\n        /* \"#utility.yul\":5039:5156   */\n      pop\n        /* \"#utility.yul\":5195:5197   */\n      0x20\n        /* \"#utility.yul\":5221:5271   */\n      tag_443\n        /* \"#utility.yul\":5263:5270   */\n      dup6\n        /* \"#utility.yul\":5254:5260   */\n      dup3\n        /* \"#utility.yul\":5243:5252   */\n      dup7\n        /* \"#utility.yul\":5239:5261   */\n      add\n        /* \"#utility.yul\":5221:5271   */\n      tag_343\n      jump\t// in\n    tag_443:\n        /* \"#utility.yul\":5211:5271   */\n      swap2\n      pop\n        /* \"#utility.yul\":5166:5281   */\n      pop\n        /* \"#utility.yul\":4820:5288   */\n      swap3\n      pop\n      swap3\n      swap1\n      pop\n      jump\t// out\n        /* \"#utility.yul\":5294:5398   */\n    tag_352:\n        /* \"#utility.yul\":5359:5365   */\n      0x00\n        /* \"#utility.yul\":5387:5391   */\n      0x05\n        /* \"#utility.yul\":5377:5391   */\n      swap1\n      pop\n        /* \"#utility.yul\":5294:5398   */\n      swap2\n      swap1\n      pop\n      jump\t// out\n        /* \"#utility.yul\":5404:5547   */\n    tag_353:\n        /* \"#utility.yul\":5501:5512   */\n      0x00\n        /* \"#utility.yul\":5538:5541   */\n      dup2\n        /* \"#utility.yul\":5523:5541   */\n      swap1\n      pop\n        /* \"#utility.yul\":5404:5547   */\n      swap3\n      swap2\n      pop\n      pop\n      jump\t// out\n        /* \"#utility.yul\":5553:5651   */\n    tag_354:\n        /* \"#utility.yul\":5618:5622   */\n      0x00\n        /* \"#utility.yul\":5641:5644   */\n      dup2\n        /* \"#utility.yul\":5633:5644   */\n      swap1\n      pop\n        /* \"#utility.yul\":5553:5651   */\n      swap2\n      swap1\n      pop\n      jump\t// out\n        /* \"#utility.yul\":5657:5765   */\n    tag_355:\n        /* \"#utility.yul\":5734:5758   */\n      tag_448\n        /* \"#utility.yul\":5752:5757   */\n      dup2\n        /* \"#utility.yul\":5734:5758   */\n      tag_330\n      jump\t// in\n    tag_448:\n        /* \"#utility.yul\":5729:5732   */\n      dup3\n        /* \"#utility.yul\":5722:5759   */\n      mstore\n        /* \"#utility.yul\":5657:5765   */\n      pop\n      pop\n      jump\t// out\n        /* \"#utility.yul\":5771:5950   */\n    tag_356:\n        /* \"#utility.yul\":5840:5850   */\n      0x00\n        /* \"#utility.yul\":5861:5907   */\n      tag_450\n        /* \"#utility.yul\":5903:5906   */\n      dup4\n        /* \"#utility.yul\":5895:5901   */\n      dup4\n        /* \"#utility.yul\":5861:5907   */\n      tag_355\n      jump\t// in\n    tag_450:\n        /* \"#utility.yul\":5939:5943   */\n      0x20\n        /* \"#utility.yul\":5934:5937   */\n      dup4\n        /* \"#utility.yul\":5930:5944   */\n      add\n        /* \"#utility.yul\":5916:5944   */\n      swap1\n      pop\n        /* \"#utility.yul\":5771:5950   */\n      swap3\n      swap2\n      pop\n      pop\n      jump\t// out\n        /* \"#utility.yul\":5956:6067   */\n    tag_357:\n        /* \"#utility.yul\":6024:6028   */\n      0x00\n        /* \"#utility.yul\":6056:6060   */\n      0x20\n        /* \"#utility.yul\":6051:6054   */\n      dup3\n        /* \"#utility.yul\":6047:6061   */\n      add\n        /* \"#utility.yul\":6039:6061   */\n      swap1\n      pop\n        /* \"#utility.yul\":5956:6067   */\n      swap2\n      swap1\n      pop\n      jump\t// out\n        /* \"#utility.yul\":6105:6799   */\n    tag_358:\n        /* \"#utility.yul\":6241:6293   */\n      tag_453\n        /* \"#utility.yul\":6287:6292   */\n      dup2\n        /* \"#utility.yul\":6241:6293   */\n      tag_352\n      jump\t// in\n    tag_453:\n        /* \"#utility.yul\":6309:6393   */\n      tag_454\n        /* \"#utility.yul\":6386:6392   */\n      dup2\n        /* \"#utility.yul\":6381:6384   */\n      dup5\n        /* \"#utility.yul\":6309:6393   */\n      tag_353\n      jump\t// in\n    tag_454:\n        /* \"#utility.yul\":6302:6393   */\n      swap3\n      pop\n        /* \"#utility.yul\":6417:6471   */\n      tag_455\n        /* \"#utility.yul\":6465:6470   */\n      dup3\n        /* \"#utility.yul\":6417:6471   */\n      tag_354\n      jump\t// in\n    tag_455:\n        /* \"#utility.yul\":6494:6501   */\n      dup1\n        /* \"#utility.yul\":6525:6526   */\n      0x00\n        /* \"#utility.yul\":6510:6792   */\n    tag_456:\n        /* \"#utility.yul\":6535:6541   */\n      dup4\n        /* \"#utility.yul\":6532:6533   */\n      dup2\n        /* \"#utility.yul\":6529:6542   */\n      lt\n        /* \"#utility.yul\":6510:6792   */\n      iszero\n      tag_458\n      jumpi\n        /* \"#utility.yul\":6611:6617   */\n      dup2\n        /* \"#utility.yul\":6605:6618   */\n      mload\n        /* \"#utility.yul\":6638:6701   */\n      tag_459\n        /* \"#utility.yul\":6697:6700   */\n      dup8\n        /* \"#utility.yul\":6682:6695   */\n      dup3\n        /* \"#utility.yul\":6638:6701   */\n      tag_356\n      jump\t// in\n    tag_459:\n        /* \"#utility.yul\":6631:6701   */\n      swap7\n      pop\n        /* \"#utility.yul\":6724:6782   */\n      tag_460\n        /* \"#utility.yul\":6775:6781   */\n      dup4\n        /* \"#utility.yul\":6724:6782   */\n      tag_357\n      jump\t// in\n    tag_460:\n        /* \"#utility.yul\":6714:6782   */\n      swap3\n      pop\n        /* \"#utility.yul\":6570:6792   */\n      pop\n        /* \"#utility.yul\":6557:6558   */\n      0x01\n        /* \"#utility.yul\":6554:6555   */\n      dup2\n        /* \"#utility.yul\":6550:6559   */\n      add\n        /* \"#utility.yul\":6545:6559   */\n      swap1\n      pop\n        /* \"#utility.yul\":6510:6792   */\n      jump(tag_456)\n    tag_458:\n        /* \"#utility.yul\":6514:6528   */\n      pop\n        /* \"#utility.yul\":6217:6799   */\n      pop\n      pop\n      pop\n        /* \"#utility.yul\":6105:6799   */\n      pop\n      pop\n      jump\t// out\n        /* \"#utility.yul\":6805:7120   */\n    tag_102:\n        /* \"#utility.yul\":6944:6948   */\n      0x00\n        /* \"#utility.yul\":6982:6985   */\n      0xa0\n        /* \"#utility.yul\":6971:6980   */\n      dup3\n        /* \"#utility.yul\":6967:6986   */\n      add\n        /* \"#utility.yul\":6959:6986   */\n      swap1\n      pop\n        /* \"#utility.yul\":6996:7113   */\n      tag_462\n        /* \"#utility.yul\":7110:7111   */\n      0x00\n        /* \"#utility.yul\":7099:7108   */\n      dup4\n        /* \"#utility.yul\":7095:7112   */\n      add\n        /* \"#utility.yul\":7086:7092   */\n      dup5\n        /* \"#utility.yul\":6996:7113   */\n      tag_358\n      jump\t// in\n    tag_462:\n        /* \"#utility.yul\":6805:7120   */\n      swap3\n      swap2\n      pop\n      pop\n      jump\t// out\n        /* \"#utility.yul\":7126:7455   */\n    tag_105:\n        /* \"#utility.yul\":7185:7191   */\n      0x00\n        /* \"#utility.yul\":7234:7236   */\n      0x20\n        /* \"#utility.yul\":7222:7231   */\n      dup3\n        /* \"#utility.yul\":7213:7220   */\n      dup5\n        /* \"#utility.yul\":7209:7232   */\n      sub\n        /* \"#utility.yul\":7205:7237   */\n      slt\n        /* \"#utility.yul\":7202:7321   */\n      iszero\n      tag_464\n      jumpi\n        /* \"#utility.yul\":7240:7319   */\n      tag_465\n      tag_337\n      jump\t// in\n    tag_465:\n        /* \"#utility.yul\":7202:7321   */\n    tag_464:\n        /* \"#utility.yul\":7360:7361   */\n      0x00\n        /* \"#utility.yul\":7385:7438   */\n      tag_466\n        /* \"#utility.yul\":7430:7437   */\n      dup5\n        /* \"#utility.yul\":7421:7427   */\n      dup3\n        /* \"#utility.yul\":7410:7419   */\n      dup6\n        /* \"#utility.yul\":7406:7428   */\n      add\n        /* \"#utility.yul\":7385:7438   */\n      tag_340\n      jump\t// in\n    tag_466:\n        /* \"#utility.yul\":7375:7438   */\n      swap2\n      pop\n        /* \"#utility.yul\":7331:7448   */\n      pop\n        /* \"#utility.yul\":7126:7455   */\n      swap3\n      swap2\n      pop\n      pop\n      jump\t// out\n        /* \"#utility.yul\":7461:7581   */\n    tag_359:\n        /* \"#utility.yul\":7533:7556   */\n      tag_468\n        /* \"#utility.yul\":7550:7555   */\n      dup2\n        /* \"#utility.yul\":7533:7556   */\n      tag_344\n      jump\t// in\n    tag_468:\n        /* \"#utility.yul\":7526:7531   */\n      dup2\n        /* \"#utility.yul\":7523:7557   */\n      eq\n        /* \"#utility.yul\":7513:7575   */\n      tag_469\n      jumpi\n        /* \"#utility.yul\":7571:7572   */\n      0x00\n        /* \"#utility.yul\":7568:7569   */\n      dup1\n        /* \"#utility.yul\":7561:7573   */\n      revert\n        /* \"#utility.yul\":7513:7575   */\n    tag_469:\n        /* \"#utility.yul\":7461:7581   */\n      pop\n      jump\t// out\n        /* \"#utility.yul\":7587:7724   */\n    tag_360:\n        /* \"#utility.yul\":7632:7637   */\n      0x00\n        /* \"#utility.yul\":7670:7676   */\n      dup2\n        /* \"#utility.yul\":7657:7677   */\n      calldataload\n        /* \"#utility.yul\":7648:7677   */\n      swap1\n      pop\n        /* \"#utility.yul\":7686:7718   */\n      tag_471\n        /* \"#utility.yul\":7712:7717   */\n      dup2\n        /* \"#utility.yul\":7686:7718   */\n      tag_359\n      jump\t// in\n    tag_471:\n        /* \"#utility.yul\":7587:7724   */\n      swap3\n      swap2\n      pop\n      pop\n      jump\t// out\n        /* \"#utility.yul\":7730:8057   */\n    tag_110:\n        /* \"#utility.yul\":7788:7794   */\n      0x00\n        /* \"#utility.yul\":7837:7839   */\n      0x20\n        /* \"#utility.yul\":7825:7834   */\n      dup3\n        /* \"#utility.yul\":7816:7823   */\n      dup5\n        /* \"#utility.yul\":7812:7835   */\n      sub\n        /* \"#utility.yul\":7808:7840   */\n      slt\n        /* \"#utility.yul\":7805:7924   */\n      iszero\n      tag_473\n      jumpi\n        /* \"#utility.yul\":7843:7922   */\n      tag_474\n      tag_337\n      jump\t// in\n    tag_474:\n        /* \"#utility.yul\":7805:7924   */\n    tag_473:\n        /* \"#utility.yul\":7963:7964   */\n      0x00\n        /* \"#utility.yul\":7988:8040   */\n      tag_475\n        /* \"#utility.yul\":8032:8039   */\n      dup5\n        /* \"#utility.yul\":8023:8029   */\n      dup3\n        /* \"#utility.yul\":8012:8021   */\n      dup6\n        /* \"#utility.yul\":8008:8030   */\n      add\n        /* \"#utility.yul\":7988:8040   */\n      tag_360\n      jump\t// in\n    tag_475:\n        /* \"#utility.yul\":7978:8040   */\n      swap2\n      pop\n        /* \"#utility.yul\":7934:8050   */\n      pop\n        /* \"#utility.yul\":7730:8057   */\n      swap3\n      swap2\n      pop\n      pop\n      jump\t// out\n        /* \"#utility.yul\":8063:8232   */\n    tag_361:\n        /* \"#utility.yul\":8147:8158   */\n      0x00\n        /* \"#utility.yul\":8181:8187   */\n      dup3\n        /* \"#utility.yul\":8176:8179   */\n      dup3\n        /* \"#utility.yul\":8169:8188   */\n      mstore\n        /* \"#utility.yul\":8221:8225   */\n      0x20\n        /* \"#utility.yul\":8216:8219   */\n      dup3\n        /* \"#utility.yul\":8212:8226   */\n      add\n        /* \"#utility.yul\":8197:8226   */\n      swap1\n      pop\n        /* \"#utility.yul\":8063:8232   */\n      swap3\n      swap2\n      pop\n      pop\n      jump\t// out\n        /* \"#utility.yul\":8238:8464   */\n    tag_362:\n        /* \"#utility.yul\":8378:8412   */\n      0x54686520737461747573206f6620746865204344532073686f756c6420626520\n        /* \"#utility.yul\":8374:8375   */\n      0x00\n        /* \"#utility.yul\":8366:8372   */\n      dup3\n        /* \"#utility.yul\":8362:8376   */\n      add\n        /* \"#utility.yul\":8355:8413   */\n      mstore\n        /* \"#utility.yul\":8447:8456   */\n      0x70656e64696e6700000000000000000000000000000000000000000000000000\n        /* \"#utility.yul\":8442:8444   */\n      0x20\n        /* \"#utility.yul\":8434:8440   */\n      dup3\n        /* \"#utility.yul\":8430:8445   */\n      add\n        /* \"#utility.yul\":8423:8457   */\n      mstore\n        /* \"#utility.yul\":8238:8464   */\n      pop\n      jump\t// out\n        /* \"#utility.yul\":8470:8836   */\n    tag_363:\n        /* \"#utility.yul\":8612:8615   */\n      0x00\n        /* \"#utility.yul\":8633:8700   */\n      tag_479\n        /* \"#utility.yul\":8697:8699   */\n      0x27\n        /* \"#utility.yul\":8692:8695   */\n      dup4\n        /* \"#utility.yul\":8633:8700   */\n      tag_361\n      jump\t// in\n    tag_479:\n        /* \"#utility.yul\":8626:8700   */\n      swap2\n      pop\n        /* \"#utility.yul\":8709:8802   */\n      tag_480\n        /* \"#utility.yul\":8798:8801   */\n      dup3\n        /* \"#utility.yul\":8709:8802   */\n      tag_362\n      jump\t// in\n    tag_480:\n        /* \"#utility.yul\":8827:8829   */\n      0x40\n        /* \"#utility.yul\":8822:8825   */\n      dup3\n        /* \"#utility.yul\":8818:8830   */\n      add\n        /* \"#utility.yul\":8811:8830   */\n      swap1\n      pop\n        /* \"#utility.yul\":8470:8836   */\n      swap2\n      swap1\n      pop\n      jump\t// out\n        /* \"#utility.yul\":8842:9261   */\n    tag_151:\n        /* \"#utility.yul\":9008:9012   */\n      0x00\n        /* \"#utility.yul\":9046:9048   */\n      0x20\n        /* \"#utility.yul\":9035:9044   */\n      dup3\n        /* \"#utility.yul\":9031:9049   */\n      add\n        /* \"#utility.yul\":9023:9049   */\n      swap1\n      pop\n        /* \"#utility.yul\":9095:9104   */\n      dup2\n        /* \"#utility.yul\":9089:9093   */\n      dup2\n        /* \"#utility.yul\":9085:9105   */\n      sub\n        /* \"#utility.yul\":9081:9082   */\n      0x00\n        /* \"#utility.yul\":9070:9079   */\n      dup4\n        /* \"#utility.yul\":9066:9083   */\n      add\n        /* \"#utility.yul\":9059:9106   */\n      mstore\n        /* \"#utility.yul\":9123:9254   */\n      tag_482\n        /* \"#utility.yul\":9249:9253   */\n      dup2\n        /* \"#utility.yul\":9123:9254   */\n      tag_363\n      jump\t// in\n    tag_482:\n        /* \"#utility.yul\":9115:9254   */\n      swap1\n      pop\n        /* \"#utility.yul\":8842:9261   */\n      swap2\n      swap1\n      pop\n      jump\t// out\n        /* \"#utility.yul\":9267:9447   */\n    tag_364:\n        /* \"#utility.yul\":9315:9392   */\n      0x4e487b7100000000000000000000000000000000000000000000000000000000\n        /* \"#utility.yul\":9312:9313   */\n      0x00\n        /* \"#utility.yul\":9305:9393   */\n      mstore\n        /* \"#utility.yul\":9412:9416   */\n      0x11\n        /* \"#utility.yul\":9409:9410   */\n      0x04\n        /* \"#utility.yul\":9402:9417   */\n      mstore\n        /* \"#utility.yul\":9436:9440   */\n      0x24\n        /* \"#utility.yul\":9433:9434   */\n      0x00\n        /* \"#utility.yul\":9426:9441   */\n      revert\n        /* \"#utility.yul\":9453:9758   */\n    tag_158:\n        /* \"#utility.yul\":9493:9496   */\n      0x00\n        /* \"#utility.yul\":9512:9532   */\n      tag_485\n        /* \"#utility.yul\":9530:9531   */\n      dup3\n        /* \"#utility.yul\":9512:9532   */\n      tag_330\n      jump\t// in\n    tag_485:\n        /* \"#utility.yul\":9507:9532   */\n      swap2\n      pop\n        /* \"#utility.yul\":9546:9566   */\n      tag_486\n        /* \"#utility.yul\":9564:9565   */\n      dup4\n        /* \"#utility.yul\":9546:9566   */\n      tag_330\n      jump\t// in\n    tag_486:\n        /* \"#utility.yul\":9541:9566   */\n      swap3\n      pop\n        /* \"#utility.yul\":9700:9701   */\n      dup3\n        /* \"#utility.yul\":9632:9698   */\n      0xffffffffffffffffffffffffffffffffffffffffffffffffffffffffffffffff\n        /* \"#utility.yul\":9628:9702   */\n      sub\n        /* \"#utility.yul\":9625:9626   */\n      dup3\n        /* \"#utility.yul\":9622:9703   */\n      gt\n        /* \"#utility.yul\":9619:9726   */\n      iszero\n      tag_487\n      jumpi\n        /* \"#utility.yul\":9706:9724   */\n      tag_488\n      tag_364\n      jump\t// in\n    tag_488:\n        /* \"#utility.yul\":9619:9726   */\n    tag_487:\n        /* \"#utility.yul\":9750:9751   */\n      dup3\n        /* \"#utility.yul\":9747:9748   */\n      dup3\n        /* \"#utility.yul\":9743:9752   */\n      add\n        /* \"#utility.yul\":9736:9752   */\n      swap1\n      pop\n        /* \"#utility.yul\":9453:9758   */\n      swap3\n      swap2\n      pop\n      pop\n      jump\t// out\n        /* \"#utility.yul\":9764:9952   */\n    tag_160:\n        /* \"#utility.yul\":9803:9807   */\n      0x00\n        /* \"#utility.yul\":9823:9842   */\n      tag_490\n        /* \"#utility.yul\":9840:9841   */\n      dup3\n        /* \"#utility.yul\":9823:9842   */\n      tag_344\n      jump\t// in\n    tag_490:\n        /* \"#utility.yul\":9818:9842   */\n      swap2\n      pop\n        /* \"#utility.yul\":9856:9875   */\n      tag_491\n        /* \"#utility.yul\":9873:9874   */\n      dup4\n        /* \"#utility.yul\":9856:9875   */\n      tag_344\n      jump\t// in\n    tag_491:\n        /* \"#utility.yul\":9851:9875   */\n      swap3\n      pop\n        /* \"#utility.yul\":9894:9895   */\n      dup3\n        /* \"#utility.yul\":9891:9892   */\n      dup3\n        /* \"#utility.yul\":9888:9896   */\n      lt\n        /* \"#utility.yul\":9885:9919   */\n      iszero\n      tag_492\n      jumpi\n        /* \"#utility.yul\":9899:9917   */\n      tag_493\n      tag_364\n      jump\t// in\n    tag_493:\n        /* \"#utility.yul\":9885:9919   */\n    tag_492:\n        /* \"#utility.yul\":9944:9945   */\n      dup3\n        /* \"#utility.yul\":9941:9942   */\n      dup3\n        /* \"#utility.yul\":9937:9946   */\n      sub\n        /* \"#utility.yul\":9929:9946   */\n      swap1\n      pop\n        /* \"#utility.yul\":9764:9952   */\n      swap3\n      swap2\n      pop\n      pop\n      jump\t// out\n        /* \"#utility.yul\":9958:10183   */\n    tag_365:\n        /* \"#utility.yul\":10098:10132   */\n      0x54686520737461747573206f6620746865204344532073686f756c6420626520\n        /* \"#utility.yul\":10094:10095   */\n      0x00\n        /* \"#utility.yul\":10086:10092   */\n      dup3\n        /* \"#utility.yul\":10082:10096   */\n      add\n        /* \"#utility.yul\":10075:10133   */\n      mstore\n        /* \"#utility.yul\":10167:10175   */\n      0x6163746976650000000000000000000000000000000000000000000000000000\n        /* \"#utility.yul\":10162:10164   */\n      0x20\n        /* \"#utility.yul\":10154:10160   */\n      dup3\n        /* \"#utility.yul\":10150:10165   */\n      add\n        /* \"#utility.yul\":10143:10176   */\n      mstore\n        /* \"#utility.yul\":9958:10183   */\n      pop\n      jump\t// out\n        /* \"#utility.yul\":10189:10555   */\n    tag_366:\n        /* \"#utility.yul\":10331:10334   */\n      0x00\n        /* \"#utility.yul\":10352:10419   */\n      tag_496\n        /* \"#utility.yul\":10416:10418   */\n      0x26\n        /* \"#utility.yul\":10411:10414   */\n      dup4\n        /* \"#utility.yul\":10352:10419   */\n      tag_361\n      jump\t// in\n    tag_496:\n        /* \"#utility.yul\":10345:10419   */\n      swap2\n      pop\n        /* \"#utility.yul\":10428:10521   */\n      tag_497\n        /* \"#utility.yul\":10517:10520   */\n      dup3\n        /* \"#utility.yul\":10428:10521   */\n      tag_365\n      jump\t// in\n    tag_497:\n        /* \"#utility.yul\":10546:10548   */\n      0x40\n        /* \"#utility.yul\":10541:10544   */\n      dup3\n        /* \"#utility.yul\":10537:10549   */\n      add\n        /* \"#utility.yul\":10530:10549   */\n      swap1\n      pop\n        /* \"#utility.yul\":10189:10555   */\n      swap2\n      swap1\n      pop\n      jump\t// out\n        /* \"#utility.yul\":10561:10980   */\n    tag_170:\n        /* \"#utility.yul\":10727:10731   */\n      0x00\n        /* \"#utility.yul\":10765:10767   */\n      0x20\n        /* \"#utility.yul\":10754:10763   */\n      dup3\n        /* \"#utility.yul\":10750:10768   */\n      add\n        /* \"#utility.yul\":10742:10768   */\n      swap1\n      pop\n        /* \"#utility.yul\":10814:10823   */\n      dup2\n        /* \"#utility.yul\":10808:10812   */\n      dup2\n        /* \"#utility.yul\":10804:10824   */\n      sub\n        /* \"#utility.yul\":10800:10801   */\n      0x00\n        /* \"#utility.yul\":10789:10798   */\n      dup4\n        /* \"#utility.yul\":10785:10802   */\n      add\n        /* \"#utility.yul\":10778:10825   */\n      mstore\n        /* \"#utility.yul\":10842:10973   */\n      tag_499\n        /* \"#utility.yul\":10968:10972   */\n      dup2\n        /* \"#utility.yul\":10842:10973   */\n      tag_366\n      jump\t// in\n    tag_499:\n        /* \"#utility.yul\":10834:10973   */\n      swap1\n      pop\n        /* \"#utility.yul\":10561:10980   */\n      swap2\n      swap1\n      pop\n      jump\t// out\n        /* \"#utility.yul\":10986:11224   */\n    tag_367:\n        /* \"#utility.yul\":11126:11160   */\n      0x43757272656e7420707269636520697320686967686572207468616e20746865\n        /* \"#utility.yul\":11122:11123   */\n      0x00\n        /* \"#utility.yul\":11114:11120   */\n      dup3\n        /* \"#utility.yul\":11110:11124   */\n      add\n        /* \"#utility.yul\":11103:11161   */\n      mstore\n        /* \"#utility.yul\":11195:11216   */\n      0x20636c61696d20707269636520696e2043445300000000000000000000000000\n        /* \"#utility.yul\":11190:11192   */\n      0x20\n        /* \"#utility.yul\":11182:11188   */\n      dup3\n        /* \"#utility.yul\":11178:11193   */\n      add\n        /* \"#utility.yul\":11171:11217   */\n      mstore\n        /* \"#utility.yul\":10986:11224   */\n      pop\n      jump\t// out\n        /* \"#utility.yul\":11230:11596   */\n    tag_368:\n        /* \"#utility.yul\":11372:11375   */\n      0x00\n        /* \"#utility.yul\":11393:11460   */\n      tag_502\n        /* \"#utility.yul\":11457:11459   */\n      0x33\n        /* \"#utility.yul\":11452:11455   */\n      dup4\n        /* \"#utility.yul\":11393:11460   */\n      tag_361\n      jump\t// in\n    tag_502:\n        /* \"#utility.yul\":11386:11460   */\n      swap2\n      pop\n        /* \"#utility.yul\":11469:11562   */\n      tag_503\n        /* \"#utility.yul\":11558:11561   */\n      dup3\n        /* \"#utility.yul\":11469:11562   */\n      tag_367\n      jump\t// in\n    tag_503:\n        /* \"#utility.yul\":11587:11589   */\n      0x40\n        /* \"#utility.yul\":11582:11585   */\n      dup3\n        /* \"#utility.yul\":11578:11590   */\n      add\n        /* \"#utility.yul\":11571:11590   */\n      swap1\n      pop\n        /* \"#utility.yul\":11230:11596   */\n      swap2\n      swap1\n      pop\n      jump\t// out\n        /* \"#utility.yul\":11602:12021   */\n    tag_186:\n        /* \"#utility.yul\":11768:11772   */\n      0x00\n        /* \"#utility.yul\":11806:11808   */\n      0x20\n        /* \"#utility.yul\":11795:11804   */\n      dup3\n        /* \"#utility.yul\":11791:11809   */\n      add\n        /* \"#utility.yul\":11783:11809   */\n      swap1\n      pop\n        /* \"#utility.yul\":11855:11864   */\n      dup2\n        /* \"#utility.yul\":11849:11853   */\n      dup2\n        /* \"#utility.yul\":11845:11865   */\n      sub\n        /* \"#utility.yul\":11841:11842   */\n      0x00\n        /* \"#utility.yul\":11830:11839   */\n      dup4\n        /* \"#utility.yul\":11826:11843   */\n      add\n        /* \"#utility.yul\":11819:11866   */\n      mstore\n        /* \"#utility.yul\":11883:12014   */\n      tag_505\n        /* \"#utility.yul\":12009:12013   */\n      dup2\n        /* \"#utility.yul\":11883:12014   */\n      tag_368\n      jump\t// in\n    tag_505:\n        /* \"#utility.yul\":11875:12014   */\n      swap1\n      pop\n        /* \"#utility.yul\":11602:12021   */\n      swap2\n      swap1\n      pop\n      jump\t// out\n        /* \"#utility.yul\":12027:12196   */\n    tag_369:\n        /* \"#utility.yul\":12167:12188   */\n      0x526f756e6420616c726561647920656e64656400000000000000000000000000\n        /* \"#utility.yul\":12163:12164   */\n      0x00\n        /* \"#utility.yul\":12155:12161   */\n      dup3\n        /* \"#utility.yul\":12151:12165   */\n      add\n        /* \"#utility.yul\":12144:12189   */\n      mstore\n        /* \"#utility.yul\":12027:12196   */\n      pop\n      jump\t// out\n        /* \"#utility.yul\":12202:12568   */\n    tag_370:\n        /* \"#utility.yul\":12344:12347   */\n      0x00\n        /* \"#utility.yul\":12365:12432   */\n      tag_508\n        /* \"#utility.yul\":12429:12431   */\n      0x13\n        /* \"#utility.yul\":12424:12427   */\n      dup4\n        /* \"#utility.yul\":12365:12432   */\n      tag_361\n      jump\t// in\n    tag_508:\n        /* \"#utility.yul\":12358:12432   */\n      swap2\n      pop\n        /* \"#utility.yul\":12441:12534   */\n      tag_509\n        /* \"#utility.yul\":12530:12533   */\n      dup3\n        /* \"#utility.yul\":12441:12534   */\n      tag_369\n      jump\t// in\n    tag_509:\n        /* \"#utility.yul\":12559:12561   */\n      0x20\n        /* \"#utility.yul\":12554:12557   */\n      dup3\n        /* \"#utility.yul\":12550:12562   */\n      add\n        /* \"#utility.yul\":12543:12562   */\n      swap1\n      pop\n        /* \"#utility.yul\":12202:12568   */\n      swap2\n      swap1\n      pop\n      jump\t// out\n        /* \"#utility.yul\":12574:12993   */\n    tag_200:\n        /* \"#utility.yul\":12740:12744   */\n      0x00\n        /* \"#utility.yul\":12778:12780   */\n      0x20\n        /* \"#utility.yul\":12767:12776   */\n      dup3\n        /* \"#utility.yul\":12763:12781   */\n      add\n        /* \"#utility.yul\":12755:12781   */\n      swap1\n      pop\n        /* \"#utility.yul\":12827:12836   */\n      dup2\n        /* \"#utility.yul\":12821:12825   */\n      dup2\n        /* \"#utility.yul\":12817:12837   */\n      sub\n        /* \"#utility.yul\":12813:12814   */\n      0x00\n        /* \"#utility.yul\":12802:12811   */\n      dup4\n        /* \"#utility.yul\":12798:12815   */\n      add\n        /* \"#utility.yul\":12791:12838   */\n      mstore\n        /* \"#utility.yul\":12855:12986   */\n      tag_511\n        /* \"#utility.yul\":12981:12985   */\n      dup2\n        /* \"#utility.yul\":12855:12986   */\n      tag_370\n      jump\t// in\n    tag_511:\n        /* \"#utility.yul\":12847:12986   */\n      swap1\n      pop\n        /* \"#utility.yul\":12574:12993   */\n      swap2\n      swap1\n      pop\n      jump\t// out\n        /* \"#utility.yul\":12999:13142   */\n    tag_371:\n        /* \"#utility.yul\":13056:13061   */\n      0x00\n        /* \"#utility.yul\":13087:13093   */\n      dup2\n        /* \"#utility.yul\":13081:13094   */\n      mload\n        /* \"#utility.yul\":13072:13094   */\n      swap1\n      pop\n        /* \"#utility.yul\":13103:13136   */\n      tag_513\n        /* \"#utility.yul\":13130:13135   */\n      dup2\n        /* \"#utility.yul\":13103:13136   */\n      tag_339\n      jump\t// in\n    tag_513:\n        /* \"#utility.yul\":12999:13142   */\n      swap3\n      swap2\n      pop\n      pop\n      jump\t// out\n        /* \"#utility.yul\":13148:13499   */\n    tag_240:\n        /* \"#utility.yul\":13218:13224   */\n      0x00\n        /* \"#utility.yul\":13267:13269   */\n      0x20\n        /* \"#utility.yul\":13255:13264   */\n      dup3\n        /* \"#utility.yul\":13246:13253   */\n      dup5\n        /* \"#utility.yul\":13242:13265   */\n      sub\n        /* \"#utility.yul\":13238:13270   */\n      slt\n        /* \"#utility.yul\":13235:13354   */\n      iszero\n      tag_515\n      jumpi\n        /* \"#utility.yul\":13273:13352   */\n      tag_516\n      tag_337\n      jump\t// in\n    tag_516:\n        /* \"#utility.yul\":13235:13354   */\n    tag_515:\n        /* \"#utility.yul\":13393:13394   */\n      0x00\n        /* \"#utility.yul\":13418:13482   */\n      tag_517\n        /* \"#utility.yul\":13474:13481   */\n      dup5\n        /* \"#utility.yul\":13465:13471   */\n      dup3\n        /* \"#utility.yul\":13454:13463   */\n      dup6\n        /* \"#utility.yul\":13450:13472   */\n      add\n        /* \"#utility.yul\":13418:13482   */\n      tag_371\n      jump\t// in\n    tag_517:\n        /* \"#utility.yul\":13408:13482   */\n      swap2\n      pop\n        /* \"#utility.yul\":13364:13492   */\n      pop\n        /* \"#utility.yul\":13148:13499   */\n      swap3\n      swap2\n      pop\n      pop\n      jump\t// out\n        /* \"#utility.yul\":13505:13730   */\n    tag_372:\n        /* \"#utility.yul\":13645:13679   */\n      0x4f776e61626c653a206e6577206f776e657220697320746865207a65726f2061\n        /* \"#utility.yul\":13641:13642   */\n      0x00\n        /* \"#utility.yul\":13633:13639   */\n      dup3\n        /* \"#utility.yul\":13629:13643   */\n      add\n        /* \"#utility.yul\":13622:13680   */\n      mstore\n        /* \"#utility.yul\":13714:13722   */\n      0x6464726573730000000000000000000000000000000000000000000000000000\n        /* \"#utility.yul\":13709:13711   */\n      0x20\n        /* \"#utility.yul\":13701:13707   */\n      dup3\n        /* \"#utility.yul\":13697:13712   */\n      add\n        /* \"#utility.yul\":13690:13723   */\n      mstore\n        /* \"#utility.yul\":13505:13730   */\n      pop\n      jump\t// out\n        /* \"#utility.yul\":13736:14102   */\n    tag_373:\n        /* \"#utility.yul\":13878:13881   */\n      0x00\n        /* \"#utility.yul\":13899:13966   */\n      tag_520\n        /* \"#utility.yul\":13963:13965   */\n      0x26\n        /* \"#utility.yul\":13958:13961   */\n      dup4\n        /* \"#utility.yul\":13899:13966   */\n      tag_361\n      jump\t// in\n    tag_520:\n        /* \"#utility.yul\":13892:13966   */\n      swap2\n      pop\n        /* \"#utility.yul\":13975:14068   */\n      tag_521\n        /* \"#utility.yul\":14064:14067   */\n      dup3\n        /* \"#utility.yul\":13975:14068   */\n      tag_372\n      jump\t// in\n    tag_521:\n        /* \"#utility.yul\":14093:14095   */\n      0x40\n        /* \"#utility.yul\":14088:14091   */\n      dup3\n        /* \"#utility.yul\":14084:14096   */\n      add\n        /* \"#utility.yul\":14077:14096   */\n      swap1\n      pop\n        /* \"#utility.yul\":13736:14102   */\n      swap2\n      swap1\n      pop\n      jump\t// out\n        /* \"#utility.yul\":14108:14527   */\n    tag_279:\n        /* \"#utility.yul\":14274:14278   */\n      0x00\n        /* \"#utility.yul\":14312:14314   */\n      0x20\n        /* \"#utility.yul\":14301:14310   */\n      dup3\n        /* \"#utility.yul\":14297:14315   */\n      add\n        /* \"#utility.yul\":14289:14315   */\n      swap1\n      pop\n        /* \"#utility.yul\":14361:14370   */\n      dup2\n        /* \"#utility.yul\":14355:14359   */\n      dup2\n        /* \"#utility.yul\":14351:14371   */\n      sub\n        /* \"#utility.yul\":14347:14348   */\n      0x00\n        /* \"#utility.yul\":14336:14345   */\n      dup4\n        /* \"#utility.yul\":14332:14349   */\n      add\n        /* \"#utility.yul\":14325:14372   */\n      mstore\n        /* \"#utility.yul\":14389:14520   */\n      tag_523\n        /* \"#utility.yul\":14515:14519   */\n      dup2\n        /* \"#utility.yul\":14389:14520   */\n      tag_373\n      jump\t// in\n    tag_523:\n        /* \"#utility.yul\":14381:14520   */\n      swap1\n      pop\n        /* \"#utility.yul\":14108:14527   */\n      swap2\n      swap1\n      pop\n      jump\t// out\n        /* \"#utility.yul\":14533:14715   */\n    tag_374:\n        /* \"#utility.yul\":14673:14707   */\n      0x4f776e61626c653a2063616c6c6572206973206e6f7420746865206f776e6572\n        /* \"#utility.yul\":14669:14670   */\n      0x00\n        /* \"#utility.yul\":14661:14667   */\n      dup3\n        /* \"#utility.yul\":14657:14671   */\n      add\n        /* \"#utility.yul\":14650:14708   */\n      mstore\n        /* \"#utility.yul\":14533:14715   */\n      pop\n      jump\t// out\n        /* \"#utility.yul\":14721:15087   */\n    tag_375:\n        /* \"#utility.yul\":14863:14866   */\n      0x00\n        /* \"#utility.yul\":14884:14951   */\n      tag_526\n        /* \"#utility.yul\":14948:14950   */\n      0x20\n        /* \"#utility.yul\":14943:14946   */\n      dup4\n        /* \"#utility.yul\":14884:14951   */\n      tag_361\n      jump\t// in\n    tag_526:\n        /* \"#utility.yul\":14877:14951   */\n      swap2\n      pop\n        /* \"#utility.yul\":14960:15053   */\n      tag_527\n        /* \"#utility.yul\":15049:15052   */\n      dup3\n        /* \"#utility.yul\":14960:15053   */\n      tag_374\n      jump\t// in\n    tag_527:\n        /* \"#utility.yul\":15078:15080   */\n      0x20\n        /* \"#utility.yul\":15073:15076   */\n      dup3\n        /* \"#utility.yul\":15069:15081   */\n      add\n        /* \"#utility.yul\":15062:15081   */\n      swap1\n      pop\n        /* \"#utility.yul\":14721:15087   */\n      swap2\n      swap1\n      pop\n      jump\t// out\n        /* \"#utility.yul\":15093:15512   */\n    tag_298:\n        /* \"#utility.yul\":15259:15263   */\n      0x00\n        /* \"#utility.yul\":15297:15299   */\n      0x20\n        /* \"#utility.yul\":15286:15295   */\n      dup3\n        /* \"#utility.yul\":15282:15300   */\n      add\n        /* \"#utility.yul\":15274:15300   */\n      swap1\n      pop\n        /* \"#utility.yul\":15346:15355   */\n      dup2\n        /* \"#utility.yul\":15340:15344   */\n      dup2\n        /* \"#utility.yul\":15336:15356   */\n      sub\n        /* \"#utility.yul\":15332:15333   */\n      0x00\n        /* \"#utility.yul\":15321:15330   */\n      dup4\n        /* \"#utility.yul\":15317:15334   */\n      add\n        /* \"#utility.yul\":15310:15357   */\n      mstore\n        /* \"#utility.yul\":15374:15505   */\n      tag_529\n        /* \"#utility.yul\":15500:15504   */\n      dup2\n        /* \"#utility.yul\":15374:15505   */\n      tag_375\n      jump\t// in\n    tag_529:\n        /* \"#utility.yul\":15366:15505   */\n      swap1\n      pop\n        /* \"#utility.yul\":15093:15512   */\n      swap2\n      swap1\n      pop\n      jump\t// out\n        /* \"#utility.yul\":15518:15698   */\n    tag_376:\n        /* \"#utility.yul\":15566:15643   */\n      0x4e487b7100000000000000000000000000000000000000000000000000000000\n        /* \"#utility.yul\":15563:15564   */\n      0x00\n        /* \"#utility.yul\":15556:15644   */\n      mstore\n        /* \"#utility.yul\":15663:15667   */\n      0x12\n        /* \"#utility.yul\":15660:15661   */\n      0x04\n        /* \"#utility.yul\":15653:15668   */\n      mstore\n        /* \"#utility.yul\":15687:15691   */\n      0x24\n        /* \"#utility.yul\":15684:15685   */\n      0x00\n        /* \"#utility.yul\":15677:15692   */\n      revert\n        /* \"#utility.yul\":15704:15889   */\n    tag_310:\n        /* \"#utility.yul\":15744:15745   */\n      0x00\n        /* \"#utility.yul\":15761:15781   */\n      tag_532\n        /* \"#utility.yul\":15779:15780   */\n      dup3\n        /* \"#utility.yul\":15761:15781   */\n      tag_330\n      jump\t// in\n    tag_532:\n        /* \"#utility.yul\":15756:15781   */\n      swap2\n      pop\n        /* \"#utility.yul\":15795:15815   */\n      tag_533\n        /* \"#utility.yul\":15813:15814   */\n      dup4\n        /* \"#utility.yul\":15795:15815   */\n      tag_330\n      jump\t// in\n    tag_533:\n        /* \"#utility.yul\":15790:15815   */\n      swap3\n      pop\n        /* \"#utility.yul\":15834:15835   */\n      dup3\n        /* \"#utility.yul\":15824:15859   */\n      tag_534\n      jumpi\n        /* \"#utility.yul\":15839:15857   */\n      tag_535\n      tag_376\n      jump\t// in\n    tag_535:\n        /* \"#utility.yul\":15824:15859   */\n    tag_534:\n        /* \"#utility.yul\":15881:15882   */\n      dup3\n        /* \"#utility.yul\":15878:15879   */\n      dup3\n        /* \"#utility.yul\":15874:15883   */\n      div\n        /* \"#utility.yul\":15869:15883   */\n      swap1\n      pop\n        /* \"#utility.yul\":15704:15889   */\n      swap3\n      swap2\n      pop\n      pop\n      jump\t// out\n        /* \"#utility.yul\":15895:16086   */\n    tag_326:\n        /* \"#utility.yul\":15935:15939   */\n      0x00\n        /* \"#utility.yul\":15955:15975   */\n      tag_537\n        /* \"#utility.yul\":15973:15974   */\n      dup3\n        /* \"#utility.yul\":15955:15975   */\n      tag_330\n      jump\t// in\n    tag_537:\n        /* \"#utility.yul\":15950:15975   */\n      swap2\n      pop\n        /* \"#utility.yul\":15989:16009   */\n      tag_538\n        /* \"#utility.yul\":16007:16008   */\n      dup4\n        /* \"#utility.yul\":15989:16009   */\n      tag_330\n      jump\t// in\n    tag_538:\n        /* \"#utility.yul\":15984:16009   */\n      swap3\n      pop\n        /* \"#utility.yul\":16028:16029   */\n      dup3\n        /* \"#utility.yul\":16025:16026   */\n      dup3\n        /* \"#utility.yul\":16022:16030   */\n      lt\n        /* \"#utility.yul\":16019:16053   */\n      iszero\n      tag_539\n      jumpi\n        /* \"#utility.yul\":16033:16051   */\n      tag_540\n      tag_364\n      jump\t// in\n    tag_540:\n        /* \"#utility.yul\":16019:16053   */\n    tag_539:\n        /* \"#utility.yul\":16078:16079   */\n      dup3\n        /* \"#utility.yul\":16075:16076   */\n      dup3\n        /* \"#utility.yul\":16071:16080   */\n      sub\n        /* \"#utility.yul\":16063:16080   */\n      swap1\n      pop\n        /* \"#utility.yul\":15895:16086   */\n      swap3\n      swap2\n      pop\n      pop\n      jump\t// out\n        /* \"#utility.yul\":16092:16440   */\n    tag_329:\n        /* \"#utility.yul\":16132:16139   */\n      0x00\n        /* \"#utility.yul\":16155:16175   */\n      tag_542\n        /* \"#utility.yul\":16173:16174   */\n      dup3\n        /* \"#utility.yul\":16155:16175   */\n      tag_330\n      jump\t// in\n    tag_542:\n        /* \"#utility.yul\":16150:16175   */\n      swap2\n      pop\n        /* \"#utility.yul\":16189:16209   */\n      tag_543\n        /* \"#utility.yul\":16207:16208   */\n      dup4\n        /* \"#utility.yul\":16189:16209   */\n      tag_330\n      jump\t// in\n    tag_543:\n        /* \"#utility.yul\":16184:16209   */\n      swap3\n      pop\n        /* \"#utility.yul\":16377:16378   */\n      dup2\n        /* \"#utility.yul\":16309:16375   */\n      0xffffffffffffffffffffffffffffffffffffffffffffffffffffffffffffffff\n        /* \"#utility.yul\":16305:16379   */\n      div\n        /* \"#utility.yul\":16302:16303   */\n      dup4\n        /* \"#utility.yul\":16299:16380   */\n      gt\n        /* \"#utility.yul\":16294:16295   */\n      dup3\n        /* \"#utility.yul\":16287:16296   */\n      iszero\n        /* \"#utility.yul\":16280:16297   */\n      iszero\n        /* \"#utility.yul\":16276:16381   */\n      and\n        /* \"#utility.yul\":16273:16404   */\n      iszero\n      tag_544\n      jumpi\n        /* \"#utility.yul\":16384:16402   */\n      tag_545\n      tag_364\n      jump\t// in\n    tag_545:\n        /* \"#utility.yul\":16273:16404   */\n    tag_544:\n        /* \"#utility.yul\":16432:16433   */\n      dup3\n        /* \"#utility.yul\":16429:16430   */\n      dup3\n        /* \"#utility.yul\":16425:16434   */\n      mul\n        /* \"#utility.yul\":16414:16434   */\n      swap1\n      pop\n        /* \"#utility.yul\":16092:16440   */\n      swap3\n      swap2\n      pop\n      pop\n      jump\t// out\n\n    auxdata: 0xa26469706673582212200ca7d2132eb91ebc6b0122add36941a571e685cb3772e5cefe11162925cdf0a964736f6c634300080a0033\n}\n",
				"bytecode": {
					"linkReferences": {},
					"object": "60806040523480156200001157600080fd5b5060405162002174380380620021748339818101604052810190620000379190620003b0565b7321558c2cda098e7e0ac7d38775b3e2b4a09452226200006c620000606200026360201b60201c565b6200026b60201b60201c565b80600160006101000a81548173ffffffffffffffffffffffffffffffffffffffff021916908373ffffffffffffffffffffffffffffffffffffffff16021790555050866003819055508560048190555084600581905550836006819055508260078190555081600a60146101000a81548163ffffffff021916908363ffffffff16021790555081600a60186101000a81548163ffffffff021916908363ffffffff16021790555060008163ffffffff1614806200012f575060018163ffffffff16145b8062000141575060028163ffffffff16145b62000183576040517f08c379a00000000000000000000000000000000000000000000000000000000081526004016200017a90620004c4565b60405180910390fd5b80600a601c6101000a81548163ffffffff021916908363ffffffff1602179055506000600960006101000a81548173ffffffffffffffffffffffffffffffffffffffff021916908373ffffffffffffffffffffffffffffffffffffffff1602179055506000600a60006101000a81548173ffffffffffffffffffffffffffffffffffffffff021916908373ffffffffffffffffffffffffffffffffffffffff1602179055506001600260146101000a81548160ff02191690836004811115620002515762000250620004e6565b5b02179055505050505050505062000515565b600033905090565b60008060009054906101000a900473ffffffffffffffffffffffffffffffffffffffff169050816000806101000a81548173ffffffffffffffffffffffffffffffffffffffff021916908373ffffffffffffffffffffffffffffffffffffffff1602179055508173ffffffffffffffffffffffffffffffffffffffff168173ffffffffffffffffffffffffffffffffffffffff167f8be0079c531659141344cd1fd0a4f28419497f9722a3daafe3b4186f6b6457e060405160405180910390a35050565b600080fd5b6000819050919050565b620003498162000334565b81146200035557600080fd5b50565b60008151905062000369816200033e565b92915050565b600063ffffffff82169050919050565b6200038a816200036f565b81146200039657600080fd5b50565b600081519050620003aa816200037f565b92915050565b600080600080600080600060e0888a031215620003d257620003d16200032f565b5b6000620003e28a828b0162000358565b9750506020620003f58a828b0162000358565b9650506040620004088a828b0162000358565b95505060606200041b8a828b0162000358565b94505060806200042e8a828b0162000358565b93505060a0620004418a828b0162000399565b92505060c0620004548a828b0162000399565b91505092959891949750929550565b600082825260208201905092915050565b7f4254433a302c204554483a312c204c494e4b3a32000000000000000000000000600082015250565b6000620004ac60148362000463565b9150620004b98262000474565b602082019050919050565b60006020820190508181036000830152620004df816200049d565b9050919050565b7f4e487b7100000000000000000000000000000000000000000000000000000000600052602160045260246000fd5b611c4f80620005256000396000f3fe608060405234801561001057600080fd5b50600436106101da5760003560e01c8063a3f09ad611610104578063dbd0e1b6116100a2578063f26cc58e11610071578063f26cc58e146104cb578063f2fde38b146104e9578063fcb341df14610505578063ffd0e69f14610523576101da565b8063dbd0e1b614610455578063e0a73a9314610473578063e99d286614610491578063ea8a1af0146104c1576101da565b8063bd9a548b116100de578063bd9a548b146103b9578063bef904e3146103d7578063cbed244914610407578063d868379814610437576101da565b8063a3f09ad61461034f578063b6fc2d5f1461037f578063bab215f81461039d576101da565b80635b6a251b1161017c57806386be75b71161014b57806386be75b7146102d75780638a568299146102f55780638da5cb5b14610313578063a2e800ad14610331576101da565b80635b6a251b14610287578063603daf9a14610291578063715018a6146102af578063839966af146102b9576101da565b80633fe3347a116101b85780633fe3347a1461023757806343d726d6146102555780634c1786ea1461025f5780634e71d92d1461027d576101da565b806315d655c9146101df578063200d2ed2146101fd5780633b41e19c1461021b575b600080fd5b6101e7610541565b6040516101f49190611304565b60405180910390f35b610205610547565b6040516102129190611396565b60405180910390f35b6102356004803603810190610230919061141a565b61055a565b005b61023f610651565b60405161024c9190611479565b60405180910390f35b61025d610667565b005b6102676106f2565b6040516102749190611304565b60405180910390f35b6102856106f8565b005b61028f6107ce565b005b6102996108ed565b6040516102a691906114d5565b60405180910390f35b6102b7610917565b005b6102c161092b565b6040516102ce91906114ff565b60405180910390f35b6102df6109ae565b6040516102ec9190611304565b60405180910390f35b6102fd6109b4565b60405161030a9190611479565b60405180910390f35b61031b6109ca565b60405161032891906114d5565b60405180910390f35b6103396109f3565b6040516103469190611479565b60405180910390f35b61036960048036038101906103649190611546565b610a09565b60405161037691906114d5565b60405180910390f35b610387610a7e565b6040516103949190611304565b60405180910390f35b6103b760048036038101906103b29190611573565b610a84565b005b6103c1610aae565b6040516103ce919061165e565b60405180910390f35b6103f160048036038101906103ec9190611679565b610aec565b6040516103fe9190611304565b60405180910390f35b610421600480360381019061041c91906116d2565b610aff565b60405161042e9190611304565b60405180910390f35b61043f610d40565b60405161044c9190611304565b60405180910390f35b61045d610d46565b60405161046a91906114d5565b60405180910390f35b61047b610d70565b6040516104889190611304565b60405180910390f35b6104ab60048036038101906104a69190611546565b610d76565b6040516104b891906114d5565b60405180910390f35b6104c9610deb565b005b6104d3610e76565b6040516104e09190611304565b60405180910390f35b61050360048036038101906104fe9190611546565b610ece565b005b61050d610f52565b60405161051a9190611304565b60405180910390f35b61052b610f74565b60405161053891906114ff565b60405180910390f35b60045481565b600260149054906101000a900460ff1681565b61056261100d565b600160048111156105765761057561131f565b5b600260149054906101000a900460ff1660048111156105985761059761131f565b5b146105d8576040517f08c379a00000000000000000000000000000000000000000000000000000000081526004016105cf90611782565b60405180910390fd5b6105e182610aec565b506105ed338215610a84565b6105f7600261108b565b506224ea004261060791906117d1565b6008819055506001600a60148282829054906101000a900463ffffffff1661062f9190611827565b92506101000a81548163ffffffff021916908363ffffffff1602179055505050565b600a601c9054906101000a900463ffffffff1681565b61066f61100d565b600260048111156106835761068261131f565b5b600260149054906101000a900460ff1660048111156106a5576106a461131f565b5b146106e5576040517f08c379a00000000000000000000000000000000000000000000000000000000081526004016106dc906118cd565b60405180910390fd5b6106ef600461108b565b50565b60075481565b61070061100d565b600260048111156107145761071361131f565b5b600260149054906101000a900460ff1660048111156107365761073561131f565b5b14610776576040517f08c379a000000000000000000000000000000000000000000000000000000000815260040161076d906118cd565b60405180910390fd5b6000610780610e76565b14156107c1576040517f08c379a00000000000000000000000000000000000000000000000000000000081526004016107b89061195f565b60405180910390fd5b6107cb600361108b565b50565b6107d661100d565b600260048111156107ea576107e961131f565b5b600260149054906101000a900460ff16600481111561080c5761080b61131f565b5b1461084c576040517f08c379a0000000000000000000000000000000000000000000000000000000008152600401610843906118cd565b60405180910390fd5b6000600a60149054906101000a900463ffffffff1663ffffffff16116108a7576040517f08c379a000000000000000000000000000000000000000000000000000000000815260040161089e906119cb565b60405180910390fd5b6224ea00600860008282546108bc91906117d1565b925050819055506108ea6001600a60149054906101000a900463ffffffff166108e59190611827565b6110d6565b50565b6000600960009054906101000a900473ffffffffffffffffffffffffffffffffffffffff16905090565b61091f61100d565b610929600061111b565b565b6000600260048111156109415761094061131f565b5b600260149054906101000a900460ff1660048111156109635761096261131f565b5b146109a3576040517f08c379a000000000000000000000000000000000000000000000000000000000815260040161099a906118cd565b60405180910390fd5b600854421015905090565b60035481565b600a60189054906101000a900463ffffffff1681565b60008060009054906101000a900473ffffffffffffffffffffffffffffffffffffffff16905090565b600a60149054906101000a900463ffffffff1681565b6000610a1361100d565b81600960006101000a81548173ffffffffffffffffffffffffffffffffffffffff021916908373ffffffffffffffffffffffffffffffffffffffff160217905550600960009054906101000a900473ffffffffffffffffffffffffffffffffffffffff169050919050565b60055481565b610a8c61100d565b80610a9f57610a9a82610d76565b610aa9565b610aa882610a09565b5b505050565b610ab66112c9565b6040518060a001604052806003548152602001600454815260200160055481526020016006548152602001600754815250905090565b6000816003819055506003549050919050565b60008060008363ffffffff161415610bbf57610bb86305f5e100600160009054906101000a900473ffffffffffffffffffffffffffffffffffffffff1673ffffffffffffffffffffffffffffffffffffffff1663a8ad52d16040518163ffffffff1660e01b8152600401602060405180830381865afa158015610b86573d6000803e3d6000fd5b505050506040513d601f19601f82011682018060405250810190610baa9190611a00565b6111df90919063ffffffff16565b9050610d37565b60018363ffffffff161415610c7c57610c756305f5e100600160009054906101000a900473ffffffffffffffffffffffffffffffffffffffff1673ffffffffffffffffffffffffffffffffffffffff1663ff186b2e6040518163ffffffff1660e01b8152600401602060405180830381865afa158015610c43573d6000803e3d6000fd5b505050506040513d601f19601f82011682018060405250810190610c679190611a00565b6111df90919063ffffffff16565b9050610d36565b60028363ffffffff161415610d3557610d326305f5e100600160009054906101000a900473ffffffffffffffffffffffffffffffffffffffff1673ffffffffffffffffffffffffffffffffffffffff16630cf785356040518163ffffffff1660e01b8152600401602060405180830381865afa158015610d00573d6000803e3d6000fd5b505050506040513d601f19601f82011682018060405250810190610d249190611a00565b6111df90919063ffffffff16565b90505b5b5b80915050919050565b60085481565b6000600a60009054906101000a900473ffffffffffffffffffffffffffffffffffffffff16905090565b60065481565b6000610d8061100d565b81600a60006101000a81548173ffffffffffffffffffffffffffffffffffffffff021916908373ffffffffffffffffffffffffffffffffffffffff160217905550600a60009054906101000a900473ffffffffffffffffffffffffffffffffffffffff169050919050565b610df361100d565b60016004811115610e0757610e0661131f565b5b600260149054906101000a900460ff166004811115610e2957610e2861131f565b5b14610e69576040517f08c379a0000000000000000000000000000000000000000000000000000000008152600401610e6090611782565b60405180910390fd5b610e73600061108b565b50565b600080610e94600a601c9054906101000a900463ffffffff16610aff565b9050806004541015610eaa576000915050610ecb565b610ec7600554600354836007546111f5909392919063ffffffff16565b9150505b90565b610ed661100d565b600073ffffffffffffffffffffffffffffffffffffffff168173ffffffffffffffffffffffffffffffffffffffff161415610f46576040517f08c379a0000000000000000000000000000000000000000000000000000000008152600401610f3d90611a9f565b60405180910390fd5b610f4f8161111b565b50565b6000610f6f6005546007546003546112659092919063ffffffff16565b905090565b600060026004811115610f8a57610f8961131f565b5b600260149054906101000a900460ff166004811115610fac57610fab61131f565b5b14610fec576040517f08c379a0000000000000000000000000000000000000000000000000000000008152600401610fe3906118cd565b60405180910390fd5b6000600a60149054906101000a900463ffffffff1663ffffffff1614905090565b611015611295565b73ffffffffffffffffffffffffffffffffffffffff166110336109ca565b73ffffffffffffffffffffffffffffffffffffffff1614611089576040517f08c379a000000000000000000000000000000000000000000000000000000000815260040161108090611b0b565b60405180910390fd5b565b600061109561100d565b81600260146101000a81548160ff021916908360048111156110ba576110b961131f565b5b0217905550600260149054906101000a900460ff169050919050565b60006110e061100d565b81600a60146101000a81548163ffffffff021916908363ffffffff160217905550600a60149054906101000a900463ffffffff169050919050565b60008060009054906101000a900473ffffffffffffffffffffffffffffffffffffffff169050816000806101000a81548173ffffffffffffffffffffffffffffffffffffffff021916908373ffffffffffffffffffffffffffffffffffffffff1602179055508173ffffffffffffffffffffffffffffffffffffffff168173ffffffffffffffffffffffffffffffffffffffff167f8be0079c531659141344cd1fd0a4f28419497f9722a3daafe3b4186f6b6457e060405160405180910390a35050565b600081836111ed9190611b5a565b905092915050565b60008082851061120757859050611259565b600061122e61121f878761129d90919063ffffffff16565b886111df90919063ffffffff16565b9050611255611246858761129d90919063ffffffff16565b826112b390919063ffffffff16565b9150505b80915050949350505050565b600061128c61127d848661129d90919063ffffffff16565b836111df90919063ffffffff16565b90509392505050565b600033905090565b600081836112ab9190611b8b565b905092915050565b600081836112c19190611bbf565b905092915050565b6040518060a00160405280600590602082028036833780820191505090505090565b6000819050919050565b6112fe816112eb565b82525050565b600060208201905061131960008301846112f5565b92915050565b7f4e487b7100000000000000000000000000000000000000000000000000000000600052602160045260246000fd5b6005811061135f5761135e61131f565b5b50565b60008190506113708261134e565b919050565b600061138082611362565b9050919050565b61139081611375565b82525050565b60006020820190506113ab6000830184611387565b92915050565b600080fd5b6113bf816112eb565b81146113ca57600080fd5b50565b6000813590506113dc816113b6565b92915050565b60008115159050919050565b6113f7816113e2565b811461140257600080fd5b50565b600081359050611414816113ee565b92915050565b60008060408385031215611431576114306113b1565b5b600061143f858286016113cd565b925050602061145085828601611405565b9150509250929050565b600063ffffffff82169050919050565b6114738161145a565b82525050565b600060208201905061148e600083018461146a565b92915050565b600073ffffffffffffffffffffffffffffffffffffffff82169050919050565b60006114bf82611494565b9050919050565b6114cf816114b4565b82525050565b60006020820190506114ea60008301846114c6565b92915050565b6114f9816113e2565b82525050565b600060208201905061151460008301846114f0565b92915050565b611523816114b4565b811461152e57600080fd5b50565b6000813590506115408161151a565b92915050565b60006020828403121561155c5761155b6113b1565b5b600061156a84828501611531565b91505092915050565b6000806040838503121561158a576115896113b1565b5b600061159885828601611531565b92505060206115a985828601611405565b9150509250929050565b600060059050919050565b600081905092915050565b6000819050919050565b6115dc816112eb565b82525050565b60006115ee83836115d3565b60208301905092915050565b6000602082019050919050565b611610816115b3565b61161a81846115be565b9250611625826115c9565b8060005b8381101561165657815161163d87826115e2565b9650611648836115fa565b925050600181019050611629565b505050505050565b600060a0820190506116736000830184611607565b92915050565b60006020828403121561168f5761168e6113b1565b5b600061169d848285016113cd565b91505092915050565b6116af8161145a565b81146116ba57600080fd5b50565b6000813590506116cc816116a6565b92915050565b6000602082840312156116e8576116e76113b1565b5b60006116f6848285016116bd565b91505092915050565b600082825260208201905092915050565b7f54686520737461747573206f6620746865204344532073686f756c642062652060008201527f70656e64696e6700000000000000000000000000000000000000000000000000602082015250565b600061176c6027836116ff565b915061177782611710565b604082019050919050565b6000602082019050818103600083015261179b8161175f565b9050919050565b7f4e487b7100000000000000000000000000000000000000000000000000000000600052601160045260246000fd5b60006117dc826112eb565b91506117e7836112eb565b9250827fffffffffffffffffffffffffffffffffffffffffffffffffffffffffffffffff0382111561181c5761181b6117a2565b5b828201905092915050565b60006118328261145a565b915061183d8361145a565b9250828210156118505761184f6117a2565b5b828203905092915050565b7f54686520737461747573206f6620746865204344532073686f756c642062652060008201527f6163746976650000000000000000000000000000000000000000000000000000602082015250565b60006118b76026836116ff565b91506118c28261185b565b604082019050919050565b600060208201905081810360008301526118e6816118aa565b9050919050565b7f43757272656e7420707269636520697320686967686572207468616e2074686560008201527f20636c61696d20707269636520696e2043445300000000000000000000000000602082015250565b60006119496033836116ff565b9150611954826118ed565b604082019050919050565b600060208201905081810360008301526119788161193c565b9050919050565b7f526f756e6420616c726561647920656e64656400000000000000000000000000600082015250565b60006119b56013836116ff565b91506119c08261197f565b602082019050919050565b600060208201905081810360008301526119e4816119a8565b9050919050565b6000815190506119fa816113b6565b92915050565b600060208284031215611a1657611a156113b1565b5b6000611a24848285016119eb565b91505092915050565b7f4f776e61626c653a206e6577206f776e657220697320746865207a65726f206160008201527f6464726573730000000000000000000000000000000000000000000000000000602082015250565b6000611a896026836116ff565b9150611a9482611a2d565b604082019050919050565b60006020820190508181036000830152611ab881611a7c565b9050919050565b7f4f776e61626c653a2063616c6c6572206973206e6f7420746865206f776e6572600082015250565b6000611af56020836116ff565b9150611b0082611abf565b602082019050919050565b60006020820190508181036000830152611b2481611ae8565b9050919050565b7f4e487b7100000000000000000000000000000000000000000000000000000000600052601260045260246000fd5b6000611b65826112eb565b9150611b70836112eb565b925082611b8057611b7f611b2b565b5b828204905092915050565b6000611b96826112eb565b9150611ba1836112eb565b925082821015611bb457611bb36117a2565b5b828203905092915050565b6000611bca826112eb565b9150611bd5836112eb565b9250817fffffffffffffffffffffffffffffffffffffffffffffffffffffffffffffffff0483118215151615611c0e57611c0d6117a2565b5b82820290509291505056fea26469706673582212200ca7d2132eb91ebc6b0122add36941a571e685cb3772e5cefe11162925cdf0a964736f6c634300080a0033",
					"opcodes": "PUSH1 0x80 PUSH1 0x40 MSTORE CALLVALUE DUP1 ISZERO PUSH3 0x11 JUMPI PUSH1 0x0 DUP1 REVERT JUMPDEST POP PUSH1 0x40 MLOAD PUSH3 0x2174 CODESIZE SUB DUP1 PUSH3 0x2174 DUP4 CODECOPY DUP2 DUP2 ADD PUSH1 0x40 MSTORE DUP2 ADD SWAP1 PUSH3 0x37 SWAP2 SWAP1 PUSH3 0x3B0 JUMP JUMPDEST PUSH20 0x21558C2CDA098E7E0AC7D38775B3E2B4A0945222 PUSH3 0x6C PUSH3 0x60 PUSH3 0x263 PUSH1 0x20 SHL PUSH1 0x20 SHR JUMP JUMPDEST PUSH3 0x26B PUSH1 0x20 SHL PUSH1 0x20 SHR JUMP JUMPDEST DUP1 PUSH1 0x1 PUSH1 0x0 PUSH2 0x100 EXP DUP2 SLOAD DUP2 PUSH20 0xFFFFFFFFFFFFFFFFFFFFFFFFFFFFFFFFFFFFFFFF MUL NOT AND SWAP1 DUP4 PUSH20 0xFFFFFFFFFFFFFFFFFFFFFFFFFFFFFFFFFFFFFFFF AND MUL OR SWAP1 SSTORE POP POP DUP7 PUSH1 0x3 DUP2 SWAP1 SSTORE POP DUP6 PUSH1 0x4 DUP2 SWAP1 SSTORE POP DUP5 PUSH1 0x5 DUP2 SWAP1 SSTORE POP DUP4 PUSH1 0x6 DUP2 SWAP1 SSTORE POP DUP3 PUSH1 0x7 DUP2 SWAP1 SSTORE POP DUP2 PUSH1 0xA PUSH1 0x14 PUSH2 0x100 EXP DUP2 SLOAD DUP2 PUSH4 0xFFFFFFFF MUL NOT AND SWAP1 DUP4 PUSH4 0xFFFFFFFF AND MUL OR SWAP1 SSTORE POP DUP2 PUSH1 0xA PUSH1 0x18 PUSH2 0x100 EXP DUP2 SLOAD DUP2 PUSH4 0xFFFFFFFF MUL NOT AND SWAP1 DUP4 PUSH4 0xFFFFFFFF AND MUL OR SWAP1 SSTORE POP PUSH1 0x0 DUP2 PUSH4 0xFFFFFFFF AND EQ DUP1 PUSH3 0x12F JUMPI POP PUSH1 0x1 DUP2 PUSH4 0xFFFFFFFF AND EQ JUMPDEST DUP1 PUSH3 0x141 JUMPI POP PUSH1 0x2 DUP2 PUSH4 0xFFFFFFFF AND EQ JUMPDEST PUSH3 0x183 JUMPI PUSH1 0x40 MLOAD PUSH32 0x8C379A000000000000000000000000000000000000000000000000000000000 DUP2 MSTORE PUSH1 0x4 ADD PUSH3 0x17A SWAP1 PUSH3 0x4C4 JUMP JUMPDEST PUSH1 0x40 MLOAD DUP1 SWAP2 SUB SWAP1 REVERT JUMPDEST DUP1 PUSH1 0xA PUSH1 0x1C PUSH2 0x100 EXP DUP2 SLOAD DUP2 PUSH4 0xFFFFFFFF MUL NOT AND SWAP1 DUP4 PUSH4 0xFFFFFFFF AND MUL OR SWAP1 SSTORE POP PUSH1 0x0 PUSH1 0x9 PUSH1 0x0 PUSH2 0x100 EXP DUP2 SLOAD DUP2 PUSH20 0xFFFFFFFFFFFFFFFFFFFFFFFFFFFFFFFFFFFFFFFF MUL NOT AND SWAP1 DUP4 PUSH20 0xFFFFFFFFFFFFFFFFFFFFFFFFFFFFFFFFFFFFFFFF AND MUL OR SWAP1 SSTORE POP PUSH1 0x0 PUSH1 0xA PUSH1 0x0 PUSH2 0x100 EXP DUP2 SLOAD DUP2 PUSH20 0xFFFFFFFFFFFFFFFFFFFFFFFFFFFFFFFFFFFFFFFF MUL NOT AND SWAP1 DUP4 PUSH20 0xFFFFFFFFFFFFFFFFFFFFFFFFFFFFFFFFFFFFFFFF AND MUL OR SWAP1 SSTORE POP PUSH1 0x1 PUSH1 0x2 PUSH1 0x14 PUSH2 0x100 EXP DUP2 SLOAD DUP2 PUSH1 0xFF MUL NOT AND SWAP1 DUP4 PUSH1 0x4 DUP2 GT ISZERO PUSH3 0x251 JUMPI PUSH3 0x250 PUSH3 0x4E6 JUMP JUMPDEST JUMPDEST MUL OR SWAP1 SSTORE POP POP POP POP POP POP POP POP PUSH3 0x515 JUMP JUMPDEST PUSH1 0x0 CALLER SWAP1 POP SWAP1 JUMP JUMPDEST PUSH1 0x0 DUP1 PUSH1 0x0 SWAP1 SLOAD SWAP1 PUSH2 0x100 EXP SWAP1 DIV PUSH20 0xFFFFFFFFFFFFFFFFFFFFFFFFFFFFFFFFFFFFFFFF AND SWAP1 POP DUP2 PUSH1 0x0 DUP1 PUSH2 0x100 EXP DUP2 SLOAD DUP2 PUSH20 0xFFFFFFFFFFFFFFFFFFFFFFFFFFFFFFFFFFFFFFFF MUL NOT AND SWAP1 DUP4 PUSH20 0xFFFFFFFFFFFFFFFFFFFFFFFFFFFFFFFFFFFFFFFF AND MUL OR SWAP1 SSTORE POP DUP2 PUSH20 0xFFFFFFFFFFFFFFFFFFFFFFFFFFFFFFFFFFFFFFFF AND DUP2 PUSH20 0xFFFFFFFFFFFFFFFFFFFFFFFFFFFFFFFFFFFFFFFF AND PUSH32 0x8BE0079C531659141344CD1FD0A4F28419497F9722A3DAAFE3B4186F6B6457E0 PUSH1 0x40 MLOAD PUSH1 0x40 MLOAD DUP1 SWAP2 SUB SWAP1 LOG3 POP POP JUMP JUMPDEST PUSH1 0x0 DUP1 REVERT JUMPDEST PUSH1 0x0 DUP2 SWAP1 POP SWAP2 SWAP1 POP JUMP JUMPDEST PUSH3 0x349 DUP2 PUSH3 0x334 JUMP JUMPDEST DUP2 EQ PUSH3 0x355 JUMPI PUSH1 0x0 DUP1 REVERT JUMPDEST POP JUMP JUMPDEST PUSH1 0x0 DUP2 MLOAD SWAP1 POP PUSH3 0x369 DUP2 PUSH3 0x33E JUMP JUMPDEST SWAP3 SWAP2 POP POP JUMP JUMPDEST PUSH1 0x0 PUSH4 0xFFFFFFFF DUP3 AND SWAP1 POP SWAP2 SWAP1 POP JUMP JUMPDEST PUSH3 0x38A DUP2 PUSH3 0x36F JUMP JUMPDEST DUP2 EQ PUSH3 0x396 JUMPI PUSH1 0x0 DUP1 REVERT JUMPDEST POP JUMP JUMPDEST PUSH1 0x0 DUP2 MLOAD SWAP1 POP PUSH3 0x3AA DUP2 PUSH3 0x37F JUMP JUMPDEST SWAP3 SWAP2 POP POP JUMP JUMPDEST PUSH1 0x0 DUP1 PUSH1 0x0 DUP1 PUSH1 0x0 DUP1 PUSH1 0x0 PUSH1 0xE0 DUP9 DUP11 SUB SLT ISZERO PUSH3 0x3D2 JUMPI PUSH3 0x3D1 PUSH3 0x32F JUMP JUMPDEST JUMPDEST PUSH1 0x0 PUSH3 0x3E2 DUP11 DUP3 DUP12 ADD PUSH3 0x358 JUMP JUMPDEST SWAP8 POP POP PUSH1 0x20 PUSH3 0x3F5 DUP11 DUP3 DUP12 ADD PUSH3 0x358 JUMP JUMPDEST SWAP7 POP POP PUSH1 0x40 PUSH3 0x408 DUP11 DUP3 DUP12 ADD PUSH3 0x358 JUMP JUMPDEST SWAP6 POP POP PUSH1 0x60 PUSH3 0x41B DUP11 DUP3 DUP12 ADD PUSH3 0x358 JUMP JUMPDEST SWAP5 POP POP PUSH1 0x80 PUSH3 0x42E DUP11 DUP3 DUP12 ADD PUSH3 0x358 JUMP JUMPDEST SWAP4 POP POP PUSH1 0xA0 PUSH3 0x441 DUP11 DUP3 DUP12 ADD PUSH3 0x399 JUMP JUMPDEST SWAP3 POP POP PUSH1 0xC0 PUSH3 0x454 DUP11 DUP3 DUP12 ADD PUSH3 0x399 JUMP JUMPDEST SWAP2 POP POP SWAP3 SWAP6 SWAP9 SWAP2 SWAP5 SWAP8 POP SWAP3 SWAP6 POP JUMP JUMPDEST PUSH1 0x0 DUP3 DUP3 MSTORE PUSH1 0x20 DUP3 ADD SWAP1 POP SWAP3 SWAP2 POP POP JUMP JUMPDEST PUSH32 0x4254433A302C204554483A312C204C494E4B3A32000000000000000000000000 PUSH1 0x0 DUP3 ADD MSTORE POP JUMP JUMPDEST PUSH1 0x0 PUSH3 0x4AC PUSH1 0x14 DUP4 PUSH3 0x463 JUMP JUMPDEST SWAP2 POP PUSH3 0x4B9 DUP3 PUSH3 0x474 JUMP JUMPDEST PUSH1 0x20 DUP3 ADD SWAP1 POP SWAP2 SWAP1 POP JUMP JUMPDEST PUSH1 0x0 PUSH1 0x20 DUP3 ADD SWAP1 POP DUP2 DUP2 SUB PUSH1 0x0 DUP4 ADD MSTORE PUSH3 0x4DF DUP2 PUSH3 0x49D JUMP JUMPDEST SWAP1 POP SWAP2 SWAP1 POP JUMP JUMPDEST PUSH32 0x4E487B7100000000000000000000000000000000000000000000000000000000 PUSH1 0x0 MSTORE PUSH1 0x21 PUSH1 0x4 MSTORE PUSH1 0x24 PUSH1 0x0 REVERT JUMPDEST PUSH2 0x1C4F DUP1 PUSH3 0x525 PUSH1 0x0 CODECOPY PUSH1 0x0 RETURN INVALID PUSH1 0x80 PUSH1 0x40 MSTORE CALLVALUE DUP1 ISZERO PUSH2 0x10 JUMPI PUSH1 0x0 DUP1 REVERT JUMPDEST POP PUSH1 0x4 CALLDATASIZE LT PUSH2 0x1DA JUMPI PUSH1 0x0 CALLDATALOAD PUSH1 0xE0 SHR DUP1 PUSH4 0xA3F09AD6 GT PUSH2 0x104 JUMPI DUP1 PUSH4 0xDBD0E1B6 GT PUSH2 0xA2 JUMPI DUP1 PUSH4 0xF26CC58E GT PUSH2 0x71 JUMPI DUP1 PUSH4 0xF26CC58E EQ PUSH2 0x4CB JUMPI DUP1 PUSH4 0xF2FDE38B EQ PUSH2 0x4E9 JUMPI DUP1 PUSH4 0xFCB341DF EQ PUSH2 0x505 JUMPI DUP1 PUSH4 0xFFD0E69F EQ PUSH2 0x523 JUMPI PUSH2 0x1DA JUMP JUMPDEST DUP1 PUSH4 0xDBD0E1B6 EQ PUSH2 0x455 JUMPI DUP1 PUSH4 0xE0A73A93 EQ PUSH2 0x473 JUMPI DUP1 PUSH4 0xE99D2866 EQ PUSH2 0x491 JUMPI DUP1 PUSH4 0xEA8A1AF0 EQ PUSH2 0x4C1 JUMPI PUSH2 0x1DA JUMP JUMPDEST DUP1 PUSH4 0xBD9A548B GT PUSH2 0xDE JUMPI DUP1 PUSH4 0xBD9A548B EQ PUSH2 0x3B9 JUMPI DUP1 PUSH4 0xBEF904E3 EQ PUSH2 0x3D7 JUMPI DUP1 PUSH4 0xCBED2449 EQ PUSH2 0x407 JUMPI DUP1 PUSH4 0xD8683798 EQ PUSH2 0x437 JUMPI PUSH2 0x1DA JUMP JUMPDEST DUP1 PUSH4 0xA3F09AD6 EQ PUSH2 0x34F JUMPI DUP1 PUSH4 0xB6FC2D5F EQ PUSH2 0x37F JUMPI DUP1 PUSH4 0xBAB215F8 EQ PUSH2 0x39D JUMPI PUSH2 0x1DA JUMP JUMPDEST DUP1 PUSH4 0x5B6A251B GT PUSH2 0x17C JUMPI DUP1 PUSH4 0x86BE75B7 GT PUSH2 0x14B JUMPI DUP1 PUSH4 0x86BE75B7 EQ PUSH2 0x2D7 JUMPI DUP1 PUSH4 0x8A568299 EQ PUSH2 0x2F5 JUMPI DUP1 PUSH4 0x8DA5CB5B EQ PUSH2 0x313 JUMPI DUP1 PUSH4 0xA2E800AD EQ PUSH2 0x331 JUMPI PUSH2 0x1DA JUMP JUMPDEST DUP1 PUSH4 0x5B6A251B EQ PUSH2 0x287 JUMPI DUP1 PUSH4 0x603DAF9A EQ PUSH2 0x291 JUMPI DUP1 PUSH4 0x715018A6 EQ PUSH2 0x2AF JUMPI DUP1 PUSH4 0x839966AF EQ PUSH2 0x2B9 JUMPI PUSH2 0x1DA JUMP JUMPDEST DUP1 PUSH4 0x3FE3347A GT PUSH2 0x1B8 JUMPI DUP1 PUSH4 0x3FE3347A EQ PUSH2 0x237 JUMPI DUP1 PUSH4 0x43D726D6 EQ PUSH2 0x255 JUMPI DUP1 PUSH4 0x4C1786EA EQ PUSH2 0x25F JUMPI DUP1 PUSH4 0x4E71D92D EQ PUSH2 0x27D JUMPI PUSH2 0x1DA JUMP JUMPDEST DUP1 PUSH4 0x15D655C9 EQ PUSH2 0x1DF JUMPI DUP1 PUSH4 0x200D2ED2 EQ PUSH2 0x1FD JUMPI DUP1 PUSH4 0x3B41E19C EQ PUSH2 0x21B JUMPI JUMPDEST PUSH1 0x0 DUP1 REVERT JUMPDEST PUSH2 0x1E7 PUSH2 0x541 JUMP JUMPDEST PUSH1 0x40 MLOAD PUSH2 0x1F4 SWAP2 SWAP1 PUSH2 0x1304 JUMP JUMPDEST PUSH1 0x40 MLOAD DUP1 SWAP2 SUB SWAP1 RETURN JUMPDEST PUSH2 0x205 PUSH2 0x547 JUMP JUMPDEST PUSH1 0x40 MLOAD PUSH2 0x212 SWAP2 SWAP1 PUSH2 0x1396 JUMP JUMPDEST PUSH1 0x40 MLOAD DUP1 SWAP2 SUB SWAP1 RETURN JUMPDEST PUSH2 0x235 PUSH1 0x4 DUP1 CALLDATASIZE SUB DUP2 ADD SWAP1 PUSH2 0x230 SWAP2 SWAP1 PUSH2 0x141A JUMP JUMPDEST PUSH2 0x55A JUMP JUMPDEST STOP JUMPDEST PUSH2 0x23F PUSH2 0x651 JUMP JUMPDEST PUSH1 0x40 MLOAD PUSH2 0x24C SWAP2 SWAP1 PUSH2 0x1479 JUMP JUMPDEST PUSH1 0x40 MLOAD DUP1 SWAP2 SUB SWAP1 RETURN JUMPDEST PUSH2 0x25D PUSH2 0x667 JUMP JUMPDEST STOP JUMPDEST PUSH2 0x267 PUSH2 0x6F2 JUMP JUMPDEST PUSH1 0x40 MLOAD PUSH2 0x274 SWAP2 SWAP1 PUSH2 0x1304 JUMP JUMPDEST PUSH1 0x40 MLOAD DUP1 SWAP2 SUB SWAP1 RETURN JUMPDEST PUSH2 0x285 PUSH2 0x6F8 JUMP JUMPDEST STOP JUMPDEST PUSH2 0x28F PUSH2 0x7CE JUMP JUMPDEST STOP JUMPDEST PUSH2 0x299 PUSH2 0x8ED JUMP JUMPDEST PUSH1 0x40 MLOAD PUSH2 0x2A6 SWAP2 SWAP1 PUSH2 0x14D5 JUMP JUMPDEST PUSH1 0x40 MLOAD DUP1 SWAP2 SUB SWAP1 RETURN JUMPDEST PUSH2 0x2B7 PUSH2 0x917 JUMP JUMPDEST STOP JUMPDEST PUSH2 0x2C1 PUSH2 0x92B JUMP JUMPDEST PUSH1 0x40 MLOAD PUSH2 0x2CE SWAP2 SWAP1 PUSH2 0x14FF JUMP JUMPDEST PUSH1 0x40 MLOAD DUP1 SWAP2 SUB SWAP1 RETURN JUMPDEST PUSH2 0x2DF PUSH2 0x9AE JUMP JUMPDEST PUSH1 0x40 MLOAD PUSH2 0x2EC SWAP2 SWAP1 PUSH2 0x1304 JUMP JUMPDEST PUSH1 0x40 MLOAD DUP1 SWAP2 SUB SWAP1 RETURN JUMPDEST PUSH2 0x2FD PUSH2 0x9B4 JUMP JUMPDEST PUSH1 0x40 MLOAD PUSH2 0x30A SWAP2 SWAP1 PUSH2 0x1479 JUMP JUMPDEST PUSH1 0x40 MLOAD DUP1 SWAP2 SUB SWAP1 RETURN JUMPDEST PUSH2 0x31B PUSH2 0x9CA JUMP JUMPDEST PUSH1 0x40 MLOAD PUSH2 0x328 SWAP2 SWAP1 PUSH2 0x14D5 JUMP JUMPDEST PUSH1 0x40 MLOAD DUP1 SWAP2 SUB SWAP1 RETURN JUMPDEST PUSH2 0x339 PUSH2 0x9F3 JUMP JUMPDEST PUSH1 0x40 MLOAD PUSH2 0x346 SWAP2 SWAP1 PUSH2 0x1479 JUMP JUMPDEST PUSH1 0x40 MLOAD DUP1 SWAP2 SUB SWAP1 RETURN JUMPDEST PUSH2 0x369 PUSH1 0x4 DUP1 CALLDATASIZE SUB DUP2 ADD SWAP1 PUSH2 0x364 SWAP2 SWAP1 PUSH2 0x1546 JUMP JUMPDEST PUSH2 0xA09 JUMP JUMPDEST PUSH1 0x40 MLOAD PUSH2 0x376 SWAP2 SWAP1 PUSH2 0x14D5 JUMP JUMPDEST PUSH1 0x40 MLOAD DUP1 SWAP2 SUB SWAP1 RETURN JUMPDEST PUSH2 0x387 PUSH2 0xA7E JUMP JUMPDEST PUSH1 0x40 MLOAD PUSH2 0x394 SWAP2 SWAP1 PUSH2 0x1304 JUMP JUMPDEST PUSH1 0x40 MLOAD DUP1 SWAP2 SUB SWAP1 RETURN JUMPDEST PUSH2 0x3B7 PUSH1 0x4 DUP1 CALLDATASIZE SUB DUP2 ADD SWAP1 PUSH2 0x3B2 SWAP2 SWAP1 PUSH2 0x1573 JUMP JUMPDEST PUSH2 0xA84 JUMP JUMPDEST STOP JUMPDEST PUSH2 0x3C1 PUSH2 0xAAE JUMP JUMPDEST PUSH1 0x40 MLOAD PUSH2 0x3CE SWAP2 SWAP1 PUSH2 0x165E JUMP JUMPDEST PUSH1 0x40 MLOAD DUP1 SWAP2 SUB SWAP1 RETURN JUMPDEST PUSH2 0x3F1 PUSH1 0x4 DUP1 CALLDATASIZE SUB DUP2 ADD SWAP1 PUSH2 0x3EC SWAP2 SWAP1 PUSH2 0x1679 JUMP JUMPDEST PUSH2 0xAEC JUMP JUMPDEST PUSH1 0x40 MLOAD PUSH2 0x3FE SWAP2 SWAP1 PUSH2 0x1304 JUMP JUMPDEST PUSH1 0x40 MLOAD DUP1 SWAP2 SUB SWAP1 RETURN JUMPDEST PUSH2 0x421 PUSH1 0x4 DUP1 CALLDATASIZE SUB DUP2 ADD SWAP1 PUSH2 0x41C SWAP2 SWAP1 PUSH2 0x16D2 JUMP JUMPDEST PUSH2 0xAFF JUMP JUMPDEST PUSH1 0x40 MLOAD PUSH2 0x42E SWAP2 SWAP1 PUSH2 0x1304 JUMP JUMPDEST PUSH1 0x40 MLOAD DUP1 SWAP2 SUB SWAP1 RETURN JUMPDEST PUSH2 0x43F PUSH2 0xD40 JUMP JUMPDEST PUSH1 0x40 MLOAD PUSH2 0x44C SWAP2 SWAP1 PUSH2 0x1304 JUMP JUMPDEST PUSH1 0x40 MLOAD DUP1 SWAP2 SUB SWAP1 RETURN JUMPDEST PUSH2 0x45D PUSH2 0xD46 JUMP JUMPDEST PUSH1 0x40 MLOAD PUSH2 0x46A SWAP2 SWAP1 PUSH2 0x14D5 JUMP JUMPDEST PUSH1 0x40 MLOAD DUP1 SWAP2 SUB SWAP1 RETURN JUMPDEST PUSH2 0x47B PUSH2 0xD70 JUMP JUMPDEST PUSH1 0x40 MLOAD PUSH2 0x488 SWAP2 SWAP1 PUSH2 0x1304 JUMP JUMPDEST PUSH1 0x40 MLOAD DUP1 SWAP2 SUB SWAP1 RETURN JUMPDEST PUSH2 0x4AB PUSH1 0x4 DUP1 CALLDATASIZE SUB DUP2 ADD SWAP1 PUSH2 0x4A6 SWAP2 SWAP1 PUSH2 0x1546 JUMP JUMPDEST PUSH2 0xD76 JUMP JUMPDEST PUSH1 0x40 MLOAD PUSH2 0x4B8 SWAP2 SWAP1 PUSH2 0x14D5 JUMP JUMPDEST PUSH1 0x40 MLOAD DUP1 SWAP2 SUB SWAP1 RETURN JUMPDEST PUSH2 0x4C9 PUSH2 0xDEB JUMP JUMPDEST STOP JUMPDEST PUSH2 0x4D3 PUSH2 0xE76 JUMP JUMPDEST PUSH1 0x40 MLOAD PUSH2 0x4E0 SWAP2 SWAP1 PUSH2 0x1304 JUMP JUMPDEST PUSH1 0x40 MLOAD DUP1 SWAP2 SUB SWAP1 RETURN JUMPDEST PUSH2 0x503 PUSH1 0x4 DUP1 CALLDATASIZE SUB DUP2 ADD SWAP1 PUSH2 0x4FE SWAP2 SWAP1 PUSH2 0x1546 JUMP JUMPDEST PUSH2 0xECE JUMP JUMPDEST STOP JUMPDEST PUSH2 0x50D PUSH2 0xF52 JUMP JUMPDEST PUSH1 0x40 MLOAD PUSH2 0x51A SWAP2 SWAP1 PUSH2 0x1304 JUMP JUMPDEST PUSH1 0x40 MLOAD DUP1 SWAP2 SUB SWAP1 RETURN JUMPDEST PUSH2 0x52B PUSH2 0xF74 JUMP JUMPDEST PUSH1 0x40 MLOAD PUSH2 0x538 SWAP2 SWAP1 PUSH2 0x14FF JUMP JUMPDEST PUSH1 0x40 MLOAD DUP1 SWAP2 SUB SWAP1 RETURN JUMPDEST PUSH1 0x4 SLOAD DUP2 JUMP JUMPDEST PUSH1 0x2 PUSH1 0x14 SWAP1 SLOAD SWAP1 PUSH2 0x100 EXP SWAP1 DIV PUSH1 0xFF AND DUP2 JUMP JUMPDEST PUSH2 0x562 PUSH2 0x100D JUMP JUMPDEST PUSH1 0x1 PUSH1 0x4 DUP2 GT ISZERO PUSH2 0x576 JUMPI PUSH2 0x575 PUSH2 0x131F JUMP JUMPDEST JUMPDEST PUSH1 0x2 PUSH1 0x14 SWAP1 SLOAD SWAP1 PUSH2 0x100 EXP SWAP1 DIV PUSH1 0xFF AND PUSH1 0x4 DUP2 GT ISZERO PUSH2 0x598 JUMPI PUSH2 0x597 PUSH2 0x131F JUMP JUMPDEST JUMPDEST EQ PUSH2 0x5D8 JUMPI PUSH1 0x40 MLOAD PUSH32 0x8C379A000000000000000000000000000000000000000000000000000000000 DUP2 MSTORE PUSH1 0x4 ADD PUSH2 0x5CF SWAP1 PUSH2 0x1782 JUMP JUMPDEST PUSH1 0x40 MLOAD DUP1 SWAP2 SUB SWAP1 REVERT JUMPDEST PUSH2 0x5E1 DUP3 PUSH2 0xAEC JUMP JUMPDEST POP PUSH2 0x5ED CALLER DUP3 ISZERO PUSH2 0xA84 JUMP JUMPDEST PUSH2 0x5F7 PUSH1 0x2 PUSH2 0x108B JUMP JUMPDEST POP PUSH3 0x24EA00 TIMESTAMP PUSH2 0x607 SWAP2 SWAP1 PUSH2 0x17D1 JUMP JUMPDEST PUSH1 0x8 DUP2 SWAP1 SSTORE POP PUSH1 0x1 PUSH1 0xA PUSH1 0x14 DUP3 DUP3 DUP3 SWAP1 SLOAD SWAP1 PUSH2 0x100 EXP SWAP1 DIV PUSH4 0xFFFFFFFF AND PUSH2 0x62F SWAP2 SWAP1 PUSH2 0x1827 JUMP JUMPDEST SWAP3 POP PUSH2 0x100 EXP DUP2 SLOAD DUP2 PUSH4 0xFFFFFFFF MUL NOT AND SWAP1 DUP4 PUSH4 0xFFFFFFFF AND MUL OR SWAP1 SSTORE POP POP POP JUMP JUMPDEST PUSH1 0xA PUSH1 0x1C SWAP1 SLOAD SWAP1 PUSH2 0x100 EXP SWAP1 DIV PUSH4 0xFFFFFFFF AND DUP2 JUMP JUMPDEST PUSH2 0x66F PUSH2 0x100D JUMP JUMPDEST PUSH1 0x2 PUSH1 0x4 DUP2 GT ISZERO PUSH2 0x683 JUMPI PUSH2 0x682 PUSH2 0x131F JUMP JUMPDEST JUMPDEST PUSH1 0x2 PUSH1 0x14 SWAP1 SLOAD SWAP1 PUSH2 0x100 EXP SWAP1 DIV PUSH1 0xFF AND PUSH1 0x4 DUP2 GT ISZERO PUSH2 0x6A5 JUMPI PUSH2 0x6A4 PUSH2 0x131F JUMP JUMPDEST JUMPDEST EQ PUSH2 0x6E5 JUMPI PUSH1 0x40 MLOAD PUSH32 0x8C379A000000000000000000000000000000000000000000000000000000000 DUP2 MSTORE PUSH1 0x4 ADD PUSH2 0x6DC SWAP1 PUSH2 0x18CD JUMP JUMPDEST PUSH1 0x40 MLOAD DUP1 SWAP2 SUB SWAP1 REVERT JUMPDEST PUSH2 0x6EF PUSH1 0x4 PUSH2 0x108B JUMP JUMPDEST POP JUMP JUMPDEST PUSH1 0x7 SLOAD DUP2 JUMP JUMPDEST PUSH2 0x700 PUSH2 0x100D JUMP JUMPDEST PUSH1 0x2 PUSH1 0x4 DUP2 GT ISZERO PUSH2 0x714 JUMPI PUSH2 0x713 PUSH2 0x131F JUMP JUMPDEST JUMPDEST PUSH1 0x2 PUSH1 0x14 SWAP1 SLOAD SWAP1 PUSH2 0x100 EXP SWAP1 DIV PUSH1 0xFF AND PUSH1 0x4 DUP2 GT ISZERO PUSH2 0x736 JUMPI PUSH2 0x735 PUSH2 0x131F JUMP JUMPDEST JUMPDEST EQ PUSH2 0x776 JUMPI PUSH1 0x40 MLOAD PUSH32 0x8C379A000000000000000000000000000000000000000000000000000000000 DUP2 MSTORE PUSH1 0x4 ADD PUSH2 0x76D SWAP1 PUSH2 0x18CD JUMP JUMPDEST PUSH1 0x40 MLOAD DUP1 SWAP2 SUB SWAP1 REVERT JUMPDEST PUSH1 0x0 PUSH2 0x780 PUSH2 0xE76 JUMP JUMPDEST EQ ISZERO PUSH2 0x7C1 JUMPI PUSH1 0x40 MLOAD PUSH32 0x8C379A000000000000000000000000000000000000000000000000000000000 DUP2 MSTORE PUSH1 0x4 ADD PUSH2 0x7B8 SWAP1 PUSH2 0x195F JUMP JUMPDEST PUSH1 0x40 MLOAD DUP1 SWAP2 SUB SWAP1 REVERT JUMPDEST PUSH2 0x7CB PUSH1 0x3 PUSH2 0x108B JUMP JUMPDEST POP JUMP JUMPDEST PUSH2 0x7D6 PUSH2 0x100D JUMP JUMPDEST PUSH1 0x2 PUSH1 0x4 DUP2 GT ISZERO PUSH2 0x7EA JUMPI PUSH2 0x7E9 PUSH2 0x131F JUMP JUMPDEST JUMPDEST PUSH1 0x2 PUSH1 0x14 SWAP1 SLOAD SWAP1 PUSH2 0x100 EXP SWAP1 DIV PUSH1 0xFF AND PUSH1 0x4 DUP2 GT ISZERO PUSH2 0x80C JUMPI PUSH2 0x80B PUSH2 0x131F JUMP JUMPDEST JUMPDEST EQ PUSH2 0x84C JUMPI PUSH1 0x40 MLOAD PUSH32 0x8C379A000000000000000000000000000000000000000000000000000000000 DUP2 MSTORE PUSH1 0x4 ADD PUSH2 0x843 SWAP1 PUSH2 0x18CD JUMP JUMPDEST PUSH1 0x40 MLOAD DUP1 SWAP2 SUB SWAP1 REVERT JUMPDEST PUSH1 0x0 PUSH1 0xA PUSH1 0x14 SWAP1 SLOAD SWAP1 PUSH2 0x100 EXP SWAP1 DIV PUSH4 0xFFFFFFFF AND PUSH4 0xFFFFFFFF AND GT PUSH2 0x8A7 JUMPI PUSH1 0x40 MLOAD PUSH32 0x8C379A000000000000000000000000000000000000000000000000000000000 DUP2 MSTORE PUSH1 0x4 ADD PUSH2 0x89E SWAP1 PUSH2 0x19CB JUMP JUMPDEST PUSH1 0x40 MLOAD DUP1 SWAP2 SUB SWAP1 REVERT JUMPDEST PUSH3 0x24EA00 PUSH1 0x8 PUSH1 0x0 DUP3 DUP3 SLOAD PUSH2 0x8BC SWAP2 SWAP1 PUSH2 0x17D1 JUMP JUMPDEST SWAP3 POP POP DUP2 SWAP1 SSTORE POP PUSH2 0x8EA PUSH1 0x1 PUSH1 0xA PUSH1 0x14 SWAP1 SLOAD SWAP1 PUSH2 0x100 EXP SWAP1 DIV PUSH4 0xFFFFFFFF AND PUSH2 0x8E5 SWAP2 SWAP1 PUSH2 0x1827 JUMP JUMPDEST PUSH2 0x10D6 JUMP JUMPDEST POP JUMP JUMPDEST PUSH1 0x0 PUSH1 0x9 PUSH1 0x0 SWAP1 SLOAD SWAP1 PUSH2 0x100 EXP SWAP1 DIV PUSH20 0xFFFFFFFFFFFFFFFFFFFFFFFFFFFFFFFFFFFFFFFF AND SWAP1 POP SWAP1 JUMP JUMPDEST PUSH2 0x91F PUSH2 0x100D JUMP JUMPDEST PUSH2 0x929 PUSH1 0x0 PUSH2 0x111B JUMP JUMPDEST JUMP JUMPDEST PUSH1 0x0 PUSH1 0x2 PUSH1 0x4 DUP2 GT ISZERO PUSH2 0x941 JUMPI PUSH2 0x940 PUSH2 0x131F JUMP JUMPDEST JUMPDEST PUSH1 0x2 PUSH1 0x14 SWAP1 SLOAD SWAP1 PUSH2 0x100 EXP SWAP1 DIV PUSH1 0xFF AND PUSH1 0x4 DUP2 GT ISZERO PUSH2 0x963 JUMPI PUSH2 0x962 PUSH2 0x131F JUMP JUMPDEST JUMPDEST EQ PUSH2 0x9A3 JUMPI PUSH1 0x40 MLOAD PUSH32 0x8C379A000000000000000000000000000000000000000000000000000000000 DUP2 MSTORE PUSH1 0x4 ADD PUSH2 0x99A SWAP1 PUSH2 0x18CD JUMP JUMPDEST PUSH1 0x40 MLOAD DUP1 SWAP2 SUB SWAP1 REVERT JUMPDEST PUSH1 0x8 SLOAD TIMESTAMP LT ISZERO SWAP1 POP SWAP1 JUMP JUMPDEST PUSH1 0x3 SLOAD DUP2 JUMP JUMPDEST PUSH1 0xA PUSH1 0x18 SWAP1 SLOAD SWAP1 PUSH2 0x100 EXP SWAP1 DIV PUSH4 0xFFFFFFFF AND DUP2 JUMP JUMPDEST PUSH1 0x0 DUP1 PUSH1 0x0 SWAP1 SLOAD SWAP1 PUSH2 0x100 EXP SWAP1 DIV PUSH20 0xFFFFFFFFFFFFFFFFFFFFFFFFFFFFFFFFFFFFFFFF AND SWAP1 POP SWAP1 JUMP JUMPDEST PUSH1 0xA PUSH1 0x14 SWAP1 SLOAD SWAP1 PUSH2 0x100 EXP SWAP1 DIV PUSH4 0xFFFFFFFF AND DUP2 JUMP JUMPDEST PUSH1 0x0 PUSH2 0xA13 PUSH2 0x100D JUMP JUMPDEST DUP2 PUSH1 0x9 PUSH1 0x0 PUSH2 0x100 EXP DUP2 SLOAD DUP2 PUSH20 0xFFFFFFFFFFFFFFFFFFFFFFFFFFFFFFFFFFFFFFFF MUL NOT AND SWAP1 DUP4 PUSH20 0xFFFFFFFFFFFFFFFFFFFFFFFFFFFFFFFFFFFFFFFF AND MUL OR SWAP1 SSTORE POP PUSH1 0x9 PUSH1 0x0 SWAP1 SLOAD SWAP1 PUSH2 0x100 EXP SWAP1 DIV PUSH20 0xFFFFFFFFFFFFFFFFFFFFFFFFFFFFFFFFFFFFFFFF AND SWAP1 POP SWAP2 SWAP1 POP JUMP JUMPDEST PUSH1 0x5 SLOAD DUP2 JUMP JUMPDEST PUSH2 0xA8C PUSH2 0x100D JUMP JUMPDEST DUP1 PUSH2 0xA9F JUMPI PUSH2 0xA9A DUP3 PUSH2 0xD76 JUMP JUMPDEST PUSH2 0xAA9 JUMP JUMPDEST PUSH2 0xAA8 DUP3 PUSH2 0xA09 JUMP JUMPDEST JUMPDEST POP POP POP JUMP JUMPDEST PUSH2 0xAB6 PUSH2 0x12C9 JUMP JUMPDEST PUSH1 0x40 MLOAD DUP1 PUSH1 0xA0 ADD PUSH1 0x40 MSTORE DUP1 PUSH1 0x3 SLOAD DUP2 MSTORE PUSH1 0x20 ADD PUSH1 0x4 SLOAD DUP2 MSTORE PUSH1 0x20 ADD PUSH1 0x5 SLOAD DUP2 MSTORE PUSH1 0x20 ADD PUSH1 0x6 SLOAD DUP2 MSTORE PUSH1 0x20 ADD PUSH1 0x7 SLOAD DUP2 MSTORE POP SWAP1 POP SWAP1 JUMP JUMPDEST PUSH1 0x0 DUP2 PUSH1 0x3 DUP2 SWAP1 SSTORE POP PUSH1 0x3 SLOAD SWAP1 POP SWAP2 SWAP1 POP JUMP JUMPDEST PUSH1 0x0 DUP1 PUSH1 0x0 DUP4 PUSH4 0xFFFFFFFF AND EQ ISZERO PUSH2 0xBBF JUMPI PUSH2 0xBB8 PUSH4 0x5F5E100 PUSH1 0x1 PUSH1 0x0 SWAP1 SLOAD SWAP1 PUSH2 0x100 EXP SWAP1 DIV PUSH20 0xFFFFFFFFFFFFFFFFFFFFFFFFFFFFFFFFFFFFFFFF AND PUSH20 0xFFFFFFFFFFFFFFFFFFFFFFFFFFFFFFFFFFFFFFFF AND PUSH4 0xA8AD52D1 PUSH1 0x40 MLOAD DUP2 PUSH4 0xFFFFFFFF AND PUSH1 0xE0 SHL DUP2 MSTORE PUSH1 0x4 ADD PUSH1 0x20 PUSH1 0x40 MLOAD DUP1 DUP4 SUB DUP2 DUP7 GAS STATICCALL ISZERO DUP1 ISZERO PUSH2 0xB86 JUMPI RETURNDATASIZE PUSH1 0x0 DUP1 RETURNDATACOPY RETURNDATASIZE PUSH1 0x0 REVERT JUMPDEST POP POP POP POP PUSH1 0x40 MLOAD RETURNDATASIZE PUSH1 0x1F NOT PUSH1 0x1F DUP3 ADD AND DUP3 ADD DUP1 PUSH1 0x40 MSTORE POP DUP2 ADD SWAP1 PUSH2 0xBAA SWAP2 SWAP1 PUSH2 0x1A00 JUMP JUMPDEST PUSH2 0x11DF SWAP1 SWAP2 SWAP1 PUSH4 0xFFFFFFFF AND JUMP JUMPDEST SWAP1 POP PUSH2 0xD37 JUMP JUMPDEST PUSH1 0x1 DUP4 PUSH4 0xFFFFFFFF AND EQ ISZERO PUSH2 0xC7C JUMPI PUSH2 0xC75 PUSH4 0x5F5E100 PUSH1 0x1 PUSH1 0x0 SWAP1 SLOAD SWAP1 PUSH2 0x100 EXP SWAP1 DIV PUSH20 0xFFFFFFFFFFFFFFFFFFFFFFFFFFFFFFFFFFFFFFFF AND PUSH20 0xFFFFFFFFFFFFFFFFFFFFFFFFFFFFFFFFFFFFFFFF AND PUSH4 0xFF186B2E PUSH1 0x40 MLOAD DUP2 PUSH4 0xFFFFFFFF AND PUSH1 0xE0 SHL DUP2 MSTORE PUSH1 0x4 ADD PUSH1 0x20 PUSH1 0x40 MLOAD DUP1 DUP4 SUB DUP2 DUP7 GAS STATICCALL ISZERO DUP1 ISZERO PUSH2 0xC43 JUMPI RETURNDATASIZE PUSH1 0x0 DUP1 RETURNDATACOPY RETURNDATASIZE PUSH1 0x0 REVERT JUMPDEST POP POP POP POP PUSH1 0x40 MLOAD RETURNDATASIZE PUSH1 0x1F NOT PUSH1 0x1F DUP3 ADD AND DUP3 ADD DUP1 PUSH1 0x40 MSTORE POP DUP2 ADD SWAP1 PUSH2 0xC67 SWAP2 SWAP1 PUSH2 0x1A00 JUMP JUMPDEST PUSH2 0x11DF SWAP1 SWAP2 SWAP1 PUSH4 0xFFFFFFFF AND JUMP JUMPDEST SWAP1 POP PUSH2 0xD36 JUMP JUMPDEST PUSH1 0x2 DUP4 PUSH4 0xFFFFFFFF AND EQ ISZERO PUSH2 0xD35 JUMPI PUSH2 0xD32 PUSH4 0x5F5E100 PUSH1 0x1 PUSH1 0x0 SWAP1 SLOAD SWAP1 PUSH2 0x100 EXP SWAP1 DIV PUSH20 0xFFFFFFFFFFFFFFFFFFFFFFFFFFFFFFFFFFFFFFFF AND PUSH20 0xFFFFFFFFFFFFFFFFFFFFFFFFFFFFFFFFFFFFFFFF AND PUSH4 0xCF78535 PUSH1 0x40 MLOAD DUP2 PUSH4 0xFFFFFFFF AND PUSH1 0xE0 SHL DUP2 MSTORE PUSH1 0x4 ADD PUSH1 0x20 PUSH1 0x40 MLOAD DUP1 DUP4 SUB DUP2 DUP7 GAS STATICCALL ISZERO DUP1 ISZERO PUSH2 0xD00 JUMPI RETURNDATASIZE PUSH1 0x0 DUP1 RETURNDATACOPY RETURNDATASIZE PUSH1 0x0 REVERT JUMPDEST POP POP POP POP PUSH1 0x40 MLOAD RETURNDATASIZE PUSH1 0x1F NOT PUSH1 0x1F DUP3 ADD AND DUP3 ADD DUP1 PUSH1 0x40 MSTORE POP DUP2 ADD SWAP1 PUSH2 0xD24 SWAP2 SWAP1 PUSH2 0x1A00 JUMP JUMPDEST PUSH2 0x11DF SWAP1 SWAP2 SWAP1 PUSH4 0xFFFFFFFF AND JUMP JUMPDEST SWAP1 POP JUMPDEST JUMPDEST JUMPDEST DUP1 SWAP2 POP POP SWAP2 SWAP1 POP JUMP JUMPDEST PUSH1 0x8 SLOAD DUP2 JUMP JUMPDEST PUSH1 0x0 PUSH1 0xA PUSH1 0x0 SWAP1 SLOAD SWAP1 PUSH2 0x100 EXP SWAP1 DIV PUSH20 0xFFFFFFFFFFFFFFFFFFFFFFFFFFFFFFFFFFFFFFFF AND SWAP1 POP SWAP1 JUMP JUMPDEST PUSH1 0x6 SLOAD DUP2 JUMP JUMPDEST PUSH1 0x0 PUSH2 0xD80 PUSH2 0x100D JUMP JUMPDEST DUP2 PUSH1 0xA PUSH1 0x0 PUSH2 0x100 EXP DUP2 SLOAD DUP2 PUSH20 0xFFFFFFFFFFFFFFFFFFFFFFFFFFFFFFFFFFFFFFFF MUL NOT AND SWAP1 DUP4 PUSH20 0xFFFFFFFFFFFFFFFFFFFFFFFFFFFFFFFFFFFFFFFF AND MUL OR SWAP1 SSTORE POP PUSH1 0xA PUSH1 0x0 SWAP1 SLOAD SWAP1 PUSH2 0x100 EXP SWAP1 DIV PUSH20 0xFFFFFFFFFFFFFFFFFFFFFFFFFFFFFFFFFFFFFFFF AND SWAP1 POP SWAP2 SWAP1 POP JUMP JUMPDEST PUSH2 0xDF3 PUSH2 0x100D JUMP JUMPDEST PUSH1 0x1 PUSH1 0x4 DUP2 GT ISZERO PUSH2 0xE07 JUMPI PUSH2 0xE06 PUSH2 0x131F JUMP JUMPDEST JUMPDEST PUSH1 0x2 PUSH1 0x14 SWAP1 SLOAD SWAP1 PUSH2 0x100 EXP SWAP1 DIV PUSH1 0xFF AND PUSH1 0x4 DUP2 GT ISZERO PUSH2 0xE29 JUMPI PUSH2 0xE28 PUSH2 0x131F JUMP JUMPDEST JUMPDEST EQ PUSH2 0xE69 JUMPI PUSH1 0x40 MLOAD PUSH32 0x8C379A000000000000000000000000000000000000000000000000000000000 DUP2 MSTORE PUSH1 0x4 ADD PUSH2 0xE60 SWAP1 PUSH2 0x1782 JUMP JUMPDEST PUSH1 0x40 MLOAD DUP1 SWAP2 SUB SWAP1 REVERT JUMPDEST PUSH2 0xE73 PUSH1 0x0 PUSH2 0x108B JUMP JUMPDEST POP JUMP JUMPDEST PUSH1 0x0 DUP1 PUSH2 0xE94 PUSH1 0xA PUSH1 0x1C SWAP1 SLOAD SWAP1 PUSH2 0x100 EXP SWAP1 DIV PUSH4 0xFFFFFFFF AND PUSH2 0xAFF JUMP JUMPDEST SWAP1 POP DUP1 PUSH1 0x4 SLOAD LT ISZERO PUSH2 0xEAA JUMPI PUSH1 0x0 SWAP2 POP POP PUSH2 0xECB JUMP JUMPDEST PUSH2 0xEC7 PUSH1 0x5 SLOAD PUSH1 0x3 SLOAD DUP4 PUSH1 0x7 SLOAD PUSH2 0x11F5 SWAP1 SWAP4 SWAP3 SWAP2 SWAP1 PUSH4 0xFFFFFFFF AND JUMP JUMPDEST SWAP2 POP POP JUMPDEST SWAP1 JUMP JUMPDEST PUSH2 0xED6 PUSH2 0x100D JUMP JUMPDEST PUSH1 0x0 PUSH20 0xFFFFFFFFFFFFFFFFFFFFFFFFFFFFFFFFFFFFFFFF AND DUP2 PUSH20 0xFFFFFFFFFFFFFFFFFFFFFFFFFFFFFFFFFFFFFFFF AND EQ ISZERO PUSH2 0xF46 JUMPI PUSH1 0x40 MLOAD PUSH32 0x8C379A000000000000000000000000000000000000000000000000000000000 DUP2 MSTORE PUSH1 0x4 ADD PUSH2 0xF3D SWAP1 PUSH2 0x1A9F JUMP JUMPDEST PUSH1 0x40 MLOAD DUP1 SWAP2 SUB SWAP1 REVERT JUMPDEST PUSH2 0xF4F DUP2 PUSH2 0x111B JUMP JUMPDEST POP JUMP JUMPDEST PUSH1 0x0 PUSH2 0xF6F PUSH1 0x5 SLOAD PUSH1 0x7 SLOAD PUSH1 0x3 SLOAD PUSH2 0x1265 SWAP1 SWAP3 SWAP2 SWAP1 PUSH4 0xFFFFFFFF AND JUMP JUMPDEST SWAP1 POP SWAP1 JUMP JUMPDEST PUSH1 0x0 PUSH1 0x2 PUSH1 0x4 DUP2 GT ISZERO PUSH2 0xF8A JUMPI PUSH2 0xF89 PUSH2 0x131F JUMP JUMPDEST JUMPDEST PUSH1 0x2 PUSH1 0x14 SWAP1 SLOAD SWAP1 PUSH2 0x100 EXP SWAP1 DIV PUSH1 0xFF AND PUSH1 0x4 DUP2 GT ISZERO PUSH2 0xFAC JUMPI PUSH2 0xFAB PUSH2 0x131F JUMP JUMPDEST JUMPDEST EQ PUSH2 0xFEC JUMPI PUSH1 0x40 MLOAD PUSH32 0x8C379A000000000000000000000000000000000000000000000000000000000 DUP2 MSTORE PUSH1 0x4 ADD PUSH2 0xFE3 SWAP1 PUSH2 0x18CD JUMP JUMPDEST PUSH1 0x40 MLOAD DUP1 SWAP2 SUB SWAP1 REVERT JUMPDEST PUSH1 0x0 PUSH1 0xA PUSH1 0x14 SWAP1 SLOAD SWAP1 PUSH2 0x100 EXP SWAP1 DIV PUSH4 0xFFFFFFFF AND PUSH4 0xFFFFFFFF AND EQ SWAP1 POP SWAP1 JUMP JUMPDEST PUSH2 0x1015 PUSH2 0x1295 JUMP JUMPDEST PUSH20 0xFFFFFFFFFFFFFFFFFFFFFFFFFFFFFFFFFFFFFFFF AND PUSH2 0x1033 PUSH2 0x9CA JUMP JUMPDEST PUSH20 0xFFFFFFFFFFFFFFFFFFFFFFFFFFFFFFFFFFFFFFFF AND EQ PUSH2 0x1089 JUMPI PUSH1 0x40 MLOAD PUSH32 0x8C379A000000000000000000000000000000000000000000000000000000000 DUP2 MSTORE PUSH1 0x4 ADD PUSH2 0x1080 SWAP1 PUSH2 0x1B0B JUMP JUMPDEST PUSH1 0x40 MLOAD DUP1 SWAP2 SUB SWAP1 REVERT JUMPDEST JUMP JUMPDEST PUSH1 0x0 PUSH2 0x1095 PUSH2 0x100D JUMP JUMPDEST DUP2 PUSH1 0x2 PUSH1 0x14 PUSH2 0x100 EXP DUP2 SLOAD DUP2 PUSH1 0xFF MUL NOT AND SWAP1 DUP4 PUSH1 0x4 DUP2 GT ISZERO PUSH2 0x10BA JUMPI PUSH2 0x10B9 PUSH2 0x131F JUMP JUMPDEST JUMPDEST MUL OR SWAP1 SSTORE POP PUSH1 0x2 PUSH1 0x14 SWAP1 SLOAD SWAP1 PUSH2 0x100 EXP SWAP1 DIV PUSH1 0xFF AND SWAP1 POP SWAP2 SWAP1 POP JUMP JUMPDEST PUSH1 0x0 PUSH2 0x10E0 PUSH2 0x100D JUMP JUMPDEST DUP2 PUSH1 0xA PUSH1 0x14 PUSH2 0x100 EXP DUP2 SLOAD DUP2 PUSH4 0xFFFFFFFF MUL NOT AND SWAP1 DUP4 PUSH4 0xFFFFFFFF AND MUL OR SWAP1 SSTORE POP PUSH1 0xA PUSH1 0x14 SWAP1 SLOAD SWAP1 PUSH2 0x100 EXP SWAP1 DIV PUSH4 0xFFFFFFFF AND SWAP1 POP SWAP2 SWAP1 POP JUMP JUMPDEST PUSH1 0x0 DUP1 PUSH1 0x0 SWAP1 SLOAD SWAP1 PUSH2 0x100 EXP SWAP1 DIV PUSH20 0xFFFFFFFFFFFFFFFFFFFFFFFFFFFFFFFFFFFFFFFF AND SWAP1 POP DUP2 PUSH1 0x0 DUP1 PUSH2 0x100 EXP DUP2 SLOAD DUP2 PUSH20 0xFFFFFFFFFFFFFFFFFFFFFFFFFFFFFFFFFFFFFFFF MUL NOT AND SWAP1 DUP4 PUSH20 0xFFFFFFFFFFFFFFFFFFFFFFFFFFFFFFFFFFFFFFFF AND MUL OR SWAP1 SSTORE POP DUP2 PUSH20 0xFFFFFFFFFFFFFFFFFFFFFFFFFFFFFFFFFFFFFFFF AND DUP2 PUSH20 0xFFFFFFFFFFFFFFFFFFFFFFFFFFFFFFFFFFFFFFFF AND PUSH32 0x8BE0079C531659141344CD1FD0A4F28419497F9722A3DAAFE3B4186F6B6457E0 PUSH1 0x40 MLOAD PUSH1 0x40 MLOAD DUP1 SWAP2 SUB SWAP1 LOG3 POP POP JUMP JUMPDEST PUSH1 0x0 DUP2 DUP4 PUSH2 0x11ED SWAP2 SWAP1 PUSH2 0x1B5A JUMP JUMPDEST SWAP1 POP SWAP3 SWAP2 POP POP JUMP JUMPDEST PUSH1 0x0 DUP1 DUP3 DUP6 LT PUSH2 0x1207 JUMPI DUP6 SWAP1 POP PUSH2 0x1259 JUMP JUMPDEST PUSH1 0x0 PUSH2 0x122E PUSH2 0x121F DUP8 DUP8 PUSH2 0x129D SWAP1 SWAP2 SWAP1 PUSH4 0xFFFFFFFF AND JUMP JUMPDEST DUP9 PUSH2 0x11DF SWAP1 SWAP2 SWAP1 PUSH4 0xFFFFFFFF AND JUMP JUMPDEST SWAP1 POP PUSH2 0x1255 PUSH2 0x1246 DUP6 DUP8 PUSH2 0x129D SWAP1 SWAP2 SWAP1 PUSH4 0xFFFFFFFF AND JUMP JUMPDEST DUP3 PUSH2 0x12B3 SWAP1 SWAP2 SWAP1 PUSH4 0xFFFFFFFF AND JUMP JUMPDEST SWAP2 POP POP JUMPDEST DUP1 SWAP2 POP POP SWAP5 SWAP4 POP POP POP POP JUMP JUMPDEST PUSH1 0x0 PUSH2 0x128C PUSH2 0x127D DUP5 DUP7 PUSH2 0x129D SWAP1 SWAP2 SWAP1 PUSH4 0xFFFFFFFF AND JUMP JUMPDEST DUP4 PUSH2 0x11DF SWAP1 SWAP2 SWAP1 PUSH4 0xFFFFFFFF AND JUMP JUMPDEST SWAP1 POP SWAP4 SWAP3 POP POP POP JUMP JUMPDEST PUSH1 0x0 CALLER SWAP1 POP SWAP1 JUMP JUMPDEST PUSH1 0x0 DUP2 DUP4 PUSH2 0x12AB SWAP2 SWAP1 PUSH2 0x1B8B JUMP JUMPDEST SWAP1 POP SWAP3 SWAP2 POP POP JUMP JUMPDEST PUSH1 0x0 DUP2 DUP4 PUSH2 0x12C1 SWAP2 SWAP1 PUSH2 0x1BBF JUMP JUMPDEST SWAP1 POP SWAP3 SWAP2 POP POP JUMP JUMPDEST PUSH1 0x40 MLOAD DUP1 PUSH1 0xA0 ADD PUSH1 0x40 MSTORE DUP1 PUSH1 0x5 SWAP1 PUSH1 0x20 DUP3 MUL DUP1 CALLDATASIZE DUP4 CALLDATACOPY DUP1 DUP3 ADD SWAP2 POP POP SWAP1 POP POP SWAP1 JUMP JUMPDEST PUSH1 0x0 DUP2 SWAP1 POP SWAP2 SWAP1 POP JUMP JUMPDEST PUSH2 0x12FE DUP2 PUSH2 0x12EB JUMP JUMPDEST DUP3 MSTORE POP POP JUMP JUMPDEST PUSH1 0x0 PUSH1 0x20 DUP3 ADD SWAP1 POP PUSH2 0x1319 PUSH1 0x0 DUP4 ADD DUP5 PUSH2 0x12F5 JUMP JUMPDEST SWAP3 SWAP2 POP POP JUMP JUMPDEST PUSH32 0x4E487B7100000000000000000000000000000000000000000000000000000000 PUSH1 0x0 MSTORE PUSH1 0x21 PUSH1 0x4 MSTORE PUSH1 0x24 PUSH1 0x0 REVERT JUMPDEST PUSH1 0x5 DUP2 LT PUSH2 0x135F JUMPI PUSH2 0x135E PUSH2 0x131F JUMP JUMPDEST JUMPDEST POP JUMP JUMPDEST PUSH1 0x0 DUP2 SWAP1 POP PUSH2 0x1370 DUP3 PUSH2 0x134E JUMP JUMPDEST SWAP2 SWAP1 POP JUMP JUMPDEST PUSH1 0x0 PUSH2 0x1380 DUP3 PUSH2 0x1362 JUMP JUMPDEST SWAP1 POP SWAP2 SWAP1 POP JUMP JUMPDEST PUSH2 0x1390 DUP2 PUSH2 0x1375 JUMP JUMPDEST DUP3 MSTORE POP POP JUMP JUMPDEST PUSH1 0x0 PUSH1 0x20 DUP3 ADD SWAP1 POP PUSH2 0x13AB PUSH1 0x0 DUP4 ADD DUP5 PUSH2 0x1387 JUMP JUMPDEST SWAP3 SWAP2 POP POP JUMP JUMPDEST PUSH1 0x0 DUP1 REVERT JUMPDEST PUSH2 0x13BF DUP2 PUSH2 0x12EB JUMP JUMPDEST DUP2 EQ PUSH2 0x13CA JUMPI PUSH1 0x0 DUP1 REVERT JUMPDEST POP JUMP JUMPDEST PUSH1 0x0 DUP2 CALLDATALOAD SWAP1 POP PUSH2 0x13DC DUP2 PUSH2 0x13B6 JUMP JUMPDEST SWAP3 SWAP2 POP POP JUMP JUMPDEST PUSH1 0x0 DUP2 ISZERO ISZERO SWAP1 POP SWAP2 SWAP1 POP JUMP JUMPDEST PUSH2 0x13F7 DUP2 PUSH2 0x13E2 JUMP JUMPDEST DUP2 EQ PUSH2 0x1402 JUMPI PUSH1 0x0 DUP1 REVERT JUMPDEST POP JUMP JUMPDEST PUSH1 0x0 DUP2 CALLDATALOAD SWAP1 POP PUSH2 0x1414 DUP2 PUSH2 0x13EE JUMP JUMPDEST SWAP3 SWAP2 POP POP JUMP JUMPDEST PUSH1 0x0 DUP1 PUSH1 0x40 DUP4 DUP6 SUB SLT ISZERO PUSH2 0x1431 JUMPI PUSH2 0x1430 PUSH2 0x13B1 JUMP JUMPDEST JUMPDEST PUSH1 0x0 PUSH2 0x143F DUP6 DUP3 DUP7 ADD PUSH2 0x13CD JUMP JUMPDEST SWAP3 POP POP PUSH1 0x20 PUSH2 0x1450 DUP6 DUP3 DUP7 ADD PUSH2 0x1405 JUMP JUMPDEST SWAP2 POP POP SWAP3 POP SWAP3 SWAP1 POP JUMP JUMPDEST PUSH1 0x0 PUSH4 0xFFFFFFFF DUP3 AND SWAP1 POP SWAP2 SWAP1 POP JUMP JUMPDEST PUSH2 0x1473 DUP2 PUSH2 0x145A JUMP JUMPDEST DUP3 MSTORE POP POP JUMP JUMPDEST PUSH1 0x0 PUSH1 0x20 DUP3 ADD SWAP1 POP PUSH2 0x148E PUSH1 0x0 DUP4 ADD DUP5 PUSH2 0x146A JUMP JUMPDEST SWAP3 SWAP2 POP POP JUMP JUMPDEST PUSH1 0x0 PUSH20 0xFFFFFFFFFFFFFFFFFFFFFFFFFFFFFFFFFFFFFFFF DUP3 AND SWAP1 POP SWAP2 SWAP1 POP JUMP JUMPDEST PUSH1 0x0 PUSH2 0x14BF DUP3 PUSH2 0x1494 JUMP JUMPDEST SWAP1 POP SWAP2 SWAP1 POP JUMP JUMPDEST PUSH2 0x14CF DUP2 PUSH2 0x14B4 JUMP JUMPDEST DUP3 MSTORE POP POP JUMP JUMPDEST PUSH1 0x0 PUSH1 0x20 DUP3 ADD SWAP1 POP PUSH2 0x14EA PUSH1 0x0 DUP4 ADD DUP5 PUSH2 0x14C6 JUMP JUMPDEST SWAP3 SWAP2 POP POP JUMP JUMPDEST PUSH2 0x14F9 DUP2 PUSH2 0x13E2 JUMP JUMPDEST DUP3 MSTORE POP POP JUMP JUMPDEST PUSH1 0x0 PUSH1 0x20 DUP3 ADD SWAP1 POP PUSH2 0x1514 PUSH1 0x0 DUP4 ADD DUP5 PUSH2 0x14F0 JUMP JUMPDEST SWAP3 SWAP2 POP POP JUMP JUMPDEST PUSH2 0x1523 DUP2 PUSH2 0x14B4 JUMP JUMPDEST DUP2 EQ PUSH2 0x152E JUMPI PUSH1 0x0 DUP1 REVERT JUMPDEST POP JUMP JUMPDEST PUSH1 0x0 DUP2 CALLDATALOAD SWAP1 POP PUSH2 0x1540 DUP2 PUSH2 0x151A JUMP JUMPDEST SWAP3 SWAP2 POP POP JUMP JUMPDEST PUSH1 0x0 PUSH1 0x20 DUP3 DUP5 SUB SLT ISZERO PUSH2 0x155C JUMPI PUSH2 0x155B PUSH2 0x13B1 JUMP JUMPDEST JUMPDEST PUSH1 0x0 PUSH2 0x156A DUP5 DUP3 DUP6 ADD PUSH2 0x1531 JUMP JUMPDEST SWAP2 POP POP SWAP3 SWAP2 POP POP JUMP JUMPDEST PUSH1 0x0 DUP1 PUSH1 0x40 DUP4 DUP6 SUB SLT ISZERO PUSH2 0x158A JUMPI PUSH2 0x1589 PUSH2 0x13B1 JUMP JUMPDEST JUMPDEST PUSH1 0x0 PUSH2 0x1598 DUP6 DUP3 DUP7 ADD PUSH2 0x1531 JUMP JUMPDEST SWAP3 POP POP PUSH1 0x20 PUSH2 0x15A9 DUP6 DUP3 DUP7 ADD PUSH2 0x1405 JUMP JUMPDEST SWAP2 POP POP SWAP3 POP SWAP3 SWAP1 POP JUMP JUMPDEST PUSH1 0x0 PUSH1 0x5 SWAP1 POP SWAP2 SWAP1 POP JUMP JUMPDEST PUSH1 0x0 DUP2 SWAP1 POP SWAP3 SWAP2 POP POP JUMP JUMPDEST PUSH1 0x0 DUP2 SWAP1 POP SWAP2 SWAP1 POP JUMP JUMPDEST PUSH2 0x15DC DUP2 PUSH2 0x12EB JUMP JUMPDEST DUP3 MSTORE POP POP JUMP JUMPDEST PUSH1 0x0 PUSH2 0x15EE DUP4 DUP4 PUSH2 0x15D3 JUMP JUMPDEST PUSH1 0x20 DUP4 ADD SWAP1 POP SWAP3 SWAP2 POP POP JUMP JUMPDEST PUSH1 0x0 PUSH1 0x20 DUP3 ADD SWAP1 POP SWAP2 SWAP1 POP JUMP JUMPDEST PUSH2 0x1610 DUP2 PUSH2 0x15B3 JUMP JUMPDEST PUSH2 0x161A DUP2 DUP5 PUSH2 0x15BE JUMP JUMPDEST SWAP3 POP PUSH2 0x1625 DUP3 PUSH2 0x15C9 JUMP JUMPDEST DUP1 PUSH1 0x0 JUMPDEST DUP4 DUP2 LT ISZERO PUSH2 0x1656 JUMPI DUP2 MLOAD PUSH2 0x163D DUP8 DUP3 PUSH2 0x15E2 JUMP JUMPDEST SWAP7 POP PUSH2 0x1648 DUP4 PUSH2 0x15FA JUMP JUMPDEST SWAP3 POP POP PUSH1 0x1 DUP2 ADD SWAP1 POP PUSH2 0x1629 JUMP JUMPDEST POP POP POP POP POP POP JUMP JUMPDEST PUSH1 0x0 PUSH1 0xA0 DUP3 ADD SWAP1 POP PUSH2 0x1673 PUSH1 0x0 DUP4 ADD DUP5 PUSH2 0x1607 JUMP JUMPDEST SWAP3 SWAP2 POP POP JUMP JUMPDEST PUSH1 0x0 PUSH1 0x20 DUP3 DUP5 SUB SLT ISZERO PUSH2 0x168F JUMPI PUSH2 0x168E PUSH2 0x13B1 JUMP JUMPDEST JUMPDEST PUSH1 0x0 PUSH2 0x169D DUP5 DUP3 DUP6 ADD PUSH2 0x13CD JUMP JUMPDEST SWAP2 POP POP SWAP3 SWAP2 POP POP JUMP JUMPDEST PUSH2 0x16AF DUP2 PUSH2 0x145A JUMP JUMPDEST DUP2 EQ PUSH2 0x16BA JUMPI PUSH1 0x0 DUP1 REVERT JUMPDEST POP JUMP JUMPDEST PUSH1 0x0 DUP2 CALLDATALOAD SWAP1 POP PUSH2 0x16CC DUP2 PUSH2 0x16A6 JUMP JUMPDEST SWAP3 SWAP2 POP POP JUMP JUMPDEST PUSH1 0x0 PUSH1 0x20 DUP3 DUP5 SUB SLT ISZERO PUSH2 0x16E8 JUMPI PUSH2 0x16E7 PUSH2 0x13B1 JUMP JUMPDEST JUMPDEST PUSH1 0x0 PUSH2 0x16F6 DUP5 DUP3 DUP6 ADD PUSH2 0x16BD JUMP JUMPDEST SWAP2 POP POP SWAP3 SWAP2 POP POP JUMP JUMPDEST PUSH1 0x0 DUP3 DUP3 MSTORE PUSH1 0x20 DUP3 ADD SWAP1 POP SWAP3 SWAP2 POP POP JUMP JUMPDEST PUSH32 0x54686520737461747573206F6620746865204344532073686F756C6420626520 PUSH1 0x0 DUP3 ADD MSTORE PUSH32 0x70656E64696E6700000000000000000000000000000000000000000000000000 PUSH1 0x20 DUP3 ADD MSTORE POP JUMP JUMPDEST PUSH1 0x0 PUSH2 0x176C PUSH1 0x27 DUP4 PUSH2 0x16FF JUMP JUMPDEST SWAP2 POP PUSH2 0x1777 DUP3 PUSH2 0x1710 JUMP JUMPDEST PUSH1 0x40 DUP3 ADD SWAP1 POP SWAP2 SWAP1 POP JUMP JUMPDEST PUSH1 0x0 PUSH1 0x20 DUP3 ADD SWAP1 POP DUP2 DUP2 SUB PUSH1 0x0 DUP4 ADD MSTORE PUSH2 0x179B DUP2 PUSH2 0x175F JUMP JUMPDEST SWAP1 POP SWAP2 SWAP1 POP JUMP JUMPDEST PUSH32 0x4E487B7100000000000000000000000000000000000000000000000000000000 PUSH1 0x0 MSTORE PUSH1 0x11 PUSH1 0x4 MSTORE PUSH1 0x24 PUSH1 0x0 REVERT JUMPDEST PUSH1 0x0 PUSH2 0x17DC DUP3 PUSH2 0x12EB JUMP JUMPDEST SWAP2 POP PUSH2 0x17E7 DUP4 PUSH2 0x12EB JUMP JUMPDEST SWAP3 POP DUP3 PUSH32 0xFFFFFFFFFFFFFFFFFFFFFFFFFFFFFFFFFFFFFFFFFFFFFFFFFFFFFFFFFFFFFFFF SUB DUP3 GT ISZERO PUSH2 0x181C JUMPI PUSH2 0x181B PUSH2 0x17A2 JUMP JUMPDEST JUMPDEST DUP3 DUP3 ADD SWAP1 POP SWAP3 SWAP2 POP POP JUMP JUMPDEST PUSH1 0x0 PUSH2 0x1832 DUP3 PUSH2 0x145A JUMP JUMPDEST SWAP2 POP PUSH2 0x183D DUP4 PUSH2 0x145A JUMP JUMPDEST SWAP3 POP DUP3 DUP3 LT ISZERO PUSH2 0x1850 JUMPI PUSH2 0x184F PUSH2 0x17A2 JUMP JUMPDEST JUMPDEST DUP3 DUP3 SUB SWAP1 POP SWAP3 SWAP2 POP POP JUMP JUMPDEST PUSH32 0x54686520737461747573206F6620746865204344532073686F756C6420626520 PUSH1 0x0 DUP3 ADD MSTORE PUSH32 0x6163746976650000000000000000000000000000000000000000000000000000 PUSH1 0x20 DUP3 ADD MSTORE POP JUMP JUMPDEST PUSH1 0x0 PUSH2 0x18B7 PUSH1 0x26 DUP4 PUSH2 0x16FF JUMP JUMPDEST SWAP2 POP PUSH2 0x18C2 DUP3 PUSH2 0x185B JUMP JUMPDEST PUSH1 0x40 DUP3 ADD SWAP1 POP SWAP2 SWAP1 POP JUMP JUMPDEST PUSH1 0x0 PUSH1 0x20 DUP3 ADD SWAP1 POP DUP2 DUP2 SUB PUSH1 0x0 DUP4 ADD MSTORE PUSH2 0x18E6 DUP2 PUSH2 0x18AA JUMP JUMPDEST SWAP1 POP SWAP2 SWAP1 POP JUMP JUMPDEST PUSH32 0x43757272656E7420707269636520697320686967686572207468616E20746865 PUSH1 0x0 DUP3 ADD MSTORE PUSH32 0x20636C61696D20707269636520696E2043445300000000000000000000000000 PUSH1 0x20 DUP3 ADD MSTORE POP JUMP JUMPDEST PUSH1 0x0 PUSH2 0x1949 PUSH1 0x33 DUP4 PUSH2 0x16FF JUMP JUMPDEST SWAP2 POP PUSH2 0x1954 DUP3 PUSH2 0x18ED JUMP JUMPDEST PUSH1 0x40 DUP3 ADD SWAP1 POP SWAP2 SWAP1 POP JUMP JUMPDEST PUSH1 0x0 PUSH1 0x20 DUP3 ADD SWAP1 POP DUP2 DUP2 SUB PUSH1 0x0 DUP4 ADD MSTORE PUSH2 0x1978 DUP2 PUSH2 0x193C JUMP JUMPDEST SWAP1 POP SWAP2 SWAP1 POP JUMP JUMPDEST PUSH32 0x526F756E6420616C726561647920656E64656400000000000000000000000000 PUSH1 0x0 DUP3 ADD MSTORE POP JUMP JUMPDEST PUSH1 0x0 PUSH2 0x19B5 PUSH1 0x13 DUP4 PUSH2 0x16FF JUMP JUMPDEST SWAP2 POP PUSH2 0x19C0 DUP3 PUSH2 0x197F JUMP JUMPDEST PUSH1 0x20 DUP3 ADD SWAP1 POP SWAP2 SWAP1 POP JUMP JUMPDEST PUSH1 0x0 PUSH1 0x20 DUP3 ADD SWAP1 POP DUP2 DUP2 SUB PUSH1 0x0 DUP4 ADD MSTORE PUSH2 0x19E4 DUP2 PUSH2 0x19A8 JUMP JUMPDEST SWAP1 POP SWAP2 SWAP1 POP JUMP JUMPDEST PUSH1 0x0 DUP2 MLOAD SWAP1 POP PUSH2 0x19FA DUP2 PUSH2 0x13B6 JUMP JUMPDEST SWAP3 SWAP2 POP POP JUMP JUMPDEST PUSH1 0x0 PUSH1 0x20 DUP3 DUP5 SUB SLT ISZERO PUSH2 0x1A16 JUMPI PUSH2 0x1A15 PUSH2 0x13B1 JUMP JUMPDEST JUMPDEST PUSH1 0x0 PUSH2 0x1A24 DUP5 DUP3 DUP6 ADD PUSH2 0x19EB JUMP JUMPDEST SWAP2 POP POP SWAP3 SWAP2 POP POP JUMP JUMPDEST PUSH32 0x4F776E61626C653A206E6577206F776E657220697320746865207A65726F2061 PUSH1 0x0 DUP3 ADD MSTORE PUSH32 0x6464726573730000000000000000000000000000000000000000000000000000 PUSH1 0x20 DUP3 ADD MSTORE POP JUMP JUMPDEST PUSH1 0x0 PUSH2 0x1A89 PUSH1 0x26 DUP4 PUSH2 0x16FF JUMP JUMPDEST SWAP2 POP PUSH2 0x1A94 DUP3 PUSH2 0x1A2D JUMP JUMPDEST PUSH1 0x40 DUP3 ADD SWAP1 POP SWAP2 SWAP1 POP JUMP JUMPDEST PUSH1 0x0 PUSH1 0x20 DUP3 ADD SWAP1 POP DUP2 DUP2 SUB PUSH1 0x0 DUP4 ADD MSTORE PUSH2 0x1AB8 DUP2 PUSH2 0x1A7C JUMP JUMPDEST SWAP1 POP SWAP2 SWAP1 POP JUMP JUMPDEST PUSH32 0x4F776E61626C653A2063616C6C6572206973206E6F7420746865206F776E6572 PUSH1 0x0 DUP3 ADD MSTORE POP JUMP JUMPDEST PUSH1 0x0 PUSH2 0x1AF5 PUSH1 0x20 DUP4 PUSH2 0x16FF JUMP JUMPDEST SWAP2 POP PUSH2 0x1B00 DUP3 PUSH2 0x1ABF JUMP JUMPDEST PUSH1 0x20 DUP3 ADD SWAP1 POP SWAP2 SWAP1 POP JUMP JUMPDEST PUSH1 0x0 PUSH1 0x20 DUP3 ADD SWAP1 POP DUP2 DUP2 SUB PUSH1 0x0 DUP4 ADD MSTORE PUSH2 0x1B24 DUP2 PUSH2 0x1AE8 JUMP JUMPDEST SWAP1 POP SWAP2 SWAP1 POP JUMP JUMPDEST PUSH32 0x4E487B7100000000000000000000000000000000000000000000000000000000 PUSH1 0x0 MSTORE PUSH1 0x12 PUSH1 0x4 MSTORE PUSH1 0x24 PUSH1 0x0 REVERT JUMPDEST PUSH1 0x0 PUSH2 0x1B65 DUP3 PUSH2 0x12EB JUMP JUMPDEST SWAP2 POP PUSH2 0x1B70 DUP4 PUSH2 0x12EB JUMP JUMPDEST SWAP3 POP DUP3 PUSH2 0x1B80 JUMPI PUSH2 0x1B7F PUSH2 0x1B2B JUMP JUMPDEST JUMPDEST DUP3 DUP3 DIV SWAP1 POP SWAP3 SWAP2 POP POP JUMP JUMPDEST PUSH1 0x0 PUSH2 0x1B96 DUP3 PUSH2 0x12EB JUMP JUMPDEST SWAP2 POP PUSH2 0x1BA1 DUP4 PUSH2 0x12EB JUMP JUMPDEST SWAP3 POP DUP3 DUP3 LT ISZERO PUSH2 0x1BB4 JUMPI PUSH2 0x1BB3 PUSH2 0x17A2 JUMP JUMPDEST JUMPDEST DUP3 DUP3 SUB SWAP1 POP SWAP3 SWAP2 POP POP JUMP JUMPDEST PUSH1 0x0 PUSH2 0x1BCA DUP3 PUSH2 0x12EB JUMP JUMPDEST SWAP2 POP PUSH2 0x1BD5 DUP4 PUSH2 0x12EB JUMP JUMPDEST SWAP3 POP DUP2 PUSH32 0xFFFFFFFFFFFFFFFFFFFFFFFFFFFFFFFFFFFFFFFFFFFFFFFFFFFFFFFFFFFFFFFF DIV DUP4 GT DUP3 ISZERO ISZERO AND ISZERO PUSH2 0x1C0E JUMPI PUSH2 0x1C0D PUSH2 0x17A2 JUMP JUMPDEST JUMPDEST DUP3 DUP3 MUL SWAP1 POP SWAP3 SWAP2 POP POP JUMP INVALID LOG2 PUSH5 0x6970667358 0x22 SLT KECCAK256 0xC 0xA7 0xD2 SGT 0x2E 0xB9 0x1E 0xBC PUSH12 0x122ADD36941A571E685CB37 PUSH19 0xE5CEFE11162925CDF0A964736F6C634300080A STOP CALLER "
				},
				"gasEstimates": {
					"creation": {
						"codeDepositCost": "1449400",
						"executionCost": "infinite",
						"totalCost": "infinite"
					},
					"external": {
						"accept(uint256,bool)": "infinite",
						"assetType()": "2567",
						"cancel()": "infinite",
						"checkPayDatePassed()": "4824",
						"checkRoundsZero()": "4912",
						"claim()": "infinite",
						"claimPrice()": "2476",
						"close()": "infinite",
						"getAmountOfAsset()": "infinite",
						"getBuyer()": "2590",
						"getClaimReward()": "infinite",
						"getCurrPrice(uint32)": "infinite",
						"getPrices()": "infinite",
						"getSeller()": "2567",
						"initAssetPrice()": "2474",
						"liquidationPrice()": "2497",
						"nextPayDate()": "2540",
						"owner()": "2611",
						"premium()": "2496",
						"premiumPaid()": "infinite",
						"renounceOwnership()": "30488",
						"rounds()": "2632",
						"sellerDeposit()": "2519",
						"setBuyer(address)": "infinite",
						"setInitAssetPrice(uint256)": "infinite",
						"setParticipants(address,bool)": "infinite",
						"setSeller(address)": "infinite",
						"status()": "2679",
						"totalRounds()": "2588",
						"transferOwnership(address)": "30813"
					},
					"internal": {
						"setNextPayDate()": "infinite",
						"setRounds(uint32)": "infinite",
						"setStatus(enum CDS.Status)": "infinite"
					}
				},
				"methodIdentifiers": {
					"accept(uint256,bool)": "3b41e19c",
					"assetType()": "3fe3347a",
					"cancel()": "ea8a1af0",
					"checkPayDatePassed()": "839966af",
					"checkRoundsZero()": "ffd0e69f",
					"claim()": "4e71d92d",
					"claimPrice()": "15d655c9",
					"close()": "43d726d6",
					"getAmountOfAsset()": "fcb341df",
					"getBuyer()": "603daf9a",
					"getClaimReward()": "f26cc58e",
					"getCurrPrice(uint32)": "cbed2449",
					"getPrices()": "bd9a548b",
					"getSeller()": "dbd0e1b6",
					"initAssetPrice()": "86be75b7",
					"liquidationPrice()": "b6fc2d5f",
					"nextPayDate()": "d8683798",
					"owner()": "8da5cb5b",
					"premium()": "e0a73a93",
					"premiumPaid()": "5b6a251b",
					"renounceOwnership()": "715018a6",
					"rounds()": "a2e800ad",
					"sellerDeposit()": "4c1786ea",
					"setBuyer(address)": "a3f09ad6",
					"setInitAssetPrice(uint256)": "bef904e3",
					"setParticipants(address,bool)": "bab215f8",
					"setSeller(address)": "e99d2866",
					"status()": "200d2ed2",
					"totalRounds()": "8a568299",
					"transferOwnership(address)": "f2fde38b"
				}
			},
			"storageLayout": {
				"storage": [
					{
						"astId": 7,
						"contract": "contracts/CDS/CDS.sol:CDS",
						"label": "_owner",
						"offset": 0,
						"slot": "0",
						"type": "t_address"
					},
					{
						"astId": 936,
						"contract": "contracts/CDS/CDS.sol:CDS",
						"label": "priceOracle",
						"offset": 0,
						"slot": "1",
						"type": "t_contract(PriceOracleMock)1077"
					},
					{
						"astId": 462,
						"contract": "contracts/CDS/CDS.sol:CDS",
						"label": "priceOracle",
						"offset": 0,
						"slot": "2",
						"type": "t_contract(PriceOracleMock)1077"
					},
					{
						"astId": 471,
						"contract": "contracts/CDS/CDS.sol:CDS",
						"label": "status",
						"offset": 20,
						"slot": "2",
						"type": "t_enum(Status)468"
					},
					{
						"astId": 473,
						"contract": "contracts/CDS/CDS.sol:CDS",
						"label": "initAssetPrice",
						"offset": 0,
						"slot": "3",
						"type": "t_uint256"
					},
					{
						"astId": 475,
						"contract": "contracts/CDS/CDS.sol:CDS",
						"label": "claimPrice",
						"offset": 0,
						"slot": "4",
						"type": "t_uint256"
					},
					{
						"astId": 477,
						"contract": "contracts/CDS/CDS.sol:CDS",
						"label": "liquidationPrice",
						"offset": 0,
						"slot": "5",
						"type": "t_uint256"
					},
					{
						"astId": 479,
						"contract": "contracts/CDS/CDS.sol:CDS",
						"label": "premium",
						"offset": 0,
						"slot": "6",
						"type": "t_uint256"
					},
					{
						"astId": 481,
						"contract": "contracts/CDS/CDS.sol:CDS",
						"label": "sellerDeposit",
						"offset": 0,
						"slot": "7",
						"type": "t_uint256"
					},
					{
						"astId": 483,
						"contract": "contracts/CDS/CDS.sol:CDS",
						"label": "nextPayDate",
						"offset": 0,
						"slot": "8",
						"type": "t_uint256"
					},
					{
						"astId": 485,
						"contract": "contracts/CDS/CDS.sol:CDS",
						"label": "buyer",
						"offset": 0,
						"slot": "9",
						"type": "t_address"
					},
					{
						"astId": 487,
						"contract": "contracts/CDS/CDS.sol:CDS",
						"label": "seller",
						"offset": 0,
						"slot": "10",
						"type": "t_address"
					},
					{
						"astId": 489,
						"contract": "contracts/CDS/CDS.sol:CDS",
						"label": "rounds",
						"offset": 20,
						"slot": "10",
						"type": "t_uint32"
					},
					{
						"astId": 491,
						"contract": "contracts/CDS/CDS.sol:CDS",
						"label": "totalRounds",
						"offset": 24,
						"slot": "10",
						"type": "t_uint32"
					},
					{
						"astId": 493,
						"contract": "contracts/CDS/CDS.sol:CDS",
						"label": "assetType",
						"offset": 28,
						"slot": "10",
						"type": "t_uint32"
					}
				],
				"types": {
					"t_address": {
						"encoding": "inplace",
						"label": "address",
						"numberOfBytes": "20"
					},
					"t_contract(PriceOracleMock)1077": {
						"encoding": "inplace",
						"label": "contract PriceOracleMock",
						"numberOfBytes": "20"
					},
					"t_enum(Status)468": {
						"encoding": "inplace",
						"label": "enum CDS.Status",
						"numberOfBytes": "1"
					},
					"t_uint256": {
						"encoding": "inplace",
						"label": "uint256",
						"numberOfBytes": "32"
					},
					"t_uint32": {
						"encoding": "inplace",
						"label": "uint32",
						"numberOfBytes": "4"
					}
				}
			},
			"userdoc": {
				"kind": "user",
				"methods": {},
				"version": 1
			}
		}
	}
}