{
	"contracts/CDS/CDS.sol": {
		"CDS": {
			"abi": [
				{
					"inputs": [
						{
							"internalType": "uint256",
							"name": "_initAssetPrice",
							"type": "uint256"
						},
						{
							"internalType": "uint256",
							"name": "_claimPrice",
							"type": "uint256"
						},
						{
							"internalType": "uint256",
							"name": "_liquidationPrice",
							"type": "uint256"
						},
						{
							"internalType": "uint256",
							"name": "_premium",
							"type": "uint256"
						},
						{
							"internalType": "uint256",
							"name": "_sellerDeposit",
							"type": "uint256"
						},
						{
							"internalType": "uint32",
							"name": "_rounds",
							"type": "uint32"
						},
						{
							"internalType": "uint32",
							"name": "_assetType",
							"type": "uint32"
						}
					],
					"stateMutability": "nonpayable",
					"type": "constructor"
				},
				{
					"anonymous": false,
					"inputs": [
						{
							"indexed": true,
							"internalType": "address",
							"name": "previousOwner",
							"type": "address"
						},
						{
							"indexed": true,
							"internalType": "address",
							"name": "newOwner",
							"type": "address"
						}
					],
					"name": "OwnershipTransferred",
					"type": "event"
				},
				{
					"inputs": [
						{
							"internalType": "uint256",
							"name": "_initAssetPrice",
							"type": "uint256"
						},
						{
							"internalType": "address",
							"name": "msgSender",
							"type": "address"
						},
						{
							"internalType": "bool",
							"name": "_isBuyerHost",
							"type": "bool"
						}
					],
					"name": "accept",
					"outputs": [],
					"stateMutability": "nonpayable",
					"type": "function"
				},
				{
					"inputs": [],
					"name": "assetType",
					"outputs": [
						{
							"internalType": "uint32",
							"name": "",
							"type": "uint32"
						}
					],
					"stateMutability": "view",
					"type": "function"
				},
				{
					"inputs": [],
					"name": "cancel",
					"outputs": [],
					"stateMutability": "nonpayable",
					"type": "function"
				},
				{
					"inputs": [],
					"name": "checkPayDatePassed",
					"outputs": [
						{
							"internalType": "bool",
							"name": "",
							"type": "bool"
						}
					],
					"stateMutability": "view",
					"type": "function"
				},
				{
					"inputs": [],
					"name": "checkRoundsZero",
					"outputs": [
						{
							"internalType": "bool",
							"name": "",
							"type": "bool"
						}
					],
					"stateMutability": "view",
					"type": "function"
				},
				{
					"inputs": [],
					"name": "claim",
					"outputs": [],
					"stateMutability": "nonpayable",
					"type": "function"
				},
				{
					"inputs": [],
					"name": "claimPrice",
					"outputs": [
						{
							"internalType": "uint256",
							"name": "",
							"type": "uint256"
						}
					],
					"stateMutability": "view",
					"type": "function"
				},
				{
					"inputs": [],
					"name": "close",
					"outputs": [],
					"stateMutability": "nonpayable",
					"type": "function"
				},
				{
					"inputs": [],
					"name": "getAmountOfAsset",
					"outputs": [
						{
							"internalType": "uint256",
							"name": "",
							"type": "uint256"
						}
					],
					"stateMutability": "view",
					"type": "function"
				},
				{
					"inputs": [],
					"name": "getBuyer",
					"outputs": [
						{
							"internalType": "address",
							"name": "",
							"type": "address"
						}
					],
					"stateMutability": "view",
					"type": "function"
				},
				{
					"inputs": [],
					"name": "getClaimReward",
					"outputs": [
						{
							"internalType": "uint256",
							"name": "",
							"type": "uint256"
						}
					],
					"stateMutability": "view",
					"type": "function"
				},
				{
					"inputs": [
						{
							"internalType": "uint32",
							"name": "_assetType",
							"type": "uint32"
						}
					],
					"name": "getCurrPrice",
					"outputs": [
						{
							"internalType": "uint256",
							"name": "",
							"type": "uint256"
						}
					],
					"stateMutability": "view",
					"type": "function"
				},
				{
					"inputs": [],
					"name": "getPrices",
					"outputs": [
						{
							"internalType": "uint256[5]",
							"name": "",
							"type": "uint256[5]"
						}
					],
					"stateMutability": "view",
					"type": "function"
				},
				{
					"inputs": [],
					"name": "getSeller",
					"outputs": [
						{
							"internalType": "address",
							"name": "",
							"type": "address"
						}
					],
					"stateMutability": "view",
					"type": "function"
				},
				{
					"inputs": [],
					"name": "initAssetPrice",
					"outputs": [
						{
							"internalType": "uint256",
							"name": "",
							"type": "uint256"
						}
					],
					"stateMutability": "view",
					"type": "function"
				},
				{
					"inputs": [],
					"name": "liquidationPrice",
					"outputs": [
						{
							"internalType": "uint256",
							"name": "",
							"type": "uint256"
						}
					],
					"stateMutability": "view",
					"type": "function"
				},
				{
					"inputs": [],
					"name": "nextPayDate",
					"outputs": [
						{
							"internalType": "uint256",
							"name": "",
							"type": "uint256"
						}
					],
					"stateMutability": "view",
					"type": "function"
				},
				{
					"inputs": [],
					"name": "owner",
					"outputs": [
						{
							"internalType": "address",
							"name": "",
							"type": "address"
						}
					],
					"stateMutability": "view",
					"type": "function"
				},
				{
					"inputs": [],
					"name": "premium",
					"outputs": [
						{
							"internalType": "uint256",
							"name": "",
							"type": "uint256"
						}
					],
					"stateMutability": "view",
					"type": "function"
				},
				{
					"inputs": [],
					"name": "premiumPaid",
					"outputs": [],
					"stateMutability": "nonpayable",
					"type": "function"
				},
				{
					"inputs": [],
					"name": "renounceOwnership",
					"outputs": [],
					"stateMutability": "nonpayable",
					"type": "function"
				},
				{
					"inputs": [],
					"name": "rounds",
					"outputs": [
						{
							"internalType": "uint32",
							"name": "",
							"type": "uint32"
						}
					],
					"stateMutability": "view",
					"type": "function"
				},
				{
					"inputs": [],
					"name": "sellerDeposit",
					"outputs": [
						{
							"internalType": "uint256",
							"name": "",
							"type": "uint256"
						}
					],
					"stateMutability": "view",
					"type": "function"
				},
				{
					"inputs": [
						{
							"internalType": "address",
							"name": "_buyer",
							"type": "address"
						}
					],
					"name": "setBuyer",
					"outputs": [
						{
							"internalType": "address",
							"name": "",
							"type": "address"
						}
					],
					"stateMutability": "nonpayable",
					"type": "function"
				},
				{
					"inputs": [
						{
							"internalType": "uint256",
							"name": "_initAssetPrice",
							"type": "uint256"
						}
					],
					"name": "setInitAssetPrice",
					"outputs": [
						{
							"internalType": "uint256",
							"name": "",
							"type": "uint256"
						}
					],
					"stateMutability": "nonpayable",
					"type": "function"
				},
				{
					"inputs": [
						{
							"internalType": "address",
							"name": "_participants",
							"type": "address"
						},
						{
							"internalType": "bool",
							"name": "_isBuyer",
							"type": "bool"
						}
					],
					"name": "setParticipants",
					"outputs": [],
					"stateMutability": "nonpayable",
					"type": "function"
				},
				{
					"inputs": [
						{
							"internalType": "address",
							"name": "_seller",
							"type": "address"
						}
					],
					"name": "setSeller",
					"outputs": [
						{
							"internalType": "address",
							"name": "",
							"type": "address"
						}
					],
					"stateMutability": "nonpayable",
					"type": "function"
				},
				{
					"inputs": [],
					"name": "status",
					"outputs": [
						{
							"internalType": "enum CDS.Status",
							"name": "",
							"type": "uint8"
						}
					],
					"stateMutability": "view",
					"type": "function"
				},
				{
					"inputs": [],
					"name": "totalRounds",
					"outputs": [
						{
							"internalType": "uint32",
							"name": "",
							"type": "uint32"
						}
					],
					"stateMutability": "view",
					"type": "function"
				},
				{
					"inputs": [
						{
							"internalType": "address",
							"name": "newOwner",
							"type": "address"
						}
					],
					"name": "transferOwnership",
					"outputs": [],
					"stateMutability": "nonpayable",
					"type": "function"
				}
			],
			"devdoc": {
				"kind": "dev",
				"methods": {
					"owner()": {
						"details": "Returns the address of the current owner."
					},
					"renounceOwnership()": {
						"details": "Leaves the contract without owner. It will not be possible to call `onlyOwner` functions anymore. Can only be called by the current owner. NOTE: Renouncing ownership will leave the contract without an owner, thereby removing any functionality that is only available to the owner."
					},
					"transferOwnership(address)": {
						"details": "Transfers ownership of the contract to a new account (`newOwner`). Can only be called by the current owner."
					}
				},
				"version": 1
			},
			"evm": {
				"assembly": "    /* \"contracts/CDS/CDS.sol\":208:4564  contract CDS is... */\n  mstore(0x40, 0x80)\n    /* \"contracts/CDS/CDS.sol\":795:1431  constructor(... */\n  callvalue\n  dup1\n  iszero\n  tag_1\n  jumpi\n  0x00\n  dup1\n  revert\ntag_1:\n  pop\n  mload(0x40)\n  sub(codesize, bytecodeSize)\n  dup1\n  bytecodeSize\n  dup4\n  codecopy\n  dup2\n  dup2\n  add\n  0x40\n  mstore\n  dup2\n  add\n  swap1\n  tag_2\n  swap2\n  swap1\n  tag_3\n  jump\t// in\ntag_2:\n    /* \"contracts/CDS/CDS.sol\":251:293  0x2ABDf4a7aD585EffCc16b61643e058130b1311b8 */\n  0x2abdf4a7ad585effcc16b61643e058130b1311b8\n    /* \"@openzeppelin/contracts/access/Ownable.sol\":936:968  _transferOwnership(_msgSender()) */\n  tag_8\n    /* \"@openzeppelin/contracts/access/Ownable.sol\":955:967  _msgSender() */\n  tag_9\n    /* \"@openzeppelin/contracts/access/Ownable.sol\":955:965  _msgSender */\n  shl(0x20, tag_10)\n    /* \"@openzeppelin/contracts/access/Ownable.sol\":955:967  _msgSender() */\n  0x20\n  shr\n  jump\t// in\ntag_9:\n    /* \"@openzeppelin/contracts/access/Ownable.sol\":936:954  _transferOwnership */\n  shl(0x20, tag_11)\n    /* \"@openzeppelin/contracts/access/Ownable.sol\":936:968  _transferOwnership(_msgSender()) */\n  0x20\n  shr\n  jump\t// in\ntag_8:\n    /* \"contracts/CDS/PriceConsumer.sol\":321:329  _address */\n  dup1\n    /* \"contracts/CDS/PriceConsumer.sol\":291:302  priceOracle */\n  0x01\n  0x00\n    /* \"contracts/CDS/PriceConsumer.sol\":291:330  priceOracle = PriceOracleMock(_address) */\n  0x0100\n  exp\n  dup2\n  sload\n  dup2\n  0xffffffffffffffffffffffffffffffffffffffff\n  mul\n  not\n  and\n  swap1\n  dup4\n  0xffffffffffffffffffffffffffffffffffffffff\n  and\n  mul\n  or\n  swap1\n  sstore\n  pop\n    /* \"contracts/CDS/PriceConsumer.sol\":255:335  constructor(address _address) {... */\n  pop\n    /* \"contracts/CDS/CDS.sol\":1012:1027  _initAssetPrice */\n  dup7\n    /* \"contracts/CDS/CDS.sol\":995:1009  initAssetPrice */\n  0x03\n    /* \"contracts/CDS/CDS.sol\":995:1027  initAssetPrice = _initAssetPrice */\n  dup2\n  swap1\n  sstore\n  pop\n    /* \"contracts/CDS/CDS.sol\":1046:1057  _claimPrice */\n  dup6\n    /* \"contracts/CDS/CDS.sol\":1033:1043  claimPrice */\n  0x04\n    /* \"contracts/CDS/CDS.sol\":1033:1057  claimPrice = _claimPrice */\n  dup2\n  swap1\n  sstore\n  pop\n    /* \"contracts/CDS/CDS.sol\":1082:1099  _liquidationPrice */\n  dup5\n    /* \"contracts/CDS/CDS.sol\":1063:1079  liquidationPrice */\n  0x05\n    /* \"contracts/CDS/CDS.sol\":1063:1099  liquidationPrice = _liquidationPrice */\n  dup2\n  swap1\n  sstore\n  pop\n    /* \"contracts/CDS/CDS.sol\":1115:1123  _premium */\n  dup4\n    /* \"contracts/CDS/CDS.sol\":1105:1112  premium */\n  0x06\n    /* \"contracts/CDS/CDS.sol\":1105:1123  premium = _premium */\n  dup2\n  swap1\n  sstore\n  pop\n    /* \"contracts/CDS/CDS.sol\":1145:1159  _sellerDeposit */\n  dup3\n    /* \"contracts/CDS/CDS.sol\":1129:1142  sellerDeposit */\n  0x07\n    /* \"contracts/CDS/CDS.sol\":1129:1159  sellerDeposit = _sellerDeposit */\n  dup2\n  swap1\n  sstore\n  pop\n    /* \"contracts/CDS/CDS.sol\":1174:1181  _rounds */\n  dup2\n    /* \"contracts/CDS/CDS.sol\":1165:1171  rounds */\n  0x0a\n  0x14\n    /* \"contracts/CDS/CDS.sol\":1165:1181  rounds = _rounds */\n  0x0100\n  exp\n  dup2\n  sload\n  dup2\n  0xffffffff\n  mul\n  not\n  and\n  swap1\n  dup4\n  0xffffffff\n  and\n  mul\n  or\n  swap1\n  sstore\n  pop\n    /* \"contracts/CDS/CDS.sol\":1201:1208  _rounds */\n  dup2\n    /* \"contracts/CDS/CDS.sol\":1187:1198  totalRounds */\n  0x0a\n  0x18\n    /* \"contracts/CDS/CDS.sol\":1187:1208  totalRounds = _rounds */\n  0x0100\n  exp\n  dup2\n  sload\n  dup2\n  0xffffffff\n  mul\n  not\n  and\n  swap1\n  dup4\n  0xffffffff\n  and\n  mul\n  or\n  swap1\n  sstore\n  pop\n    /* \"contracts/CDS/CDS.sol\":1244:1245  0 */\n  0x00\n    /* \"contracts/CDS/CDS.sol\":1230:1240  _assetType */\n  dup2\n    /* \"contracts/CDS/CDS.sol\":1230:1245  _assetType == 0 */\n  0xffffffff\n  and\n  eq\n    /* \"contracts/CDS/CDS.sol\":1230:1264  _assetType == 0 || _assetType == 1 */\n  dup1\n  tag_14\n  jumpi\n  pop\n    /* \"contracts/CDS/CDS.sol\":1263:1264  1 */\n  0x01\n    /* \"contracts/CDS/CDS.sol\":1249:1259  _assetType */\n  dup2\n    /* \"contracts/CDS/CDS.sol\":1249:1264  _assetType == 1 */\n  0xffffffff\n  and\n  eq\n    /* \"contracts/CDS/CDS.sol\":1230:1264  _assetType == 0 || _assetType == 1 */\ntag_14:\n    /* \"contracts/CDS/CDS.sol\":1230:1283  _assetType == 0 || _assetType == 1 || _assetType == 2 */\n  dup1\n  tag_15\n  jumpi\n  pop\n    /* \"contracts/CDS/CDS.sol\":1282:1283  2 */\n  0x02\n    /* \"contracts/CDS/CDS.sol\":1268:1278  _assetType */\n  dup2\n    /* \"contracts/CDS/CDS.sol\":1268:1283  _assetType == 2 */\n  0xffffffff\n  and\n  eq\n    /* \"contracts/CDS/CDS.sol\":1230:1283  _assetType == 0 || _assetType == 1 || _assetType == 2 */\ntag_15:\n    /* \"contracts/CDS/CDS.sol\":1215:1319  require(... */\n  tag_16\n  jumpi\n  mload(0x40)\n  0x08c379a000000000000000000000000000000000000000000000000000000000\n  dup2\n  mstore\n  0x04\n  add\n  tag_17\n  swap1\n  tag_18\n  jump\t// in\ntag_17:\n  mload(0x40)\n  dup1\n  swap2\n  sub\n  swap1\n  revert\ntag_16:\n    /* \"contracts/CDS/CDS.sol\":1337:1347  _assetType */\n  dup1\n    /* \"contracts/CDS/CDS.sol\":1325:1334  assetType */\n  0x0a\n  0x1c\n    /* \"contracts/CDS/CDS.sol\":1325:1347  assetType = _assetType */\n  0x0100\n  exp\n  dup2\n  sload\n  dup2\n  0xffffffff\n  mul\n  not\n  and\n  swap1\n  dup4\n  0xffffffff\n  and\n  mul\n  or\n  swap1\n  sstore\n  pop\n    /* \"contracts/CDS/CDS.sol\":1370:1371  0 */\n  0x00\n    /* \"contracts/CDS/CDS.sol\":1354:1359  buyer */\n  0x09\n  0x00\n    /* \"contracts/CDS/CDS.sol\":1354:1372  buyer = address(0) */\n  0x0100\n  exp\n  dup2\n  sload\n  dup2\n  0xffffffffffffffffffffffffffffffffffffffff\n  mul\n  not\n  and\n  swap1\n  dup4\n  0xffffffffffffffffffffffffffffffffffffffff\n  and\n  mul\n  or\n  swap1\n  sstore\n  pop\n    /* \"contracts/CDS/CDS.sol\":1395:1396  0 */\n  0x00\n    /* \"contracts/CDS/CDS.sol\":1378:1384  seller */\n  0x0a\n  0x00\n    /* \"contracts/CDS/CDS.sol\":1378:1397  seller = address(0) */\n  0x0100\n  exp\n  dup2\n  sload\n  dup2\n  0xffffffffffffffffffffffffffffffffffffffff\n  mul\n  not\n  and\n  swap1\n  dup4\n  0xffffffffffffffffffffffffffffffffffffffff\n  and\n  mul\n  or\n  swap1\n  sstore\n  pop\n    /* \"contracts/CDS/CDS.sol\":1412:1426  Status.pending */\n  0x01\n    /* \"contracts/CDS/CDS.sol\":1403:1409  status */\n  0x02\n  0x14\n    /* \"contracts/CDS/CDS.sol\":1403:1426  status = Status.pending */\n  0x0100\n  exp\n  dup2\n  sload\n  dup2\n  0xff\n  mul\n  not\n  and\n  swap1\n  dup4\n  0x04\n  dup2\n  gt\n  iszero\n  tag_19\n  jumpi\n  tag_20\n  tag_21\n  jump\t// in\ntag_20:\ntag_19:\n  mul\n  or\n  swap1\n  sstore\n  pop\n    /* \"contracts/CDS/CDS.sol\":795:1431  constructor(... */\n  pop\n  pop\n  pop\n  pop\n  pop\n  pop\n  pop\n    /* \"contracts/CDS/CDS.sol\":208:4564  contract CDS is... */\n  jump(tag_22)\n    /* \"@openzeppelin/contracts/utils/Context.sol\":640:736  function _msgSender() internal view virtual returns (address) {... */\ntag_10:\n    /* \"@openzeppelin/contracts/utils/Context.sol\":693:700  address */\n  0x00\n    /* \"@openzeppelin/contracts/utils/Context.sol\":719:729  msg.sender */\n  caller\n    /* \"@openzeppelin/contracts/utils/Context.sol\":712:729  return msg.sender */\n  swap1\n  pop\n    /* \"@openzeppelin/contracts/utils/Context.sol\":640:736  function _msgSender() internal view virtual returns (address) {... */\n  swap1\n  jump\t// out\n    /* \"@openzeppelin/contracts/access/Ownable.sol\":2433:2620  function _transferOwnership(address newOwner) internal virtual {... */\ntag_11:\n    /* \"@openzeppelin/contracts/access/Ownable.sol\":2506:2522  address oldOwner */\n  0x00\n    /* \"@openzeppelin/contracts/access/Ownable.sol\":2525:2531  _owner */\n  dup1\n  0x00\n  swap1\n  sload\n  swap1\n  0x0100\n  exp\n  swap1\n  div\n  0xffffffffffffffffffffffffffffffffffffffff\n  and\n    /* \"@openzeppelin/contracts/access/Ownable.sol\":2506:2531  address oldOwner = _owner */\n  swap1\n  pop\n    /* \"@openzeppelin/contracts/access/Ownable.sol\":2550:2558  newOwner */\n  dup2\n    /* \"@openzeppelin/contracts/access/Ownable.sol\":2541:2547  _owner */\n  0x00\n  dup1\n    /* \"@openzeppelin/contracts/access/Ownable.sol\":2541:2558  _owner = newOwner */\n  0x0100\n  exp\n  dup2\n  sload\n  dup2\n  0xffffffffffffffffffffffffffffffffffffffff\n  mul\n  not\n  and\n  swap1\n  dup4\n  0xffffffffffffffffffffffffffffffffffffffff\n  and\n  mul\n  or\n  swap1\n  sstore\n  pop\n    /* \"@openzeppelin/contracts/access/Ownable.sol\":2604:2612  newOwner */\n  dup2\n    /* \"@openzeppelin/contracts/access/Ownable.sol\":2573:2613  OwnershipTransferred(oldOwner, newOwner) */\n  0xffffffffffffffffffffffffffffffffffffffff\n  and\n    /* \"@openzeppelin/contracts/access/Ownable.sol\":2594:2602  oldOwner */\n  dup2\n    /* \"@openzeppelin/contracts/access/Ownable.sol\":2573:2613  OwnershipTransferred(oldOwner, newOwner) */\n  0xffffffffffffffffffffffffffffffffffffffff\n  and\n  0x8be0079c531659141344cd1fd0a4f28419497f9722a3daafe3b4186f6b6457e0\n  mload(0x40)\n  mload(0x40)\n  dup1\n  swap2\n  sub\n  swap1\n  log3\n    /* \"@openzeppelin/contracts/access/Ownable.sol\":2496:2620  {... */\n  pop\n    /* \"@openzeppelin/contracts/access/Ownable.sol\":2433:2620  function _transferOwnership(address newOwner) internal virtual {... */\n  pop\n  jump\t// out\n    /* \"#utility.yul\":88:205   */\ntag_26:\n    /* \"#utility.yul\":197:198   */\n  0x00\n    /* \"#utility.yul\":194:195   */\n  dup1\n    /* \"#utility.yul\":187:199   */\n  revert\n    /* \"#utility.yul\":334:411   */\ntag_28:\n    /* \"#utility.yul\":371:378   */\n  0x00\n    /* \"#utility.yul\":400:405   */\n  dup2\n    /* \"#utility.yul\":389:405   */\n  swap1\n  pop\n    /* \"#utility.yul\":334:411   */\n  swap2\n  swap1\n  pop\n  jump\t// out\n    /* \"#utility.yul\":417:539   */\ntag_29:\n    /* \"#utility.yul\":490:514   */\n  tag_43\n    /* \"#utility.yul\":508:513   */\n  dup2\n    /* \"#utility.yul\":490:514   */\n  tag_28\n  jump\t// in\ntag_43:\n    /* \"#utility.yul\":483:488   */\n  dup2\n    /* \"#utility.yul\":480:515   */\n  eq\n    /* \"#utility.yul\":470:533   */\n  tag_44\n  jumpi\n    /* \"#utility.yul\":529:530   */\n  0x00\n    /* \"#utility.yul\":526:527   */\n  dup1\n    /* \"#utility.yul\":519:531   */\n  revert\n    /* \"#utility.yul\":470:533   */\ntag_44:\n    /* \"#utility.yul\":417:539   */\n  pop\n  jump\t// out\n    /* \"#utility.yul\":545:688   */\ntag_30:\n    /* \"#utility.yul\":602:607   */\n  0x00\n    /* \"#utility.yul\":633:639   */\n  dup2\n    /* \"#utility.yul\":627:640   */\n  mload\n    /* \"#utility.yul\":618:640   */\n  swap1\n  pop\n    /* \"#utility.yul\":649:682   */\n  tag_46\n    /* \"#utility.yul\":676:681   */\n  dup2\n    /* \"#utility.yul\":649:682   */\n  tag_29\n  jump\t// in\ntag_46:\n    /* \"#utility.yul\":545:688   */\n  swap3\n  swap2\n  pop\n  pop\n  jump\t// out\n    /* \"#utility.yul\":694:787   */\ntag_31:\n    /* \"#utility.yul\":730:737   */\n  0x00\n    /* \"#utility.yul\":770:780   */\n  0xffffffff\n    /* \"#utility.yul\":763:768   */\n  dup3\n    /* \"#utility.yul\":759:781   */\n  and\n    /* \"#utility.yul\":748:781   */\n  swap1\n  pop\n    /* \"#utility.yul\":694:787   */\n  swap2\n  swap1\n  pop\n  jump\t// out\n    /* \"#utility.yul\":793:913   */\ntag_32:\n    /* \"#utility.yul\":865:888   */\n  tag_49\n    /* \"#utility.yul\":882:887   */\n  dup2\n    /* \"#utility.yul\":865:888   */\n  tag_31\n  jump\t// in\ntag_49:\n    /* \"#utility.yul\":858:863   */\n  dup2\n    /* \"#utility.yul\":855:889   */\n  eq\n    /* \"#utility.yul\":845:907   */\n  tag_50\n  jumpi\n    /* \"#utility.yul\":903:904   */\n  0x00\n    /* \"#utility.yul\":900:901   */\n  dup1\n    /* \"#utility.yul\":893:905   */\n  revert\n    /* \"#utility.yul\":845:907   */\ntag_50:\n    /* \"#utility.yul\":793:913   */\n  pop\n  jump\t// out\n    /* \"#utility.yul\":919:1060   */\ntag_33:\n    /* \"#utility.yul\":975:980   */\n  0x00\n    /* \"#utility.yul\":1006:1012   */\n  dup2\n    /* \"#utility.yul\":1000:1013   */\n  mload\n    /* \"#utility.yul\":991:1013   */\n  swap1\n  pop\n    /* \"#utility.yul\":1022:1054   */\n  tag_52\n    /* \"#utility.yul\":1048:1053   */\n  dup2\n    /* \"#utility.yul\":1022:1054   */\n  tag_32\n  jump\t// in\ntag_52:\n    /* \"#utility.yul\":919:1060   */\n  swap3\n  swap2\n  pop\n  pop\n  jump\t// out\n    /* \"#utility.yul\":1066:2353   */\ntag_3:\n    /* \"#utility.yul\":1188:1194   */\n  0x00\n    /* \"#utility.yul\":1196:1202   */\n  dup1\n    /* \"#utility.yul\":1204:1210   */\n  0x00\n    /* \"#utility.yul\":1212:1218   */\n  dup1\n    /* \"#utility.yul\":1220:1226   */\n  0x00\n    /* \"#utility.yul\":1228:1234   */\n  dup1\n    /* \"#utility.yul\":1236:1242   */\n  0x00\n    /* \"#utility.yul\":1285:1288   */\n  0xe0\n    /* \"#utility.yul\":1273:1282   */\n  dup9\n    /* \"#utility.yul\":1264:1271   */\n  dup11\n    /* \"#utility.yul\":1260:1283   */\n  sub\n    /* \"#utility.yul\":1256:1289   */\n  slt\n    /* \"#utility.yul\":1253:1373   */\n  iszero\n  tag_54\n  jumpi\n    /* \"#utility.yul\":1292:1371   */\n  tag_55\n  tag_26\n  jump\t// in\ntag_55:\n    /* \"#utility.yul\":1253:1373   */\ntag_54:\n    /* \"#utility.yul\":1412:1413   */\n  0x00\n    /* \"#utility.yul\":1437:1501   */\n  tag_56\n    /* \"#utility.yul\":1493:1500   */\n  dup11\n    /* \"#utility.yul\":1484:1490   */\n  dup3\n    /* \"#utility.yul\":1473:1482   */\n  dup12\n    /* \"#utility.yul\":1469:1491   */\n  add\n    /* \"#utility.yul\":1437:1501   */\n  tag_30\n  jump\t// in\ntag_56:\n    /* \"#utility.yul\":1427:1501   */\n  swap8\n  pop\n    /* \"#utility.yul\":1383:1511   */\n  pop\n    /* \"#utility.yul\":1550:1552   */\n  0x20\n    /* \"#utility.yul\":1576:1640   */\n  tag_57\n    /* \"#utility.yul\":1632:1639   */\n  dup11\n    /* \"#utility.yul\":1623:1629   */\n  dup3\n    /* \"#utility.yul\":1612:1621   */\n  dup12\n    /* \"#utility.yul\":1608:1630   */\n  add\n    /* \"#utility.yul\":1576:1640   */\n  tag_30\n  jump\t// in\ntag_57:\n    /* \"#utility.yul\":1566:1640   */\n  swap7\n  pop\n    /* \"#utility.yul\":1521:1650   */\n  pop\n    /* \"#utility.yul\":1689:1691   */\n  0x40\n    /* \"#utility.yul\":1715:1779   */\n  tag_58\n    /* \"#utility.yul\":1771:1778   */\n  dup11\n    /* \"#utility.yul\":1762:1768   */\n  dup3\n    /* \"#utility.yul\":1751:1760   */\n  dup12\n    /* \"#utility.yul\":1747:1769   */\n  add\n    /* \"#utility.yul\":1715:1779   */\n  tag_30\n  jump\t// in\ntag_58:\n    /* \"#utility.yul\":1705:1779   */\n  swap6\n  pop\n    /* \"#utility.yul\":1660:1789   */\n  pop\n    /* \"#utility.yul\":1828:1830   */\n  0x60\n    /* \"#utility.yul\":1854:1918   */\n  tag_59\n    /* \"#utility.yul\":1910:1917   */\n  dup11\n    /* \"#utility.yul\":1901:1907   */\n  dup3\n    /* \"#utility.yul\":1890:1899   */\n  dup12\n    /* \"#utility.yul\":1886:1908   */\n  add\n    /* \"#utility.yul\":1854:1918   */\n  tag_30\n  jump\t// in\ntag_59:\n    /* \"#utility.yul\":1844:1918   */\n  swap5\n  pop\n    /* \"#utility.yul\":1799:1928   */\n  pop\n    /* \"#utility.yul\":1967:1970   */\n  0x80\n    /* \"#utility.yul\":1994:2058   */\n  tag_60\n    /* \"#utility.yul\":2050:2057   */\n  dup11\n    /* \"#utility.yul\":2041:2047   */\n  dup3\n    /* \"#utility.yul\":2030:2039   */\n  dup12\n    /* \"#utility.yul\":2026:2048   */\n  add\n    /* \"#utility.yul\":1994:2058   */\n  tag_30\n  jump\t// in\ntag_60:\n    /* \"#utility.yul\":1984:2058   */\n  swap4\n  pop\n    /* \"#utility.yul\":1938:2068   */\n  pop\n    /* \"#utility.yul\":2107:2110   */\n  0xa0\n    /* \"#utility.yul\":2134:2197   */\n  tag_61\n    /* \"#utility.yul\":2189:2196   */\n  dup11\n    /* \"#utility.yul\":2180:2186   */\n  dup3\n    /* \"#utility.yul\":2169:2178   */\n  dup12\n    /* \"#utility.yul\":2165:2187   */\n  add\n    /* \"#utility.yul\":2134:2197   */\n  tag_33\n  jump\t// in\ntag_61:\n    /* \"#utility.yul\":2124:2197   */\n  swap3\n  pop\n    /* \"#utility.yul\":2078:2207   */\n  pop\n    /* \"#utility.yul\":2246:2249   */\n  0xc0\n    /* \"#utility.yul\":2273:2336   */\n  tag_62\n    /* \"#utility.yul\":2328:2335   */\n  dup11\n    /* \"#utility.yul\":2319:2325   */\n  dup3\n    /* \"#utility.yul\":2308:2317   */\n  dup12\n    /* \"#utility.yul\":2304:2326   */\n  add\n    /* \"#utility.yul\":2273:2336   */\n  tag_33\n  jump\t// in\ntag_62:\n    /* \"#utility.yul\":2263:2336   */\n  swap2\n  pop\n    /* \"#utility.yul\":2217:2346   */\n  pop\n    /* \"#utility.yul\":1066:2353   */\n  swap3\n  swap6\n  swap9\n  swap2\n  swap5\n  swap8\n  pop\n  swap3\n  swap6\n  pop\n  jump\t// out\n    /* \"#utility.yul\":2359:2528   */\ntag_34:\n    /* \"#utility.yul\":2443:2454   */\n  0x00\n    /* \"#utility.yul\":2477:2483   */\n  dup3\n    /* \"#utility.yul\":2472:2475   */\n  dup3\n    /* \"#utility.yul\":2465:2484   */\n  mstore\n    /* \"#utility.yul\":2517:2521   */\n  0x20\n    /* \"#utility.yul\":2512:2515   */\n  dup3\n    /* \"#utility.yul\":2508:2522   */\n  add\n    /* \"#utility.yul\":2493:2522   */\n  swap1\n  pop\n    /* \"#utility.yul\":2359:2528   */\n  swap3\n  swap2\n  pop\n  pop\n  jump\t// out\n    /* \"#utility.yul\":2534:2704   */\ntag_35:\n    /* \"#utility.yul\":2674:2696   */\n  0x4254433a302c204554483a312c204c494e4b3a32000000000000000000000000\n    /* \"#utility.yul\":2670:2671   */\n  0x00\n    /* \"#utility.yul\":2662:2668   */\n  dup3\n    /* \"#utility.yul\":2658:2672   */\n  add\n    /* \"#utility.yul\":2651:2697   */\n  mstore\n    /* \"#utility.yul\":2534:2704   */\n  pop\n  jump\t// out\n    /* \"#utility.yul\":2710:3076   */\ntag_36:\n    /* \"#utility.yul\":2852:2855   */\n  0x00\n    /* \"#utility.yul\":2873:2940   */\n  tag_66\n    /* \"#utility.yul\":2937:2939   */\n  0x14\n    /* \"#utility.yul\":2932:2935   */\n  dup4\n    /* \"#utility.yul\":2873:2940   */\n  tag_34\n  jump\t// in\ntag_66:\n    /* \"#utility.yul\":2866:2940   */\n  swap2\n  pop\n    /* \"#utility.yul\":2949:3042   */\n  tag_67\n    /* \"#utility.yul\":3038:3041   */\n  dup3\n    /* \"#utility.yul\":2949:3042   */\n  tag_35\n  jump\t// in\ntag_67:\n    /* \"#utility.yul\":3067:3069   */\n  0x20\n    /* \"#utility.yul\":3062:3065   */\n  dup3\n    /* \"#utility.yul\":3058:3070   */\n  add\n    /* \"#utility.yul\":3051:3070   */\n  swap1\n  pop\n    /* \"#utility.yul\":2710:3076   */\n  swap2\n  swap1\n  pop\n  jump\t// out\n    /* \"#utility.yul\":3082:3501   */\ntag_18:\n    /* \"#utility.yul\":3248:3252   */\n  0x00\n    /* \"#utility.yul\":3286:3288   */\n  0x20\n    /* \"#utility.yul\":3275:3284   */\n  dup3\n    /* \"#utility.yul\":3271:3289   */\n  add\n    /* \"#utility.yul\":3263:3289   */\n  swap1\n  pop\n    /* \"#utility.yul\":3335:3344   */\n  dup2\n    /* \"#utility.yul\":3329:3333   */\n  dup2\n    /* \"#utility.yul\":3325:3345   */\n  sub\n    /* \"#utility.yul\":3321:3322   */\n  0x00\n    /* \"#utility.yul\":3310:3319   */\n  dup4\n    /* \"#utility.yul\":3306:3323   */\n  add\n    /* \"#utility.yul\":3299:3346   */\n  mstore\n    /* \"#utility.yul\":3363:3494   */\n  tag_69\n    /* \"#utility.yul\":3489:3493   */\n  dup2\n    /* \"#utility.yul\":3363:3494   */\n  tag_36\n  jump\t// in\ntag_69:\n    /* \"#utility.yul\":3355:3494   */\n  swap1\n  pop\n    /* \"#utility.yul\":3082:3501   */\n  swap2\n  swap1\n  pop\n  jump\t// out\n    /* \"#utility.yul\":3507:3687   */\ntag_21:\n    /* \"#utility.yul\":3555:3632   */\n  0x4e487b7100000000000000000000000000000000000000000000000000000000\n    /* \"#utility.yul\":3552:3553   */\n  0x00\n    /* \"#utility.yul\":3545:3633   */\n  mstore\n    /* \"#utility.yul\":3652:3656   */\n  0x21\n    /* \"#utility.yul\":3649:3650   */\n  0x04\n    /* \"#utility.yul\":3642:3657   */\n  mstore\n    /* \"#utility.yul\":3676:3680   */\n  0x24\n    /* \"#utility.yul\":3673:3674   */\n  0x00\n    /* \"#utility.yul\":3666:3681   */\n  revert\n    /* \"contracts/CDS/CDS.sol\":208:4564  contract CDS is... */\ntag_22:\n  dataSize(sub_0)\n  dup1\n  dataOffset(sub_0)\n  0x00\n  codecopy\n  0x00\n  return\nstop\n\nsub_0: assembly {\n        /* \"contracts/CDS/CDS.sol\":208:4564  contract CDS is... */\n      mstore(0x40, 0x80)\n      callvalue\n      dup1\n      iszero\n      tag_1\n      jumpi\n      0x00\n      dup1\n      revert\n    tag_1:\n      pop\n      jumpi(tag_2, lt(calldatasize, 0x04))\n      shr(0xe0, calldataload(0x00))\n      dup1\n      0xb6fc2d5f\n      gt\n      tag_33\n      jumpi\n      dup1\n      0xdbd0e1b6\n      gt\n      tag_34\n      jumpi\n      dup1\n      0xf26cc58e\n      gt\n      tag_35\n      jumpi\n      dup1\n      0xf26cc58e\n      eq\n      tag_29\n      jumpi\n      dup1\n      0xf2fde38b\n      eq\n      tag_30\n      jumpi\n      dup1\n      0xfcb341df\n      eq\n      tag_31\n      jumpi\n      dup1\n      0xffd0e69f\n      eq\n      tag_32\n      jumpi\n      jump(tag_2)\n    tag_35:\n      dup1\n      0xdbd0e1b6\n      eq\n      tag_25\n      jumpi\n      dup1\n      0xe0a73a93\n      eq\n      tag_26\n      jumpi\n      dup1\n      0xe99d2866\n      eq\n      tag_27\n      jumpi\n      dup1\n      0xea8a1af0\n      eq\n      tag_28\n      jumpi\n      jump(tag_2)\n    tag_34:\n      dup1\n      0xbef904e3\n      gt\n      tag_36\n      jumpi\n      dup1\n      0xbef904e3\n      eq\n      tag_21\n      jumpi\n      dup1\n      0xcbe97245\n      eq\n      tag_22\n      jumpi\n      dup1\n      0xcbed2449\n      eq\n      tag_23\n      jumpi\n      dup1\n      0xd8683798\n      eq\n      tag_24\n      jumpi\n      jump(tag_2)\n    tag_36:\n      dup1\n      0xb6fc2d5f\n      eq\n      tag_18\n      jumpi\n      dup1\n      0xbab215f8\n      eq\n      tag_19\n      jumpi\n      dup1\n      0xbd9a548b\n      eq\n      tag_20\n      jumpi\n      jump(tag_2)\n    tag_33:\n      dup1\n      0x603daf9a\n      gt\n      tag_37\n      jumpi\n      dup1\n      0x8a568299\n      gt\n      tag_38\n      jumpi\n      dup1\n      0x8a568299\n      eq\n      tag_14\n      jumpi\n      dup1\n      0x8da5cb5b\n      eq\n      tag_15\n      jumpi\n      dup1\n      0xa2e800ad\n      eq\n      tag_16\n      jumpi\n      dup1\n      0xa3f09ad6\n      eq\n      tag_17\n      jumpi\n      jump(tag_2)\n    tag_38:\n      dup1\n      0x603daf9a\n      eq\n      tag_10\n      jumpi\n      dup1\n      0x715018a6\n      eq\n      tag_11\n      jumpi\n      dup1\n      0x839966af\n      eq\n      tag_12\n      jumpi\n      dup1\n      0x86be75b7\n      eq\n      tag_13\n      jumpi\n      jump(tag_2)\n    tag_37:\n      dup1\n      0x43d726d6\n      gt\n      tag_39\n      jumpi\n      dup1\n      0x43d726d6\n      eq\n      tag_6\n      jumpi\n      dup1\n      0x4c1786ea\n      eq\n      tag_7\n      jumpi\n      dup1\n      0x4e71d92d\n      eq\n      tag_8\n      jumpi\n      dup1\n      0x5b6a251b\n      eq\n      tag_9\n      jumpi\n      jump(tag_2)\n    tag_39:\n      dup1\n      0x15d655c9\n      eq\n      tag_3\n      jumpi\n      dup1\n      0x200d2ed2\n      eq\n      tag_4\n      jumpi\n      dup1\n      0x3fe3347a\n      eq\n      tag_5\n      jumpi\n    tag_2:\n      0x00\n      dup1\n      revert\n        /* \"contracts/CDS/CDS.sol\":511:536  uint256 public claimPrice */\n    tag_3:\n      tag_40\n      tag_41\n      jump\t// in\n    tag_40:\n      mload(0x40)\n      tag_42\n      swap2\n      swap1\n      tag_43\n      jump\t// in\n    tag_42:\n      mload(0x40)\n      dup1\n      swap2\n      sub\n      swap1\n      return\n        /* \"contracts/CDS/CDS.sol\":453:473  Status public status */\n    tag_4:\n      tag_44\n      tag_45\n      jump\t// in\n    tag_44:\n      mload(0x40)\n      tag_46\n      swap2\n      swap1\n      tag_47\n      jump\t// in\n    tag_46:\n      mload(0x40)\n      dup1\n      swap2\n      sub\n      swap1\n      return\n        /* \"contracts/CDS/CDS.sol\":767:790  uint32 public assetType */\n    tag_5:\n      tag_48\n      tag_49\n      jump\t// in\n    tag_48:\n      mload(0x40)\n      tag_50\n      swap2\n      swap1\n      tag_51\n      jump\t// in\n    tag_50:\n      mload(0x40)\n      dup1\n      swap2\n      sub\n      swap1\n      return\n        /* \"contracts/CDS/CDS.sol\":2058:2143  function close() external onlyOwner isActive {... */\n    tag_6:\n      tag_52\n      tag_53\n      jump\t// in\n    tag_52:\n      stop\n        /* \"contracts/CDS/CDS.sol\":601:629  uint256 public sellerDeposit */\n    tag_7:\n      tag_54\n      tag_55\n      jump\t// in\n    tag_54:\n      mload(0x40)\n      tag_56\n      swap2\n      swap1\n      tag_43\n      jump\t// in\n    tag_56:\n      mload(0x40)\n      dup1\n      swap2\n      sub\n      swap1\n      return\n        /* \"contracts/CDS/CDS.sol\":2147:2341  function claim() external onlyOwner isActive {... */\n    tag_8:\n      tag_57\n      tag_58\n      jump\t// in\n    tag_57:\n      stop\n        /* \"contracts/CDS/CDS.sol\":1454:1613  function premiumPaid() external onlyOwner isActive {... */\n    tag_9:\n      tag_59\n      tag_60\n      jump\t// in\n    tag_59:\n      stop\n        /* \"contracts/CDS/CDS.sol\":3846:3919  function getBuyer() public view returns (address) {... */\n    tag_10:\n      tag_61\n      tag_62\n      jump\t// in\n    tag_61:\n      mload(0x40)\n      tag_63\n      swap2\n      swap1\n      tag_64\n      jump\t// in\n    tag_63:\n      mload(0x40)\n      dup1\n      swap2\n      sub\n      swap1\n      return\n        /* \"@openzeppelin/contracts/access/Ownable.sol\":1831:1932  function renounceOwnership() public virtual onlyOwner {... */\n    tag_11:\n      tag_65\n      tag_66\n      jump\t// in\n    tag_65:\n      stop\n        /* \"contracts/CDS/CDS.sol\":2445:2563  function checkPayDatePassed() external view isActive returns (bool) {... */\n    tag_12:\n      tag_67\n      tag_68\n      jump\t// in\n    tag_67:\n      mload(0x40)\n      tag_69\n      swap2\n      swap1\n      tag_70\n      jump\t// in\n    tag_69:\n      mload(0x40)\n      dup1\n      swap2\n      sub\n      swap1\n      return\n        /* \"contracts/CDS/CDS.sol\":478:507  uint256 public initAssetPrice */\n    tag_13:\n      tag_71\n      tag_72\n      jump\t// in\n    tag_71:\n      mload(0x40)\n      tag_73\n      swap2\n      swap1\n      tag_43\n      jump\t// in\n    tag_73:\n      mload(0x40)\n      dup1\n      swap2\n      sub\n      swap1\n      return\n        /* \"contracts/CDS/CDS.sol\":738:763  uint32 public totalRounds */\n    tag_14:\n      tag_74\n      tag_75\n      jump\t// in\n    tag_74:\n      mload(0x40)\n      tag_76\n      swap2\n      swap1\n      tag_51\n      jump\t// in\n    tag_76:\n      mload(0x40)\n      dup1\n      swap2\n      sub\n      swap1\n      return\n        /* \"@openzeppelin/contracts/access/Ownable.sol\":1201:1286  function owner() public view virtual returns (address) {... */\n    tag_15:\n      tag_77\n      tag_78\n      jump\t// in\n    tag_77:\n      mload(0x40)\n      tag_79\n      swap2\n      swap1\n      tag_64\n      jump\t// in\n    tag_79:\n      mload(0x40)\n      dup1\n      swap2\n      sub\n      swap1\n      return\n        /* \"contracts/CDS/CDS.sol\":714:734  uint32 public rounds */\n    tag_16:\n      tag_80\n      tag_81\n      jump\t// in\n    tag_80:\n      mload(0x40)\n      tag_82\n      swap2\n      swap1\n      tag_51\n      jump\t// in\n    tag_82:\n      mload(0x40)\n      dup1\n      swap2\n      sub\n      swap1\n      return\n        /* \"contracts/CDS/CDS.sol\":3019:3131  function setBuyer(address _buyer) public onlyOwner returns (address) {... */\n    tag_17:\n      tag_83\n      0x04\n      dup1\n      calldatasize\n      sub\n      dup2\n      add\n      swap1\n      tag_84\n      swap2\n      swap1\n      tag_85\n      jump\t// in\n    tag_84:\n      tag_86\n      jump\t// in\n    tag_83:\n      mload(0x40)\n      tag_87\n      swap2\n      swap1\n      tag_64\n      jump\t// in\n    tag_87:\n      mload(0x40)\n      dup1\n      swap2\n      sub\n      swap1\n      return\n        /* \"contracts/CDS/CDS.sol\":540:571  uint256 public liquidationPrice */\n    tag_18:\n      tag_88\n      tag_89\n      jump\t// in\n    tag_88:\n      mload(0x40)\n      tag_90\n      swap2\n      swap1\n      tag_43\n      jump\t// in\n    tag_90:\n      mload(0x40)\n      dup1\n      swap2\n      sub\n      swap1\n      return\n        /* \"contracts/CDS/CDS.sol\":2851:3015  function setParticipants(... */\n    tag_19:\n      tag_91\n      0x04\n      dup1\n      calldatasize\n      sub\n      dup2\n      add\n      swap1\n      tag_92\n      swap2\n      swap1\n      tag_93\n      jump\t// in\n    tag_92:\n      tag_94\n      jump\t// in\n    tag_91:\n      stop\n        /* \"contracts/CDS/CDS.sol\":3512:3697  function getPrices() public view returns (uint256[5] memory) {... */\n    tag_20:\n      tag_95\n      tag_96\n      jump\t// in\n    tag_95:\n      mload(0x40)\n      tag_97\n      swap2\n      swap1\n      tag_98\n      jump\t// in\n    tag_97:\n      mload(0x40)\n      dup1\n      swap2\n      sub\n      swap1\n      return\n        /* \"contracts/CDS/CDS.sol\":2580:2727  function setInitAssetPrice(uint256 _initAssetPrice) public returns (uint256) {... */\n    tag_21:\n      tag_99\n      0x04\n      dup1\n      calldatasize\n      sub\n      dup2\n      add\n      swap1\n      tag_100\n      swap2\n      swap1\n      tag_101\n      jump\t// in\n    tag_100:\n      tag_102\n      jump\t// in\n    tag_99:\n      mload(0x40)\n      tag_103\n      swap2\n      swap1\n      tag_43\n      jump\t// in\n    tag_103:\n      mload(0x40)\n      dup1\n      swap2\n      sub\n      swap1\n      return\n        /* \"contracts/CDS/CDS.sol\":1617:1962  function accept(... */\n    tag_22:\n      tag_104\n      0x04\n      dup1\n      calldatasize\n      sub\n      dup2\n      add\n      swap1\n      tag_105\n      swap2\n      swap1\n      tag_106\n      jump\t// in\n    tag_105:\n      tag_107\n      jump\t// in\n    tag_104:\n      stop\n        /* \"contracts/CDS/PriceConsumer.sol\":339:707  function getCurrPrice(uint32 _assetType) public view returns (uint256) {... */\n    tag_23:\n      tag_108\n      0x04\n      dup1\n      calldatasize\n      sub\n      dup2\n      add\n      swap1\n      tag_109\n      swap2\n      swap1\n      tag_110\n      jump\t// in\n    tag_109:\n      tag_111\n      jump\t// in\n    tag_108:\n      mload(0x40)\n      tag_112\n      swap2\n      swap1\n      tag_43\n      jump\t// in\n    tag_112:\n      mload(0x40)\n      dup1\n      swap2\n      sub\n      swap1\n      return\n        /* \"contracts/CDS/CDS.sol\":633:659  uint256 public nextPayDate */\n    tag_24:\n      tag_113\n      tag_114\n      jump\t// in\n    tag_113:\n      mload(0x40)\n      tag_115\n      swap2\n      swap1\n      tag_43\n      jump\t// in\n    tag_115:\n      mload(0x40)\n      dup1\n      swap2\n      sub\n      swap1\n      return\n        /* \"contracts/CDS/CDS.sol\":3923:3998  function getSeller() public view returns (address) {... */\n    tag_25:\n      tag_116\n      tag_117\n      jump\t// in\n    tag_116:\n      mload(0x40)\n      tag_118\n      swap2\n      swap1\n      tag_64\n      jump\t// in\n    tag_118:\n      mload(0x40)\n      dup1\n      swap2\n      sub\n      swap1\n      return\n        /* \"contracts/CDS/CDS.sol\":575:597  uint256 public premium */\n    tag_26:\n      tag_119\n      tag_120\n      jump\t// in\n    tag_119:\n      mload(0x40)\n      tag_121\n      swap2\n      swap1\n      tag_43\n      jump\t// in\n    tag_121:\n      mload(0x40)\n      dup1\n      swap2\n      sub\n      swap1\n      return\n        /* \"contracts/CDS/CDS.sol\":3135:3252  function setSeller(address _seller) public onlyOwner returns (address) {... */\n    tag_27:\n      tag_122\n      0x04\n      dup1\n      calldatasize\n      sub\n      dup2\n      add\n      swap1\n      tag_123\n      swap2\n      swap1\n      tag_85\n      jump\t// in\n    tag_123:\n      tag_124\n      jump\t// in\n    tag_122:\n      mload(0x40)\n      tag_125\n      swap2\n      swap1\n      tag_64\n      jump\t// in\n    tag_125:\n      mload(0x40)\n      dup1\n      swap2\n      sub\n      swap1\n      return\n        /* \"contracts/CDS/CDS.sol\":1966:2054  function cancel() external onlyOwner isPending {... */\n    tag_28:\n      tag_126\n      tag_127\n      jump\t// in\n    tag_126:\n      stop\n        /* \"contracts/CDS/CDS.sol\":4002:4293  function getClaimReward() public view returns (uint256) {... */\n    tag_29:\n      tag_128\n      tag_129\n      jump\t// in\n    tag_128:\n      mload(0x40)\n      tag_130\n      swap2\n      swap1\n      tag_43\n      jump\t// in\n    tag_130:\n      mload(0x40)\n      dup1\n      swap2\n      sub\n      swap1\n      return\n        /* \"@openzeppelin/contracts/access/Ownable.sol\":2081:2279  function transferOwnership(address newOwner) public virtual onlyOwner {... */\n    tag_30:\n      tag_131\n      0x04\n      dup1\n      calldatasize\n      sub\n      dup2\n      add\n      swap1\n      tag_132\n      swap2\n      swap1\n      tag_85\n      jump\t// in\n    tag_132:\n      tag_133\n      jump\t// in\n    tag_131:\n      stop\n        /* \"contracts/CDS/CDS.sol\":3701:3842  function getAmountOfAsset() public view returns (uint256) {... */\n    tag_31:\n      tag_134\n      tag_135\n      jump\t// in\n    tag_134:\n      mload(0x40)\n      tag_136\n      swap2\n      swap1\n      tag_43\n      jump\t// in\n    tag_136:\n      mload(0x40)\n      dup1\n      swap2\n      sub\n      swap1\n      return\n        /* \"contracts/CDS/CDS.sol\":2345:2441  function checkRoundsZero() external view isActive returns (bool) {... */\n    tag_32:\n      tag_137\n      tag_138\n      jump\t// in\n    tag_137:\n      mload(0x40)\n      tag_139\n      swap2\n      swap1\n      tag_70\n      jump\t// in\n    tag_139:\n      mload(0x40)\n      dup1\n      swap2\n      sub\n      swap1\n      return\n        /* \"contracts/CDS/CDS.sol\":511:536  uint256 public claimPrice */\n    tag_41:\n      sload(0x04)\n      dup2\n      jump\t// out\n        /* \"contracts/CDS/CDS.sol\":453:473  Status public status */\n    tag_45:\n      0x02\n      0x14\n      swap1\n      sload\n      swap1\n      0x0100\n      exp\n      swap1\n      div\n      0xff\n      and\n      dup2\n      jump\t// out\n        /* \"contracts/CDS/CDS.sol\":767:790  uint32 public assetType */\n    tag_49:\n      0x0a\n      0x1c\n      swap1\n      sload\n      swap1\n      0x0100\n      exp\n      swap1\n      div\n      0xffffffff\n      and\n      dup2\n      jump\t// out\n        /* \"contracts/CDS/CDS.sol\":2058:2143  function close() external onlyOwner isActive {... */\n    tag_53:\n        /* \"@openzeppelin/contracts/access/Ownable.sol\":1094:1107  _checkOwner() */\n      tag_141\n        /* \"@openzeppelin/contracts/access/Ownable.sol\":1094:1105  _checkOwner */\n      tag_142\n        /* \"@openzeppelin/contracts/access/Ownable.sol\":1094:1107  _checkOwner() */\n      jump\t// in\n    tag_141:\n        /* \"contracts/CDS/CDS.sol\":4494:4507  Status.active */\n      0x02\n        /* \"contracts/CDS/CDS.sol\":4484:4507  status == Status.active */\n      0x04\n      dup2\n      gt\n      iszero\n      tag_144\n      jumpi\n      tag_145\n      tag_146\n      jump\t// in\n    tag_145:\n    tag_144:\n        /* \"contracts/CDS/CDS.sol\":4484:4490  status */\n      0x02\n      0x14\n      swap1\n      sload\n      swap1\n      0x0100\n      exp\n      swap1\n      div\n      0xff\n      and\n        /* \"contracts/CDS/CDS.sol\":4484:4507  status == Status.active */\n      0x04\n      dup2\n      gt\n      iszero\n      tag_147\n      jumpi\n      tag_148\n      tag_146\n      jump\t// in\n    tag_148:\n    tag_147:\n      eq\n        /* \"contracts/CDS/CDS.sol\":4476:4550  require(status == Status.active, 'The status of the CDS should be active') */\n      tag_149\n      jumpi\n      mload(0x40)\n      0x08c379a000000000000000000000000000000000000000000000000000000000\n      dup2\n      mstore\n      0x04\n      add\n      tag_150\n      swap1\n      tag_151\n      jump\t// in\n    tag_150:\n      mload(0x40)\n      dup1\n      swap2\n      sub\n      swap1\n      revert\n    tag_149:\n        /* \"contracts/CDS/CDS.sol\":2109:2138  setStatus(CDS.Status.expired) */\n      tag_153\n        /* \"contracts/CDS/CDS.sol\":2119:2137  CDS.Status.expired */\n      0x04\n        /* \"contracts/CDS/CDS.sol\":2109:2118  setStatus */\n      tag_154\n        /* \"contracts/CDS/CDS.sol\":2109:2138  setStatus(CDS.Status.expired) */\n      jump\t// in\n    tag_153:\n      pop\n        /* \"contracts/CDS/CDS.sol\":2058:2143  function close() external onlyOwner isActive {... */\n      jump\t// out\n        /* \"contracts/CDS/CDS.sol\":601:629  uint256 public sellerDeposit */\n    tag_55:\n      sload(0x07)\n      dup2\n      jump\t// out\n        /* \"contracts/CDS/CDS.sol\":2147:2341  function claim() external onlyOwner isActive {... */\n    tag_58:\n        /* \"@openzeppelin/contracts/access/Ownable.sol\":1094:1107  _checkOwner() */\n      tag_156\n        /* \"@openzeppelin/contracts/access/Ownable.sol\":1094:1105  _checkOwner */\n      tag_142\n        /* \"@openzeppelin/contracts/access/Ownable.sol\":1094:1107  _checkOwner() */\n      jump\t// in\n    tag_156:\n        /* \"contracts/CDS/CDS.sol\":4494:4507  Status.active */\n      0x02\n        /* \"contracts/CDS/CDS.sol\":4484:4507  status == Status.active */\n      0x04\n      dup2\n      gt\n      iszero\n      tag_158\n      jumpi\n      tag_159\n      tag_146\n      jump\t// in\n    tag_159:\n    tag_158:\n        /* \"contracts/CDS/CDS.sol\":4484:4490  status */\n      0x02\n      0x14\n      swap1\n      sload\n      swap1\n      0x0100\n      exp\n      swap1\n      div\n      0xff\n      and\n        /* \"contracts/CDS/CDS.sol\":4484:4507  status == Status.active */\n      0x04\n      dup2\n      gt\n      iszero\n      tag_160\n      jumpi\n      tag_161\n      tag_146\n      jump\t// in\n    tag_161:\n    tag_160:\n      eq\n        /* \"contracts/CDS/CDS.sol\":4476:4550  require(status == Status.active, 'The status of the CDS should be active') */\n      tag_162\n      jumpi\n      mload(0x40)\n      0x08c379a000000000000000000000000000000000000000000000000000000000\n      dup2\n      mstore\n      0x04\n      add\n      tag_163\n      swap1\n      tag_151\n      jump\t// in\n    tag_163:\n      mload(0x40)\n      dup1\n      swap2\n      sub\n      swap1\n      revert\n    tag_162:\n        /* \"contracts/CDS/CDS.sol\":2233:2234  0 */\n      0x00\n        /* \"contracts/CDS/CDS.sol\":2213:2229  getClaimReward() */\n      tag_165\n        /* \"contracts/CDS/CDS.sol\":2213:2227  getClaimReward */\n      tag_129\n        /* \"contracts/CDS/CDS.sol\":2213:2229  getClaimReward() */\n      jump\t// in\n    tag_165:\n        /* \"contracts/CDS/CDS.sol\":2213:2234  getClaimReward() != 0 */\n      eq\n      iszero\n        /* \"contracts/CDS/CDS.sol\":2198:2301  require(... */\n      tag_166\n      jumpi\n      mload(0x40)\n      0x08c379a000000000000000000000000000000000000000000000000000000000\n      dup2\n      mstore\n      0x04\n      add\n      tag_167\n      swap1\n      tag_168\n      jump\t// in\n    tag_167:\n      mload(0x40)\n      dup1\n      swap2\n      sub\n      swap1\n      revert\n    tag_166:\n        /* \"contracts/CDS/CDS.sol\":2307:2336  setStatus(CDS.Status.claimed) */\n      tag_169\n        /* \"contracts/CDS/CDS.sol\":2317:2335  CDS.Status.claimed */\n      0x03\n        /* \"contracts/CDS/CDS.sol\":2307:2316  setStatus */\n      tag_154\n        /* \"contracts/CDS/CDS.sol\":2307:2336  setStatus(CDS.Status.claimed) */\n      jump\t// in\n    tag_169:\n      pop\n        /* \"contracts/CDS/CDS.sol\":2147:2341  function claim() external onlyOwner isActive {... */\n      jump\t// out\n        /* \"contracts/CDS/CDS.sol\":1454:1613  function premiumPaid() external onlyOwner isActive {... */\n    tag_60:\n        /* \"@openzeppelin/contracts/access/Ownable.sol\":1094:1107  _checkOwner() */\n      tag_171\n        /* \"@openzeppelin/contracts/access/Ownable.sol\":1094:1105  _checkOwner */\n      tag_142\n        /* \"@openzeppelin/contracts/access/Ownable.sol\":1094:1107  _checkOwner() */\n      jump\t// in\n    tag_171:\n        /* \"contracts/CDS/CDS.sol\":4494:4507  Status.active */\n      0x02\n        /* \"contracts/CDS/CDS.sol\":4484:4507  status == Status.active */\n      0x04\n      dup2\n      gt\n      iszero\n      tag_173\n      jumpi\n      tag_174\n      tag_146\n      jump\t// in\n    tag_174:\n    tag_173:\n        /* \"contracts/CDS/CDS.sol\":4484:4490  status */\n      0x02\n      0x14\n      swap1\n      sload\n      swap1\n      0x0100\n      exp\n      swap1\n      div\n      0xff\n      and\n        /* \"contracts/CDS/CDS.sol\":4484:4507  status == Status.active */\n      0x04\n      dup2\n      gt\n      iszero\n      tag_175\n      jumpi\n      tag_176\n      tag_146\n      jump\t// in\n    tag_176:\n    tag_175:\n      eq\n        /* \"contracts/CDS/CDS.sol\":4476:4550  require(status == Status.active, 'The status of the CDS should be active') */\n      tag_177\n      jumpi\n      mload(0x40)\n      0x08c379a000000000000000000000000000000000000000000000000000000000\n      dup2\n      mstore\n      0x04\n      add\n      tag_178\n      swap1\n      tag_151\n      jump\t// in\n    tag_178:\n      mload(0x40)\n      dup1\n      swap2\n      sub\n      swap1\n      revert\n    tag_177:\n        /* \"contracts/CDS/CDS.sol\":1528:1529  0 */\n      0x00\n        /* \"contracts/CDS/CDS.sol\":1519:1525  rounds */\n      0x0a\n      0x14\n      swap1\n      sload\n      swap1\n      0x0100\n      exp\n      swap1\n      div\n      0xffffffff\n      and\n        /* \"contracts/CDS/CDS.sol\":1519:1529  rounds > 0 */\n      0xffffffff\n      and\n      gt\n        /* \"contracts/CDS/CDS.sol\":1511:1553  require(rounds > 0, 'Round already ended') */\n      tag_180\n      jumpi\n      mload(0x40)\n      0x08c379a000000000000000000000000000000000000000000000000000000000\n      dup2\n      mstore\n      0x04\n      add\n      tag_181\n      swap1\n      tag_182\n      jump\t// in\n    tag_181:\n      mload(0x40)\n      dup1\n      swap2\n      sub\n      swap1\n      revert\n    tag_180:\n        /* \"contracts/CDS/CDS.sol\":1574:1581  4 weeks */\n      0x24ea00\n        /* \"contracts/CDS/CDS.sol\":1559:1570  nextPayDate */\n      0x08\n      0x00\n        /* \"contracts/CDS/CDS.sol\":1559:1581  nextPayDate += 4 weeks */\n      dup3\n      dup3\n      sload\n      tag_183\n      swap2\n      swap1\n      tag_184\n      jump\t// in\n    tag_183:\n      swap3\n      pop\n      pop\n      dup2\n      swap1\n      sstore\n      pop\n        /* \"contracts/CDS/CDS.sol\":1587:1608  setRounds(rounds - 1) */\n      tag_185\n        /* \"contracts/CDS/CDS.sol\":1606:1607  1 */\n      0x01\n        /* \"contracts/CDS/CDS.sol\":1597:1603  rounds */\n      0x0a\n      0x14\n      swap1\n      sload\n      swap1\n      0x0100\n      exp\n      swap1\n      div\n      0xffffffff\n      and\n        /* \"contracts/CDS/CDS.sol\":1597:1607  rounds - 1 */\n      tag_186\n      swap2\n      swap1\n      tag_187\n      jump\t// in\n    tag_186:\n        /* \"contracts/CDS/CDS.sol\":1587:1596  setRounds */\n      tag_188\n        /* \"contracts/CDS/CDS.sol\":1587:1608  setRounds(rounds - 1) */\n      jump\t// in\n    tag_185:\n      pop\n        /* \"contracts/CDS/CDS.sol\":1454:1613  function premiumPaid() external onlyOwner isActive {... */\n      jump\t// out\n        /* \"contracts/CDS/CDS.sol\":3846:3919  function getBuyer() public view returns (address) {... */\n    tag_62:\n        /* \"contracts/CDS/CDS.sol\":3887:3894  address */\n      0x00\n        /* \"contracts/CDS/CDS.sol\":3909:3914  buyer */\n      0x09\n      0x00\n      swap1\n      sload\n      swap1\n      0x0100\n      exp\n      swap1\n      div\n      0xffffffffffffffffffffffffffffffffffffffff\n      and\n        /* \"contracts/CDS/CDS.sol\":3902:3914  return buyer */\n      swap1\n      pop\n        /* \"contracts/CDS/CDS.sol\":3846:3919  function getBuyer() public view returns (address) {... */\n      swap1\n      jump\t// out\n        /* \"@openzeppelin/contracts/access/Ownable.sol\":1831:1932  function renounceOwnership() public virtual onlyOwner {... */\n    tag_66:\n        /* \"@openzeppelin/contracts/access/Ownable.sol\":1094:1107  _checkOwner() */\n      tag_191\n        /* \"@openzeppelin/contracts/access/Ownable.sol\":1094:1105  _checkOwner */\n      tag_142\n        /* \"@openzeppelin/contracts/access/Ownable.sol\":1094:1107  _checkOwner() */\n      jump\t// in\n    tag_191:\n        /* \"@openzeppelin/contracts/access/Ownable.sol\":1895:1925  _transferOwnership(address(0)) */\n      tag_193\n        /* \"@openzeppelin/contracts/access/Ownable.sol\":1922:1923  0 */\n      0x00\n        /* \"@openzeppelin/contracts/access/Ownable.sol\":1895:1913  _transferOwnership */\n      tag_194\n        /* \"@openzeppelin/contracts/access/Ownable.sol\":1895:1925  _transferOwnership(address(0)) */\n      jump\t// in\n    tag_193:\n        /* \"@openzeppelin/contracts/access/Ownable.sol\":1831:1932  function renounceOwnership() public virtual onlyOwner {... */\n      jump\t// out\n        /* \"contracts/CDS/CDS.sol\":2445:2563  function checkPayDatePassed() external view isActive returns (bool) {... */\n    tag_68:\n        /* \"contracts/CDS/CDS.sol\":2507:2511  bool */\n      0x00\n        /* \"contracts/CDS/CDS.sol\":4494:4507  Status.active */\n      0x02\n        /* \"contracts/CDS/CDS.sol\":4484:4507  status == Status.active */\n      0x04\n      dup2\n      gt\n      iszero\n      tag_196\n      jumpi\n      tag_197\n      tag_146\n      jump\t// in\n    tag_197:\n    tag_196:\n        /* \"contracts/CDS/CDS.sol\":4484:4490  status */\n      0x02\n      0x14\n      swap1\n      sload\n      swap1\n      0x0100\n      exp\n      swap1\n      div\n      0xff\n      and\n        /* \"contracts/CDS/CDS.sol\":4484:4507  status == Status.active */\n      0x04\n      dup2\n      gt\n      iszero\n      tag_198\n      jumpi\n      tag_199\n      tag_146\n      jump\t// in\n    tag_199:\n    tag_198:\n      eq\n        /* \"contracts/CDS/CDS.sol\":4476:4550  require(status == Status.active, 'The status of the CDS should be active') */\n      tag_200\n      jumpi\n      mload(0x40)\n      0x08c379a000000000000000000000000000000000000000000000000000000000\n      dup2\n      mstore\n      0x04\n      add\n      tag_201\n      swap1\n      tag_151\n      jump\t// in\n    tag_201:\n      mload(0x40)\n      dup1\n      swap2\n      sub\n      swap1\n      revert\n    tag_200:\n        /* \"contracts/CDS/CDS.sol\":2546:2557  nextPayDate */\n      sload(0x08)\n        /* \"contracts/CDS/CDS.sol\":2527:2542  block.timestamp */\n      timestamp\n        /* \"contracts/CDS/CDS.sol\":2527:2557  block.timestamp >= nextPayDate */\n      lt\n      iszero\n        /* \"contracts/CDS/CDS.sol\":2519:2558  return (block.timestamp >= nextPayDate) */\n      swap1\n      pop\n        /* \"contracts/CDS/CDS.sol\":2445:2563  function checkPayDatePassed() external view isActive returns (bool) {... */\n      swap1\n      jump\t// out\n        /* \"contracts/CDS/CDS.sol\":478:507  uint256 public initAssetPrice */\n    tag_72:\n      sload(0x03)\n      dup2\n      jump\t// out\n        /* \"contracts/CDS/CDS.sol\":738:763  uint32 public totalRounds */\n    tag_75:\n      0x0a\n      0x18\n      swap1\n      sload\n      swap1\n      0x0100\n      exp\n      swap1\n      div\n      0xffffffff\n      and\n      dup2\n      jump\t// out\n        /* \"@openzeppelin/contracts/access/Ownable.sol\":1201:1286  function owner() public view virtual returns (address) {... */\n    tag_78:\n        /* \"@openzeppelin/contracts/access/Ownable.sol\":1247:1254  address */\n      0x00\n        /* \"@openzeppelin/contracts/access/Ownable.sol\":1273:1279  _owner */\n      dup1\n      0x00\n      swap1\n      sload\n      swap1\n      0x0100\n      exp\n      swap1\n      div\n      0xffffffffffffffffffffffffffffffffffffffff\n      and\n        /* \"@openzeppelin/contracts/access/Ownable.sol\":1266:1279  return _owner */\n      swap1\n      pop\n        /* \"@openzeppelin/contracts/access/Ownable.sol\":1201:1286  function owner() public view virtual returns (address) {... */\n      swap1\n      jump\t// out\n        /* \"contracts/CDS/CDS.sol\":714:734  uint32 public rounds */\n    tag_81:\n      0x0a\n      0x14\n      swap1\n      sload\n      swap1\n      0x0100\n      exp\n      swap1\n      div\n      0xffffffff\n      and\n      dup2\n      jump\t// out\n        /* \"contracts/CDS/CDS.sol\":3019:3131  function setBuyer(address _buyer) public onlyOwner returns (address) {... */\n    tag_86:\n        /* \"contracts/CDS/CDS.sol\":3079:3086  address */\n      0x00\n        /* \"@openzeppelin/contracts/access/Ownable.sol\":1094:1107  _checkOwner() */\n      tag_205\n        /* \"@openzeppelin/contracts/access/Ownable.sol\":1094:1105  _checkOwner */\n      tag_142\n        /* \"@openzeppelin/contracts/access/Ownable.sol\":1094:1107  _checkOwner() */\n      jump\t// in\n    tag_205:\n        /* \"contracts/CDS/CDS.sol\":3102:3108  _buyer */\n      dup2\n        /* \"contracts/CDS/CDS.sol\":3094:3099  buyer */\n      0x09\n      0x00\n        /* \"contracts/CDS/CDS.sol\":3094:3108  buyer = _buyer */\n      0x0100\n      exp\n      dup2\n      sload\n      dup2\n      0xffffffffffffffffffffffffffffffffffffffff\n      mul\n      not\n      and\n      swap1\n      dup4\n      0xffffffffffffffffffffffffffffffffffffffff\n      and\n      mul\n      or\n      swap1\n      sstore\n      pop\n        /* \"contracts/CDS/CDS.sol\":3121:3126  buyer */\n      0x09\n      0x00\n      swap1\n      sload\n      swap1\n      0x0100\n      exp\n      swap1\n      div\n      0xffffffffffffffffffffffffffffffffffffffff\n      and\n        /* \"contracts/CDS/CDS.sol\":3114:3126  return buyer */\n      swap1\n      pop\n        /* \"contracts/CDS/CDS.sol\":3019:3131  function setBuyer(address _buyer) public onlyOwner returns (address) {... */\n      swap2\n      swap1\n      pop\n      jump\t// out\n        /* \"contracts/CDS/CDS.sol\":540:571  uint256 public liquidationPrice */\n    tag_89:\n      sload(0x05)\n      dup2\n      jump\t// out\n        /* \"contracts/CDS/CDS.sol\":2851:3015  function setParticipants(... */\n    tag_94:\n        /* \"@openzeppelin/contracts/access/Ownable.sol\":1094:1107  _checkOwner() */\n      tag_208\n        /* \"@openzeppelin/contracts/access/Ownable.sol\":1094:1105  _checkOwner */\n      tag_142\n        /* \"@openzeppelin/contracts/access/Ownable.sol\":1094:1107  _checkOwner() */\n      jump\t// in\n    tag_208:\n        /* \"contracts/CDS/CDS.sol\":2949:2957  _isBuyer */\n      dup1\n        /* \"contracts/CDS/CDS.sol\":2949:3010  _isBuyer ? setBuyer(_participants) : setSeller(_participants) */\n      tag_210\n      jumpi\n        /* \"contracts/CDS/CDS.sol\":2986:3010  setSeller(_participants) */\n      tag_211\n        /* \"contracts/CDS/CDS.sol\":2996:3009  _participants */\n      dup3\n        /* \"contracts/CDS/CDS.sol\":2986:2995  setSeller */\n      tag_124\n        /* \"contracts/CDS/CDS.sol\":2986:3010  setSeller(_participants) */\n      jump\t// in\n    tag_211:\n        /* \"contracts/CDS/CDS.sol\":2949:3010  _isBuyer ? setBuyer(_participants) : setSeller(_participants) */\n      jump(tag_212)\n    tag_210:\n        /* \"contracts/CDS/CDS.sol\":2960:2983  setBuyer(_participants) */\n      tag_213\n        /* \"contracts/CDS/CDS.sol\":2969:2982  _participants */\n      dup3\n        /* \"contracts/CDS/CDS.sol\":2960:2968  setBuyer */\n      tag_86\n        /* \"contracts/CDS/CDS.sol\":2960:2983  setBuyer(_participants) */\n      jump\t// in\n    tag_213:\n        /* \"contracts/CDS/CDS.sol\":2949:3010  _isBuyer ? setBuyer(_participants) : setSeller(_participants) */\n    tag_212:\n      pop\n        /* \"contracts/CDS/CDS.sol\":2851:3015  function setParticipants(... */\n      pop\n      pop\n      jump\t// out\n        /* \"contracts/CDS/CDS.sol\":3512:3697  function getPrices() public view returns (uint256[5] memory) {... */\n    tag_96:\n        /* \"contracts/CDS/CDS.sol\":3554:3571  uint256[5] memory */\n      tag_214\n      tag_215\n      jump\t// in\n    tag_214:\n        /* \"contracts/CDS/CDS.sol\":3579:3692  return [... */\n      mload(0x40)\n      dup1\n      0xa0\n      add\n      0x40\n      mstore\n      dup1\n        /* \"contracts/CDS/CDS.sol\":3594:3608  initAssetPrice */\n      sload(0x03)\n        /* \"contracts/CDS/CDS.sol\":3579:3692  return [... */\n      dup2\n      mstore\n      0x20\n      add\n        /* \"contracts/CDS/CDS.sol\":3616:3626  claimPrice */\n      sload(0x04)\n        /* \"contracts/CDS/CDS.sol\":3579:3692  return [... */\n      dup2\n      mstore\n      0x20\n      add\n        /* \"contracts/CDS/CDS.sol\":3634:3650  liquidationPrice */\n      sload(0x05)\n        /* \"contracts/CDS/CDS.sol\":3579:3692  return [... */\n      dup2\n      mstore\n      0x20\n      add\n        /* \"contracts/CDS/CDS.sol\":3658:3665  premium */\n      sload(0x06)\n        /* \"contracts/CDS/CDS.sol\":3579:3692  return [... */\n      dup2\n      mstore\n      0x20\n      add\n        /* \"contracts/CDS/CDS.sol\":3673:3686  sellerDeposit */\n      sload(0x07)\n        /* \"contracts/CDS/CDS.sol\":3579:3692  return [... */\n      dup2\n      mstore\n      pop\n      swap1\n      pop\n        /* \"contracts/CDS/CDS.sol\":3512:3697  function getPrices() public view returns (uint256[5] memory) {... */\n      swap1\n      jump\t// out\n        /* \"contracts/CDS/CDS.sol\":2580:2727  function setInitAssetPrice(uint256 _initAssetPrice) public returns (uint256) {... */\n    tag_102:\n        /* \"contracts/CDS/CDS.sol\":2648:2655  uint256 */\n      0x00\n        /* \"contracts/CDS/CDS.sol\":2680:2695  _initAssetPrice */\n      dup2\n        /* \"contracts/CDS/CDS.sol\":2663:2677  initAssetPrice */\n      0x03\n        /* \"contracts/CDS/CDS.sol\":2663:2695  initAssetPrice = _initAssetPrice */\n      dup2\n      swap1\n      sstore\n      pop\n        /* \"contracts/CDS/CDS.sol\":2708:2722  initAssetPrice */\n      sload(0x03)\n        /* \"contracts/CDS/CDS.sol\":2701:2722  return initAssetPrice */\n      swap1\n      pop\n        /* \"contracts/CDS/CDS.sol\":2580:2727  function setInitAssetPrice(uint256 _initAssetPrice) public returns (uint256) {... */\n      swap2\n      swap1\n      pop\n      jump\t// out\n        /* \"contracts/CDS/CDS.sol\":1617:1962  function accept(... */\n    tag_107:\n        /* \"@openzeppelin/contracts/access/Ownable.sol\":1094:1107  _checkOwner() */\n      tag_219\n        /* \"@openzeppelin/contracts/access/Ownable.sol\":1094:1105  _checkOwner */\n      tag_142\n        /* \"@openzeppelin/contracts/access/Ownable.sol\":1094:1107  _checkOwner() */\n      jump\t// in\n    tag_219:\n        /* \"contracts/CDS/CDS.sol\":4365:4379  Status.pending */\n      0x01\n        /* \"contracts/CDS/CDS.sol\":4355:4379  status == Status.pending */\n      0x04\n      dup2\n      gt\n      iszero\n      tag_221\n      jumpi\n      tag_222\n      tag_146\n      jump\t// in\n    tag_222:\n    tag_221:\n        /* \"contracts/CDS/CDS.sol\":4355:4361  status */\n      0x02\n      0x14\n      swap1\n      sload\n      swap1\n      0x0100\n      exp\n      swap1\n      div\n      0xff\n      and\n        /* \"contracts/CDS/CDS.sol\":4355:4379  status == Status.pending */\n      0x04\n      dup2\n      gt\n      iszero\n      tag_223\n      jumpi\n      tag_224\n      tag_146\n      jump\t// in\n    tag_224:\n    tag_223:\n      eq\n        /* \"contracts/CDS/CDS.sol\":4340:4434  require(... */\n      tag_225\n      jumpi\n      mload(0x40)\n      0x08c379a000000000000000000000000000000000000000000000000000000000\n      dup2\n      mstore\n      0x04\n      add\n      tag_226\n      swap1\n      tag_227\n      jump\t// in\n    tag_226:\n      mload(0x40)\n      dup1\n      swap2\n      sub\n      swap1\n      revert\n    tag_225:\n        /* \"contracts/CDS/CDS.sol\":1780:1814  setInitAssetPrice(_initAssetPrice) */\n      tag_229\n        /* \"contracts/CDS/CDS.sol\":1798:1813  _initAssetPrice */\n      dup4\n        /* \"contracts/CDS/CDS.sol\":1780:1797  setInitAssetPrice */\n      tag_102\n        /* \"contracts/CDS/CDS.sol\":1780:1814  setInitAssetPrice(_initAssetPrice) */\n      jump\t// in\n    tag_229:\n      pop\n        /* \"contracts/CDS/CDS.sol\":1820:1861  setParticipants(msgSender, !_isBuyerHost) */\n      tag_230\n        /* \"contracts/CDS/CDS.sol\":1836:1845  msgSender */\n      dup3\n        /* \"contracts/CDS/CDS.sol\":1848:1860  _isBuyerHost */\n      dup3\n        /* \"contracts/CDS/CDS.sol\":1847:1860  !_isBuyerHost */\n      iszero\n        /* \"contracts/CDS/CDS.sol\":1820:1835  setParticipants */\n      tag_94\n        /* \"contracts/CDS/CDS.sol\":1820:1861  setParticipants(msgSender, !_isBuyerHost) */\n      jump\t// in\n    tag_230:\n        /* \"contracts/CDS/CDS.sol\":1867:1895  setStatus(CDS.Status.active) */\n      tag_231\n        /* \"contracts/CDS/CDS.sol\":1877:1894  CDS.Status.active */\n      0x02\n        /* \"contracts/CDS/CDS.sol\":1867:1876  setStatus */\n      tag_154\n        /* \"contracts/CDS/CDS.sol\":1867:1895  setStatus(CDS.Status.active) */\n      jump\t// in\n    tag_231:\n      pop\n        /* \"contracts/CDS/CDS.sol\":1933:1940  4 weeks */\n      0x24ea00\n        /* \"contracts/CDS/CDS.sol\":1915:1930  block.timestamp */\n      timestamp\n        /* \"contracts/CDS/CDS.sol\":1915:1940  block.timestamp + 4 weeks */\n      tag_232\n      swap2\n      swap1\n      tag_184\n      jump\t// in\n    tag_232:\n        /* \"contracts/CDS/CDS.sol\":1901:1912  nextPayDate */\n      0x08\n        /* \"contracts/CDS/CDS.sol\":1901:1940  nextPayDate = block.timestamp + 4 weeks */\n      dup2\n      swap1\n      sstore\n      pop\n        /* \"contracts/CDS/CDS.sol\":1956:1957  1 */\n      0x01\n        /* \"contracts/CDS/CDS.sol\":1946:1952  rounds */\n      0x0a\n      0x14\n        /* \"contracts/CDS/CDS.sol\":1946:1957  rounds -= 1 */\n      dup3\n      dup3\n      dup3\n      swap1\n      sload\n      swap1\n      0x0100\n      exp\n      swap1\n      div\n      0xffffffff\n      and\n      tag_233\n      swap2\n      swap1\n      tag_187\n      jump\t// in\n    tag_233:\n      swap3\n      pop\n      0x0100\n      exp\n      dup2\n      sload\n      dup2\n      0xffffffff\n      mul\n      not\n      and\n      swap1\n      dup4\n      0xffffffff\n      and\n      mul\n      or\n      swap1\n      sstore\n      pop\n        /* \"contracts/CDS/CDS.sol\":1617:1962  function accept(... */\n      pop\n      pop\n      pop\n      jump\t// out\n        /* \"contracts/CDS/PriceConsumer.sol\":339:707  function getCurrPrice(uint32 _assetType) public view returns (uint256) {... */\n    tag_111:\n        /* \"contracts/CDS/PriceConsumer.sol\":401:408  uint256 */\n      0x00\n        /* \"contracts/CDS/PriceConsumer.sol\":416:429  uint256 price */\n      dup1\n        /* \"contracts/CDS/PriceConsumer.sol\":453:454  0 */\n      0x00\n        /* \"contracts/CDS/PriceConsumer.sol\":439:449  _assetType */\n      dup4\n        /* \"contracts/CDS/PriceConsumer.sol\":439:454  _assetType == 0 */\n      0xffffffff\n      and\n      eq\n        /* \"contracts/CDS/PriceConsumer.sol\":435:685  if (_assetType == 0) {... */\n      iszero\n      tag_235\n      jumpi\n        /* \"contracts/CDS/PriceConsumer.sol\":472:507  priceOracle.btcPrice().div(10 ** 8) */\n      tag_236\n        /* \"contracts/CDS/PriceConsumer.sol\":499:506  10 ** 8 */\n      0x05f5e100\n        /* \"contracts/CDS/PriceConsumer.sol\":472:483  priceOracle */\n      0x01\n      0x00\n      swap1\n      sload\n      swap1\n      0x0100\n      exp\n      swap1\n      div\n      0xffffffffffffffffffffffffffffffffffffffff\n      and\n        /* \"contracts/CDS/PriceConsumer.sol\":472:492  priceOracle.btcPrice */\n      0xffffffffffffffffffffffffffffffffffffffff\n      and\n      0xa8ad52d1\n        /* \"contracts/CDS/PriceConsumer.sol\":472:494  priceOracle.btcPrice() */\n      mload(0x40)\n      dup2\n      0xffffffff\n      and\n      0xe0\n      shl\n      dup2\n      mstore\n      0x04\n      add\n      0x20\n      mload(0x40)\n      dup1\n      dup4\n      sub\n      dup2\n      dup7\n      gas\n      staticcall\n      iszero\n      dup1\n      iszero\n      tag_238\n      jumpi\n      returndatasize\n      0x00\n      dup1\n      returndatacopy\n      revert(0x00, returndatasize)\n    tag_238:\n      pop\n      pop\n      pop\n      pop\n      mload(0x40)\n      returndatasize\n      not(0x1f)\n      0x1f\n      dup3\n      add\n      and\n      dup3\n      add\n      dup1\n      0x40\n      mstore\n      pop\n      dup2\n      add\n      swap1\n      tag_239\n      swap2\n      swap1\n      tag_240\n      jump\t// in\n    tag_239:\n        /* \"contracts/CDS/PriceConsumer.sol\":472:498  priceOracle.btcPrice().div */\n      tag_241\n      swap1\n        /* \"contracts/CDS/PriceConsumer.sol\":472:507  priceOracle.btcPrice().div(10 ** 8) */\n      swap2\n      swap1\n      0xffffffff\n      and\n      jump\t// in\n    tag_236:\n        /* \"contracts/CDS/PriceConsumer.sol\":464:507  price = priceOracle.btcPrice().div(10 ** 8) */\n      swap1\n      pop\n        /* \"contracts/CDS/PriceConsumer.sol\":435:685  if (_assetType == 0) {... */\n      jump(tag_242)\n    tag_235:\n        /* \"contracts/CDS/PriceConsumer.sol\":538:539  1 */\n      0x01\n        /* \"contracts/CDS/PriceConsumer.sol\":524:534  _assetType */\n      dup4\n        /* \"contracts/CDS/PriceConsumer.sol\":524:539  _assetType == 1 */\n      0xffffffff\n      and\n      eq\n        /* \"contracts/CDS/PriceConsumer.sol\":520:685  if (_assetType == 1) {... */\n      iszero\n      tag_243\n      jumpi\n        /* \"contracts/CDS/PriceConsumer.sol\":557:592  priceOracle.ethPrice().div(10 ** 8) */\n      tag_244\n        /* \"contracts/CDS/PriceConsumer.sol\":584:591  10 ** 8 */\n      0x05f5e100\n        /* \"contracts/CDS/PriceConsumer.sol\":557:568  priceOracle */\n      0x01\n      0x00\n      swap1\n      sload\n      swap1\n      0x0100\n      exp\n      swap1\n      div\n      0xffffffffffffffffffffffffffffffffffffffff\n      and\n        /* \"contracts/CDS/PriceConsumer.sol\":557:577  priceOracle.ethPrice */\n      0xffffffffffffffffffffffffffffffffffffffff\n      and\n      0xff186b2e\n        /* \"contracts/CDS/PriceConsumer.sol\":557:579  priceOracle.ethPrice() */\n      mload(0x40)\n      dup2\n      0xffffffff\n      and\n      0xe0\n      shl\n      dup2\n      mstore\n      0x04\n      add\n      0x20\n      mload(0x40)\n      dup1\n      dup4\n      sub\n      dup2\n      dup7\n      gas\n      staticcall\n      iszero\n      dup1\n      iszero\n      tag_246\n      jumpi\n      returndatasize\n      0x00\n      dup1\n      returndatacopy\n      revert(0x00, returndatasize)\n    tag_246:\n      pop\n      pop\n      pop\n      pop\n      mload(0x40)\n      returndatasize\n      not(0x1f)\n      0x1f\n      dup3\n      add\n      and\n      dup3\n      add\n      dup1\n      0x40\n      mstore\n      pop\n      dup2\n      add\n      swap1\n      tag_247\n      swap2\n      swap1\n      tag_240\n      jump\t// in\n    tag_247:\n        /* \"contracts/CDS/PriceConsumer.sol\":557:583  priceOracle.ethPrice().div */\n      tag_241\n      swap1\n        /* \"contracts/CDS/PriceConsumer.sol\":557:592  priceOracle.ethPrice().div(10 ** 8) */\n      swap2\n      swap1\n      0xffffffff\n      and\n      jump\t// in\n    tag_244:\n        /* \"contracts/CDS/PriceConsumer.sol\":549:592  price = priceOracle.ethPrice().div(10 ** 8) */\n      swap1\n      pop\n        /* \"contracts/CDS/PriceConsumer.sol\":520:685  if (_assetType == 1) {... */\n      jump(tag_248)\n    tag_243:\n        /* \"contracts/CDS/PriceConsumer.sol\":623:624  2 */\n      0x02\n        /* \"contracts/CDS/PriceConsumer.sol\":609:619  _assetType */\n      dup4\n        /* \"contracts/CDS/PriceConsumer.sol\":609:624  _assetType == 2 */\n      0xffffffff\n      and\n      eq\n        /* \"contracts/CDS/PriceConsumer.sol\":605:685  if (_assetType == 2) {... */\n      iszero\n      tag_249\n      jumpi\n        /* \"contracts/CDS/PriceConsumer.sol\":642:678  priceOracle.linkPrice().div(10 ** 8) */\n      tag_250\n        /* \"contracts/CDS/PriceConsumer.sol\":670:677  10 ** 8 */\n      0x05f5e100\n        /* \"contracts/CDS/PriceConsumer.sol\":642:653  priceOracle */\n      0x01\n      0x00\n      swap1\n      sload\n      swap1\n      0x0100\n      exp\n      swap1\n      div\n      0xffffffffffffffffffffffffffffffffffffffff\n      and\n        /* \"contracts/CDS/PriceConsumer.sol\":642:663  priceOracle.linkPrice */\n      0xffffffffffffffffffffffffffffffffffffffff\n      and\n      0x0cf78535\n        /* \"contracts/CDS/PriceConsumer.sol\":642:665  priceOracle.linkPrice() */\n      mload(0x40)\n      dup2\n      0xffffffff\n      and\n      0xe0\n      shl\n      dup2\n      mstore\n      0x04\n      add\n      0x20\n      mload(0x40)\n      dup1\n      dup4\n      sub\n      dup2\n      dup7\n      gas\n      staticcall\n      iszero\n      dup1\n      iszero\n      tag_252\n      jumpi\n      returndatasize\n      0x00\n      dup1\n      returndatacopy\n      revert(0x00, returndatasize)\n    tag_252:\n      pop\n      pop\n      pop\n      pop\n      mload(0x40)\n      returndatasize\n      not(0x1f)\n      0x1f\n      dup3\n      add\n      and\n      dup3\n      add\n      dup1\n      0x40\n      mstore\n      pop\n      dup2\n      add\n      swap1\n      tag_253\n      swap2\n      swap1\n      tag_240\n      jump\t// in\n    tag_253:\n        /* \"contracts/CDS/PriceConsumer.sol\":642:669  priceOracle.linkPrice().div */\n      tag_241\n      swap1\n        /* \"contracts/CDS/PriceConsumer.sol\":642:678  priceOracle.linkPrice().div(10 ** 8) */\n      swap2\n      swap1\n      0xffffffff\n      and\n      jump\t// in\n    tag_250:\n        /* \"contracts/CDS/PriceConsumer.sol\":634:678  price = priceOracle.linkPrice().div(10 ** 8) */\n      swap1\n      pop\n        /* \"contracts/CDS/PriceConsumer.sol\":605:685  if (_assetType == 2) {... */\n    tag_249:\n        /* \"contracts/CDS/PriceConsumer.sol\":520:685  if (_assetType == 1) {... */\n    tag_248:\n        /* \"contracts/CDS/PriceConsumer.sol\":435:685  if (_assetType == 0) {... */\n    tag_242:\n        /* \"contracts/CDS/PriceConsumer.sol\":697:702  price */\n      dup1\n        /* \"contracts/CDS/PriceConsumer.sol\":690:702  return price */\n      swap2\n      pop\n      pop\n        /* \"contracts/CDS/PriceConsumer.sol\":339:707  function getCurrPrice(uint32 _assetType) public view returns (uint256) {... */\n      swap2\n      swap1\n      pop\n      jump\t// out\n        /* \"contracts/CDS/CDS.sol\":633:659  uint256 public nextPayDate */\n    tag_114:\n      sload(0x08)\n      dup2\n      jump\t// out\n        /* \"contracts/CDS/CDS.sol\":3923:3998  function getSeller() public view returns (address) {... */\n    tag_117:\n        /* \"contracts/CDS/CDS.sol\":3965:3972  address */\n      0x00\n        /* \"contracts/CDS/CDS.sol\":3987:3993  seller */\n      0x0a\n      0x00\n      swap1\n      sload\n      swap1\n      0x0100\n      exp\n      swap1\n      div\n      0xffffffffffffffffffffffffffffffffffffffff\n      and\n        /* \"contracts/CDS/CDS.sol\":3980:3993  return seller */\n      swap1\n      pop\n        /* \"contracts/CDS/CDS.sol\":3923:3998  function getSeller() public view returns (address) {... */\n      swap1\n      jump\t// out\n        /* \"contracts/CDS/CDS.sol\":575:597  uint256 public premium */\n    tag_120:\n      sload(0x06)\n      dup2\n      jump\t// out\n        /* \"contracts/CDS/CDS.sol\":3135:3252  function setSeller(address _seller) public onlyOwner returns (address) {... */\n    tag_124:\n        /* \"contracts/CDS/CDS.sol\":3197:3204  address */\n      0x00\n        /* \"@openzeppelin/contracts/access/Ownable.sol\":1094:1107  _checkOwner() */\n      tag_256\n        /* \"@openzeppelin/contracts/access/Ownable.sol\":1094:1105  _checkOwner */\n      tag_142\n        /* \"@openzeppelin/contracts/access/Ownable.sol\":1094:1107  _checkOwner() */\n      jump\t// in\n    tag_256:\n        /* \"contracts/CDS/CDS.sol\":3221:3228  _seller */\n      dup2\n        /* \"contracts/CDS/CDS.sol\":3212:3218  seller */\n      0x0a\n      0x00\n        /* \"contracts/CDS/CDS.sol\":3212:3228  seller = _seller */\n      0x0100\n      exp\n      dup2\n      sload\n      dup2\n      0xffffffffffffffffffffffffffffffffffffffff\n      mul\n      not\n      and\n      swap1\n      dup4\n      0xffffffffffffffffffffffffffffffffffffffff\n      and\n      mul\n      or\n      swap1\n      sstore\n      pop\n        /* \"contracts/CDS/CDS.sol\":3241:3247  seller */\n      0x0a\n      0x00\n      swap1\n      sload\n      swap1\n      0x0100\n      exp\n      swap1\n      div\n      0xffffffffffffffffffffffffffffffffffffffff\n      and\n        /* \"contracts/CDS/CDS.sol\":3234:3247  return seller */\n      swap1\n      pop\n        /* \"contracts/CDS/CDS.sol\":3135:3252  function setSeller(address _seller) public onlyOwner returns (address) {... */\n      swap2\n      swap1\n      pop\n      jump\t// out\n        /* \"contracts/CDS/CDS.sol\":1966:2054  function cancel() external onlyOwner isPending {... */\n    tag_127:\n        /* \"@openzeppelin/contracts/access/Ownable.sol\":1094:1107  _checkOwner() */\n      tag_259\n        /* \"@openzeppelin/contracts/access/Ownable.sol\":1094:1105  _checkOwner */\n      tag_142\n        /* \"@openzeppelin/contracts/access/Ownable.sol\":1094:1107  _checkOwner() */\n      jump\t// in\n    tag_259:\n        /* \"contracts/CDS/CDS.sol\":4365:4379  Status.pending */\n      0x01\n        /* \"contracts/CDS/CDS.sol\":4355:4379  status == Status.pending */\n      0x04\n      dup2\n      gt\n      iszero\n      tag_261\n      jumpi\n      tag_262\n      tag_146\n      jump\t// in\n    tag_262:\n    tag_261:\n        /* \"contracts/CDS/CDS.sol\":4355:4361  status */\n      0x02\n      0x14\n      swap1\n      sload\n      swap1\n      0x0100\n      exp\n      swap1\n      div\n      0xff\n      and\n        /* \"contracts/CDS/CDS.sol\":4355:4379  status == Status.pending */\n      0x04\n      dup2\n      gt\n      iszero\n      tag_263\n      jumpi\n      tag_264\n      tag_146\n      jump\t// in\n    tag_264:\n    tag_263:\n      eq\n        /* \"contracts/CDS/CDS.sol\":4340:4434  require(... */\n      tag_265\n      jumpi\n      mload(0x40)\n      0x08c379a000000000000000000000000000000000000000000000000000000000\n      dup2\n      mstore\n      0x04\n      add\n      tag_266\n      swap1\n      tag_227\n      jump\t// in\n    tag_266:\n      mload(0x40)\n      dup1\n      swap2\n      sub\n      swap1\n      revert\n    tag_265:\n        /* \"contracts/CDS/CDS.sol\":2019:2049  setStatus(CDS.Status.inactive) */\n      tag_268\n        /* \"contracts/CDS/CDS.sol\":2029:2048  CDS.Status.inactive */\n      0x00\n        /* \"contracts/CDS/CDS.sol\":2019:2028  setStatus */\n      tag_154\n        /* \"contracts/CDS/CDS.sol\":2019:2049  setStatus(CDS.Status.inactive) */\n      jump\t// in\n    tag_268:\n      pop\n        /* \"contracts/CDS/CDS.sol\":1966:2054  function cancel() external onlyOwner isPending {... */\n      jump\t// out\n        /* \"contracts/CDS/CDS.sol\":4002:4293  function getClaimReward() public view returns (uint256) {... */\n    tag_129:\n        /* \"contracts/CDS/CDS.sol\":4049:4056  uint256 */\n      0x00\n        /* \"contracts/CDS/CDS.sol\":4064:4081  uint256 currPrice */\n      dup1\n        /* \"contracts/CDS/CDS.sol\":4084:4107  getCurrPrice(assetType) */\n      tag_270\n        /* \"contracts/CDS/CDS.sol\":4097:4106  assetType */\n      0x0a\n      0x1c\n      swap1\n      sload\n      swap1\n      0x0100\n      exp\n      swap1\n      div\n      0xffffffff\n      and\n        /* \"contracts/CDS/CDS.sol\":4084:4096  getCurrPrice */\n      tag_111\n        /* \"contracts/CDS/CDS.sol\":4084:4107  getCurrPrice(assetType) */\n      jump\t// in\n    tag_270:\n        /* \"contracts/CDS/CDS.sol\":4064:4107  uint256 currPrice = getCurrPrice(assetType) */\n      swap1\n      pop\n        /* \"contracts/CDS/CDS.sol\":4130:4139  currPrice */\n      dup1\n        /* \"contracts/CDS/CDS.sol\":4117:4127  claimPrice */\n      sload(0x04)\n        /* \"contracts/CDS/CDS.sol\":4117:4139  claimPrice < currPrice */\n      lt\n        /* \"contracts/CDS/CDS.sol\":4113:4164  if (claimPrice < currPrice) {... */\n      iszero\n      tag_271\n      jumpi\n        /* \"contracts/CDS/CDS.sol\":4156:4157  0 */\n      0x00\n        /* \"contracts/CDS/CDS.sol\":4149:4157  return 0 */\n      swap2\n      pop\n      pop\n      jump(tag_269)\n        /* \"contracts/CDS/CDS.sol\":4113:4164  if (claimPrice < currPrice) {... */\n    tag_271:\n        /* \"contracts/CDS/CDS.sol\":4182:4288  sellerDeposit.calcClaimReward(... */\n      tag_272\n        /* \"contracts/CDS/CDS.sol\":4221:4237  liquidationPrice */\n      sload(0x05)\n        /* \"contracts/CDS/CDS.sol\":4247:4261  initAssetPrice */\n      sload(0x03)\n        /* \"contracts/CDS/CDS.sol\":4271:4280  currPrice */\n      dup4\n        /* \"contracts/CDS/CDS.sol\":4182:4195  sellerDeposit */\n      sload(0x07)\n        /* \"contracts/CDS/CDS.sol\":4182:4211  sellerDeposit.calcClaimReward */\n      tag_273\n      swap1\n        /* \"contracts/CDS/CDS.sol\":4182:4288  sellerDeposit.calcClaimReward(... */\n      swap4\n      swap3\n      swap2\n      swap1\n      0xffffffff\n      and\n      jump\t// in\n    tag_272:\n        /* \"contracts/CDS/CDS.sol\":4169:4288  return... */\n      swap2\n      pop\n      pop\n        /* \"contracts/CDS/CDS.sol\":4002:4293  function getClaimReward() public view returns (uint256) {... */\n    tag_269:\n      swap1\n      jump\t// out\n        /* \"@openzeppelin/contracts/access/Ownable.sol\":2081:2279  function transferOwnership(address newOwner) public virtual onlyOwner {... */\n    tag_133:\n        /* \"@openzeppelin/contracts/access/Ownable.sol\":1094:1107  _checkOwner() */\n      tag_275\n        /* \"@openzeppelin/contracts/access/Ownable.sol\":1094:1105  _checkOwner */\n      tag_142\n        /* \"@openzeppelin/contracts/access/Ownable.sol\":1094:1107  _checkOwner() */\n      jump\t// in\n    tag_275:\n        /* \"@openzeppelin/contracts/access/Ownable.sol\":2189:2190  0 */\n      0x00\n        /* \"@openzeppelin/contracts/access/Ownable.sol\":2169:2191  newOwner != address(0) */\n      0xffffffffffffffffffffffffffffffffffffffff\n      and\n        /* \"@openzeppelin/contracts/access/Ownable.sol\":2169:2177  newOwner */\n      dup2\n        /* \"@openzeppelin/contracts/access/Ownable.sol\":2169:2191  newOwner != address(0) */\n      0xffffffffffffffffffffffffffffffffffffffff\n      and\n      eq\n      iszero\n        /* \"@openzeppelin/contracts/access/Ownable.sol\":2161:2234  require(newOwner != address(0), \"Ownable: new owner is the zero address\") */\n      tag_277\n      jumpi\n      mload(0x40)\n      0x08c379a000000000000000000000000000000000000000000000000000000000\n      dup2\n      mstore\n      0x04\n      add\n      tag_278\n      swap1\n      tag_279\n      jump\t// in\n    tag_278:\n      mload(0x40)\n      dup1\n      swap2\n      sub\n      swap1\n      revert\n    tag_277:\n        /* \"@openzeppelin/contracts/access/Ownable.sol\":2244:2272  _transferOwnership(newOwner) */\n      tag_280\n        /* \"@openzeppelin/contracts/access/Ownable.sol\":2263:2271  newOwner */\n      dup2\n        /* \"@openzeppelin/contracts/access/Ownable.sol\":2244:2262  _transferOwnership */\n      tag_194\n        /* \"@openzeppelin/contracts/access/Ownable.sol\":2244:2272  _transferOwnership(newOwner) */\n      jump\t// in\n    tag_280:\n        /* \"@openzeppelin/contracts/access/Ownable.sol\":2081:2279  function transferOwnership(address newOwner) public virtual onlyOwner {... */\n      pop\n      jump\t// out\n        /* \"contracts/CDS/CDS.sol\":3701:3842  function getAmountOfAsset() public view returns (uint256) {... */\n    tag_135:\n        /* \"contracts/CDS/CDS.sol\":3750:3757  uint256 */\n      0x00\n        /* \"contracts/CDS/CDS.sol\":3772:3837  initAssetPrice.calcAmountOfAsset(liquidationPrice, sellerDeposit) */\n      tag_282\n        /* \"contracts/CDS/CDS.sol\":3805:3821  liquidationPrice */\n      sload(0x05)\n        /* \"contracts/CDS/CDS.sol\":3823:3836  sellerDeposit */\n      sload(0x07)\n        /* \"contracts/CDS/CDS.sol\":3772:3786  initAssetPrice */\n      sload(0x03)\n        /* \"contracts/CDS/CDS.sol\":3772:3804  initAssetPrice.calcAmountOfAsset */\n      tag_283\n      swap1\n        /* \"contracts/CDS/CDS.sol\":3772:3837  initAssetPrice.calcAmountOfAsset(liquidationPrice, sellerDeposit) */\n      swap3\n      swap2\n      swap1\n      0xffffffff\n      and\n      jump\t// in\n    tag_282:\n        /* \"contracts/CDS/CDS.sol\":3765:3837  return initAssetPrice.calcAmountOfAsset(liquidationPrice, sellerDeposit) */\n      swap1\n      pop\n        /* \"contracts/CDS/CDS.sol\":3701:3842  function getAmountOfAsset() public view returns (uint256) {... */\n      swap1\n      jump\t// out\n        /* \"contracts/CDS/CDS.sol\":2345:2441  function checkRoundsZero() external view isActive returns (bool) {... */\n    tag_138:\n        /* \"contracts/CDS/CDS.sol\":2404:2408  bool */\n      0x00\n        /* \"contracts/CDS/CDS.sol\":4494:4507  Status.active */\n      0x02\n        /* \"contracts/CDS/CDS.sol\":4484:4507  status == Status.active */\n      0x04\n      dup2\n      gt\n      iszero\n      tag_285\n      jumpi\n      tag_286\n      tag_146\n      jump\t// in\n    tag_286:\n    tag_285:\n        /* \"contracts/CDS/CDS.sol\":4484:4490  status */\n      0x02\n      0x14\n      swap1\n      sload\n      swap1\n      0x0100\n      exp\n      swap1\n      div\n      0xff\n      and\n        /* \"contracts/CDS/CDS.sol\":4484:4507  status == Status.active */\n      0x04\n      dup2\n      gt\n      iszero\n      tag_287\n      jumpi\n      tag_288\n      tag_146\n      jump\t// in\n    tag_288:\n    tag_287:\n      eq\n        /* \"contracts/CDS/CDS.sol\":4476:4550  require(status == Status.active, 'The status of the CDS should be active') */\n      tag_289\n      jumpi\n      mload(0x40)\n      0x08c379a000000000000000000000000000000000000000000000000000000000\n      dup2\n      mstore\n      0x04\n      add\n      tag_290\n      swap1\n      tag_151\n      jump\t// in\n    tag_290:\n      mload(0x40)\n      dup1\n      swap2\n      sub\n      swap1\n      revert\n    tag_289:\n        /* \"contracts/CDS/CDS.sol\":2434:2435  0 */\n      0x00\n        /* \"contracts/CDS/CDS.sol\":2424:2430  rounds */\n      0x0a\n      0x14\n      swap1\n      sload\n      swap1\n      0x0100\n      exp\n      swap1\n      div\n      0xffffffff\n      and\n        /* \"contracts/CDS/CDS.sol\":2424:2435  rounds == 0 */\n      0xffffffff\n      and\n      eq\n        /* \"contracts/CDS/CDS.sol\":2416:2436  return (rounds == 0) */\n      swap1\n      pop\n        /* \"contracts/CDS/CDS.sol\":2345:2441  function checkRoundsZero() external view isActive returns (bool) {... */\n      swap1\n      jump\t// out\n        /* \"@openzeppelin/contracts/access/Ownable.sol\":1359:1489  function _checkOwner() internal view virtual {... */\n    tag_142:\n        /* \"@openzeppelin/contracts/access/Ownable.sol\":1433:1445  _msgSender() */\n      tag_293\n        /* \"@openzeppelin/contracts/access/Ownable.sol\":1433:1443  _msgSender */\n      tag_294\n        /* \"@openzeppelin/contracts/access/Ownable.sol\":1433:1445  _msgSender() */\n      jump\t// in\n    tag_293:\n        /* \"@openzeppelin/contracts/access/Ownable.sol\":1422:1445  owner() == _msgSender() */\n      0xffffffffffffffffffffffffffffffffffffffff\n      and\n        /* \"@openzeppelin/contracts/access/Ownable.sol\":1422:1429  owner() */\n      tag_295\n        /* \"@openzeppelin/contracts/access/Ownable.sol\":1422:1427  owner */\n      tag_78\n        /* \"@openzeppelin/contracts/access/Ownable.sol\":1422:1429  owner() */\n      jump\t// in\n    tag_295:\n        /* \"@openzeppelin/contracts/access/Ownable.sol\":1422:1445  owner() == _msgSender() */\n      0xffffffffffffffffffffffffffffffffffffffff\n      and\n      eq\n        /* \"@openzeppelin/contracts/access/Ownable.sol\":1414:1482  require(owner() == _msgSender(), \"Ownable: caller is not the owner\") */\n      tag_296\n      jumpi\n      mload(0x40)\n      0x08c379a000000000000000000000000000000000000000000000000000000000\n      dup2\n      mstore\n      0x04\n      add\n      tag_297\n      swap1\n      tag_298\n      jump\t// in\n    tag_297:\n      mload(0x40)\n      dup1\n      swap2\n      sub\n      swap1\n      revert\n    tag_296:\n        /* \"@openzeppelin/contracts/access/Ownable.sol\":1359:1489  function _checkOwner() internal view virtual {... */\n      jump\t// out\n        /* \"contracts/CDS/CDS.sol\":2731:2847  function setStatus(Status _status) private onlyOwner returns (Status) {... */\n    tag_154:\n        /* \"contracts/CDS/CDS.sol\":2793:2799  Status */\n      0x00\n        /* \"@openzeppelin/contracts/access/Ownable.sol\":1094:1107  _checkOwner() */\n      tag_300\n        /* \"@openzeppelin/contracts/access/Ownable.sol\":1094:1105  _checkOwner */\n      tag_142\n        /* \"@openzeppelin/contracts/access/Ownable.sol\":1094:1107  _checkOwner() */\n      jump\t// in\n    tag_300:\n        /* \"contracts/CDS/CDS.sol\":2816:2823  _status */\n      dup2\n        /* \"contracts/CDS/CDS.sol\":2807:2813  status */\n      0x02\n      0x14\n        /* \"contracts/CDS/CDS.sol\":2807:2823  status = _status */\n      0x0100\n      exp\n      dup2\n      sload\n      dup2\n      0xff\n      mul\n      not\n      and\n      swap1\n      dup4\n      0x04\n      dup2\n      gt\n      iszero\n      tag_302\n      jumpi\n      tag_303\n      tag_146\n      jump\t// in\n    tag_303:\n    tag_302:\n      mul\n      or\n      swap1\n      sstore\n      pop\n        /* \"contracts/CDS/CDS.sol\":2836:2842  status */\n      0x02\n      0x14\n      swap1\n      sload\n      swap1\n      0x0100\n      exp\n      swap1\n      div\n      0xff\n      and\n        /* \"contracts/CDS/CDS.sol\":2829:2842  return status */\n      swap1\n      pop\n        /* \"contracts/CDS/CDS.sol\":2731:2847  function setStatus(Status _status) private onlyOwner returns (Status) {... */\n      swap2\n      swap1\n      pop\n      jump\t// out\n        /* \"contracts/CDS/CDS.sol\":3256:3372  function setRounds(uint32 _rounds) private onlyOwner returns (uint32) {... */\n    tag_188:\n        /* \"contracts/CDS/CDS.sol\":3318:3324  uint32 */\n      0x00\n        /* \"@openzeppelin/contracts/access/Ownable.sol\":1094:1107  _checkOwner() */\n      tag_305\n        /* \"@openzeppelin/contracts/access/Ownable.sol\":1094:1105  _checkOwner */\n      tag_142\n        /* \"@openzeppelin/contracts/access/Ownable.sol\":1094:1107  _checkOwner() */\n      jump\t// in\n    tag_305:\n        /* \"contracts/CDS/CDS.sol\":3341:3348  _rounds */\n      dup2\n        /* \"contracts/CDS/CDS.sol\":3332:3338  rounds */\n      0x0a\n      0x14\n        /* \"contracts/CDS/CDS.sol\":3332:3348  rounds = _rounds */\n      0x0100\n      exp\n      dup2\n      sload\n      dup2\n      0xffffffff\n      mul\n      not\n      and\n      swap1\n      dup4\n      0xffffffff\n      and\n      mul\n      or\n      swap1\n      sstore\n      pop\n        /* \"contracts/CDS/CDS.sol\":3361:3367  rounds */\n      0x0a\n      0x14\n      swap1\n      sload\n      swap1\n      0x0100\n      exp\n      swap1\n      div\n      0xffffffff\n      and\n        /* \"contracts/CDS/CDS.sol\":3354:3367  return rounds */\n      swap1\n      pop\n        /* \"contracts/CDS/CDS.sol\":3256:3372  function setRounds(uint32 _rounds) private onlyOwner returns (uint32) {... */\n      swap2\n      swap1\n      pop\n      jump\t// out\n        /* \"@openzeppelin/contracts/access/Ownable.sol\":2433:2620  function _transferOwnership(address newOwner) internal virtual {... */\n    tag_194:\n        /* \"@openzeppelin/contracts/access/Ownable.sol\":2506:2522  address oldOwner */\n      0x00\n        /* \"@openzeppelin/contracts/access/Ownable.sol\":2525:2531  _owner */\n      dup1\n      0x00\n      swap1\n      sload\n      swap1\n      0x0100\n      exp\n      swap1\n      div\n      0xffffffffffffffffffffffffffffffffffffffff\n      and\n        /* \"@openzeppelin/contracts/access/Ownable.sol\":2506:2531  address oldOwner = _owner */\n      swap1\n      pop\n        /* \"@openzeppelin/contracts/access/Ownable.sol\":2550:2558  newOwner */\n      dup2\n        /* \"@openzeppelin/contracts/access/Ownable.sol\":2541:2547  _owner */\n      0x00\n      dup1\n        /* \"@openzeppelin/contracts/access/Ownable.sol\":2541:2558  _owner = newOwner */\n      0x0100\n      exp\n      dup2\n      sload\n      dup2\n      0xffffffffffffffffffffffffffffffffffffffff\n      mul\n      not\n      and\n      swap1\n      dup4\n      0xffffffffffffffffffffffffffffffffffffffff\n      and\n      mul\n      or\n      swap1\n      sstore\n      pop\n        /* \"@openzeppelin/contracts/access/Ownable.sol\":2604:2612  newOwner */\n      dup2\n        /* \"@openzeppelin/contracts/access/Ownable.sol\":2573:2613  OwnershipTransferred(oldOwner, newOwner) */\n      0xffffffffffffffffffffffffffffffffffffffff\n      and\n        /* \"@openzeppelin/contracts/access/Ownable.sol\":2594:2602  oldOwner */\n      dup2\n        /* \"@openzeppelin/contracts/access/Ownable.sol\":2573:2613  OwnershipTransferred(oldOwner, newOwner) */\n      0xffffffffffffffffffffffffffffffffffffffff\n      and\n      0x8be0079c531659141344cd1fd0a4f28419497f9722a3daafe3b4186f6b6457e0\n      mload(0x40)\n      mload(0x40)\n      dup1\n      swap2\n      sub\n      swap1\n      log3\n        /* \"@openzeppelin/contracts/access/Ownable.sol\":2496:2620  {... */\n      pop\n        /* \"@openzeppelin/contracts/access/Ownable.sol\":2433:2620  function _transferOwnership(address newOwner) internal virtual {... */\n      pop\n      jump\t// out\n        /* \"@openzeppelin/contracts/utils/math/SafeMath.sol\":3850:3946  function div(uint256 a, uint256 b) internal pure returns (uint256) {... */\n    tag_241:\n        /* \"@openzeppelin/contracts/utils/math/SafeMath.sol\":3908:3915  uint256 */\n      0x00\n        /* \"@openzeppelin/contracts/utils/math/SafeMath.sol\":3938:3939  b */\n      dup2\n        /* \"@openzeppelin/contracts/utils/math/SafeMath.sol\":3934:3935  a */\n      dup4\n        /* \"@openzeppelin/contracts/utils/math/SafeMath.sol\":3934:3939  a / b */\n      tag_309\n      swap2\n      swap1\n      tag_310\n      jump\t// in\n    tag_309:\n        /* \"@openzeppelin/contracts/utils/math/SafeMath.sol\":3927:3939  return a / b */\n      swap1\n      pop\n        /* \"@openzeppelin/contracts/utils/math/SafeMath.sol\":3850:3946  function div(uint256 a, uint256 b) internal pure returns (uint256) {... */\n      swap3\n      swap2\n      pop\n      pop\n      jump\t// out\n        /* \"contracts/libs/LibSwap.sol\":167:588  function calcClaimReward(... */\n    tag_273:\n        /* \"contracts/libs/LibSwap.sol\":311:318  uint256 */\n      0x00\n        /* \"contracts/libs/LibSwap.sol\":326:345  uint256 claimReward */\n      dup1\n        /* \"contracts/libs/LibSwap.sol\":371:379  _current */\n      dup3\n        /* \"contracts/libs/LibSwap.sol\":355:367  _liquidation */\n      dup6\n        /* \"contracts/libs/LibSwap.sol\":355:379  _liquidation >= _current */\n      lt\n        /* \"contracts/libs/LibSwap.sol\":351:560  if (_liquidation >= _current) {... */\n      tag_312\n      jumpi\n        /* \"contracts/libs/LibSwap.sol\":403:411  _deposit */\n      dup6\n        /* \"contracts/libs/LibSwap.sol\":389:411  claimReward = _deposit */\n      swap1\n      pop\n        /* \"contracts/libs/LibSwap.sol\":351:560  if (_liquidation >= _current) {... */\n      jump(tag_313)\n    tag_312:\n        /* \"contracts/libs/LibSwap.sol\":432:450  uint256 numOfAsset */\n      0x00\n        /* \"contracts/libs/LibSwap.sol\":453:493  _deposit.div(_initial.sub(_liquidation)) */\n      tag_314\n        /* \"contracts/libs/LibSwap.sol\":466:492  _initial.sub(_liquidation) */\n      tag_315\n        /* \"contracts/libs/LibSwap.sol\":479:491  _liquidation */\n      dup8\n        /* \"contracts/libs/LibSwap.sol\":466:474  _initial */\n      dup8\n        /* \"contracts/libs/LibSwap.sol\":466:478  _initial.sub */\n      tag_316\n      swap1\n        /* \"contracts/libs/LibSwap.sol\":466:492  _initial.sub(_liquidation) */\n      swap2\n      swap1\n      0xffffffff\n      and\n      jump\t// in\n    tag_315:\n        /* \"contracts/libs/LibSwap.sol\":453:461  _deposit */\n      dup9\n        /* \"contracts/libs/LibSwap.sol\":453:465  _deposit.div */\n      tag_241\n      swap1\n        /* \"contracts/libs/LibSwap.sol\":453:493  _deposit.div(_initial.sub(_liquidation)) */\n      swap2\n      swap1\n      0xffffffff\n      and\n      jump\t// in\n    tag_314:\n        /* \"contracts/libs/LibSwap.sol\":432:493  uint256 numOfAsset = _deposit.div(_initial.sub(_liquidation)) */\n      swap1\n      pop\n        /* \"contracts/libs/LibSwap.sol\":515:553  numOfAsset.mul(_initial.sub(_current)) */\n      tag_317\n        /* \"contracts/libs/LibSwap.sol\":530:552  _initial.sub(_current) */\n      tag_318\n        /* \"contracts/libs/LibSwap.sol\":543:551  _current */\n      dup6\n        /* \"contracts/libs/LibSwap.sol\":530:538  _initial */\n      dup8\n        /* \"contracts/libs/LibSwap.sol\":530:542  _initial.sub */\n      tag_316\n      swap1\n        /* \"contracts/libs/LibSwap.sol\":530:552  _initial.sub(_current) */\n      swap2\n      swap1\n      0xffffffff\n      and\n      jump\t// in\n    tag_318:\n        /* \"contracts/libs/LibSwap.sol\":515:525  numOfAsset */\n      dup3\n        /* \"contracts/libs/LibSwap.sol\":515:529  numOfAsset.mul */\n      tag_319\n      swap1\n        /* \"contracts/libs/LibSwap.sol\":515:553  numOfAsset.mul(_initial.sub(_current)) */\n      swap2\n      swap1\n      0xffffffff\n      and\n      jump\t// in\n    tag_317:\n        /* \"contracts/libs/LibSwap.sol\":501:553  claimReward = numOfAsset.mul(_initial.sub(_current)) */\n      swap2\n      pop\n        /* \"contracts/libs/LibSwap.sol\":424:560  {... */\n      pop\n        /* \"contracts/libs/LibSwap.sol\":351:560  if (_liquidation >= _current) {... */\n    tag_313:\n        /* \"contracts/libs/LibSwap.sol\":572:583  claimReward */\n      dup1\n        /* \"contracts/libs/LibSwap.sol\":565:583  return claimReward */\n      swap2\n      pop\n      pop\n        /* \"contracts/libs/LibSwap.sol\":167:588  function calcClaimReward(... */\n      swap5\n      swap4\n      pop\n      pop\n      pop\n      pop\n      jump\t// out\n        /* \"contracts/libs/LibSwap.sol\":592:795  function calcAmountOfAsset(... */\n    tag_283:\n        /* \"contracts/libs/LibSwap.sol\":722:729  uint256 */\n      0x00\n        /* \"contracts/libs/LibSwap.sol\":744:790  _sellerDeposit.div(_initial.sub(_liquidation)) */\n      tag_321\n        /* \"contracts/libs/LibSwap.sol\":763:789  _initial.sub(_liquidation) */\n      tag_322\n        /* \"contracts/libs/LibSwap.sol\":776:788  _liquidation */\n      dup5\n        /* \"contracts/libs/LibSwap.sol\":763:771  _initial */\n      dup7\n        /* \"contracts/libs/LibSwap.sol\":763:775  _initial.sub */\n      tag_316\n      swap1\n        /* \"contracts/libs/LibSwap.sol\":763:789  _initial.sub(_liquidation) */\n      swap2\n      swap1\n      0xffffffff\n      and\n      jump\t// in\n    tag_322:\n        /* \"contracts/libs/LibSwap.sol\":744:758  _sellerDeposit */\n      dup4\n        /* \"contracts/libs/LibSwap.sol\":744:762  _sellerDeposit.div */\n      tag_241\n      swap1\n        /* \"contracts/libs/LibSwap.sol\":744:790  _sellerDeposit.div(_initial.sub(_liquidation)) */\n      swap2\n      swap1\n      0xffffffff\n      and\n      jump\t// in\n    tag_321:\n        /* \"contracts/libs/LibSwap.sol\":737:790  return _sellerDeposit.div(_initial.sub(_liquidation)) */\n      swap1\n      pop\n        /* \"contracts/libs/LibSwap.sol\":592:795  function calcAmountOfAsset(... */\n      swap4\n      swap3\n      pop\n      pop\n      pop\n      jump\t// out\n        /* \"@openzeppelin/contracts/utils/Context.sol\":640:736  function _msgSender() internal view virtual returns (address) {... */\n    tag_294:\n        /* \"@openzeppelin/contracts/utils/Context.sol\":693:700  address */\n      0x00\n        /* \"@openzeppelin/contracts/utils/Context.sol\":719:729  msg.sender */\n      caller\n        /* \"@openzeppelin/contracts/utils/Context.sol\":712:729  return msg.sender */\n      swap1\n      pop\n        /* \"@openzeppelin/contracts/utils/Context.sol\":640:736  function _msgSender() internal view virtual returns (address) {... */\n      swap1\n      jump\t// out\n        /* \"@openzeppelin/contracts/utils/math/SafeMath.sol\":3122:3218  function sub(uint256 a, uint256 b) internal pure returns (uint256) {... */\n    tag_316:\n        /* \"@openzeppelin/contracts/utils/math/SafeMath.sol\":3180:3187  uint256 */\n      0x00\n        /* \"@openzeppelin/contracts/utils/math/SafeMath.sol\":3210:3211  b */\n      dup2\n        /* \"@openzeppelin/contracts/utils/math/SafeMath.sol\":3206:3207  a */\n      dup4\n        /* \"@openzeppelin/contracts/utils/math/SafeMath.sol\":3206:3211  a - b */\n      tag_325\n      swap2\n      swap1\n      tag_326\n      jump\t// in\n    tag_325:\n        /* \"@openzeppelin/contracts/utils/math/SafeMath.sol\":3199:3211  return a - b */\n      swap1\n      pop\n        /* \"@openzeppelin/contracts/utils/math/SafeMath.sol\":3122:3218  function sub(uint256 a, uint256 b) internal pure returns (uint256) {... */\n      swap3\n      swap2\n      pop\n      pop\n      jump\t// out\n        /* \"@openzeppelin/contracts/utils/math/SafeMath.sol\":3465:3561  function mul(uint256 a, uint256 b) internal pure returns (uint256) {... */\n    tag_319:\n        /* \"@openzeppelin/contracts/utils/math/SafeMath.sol\":3523:3530  uint256 */\n      0x00\n        /* \"@openzeppelin/contracts/utils/math/SafeMath.sol\":3553:3554  b */\n      dup2\n        /* \"@openzeppelin/contracts/utils/math/SafeMath.sol\":3549:3550  a */\n      dup4\n        /* \"@openzeppelin/contracts/utils/math/SafeMath.sol\":3549:3554  a * b */\n      tag_328\n      swap2\n      swap1\n      tag_329\n      jump\t// in\n    tag_328:\n        /* \"@openzeppelin/contracts/utils/math/SafeMath.sol\":3542:3554  return a * b */\n      swap1\n      pop\n        /* \"@openzeppelin/contracts/utils/math/SafeMath.sol\":3465:3561  function mul(uint256 a, uint256 b) internal pure returns (uint256) {... */\n      swap3\n      swap2\n      pop\n      pop\n      jump\t// out\n    tag_215:\n      mload(0x40)\n      dup1\n      0xa0\n      add\n      0x40\n      mstore\n      dup1\n      0x05\n      swap1\n      0x20\n      dup3\n      mul\n      dup1\n      calldatasize\n      dup4\n      calldatacopy\n      dup1\n      dup3\n      add\n      swap2\n      pop\n      pop\n      swap1\n      pop\n      pop\n      swap1\n      jump\t// out\n        /* \"#utility.yul\":7:84   */\n    tag_330:\n        /* \"#utility.yul\":44:51   */\n      0x00\n        /* \"#utility.yul\":73:78   */\n      dup2\n        /* \"#utility.yul\":62:78   */\n      swap1\n      pop\n        /* \"#utility.yul\":7:84   */\n      swap2\n      swap1\n      pop\n      jump\t// out\n        /* \"#utility.yul\":90:208   */\n    tag_331:\n        /* \"#utility.yul\":177:201   */\n      tag_380\n        /* \"#utility.yul\":195:200   */\n      dup2\n        /* \"#utility.yul\":177:201   */\n      tag_330\n      jump\t// in\n    tag_380:\n        /* \"#utility.yul\":172:175   */\n      dup3\n        /* \"#utility.yul\":165:202   */\n      mstore\n        /* \"#utility.yul\":90:208   */\n      pop\n      pop\n      jump\t// out\n        /* \"#utility.yul\":214:436   */\n    tag_43:\n        /* \"#utility.yul\":307:311   */\n      0x00\n        /* \"#utility.yul\":345:347   */\n      0x20\n        /* \"#utility.yul\":334:343   */\n      dup3\n        /* \"#utility.yul\":330:348   */\n      add\n        /* \"#utility.yul\":322:348   */\n      swap1\n      pop\n        /* \"#utility.yul\":358:429   */\n      tag_382\n        /* \"#utility.yul\":426:427   */\n      0x00\n        /* \"#utility.yul\":415:424   */\n      dup4\n        /* \"#utility.yul\":411:428   */\n      add\n        /* \"#utility.yul\":402:408   */\n      dup5\n        /* \"#utility.yul\":358:429   */\n      tag_331\n      jump\t// in\n    tag_382:\n        /* \"#utility.yul\":214:436   */\n      swap3\n      swap2\n      pop\n      pop\n      jump\t// out\n        /* \"#utility.yul\":442:622   */\n    tag_146:\n        /* \"#utility.yul\":490:567   */\n      0x4e487b7100000000000000000000000000000000000000000000000000000000\n        /* \"#utility.yul\":487:488   */\n      0x00\n        /* \"#utility.yul\":480:568   */\n      mstore\n        /* \"#utility.yul\":587:591   */\n      0x21\n        /* \"#utility.yul\":584:585   */\n      0x04\n        /* \"#utility.yul\":577:592   */\n      mstore\n        /* \"#utility.yul\":611:615   */\n      0x24\n        /* \"#utility.yul\":608:609   */\n      0x00\n        /* \"#utility.yul\":601:616   */\n      revert\n        /* \"#utility.yul\":628:743   */\n    tag_332:\n        /* \"#utility.yul\":711:712   */\n      0x05\n        /* \"#utility.yul\":704:709   */\n      dup2\n        /* \"#utility.yul\":701:713   */\n      lt\n        /* \"#utility.yul\":691:737   */\n      tag_385\n      jumpi\n        /* \"#utility.yul\":717:735   */\n      tag_386\n      tag_146\n      jump\t// in\n    tag_386:\n        /* \"#utility.yul\":691:737   */\n    tag_385:\n        /* \"#utility.yul\":628:743   */\n      pop\n      jump\t// out\n        /* \"#utility.yul\":749:880   */\n    tag_333:\n        /* \"#utility.yul\":796:803   */\n      0x00\n        /* \"#utility.yul\":825:830   */\n      dup2\n        /* \"#utility.yul\":814:830   */\n      swap1\n      pop\n        /* \"#utility.yul\":831:874   */\n      tag_388\n        /* \"#utility.yul\":868:873   */\n      dup3\n        /* \"#utility.yul\":831:874   */\n      tag_332\n      jump\t// in\n    tag_388:\n        /* \"#utility.yul\":749:880   */\n      swap2\n      swap1\n      pop\n      jump\t// out\n        /* \"#utility.yul\":886:1017   */\n    tag_334:\n        /* \"#utility.yul\":944:953   */\n      0x00\n        /* \"#utility.yul\":977:1011   */\n      tag_390\n        /* \"#utility.yul\":1005:1010   */\n      dup3\n        /* \"#utility.yul\":977:1011   */\n      tag_333\n      jump\t// in\n    tag_390:\n        /* \"#utility.yul\":964:1011   */\n      swap1\n      pop\n        /* \"#utility.yul\":886:1017   */\n      swap2\n      swap1\n      pop\n      jump\t// out\n        /* \"#utility.yul\":1023:1170   */\n    tag_335:\n        /* \"#utility.yul\":1118:1163   */\n      tag_392\n        /* \"#utility.yul\":1157:1162   */\n      dup2\n        /* \"#utility.yul\":1118:1163   */\n      tag_334\n      jump\t// in\n    tag_392:\n        /* \"#utility.yul\":1113:1116   */\n      dup3\n        /* \"#utility.yul\":1106:1164   */\n      mstore\n        /* \"#utility.yul\":1023:1170   */\n      pop\n      pop\n      jump\t// out\n        /* \"#utility.yul\":1176:1414   */\n    tag_47:\n        /* \"#utility.yul\":1277:1281   */\n      0x00\n        /* \"#utility.yul\":1315:1317   */\n      0x20\n        /* \"#utility.yul\":1304:1313   */\n      dup3\n        /* \"#utility.yul\":1300:1318   */\n      add\n        /* \"#utility.yul\":1292:1318   */\n      swap1\n      pop\n        /* \"#utility.yul\":1328:1407   */\n      tag_394\n        /* \"#utility.yul\":1404:1405   */\n      0x00\n        /* \"#utility.yul\":1393:1402   */\n      dup4\n        /* \"#utility.yul\":1389:1406   */\n      add\n        /* \"#utility.yul\":1380:1386   */\n      dup5\n        /* \"#utility.yul\":1328:1407   */\n      tag_335\n      jump\t// in\n    tag_394:\n        /* \"#utility.yul\":1176:1414   */\n      swap3\n      swap2\n      pop\n      pop\n      jump\t// out\n        /* \"#utility.yul\":1420:1513   */\n    tag_336:\n        /* \"#utility.yul\":1456:1463   */\n      0x00\n        /* \"#utility.yul\":1496:1506   */\n      0xffffffff\n        /* \"#utility.yul\":1489:1494   */\n      dup3\n        /* \"#utility.yul\":1485:1507   */\n      and\n        /* \"#utility.yul\":1474:1507   */\n      swap1\n      pop\n        /* \"#utility.yul\":1420:1513   */\n      swap2\n      swap1\n      pop\n      jump\t// out\n        /* \"#utility.yul\":1519:1634   */\n    tag_337:\n        /* \"#utility.yul\":1604:1627   */\n      tag_397\n        /* \"#utility.yul\":1621:1626   */\n      dup2\n        /* \"#utility.yul\":1604:1627   */\n      tag_336\n      jump\t// in\n    tag_397:\n        /* \"#utility.yul\":1599:1602   */\n      dup3\n        /* \"#utility.yul\":1592:1628   */\n      mstore\n        /* \"#utility.yul\":1519:1634   */\n      pop\n      pop\n      jump\t// out\n        /* \"#utility.yul\":1640:1858   */\n    tag_51:\n        /* \"#utility.yul\":1731:1735   */\n      0x00\n        /* \"#utility.yul\":1769:1771   */\n      0x20\n        /* \"#utility.yul\":1758:1767   */\n      dup3\n        /* \"#utility.yul\":1754:1772   */\n      add\n        /* \"#utility.yul\":1746:1772   */\n      swap1\n      pop\n        /* \"#utility.yul\":1782:1851   */\n      tag_399\n        /* \"#utility.yul\":1848:1849   */\n      0x00\n        /* \"#utility.yul\":1837:1846   */\n      dup4\n        /* \"#utility.yul\":1833:1850   */\n      add\n        /* \"#utility.yul\":1824:1830   */\n      dup5\n        /* \"#utility.yul\":1782:1851   */\n      tag_337\n      jump\t// in\n    tag_399:\n        /* \"#utility.yul\":1640:1858   */\n      swap3\n      swap2\n      pop\n      pop\n      jump\t// out\n        /* \"#utility.yul\":1864:1990   */\n    tag_338:\n        /* \"#utility.yul\":1901:1908   */\n      0x00\n        /* \"#utility.yul\":1941:1983   */\n      0xffffffffffffffffffffffffffffffffffffffff\n        /* \"#utility.yul\":1934:1939   */\n      dup3\n        /* \"#utility.yul\":1930:1984   */\n      and\n        /* \"#utility.yul\":1919:1984   */\n      swap1\n      pop\n        /* \"#utility.yul\":1864:1990   */\n      swap2\n      swap1\n      pop\n      jump\t// out\n        /* \"#utility.yul\":1996:2092   */\n    tag_339:\n        /* \"#utility.yul\":2033:2040   */\n      0x00\n        /* \"#utility.yul\":2062:2086   */\n      tag_402\n        /* \"#utility.yul\":2080:2085   */\n      dup3\n        /* \"#utility.yul\":2062:2086   */\n      tag_338\n      jump\t// in\n    tag_402:\n        /* \"#utility.yul\":2051:2086   */\n      swap1\n      pop\n        /* \"#utility.yul\":1996:2092   */\n      swap2\n      swap1\n      pop\n      jump\t// out\n        /* \"#utility.yul\":2098:2216   */\n    tag_340:\n        /* \"#utility.yul\":2185:2209   */\n      tag_404\n        /* \"#utility.yul\":2203:2208   */\n      dup2\n        /* \"#utility.yul\":2185:2209   */\n      tag_339\n      jump\t// in\n    tag_404:\n        /* \"#utility.yul\":2180:2183   */\n      dup3\n        /* \"#utility.yul\":2173:2210   */\n      mstore\n        /* \"#utility.yul\":2098:2216   */\n      pop\n      pop\n      jump\t// out\n        /* \"#utility.yul\":2222:2444   */\n    tag_64:\n        /* \"#utility.yul\":2315:2319   */\n      0x00\n        /* \"#utility.yul\":2353:2355   */\n      0x20\n        /* \"#utility.yul\":2342:2351   */\n      dup3\n        /* \"#utility.yul\":2338:2356   */\n      add\n        /* \"#utility.yul\":2330:2356   */\n      swap1\n      pop\n        /* \"#utility.yul\":2366:2437   */\n      tag_406\n        /* \"#utility.yul\":2434:2435   */\n      0x00\n        /* \"#utility.yul\":2423:2432   */\n      dup4\n        /* \"#utility.yul\":2419:2436   */\n      add\n        /* \"#utility.yul\":2410:2416   */\n      dup5\n        /* \"#utility.yul\":2366:2437   */\n      tag_340\n      jump\t// in\n    tag_406:\n        /* \"#utility.yul\":2222:2444   */\n      swap3\n      swap2\n      pop\n      pop\n      jump\t// out\n        /* \"#utility.yul\":2450:2540   */\n    tag_341:\n        /* \"#utility.yul\":2484:2491   */\n      0x00\n        /* \"#utility.yul\":2527:2532   */\n      dup2\n        /* \"#utility.yul\":2520:2533   */\n      iszero\n        /* \"#utility.yul\":2513:2534   */\n      iszero\n        /* \"#utility.yul\":2502:2534   */\n      swap1\n      pop\n        /* \"#utility.yul\":2450:2540   */\n      swap2\n      swap1\n      pop\n      jump\t// out\n        /* \"#utility.yul\":2546:2655   */\n    tag_342:\n        /* \"#utility.yul\":2627:2648   */\n      tag_409\n        /* \"#utility.yul\":2642:2647   */\n      dup2\n        /* \"#utility.yul\":2627:2648   */\n      tag_341\n      jump\t// in\n    tag_409:\n        /* \"#utility.yul\":2622:2625   */\n      dup3\n        /* \"#utility.yul\":2615:2649   */\n      mstore\n        /* \"#utility.yul\":2546:2655   */\n      pop\n      pop\n      jump\t// out\n        /* \"#utility.yul\":2661:2871   */\n    tag_70:\n        /* \"#utility.yul\":2748:2752   */\n      0x00\n        /* \"#utility.yul\":2786:2788   */\n      0x20\n        /* \"#utility.yul\":2775:2784   */\n      dup3\n        /* \"#utility.yul\":2771:2789   */\n      add\n        /* \"#utility.yul\":2763:2789   */\n      swap1\n      pop\n        /* \"#utility.yul\":2799:2864   */\n      tag_411\n        /* \"#utility.yul\":2861:2862   */\n      0x00\n        /* \"#utility.yul\":2850:2859   */\n      dup4\n        /* \"#utility.yul\":2846:2863   */\n      add\n        /* \"#utility.yul\":2837:2843   */\n      dup5\n        /* \"#utility.yul\":2799:2864   */\n      tag_342\n      jump\t// in\n    tag_411:\n        /* \"#utility.yul\":2661:2871   */\n      swap3\n      swap2\n      pop\n      pop\n      jump\t// out\n        /* \"#utility.yul\":2958:3075   */\n    tag_344:\n        /* \"#utility.yul\":3067:3068   */\n      0x00\n        /* \"#utility.yul\":3064:3065   */\n      dup1\n        /* \"#utility.yul\":3057:3069   */\n      revert\n        /* \"#utility.yul\":3204:3326   */\n    tag_346:\n        /* \"#utility.yul\":3277:3301   */\n      tag_416\n        /* \"#utility.yul\":3295:3300   */\n      dup2\n        /* \"#utility.yul\":3277:3301   */\n      tag_339\n      jump\t// in\n    tag_416:\n        /* \"#utility.yul\":3270:3275   */\n      dup2\n        /* \"#utility.yul\":3267:3302   */\n      eq\n        /* \"#utility.yul\":3257:3320   */\n      tag_417\n      jumpi\n        /* \"#utility.yul\":3316:3317   */\n      0x00\n        /* \"#utility.yul\":3313:3314   */\n      dup1\n        /* \"#utility.yul\":3306:3318   */\n      revert\n        /* \"#utility.yul\":3257:3320   */\n    tag_417:\n        /* \"#utility.yul\":3204:3326   */\n      pop\n      jump\t// out\n        /* \"#utility.yul\":3332:3471   */\n    tag_347:\n        /* \"#utility.yul\":3378:3383   */\n      0x00\n        /* \"#utility.yul\":3416:3422   */\n      dup2\n        /* \"#utility.yul\":3403:3423   */\n      calldataload\n        /* \"#utility.yul\":3394:3423   */\n      swap1\n      pop\n        /* \"#utility.yul\":3432:3465   */\n      tag_419\n        /* \"#utility.yul\":3459:3464   */\n      dup2\n        /* \"#utility.yul\":3432:3465   */\n      tag_346\n      jump\t// in\n    tag_419:\n        /* \"#utility.yul\":3332:3471   */\n      swap3\n      swap2\n      pop\n      pop\n      jump\t// out\n        /* \"#utility.yul\":3477:3806   */\n    tag_85:\n        /* \"#utility.yul\":3536:3542   */\n      0x00\n        /* \"#utility.yul\":3585:3587   */\n      0x20\n        /* \"#utility.yul\":3573:3582   */\n      dup3\n        /* \"#utility.yul\":3564:3571   */\n      dup5\n        /* \"#utility.yul\":3560:3583   */\n      sub\n        /* \"#utility.yul\":3556:3588   */\n      slt\n        /* \"#utility.yul\":3553:3672   */\n      iszero\n      tag_421\n      jumpi\n        /* \"#utility.yul\":3591:3670   */\n      tag_422\n      tag_344\n      jump\t// in\n    tag_422:\n        /* \"#utility.yul\":3553:3672   */\n    tag_421:\n        /* \"#utility.yul\":3711:3712   */\n      0x00\n        /* \"#utility.yul\":3736:3789   */\n      tag_423\n        /* \"#utility.yul\":3781:3788   */\n      dup5\n        /* \"#utility.yul\":3772:3778   */\n      dup3\n        /* \"#utility.yul\":3761:3770   */\n      dup6\n        /* \"#utility.yul\":3757:3779   */\n      add\n        /* \"#utility.yul\":3736:3789   */\n      tag_347\n      jump\t// in\n    tag_423:\n        /* \"#utility.yul\":3726:3789   */\n      swap2\n      pop\n        /* \"#utility.yul\":3682:3799   */\n      pop\n        /* \"#utility.yul\":3477:3806   */\n      swap3\n      swap2\n      pop\n      pop\n      jump\t// out\n        /* \"#utility.yul\":3812:3928   */\n    tag_348:\n        /* \"#utility.yul\":3882:3903   */\n      tag_425\n        /* \"#utility.yul\":3897:3902   */\n      dup2\n        /* \"#utility.yul\":3882:3903   */\n      tag_341\n      jump\t// in\n    tag_425:\n        /* \"#utility.yul\":3875:3880   */\n      dup2\n        /* \"#utility.yul\":3872:3904   */\n      eq\n        /* \"#utility.yul\":3862:3922   */\n      tag_426\n      jumpi\n        /* \"#utility.yul\":3918:3919   */\n      0x00\n        /* \"#utility.yul\":3915:3916   */\n      dup1\n        /* \"#utility.yul\":3908:3920   */\n      revert\n        /* \"#utility.yul\":3862:3922   */\n    tag_426:\n        /* \"#utility.yul\":3812:3928   */\n      pop\n      jump\t// out\n        /* \"#utility.yul\":3934:4067   */\n    tag_349:\n        /* \"#utility.yul\":3977:3982   */\n      0x00\n        /* \"#utility.yul\":4015:4021   */\n      dup2\n        /* \"#utility.yul\":4002:4022   */\n      calldataload\n        /* \"#utility.yul\":3993:4022   */\n      swap1\n      pop\n        /* \"#utility.yul\":4031:4061   */\n      tag_428\n        /* \"#utility.yul\":4055:4060   */\n      dup2\n        /* \"#utility.yul\":4031:4061   */\n      tag_348\n      jump\t// in\n    tag_428:\n        /* \"#utility.yul\":3934:4067   */\n      swap3\n      swap2\n      pop\n      pop\n      jump\t// out\n        /* \"#utility.yul\":4073:4541   */\n    tag_93:\n        /* \"#utility.yul\":4138:4144   */\n      0x00\n        /* \"#utility.yul\":4146:4152   */\n      dup1\n        /* \"#utility.yul\":4195:4197   */\n      0x40\n        /* \"#utility.yul\":4183:4192   */\n      dup4\n        /* \"#utility.yul\":4174:4181   */\n      dup6\n        /* \"#utility.yul\":4170:4193   */\n      sub\n        /* \"#utility.yul\":4166:4198   */\n      slt\n        /* \"#utility.yul\":4163:4282   */\n      iszero\n      tag_430\n      jumpi\n        /* \"#utility.yul\":4201:4280   */\n      tag_431\n      tag_344\n      jump\t// in\n    tag_431:\n        /* \"#utility.yul\":4163:4282   */\n    tag_430:\n        /* \"#utility.yul\":4321:4322   */\n      0x00\n        /* \"#utility.yul\":4346:4399   */\n      tag_432\n        /* \"#utility.yul\":4391:4398   */\n      dup6\n        /* \"#utility.yul\":4382:4388   */\n      dup3\n        /* \"#utility.yul\":4371:4380   */\n      dup7\n        /* \"#utility.yul\":4367:4389   */\n      add\n        /* \"#utility.yul\":4346:4399   */\n      tag_347\n      jump\t// in\n    tag_432:\n        /* \"#utility.yul\":4336:4399   */\n      swap3\n      pop\n        /* \"#utility.yul\":4292:4409   */\n      pop\n        /* \"#utility.yul\":4448:4450   */\n      0x20\n        /* \"#utility.yul\":4474:4524   */\n      tag_433\n        /* \"#utility.yul\":4516:4523   */\n      dup6\n        /* \"#utility.yul\":4507:4513   */\n      dup3\n        /* \"#utility.yul\":4496:4505   */\n      dup7\n        /* \"#utility.yul\":4492:4514   */\n      add\n        /* \"#utility.yul\":4474:4524   */\n      tag_349\n      jump\t// in\n    tag_433:\n        /* \"#utility.yul\":4464:4524   */\n      swap2\n      pop\n        /* \"#utility.yul\":4419:4534   */\n      pop\n        /* \"#utility.yul\":4073:4541   */\n      swap3\n      pop\n      swap3\n      swap1\n      pop\n      jump\t// out\n        /* \"#utility.yul\":4547:4651   */\n    tag_350:\n        /* \"#utility.yul\":4612:4618   */\n      0x00\n        /* \"#utility.yul\":4640:4644   */\n      0x05\n        /* \"#utility.yul\":4630:4644   */\n      swap1\n      pop\n        /* \"#utility.yul\":4547:4651   */\n      swap2\n      swap1\n      pop\n      jump\t// out\n        /* \"#utility.yul\":4657:4800   */\n    tag_351:\n        /* \"#utility.yul\":4754:4765   */\n      0x00\n        /* \"#utility.yul\":4791:4794   */\n      dup2\n        /* \"#utility.yul\":4776:4794   */\n      swap1\n      pop\n        /* \"#utility.yul\":4657:4800   */\n      swap3\n      swap2\n      pop\n      pop\n      jump\t// out\n        /* \"#utility.yul\":4806:4904   */\n    tag_352:\n        /* \"#utility.yul\":4871:4875   */\n      0x00\n        /* \"#utility.yul\":4894:4897   */\n      dup2\n        /* \"#utility.yul\":4886:4897   */\n      swap1\n      pop\n        /* \"#utility.yul\":4806:4904   */\n      swap2\n      swap1\n      pop\n      jump\t// out\n        /* \"#utility.yul\":4910:5018   */\n    tag_353:\n        /* \"#utility.yul\":4987:5011   */\n      tag_438\n        /* \"#utility.yul\":5005:5010   */\n      dup2\n        /* \"#utility.yul\":4987:5011   */\n      tag_330\n      jump\t// in\n    tag_438:\n        /* \"#utility.yul\":4982:4985   */\n      dup3\n        /* \"#utility.yul\":4975:5012   */\n      mstore\n        /* \"#utility.yul\":4910:5018   */\n      pop\n      pop\n      jump\t// out\n        /* \"#utility.yul\":5024:5203   */\n    tag_354:\n        /* \"#utility.yul\":5093:5103   */\n      0x00\n        /* \"#utility.yul\":5114:5160   */\n      tag_440\n        /* \"#utility.yul\":5156:5159   */\n      dup4\n        /* \"#utility.yul\":5148:5154   */\n      dup4\n        /* \"#utility.yul\":5114:5160   */\n      tag_353\n      jump\t// in\n    tag_440:\n        /* \"#utility.yul\":5192:5196   */\n      0x20\n        /* \"#utility.yul\":5187:5190   */\n      dup4\n        /* \"#utility.yul\":5183:5197   */\n      add\n        /* \"#utility.yul\":5169:5197   */\n      swap1\n      pop\n        /* \"#utility.yul\":5024:5203   */\n      swap3\n      swap2\n      pop\n      pop\n      jump\t// out\n        /* \"#utility.yul\":5209:5320   */\n    tag_355:\n        /* \"#utility.yul\":5277:5281   */\n      0x00\n        /* \"#utility.yul\":5309:5313   */\n      0x20\n        /* \"#utility.yul\":5304:5307   */\n      dup3\n        /* \"#utility.yul\":5300:5314   */\n      add\n        /* \"#utility.yul\":5292:5314   */\n      swap1\n      pop\n        /* \"#utility.yul\":5209:5320   */\n      swap2\n      swap1\n      pop\n      jump\t// out\n        /* \"#utility.yul\":5358:6052   */\n    tag_356:\n        /* \"#utility.yul\":5494:5546   */\n      tag_443\n        /* \"#utility.yul\":5540:5545   */\n      dup2\n        /* \"#utility.yul\":5494:5546   */\n      tag_350\n      jump\t// in\n    tag_443:\n        /* \"#utility.yul\":5562:5646   */\n      tag_444\n        /* \"#utility.yul\":5639:5645   */\n      dup2\n        /* \"#utility.yul\":5634:5637   */\n      dup5\n        /* \"#utility.yul\":5562:5646   */\n      tag_351\n      jump\t// in\n    tag_444:\n        /* \"#utility.yul\":5555:5646   */\n      swap3\n      pop\n        /* \"#utility.yul\":5670:5724   */\n      tag_445\n        /* \"#utility.yul\":5718:5723   */\n      dup3\n        /* \"#utility.yul\":5670:5724   */\n      tag_352\n      jump\t// in\n    tag_445:\n        /* \"#utility.yul\":5747:5754   */\n      dup1\n        /* \"#utility.yul\":5778:5779   */\n      0x00\n        /* \"#utility.yul\":5763:6045   */\n    tag_446:\n        /* \"#utility.yul\":5788:5794   */\n      dup4\n        /* \"#utility.yul\":5785:5786   */\n      dup2\n        /* \"#utility.yul\":5782:5795   */\n      lt\n        /* \"#utility.yul\":5763:6045   */\n      iszero\n      tag_448\n      jumpi\n        /* \"#utility.yul\":5864:5870   */\n      dup2\n        /* \"#utility.yul\":5858:5871   */\n      mload\n        /* \"#utility.yul\":5891:5954   */\n      tag_449\n        /* \"#utility.yul\":5950:5953   */\n      dup8\n        /* \"#utility.yul\":5935:5948   */\n      dup3\n        /* \"#utility.yul\":5891:5954   */\n      tag_354\n      jump\t// in\n    tag_449:\n        /* \"#utility.yul\":5884:5954   */\n      swap7\n      pop\n        /* \"#utility.yul\":5977:6035   */\n      tag_450\n        /* \"#utility.yul\":6028:6034   */\n      dup4\n        /* \"#utility.yul\":5977:6035   */\n      tag_355\n      jump\t// in\n    tag_450:\n        /* \"#utility.yul\":5967:6035   */\n      swap3\n      pop\n        /* \"#utility.yul\":5823:6045   */\n      pop\n        /* \"#utility.yul\":5810:5811   */\n      0x01\n        /* \"#utility.yul\":5807:5808   */\n      dup2\n        /* \"#utility.yul\":5803:5812   */\n      add\n        /* \"#utility.yul\":5798:5812   */\n      swap1\n      pop\n        /* \"#utility.yul\":5763:6045   */\n      jump(tag_446)\n    tag_448:\n        /* \"#utility.yul\":5767:5781   */\n      pop\n        /* \"#utility.yul\":5470:6052   */\n      pop\n      pop\n      pop\n        /* \"#utility.yul\":5358:6052   */\n      pop\n      pop\n      jump\t// out\n        /* \"#utility.yul\":6058:6373   */\n    tag_98:\n        /* \"#utility.yul\":6197:6201   */\n      0x00\n        /* \"#utility.yul\":6235:6238   */\n      0xa0\n        /* \"#utility.yul\":6224:6233   */\n      dup3\n        /* \"#utility.yul\":6220:6239   */\n      add\n        /* \"#utility.yul\":6212:6239   */\n      swap1\n      pop\n        /* \"#utility.yul\":6249:6366   */\n      tag_452\n        /* \"#utility.yul\":6363:6364   */\n      0x00\n        /* \"#utility.yul\":6352:6361   */\n      dup4\n        /* \"#utility.yul\":6348:6365   */\n      add\n        /* \"#utility.yul\":6339:6345   */\n      dup5\n        /* \"#utility.yul\":6249:6366   */\n      tag_356\n      jump\t// in\n    tag_452:\n        /* \"#utility.yul\":6058:6373   */\n      swap3\n      swap2\n      pop\n      pop\n      jump\t// out\n        /* \"#utility.yul\":6379:6501   */\n    tag_357:\n        /* \"#utility.yul\":6452:6476   */\n      tag_454\n        /* \"#utility.yul\":6470:6475   */\n      dup2\n        /* \"#utility.yul\":6452:6476   */\n      tag_330\n      jump\t// in\n    tag_454:\n        /* \"#utility.yul\":6445:6450   */\n      dup2\n        /* \"#utility.yul\":6442:6477   */\n      eq\n        /* \"#utility.yul\":6432:6495   */\n      tag_455\n      jumpi\n        /* \"#utility.yul\":6491:6492   */\n      0x00\n        /* \"#utility.yul\":6488:6489   */\n      dup1\n        /* \"#utility.yul\":6481:6493   */\n      revert\n        /* \"#utility.yul\":6432:6495   */\n    tag_455:\n        /* \"#utility.yul\":6379:6501   */\n      pop\n      jump\t// out\n        /* \"#utility.yul\":6507:6646   */\n    tag_358:\n        /* \"#utility.yul\":6553:6558   */\n      0x00\n        /* \"#utility.yul\":6591:6597   */\n      dup2\n        /* \"#utility.yul\":6578:6598   */\n      calldataload\n        /* \"#utility.yul\":6569:6598   */\n      swap1\n      pop\n        /* \"#utility.yul\":6607:6640   */\n      tag_457\n        /* \"#utility.yul\":6634:6639   */\n      dup2\n        /* \"#utility.yul\":6607:6640   */\n      tag_357\n      jump\t// in\n    tag_457:\n        /* \"#utility.yul\":6507:6646   */\n      swap3\n      swap2\n      pop\n      pop\n      jump\t// out\n        /* \"#utility.yul\":6652:6981   */\n    tag_101:\n        /* \"#utility.yul\":6711:6717   */\n      0x00\n        /* \"#utility.yul\":6760:6762   */\n      0x20\n        /* \"#utility.yul\":6748:6757   */\n      dup3\n        /* \"#utility.yul\":6739:6746   */\n      dup5\n        /* \"#utility.yul\":6735:6758   */\n      sub\n        /* \"#utility.yul\":6731:6763   */\n      slt\n        /* \"#utility.yul\":6728:6847   */\n      iszero\n      tag_459\n      jumpi\n        /* \"#utility.yul\":6766:6845   */\n      tag_460\n      tag_344\n      jump\t// in\n    tag_460:\n        /* \"#utility.yul\":6728:6847   */\n    tag_459:\n        /* \"#utility.yul\":6886:6887   */\n      0x00\n        /* \"#utility.yul\":6911:6964   */\n      tag_461\n        /* \"#utility.yul\":6956:6963   */\n      dup5\n        /* \"#utility.yul\":6947:6953   */\n      dup3\n        /* \"#utility.yul\":6936:6945   */\n      dup6\n        /* \"#utility.yul\":6932:6954   */\n      add\n        /* \"#utility.yul\":6911:6964   */\n      tag_358\n      jump\t// in\n    tag_461:\n        /* \"#utility.yul\":6901:6964   */\n      swap2\n      pop\n        /* \"#utility.yul\":6857:6974   */\n      pop\n        /* \"#utility.yul\":6652:6981   */\n      swap3\n      swap2\n      pop\n      pop\n      jump\t// out\n        /* \"#utility.yul\":6987:7600   */\n    tag_106:\n        /* \"#utility.yul\":7061:7067   */\n      0x00\n        /* \"#utility.yul\":7069:7075   */\n      dup1\n        /* \"#utility.yul\":7077:7083   */\n      0x00\n        /* \"#utility.yul\":7126:7128   */\n      0x60\n        /* \"#utility.yul\":7114:7123   */\n      dup5\n        /* \"#utility.yul\":7105:7112   */\n      dup7\n        /* \"#utility.yul\":7101:7124   */\n      sub\n        /* \"#utility.yul\":7097:7129   */\n      slt\n        /* \"#utility.yul\":7094:7213   */\n      iszero\n      tag_463\n      jumpi\n        /* \"#utility.yul\":7132:7211   */\n      tag_464\n      tag_344\n      jump\t// in\n    tag_464:\n        /* \"#utility.yul\":7094:7213   */\n    tag_463:\n        /* \"#utility.yul\":7252:7253   */\n      0x00\n        /* \"#utility.yul\":7277:7330   */\n      tag_465\n        /* \"#utility.yul\":7322:7329   */\n      dup7\n        /* \"#utility.yul\":7313:7319   */\n      dup3\n        /* \"#utility.yul\":7302:7311   */\n      dup8\n        /* \"#utility.yul\":7298:7320   */\n      add\n        /* \"#utility.yul\":7277:7330   */\n      tag_358\n      jump\t// in\n    tag_465:\n        /* \"#utility.yul\":7267:7330   */\n      swap4\n      pop\n        /* \"#utility.yul\":7223:7340   */\n      pop\n        /* \"#utility.yul\":7379:7381   */\n      0x20\n        /* \"#utility.yul\":7405:7458   */\n      tag_466\n        /* \"#utility.yul\":7450:7457   */\n      dup7\n        /* \"#utility.yul\":7441:7447   */\n      dup3\n        /* \"#utility.yul\":7430:7439   */\n      dup8\n        /* \"#utility.yul\":7426:7448   */\n      add\n        /* \"#utility.yul\":7405:7458   */\n      tag_347\n      jump\t// in\n    tag_466:\n        /* \"#utility.yul\":7395:7458   */\n      swap3\n      pop\n        /* \"#utility.yul\":7350:7468   */\n      pop\n        /* \"#utility.yul\":7507:7509   */\n      0x40\n        /* \"#utility.yul\":7533:7583   */\n      tag_467\n        /* \"#utility.yul\":7575:7582   */\n      dup7\n        /* \"#utility.yul\":7566:7572   */\n      dup3\n        /* \"#utility.yul\":7555:7564   */\n      dup8\n        /* \"#utility.yul\":7551:7573   */\n      add\n        /* \"#utility.yul\":7533:7583   */\n      tag_349\n      jump\t// in\n    tag_467:\n        /* \"#utility.yul\":7523:7583   */\n      swap2\n      pop\n        /* \"#utility.yul\":7478:7593   */\n      pop\n        /* \"#utility.yul\":6987:7600   */\n      swap3\n      pop\n      swap3\n      pop\n      swap3\n      jump\t// out\n        /* \"#utility.yul\":7606:7726   */\n    tag_359:\n        /* \"#utility.yul\":7678:7701   */\n      tag_469\n        /* \"#utility.yul\":7695:7700   */\n      dup2\n        /* \"#utility.yul\":7678:7701   */\n      tag_336\n      jump\t// in\n    tag_469:\n        /* \"#utility.yul\":7671:7676   */\n      dup2\n        /* \"#utility.yul\":7668:7702   */\n      eq\n        /* \"#utility.yul\":7658:7720   */\n      tag_470\n      jumpi\n        /* \"#utility.yul\":7716:7717   */\n      0x00\n        /* \"#utility.yul\":7713:7714   */\n      dup1\n        /* \"#utility.yul\":7706:7718   */\n      revert\n        /* \"#utility.yul\":7658:7720   */\n    tag_470:\n        /* \"#utility.yul\":7606:7726   */\n      pop\n      jump\t// out\n        /* \"#utility.yul\":7732:7869   */\n    tag_360:\n        /* \"#utility.yul\":7777:7782   */\n      0x00\n        /* \"#utility.yul\":7815:7821   */\n      dup2\n        /* \"#utility.yul\":7802:7822   */\n      calldataload\n        /* \"#utility.yul\":7793:7822   */\n      swap1\n      pop\n        /* \"#utility.yul\":7831:7863   */\n      tag_472\n        /* \"#utility.yul\":7857:7862   */\n      dup2\n        /* \"#utility.yul\":7831:7863   */\n      tag_359\n      jump\t// in\n    tag_472:\n        /* \"#utility.yul\":7732:7869   */\n      swap3\n      swap2\n      pop\n      pop\n      jump\t// out\n        /* \"#utility.yul\":7875:8202   */\n    tag_110:\n        /* \"#utility.yul\":7933:7939   */\n      0x00\n        /* \"#utility.yul\":7982:7984   */\n      0x20\n        /* \"#utility.yul\":7970:7979   */\n      dup3\n        /* \"#utility.yul\":7961:7968   */\n      dup5\n        /* \"#utility.yul\":7957:7980   */\n      sub\n        /* \"#utility.yul\":7953:7985   */\n      slt\n        /* \"#utility.yul\":7950:8069   */\n      iszero\n      tag_474\n      jumpi\n        /* \"#utility.yul\":7988:8067   */\n      tag_475\n      tag_344\n      jump\t// in\n    tag_475:\n        /* \"#utility.yul\":7950:8069   */\n    tag_474:\n        /* \"#utility.yul\":8108:8109   */\n      0x00\n        /* \"#utility.yul\":8133:8185   */\n      tag_476\n        /* \"#utility.yul\":8177:8184   */\n      dup5\n        /* \"#utility.yul\":8168:8174   */\n      dup3\n        /* \"#utility.yul\":8157:8166   */\n      dup6\n        /* \"#utility.yul\":8153:8175   */\n      add\n        /* \"#utility.yul\":8133:8185   */\n      tag_360\n      jump\t// in\n    tag_476:\n        /* \"#utility.yul\":8123:8185   */\n      swap2\n      pop\n        /* \"#utility.yul\":8079:8195   */\n      pop\n        /* \"#utility.yul\":7875:8202   */\n      swap3\n      swap2\n      pop\n      pop\n      jump\t// out\n        /* \"#utility.yul\":8208:8377   */\n    tag_361:\n        /* \"#utility.yul\":8292:8303   */\n      0x00\n        /* \"#utility.yul\":8326:8332   */\n      dup3\n        /* \"#utility.yul\":8321:8324   */\n      dup3\n        /* \"#utility.yul\":8314:8333   */\n      mstore\n        /* \"#utility.yul\":8366:8370   */\n      0x20\n        /* \"#utility.yul\":8361:8364   */\n      dup3\n        /* \"#utility.yul\":8357:8371   */\n      add\n        /* \"#utility.yul\":8342:8371   */\n      swap1\n      pop\n        /* \"#utility.yul\":8208:8377   */\n      swap3\n      swap2\n      pop\n      pop\n      jump\t// out\n        /* \"#utility.yul\":8383:8608   */\n    tag_362:\n        /* \"#utility.yul\":8523:8557   */\n      0x54686520737461747573206f6620746865204344532073686f756c6420626520\n        /* \"#utility.yul\":8519:8520   */\n      0x00\n        /* \"#utility.yul\":8511:8517   */\n      dup3\n        /* \"#utility.yul\":8507:8521   */\n      add\n        /* \"#utility.yul\":8500:8558   */\n      mstore\n        /* \"#utility.yul\":8592:8600   */\n      0x6163746976650000000000000000000000000000000000000000000000000000\n        /* \"#utility.yul\":8587:8589   */\n      0x20\n        /* \"#utility.yul\":8579:8585   */\n      dup3\n        /* \"#utility.yul\":8575:8590   */\n      add\n        /* \"#utility.yul\":8568:8601   */\n      mstore\n        /* \"#utility.yul\":8383:8608   */\n      pop\n      jump\t// out\n        /* \"#utility.yul\":8614:8980   */\n    tag_363:\n        /* \"#utility.yul\":8756:8759   */\n      0x00\n        /* \"#utility.yul\":8777:8844   */\n      tag_480\n        /* \"#utility.yul\":8841:8843   */\n      0x26\n        /* \"#utility.yul\":8836:8839   */\n      dup4\n        /* \"#utility.yul\":8777:8844   */\n      tag_361\n      jump\t// in\n    tag_480:\n        /* \"#utility.yul\":8770:8844   */\n      swap2\n      pop\n        /* \"#utility.yul\":8853:8946   */\n      tag_481\n        /* \"#utility.yul\":8942:8945   */\n      dup3\n        /* \"#utility.yul\":8853:8946   */\n      tag_362\n      jump\t// in\n    tag_481:\n        /* \"#utility.yul\":8971:8973   */\n      0x40\n        /* \"#utility.yul\":8966:8969   */\n      dup3\n        /* \"#utility.yul\":8962:8974   */\n      add\n        /* \"#utility.yul\":8955:8974   */\n      swap1\n      pop\n        /* \"#utility.yul\":8614:8980   */\n      swap2\n      swap1\n      pop\n      jump\t// out\n        /* \"#utility.yul\":8986:9405   */\n    tag_151:\n        /* \"#utility.yul\":9152:9156   */\n      0x00\n        /* \"#utility.yul\":9190:9192   */\n      0x20\n        /* \"#utility.yul\":9179:9188   */\n      dup3\n        /* \"#utility.yul\":9175:9193   */\n      add\n        /* \"#utility.yul\":9167:9193   */\n      swap1\n      pop\n        /* \"#utility.yul\":9239:9248   */\n      dup2\n        /* \"#utility.yul\":9233:9237   */\n      dup2\n        /* \"#utility.yul\":9229:9249   */\n      sub\n        /* \"#utility.yul\":9225:9226   */\n      0x00\n        /* \"#utility.yul\":9214:9223   */\n      dup4\n        /* \"#utility.yul\":9210:9227   */\n      add\n        /* \"#utility.yul\":9203:9250   */\n      mstore\n        /* \"#utility.yul\":9267:9398   */\n      tag_483\n        /* \"#utility.yul\":9393:9397   */\n      dup2\n        /* \"#utility.yul\":9267:9398   */\n      tag_363\n      jump\t// in\n    tag_483:\n        /* \"#utility.yul\":9259:9398   */\n      swap1\n      pop\n        /* \"#utility.yul\":8986:9405   */\n      swap2\n      swap1\n      pop\n      jump\t// out\n        /* \"#utility.yul\":9411:9649   */\n    tag_364:\n        /* \"#utility.yul\":9551:9585   */\n      0x43757272656e7420707269636520697320686967686572207468616e20746865\n        /* \"#utility.yul\":9547:9548   */\n      0x00\n        /* \"#utility.yul\":9539:9545   */\n      dup3\n        /* \"#utility.yul\":9535:9549   */\n      add\n        /* \"#utility.yul\":9528:9586   */\n      mstore\n        /* \"#utility.yul\":9620:9641   */\n      0x20636c61696d20707269636520696e2043445300000000000000000000000000\n        /* \"#utility.yul\":9615:9617   */\n      0x20\n        /* \"#utility.yul\":9607:9613   */\n      dup3\n        /* \"#utility.yul\":9603:9618   */\n      add\n        /* \"#utility.yul\":9596:9642   */\n      mstore\n        /* \"#utility.yul\":9411:9649   */\n      pop\n      jump\t// out\n        /* \"#utility.yul\":9655:10021   */\n    tag_365:\n        /* \"#utility.yul\":9797:9800   */\n      0x00\n        /* \"#utility.yul\":9818:9885   */\n      tag_486\n        /* \"#utility.yul\":9882:9884   */\n      0x33\n        /* \"#utility.yul\":9877:9880   */\n      dup4\n        /* \"#utility.yul\":9818:9885   */\n      tag_361\n      jump\t// in\n    tag_486:\n        /* \"#utility.yul\":9811:9885   */\n      swap2\n      pop\n        /* \"#utility.yul\":9894:9987   */\n      tag_487\n        /* \"#utility.yul\":9983:9986   */\n      dup3\n        /* \"#utility.yul\":9894:9987   */\n      tag_364\n      jump\t// in\n    tag_487:\n        /* \"#utility.yul\":10012:10014   */\n      0x40\n        /* \"#utility.yul\":10007:10010   */\n      dup3\n        /* \"#utility.yul\":10003:10015   */\n      add\n        /* \"#utility.yul\":9996:10015   */\n      swap1\n      pop\n        /* \"#utility.yul\":9655:10021   */\n      swap2\n      swap1\n      pop\n      jump\t// out\n        /* \"#utility.yul\":10027:10446   */\n    tag_168:\n        /* \"#utility.yul\":10193:10197   */\n      0x00\n        /* \"#utility.yul\":10231:10233   */\n      0x20\n        /* \"#utility.yul\":10220:10229   */\n      dup3\n        /* \"#utility.yul\":10216:10234   */\n      add\n        /* \"#utility.yul\":10208:10234   */\n      swap1\n      pop\n        /* \"#utility.yul\":10280:10289   */\n      dup2\n        /* \"#utility.yul\":10274:10278   */\n      dup2\n        /* \"#utility.yul\":10270:10290   */\n      sub\n        /* \"#utility.yul\":10266:10267   */\n      0x00\n        /* \"#utility.yul\":10255:10264   */\n      dup4\n        /* \"#utility.yul\":10251:10268   */\n      add\n        /* \"#utility.yul\":10244:10291   */\n      mstore\n        /* \"#utility.yul\":10308:10439   */\n      tag_489\n        /* \"#utility.yul\":10434:10438   */\n      dup2\n        /* \"#utility.yul\":10308:10439   */\n      tag_365\n      jump\t// in\n    tag_489:\n        /* \"#utility.yul\":10300:10439   */\n      swap1\n      pop\n        /* \"#utility.yul\":10027:10446   */\n      swap2\n      swap1\n      pop\n      jump\t// out\n        /* \"#utility.yul\":10452:10621   */\n    tag_366:\n        /* \"#utility.yul\":10592:10613   */\n      0x526f756e6420616c726561647920656e64656400000000000000000000000000\n        /* \"#utility.yul\":10588:10589   */\n      0x00\n        /* \"#utility.yul\":10580:10586   */\n      dup3\n        /* \"#utility.yul\":10576:10590   */\n      add\n        /* \"#utility.yul\":10569:10614   */\n      mstore\n        /* \"#utility.yul\":10452:10621   */\n      pop\n      jump\t// out\n        /* \"#utility.yul\":10627:10993   */\n    tag_367:\n        /* \"#utility.yul\":10769:10772   */\n      0x00\n        /* \"#utility.yul\":10790:10857   */\n      tag_492\n        /* \"#utility.yul\":10854:10856   */\n      0x13\n        /* \"#utility.yul\":10849:10852   */\n      dup4\n        /* \"#utility.yul\":10790:10857   */\n      tag_361\n      jump\t// in\n    tag_492:\n        /* \"#utility.yul\":10783:10857   */\n      swap2\n      pop\n        /* \"#utility.yul\":10866:10959   */\n      tag_493\n        /* \"#utility.yul\":10955:10958   */\n      dup3\n        /* \"#utility.yul\":10866:10959   */\n      tag_366\n      jump\t// in\n    tag_493:\n        /* \"#utility.yul\":10984:10986   */\n      0x20\n        /* \"#utility.yul\":10979:10982   */\n      dup3\n        /* \"#utility.yul\":10975:10987   */\n      add\n        /* \"#utility.yul\":10968:10987   */\n      swap1\n      pop\n        /* \"#utility.yul\":10627:10993   */\n      swap2\n      swap1\n      pop\n      jump\t// out\n        /* \"#utility.yul\":10999:11418   */\n    tag_182:\n        /* \"#utility.yul\":11165:11169   */\n      0x00\n        /* \"#utility.yul\":11203:11205   */\n      0x20\n        /* \"#utility.yul\":11192:11201   */\n      dup3\n        /* \"#utility.yul\":11188:11206   */\n      add\n        /* \"#utility.yul\":11180:11206   */\n      swap1\n      pop\n        /* \"#utility.yul\":11252:11261   */\n      dup2\n        /* \"#utility.yul\":11246:11250   */\n      dup2\n        /* \"#utility.yul\":11242:11262   */\n      sub\n        /* \"#utility.yul\":11238:11239   */\n      0x00\n        /* \"#utility.yul\":11227:11236   */\n      dup4\n        /* \"#utility.yul\":11223:11240   */\n      add\n        /* \"#utility.yul\":11216:11263   */\n      mstore\n        /* \"#utility.yul\":11280:11411   */\n      tag_495\n        /* \"#utility.yul\":11406:11410   */\n      dup2\n        /* \"#utility.yul\":11280:11411   */\n      tag_367\n      jump\t// in\n    tag_495:\n        /* \"#utility.yul\":11272:11411   */\n      swap1\n      pop\n        /* \"#utility.yul\":10999:11418   */\n      swap2\n      swap1\n      pop\n      jump\t// out\n        /* \"#utility.yul\":11424:11604   */\n    tag_368:\n        /* \"#utility.yul\":11472:11549   */\n      0x4e487b7100000000000000000000000000000000000000000000000000000000\n        /* \"#utility.yul\":11469:11470   */\n      0x00\n        /* \"#utility.yul\":11462:11550   */\n      mstore\n        /* \"#utility.yul\":11569:11573   */\n      0x11\n        /* \"#utility.yul\":11566:11567   */\n      0x04\n        /* \"#utility.yul\":11559:11574   */\n      mstore\n        /* \"#utility.yul\":11593:11597   */\n      0x24\n        /* \"#utility.yul\":11590:11591   */\n      0x00\n        /* \"#utility.yul\":11583:11598   */\n      revert\n        /* \"#utility.yul\":11610:11915   */\n    tag_184:\n        /* \"#utility.yul\":11650:11653   */\n      0x00\n        /* \"#utility.yul\":11669:11689   */\n      tag_498\n        /* \"#utility.yul\":11687:11688   */\n      dup3\n        /* \"#utility.yul\":11669:11689   */\n      tag_330\n      jump\t// in\n    tag_498:\n        /* \"#utility.yul\":11664:11689   */\n      swap2\n      pop\n        /* \"#utility.yul\":11703:11723   */\n      tag_499\n        /* \"#utility.yul\":11721:11722   */\n      dup4\n        /* \"#utility.yul\":11703:11723   */\n      tag_330\n      jump\t// in\n    tag_499:\n        /* \"#utility.yul\":11698:11723   */\n      swap3\n      pop\n        /* \"#utility.yul\":11857:11858   */\n      dup3\n        /* \"#utility.yul\":11789:11855   */\n      0xffffffffffffffffffffffffffffffffffffffffffffffffffffffffffffffff\n        /* \"#utility.yul\":11785:11859   */\n      sub\n        /* \"#utility.yul\":11782:11783   */\n      dup3\n        /* \"#utility.yul\":11779:11860   */\n      gt\n        /* \"#utility.yul\":11776:11883   */\n      iszero\n      tag_500\n      jumpi\n        /* \"#utility.yul\":11863:11881   */\n      tag_501\n      tag_368\n      jump\t// in\n    tag_501:\n        /* \"#utility.yul\":11776:11883   */\n    tag_500:\n        /* \"#utility.yul\":11907:11908   */\n      dup3\n        /* \"#utility.yul\":11904:11905   */\n      dup3\n        /* \"#utility.yul\":11900:11909   */\n      add\n        /* \"#utility.yul\":11893:11909   */\n      swap1\n      pop\n        /* \"#utility.yul\":11610:11915   */\n      swap3\n      swap2\n      pop\n      pop\n      jump\t// out\n        /* \"#utility.yul\":11921:12109   */\n    tag_187:\n        /* \"#utility.yul\":11960:11964   */\n      0x00\n        /* \"#utility.yul\":11980:11999   */\n      tag_503\n        /* \"#utility.yul\":11997:11998   */\n      dup3\n        /* \"#utility.yul\":11980:11999   */\n      tag_336\n      jump\t// in\n    tag_503:\n        /* \"#utility.yul\":11975:11999   */\n      swap2\n      pop\n        /* \"#utility.yul\":12013:12032   */\n      tag_504\n        /* \"#utility.yul\":12030:12031   */\n      dup4\n        /* \"#utility.yul\":12013:12032   */\n      tag_336\n      jump\t// in\n    tag_504:\n        /* \"#utility.yul\":12008:12032   */\n      swap3\n      pop\n        /* \"#utility.yul\":12051:12052   */\n      dup3\n        /* \"#utility.yul\":12048:12049   */\n      dup3\n        /* \"#utility.yul\":12045:12053   */\n      lt\n        /* \"#utility.yul\":12042:12076   */\n      iszero\n      tag_505\n      jumpi\n        /* \"#utility.yul\":12056:12074   */\n      tag_506\n      tag_368\n      jump\t// in\n    tag_506:\n        /* \"#utility.yul\":12042:12076   */\n    tag_505:\n        /* \"#utility.yul\":12101:12102   */\n      dup3\n        /* \"#utility.yul\":12098:12099   */\n      dup3\n        /* \"#utility.yul\":12094:12103   */\n      sub\n        /* \"#utility.yul\":12086:12103   */\n      swap1\n      pop\n        /* \"#utility.yul\":11921:12109   */\n      swap3\n      swap2\n      pop\n      pop\n      jump\t// out\n        /* \"#utility.yul\":12115:12341   */\n    tag_369:\n        /* \"#utility.yul\":12255:12289   */\n      0x54686520737461747573206f6620746865204344532073686f756c6420626520\n        /* \"#utility.yul\":12251:12252   */\n      0x00\n        /* \"#utility.yul\":12243:12249   */\n      dup3\n        /* \"#utility.yul\":12239:12253   */\n      add\n        /* \"#utility.yul\":12232:12290   */\n      mstore\n        /* \"#utility.yul\":12324:12333   */\n      0x70656e64696e6700000000000000000000000000000000000000000000000000\n        /* \"#utility.yul\":12319:12321   */\n      0x20\n        /* \"#utility.yul\":12311:12317   */\n      dup3\n        /* \"#utility.yul\":12307:12322   */\n      add\n        /* \"#utility.yul\":12300:12334   */\n      mstore\n        /* \"#utility.yul\":12115:12341   */\n      pop\n      jump\t// out\n        /* \"#utility.yul\":12347:12713   */\n    tag_370:\n        /* \"#utility.yul\":12489:12492   */\n      0x00\n        /* \"#utility.yul\":12510:12577   */\n      tag_509\n        /* \"#utility.yul\":12574:12576   */\n      0x27\n        /* \"#utility.yul\":12569:12572   */\n      dup4\n        /* \"#utility.yul\":12510:12577   */\n      tag_361\n      jump\t// in\n    tag_509:\n        /* \"#utility.yul\":12503:12577   */\n      swap2\n      pop\n        /* \"#utility.yul\":12586:12679   */\n      tag_510\n        /* \"#utility.yul\":12675:12678   */\n      dup3\n        /* \"#utility.yul\":12586:12679   */\n      tag_369\n      jump\t// in\n    tag_510:\n        /* \"#utility.yul\":12704:12706   */\n      0x40\n        /* \"#utility.yul\":12699:12702   */\n      dup3\n        /* \"#utility.yul\":12695:12707   */\n      add\n        /* \"#utility.yul\":12688:12707   */\n      swap1\n      pop\n        /* \"#utility.yul\":12347:12713   */\n      swap2\n      swap1\n      pop\n      jump\t// out\n        /* \"#utility.yul\":12719:13138   */\n    tag_227:\n        /* \"#utility.yul\":12885:12889   */\n      0x00\n        /* \"#utility.yul\":12923:12925   */\n      0x20\n        /* \"#utility.yul\":12912:12921   */\n      dup3\n        /* \"#utility.yul\":12908:12926   */\n      add\n        /* \"#utility.yul\":12900:12926   */\n      swap1\n      pop\n        /* \"#utility.yul\":12972:12981   */\n      dup2\n        /* \"#utility.yul\":12966:12970   */\n      dup2\n        /* \"#utility.yul\":12962:12982   */\n      sub\n        /* \"#utility.yul\":12958:12959   */\n      0x00\n        /* \"#utility.yul\":12947:12956   */\n      dup4\n        /* \"#utility.yul\":12943:12960   */\n      add\n        /* \"#utility.yul\":12936:12983   */\n      mstore\n        /* \"#utility.yul\":13000:13131   */\n      tag_512\n        /* \"#utility.yul\":13126:13130   */\n      dup2\n        /* \"#utility.yul\":13000:13131   */\n      tag_370\n      jump\t// in\n    tag_512:\n        /* \"#utility.yul\":12992:13131   */\n      swap1\n      pop\n        /* \"#utility.yul\":12719:13138   */\n      swap2\n      swap1\n      pop\n      jump\t// out\n        /* \"#utility.yul\":13144:13287   */\n    tag_371:\n        /* \"#utility.yul\":13201:13206   */\n      0x00\n        /* \"#utility.yul\":13232:13238   */\n      dup2\n        /* \"#utility.yul\":13226:13239   */\n      mload\n        /* \"#utility.yul\":13217:13239   */\n      swap1\n      pop\n        /* \"#utility.yul\":13248:13281   */\n      tag_514\n        /* \"#utility.yul\":13275:13280   */\n      dup2\n        /* \"#utility.yul\":13248:13281   */\n      tag_357\n      jump\t// in\n    tag_514:\n        /* \"#utility.yul\":13144:13287   */\n      swap3\n      swap2\n      pop\n      pop\n      jump\t// out\n        /* \"#utility.yul\":13293:13644   */\n    tag_240:\n        /* \"#utility.yul\":13363:13369   */\n      0x00\n        /* \"#utility.yul\":13412:13414   */\n      0x20\n        /* \"#utility.yul\":13400:13409   */\n      dup3\n        /* \"#utility.yul\":13391:13398   */\n      dup5\n        /* \"#utility.yul\":13387:13410   */\n      sub\n        /* \"#utility.yul\":13383:13415   */\n      slt\n        /* \"#utility.yul\":13380:13499   */\n      iszero\n      tag_516\n      jumpi\n        /* \"#utility.yul\":13418:13497   */\n      tag_517\n      tag_344\n      jump\t// in\n    tag_517:\n        /* \"#utility.yul\":13380:13499   */\n    tag_516:\n        /* \"#utility.yul\":13538:13539   */\n      0x00\n        /* \"#utility.yul\":13563:13627   */\n      tag_518\n        /* \"#utility.yul\":13619:13626   */\n      dup5\n        /* \"#utility.yul\":13610:13616   */\n      dup3\n        /* \"#utility.yul\":13599:13608   */\n      dup6\n        /* \"#utility.yul\":13595:13617   */\n      add\n        /* \"#utility.yul\":13563:13627   */\n      tag_371\n      jump\t// in\n    tag_518:\n        /* \"#utility.yul\":13553:13627   */\n      swap2\n      pop\n        /* \"#utility.yul\":13509:13637   */\n      pop\n        /* \"#utility.yul\":13293:13644   */\n      swap3\n      swap2\n      pop\n      pop\n      jump\t// out\n        /* \"#utility.yul\":13650:13875   */\n    tag_372:\n        /* \"#utility.yul\":13790:13824   */\n      0x4f776e61626c653a206e6577206f776e657220697320746865207a65726f2061\n        /* \"#utility.yul\":13786:13787   */\n      0x00\n        /* \"#utility.yul\":13778:13784   */\n      dup3\n        /* \"#utility.yul\":13774:13788   */\n      add\n        /* \"#utility.yul\":13767:13825   */\n      mstore\n        /* \"#utility.yul\":13859:13867   */\n      0x6464726573730000000000000000000000000000000000000000000000000000\n        /* \"#utility.yul\":13854:13856   */\n      0x20\n        /* \"#utility.yul\":13846:13852   */\n      dup3\n        /* \"#utility.yul\":13842:13857   */\n      add\n        /* \"#utility.yul\":13835:13868   */\n      mstore\n        /* \"#utility.yul\":13650:13875   */\n      pop\n      jump\t// out\n        /* \"#utility.yul\":13881:14247   */\n    tag_373:\n        /* \"#utility.yul\":14023:14026   */\n      0x00\n        /* \"#utility.yul\":14044:14111   */\n      tag_521\n        /* \"#utility.yul\":14108:14110   */\n      0x26\n        /* \"#utility.yul\":14103:14106   */\n      dup4\n        /* \"#utility.yul\":14044:14111   */\n      tag_361\n      jump\t// in\n    tag_521:\n        /* \"#utility.yul\":14037:14111   */\n      swap2\n      pop\n        /* \"#utility.yul\":14120:14213   */\n      tag_522\n        /* \"#utility.yul\":14209:14212   */\n      dup3\n        /* \"#utility.yul\":14120:14213   */\n      tag_372\n      jump\t// in\n    tag_522:\n        /* \"#utility.yul\":14238:14240   */\n      0x40\n        /* \"#utility.yul\":14233:14236   */\n      dup3\n        /* \"#utility.yul\":14229:14241   */\n      add\n        /* \"#utility.yul\":14222:14241   */\n      swap1\n      pop\n        /* \"#utility.yul\":13881:14247   */\n      swap2\n      swap1\n      pop\n      jump\t// out\n        /* \"#utility.yul\":14253:14672   */\n    tag_279:\n        /* \"#utility.yul\":14419:14423   */\n      0x00\n        /* \"#utility.yul\":14457:14459   */\n      0x20\n        /* \"#utility.yul\":14446:14455   */\n      dup3\n        /* \"#utility.yul\":14442:14460   */\n      add\n        /* \"#utility.yul\":14434:14460   */\n      swap1\n      pop\n        /* \"#utility.yul\":14506:14515   */\n      dup2\n        /* \"#utility.yul\":14500:14504   */\n      dup2\n        /* \"#utility.yul\":14496:14516   */\n      sub\n        /* \"#utility.yul\":14492:14493   */\n      0x00\n        /* \"#utility.yul\":14481:14490   */\n      dup4\n        /* \"#utility.yul\":14477:14494   */\n      add\n        /* \"#utility.yul\":14470:14517   */\n      mstore\n        /* \"#utility.yul\":14534:14665   */\n      tag_524\n        /* \"#utility.yul\":14660:14664   */\n      dup2\n        /* \"#utility.yul\":14534:14665   */\n      tag_373\n      jump\t// in\n    tag_524:\n        /* \"#utility.yul\":14526:14665   */\n      swap1\n      pop\n        /* \"#utility.yul\":14253:14672   */\n      swap2\n      swap1\n      pop\n      jump\t// out\n        /* \"#utility.yul\":14678:14860   */\n    tag_374:\n        /* \"#utility.yul\":14818:14852   */\n      0x4f776e61626c653a2063616c6c6572206973206e6f7420746865206f776e6572\n        /* \"#utility.yul\":14814:14815   */\n      0x00\n        /* \"#utility.yul\":14806:14812   */\n      dup3\n        /* \"#utility.yul\":14802:14816   */\n      add\n        /* \"#utility.yul\":14795:14853   */\n      mstore\n        /* \"#utility.yul\":14678:14860   */\n      pop\n      jump\t// out\n        /* \"#utility.yul\":14866:15232   */\n    tag_375:\n        /* \"#utility.yul\":15008:15011   */\n      0x00\n        /* \"#utility.yul\":15029:15096   */\n      tag_527\n        /* \"#utility.yul\":15093:15095   */\n      0x20\n        /* \"#utility.yul\":15088:15091   */\n      dup4\n        /* \"#utility.yul\":15029:15096   */\n      tag_361\n      jump\t// in\n    tag_527:\n        /* \"#utility.yul\":15022:15096   */\n      swap2\n      pop\n        /* \"#utility.yul\":15105:15198   */\n      tag_528\n        /* \"#utility.yul\":15194:15197   */\n      dup3\n        /* \"#utility.yul\":15105:15198   */\n      tag_374\n      jump\t// in\n    tag_528:\n        /* \"#utility.yul\":15223:15225   */\n      0x20\n        /* \"#utility.yul\":15218:15221   */\n      dup3\n        /* \"#utility.yul\":15214:15226   */\n      add\n        /* \"#utility.yul\":15207:15226   */\n      swap1\n      pop\n        /* \"#utility.yul\":14866:15232   */\n      swap2\n      swap1\n      pop\n      jump\t// out\n        /* \"#utility.yul\":15238:15657   */\n    tag_298:\n        /* \"#utility.yul\":15404:15408   */\n      0x00\n        /* \"#utility.yul\":15442:15444   */\n      0x20\n        /* \"#utility.yul\":15431:15440   */\n      dup3\n        /* \"#utility.yul\":15427:15445   */\n      add\n        /* \"#utility.yul\":15419:15445   */\n      swap1\n      pop\n        /* \"#utility.yul\":15491:15500   */\n      dup2\n        /* \"#utility.yul\":15485:15489   */\n      dup2\n        /* \"#utility.yul\":15481:15501   */\n      sub\n        /* \"#utility.yul\":15477:15478   */\n      0x00\n        /* \"#utility.yul\":15466:15475   */\n      dup4\n        /* \"#utility.yul\":15462:15479   */\n      add\n        /* \"#utility.yul\":15455:15502   */\n      mstore\n        /* \"#utility.yul\":15519:15650   */\n      tag_530\n        /* \"#utility.yul\":15645:15649   */\n      dup2\n        /* \"#utility.yul\":15519:15650   */\n      tag_375\n      jump\t// in\n    tag_530:\n        /* \"#utility.yul\":15511:15650   */\n      swap1\n      pop\n        /* \"#utility.yul\":15238:15657   */\n      swap2\n      swap1\n      pop\n      jump\t// out\n        /* \"#utility.yul\":15663:15843   */\n    tag_376:\n        /* \"#utility.yul\":15711:15788   */\n      0x4e487b7100000000000000000000000000000000000000000000000000000000\n        /* \"#utility.yul\":15708:15709   */\n      0x00\n        /* \"#utility.yul\":15701:15789   */\n      mstore\n        /* \"#utility.yul\":15808:15812   */\n      0x12\n        /* \"#utility.yul\":15805:15806   */\n      0x04\n        /* \"#utility.yul\":15798:15813   */\n      mstore\n        /* \"#utility.yul\":15832:15836   */\n      0x24\n        /* \"#utility.yul\":15829:15830   */\n      0x00\n        /* \"#utility.yul\":15822:15837   */\n      revert\n        /* \"#utility.yul\":15849:16034   */\n    tag_310:\n        /* \"#utility.yul\":15889:15890   */\n      0x00\n        /* \"#utility.yul\":15906:15926   */\n      tag_533\n        /* \"#utility.yul\":15924:15925   */\n      dup3\n        /* \"#utility.yul\":15906:15926   */\n      tag_330\n      jump\t// in\n    tag_533:\n        /* \"#utility.yul\":15901:15926   */\n      swap2\n      pop\n        /* \"#utility.yul\":15940:15960   */\n      tag_534\n        /* \"#utility.yul\":15958:15959   */\n      dup4\n        /* \"#utility.yul\":15940:15960   */\n      tag_330\n      jump\t// in\n    tag_534:\n        /* \"#utility.yul\":15935:15960   */\n      swap3\n      pop\n        /* \"#utility.yul\":15979:15980   */\n      dup3\n        /* \"#utility.yul\":15969:16004   */\n      tag_535\n      jumpi\n        /* \"#utility.yul\":15984:16002   */\n      tag_536\n      tag_376\n      jump\t// in\n    tag_536:\n        /* \"#utility.yul\":15969:16004   */\n    tag_535:\n        /* \"#utility.yul\":16026:16027   */\n      dup3\n        /* \"#utility.yul\":16023:16024   */\n      dup3\n        /* \"#utility.yul\":16019:16028   */\n      div\n        /* \"#utility.yul\":16014:16028   */\n      swap1\n      pop\n        /* \"#utility.yul\":15849:16034   */\n      swap3\n      swap2\n      pop\n      pop\n      jump\t// out\n        /* \"#utility.yul\":16040:16231   */\n    tag_326:\n        /* \"#utility.yul\":16080:16084   */\n      0x00\n        /* \"#utility.yul\":16100:16120   */\n      tag_538\n        /* \"#utility.yul\":16118:16119   */\n      dup3\n        /* \"#utility.yul\":16100:16120   */\n      tag_330\n      jump\t// in\n    tag_538:\n        /* \"#utility.yul\":16095:16120   */\n      swap2\n      pop\n        /* \"#utility.yul\":16134:16154   */\n      tag_539\n        /* \"#utility.yul\":16152:16153   */\n      dup4\n        /* \"#utility.yul\":16134:16154   */\n      tag_330\n      jump\t// in\n    tag_539:\n        /* \"#utility.yul\":16129:16154   */\n      swap3\n      pop\n        /* \"#utility.yul\":16173:16174   */\n      dup3\n        /* \"#utility.yul\":16170:16171   */\n      dup3\n        /* \"#utility.yul\":16167:16175   */\n      lt\n        /* \"#utility.yul\":16164:16198   */\n      iszero\n      tag_540\n      jumpi\n        /* \"#utility.yul\":16178:16196   */\n      tag_541\n      tag_368\n      jump\t// in\n    tag_541:\n        /* \"#utility.yul\":16164:16198   */\n    tag_540:\n        /* \"#utility.yul\":16223:16224   */\n      dup3\n        /* \"#utility.yul\":16220:16221   */\n      dup3\n        /* \"#utility.yul\":16216:16225   */\n      sub\n        /* \"#utility.yul\":16208:16225   */\n      swap1\n      pop\n        /* \"#utility.yul\":16040:16231   */\n      swap3\n      swap2\n      pop\n      pop\n      jump\t// out\n        /* \"#utility.yul\":16237:16585   */\n    tag_329:\n        /* \"#utility.yul\":16277:16284   */\n      0x00\n        /* \"#utility.yul\":16300:16320   */\n      tag_543\n        /* \"#utility.yul\":16318:16319   */\n      dup3\n        /* \"#utility.yul\":16300:16320   */\n      tag_330\n      jump\t// in\n    tag_543:\n        /* \"#utility.yul\":16295:16320   */\n      swap2\n      pop\n        /* \"#utility.yul\":16334:16354   */\n      tag_544\n        /* \"#utility.yul\":16352:16353   */\n      dup4\n        /* \"#utility.yul\":16334:16354   */\n      tag_330\n      jump\t// in\n    tag_544:\n        /* \"#utility.yul\":16329:16354   */\n      swap3\n      pop\n        /* \"#utility.yul\":16522:16523   */\n      dup2\n        /* \"#utility.yul\":16454:16520   */\n      0xffffffffffffffffffffffffffffffffffffffffffffffffffffffffffffffff\n        /* \"#utility.yul\":16450:16524   */\n      div\n        /* \"#utility.yul\":16447:16448   */\n      dup4\n        /* \"#utility.yul\":16444:16525   */\n      gt\n        /* \"#utility.yul\":16439:16440   */\n      dup3\n        /* \"#utility.yul\":16432:16441   */\n      iszero\n        /* \"#utility.yul\":16425:16442   */\n      iszero\n        /* \"#utility.yul\":16421:16526   */\n      and\n        /* \"#utility.yul\":16418:16549   */\n      iszero\n      tag_545\n      jumpi\n        /* \"#utility.yul\":16529:16547   */\n      tag_546\n      tag_368\n      jump\t// in\n    tag_546:\n        /* \"#utility.yul\":16418:16549   */\n    tag_545:\n        /* \"#utility.yul\":16577:16578   */\n      dup3\n        /* \"#utility.yul\":16574:16575   */\n      dup3\n        /* \"#utility.yul\":16570:16579   */\n      mul\n        /* \"#utility.yul\":16559:16579   */\n      swap1\n      pop\n        /* \"#utility.yul\":16237:16585   */\n      swap3\n      swap2\n      pop\n      pop\n      jump\t// out\n\n    auxdata: 0xa26469706673582212207b6203704fb88a820fbe54d6ae125711f4c9e2c0200c563a75f3e03b6b5a42b364736f6c634300080a0033\n}\n",
				"bytecode": {
					"linkReferences": {},
					"object": "60806040523480156200001157600080fd5b5060405162002188380380620021888339818101604052810190620000379190620003b0565b732abdf4a7ad585effcc16b61643e058130b1311b86200006c620000606200026360201b60201c565b6200026b60201b60201c565b80600160006101000a81548173ffffffffffffffffffffffffffffffffffffffff021916908373ffffffffffffffffffffffffffffffffffffffff16021790555050866003819055508560048190555084600581905550836006819055508260078190555081600a60146101000a81548163ffffffff021916908363ffffffff16021790555081600a60186101000a81548163ffffffff021916908363ffffffff16021790555060008163ffffffff1614806200012f575060018163ffffffff16145b8062000141575060028163ffffffff16145b62000183576040517f08c379a00000000000000000000000000000000000000000000000000000000081526004016200017a90620004c4565b60405180910390fd5b80600a601c6101000a81548163ffffffff021916908363ffffffff1602179055506000600960006101000a81548173ffffffffffffffffffffffffffffffffffffffff021916908373ffffffffffffffffffffffffffffffffffffffff1602179055506000600a60006101000a81548173ffffffffffffffffffffffffffffffffffffffff021916908373ffffffffffffffffffffffffffffffffffffffff1602179055506001600260146101000a81548160ff02191690836004811115620002515762000250620004e6565b5b02179055505050505050505062000515565b600033905090565b60008060009054906101000a900473ffffffffffffffffffffffffffffffffffffffff169050816000806101000a81548173ffffffffffffffffffffffffffffffffffffffff021916908373ffffffffffffffffffffffffffffffffffffffff1602179055508173ffffffffffffffffffffffffffffffffffffffff168173ffffffffffffffffffffffffffffffffffffffff167f8be0079c531659141344cd1fd0a4f28419497f9722a3daafe3b4186f6b6457e060405160405180910390a35050565b600080fd5b6000819050919050565b620003498162000334565b81146200035557600080fd5b50565b60008151905062000369816200033e565b92915050565b600063ffffffff82169050919050565b6200038a816200036f565b81146200039657600080fd5b50565b600081519050620003aa816200037f565b92915050565b600080600080600080600060e0888a031215620003d257620003d16200032f565b5b6000620003e28a828b0162000358565b9750506020620003f58a828b0162000358565b9650506040620004088a828b0162000358565b95505060606200041b8a828b0162000358565b94505060806200042e8a828b0162000358565b93505060a0620004418a828b0162000399565b92505060c0620004548a828b0162000399565b91505092959891949750929550565b600082825260208201905092915050565b7f4254433a302c204554483a312c204c494e4b3a32000000000000000000000000600082015250565b6000620004ac60148362000463565b9150620004b98262000474565b602082019050919050565b60006020820190508181036000830152620004df816200049d565b9050919050565b7f4e487b7100000000000000000000000000000000000000000000000000000000600052602160045260246000fd5b611c6380620005256000396000f3fe608060405234801561001057600080fd5b50600436106101da5760003560e01c8063b6fc2d5f11610104578063dbd0e1b6116100a2578063f26cc58e11610071578063f26cc58e146104cb578063f2fde38b146104e9578063fcb341df14610505578063ffd0e69f14610523576101da565b8063dbd0e1b614610455578063e0a73a9314610473578063e99d286614610491578063ea8a1af0146104c1576101da565b8063bef904e3116100de578063bef904e3146103bb578063cbe97245146103eb578063cbed244914610407578063d868379814610437576101da565b8063b6fc2d5f14610363578063bab215f814610381578063bd9a548b1461039d576101da565b8063603daf9a1161017c5780638a5682991161014b5780638a568299146102d95780638da5cb5b146102f7578063a2e800ad14610315578063a3f09ad614610333576101da565b8063603daf9a14610275578063715018a614610293578063839966af1461029d57806386be75b7146102bb576101da565b806343d726d6116101b857806343d726d6146102395780634c1786ea146102435780634e71d92d146102615780635b6a251b1461026b576101da565b806315d655c9146101df578063200d2ed2146101fd5780633fe3347a1461021b575b600080fd5b6101e7610541565b6040516101f49190611305565b60405180910390f35b610205610547565b6040516102129190611397565b60405180910390f35b61022361055a565b60405161023091906113d1565b60405180910390f35b610241610570565b005b61024b6105fb565b6040516102589190611305565b60405180910390f35b610269610601565b005b6102736106d7565b005b61027d6107f6565b60405161028a919061142d565b60405180910390f35b61029b610820565b005b6102a5610834565b6040516102b29190611463565b60405180910390f35b6102c36108b7565b6040516102d09190611305565b60405180910390f35b6102e16108bd565b6040516102ee91906113d1565b60405180910390f35b6102ff6108d3565b60405161030c919061142d565b60405180910390f35b61031d6108fc565b60405161032a91906113d1565b60405180910390f35b61034d600480360381019061034891906114af565b610912565b60405161035a919061142d565b60405180910390f35b61036b610987565b6040516103789190611305565b60405180910390f35b61039b60048036038101906103969190611508565b61098d565b005b6103a56109b7565b6040516103b291906115f3565b60405180910390f35b6103d560048036038101906103d0919061163a565b6109f5565b6040516103e29190611305565b60405180910390f35b61040560048036038101906104009190611667565b610a08565b005b610421600480360381019061041c91906116e6565b610b00565b60405161042e9190611305565b60405180910390f35b61043f610d41565b60405161044c9190611305565b60405180910390f35b61045d610d47565b60405161046a919061142d565b60405180910390f35b61047b610d71565b6040516104889190611305565b60405180910390f35b6104ab60048036038101906104a691906114af565b610d77565b6040516104b8919061142d565b60405180910390f35b6104c9610dec565b005b6104d3610e77565b6040516104e09190611305565b60405180910390f35b61050360048036038101906104fe91906114af565b610ecf565b005b61050d610f53565b60405161051a9190611305565b60405180910390f35b61052b610f75565b6040516105389190611463565b60405180910390f35b60045481565b600260149054906101000a900460ff1681565b600a601c9054906101000a900463ffffffff1681565b61057861100e565b6002600481111561058c5761058b611320565b5b600260149054906101000a900460ff1660048111156105ae576105ad611320565b5b146105ee576040517f08c379a00000000000000000000000000000000000000000000000000000000081526004016105e590611796565b60405180910390fd5b6105f8600461108c565b50565b60075481565b61060961100e565b6002600481111561061d5761061c611320565b5b600260149054906101000a900460ff16600481111561063f5761063e611320565b5b1461067f576040517f08c379a000000000000000000000000000000000000000000000000000000000815260040161067690611796565b60405180910390fd5b6000610689610e77565b14156106ca576040517f08c379a00000000000000000000000000000000000000000000000000000000081526004016106c190611828565b60405180910390fd5b6106d4600361108c565b50565b6106df61100e565b600260048111156106f3576106f2611320565b5b600260149054906101000a900460ff16600481111561071557610714611320565b5b14610755576040517f08c379a000000000000000000000000000000000000000000000000000000000815260040161074c90611796565b60405180910390fd5b6000600a60149054906101000a900463ffffffff1663ffffffff16116107b0576040517f08c379a00000000000000000000000000000000000000000000000000000000081526004016107a790611894565b60405180910390fd5b6224ea00600860008282546107c591906118e3565b925050819055506107f36001600a60149054906101000a900463ffffffff166107ee9190611939565b6110d7565b50565b6000600960009054906101000a900473ffffffffffffffffffffffffffffffffffffffff16905090565b61082861100e565b610832600061111c565b565b60006002600481111561084a57610849611320565b5b600260149054906101000a900460ff16600481111561086c5761086b611320565b5b146108ac576040517f08c379a00000000000000000000000000000000000000000000000000000000081526004016108a390611796565b60405180910390fd5b600854421015905090565b60035481565b600a60189054906101000a900463ffffffff1681565b60008060009054906101000a900473ffffffffffffffffffffffffffffffffffffffff16905090565b600a60149054906101000a900463ffffffff1681565b600061091c61100e565b81600960006101000a81548173ffffffffffffffffffffffffffffffffffffffff021916908373ffffffffffffffffffffffffffffffffffffffff160217905550600960009054906101000a900473ffffffffffffffffffffffffffffffffffffffff169050919050565b60055481565b61099561100e565b806109a8576109a382610d77565b6109b2565b6109b182610912565b5b505050565b6109bf6112ca565b6040518060a001604052806003548152602001600454815260200160055481526020016006548152602001600754815250905090565b6000816003819055506003549050919050565b610a1061100e565b60016004811115610a2457610a23611320565b5b600260149054906101000a900460ff166004811115610a4657610a45611320565b5b14610a86576040517f08c379a0000000000000000000000000000000000000000000000000000000008152600401610a7d906119df565b60405180910390fd5b610a8f836109f5565b50610a9b82821561098d565b610aa5600261108c565b506224ea0042610ab591906118e3565b6008819055506001600a60148282829054906101000a900463ffffffff16610add9190611939565b92506101000a81548163ffffffff021916908363ffffffff160217905550505050565b60008060008363ffffffff161415610bc057610bb96305f5e100600160009054906101000a900473ffffffffffffffffffffffffffffffffffffffff1673ffffffffffffffffffffffffffffffffffffffff1663a8ad52d16040518163ffffffff1660e01b8152600401602060405180830381865afa158015610b87573d6000803e3d6000fd5b505050506040513d601f19601f82011682018060405250810190610bab9190611a14565b6111e090919063ffffffff16565b9050610d38565b60018363ffffffff161415610c7d57610c766305f5e100600160009054906101000a900473ffffffffffffffffffffffffffffffffffffffff1673ffffffffffffffffffffffffffffffffffffffff1663ff186b2e6040518163ffffffff1660e01b8152600401602060405180830381865afa158015610c44573d6000803e3d6000fd5b505050506040513d601f19601f82011682018060405250810190610c689190611a14565b6111e090919063ffffffff16565b9050610d37565b60028363ffffffff161415610d3657610d336305f5e100600160009054906101000a900473ffffffffffffffffffffffffffffffffffffffff1673ffffffffffffffffffffffffffffffffffffffff16630cf785356040518163ffffffff1660e01b8152600401602060405180830381865afa158015610d01573d6000803e3d6000fd5b505050506040513d601f19601f82011682018060405250810190610d259190611a14565b6111e090919063ffffffff16565b90505b5b5b80915050919050565b60085481565b6000600a60009054906101000a900473ffffffffffffffffffffffffffffffffffffffff16905090565b60065481565b6000610d8161100e565b81600a60006101000a81548173ffffffffffffffffffffffffffffffffffffffff021916908373ffffffffffffffffffffffffffffffffffffffff160217905550600a60009054906101000a900473ffffffffffffffffffffffffffffffffffffffff169050919050565b610df461100e565b60016004811115610e0857610e07611320565b5b600260149054906101000a900460ff166004811115610e2a57610e29611320565b5b14610e6a576040517f08c379a0000000000000000000000000000000000000000000000000000000008152600401610e61906119df565b60405180910390fd5b610e74600061108c565b50565b600080610e95600a601c9054906101000a900463ffffffff16610b00565b9050806004541015610eab576000915050610ecc565b610ec8600554600354836007546111f6909392919063ffffffff16565b9150505b90565b610ed761100e565b600073ffffffffffffffffffffffffffffffffffffffff168173ffffffffffffffffffffffffffffffffffffffff161415610f47576040517f08c379a0000000000000000000000000000000000000000000000000000000008152600401610f3e90611ab3565b60405180910390fd5b610f508161111c565b50565b6000610f706005546007546003546112669092919063ffffffff16565b905090565b600060026004811115610f8b57610f8a611320565b5b600260149054906101000a900460ff166004811115610fad57610fac611320565b5b14610fed576040517f08c379a0000000000000000000000000000000000000000000000000000000008152600401610fe490611796565b60405180910390fd5b6000600a60149054906101000a900463ffffffff1663ffffffff1614905090565b611016611296565b73ffffffffffffffffffffffffffffffffffffffff166110346108d3565b73ffffffffffffffffffffffffffffffffffffffff161461108a576040517f08c379a000000000000000000000000000000000000000000000000000000000815260040161108190611b1f565b60405180910390fd5b565b600061109661100e565b81600260146101000a81548160ff021916908360048111156110bb576110ba611320565b5b0217905550600260149054906101000a900460ff169050919050565b60006110e161100e565b81600a60146101000a81548163ffffffff021916908363ffffffff160217905550600a60149054906101000a900463ffffffff169050919050565b60008060009054906101000a900473ffffffffffffffffffffffffffffffffffffffff169050816000806101000a81548173ffffffffffffffffffffffffffffffffffffffff021916908373ffffffffffffffffffffffffffffffffffffffff1602179055508173ffffffffffffffffffffffffffffffffffffffff168173ffffffffffffffffffffffffffffffffffffffff167f8be0079c531659141344cd1fd0a4f28419497f9722a3daafe3b4186f6b6457e060405160405180910390a35050565b600081836111ee9190611b6e565b905092915050565b6000808285106112085785905061125a565b600061122f611220878761129e90919063ffffffff16565b886111e090919063ffffffff16565b9050611256611247858761129e90919063ffffffff16565b826112b490919063ffffffff16565b9150505b80915050949350505050565b600061128d61127e848661129e90919063ffffffff16565b836111e090919063ffffffff16565b90509392505050565b600033905090565b600081836112ac9190611b9f565b905092915050565b600081836112c29190611bd3565b905092915050565b6040518060a00160405280600590602082028036833780820191505090505090565b6000819050919050565b6112ff816112ec565b82525050565b600060208201905061131a60008301846112f6565b92915050565b7f4e487b7100000000000000000000000000000000000000000000000000000000600052602160045260246000fd5b600581106113605761135f611320565b5b50565b60008190506113718261134f565b919050565b600061138182611363565b9050919050565b61139181611376565b82525050565b60006020820190506113ac6000830184611388565b92915050565b600063ffffffff82169050919050565b6113cb816113b2565b82525050565b60006020820190506113e660008301846113c2565b92915050565b600073ffffffffffffffffffffffffffffffffffffffff82169050919050565b6000611417826113ec565b9050919050565b6114278161140c565b82525050565b6000602082019050611442600083018461141e565b92915050565b60008115159050919050565b61145d81611448565b82525050565b60006020820190506114786000830184611454565b92915050565b600080fd5b61148c8161140c565b811461149757600080fd5b50565b6000813590506114a981611483565b92915050565b6000602082840312156114c5576114c461147e565b5b60006114d38482850161149a565b91505092915050565b6114e581611448565b81146114f057600080fd5b50565b600081359050611502816114dc565b92915050565b6000806040838503121561151f5761151e61147e565b5b600061152d8582860161149a565b925050602061153e858286016114f3565b9150509250929050565b600060059050919050565b600081905092915050565b6000819050919050565b611571816112ec565b82525050565b60006115838383611568565b60208301905092915050565b6000602082019050919050565b6115a581611548565b6115af8184611553565b92506115ba8261155e565b8060005b838110156115eb5781516115d28782611577565b96506115dd8361158f565b9250506001810190506115be565b505050505050565b600060a082019050611608600083018461159c565b92915050565b611617816112ec565b811461162257600080fd5b50565b6000813590506116348161160e565b92915050565b6000602082840312156116505761164f61147e565b5b600061165e84828501611625565b91505092915050565b6000806000606084860312156116805761167f61147e565b5b600061168e86828701611625565b935050602061169f8682870161149a565b92505060406116b0868287016114f3565b9150509250925092565b6116c3816113b2565b81146116ce57600080fd5b50565b6000813590506116e0816116ba565b92915050565b6000602082840312156116fc576116fb61147e565b5b600061170a848285016116d1565b91505092915050565b600082825260208201905092915050565b7f54686520737461747573206f6620746865204344532073686f756c642062652060008201527f6163746976650000000000000000000000000000000000000000000000000000602082015250565b6000611780602683611713565b915061178b82611724565b604082019050919050565b600060208201905081810360008301526117af81611773565b9050919050565b7f43757272656e7420707269636520697320686967686572207468616e2074686560008201527f20636c61696d20707269636520696e2043445300000000000000000000000000602082015250565b6000611812603383611713565b915061181d826117b6565b604082019050919050565b6000602082019050818103600083015261184181611805565b9050919050565b7f526f756e6420616c726561647920656e64656400000000000000000000000000600082015250565b600061187e601383611713565b915061188982611848565b602082019050919050565b600060208201905081810360008301526118ad81611871565b9050919050565b7f4e487b7100000000000000000000000000000000000000000000000000000000600052601160045260246000fd5b60006118ee826112ec565b91506118f9836112ec565b9250827fffffffffffffffffffffffffffffffffffffffffffffffffffffffffffffffff0382111561192e5761192d6118b4565b5b828201905092915050565b6000611944826113b2565b915061194f836113b2565b925082821015611962576119616118b4565b5b828203905092915050565b7f54686520737461747573206f6620746865204344532073686f756c642062652060008201527f70656e64696e6700000000000000000000000000000000000000000000000000602082015250565b60006119c9602783611713565b91506119d48261196d565b604082019050919050565b600060208201905081810360008301526119f8816119bc565b9050919050565b600081519050611a0e8161160e565b92915050565b600060208284031215611a2a57611a2961147e565b5b6000611a38848285016119ff565b91505092915050565b7f4f776e61626c653a206e6577206f776e657220697320746865207a65726f206160008201527f6464726573730000000000000000000000000000000000000000000000000000602082015250565b6000611a9d602683611713565b9150611aa882611a41565b604082019050919050565b60006020820190508181036000830152611acc81611a90565b9050919050565b7f4f776e61626c653a2063616c6c6572206973206e6f7420746865206f776e6572600082015250565b6000611b09602083611713565b9150611b1482611ad3565b602082019050919050565b60006020820190508181036000830152611b3881611afc565b9050919050565b7f4e487b7100000000000000000000000000000000000000000000000000000000600052601260045260246000fd5b6000611b79826112ec565b9150611b84836112ec565b925082611b9457611b93611b3f565b5b828204905092915050565b6000611baa826112ec565b9150611bb5836112ec565b925082821015611bc857611bc76118b4565b5b828203905092915050565b6000611bde826112ec565b9150611be9836112ec565b9250817fffffffffffffffffffffffffffffffffffffffffffffffffffffffffffffffff0483118215151615611c2257611c216118b4565b5b82820290509291505056fea26469706673582212207b6203704fb88a820fbe54d6ae125711f4c9e2c0200c563a75f3e03b6b5a42b364736f6c634300080a0033",
					"opcodes": "PUSH1 0x80 PUSH1 0x40 MSTORE CALLVALUE DUP1 ISZERO PUSH3 0x11 JUMPI PUSH1 0x0 DUP1 REVERT JUMPDEST POP PUSH1 0x40 MLOAD PUSH3 0x2188 CODESIZE SUB DUP1 PUSH3 0x2188 DUP4 CODECOPY DUP2 DUP2 ADD PUSH1 0x40 MSTORE DUP2 ADD SWAP1 PUSH3 0x37 SWAP2 SWAP1 PUSH3 0x3B0 JUMP JUMPDEST PUSH20 0x2ABDF4A7AD585EFFCC16B61643E058130B1311B8 PUSH3 0x6C PUSH3 0x60 PUSH3 0x263 PUSH1 0x20 SHL PUSH1 0x20 SHR JUMP JUMPDEST PUSH3 0x26B PUSH1 0x20 SHL PUSH1 0x20 SHR JUMP JUMPDEST DUP1 PUSH1 0x1 PUSH1 0x0 PUSH2 0x100 EXP DUP2 SLOAD DUP2 PUSH20 0xFFFFFFFFFFFFFFFFFFFFFFFFFFFFFFFFFFFFFFFF MUL NOT AND SWAP1 DUP4 PUSH20 0xFFFFFFFFFFFFFFFFFFFFFFFFFFFFFFFFFFFFFFFF AND MUL OR SWAP1 SSTORE POP POP DUP7 PUSH1 0x3 DUP2 SWAP1 SSTORE POP DUP6 PUSH1 0x4 DUP2 SWAP1 SSTORE POP DUP5 PUSH1 0x5 DUP2 SWAP1 SSTORE POP DUP4 PUSH1 0x6 DUP2 SWAP1 SSTORE POP DUP3 PUSH1 0x7 DUP2 SWAP1 SSTORE POP DUP2 PUSH1 0xA PUSH1 0x14 PUSH2 0x100 EXP DUP2 SLOAD DUP2 PUSH4 0xFFFFFFFF MUL NOT AND SWAP1 DUP4 PUSH4 0xFFFFFFFF AND MUL OR SWAP1 SSTORE POP DUP2 PUSH1 0xA PUSH1 0x18 PUSH2 0x100 EXP DUP2 SLOAD DUP2 PUSH4 0xFFFFFFFF MUL NOT AND SWAP1 DUP4 PUSH4 0xFFFFFFFF AND MUL OR SWAP1 SSTORE POP PUSH1 0x0 DUP2 PUSH4 0xFFFFFFFF AND EQ DUP1 PUSH3 0x12F JUMPI POP PUSH1 0x1 DUP2 PUSH4 0xFFFFFFFF AND EQ JUMPDEST DUP1 PUSH3 0x141 JUMPI POP PUSH1 0x2 DUP2 PUSH4 0xFFFFFFFF AND EQ JUMPDEST PUSH3 0x183 JUMPI PUSH1 0x40 MLOAD PUSH32 0x8C379A000000000000000000000000000000000000000000000000000000000 DUP2 MSTORE PUSH1 0x4 ADD PUSH3 0x17A SWAP1 PUSH3 0x4C4 JUMP JUMPDEST PUSH1 0x40 MLOAD DUP1 SWAP2 SUB SWAP1 REVERT JUMPDEST DUP1 PUSH1 0xA PUSH1 0x1C PUSH2 0x100 EXP DUP2 SLOAD DUP2 PUSH4 0xFFFFFFFF MUL NOT AND SWAP1 DUP4 PUSH4 0xFFFFFFFF AND MUL OR SWAP1 SSTORE POP PUSH1 0x0 PUSH1 0x9 PUSH1 0x0 PUSH2 0x100 EXP DUP2 SLOAD DUP2 PUSH20 0xFFFFFFFFFFFFFFFFFFFFFFFFFFFFFFFFFFFFFFFF MUL NOT AND SWAP1 DUP4 PUSH20 0xFFFFFFFFFFFFFFFFFFFFFFFFFFFFFFFFFFFFFFFF AND MUL OR SWAP1 SSTORE POP PUSH1 0x0 PUSH1 0xA PUSH1 0x0 PUSH2 0x100 EXP DUP2 SLOAD DUP2 PUSH20 0xFFFFFFFFFFFFFFFFFFFFFFFFFFFFFFFFFFFFFFFF MUL NOT AND SWAP1 DUP4 PUSH20 0xFFFFFFFFFFFFFFFFFFFFFFFFFFFFFFFFFFFFFFFF AND MUL OR SWAP1 SSTORE POP PUSH1 0x1 PUSH1 0x2 PUSH1 0x14 PUSH2 0x100 EXP DUP2 SLOAD DUP2 PUSH1 0xFF MUL NOT AND SWAP1 DUP4 PUSH1 0x4 DUP2 GT ISZERO PUSH3 0x251 JUMPI PUSH3 0x250 PUSH3 0x4E6 JUMP JUMPDEST JUMPDEST MUL OR SWAP1 SSTORE POP POP POP POP POP POP POP POP PUSH3 0x515 JUMP JUMPDEST PUSH1 0x0 CALLER SWAP1 POP SWAP1 JUMP JUMPDEST PUSH1 0x0 DUP1 PUSH1 0x0 SWAP1 SLOAD SWAP1 PUSH2 0x100 EXP SWAP1 DIV PUSH20 0xFFFFFFFFFFFFFFFFFFFFFFFFFFFFFFFFFFFFFFFF AND SWAP1 POP DUP2 PUSH1 0x0 DUP1 PUSH2 0x100 EXP DUP2 SLOAD DUP2 PUSH20 0xFFFFFFFFFFFFFFFFFFFFFFFFFFFFFFFFFFFFFFFF MUL NOT AND SWAP1 DUP4 PUSH20 0xFFFFFFFFFFFFFFFFFFFFFFFFFFFFFFFFFFFFFFFF AND MUL OR SWAP1 SSTORE POP DUP2 PUSH20 0xFFFFFFFFFFFFFFFFFFFFFFFFFFFFFFFFFFFFFFFF AND DUP2 PUSH20 0xFFFFFFFFFFFFFFFFFFFFFFFFFFFFFFFFFFFFFFFF AND PUSH32 0x8BE0079C531659141344CD1FD0A4F28419497F9722A3DAAFE3B4186F6B6457E0 PUSH1 0x40 MLOAD PUSH1 0x40 MLOAD DUP1 SWAP2 SUB SWAP1 LOG3 POP POP JUMP JUMPDEST PUSH1 0x0 DUP1 REVERT JUMPDEST PUSH1 0x0 DUP2 SWAP1 POP SWAP2 SWAP1 POP JUMP JUMPDEST PUSH3 0x349 DUP2 PUSH3 0x334 JUMP JUMPDEST DUP2 EQ PUSH3 0x355 JUMPI PUSH1 0x0 DUP1 REVERT JUMPDEST POP JUMP JUMPDEST PUSH1 0x0 DUP2 MLOAD SWAP1 POP PUSH3 0x369 DUP2 PUSH3 0x33E JUMP JUMPDEST SWAP3 SWAP2 POP POP JUMP JUMPDEST PUSH1 0x0 PUSH4 0xFFFFFFFF DUP3 AND SWAP1 POP SWAP2 SWAP1 POP JUMP JUMPDEST PUSH3 0x38A DUP2 PUSH3 0x36F JUMP JUMPDEST DUP2 EQ PUSH3 0x396 JUMPI PUSH1 0x0 DUP1 REVERT JUMPDEST POP JUMP JUMPDEST PUSH1 0x0 DUP2 MLOAD SWAP1 POP PUSH3 0x3AA DUP2 PUSH3 0x37F JUMP JUMPDEST SWAP3 SWAP2 POP POP JUMP JUMPDEST PUSH1 0x0 DUP1 PUSH1 0x0 DUP1 PUSH1 0x0 DUP1 PUSH1 0x0 PUSH1 0xE0 DUP9 DUP11 SUB SLT ISZERO PUSH3 0x3D2 JUMPI PUSH3 0x3D1 PUSH3 0x32F JUMP JUMPDEST JUMPDEST PUSH1 0x0 PUSH3 0x3E2 DUP11 DUP3 DUP12 ADD PUSH3 0x358 JUMP JUMPDEST SWAP8 POP POP PUSH1 0x20 PUSH3 0x3F5 DUP11 DUP3 DUP12 ADD PUSH3 0x358 JUMP JUMPDEST SWAP7 POP POP PUSH1 0x40 PUSH3 0x408 DUP11 DUP3 DUP12 ADD PUSH3 0x358 JUMP JUMPDEST SWAP6 POP POP PUSH1 0x60 PUSH3 0x41B DUP11 DUP3 DUP12 ADD PUSH3 0x358 JUMP JUMPDEST SWAP5 POP POP PUSH1 0x80 PUSH3 0x42E DUP11 DUP3 DUP12 ADD PUSH3 0x358 JUMP JUMPDEST SWAP4 POP POP PUSH1 0xA0 PUSH3 0x441 DUP11 DUP3 DUP12 ADD PUSH3 0x399 JUMP JUMPDEST SWAP3 POP POP PUSH1 0xC0 PUSH3 0x454 DUP11 DUP3 DUP12 ADD PUSH3 0x399 JUMP JUMPDEST SWAP2 POP POP SWAP3 SWAP6 SWAP9 SWAP2 SWAP5 SWAP8 POP SWAP3 SWAP6 POP JUMP JUMPDEST PUSH1 0x0 DUP3 DUP3 MSTORE PUSH1 0x20 DUP3 ADD SWAP1 POP SWAP3 SWAP2 POP POP JUMP JUMPDEST PUSH32 0x4254433A302C204554483A312C204C494E4B3A32000000000000000000000000 PUSH1 0x0 DUP3 ADD MSTORE POP JUMP JUMPDEST PUSH1 0x0 PUSH3 0x4AC PUSH1 0x14 DUP4 PUSH3 0x463 JUMP JUMPDEST SWAP2 POP PUSH3 0x4B9 DUP3 PUSH3 0x474 JUMP JUMPDEST PUSH1 0x20 DUP3 ADD SWAP1 POP SWAP2 SWAP1 POP JUMP JUMPDEST PUSH1 0x0 PUSH1 0x20 DUP3 ADD SWAP1 POP DUP2 DUP2 SUB PUSH1 0x0 DUP4 ADD MSTORE PUSH3 0x4DF DUP2 PUSH3 0x49D JUMP JUMPDEST SWAP1 POP SWAP2 SWAP1 POP JUMP JUMPDEST PUSH32 0x4E487B7100000000000000000000000000000000000000000000000000000000 PUSH1 0x0 MSTORE PUSH1 0x21 PUSH1 0x4 MSTORE PUSH1 0x24 PUSH1 0x0 REVERT JUMPDEST PUSH2 0x1C63 DUP1 PUSH3 0x525 PUSH1 0x0 CODECOPY PUSH1 0x0 RETURN INVALID PUSH1 0x80 PUSH1 0x40 MSTORE CALLVALUE DUP1 ISZERO PUSH2 0x10 JUMPI PUSH1 0x0 DUP1 REVERT JUMPDEST POP PUSH1 0x4 CALLDATASIZE LT PUSH2 0x1DA JUMPI PUSH1 0x0 CALLDATALOAD PUSH1 0xE0 SHR DUP1 PUSH4 0xB6FC2D5F GT PUSH2 0x104 JUMPI DUP1 PUSH4 0xDBD0E1B6 GT PUSH2 0xA2 JUMPI DUP1 PUSH4 0xF26CC58E GT PUSH2 0x71 JUMPI DUP1 PUSH4 0xF26CC58E EQ PUSH2 0x4CB JUMPI DUP1 PUSH4 0xF2FDE38B EQ PUSH2 0x4E9 JUMPI DUP1 PUSH4 0xFCB341DF EQ PUSH2 0x505 JUMPI DUP1 PUSH4 0xFFD0E69F EQ PUSH2 0x523 JUMPI PUSH2 0x1DA JUMP JUMPDEST DUP1 PUSH4 0xDBD0E1B6 EQ PUSH2 0x455 JUMPI DUP1 PUSH4 0xE0A73A93 EQ PUSH2 0x473 JUMPI DUP1 PUSH4 0xE99D2866 EQ PUSH2 0x491 JUMPI DUP1 PUSH4 0xEA8A1AF0 EQ PUSH2 0x4C1 JUMPI PUSH2 0x1DA JUMP JUMPDEST DUP1 PUSH4 0xBEF904E3 GT PUSH2 0xDE JUMPI DUP1 PUSH4 0xBEF904E3 EQ PUSH2 0x3BB JUMPI DUP1 PUSH4 0xCBE97245 EQ PUSH2 0x3EB JUMPI DUP1 PUSH4 0xCBED2449 EQ PUSH2 0x407 JUMPI DUP1 PUSH4 0xD8683798 EQ PUSH2 0x437 JUMPI PUSH2 0x1DA JUMP JUMPDEST DUP1 PUSH4 0xB6FC2D5F EQ PUSH2 0x363 JUMPI DUP1 PUSH4 0xBAB215F8 EQ PUSH2 0x381 JUMPI DUP1 PUSH4 0xBD9A548B EQ PUSH2 0x39D JUMPI PUSH2 0x1DA JUMP JUMPDEST DUP1 PUSH4 0x603DAF9A GT PUSH2 0x17C JUMPI DUP1 PUSH4 0x8A568299 GT PUSH2 0x14B JUMPI DUP1 PUSH4 0x8A568299 EQ PUSH2 0x2D9 JUMPI DUP1 PUSH4 0x8DA5CB5B EQ PUSH2 0x2F7 JUMPI DUP1 PUSH4 0xA2E800AD EQ PUSH2 0x315 JUMPI DUP1 PUSH4 0xA3F09AD6 EQ PUSH2 0x333 JUMPI PUSH2 0x1DA JUMP JUMPDEST DUP1 PUSH4 0x603DAF9A EQ PUSH2 0x275 JUMPI DUP1 PUSH4 0x715018A6 EQ PUSH2 0x293 JUMPI DUP1 PUSH4 0x839966AF EQ PUSH2 0x29D JUMPI DUP1 PUSH4 0x86BE75B7 EQ PUSH2 0x2BB JUMPI PUSH2 0x1DA JUMP JUMPDEST DUP1 PUSH4 0x43D726D6 GT PUSH2 0x1B8 JUMPI DUP1 PUSH4 0x43D726D6 EQ PUSH2 0x239 JUMPI DUP1 PUSH4 0x4C1786EA EQ PUSH2 0x243 JUMPI DUP1 PUSH4 0x4E71D92D EQ PUSH2 0x261 JUMPI DUP1 PUSH4 0x5B6A251B EQ PUSH2 0x26B JUMPI PUSH2 0x1DA JUMP JUMPDEST DUP1 PUSH4 0x15D655C9 EQ PUSH2 0x1DF JUMPI DUP1 PUSH4 0x200D2ED2 EQ PUSH2 0x1FD JUMPI DUP1 PUSH4 0x3FE3347A EQ PUSH2 0x21B JUMPI JUMPDEST PUSH1 0x0 DUP1 REVERT JUMPDEST PUSH2 0x1E7 PUSH2 0x541 JUMP JUMPDEST PUSH1 0x40 MLOAD PUSH2 0x1F4 SWAP2 SWAP1 PUSH2 0x1305 JUMP JUMPDEST PUSH1 0x40 MLOAD DUP1 SWAP2 SUB SWAP1 RETURN JUMPDEST PUSH2 0x205 PUSH2 0x547 JUMP JUMPDEST PUSH1 0x40 MLOAD PUSH2 0x212 SWAP2 SWAP1 PUSH2 0x1397 JUMP JUMPDEST PUSH1 0x40 MLOAD DUP1 SWAP2 SUB SWAP1 RETURN JUMPDEST PUSH2 0x223 PUSH2 0x55A JUMP JUMPDEST PUSH1 0x40 MLOAD PUSH2 0x230 SWAP2 SWAP1 PUSH2 0x13D1 JUMP JUMPDEST PUSH1 0x40 MLOAD DUP1 SWAP2 SUB SWAP1 RETURN JUMPDEST PUSH2 0x241 PUSH2 0x570 JUMP JUMPDEST STOP JUMPDEST PUSH2 0x24B PUSH2 0x5FB JUMP JUMPDEST PUSH1 0x40 MLOAD PUSH2 0x258 SWAP2 SWAP1 PUSH2 0x1305 JUMP JUMPDEST PUSH1 0x40 MLOAD DUP1 SWAP2 SUB SWAP1 RETURN JUMPDEST PUSH2 0x269 PUSH2 0x601 JUMP JUMPDEST STOP JUMPDEST PUSH2 0x273 PUSH2 0x6D7 JUMP JUMPDEST STOP JUMPDEST PUSH2 0x27D PUSH2 0x7F6 JUMP JUMPDEST PUSH1 0x40 MLOAD PUSH2 0x28A SWAP2 SWAP1 PUSH2 0x142D JUMP JUMPDEST PUSH1 0x40 MLOAD DUP1 SWAP2 SUB SWAP1 RETURN JUMPDEST PUSH2 0x29B PUSH2 0x820 JUMP JUMPDEST STOP JUMPDEST PUSH2 0x2A5 PUSH2 0x834 JUMP JUMPDEST PUSH1 0x40 MLOAD PUSH2 0x2B2 SWAP2 SWAP1 PUSH2 0x1463 JUMP JUMPDEST PUSH1 0x40 MLOAD DUP1 SWAP2 SUB SWAP1 RETURN JUMPDEST PUSH2 0x2C3 PUSH2 0x8B7 JUMP JUMPDEST PUSH1 0x40 MLOAD PUSH2 0x2D0 SWAP2 SWAP1 PUSH2 0x1305 JUMP JUMPDEST PUSH1 0x40 MLOAD DUP1 SWAP2 SUB SWAP1 RETURN JUMPDEST PUSH2 0x2E1 PUSH2 0x8BD JUMP JUMPDEST PUSH1 0x40 MLOAD PUSH2 0x2EE SWAP2 SWAP1 PUSH2 0x13D1 JUMP JUMPDEST PUSH1 0x40 MLOAD DUP1 SWAP2 SUB SWAP1 RETURN JUMPDEST PUSH2 0x2FF PUSH2 0x8D3 JUMP JUMPDEST PUSH1 0x40 MLOAD PUSH2 0x30C SWAP2 SWAP1 PUSH2 0x142D JUMP JUMPDEST PUSH1 0x40 MLOAD DUP1 SWAP2 SUB SWAP1 RETURN JUMPDEST PUSH2 0x31D PUSH2 0x8FC JUMP JUMPDEST PUSH1 0x40 MLOAD PUSH2 0x32A SWAP2 SWAP1 PUSH2 0x13D1 JUMP JUMPDEST PUSH1 0x40 MLOAD DUP1 SWAP2 SUB SWAP1 RETURN JUMPDEST PUSH2 0x34D PUSH1 0x4 DUP1 CALLDATASIZE SUB DUP2 ADD SWAP1 PUSH2 0x348 SWAP2 SWAP1 PUSH2 0x14AF JUMP JUMPDEST PUSH2 0x912 JUMP JUMPDEST PUSH1 0x40 MLOAD PUSH2 0x35A SWAP2 SWAP1 PUSH2 0x142D JUMP JUMPDEST PUSH1 0x40 MLOAD DUP1 SWAP2 SUB SWAP1 RETURN JUMPDEST PUSH2 0x36B PUSH2 0x987 JUMP JUMPDEST PUSH1 0x40 MLOAD PUSH2 0x378 SWAP2 SWAP1 PUSH2 0x1305 JUMP JUMPDEST PUSH1 0x40 MLOAD DUP1 SWAP2 SUB SWAP1 RETURN JUMPDEST PUSH2 0x39B PUSH1 0x4 DUP1 CALLDATASIZE SUB DUP2 ADD SWAP1 PUSH2 0x396 SWAP2 SWAP1 PUSH2 0x1508 JUMP JUMPDEST PUSH2 0x98D JUMP JUMPDEST STOP JUMPDEST PUSH2 0x3A5 PUSH2 0x9B7 JUMP JUMPDEST PUSH1 0x40 MLOAD PUSH2 0x3B2 SWAP2 SWAP1 PUSH2 0x15F3 JUMP JUMPDEST PUSH1 0x40 MLOAD DUP1 SWAP2 SUB SWAP1 RETURN JUMPDEST PUSH2 0x3D5 PUSH1 0x4 DUP1 CALLDATASIZE SUB DUP2 ADD SWAP1 PUSH2 0x3D0 SWAP2 SWAP1 PUSH2 0x163A JUMP JUMPDEST PUSH2 0x9F5 JUMP JUMPDEST PUSH1 0x40 MLOAD PUSH2 0x3E2 SWAP2 SWAP1 PUSH2 0x1305 JUMP JUMPDEST PUSH1 0x40 MLOAD DUP1 SWAP2 SUB SWAP1 RETURN JUMPDEST PUSH2 0x405 PUSH1 0x4 DUP1 CALLDATASIZE SUB DUP2 ADD SWAP1 PUSH2 0x400 SWAP2 SWAP1 PUSH2 0x1667 JUMP JUMPDEST PUSH2 0xA08 JUMP JUMPDEST STOP JUMPDEST PUSH2 0x421 PUSH1 0x4 DUP1 CALLDATASIZE SUB DUP2 ADD SWAP1 PUSH2 0x41C SWAP2 SWAP1 PUSH2 0x16E6 JUMP JUMPDEST PUSH2 0xB00 JUMP JUMPDEST PUSH1 0x40 MLOAD PUSH2 0x42E SWAP2 SWAP1 PUSH2 0x1305 JUMP JUMPDEST PUSH1 0x40 MLOAD DUP1 SWAP2 SUB SWAP1 RETURN JUMPDEST PUSH2 0x43F PUSH2 0xD41 JUMP JUMPDEST PUSH1 0x40 MLOAD PUSH2 0x44C SWAP2 SWAP1 PUSH2 0x1305 JUMP JUMPDEST PUSH1 0x40 MLOAD DUP1 SWAP2 SUB SWAP1 RETURN JUMPDEST PUSH2 0x45D PUSH2 0xD47 JUMP JUMPDEST PUSH1 0x40 MLOAD PUSH2 0x46A SWAP2 SWAP1 PUSH2 0x142D JUMP JUMPDEST PUSH1 0x40 MLOAD DUP1 SWAP2 SUB SWAP1 RETURN JUMPDEST PUSH2 0x47B PUSH2 0xD71 JUMP JUMPDEST PUSH1 0x40 MLOAD PUSH2 0x488 SWAP2 SWAP1 PUSH2 0x1305 JUMP JUMPDEST PUSH1 0x40 MLOAD DUP1 SWAP2 SUB SWAP1 RETURN JUMPDEST PUSH2 0x4AB PUSH1 0x4 DUP1 CALLDATASIZE SUB DUP2 ADD SWAP1 PUSH2 0x4A6 SWAP2 SWAP1 PUSH2 0x14AF JUMP JUMPDEST PUSH2 0xD77 JUMP JUMPDEST PUSH1 0x40 MLOAD PUSH2 0x4B8 SWAP2 SWAP1 PUSH2 0x142D JUMP JUMPDEST PUSH1 0x40 MLOAD DUP1 SWAP2 SUB SWAP1 RETURN JUMPDEST PUSH2 0x4C9 PUSH2 0xDEC JUMP JUMPDEST STOP JUMPDEST PUSH2 0x4D3 PUSH2 0xE77 JUMP JUMPDEST PUSH1 0x40 MLOAD PUSH2 0x4E0 SWAP2 SWAP1 PUSH2 0x1305 JUMP JUMPDEST PUSH1 0x40 MLOAD DUP1 SWAP2 SUB SWAP1 RETURN JUMPDEST PUSH2 0x503 PUSH1 0x4 DUP1 CALLDATASIZE SUB DUP2 ADD SWAP1 PUSH2 0x4FE SWAP2 SWAP1 PUSH2 0x14AF JUMP JUMPDEST PUSH2 0xECF JUMP JUMPDEST STOP JUMPDEST PUSH2 0x50D PUSH2 0xF53 JUMP JUMPDEST PUSH1 0x40 MLOAD PUSH2 0x51A SWAP2 SWAP1 PUSH2 0x1305 JUMP JUMPDEST PUSH1 0x40 MLOAD DUP1 SWAP2 SUB SWAP1 RETURN JUMPDEST PUSH2 0x52B PUSH2 0xF75 JUMP JUMPDEST PUSH1 0x40 MLOAD PUSH2 0x538 SWAP2 SWAP1 PUSH2 0x1463 JUMP JUMPDEST PUSH1 0x40 MLOAD DUP1 SWAP2 SUB SWAP1 RETURN JUMPDEST PUSH1 0x4 SLOAD DUP2 JUMP JUMPDEST PUSH1 0x2 PUSH1 0x14 SWAP1 SLOAD SWAP1 PUSH2 0x100 EXP SWAP1 DIV PUSH1 0xFF AND DUP2 JUMP JUMPDEST PUSH1 0xA PUSH1 0x1C SWAP1 SLOAD SWAP1 PUSH2 0x100 EXP SWAP1 DIV PUSH4 0xFFFFFFFF AND DUP2 JUMP JUMPDEST PUSH2 0x578 PUSH2 0x100E JUMP JUMPDEST PUSH1 0x2 PUSH1 0x4 DUP2 GT ISZERO PUSH2 0x58C JUMPI PUSH2 0x58B PUSH2 0x1320 JUMP JUMPDEST JUMPDEST PUSH1 0x2 PUSH1 0x14 SWAP1 SLOAD SWAP1 PUSH2 0x100 EXP SWAP1 DIV PUSH1 0xFF AND PUSH1 0x4 DUP2 GT ISZERO PUSH2 0x5AE JUMPI PUSH2 0x5AD PUSH2 0x1320 JUMP JUMPDEST JUMPDEST EQ PUSH2 0x5EE JUMPI PUSH1 0x40 MLOAD PUSH32 0x8C379A000000000000000000000000000000000000000000000000000000000 DUP2 MSTORE PUSH1 0x4 ADD PUSH2 0x5E5 SWAP1 PUSH2 0x1796 JUMP JUMPDEST PUSH1 0x40 MLOAD DUP1 SWAP2 SUB SWAP1 REVERT JUMPDEST PUSH2 0x5F8 PUSH1 0x4 PUSH2 0x108C JUMP JUMPDEST POP JUMP JUMPDEST PUSH1 0x7 SLOAD DUP2 JUMP JUMPDEST PUSH2 0x609 PUSH2 0x100E JUMP JUMPDEST PUSH1 0x2 PUSH1 0x4 DUP2 GT ISZERO PUSH2 0x61D JUMPI PUSH2 0x61C PUSH2 0x1320 JUMP JUMPDEST JUMPDEST PUSH1 0x2 PUSH1 0x14 SWAP1 SLOAD SWAP1 PUSH2 0x100 EXP SWAP1 DIV PUSH1 0xFF AND PUSH1 0x4 DUP2 GT ISZERO PUSH2 0x63F JUMPI PUSH2 0x63E PUSH2 0x1320 JUMP JUMPDEST JUMPDEST EQ PUSH2 0x67F JUMPI PUSH1 0x40 MLOAD PUSH32 0x8C379A000000000000000000000000000000000000000000000000000000000 DUP2 MSTORE PUSH1 0x4 ADD PUSH2 0x676 SWAP1 PUSH2 0x1796 JUMP JUMPDEST PUSH1 0x40 MLOAD DUP1 SWAP2 SUB SWAP1 REVERT JUMPDEST PUSH1 0x0 PUSH2 0x689 PUSH2 0xE77 JUMP JUMPDEST EQ ISZERO PUSH2 0x6CA JUMPI PUSH1 0x40 MLOAD PUSH32 0x8C379A000000000000000000000000000000000000000000000000000000000 DUP2 MSTORE PUSH1 0x4 ADD PUSH2 0x6C1 SWAP1 PUSH2 0x1828 JUMP JUMPDEST PUSH1 0x40 MLOAD DUP1 SWAP2 SUB SWAP1 REVERT JUMPDEST PUSH2 0x6D4 PUSH1 0x3 PUSH2 0x108C JUMP JUMPDEST POP JUMP JUMPDEST PUSH2 0x6DF PUSH2 0x100E JUMP JUMPDEST PUSH1 0x2 PUSH1 0x4 DUP2 GT ISZERO PUSH2 0x6F3 JUMPI PUSH2 0x6F2 PUSH2 0x1320 JUMP JUMPDEST JUMPDEST PUSH1 0x2 PUSH1 0x14 SWAP1 SLOAD SWAP1 PUSH2 0x100 EXP SWAP1 DIV PUSH1 0xFF AND PUSH1 0x4 DUP2 GT ISZERO PUSH2 0x715 JUMPI PUSH2 0x714 PUSH2 0x1320 JUMP JUMPDEST JUMPDEST EQ PUSH2 0x755 JUMPI PUSH1 0x40 MLOAD PUSH32 0x8C379A000000000000000000000000000000000000000000000000000000000 DUP2 MSTORE PUSH1 0x4 ADD PUSH2 0x74C SWAP1 PUSH2 0x1796 JUMP JUMPDEST PUSH1 0x40 MLOAD DUP1 SWAP2 SUB SWAP1 REVERT JUMPDEST PUSH1 0x0 PUSH1 0xA PUSH1 0x14 SWAP1 SLOAD SWAP1 PUSH2 0x100 EXP SWAP1 DIV PUSH4 0xFFFFFFFF AND PUSH4 0xFFFFFFFF AND GT PUSH2 0x7B0 JUMPI PUSH1 0x40 MLOAD PUSH32 0x8C379A000000000000000000000000000000000000000000000000000000000 DUP2 MSTORE PUSH1 0x4 ADD PUSH2 0x7A7 SWAP1 PUSH2 0x1894 JUMP JUMPDEST PUSH1 0x40 MLOAD DUP1 SWAP2 SUB SWAP1 REVERT JUMPDEST PUSH3 0x24EA00 PUSH1 0x8 PUSH1 0x0 DUP3 DUP3 SLOAD PUSH2 0x7C5 SWAP2 SWAP1 PUSH2 0x18E3 JUMP JUMPDEST SWAP3 POP POP DUP2 SWAP1 SSTORE POP PUSH2 0x7F3 PUSH1 0x1 PUSH1 0xA PUSH1 0x14 SWAP1 SLOAD SWAP1 PUSH2 0x100 EXP SWAP1 DIV PUSH4 0xFFFFFFFF AND PUSH2 0x7EE SWAP2 SWAP1 PUSH2 0x1939 JUMP JUMPDEST PUSH2 0x10D7 JUMP JUMPDEST POP JUMP JUMPDEST PUSH1 0x0 PUSH1 0x9 PUSH1 0x0 SWAP1 SLOAD SWAP1 PUSH2 0x100 EXP SWAP1 DIV PUSH20 0xFFFFFFFFFFFFFFFFFFFFFFFFFFFFFFFFFFFFFFFF AND SWAP1 POP SWAP1 JUMP JUMPDEST PUSH2 0x828 PUSH2 0x100E JUMP JUMPDEST PUSH2 0x832 PUSH1 0x0 PUSH2 0x111C JUMP JUMPDEST JUMP JUMPDEST PUSH1 0x0 PUSH1 0x2 PUSH1 0x4 DUP2 GT ISZERO PUSH2 0x84A JUMPI PUSH2 0x849 PUSH2 0x1320 JUMP JUMPDEST JUMPDEST PUSH1 0x2 PUSH1 0x14 SWAP1 SLOAD SWAP1 PUSH2 0x100 EXP SWAP1 DIV PUSH1 0xFF AND PUSH1 0x4 DUP2 GT ISZERO PUSH2 0x86C JUMPI PUSH2 0x86B PUSH2 0x1320 JUMP JUMPDEST JUMPDEST EQ PUSH2 0x8AC JUMPI PUSH1 0x40 MLOAD PUSH32 0x8C379A000000000000000000000000000000000000000000000000000000000 DUP2 MSTORE PUSH1 0x4 ADD PUSH2 0x8A3 SWAP1 PUSH2 0x1796 JUMP JUMPDEST PUSH1 0x40 MLOAD DUP1 SWAP2 SUB SWAP1 REVERT JUMPDEST PUSH1 0x8 SLOAD TIMESTAMP LT ISZERO SWAP1 POP SWAP1 JUMP JUMPDEST PUSH1 0x3 SLOAD DUP2 JUMP JUMPDEST PUSH1 0xA PUSH1 0x18 SWAP1 SLOAD SWAP1 PUSH2 0x100 EXP SWAP1 DIV PUSH4 0xFFFFFFFF AND DUP2 JUMP JUMPDEST PUSH1 0x0 DUP1 PUSH1 0x0 SWAP1 SLOAD SWAP1 PUSH2 0x100 EXP SWAP1 DIV PUSH20 0xFFFFFFFFFFFFFFFFFFFFFFFFFFFFFFFFFFFFFFFF AND SWAP1 POP SWAP1 JUMP JUMPDEST PUSH1 0xA PUSH1 0x14 SWAP1 SLOAD SWAP1 PUSH2 0x100 EXP SWAP1 DIV PUSH4 0xFFFFFFFF AND DUP2 JUMP JUMPDEST PUSH1 0x0 PUSH2 0x91C PUSH2 0x100E JUMP JUMPDEST DUP2 PUSH1 0x9 PUSH1 0x0 PUSH2 0x100 EXP DUP2 SLOAD DUP2 PUSH20 0xFFFFFFFFFFFFFFFFFFFFFFFFFFFFFFFFFFFFFFFF MUL NOT AND SWAP1 DUP4 PUSH20 0xFFFFFFFFFFFFFFFFFFFFFFFFFFFFFFFFFFFFFFFF AND MUL OR SWAP1 SSTORE POP PUSH1 0x9 PUSH1 0x0 SWAP1 SLOAD SWAP1 PUSH2 0x100 EXP SWAP1 DIV PUSH20 0xFFFFFFFFFFFFFFFFFFFFFFFFFFFFFFFFFFFFFFFF AND SWAP1 POP SWAP2 SWAP1 POP JUMP JUMPDEST PUSH1 0x5 SLOAD DUP2 JUMP JUMPDEST PUSH2 0x995 PUSH2 0x100E JUMP JUMPDEST DUP1 PUSH2 0x9A8 JUMPI PUSH2 0x9A3 DUP3 PUSH2 0xD77 JUMP JUMPDEST PUSH2 0x9B2 JUMP JUMPDEST PUSH2 0x9B1 DUP3 PUSH2 0x912 JUMP JUMPDEST JUMPDEST POP POP POP JUMP JUMPDEST PUSH2 0x9BF PUSH2 0x12CA JUMP JUMPDEST PUSH1 0x40 MLOAD DUP1 PUSH1 0xA0 ADD PUSH1 0x40 MSTORE DUP1 PUSH1 0x3 SLOAD DUP2 MSTORE PUSH1 0x20 ADD PUSH1 0x4 SLOAD DUP2 MSTORE PUSH1 0x20 ADD PUSH1 0x5 SLOAD DUP2 MSTORE PUSH1 0x20 ADD PUSH1 0x6 SLOAD DUP2 MSTORE PUSH1 0x20 ADD PUSH1 0x7 SLOAD DUP2 MSTORE POP SWAP1 POP SWAP1 JUMP JUMPDEST PUSH1 0x0 DUP2 PUSH1 0x3 DUP2 SWAP1 SSTORE POP PUSH1 0x3 SLOAD SWAP1 POP SWAP2 SWAP1 POP JUMP JUMPDEST PUSH2 0xA10 PUSH2 0x100E JUMP JUMPDEST PUSH1 0x1 PUSH1 0x4 DUP2 GT ISZERO PUSH2 0xA24 JUMPI PUSH2 0xA23 PUSH2 0x1320 JUMP JUMPDEST JUMPDEST PUSH1 0x2 PUSH1 0x14 SWAP1 SLOAD SWAP1 PUSH2 0x100 EXP SWAP1 DIV PUSH1 0xFF AND PUSH1 0x4 DUP2 GT ISZERO PUSH2 0xA46 JUMPI PUSH2 0xA45 PUSH2 0x1320 JUMP JUMPDEST JUMPDEST EQ PUSH2 0xA86 JUMPI PUSH1 0x40 MLOAD PUSH32 0x8C379A000000000000000000000000000000000000000000000000000000000 DUP2 MSTORE PUSH1 0x4 ADD PUSH2 0xA7D SWAP1 PUSH2 0x19DF JUMP JUMPDEST PUSH1 0x40 MLOAD DUP1 SWAP2 SUB SWAP1 REVERT JUMPDEST PUSH2 0xA8F DUP4 PUSH2 0x9F5 JUMP JUMPDEST POP PUSH2 0xA9B DUP3 DUP3 ISZERO PUSH2 0x98D JUMP JUMPDEST PUSH2 0xAA5 PUSH1 0x2 PUSH2 0x108C JUMP JUMPDEST POP PUSH3 0x24EA00 TIMESTAMP PUSH2 0xAB5 SWAP2 SWAP1 PUSH2 0x18E3 JUMP JUMPDEST PUSH1 0x8 DUP2 SWAP1 SSTORE POP PUSH1 0x1 PUSH1 0xA PUSH1 0x14 DUP3 DUP3 DUP3 SWAP1 SLOAD SWAP1 PUSH2 0x100 EXP SWAP1 DIV PUSH4 0xFFFFFFFF AND PUSH2 0xADD SWAP2 SWAP1 PUSH2 0x1939 JUMP JUMPDEST SWAP3 POP PUSH2 0x100 EXP DUP2 SLOAD DUP2 PUSH4 0xFFFFFFFF MUL NOT AND SWAP1 DUP4 PUSH4 0xFFFFFFFF AND MUL OR SWAP1 SSTORE POP POP POP POP JUMP JUMPDEST PUSH1 0x0 DUP1 PUSH1 0x0 DUP4 PUSH4 0xFFFFFFFF AND EQ ISZERO PUSH2 0xBC0 JUMPI PUSH2 0xBB9 PUSH4 0x5F5E100 PUSH1 0x1 PUSH1 0x0 SWAP1 SLOAD SWAP1 PUSH2 0x100 EXP SWAP1 DIV PUSH20 0xFFFFFFFFFFFFFFFFFFFFFFFFFFFFFFFFFFFFFFFF AND PUSH20 0xFFFFFFFFFFFFFFFFFFFFFFFFFFFFFFFFFFFFFFFF AND PUSH4 0xA8AD52D1 PUSH1 0x40 MLOAD DUP2 PUSH4 0xFFFFFFFF AND PUSH1 0xE0 SHL DUP2 MSTORE PUSH1 0x4 ADD PUSH1 0x20 PUSH1 0x40 MLOAD DUP1 DUP4 SUB DUP2 DUP7 GAS STATICCALL ISZERO DUP1 ISZERO PUSH2 0xB87 JUMPI RETURNDATASIZE PUSH1 0x0 DUP1 RETURNDATACOPY RETURNDATASIZE PUSH1 0x0 REVERT JUMPDEST POP POP POP POP PUSH1 0x40 MLOAD RETURNDATASIZE PUSH1 0x1F NOT PUSH1 0x1F DUP3 ADD AND DUP3 ADD DUP1 PUSH1 0x40 MSTORE POP DUP2 ADD SWAP1 PUSH2 0xBAB SWAP2 SWAP1 PUSH2 0x1A14 JUMP JUMPDEST PUSH2 0x11E0 SWAP1 SWAP2 SWAP1 PUSH4 0xFFFFFFFF AND JUMP JUMPDEST SWAP1 POP PUSH2 0xD38 JUMP JUMPDEST PUSH1 0x1 DUP4 PUSH4 0xFFFFFFFF AND EQ ISZERO PUSH2 0xC7D JUMPI PUSH2 0xC76 PUSH4 0x5F5E100 PUSH1 0x1 PUSH1 0x0 SWAP1 SLOAD SWAP1 PUSH2 0x100 EXP SWAP1 DIV PUSH20 0xFFFFFFFFFFFFFFFFFFFFFFFFFFFFFFFFFFFFFFFF AND PUSH20 0xFFFFFFFFFFFFFFFFFFFFFFFFFFFFFFFFFFFFFFFF AND PUSH4 0xFF186B2E PUSH1 0x40 MLOAD DUP2 PUSH4 0xFFFFFFFF AND PUSH1 0xE0 SHL DUP2 MSTORE PUSH1 0x4 ADD PUSH1 0x20 PUSH1 0x40 MLOAD DUP1 DUP4 SUB DUP2 DUP7 GAS STATICCALL ISZERO DUP1 ISZERO PUSH2 0xC44 JUMPI RETURNDATASIZE PUSH1 0x0 DUP1 RETURNDATACOPY RETURNDATASIZE PUSH1 0x0 REVERT JUMPDEST POP POP POP POP PUSH1 0x40 MLOAD RETURNDATASIZE PUSH1 0x1F NOT PUSH1 0x1F DUP3 ADD AND DUP3 ADD DUP1 PUSH1 0x40 MSTORE POP DUP2 ADD SWAP1 PUSH2 0xC68 SWAP2 SWAP1 PUSH2 0x1A14 JUMP JUMPDEST PUSH2 0x11E0 SWAP1 SWAP2 SWAP1 PUSH4 0xFFFFFFFF AND JUMP JUMPDEST SWAP1 POP PUSH2 0xD37 JUMP JUMPDEST PUSH1 0x2 DUP4 PUSH4 0xFFFFFFFF AND EQ ISZERO PUSH2 0xD36 JUMPI PUSH2 0xD33 PUSH4 0x5F5E100 PUSH1 0x1 PUSH1 0x0 SWAP1 SLOAD SWAP1 PUSH2 0x100 EXP SWAP1 DIV PUSH20 0xFFFFFFFFFFFFFFFFFFFFFFFFFFFFFFFFFFFFFFFF AND PUSH20 0xFFFFFFFFFFFFFFFFFFFFFFFFFFFFFFFFFFFFFFFF AND PUSH4 0xCF78535 PUSH1 0x40 MLOAD DUP2 PUSH4 0xFFFFFFFF AND PUSH1 0xE0 SHL DUP2 MSTORE PUSH1 0x4 ADD PUSH1 0x20 PUSH1 0x40 MLOAD DUP1 DUP4 SUB DUP2 DUP7 GAS STATICCALL ISZERO DUP1 ISZERO PUSH2 0xD01 JUMPI RETURNDATASIZE PUSH1 0x0 DUP1 RETURNDATACOPY RETURNDATASIZE PUSH1 0x0 REVERT JUMPDEST POP POP POP POP PUSH1 0x40 MLOAD RETURNDATASIZE PUSH1 0x1F NOT PUSH1 0x1F DUP3 ADD AND DUP3 ADD DUP1 PUSH1 0x40 MSTORE POP DUP2 ADD SWAP1 PUSH2 0xD25 SWAP2 SWAP1 PUSH2 0x1A14 JUMP JUMPDEST PUSH2 0x11E0 SWAP1 SWAP2 SWAP1 PUSH4 0xFFFFFFFF AND JUMP JUMPDEST SWAP1 POP JUMPDEST JUMPDEST JUMPDEST DUP1 SWAP2 POP POP SWAP2 SWAP1 POP JUMP JUMPDEST PUSH1 0x8 SLOAD DUP2 JUMP JUMPDEST PUSH1 0x0 PUSH1 0xA PUSH1 0x0 SWAP1 SLOAD SWAP1 PUSH2 0x100 EXP SWAP1 DIV PUSH20 0xFFFFFFFFFFFFFFFFFFFFFFFFFFFFFFFFFFFFFFFF AND SWAP1 POP SWAP1 JUMP JUMPDEST PUSH1 0x6 SLOAD DUP2 JUMP JUMPDEST PUSH1 0x0 PUSH2 0xD81 PUSH2 0x100E JUMP JUMPDEST DUP2 PUSH1 0xA PUSH1 0x0 PUSH2 0x100 EXP DUP2 SLOAD DUP2 PUSH20 0xFFFFFFFFFFFFFFFFFFFFFFFFFFFFFFFFFFFFFFFF MUL NOT AND SWAP1 DUP4 PUSH20 0xFFFFFFFFFFFFFFFFFFFFFFFFFFFFFFFFFFFFFFFF AND MUL OR SWAP1 SSTORE POP PUSH1 0xA PUSH1 0x0 SWAP1 SLOAD SWAP1 PUSH2 0x100 EXP SWAP1 DIV PUSH20 0xFFFFFFFFFFFFFFFFFFFFFFFFFFFFFFFFFFFFFFFF AND SWAP1 POP SWAP2 SWAP1 POP JUMP JUMPDEST PUSH2 0xDF4 PUSH2 0x100E JUMP JUMPDEST PUSH1 0x1 PUSH1 0x4 DUP2 GT ISZERO PUSH2 0xE08 JUMPI PUSH2 0xE07 PUSH2 0x1320 JUMP JUMPDEST JUMPDEST PUSH1 0x2 PUSH1 0x14 SWAP1 SLOAD SWAP1 PUSH2 0x100 EXP SWAP1 DIV PUSH1 0xFF AND PUSH1 0x4 DUP2 GT ISZERO PUSH2 0xE2A JUMPI PUSH2 0xE29 PUSH2 0x1320 JUMP JUMPDEST JUMPDEST EQ PUSH2 0xE6A JUMPI PUSH1 0x40 MLOAD PUSH32 0x8C379A000000000000000000000000000000000000000000000000000000000 DUP2 MSTORE PUSH1 0x4 ADD PUSH2 0xE61 SWAP1 PUSH2 0x19DF JUMP JUMPDEST PUSH1 0x40 MLOAD DUP1 SWAP2 SUB SWAP1 REVERT JUMPDEST PUSH2 0xE74 PUSH1 0x0 PUSH2 0x108C JUMP JUMPDEST POP JUMP JUMPDEST PUSH1 0x0 DUP1 PUSH2 0xE95 PUSH1 0xA PUSH1 0x1C SWAP1 SLOAD SWAP1 PUSH2 0x100 EXP SWAP1 DIV PUSH4 0xFFFFFFFF AND PUSH2 0xB00 JUMP JUMPDEST SWAP1 POP DUP1 PUSH1 0x4 SLOAD LT ISZERO PUSH2 0xEAB JUMPI PUSH1 0x0 SWAP2 POP POP PUSH2 0xECC JUMP JUMPDEST PUSH2 0xEC8 PUSH1 0x5 SLOAD PUSH1 0x3 SLOAD DUP4 PUSH1 0x7 SLOAD PUSH2 0x11F6 SWAP1 SWAP4 SWAP3 SWAP2 SWAP1 PUSH4 0xFFFFFFFF AND JUMP JUMPDEST SWAP2 POP POP JUMPDEST SWAP1 JUMP JUMPDEST PUSH2 0xED7 PUSH2 0x100E JUMP JUMPDEST PUSH1 0x0 PUSH20 0xFFFFFFFFFFFFFFFFFFFFFFFFFFFFFFFFFFFFFFFF AND DUP2 PUSH20 0xFFFFFFFFFFFFFFFFFFFFFFFFFFFFFFFFFFFFFFFF AND EQ ISZERO PUSH2 0xF47 JUMPI PUSH1 0x40 MLOAD PUSH32 0x8C379A000000000000000000000000000000000000000000000000000000000 DUP2 MSTORE PUSH1 0x4 ADD PUSH2 0xF3E SWAP1 PUSH2 0x1AB3 JUMP JUMPDEST PUSH1 0x40 MLOAD DUP1 SWAP2 SUB SWAP1 REVERT JUMPDEST PUSH2 0xF50 DUP2 PUSH2 0x111C JUMP JUMPDEST POP JUMP JUMPDEST PUSH1 0x0 PUSH2 0xF70 PUSH1 0x5 SLOAD PUSH1 0x7 SLOAD PUSH1 0x3 SLOAD PUSH2 0x1266 SWAP1 SWAP3 SWAP2 SWAP1 PUSH4 0xFFFFFFFF AND JUMP JUMPDEST SWAP1 POP SWAP1 JUMP JUMPDEST PUSH1 0x0 PUSH1 0x2 PUSH1 0x4 DUP2 GT ISZERO PUSH2 0xF8B JUMPI PUSH2 0xF8A PUSH2 0x1320 JUMP JUMPDEST JUMPDEST PUSH1 0x2 PUSH1 0x14 SWAP1 SLOAD SWAP1 PUSH2 0x100 EXP SWAP1 DIV PUSH1 0xFF AND PUSH1 0x4 DUP2 GT ISZERO PUSH2 0xFAD JUMPI PUSH2 0xFAC PUSH2 0x1320 JUMP JUMPDEST JUMPDEST EQ PUSH2 0xFED JUMPI PUSH1 0x40 MLOAD PUSH32 0x8C379A000000000000000000000000000000000000000000000000000000000 DUP2 MSTORE PUSH1 0x4 ADD PUSH2 0xFE4 SWAP1 PUSH2 0x1796 JUMP JUMPDEST PUSH1 0x40 MLOAD DUP1 SWAP2 SUB SWAP1 REVERT JUMPDEST PUSH1 0x0 PUSH1 0xA PUSH1 0x14 SWAP1 SLOAD SWAP1 PUSH2 0x100 EXP SWAP1 DIV PUSH4 0xFFFFFFFF AND PUSH4 0xFFFFFFFF AND EQ SWAP1 POP SWAP1 JUMP JUMPDEST PUSH2 0x1016 PUSH2 0x1296 JUMP JUMPDEST PUSH20 0xFFFFFFFFFFFFFFFFFFFFFFFFFFFFFFFFFFFFFFFF AND PUSH2 0x1034 PUSH2 0x8D3 JUMP JUMPDEST PUSH20 0xFFFFFFFFFFFFFFFFFFFFFFFFFFFFFFFFFFFFFFFF AND EQ PUSH2 0x108A JUMPI PUSH1 0x40 MLOAD PUSH32 0x8C379A000000000000000000000000000000000000000000000000000000000 DUP2 MSTORE PUSH1 0x4 ADD PUSH2 0x1081 SWAP1 PUSH2 0x1B1F JUMP JUMPDEST PUSH1 0x40 MLOAD DUP1 SWAP2 SUB SWAP1 REVERT JUMPDEST JUMP JUMPDEST PUSH1 0x0 PUSH2 0x1096 PUSH2 0x100E JUMP JUMPDEST DUP2 PUSH1 0x2 PUSH1 0x14 PUSH2 0x100 EXP DUP2 SLOAD DUP2 PUSH1 0xFF MUL NOT AND SWAP1 DUP4 PUSH1 0x4 DUP2 GT ISZERO PUSH2 0x10BB JUMPI PUSH2 0x10BA PUSH2 0x1320 JUMP JUMPDEST JUMPDEST MUL OR SWAP1 SSTORE POP PUSH1 0x2 PUSH1 0x14 SWAP1 SLOAD SWAP1 PUSH2 0x100 EXP SWAP1 DIV PUSH1 0xFF AND SWAP1 POP SWAP2 SWAP1 POP JUMP JUMPDEST PUSH1 0x0 PUSH2 0x10E1 PUSH2 0x100E JUMP JUMPDEST DUP2 PUSH1 0xA PUSH1 0x14 PUSH2 0x100 EXP DUP2 SLOAD DUP2 PUSH4 0xFFFFFFFF MUL NOT AND SWAP1 DUP4 PUSH4 0xFFFFFFFF AND MUL OR SWAP1 SSTORE POP PUSH1 0xA PUSH1 0x14 SWAP1 SLOAD SWAP1 PUSH2 0x100 EXP SWAP1 DIV PUSH4 0xFFFFFFFF AND SWAP1 POP SWAP2 SWAP1 POP JUMP JUMPDEST PUSH1 0x0 DUP1 PUSH1 0x0 SWAP1 SLOAD SWAP1 PUSH2 0x100 EXP SWAP1 DIV PUSH20 0xFFFFFFFFFFFFFFFFFFFFFFFFFFFFFFFFFFFFFFFF AND SWAP1 POP DUP2 PUSH1 0x0 DUP1 PUSH2 0x100 EXP DUP2 SLOAD DUP2 PUSH20 0xFFFFFFFFFFFFFFFFFFFFFFFFFFFFFFFFFFFFFFFF MUL NOT AND SWAP1 DUP4 PUSH20 0xFFFFFFFFFFFFFFFFFFFFFFFFFFFFFFFFFFFFFFFF AND MUL OR SWAP1 SSTORE POP DUP2 PUSH20 0xFFFFFFFFFFFFFFFFFFFFFFFFFFFFFFFFFFFFFFFF AND DUP2 PUSH20 0xFFFFFFFFFFFFFFFFFFFFFFFFFFFFFFFFFFFFFFFF AND PUSH32 0x8BE0079C531659141344CD1FD0A4F28419497F9722A3DAAFE3B4186F6B6457E0 PUSH1 0x40 MLOAD PUSH1 0x40 MLOAD DUP1 SWAP2 SUB SWAP1 LOG3 POP POP JUMP JUMPDEST PUSH1 0x0 DUP2 DUP4 PUSH2 0x11EE SWAP2 SWAP1 PUSH2 0x1B6E JUMP JUMPDEST SWAP1 POP SWAP3 SWAP2 POP POP JUMP JUMPDEST PUSH1 0x0 DUP1 DUP3 DUP6 LT PUSH2 0x1208 JUMPI DUP6 SWAP1 POP PUSH2 0x125A JUMP JUMPDEST PUSH1 0x0 PUSH2 0x122F PUSH2 0x1220 DUP8 DUP8 PUSH2 0x129E SWAP1 SWAP2 SWAP1 PUSH4 0xFFFFFFFF AND JUMP JUMPDEST DUP9 PUSH2 0x11E0 SWAP1 SWAP2 SWAP1 PUSH4 0xFFFFFFFF AND JUMP JUMPDEST SWAP1 POP PUSH2 0x1256 PUSH2 0x1247 DUP6 DUP8 PUSH2 0x129E SWAP1 SWAP2 SWAP1 PUSH4 0xFFFFFFFF AND JUMP JUMPDEST DUP3 PUSH2 0x12B4 SWAP1 SWAP2 SWAP1 PUSH4 0xFFFFFFFF AND JUMP JUMPDEST SWAP2 POP POP JUMPDEST DUP1 SWAP2 POP POP SWAP5 SWAP4 POP POP POP POP JUMP JUMPDEST PUSH1 0x0 PUSH2 0x128D PUSH2 0x127E DUP5 DUP7 PUSH2 0x129E SWAP1 SWAP2 SWAP1 PUSH4 0xFFFFFFFF AND JUMP JUMPDEST DUP4 PUSH2 0x11E0 SWAP1 SWAP2 SWAP1 PUSH4 0xFFFFFFFF AND JUMP JUMPDEST SWAP1 POP SWAP4 SWAP3 POP POP POP JUMP JUMPDEST PUSH1 0x0 CALLER SWAP1 POP SWAP1 JUMP JUMPDEST PUSH1 0x0 DUP2 DUP4 PUSH2 0x12AC SWAP2 SWAP1 PUSH2 0x1B9F JUMP JUMPDEST SWAP1 POP SWAP3 SWAP2 POP POP JUMP JUMPDEST PUSH1 0x0 DUP2 DUP4 PUSH2 0x12C2 SWAP2 SWAP1 PUSH2 0x1BD3 JUMP JUMPDEST SWAP1 POP SWAP3 SWAP2 POP POP JUMP JUMPDEST PUSH1 0x40 MLOAD DUP1 PUSH1 0xA0 ADD PUSH1 0x40 MSTORE DUP1 PUSH1 0x5 SWAP1 PUSH1 0x20 DUP3 MUL DUP1 CALLDATASIZE DUP4 CALLDATACOPY DUP1 DUP3 ADD SWAP2 POP POP SWAP1 POP POP SWAP1 JUMP JUMPDEST PUSH1 0x0 DUP2 SWAP1 POP SWAP2 SWAP1 POP JUMP JUMPDEST PUSH2 0x12FF DUP2 PUSH2 0x12EC JUMP JUMPDEST DUP3 MSTORE POP POP JUMP JUMPDEST PUSH1 0x0 PUSH1 0x20 DUP3 ADD SWAP1 POP PUSH2 0x131A PUSH1 0x0 DUP4 ADD DUP5 PUSH2 0x12F6 JUMP JUMPDEST SWAP3 SWAP2 POP POP JUMP JUMPDEST PUSH32 0x4E487B7100000000000000000000000000000000000000000000000000000000 PUSH1 0x0 MSTORE PUSH1 0x21 PUSH1 0x4 MSTORE PUSH1 0x24 PUSH1 0x0 REVERT JUMPDEST PUSH1 0x5 DUP2 LT PUSH2 0x1360 JUMPI PUSH2 0x135F PUSH2 0x1320 JUMP JUMPDEST JUMPDEST POP JUMP JUMPDEST PUSH1 0x0 DUP2 SWAP1 POP PUSH2 0x1371 DUP3 PUSH2 0x134F JUMP JUMPDEST SWAP2 SWAP1 POP JUMP JUMPDEST PUSH1 0x0 PUSH2 0x1381 DUP3 PUSH2 0x1363 JUMP JUMPDEST SWAP1 POP SWAP2 SWAP1 POP JUMP JUMPDEST PUSH2 0x1391 DUP2 PUSH2 0x1376 JUMP JUMPDEST DUP3 MSTORE POP POP JUMP JUMPDEST PUSH1 0x0 PUSH1 0x20 DUP3 ADD SWAP1 POP PUSH2 0x13AC PUSH1 0x0 DUP4 ADD DUP5 PUSH2 0x1388 JUMP JUMPDEST SWAP3 SWAP2 POP POP JUMP JUMPDEST PUSH1 0x0 PUSH4 0xFFFFFFFF DUP3 AND SWAP1 POP SWAP2 SWAP1 POP JUMP JUMPDEST PUSH2 0x13CB DUP2 PUSH2 0x13B2 JUMP JUMPDEST DUP3 MSTORE POP POP JUMP JUMPDEST PUSH1 0x0 PUSH1 0x20 DUP3 ADD SWAP1 POP PUSH2 0x13E6 PUSH1 0x0 DUP4 ADD DUP5 PUSH2 0x13C2 JUMP JUMPDEST SWAP3 SWAP2 POP POP JUMP JUMPDEST PUSH1 0x0 PUSH20 0xFFFFFFFFFFFFFFFFFFFFFFFFFFFFFFFFFFFFFFFF DUP3 AND SWAP1 POP SWAP2 SWAP1 POP JUMP JUMPDEST PUSH1 0x0 PUSH2 0x1417 DUP3 PUSH2 0x13EC JUMP JUMPDEST SWAP1 POP SWAP2 SWAP1 POP JUMP JUMPDEST PUSH2 0x1427 DUP2 PUSH2 0x140C JUMP JUMPDEST DUP3 MSTORE POP POP JUMP JUMPDEST PUSH1 0x0 PUSH1 0x20 DUP3 ADD SWAP1 POP PUSH2 0x1442 PUSH1 0x0 DUP4 ADD DUP5 PUSH2 0x141E JUMP JUMPDEST SWAP3 SWAP2 POP POP JUMP JUMPDEST PUSH1 0x0 DUP2 ISZERO ISZERO SWAP1 POP SWAP2 SWAP1 POP JUMP JUMPDEST PUSH2 0x145D DUP2 PUSH2 0x1448 JUMP JUMPDEST DUP3 MSTORE POP POP JUMP JUMPDEST PUSH1 0x0 PUSH1 0x20 DUP3 ADD SWAP1 POP PUSH2 0x1478 PUSH1 0x0 DUP4 ADD DUP5 PUSH2 0x1454 JUMP JUMPDEST SWAP3 SWAP2 POP POP JUMP JUMPDEST PUSH1 0x0 DUP1 REVERT JUMPDEST PUSH2 0x148C DUP2 PUSH2 0x140C JUMP JUMPDEST DUP2 EQ PUSH2 0x1497 JUMPI PUSH1 0x0 DUP1 REVERT JUMPDEST POP JUMP JUMPDEST PUSH1 0x0 DUP2 CALLDATALOAD SWAP1 POP PUSH2 0x14A9 DUP2 PUSH2 0x1483 JUMP JUMPDEST SWAP3 SWAP2 POP POP JUMP JUMPDEST PUSH1 0x0 PUSH1 0x20 DUP3 DUP5 SUB SLT ISZERO PUSH2 0x14C5 JUMPI PUSH2 0x14C4 PUSH2 0x147E JUMP JUMPDEST JUMPDEST PUSH1 0x0 PUSH2 0x14D3 DUP5 DUP3 DUP6 ADD PUSH2 0x149A JUMP JUMPDEST SWAP2 POP POP SWAP3 SWAP2 POP POP JUMP JUMPDEST PUSH2 0x14E5 DUP2 PUSH2 0x1448 JUMP JUMPDEST DUP2 EQ PUSH2 0x14F0 JUMPI PUSH1 0x0 DUP1 REVERT JUMPDEST POP JUMP JUMPDEST PUSH1 0x0 DUP2 CALLDATALOAD SWAP1 POP PUSH2 0x1502 DUP2 PUSH2 0x14DC JUMP JUMPDEST SWAP3 SWAP2 POP POP JUMP JUMPDEST PUSH1 0x0 DUP1 PUSH1 0x40 DUP4 DUP6 SUB SLT ISZERO PUSH2 0x151F JUMPI PUSH2 0x151E PUSH2 0x147E JUMP JUMPDEST JUMPDEST PUSH1 0x0 PUSH2 0x152D DUP6 DUP3 DUP7 ADD PUSH2 0x149A JUMP JUMPDEST SWAP3 POP POP PUSH1 0x20 PUSH2 0x153E DUP6 DUP3 DUP7 ADD PUSH2 0x14F3 JUMP JUMPDEST SWAP2 POP POP SWAP3 POP SWAP3 SWAP1 POP JUMP JUMPDEST PUSH1 0x0 PUSH1 0x5 SWAP1 POP SWAP2 SWAP1 POP JUMP JUMPDEST PUSH1 0x0 DUP2 SWAP1 POP SWAP3 SWAP2 POP POP JUMP JUMPDEST PUSH1 0x0 DUP2 SWAP1 POP SWAP2 SWAP1 POP JUMP JUMPDEST PUSH2 0x1571 DUP2 PUSH2 0x12EC JUMP JUMPDEST DUP3 MSTORE POP POP JUMP JUMPDEST PUSH1 0x0 PUSH2 0x1583 DUP4 DUP4 PUSH2 0x1568 JUMP JUMPDEST PUSH1 0x20 DUP4 ADD SWAP1 POP SWAP3 SWAP2 POP POP JUMP JUMPDEST PUSH1 0x0 PUSH1 0x20 DUP3 ADD SWAP1 POP SWAP2 SWAP1 POP JUMP JUMPDEST PUSH2 0x15A5 DUP2 PUSH2 0x1548 JUMP JUMPDEST PUSH2 0x15AF DUP2 DUP5 PUSH2 0x1553 JUMP JUMPDEST SWAP3 POP PUSH2 0x15BA DUP3 PUSH2 0x155E JUMP JUMPDEST DUP1 PUSH1 0x0 JUMPDEST DUP4 DUP2 LT ISZERO PUSH2 0x15EB JUMPI DUP2 MLOAD PUSH2 0x15D2 DUP8 DUP3 PUSH2 0x1577 JUMP JUMPDEST SWAP7 POP PUSH2 0x15DD DUP4 PUSH2 0x158F JUMP JUMPDEST SWAP3 POP POP PUSH1 0x1 DUP2 ADD SWAP1 POP PUSH2 0x15BE JUMP JUMPDEST POP POP POP POP POP POP JUMP JUMPDEST PUSH1 0x0 PUSH1 0xA0 DUP3 ADD SWAP1 POP PUSH2 0x1608 PUSH1 0x0 DUP4 ADD DUP5 PUSH2 0x159C JUMP JUMPDEST SWAP3 SWAP2 POP POP JUMP JUMPDEST PUSH2 0x1617 DUP2 PUSH2 0x12EC JUMP JUMPDEST DUP2 EQ PUSH2 0x1622 JUMPI PUSH1 0x0 DUP1 REVERT JUMPDEST POP JUMP JUMPDEST PUSH1 0x0 DUP2 CALLDATALOAD SWAP1 POP PUSH2 0x1634 DUP2 PUSH2 0x160E JUMP JUMPDEST SWAP3 SWAP2 POP POP JUMP JUMPDEST PUSH1 0x0 PUSH1 0x20 DUP3 DUP5 SUB SLT ISZERO PUSH2 0x1650 JUMPI PUSH2 0x164F PUSH2 0x147E JUMP JUMPDEST JUMPDEST PUSH1 0x0 PUSH2 0x165E DUP5 DUP3 DUP6 ADD PUSH2 0x1625 JUMP JUMPDEST SWAP2 POP POP SWAP3 SWAP2 POP POP JUMP JUMPDEST PUSH1 0x0 DUP1 PUSH1 0x0 PUSH1 0x60 DUP5 DUP7 SUB SLT ISZERO PUSH2 0x1680 JUMPI PUSH2 0x167F PUSH2 0x147E JUMP JUMPDEST JUMPDEST PUSH1 0x0 PUSH2 0x168E DUP7 DUP3 DUP8 ADD PUSH2 0x1625 JUMP JUMPDEST SWAP4 POP POP PUSH1 0x20 PUSH2 0x169F DUP7 DUP3 DUP8 ADD PUSH2 0x149A JUMP JUMPDEST SWAP3 POP POP PUSH1 0x40 PUSH2 0x16B0 DUP7 DUP3 DUP8 ADD PUSH2 0x14F3 JUMP JUMPDEST SWAP2 POP POP SWAP3 POP SWAP3 POP SWAP3 JUMP JUMPDEST PUSH2 0x16C3 DUP2 PUSH2 0x13B2 JUMP JUMPDEST DUP2 EQ PUSH2 0x16CE JUMPI PUSH1 0x0 DUP1 REVERT JUMPDEST POP JUMP JUMPDEST PUSH1 0x0 DUP2 CALLDATALOAD SWAP1 POP PUSH2 0x16E0 DUP2 PUSH2 0x16BA JUMP JUMPDEST SWAP3 SWAP2 POP POP JUMP JUMPDEST PUSH1 0x0 PUSH1 0x20 DUP3 DUP5 SUB SLT ISZERO PUSH2 0x16FC JUMPI PUSH2 0x16FB PUSH2 0x147E JUMP JUMPDEST JUMPDEST PUSH1 0x0 PUSH2 0x170A DUP5 DUP3 DUP6 ADD PUSH2 0x16D1 JUMP JUMPDEST SWAP2 POP POP SWAP3 SWAP2 POP POP JUMP JUMPDEST PUSH1 0x0 DUP3 DUP3 MSTORE PUSH1 0x20 DUP3 ADD SWAP1 POP SWAP3 SWAP2 POP POP JUMP JUMPDEST PUSH32 0x54686520737461747573206F6620746865204344532073686F756C6420626520 PUSH1 0x0 DUP3 ADD MSTORE PUSH32 0x6163746976650000000000000000000000000000000000000000000000000000 PUSH1 0x20 DUP3 ADD MSTORE POP JUMP JUMPDEST PUSH1 0x0 PUSH2 0x1780 PUSH1 0x26 DUP4 PUSH2 0x1713 JUMP JUMPDEST SWAP2 POP PUSH2 0x178B DUP3 PUSH2 0x1724 JUMP JUMPDEST PUSH1 0x40 DUP3 ADD SWAP1 POP SWAP2 SWAP1 POP JUMP JUMPDEST PUSH1 0x0 PUSH1 0x20 DUP3 ADD SWAP1 POP DUP2 DUP2 SUB PUSH1 0x0 DUP4 ADD MSTORE PUSH2 0x17AF DUP2 PUSH2 0x1773 JUMP JUMPDEST SWAP1 POP SWAP2 SWAP1 POP JUMP JUMPDEST PUSH32 0x43757272656E7420707269636520697320686967686572207468616E20746865 PUSH1 0x0 DUP3 ADD MSTORE PUSH32 0x20636C61696D20707269636520696E2043445300000000000000000000000000 PUSH1 0x20 DUP3 ADD MSTORE POP JUMP JUMPDEST PUSH1 0x0 PUSH2 0x1812 PUSH1 0x33 DUP4 PUSH2 0x1713 JUMP JUMPDEST SWAP2 POP PUSH2 0x181D DUP3 PUSH2 0x17B6 JUMP JUMPDEST PUSH1 0x40 DUP3 ADD SWAP1 POP SWAP2 SWAP1 POP JUMP JUMPDEST PUSH1 0x0 PUSH1 0x20 DUP3 ADD SWAP1 POP DUP2 DUP2 SUB PUSH1 0x0 DUP4 ADD MSTORE PUSH2 0x1841 DUP2 PUSH2 0x1805 JUMP JUMPDEST SWAP1 POP SWAP2 SWAP1 POP JUMP JUMPDEST PUSH32 0x526F756E6420616C726561647920656E64656400000000000000000000000000 PUSH1 0x0 DUP3 ADD MSTORE POP JUMP JUMPDEST PUSH1 0x0 PUSH2 0x187E PUSH1 0x13 DUP4 PUSH2 0x1713 JUMP JUMPDEST SWAP2 POP PUSH2 0x1889 DUP3 PUSH2 0x1848 JUMP JUMPDEST PUSH1 0x20 DUP3 ADD SWAP1 POP SWAP2 SWAP1 POP JUMP JUMPDEST PUSH1 0x0 PUSH1 0x20 DUP3 ADD SWAP1 POP DUP2 DUP2 SUB PUSH1 0x0 DUP4 ADD MSTORE PUSH2 0x18AD DUP2 PUSH2 0x1871 JUMP JUMPDEST SWAP1 POP SWAP2 SWAP1 POP JUMP JUMPDEST PUSH32 0x4E487B7100000000000000000000000000000000000000000000000000000000 PUSH1 0x0 MSTORE PUSH1 0x11 PUSH1 0x4 MSTORE PUSH1 0x24 PUSH1 0x0 REVERT JUMPDEST PUSH1 0x0 PUSH2 0x18EE DUP3 PUSH2 0x12EC JUMP JUMPDEST SWAP2 POP PUSH2 0x18F9 DUP4 PUSH2 0x12EC JUMP JUMPDEST SWAP3 POP DUP3 PUSH32 0xFFFFFFFFFFFFFFFFFFFFFFFFFFFFFFFFFFFFFFFFFFFFFFFFFFFFFFFFFFFFFFFF SUB DUP3 GT ISZERO PUSH2 0x192E JUMPI PUSH2 0x192D PUSH2 0x18B4 JUMP JUMPDEST JUMPDEST DUP3 DUP3 ADD SWAP1 POP SWAP3 SWAP2 POP POP JUMP JUMPDEST PUSH1 0x0 PUSH2 0x1944 DUP3 PUSH2 0x13B2 JUMP JUMPDEST SWAP2 POP PUSH2 0x194F DUP4 PUSH2 0x13B2 JUMP JUMPDEST SWAP3 POP DUP3 DUP3 LT ISZERO PUSH2 0x1962 JUMPI PUSH2 0x1961 PUSH2 0x18B4 JUMP JUMPDEST JUMPDEST DUP3 DUP3 SUB SWAP1 POP SWAP3 SWAP2 POP POP JUMP JUMPDEST PUSH32 0x54686520737461747573206F6620746865204344532073686F756C6420626520 PUSH1 0x0 DUP3 ADD MSTORE PUSH32 0x70656E64696E6700000000000000000000000000000000000000000000000000 PUSH1 0x20 DUP3 ADD MSTORE POP JUMP JUMPDEST PUSH1 0x0 PUSH2 0x19C9 PUSH1 0x27 DUP4 PUSH2 0x1713 JUMP JUMPDEST SWAP2 POP PUSH2 0x19D4 DUP3 PUSH2 0x196D JUMP JUMPDEST PUSH1 0x40 DUP3 ADD SWAP1 POP SWAP2 SWAP1 POP JUMP JUMPDEST PUSH1 0x0 PUSH1 0x20 DUP3 ADD SWAP1 POP DUP2 DUP2 SUB PUSH1 0x0 DUP4 ADD MSTORE PUSH2 0x19F8 DUP2 PUSH2 0x19BC JUMP JUMPDEST SWAP1 POP SWAP2 SWAP1 POP JUMP JUMPDEST PUSH1 0x0 DUP2 MLOAD SWAP1 POP PUSH2 0x1A0E DUP2 PUSH2 0x160E JUMP JUMPDEST SWAP3 SWAP2 POP POP JUMP JUMPDEST PUSH1 0x0 PUSH1 0x20 DUP3 DUP5 SUB SLT ISZERO PUSH2 0x1A2A JUMPI PUSH2 0x1A29 PUSH2 0x147E JUMP JUMPDEST JUMPDEST PUSH1 0x0 PUSH2 0x1A38 DUP5 DUP3 DUP6 ADD PUSH2 0x19FF JUMP JUMPDEST SWAP2 POP POP SWAP3 SWAP2 POP POP JUMP JUMPDEST PUSH32 0x4F776E61626C653A206E6577206F776E657220697320746865207A65726F2061 PUSH1 0x0 DUP3 ADD MSTORE PUSH32 0x6464726573730000000000000000000000000000000000000000000000000000 PUSH1 0x20 DUP3 ADD MSTORE POP JUMP JUMPDEST PUSH1 0x0 PUSH2 0x1A9D PUSH1 0x26 DUP4 PUSH2 0x1713 JUMP JUMPDEST SWAP2 POP PUSH2 0x1AA8 DUP3 PUSH2 0x1A41 JUMP JUMPDEST PUSH1 0x40 DUP3 ADD SWAP1 POP SWAP2 SWAP1 POP JUMP JUMPDEST PUSH1 0x0 PUSH1 0x20 DUP3 ADD SWAP1 POP DUP2 DUP2 SUB PUSH1 0x0 DUP4 ADD MSTORE PUSH2 0x1ACC DUP2 PUSH2 0x1A90 JUMP JUMPDEST SWAP1 POP SWAP2 SWAP1 POP JUMP JUMPDEST PUSH32 0x4F776E61626C653A2063616C6C6572206973206E6F7420746865206F776E6572 PUSH1 0x0 DUP3 ADD MSTORE POP JUMP JUMPDEST PUSH1 0x0 PUSH2 0x1B09 PUSH1 0x20 DUP4 PUSH2 0x1713 JUMP JUMPDEST SWAP2 POP PUSH2 0x1B14 DUP3 PUSH2 0x1AD3 JUMP JUMPDEST PUSH1 0x20 DUP3 ADD SWAP1 POP SWAP2 SWAP1 POP JUMP JUMPDEST PUSH1 0x0 PUSH1 0x20 DUP3 ADD SWAP1 POP DUP2 DUP2 SUB PUSH1 0x0 DUP4 ADD MSTORE PUSH2 0x1B38 DUP2 PUSH2 0x1AFC JUMP JUMPDEST SWAP1 POP SWAP2 SWAP1 POP JUMP JUMPDEST PUSH32 0x4E487B7100000000000000000000000000000000000000000000000000000000 PUSH1 0x0 MSTORE PUSH1 0x12 PUSH1 0x4 MSTORE PUSH1 0x24 PUSH1 0x0 REVERT JUMPDEST PUSH1 0x0 PUSH2 0x1B79 DUP3 PUSH2 0x12EC JUMP JUMPDEST SWAP2 POP PUSH2 0x1B84 DUP4 PUSH2 0x12EC JUMP JUMPDEST SWAP3 POP DUP3 PUSH2 0x1B94 JUMPI PUSH2 0x1B93 PUSH2 0x1B3F JUMP JUMPDEST JUMPDEST DUP3 DUP3 DIV SWAP1 POP SWAP3 SWAP2 POP POP JUMP JUMPDEST PUSH1 0x0 PUSH2 0x1BAA DUP3 PUSH2 0x12EC JUMP JUMPDEST SWAP2 POP PUSH2 0x1BB5 DUP4 PUSH2 0x12EC JUMP JUMPDEST SWAP3 POP DUP3 DUP3 LT ISZERO PUSH2 0x1BC8 JUMPI PUSH2 0x1BC7 PUSH2 0x18B4 JUMP JUMPDEST JUMPDEST DUP3 DUP3 SUB SWAP1 POP SWAP3 SWAP2 POP POP JUMP JUMPDEST PUSH1 0x0 PUSH2 0x1BDE DUP3 PUSH2 0x12EC JUMP JUMPDEST SWAP2 POP PUSH2 0x1BE9 DUP4 PUSH2 0x12EC JUMP JUMPDEST SWAP3 POP DUP2 PUSH32 0xFFFFFFFFFFFFFFFFFFFFFFFFFFFFFFFFFFFFFFFFFFFFFFFFFFFFFFFFFFFFFFFF DIV DUP4 GT DUP3 ISZERO ISZERO AND ISZERO PUSH2 0x1C22 JUMPI PUSH2 0x1C21 PUSH2 0x18B4 JUMP JUMPDEST JUMPDEST DUP3 DUP3 MUL SWAP1 POP SWAP3 SWAP2 POP POP JUMP INVALID LOG2 PUSH5 0x6970667358 0x22 SLT KECCAK256 PUSH28 0x6203704FB88A820FBE54D6AE125711F4C9E2C0200C563A75F3E03B6B GAS TIMESTAMP 0xB3 PUSH5 0x736F6C6343 STOP ADDMOD EXP STOP CALLER "
				},
				"gasEstimates": {
					"creation": {
						"codeDepositCost": "1453400",
						"executionCost": "infinite",
						"totalCost": "infinite"
					},
					"external": {
						"accept(uint256,address,bool)": "infinite",
						"assetType()": "2612",
						"cancel()": "infinite",
						"checkPayDatePassed()": "4802",
						"checkRoundsZero()": "4912",
						"claim()": "infinite",
						"claimPrice()": "2476",
						"close()": "infinite",
						"getAmountOfAsset()": "infinite",
						"getBuyer()": "2568",
						"getClaimReward()": "infinite",
						"getCurrPrice(uint32)": "infinite",
						"getPrices()": "infinite",
						"getSeller()": "2567",
						"initAssetPrice()": "2541",
						"liquidationPrice()": "2475",
						"nextPayDate()": "2540",
						"owner()": "2589",
						"premium()": "2496",
						"premiumPaid()": "infinite",
						"renounceOwnership()": "30466",
						"rounds()": "2610",
						"sellerDeposit()": "2497",
						"setBuyer(address)": "infinite",
						"setInitAssetPrice(uint256)": "infinite",
						"setParticipants(address,bool)": "infinite",
						"setSeller(address)": "infinite",
						"status()": "2679",
						"totalRounds()": "2566",
						"transferOwnership(address)": "30813"
					},
					"internal": {
						"setNextPayDate()": "infinite",
						"setRounds(uint32)": "infinite",
						"setStatus(enum CDS.Status)": "infinite"
					}
				},
				"methodIdentifiers": {
					"accept(uint256,address,bool)": "cbe97245",
					"assetType()": "3fe3347a",
					"cancel()": "ea8a1af0",
					"checkPayDatePassed()": "839966af",
					"checkRoundsZero()": "ffd0e69f",
					"claim()": "4e71d92d",
					"claimPrice()": "15d655c9",
					"close()": "43d726d6",
					"getAmountOfAsset()": "fcb341df",
					"getBuyer()": "603daf9a",
					"getClaimReward()": "f26cc58e",
					"getCurrPrice(uint32)": "cbed2449",
					"getPrices()": "bd9a548b",
					"getSeller()": "dbd0e1b6",
					"initAssetPrice()": "86be75b7",
					"liquidationPrice()": "b6fc2d5f",
					"nextPayDate()": "d8683798",
					"owner()": "8da5cb5b",
					"premium()": "e0a73a93",
					"premiumPaid()": "5b6a251b",
					"renounceOwnership()": "715018a6",
					"rounds()": "a2e800ad",
					"sellerDeposit()": "4c1786ea",
					"setBuyer(address)": "a3f09ad6",
					"setInitAssetPrice(uint256)": "bef904e3",
					"setParticipants(address,bool)": "bab215f8",
					"setSeller(address)": "e99d2866",
					"status()": "200d2ed2",
					"totalRounds()": "8a568299",
					"transferOwnership(address)": "f2fde38b"
				}
			},
			"storageLayout": {
				"storage": [
					{
						"astId": 7,
						"contract": "contracts/CDS/CDS.sol:CDS",
						"label": "_owner",
						"offset": 0,
						"slot": "0",
						"type": "t_address"
					},
					{
						"astId": 937,
						"contract": "contracts/CDS/CDS.sol:CDS",
						"label": "priceOracle",
						"offset": 0,
						"slot": "1",
						"type": "t_contract(PriceOracleMock)1078"
					},
					{
						"astId": 462,
						"contract": "contracts/CDS/CDS.sol:CDS",
						"label": "priceOracle",
						"offset": 0,
						"slot": "2",
						"type": "t_contract(PriceOracleMock)1078"
					},
					{
						"astId": 471,
						"contract": "contracts/CDS/CDS.sol:CDS",
						"label": "status",
						"offset": 20,
						"slot": "2",
						"type": "t_enum(Status)468"
					},
					{
						"astId": 473,
						"contract": "contracts/CDS/CDS.sol:CDS",
						"label": "initAssetPrice",
						"offset": 0,
						"slot": "3",
						"type": "t_uint256"
					},
					{
						"astId": 475,
						"contract": "contracts/CDS/CDS.sol:CDS",
						"label": "claimPrice",
						"offset": 0,
						"slot": "4",
						"type": "t_uint256"
					},
					{
						"astId": 477,
						"contract": "contracts/CDS/CDS.sol:CDS",
						"label": "liquidationPrice",
						"offset": 0,
						"slot": "5",
						"type": "t_uint256"
					},
					{
						"astId": 479,
						"contract": "contracts/CDS/CDS.sol:CDS",
						"label": "premium",
						"offset": 0,
						"slot": "6",
						"type": "t_uint256"
					},
					{
						"astId": 481,
						"contract": "contracts/CDS/CDS.sol:CDS",
						"label": "sellerDeposit",
						"offset": 0,
						"slot": "7",
						"type": "t_uint256"
					},
					{
						"astId": 483,
						"contract": "contracts/CDS/CDS.sol:CDS",
						"label": "nextPayDate",
						"offset": 0,
						"slot": "8",
						"type": "t_uint256"
					},
					{
						"astId": 485,
						"contract": "contracts/CDS/CDS.sol:CDS",
						"label": "buyer",
						"offset": 0,
						"slot": "9",
						"type": "t_address"
					},
					{
						"astId": 487,
						"contract": "contracts/CDS/CDS.sol:CDS",
						"label": "seller",
						"offset": 0,
						"slot": "10",
						"type": "t_address"
					},
					{
						"astId": 489,
						"contract": "contracts/CDS/CDS.sol:CDS",
						"label": "rounds",
						"offset": 20,
						"slot": "10",
						"type": "t_uint32"
					},
					{
						"astId": 491,
						"contract": "contracts/CDS/CDS.sol:CDS",
						"label": "totalRounds",
						"offset": 24,
						"slot": "10",
						"type": "t_uint32"
					},
					{
						"astId": 493,
						"contract": "contracts/CDS/CDS.sol:CDS",
						"label": "assetType",
						"offset": 28,
						"slot": "10",
						"type": "t_uint32"
					}
				],
				"types": {
					"t_address": {
						"encoding": "inplace",
						"label": "address",
						"numberOfBytes": "20"
					},
					"t_contract(PriceOracleMock)1078": {
						"encoding": "inplace",
						"label": "contract PriceOracleMock",
						"numberOfBytes": "20"
					},
					"t_enum(Status)468": {
						"encoding": "inplace",
						"label": "enum CDS.Status",
						"numberOfBytes": "1"
					},
					"t_uint256": {
						"encoding": "inplace",
						"label": "uint256",
						"numberOfBytes": "32"
					},
					"t_uint32": {
						"encoding": "inplace",
						"label": "uint32",
						"numberOfBytes": "4"
					}
				}
			},
			"userdoc": {
				"kind": "user",
				"methods": {},
				"version": 1
			}
		}
	}
}