{
	"contracts/CDS/CDS.sol": {
		"CDS": {
			"abi": [
				{
					"inputs": [
						{
							"internalType": "uint256",
							"name": "_initAssetPrice",
							"type": "uint256"
						},
						{
							"internalType": "uint256",
							"name": "_claimPrice",
							"type": "uint256"
						},
						{
							"internalType": "uint256",
							"name": "_liquidationPrice",
							"type": "uint256"
						},
						{
							"internalType": "uint256",
							"name": "_premium",
							"type": "uint256"
						},
						{
							"internalType": "uint256",
							"name": "_sellerDeposit",
							"type": "uint256"
						},
						{
							"internalType": "uint32",
							"name": "_rounds",
							"type": "uint32"
						},
						{
							"internalType": "uint32",
							"name": "_assetType",
							"type": "uint32"
						}
					],
					"stateMutability": "nonpayable",
					"type": "constructor"
				},
				{
					"anonymous": false,
					"inputs": [
						{
							"indexed": true,
							"internalType": "address",
							"name": "previousOwner",
							"type": "address"
						},
						{
							"indexed": true,
							"internalType": "address",
							"name": "newOwner",
							"type": "address"
						}
					],
					"name": "OwnershipTransferred",
					"type": "event"
				},
				{
					"inputs": [
						{
							"internalType": "uint256",
							"name": "_initAssetPrice",
							"type": "uint256"
						},
						{
							"internalType": "bool",
							"name": "_isBuyerHost",
							"type": "bool"
						}
					],
					"name": "accept",
					"outputs": [],
					"stateMutability": "nonpayable",
					"type": "function"
				},
				{
					"inputs": [],
					"name": "assetType",
					"outputs": [
						{
							"internalType": "uint32",
							"name": "",
							"type": "uint32"
						}
					],
					"stateMutability": "view",
					"type": "function"
				},
				{
					"inputs": [],
					"name": "cancel",
					"outputs": [],
					"stateMutability": "nonpayable",
					"type": "function"
				},
				{
					"inputs": [],
					"name": "checkPayDatePassed",
					"outputs": [
						{
							"internalType": "bool",
							"name": "",
							"type": "bool"
						}
					],
					"stateMutability": "view",
					"type": "function"
				},
				{
					"inputs": [],
					"name": "checkRoundsZero",
					"outputs": [
						{
							"internalType": "bool",
							"name": "",
							"type": "bool"
						}
					],
					"stateMutability": "view",
					"type": "function"
				},
				{
					"inputs": [],
					"name": "claim",
					"outputs": [],
					"stateMutability": "nonpayable",
					"type": "function"
				},
				{
					"inputs": [],
					"name": "claimPrice",
					"outputs": [
						{
							"internalType": "uint256",
							"name": "",
							"type": "uint256"
						}
					],
					"stateMutability": "view",
					"type": "function"
				},
				{
					"inputs": [],
					"name": "close",
					"outputs": [],
					"stateMutability": "nonpayable",
					"type": "function"
				},
				{
					"inputs": [],
					"name": "getAmountOfAsset",
					"outputs": [
						{
							"internalType": "uint256",
							"name": "",
							"type": "uint256"
						}
					],
					"stateMutability": "view",
					"type": "function"
				},
				{
					"inputs": [],
					"name": "getBuyer",
					"outputs": [
						{
							"internalType": "address",
							"name": "",
							"type": "address"
						}
					],
					"stateMutability": "view",
					"type": "function"
				},
				{
					"inputs": [],
					"name": "getClaimReward",
					"outputs": [
						{
							"internalType": "uint256",
							"name": "",
							"type": "uint256"
						}
					],
					"stateMutability": "view",
					"type": "function"
				},
				{
					"inputs": [
						{
							"internalType": "uint32",
							"name": "_assetType",
							"type": "uint32"
						}
					],
					"name": "getCurrPrice",
					"outputs": [
						{
							"internalType": "uint256",
							"name": "",
							"type": "uint256"
						}
					],
					"stateMutability": "view",
					"type": "function"
				},
				{
					"inputs": [],
					"name": "getPrices",
					"outputs": [
						{
							"internalType": "uint256[5]",
							"name": "",
							"type": "uint256[5]"
						}
					],
					"stateMutability": "view",
					"type": "function"
				},
				{
					"inputs": [],
					"name": "getSeller",
					"outputs": [
						{
							"internalType": "address",
							"name": "",
							"type": "address"
						}
					],
					"stateMutability": "view",
					"type": "function"
				},
				{
					"inputs": [],
					"name": "initAssetPrice",
					"outputs": [
						{
							"internalType": "uint256",
							"name": "",
							"type": "uint256"
						}
					],
					"stateMutability": "view",
					"type": "function"
				},
				{
					"inputs": [],
					"name": "liquidationPrice",
					"outputs": [
						{
							"internalType": "uint256",
							"name": "",
							"type": "uint256"
						}
					],
					"stateMutability": "view",
					"type": "function"
				},
				{
					"inputs": [],
					"name": "nextPayDate",
					"outputs": [
						{
							"internalType": "uint256",
							"name": "",
							"type": "uint256"
						}
					],
					"stateMutability": "view",
					"type": "function"
				},
				{
					"inputs": [],
					"name": "owner",
					"outputs": [
						{
							"internalType": "address",
							"name": "",
							"type": "address"
						}
					],
					"stateMutability": "view",
					"type": "function"
				},
				{
					"inputs": [],
					"name": "premium",
					"outputs": [
						{
							"internalType": "uint256",
							"name": "",
							"type": "uint256"
						}
					],
					"stateMutability": "view",
					"type": "function"
				},
				{
					"inputs": [],
					"name": "premiumPaid",
					"outputs": [],
					"stateMutability": "nonpayable",
					"type": "function"
				},
				{
					"inputs": [],
					"name": "renounceOwnership",
					"outputs": [],
					"stateMutability": "nonpayable",
					"type": "function"
				},
				{
					"inputs": [],
					"name": "rounds",
					"outputs": [
						{
							"internalType": "uint32",
							"name": "",
							"type": "uint32"
						}
					],
					"stateMutability": "view",
					"type": "function"
				},
				{
					"inputs": [],
					"name": "sellerDeposit",
					"outputs": [
						{
							"internalType": "uint256",
							"name": "",
							"type": "uint256"
						}
					],
					"stateMutability": "view",
					"type": "function"
				},
				{
					"inputs": [
						{
							"internalType": "address",
							"name": "_buyer",
							"type": "address"
						}
					],
					"name": "setBuyer",
					"outputs": [
						{
							"internalType": "address",
							"name": "",
							"type": "address"
						}
					],
					"stateMutability": "nonpayable",
					"type": "function"
				},
				{
					"inputs": [
						{
							"internalType": "uint256",
							"name": "_initAssetPrice",
							"type": "uint256"
						}
					],
					"name": "setInitAssetPrice",
					"outputs": [
						{
							"internalType": "uint256",
							"name": "",
							"type": "uint256"
						}
					],
					"stateMutability": "nonpayable",
					"type": "function"
				},
				{
					"inputs": [],
					"name": "setNextPayDate",
					"outputs": [
						{
							"internalType": "uint256",
							"name": "",
							"type": "uint256"
						}
					],
					"stateMutability": "nonpayable",
					"type": "function"
				},
				{
					"inputs": [
						{
							"internalType": "address",
							"name": "_participants",
							"type": "address"
						},
						{
							"internalType": "bool",
							"name": "_isBuyer",
							"type": "bool"
						}
					],
					"name": "setParticipants",
					"outputs": [],
					"stateMutability": "nonpayable",
					"type": "function"
				},
				{
					"inputs": [
						{
							"internalType": "uint32",
							"name": "_rounds",
							"type": "uint32"
						}
					],
					"name": "setRounds",
					"outputs": [
						{
							"internalType": "uint32",
							"name": "",
							"type": "uint32"
						}
					],
					"stateMutability": "nonpayable",
					"type": "function"
				},
				{
					"inputs": [
						{
							"internalType": "address",
							"name": "_seller",
							"type": "address"
						}
					],
					"name": "setSeller",
					"outputs": [
						{
							"internalType": "address",
							"name": "",
							"type": "address"
						}
					],
					"stateMutability": "nonpayable",
					"type": "function"
				},
				{
					"inputs": [
						{
							"internalType": "enum CDS.Status",
							"name": "_status",
							"type": "uint8"
						}
					],
					"name": "setStatus",
					"outputs": [
						{
							"internalType": "enum CDS.Status",
							"name": "",
							"type": "uint8"
						}
					],
					"stateMutability": "nonpayable",
					"type": "function"
				},
				{
					"inputs": [],
					"name": "status",
					"outputs": [
						{
							"internalType": "enum CDS.Status",
							"name": "",
							"type": "uint8"
						}
					],
					"stateMutability": "view",
					"type": "function"
				},
				{
					"inputs": [],
					"name": "totalRounds",
					"outputs": [
						{
							"internalType": "uint32",
							"name": "",
							"type": "uint32"
						}
					],
					"stateMutability": "view",
					"type": "function"
				},
				{
					"inputs": [
						{
							"internalType": "address",
							"name": "newOwner",
							"type": "address"
						}
					],
					"name": "transferOwnership",
					"outputs": [],
					"stateMutability": "nonpayable",
					"type": "function"
				}
			],
			"devdoc": {
				"kind": "dev",
				"methods": {
					"owner()": {
						"details": "Returns the address of the current owner."
					},
					"renounceOwnership()": {
						"details": "Leaves the contract without owner. It will not be possible to call `onlyOwner` functions anymore. Can only be called by the current owner. NOTE: Renouncing ownership will leave the contract without an owner, thereby removing any functionality that is only available to the owner."
					},
					"transferOwnership(address)": {
						"details": "Transfers ownership of the contract to a new account (`newOwner`). Can only be called by the current owner."
					}
				},
				"version": 1
			},
			"evm": {
				"assembly": "    /* \"contracts/CDS/CDS.sol\":208:4312  contract CDS is Ownable, PriceConsumer(0x21558C2cDA098e7e0ac7d38775B3E2b4a0945222) {... */\n  mstore(0x40, 0x80)\n    /* \"contracts/CDS/CDS.sol\":791:1427  constructor(... */\n  callvalue\n  dup1\n  iszero\n  tag_1\n  jumpi\n  0x00\n  dup1\n  revert\ntag_1:\n  pop\n  mload(0x40)\n  sub(codesize, bytecodeSize)\n  dup1\n  bytecodeSize\n  dup4\n  codecopy\n  dup2\n  dup2\n  add\n  0x40\n  mstore\n  dup2\n  add\n  swap1\n  tag_2\n  swap2\n  swap1\n  tag_3\n  jump\t// in\ntag_2:\n    /* \"contracts/CDS/CDS.sol\":247:289  0x21558C2cDA098e7e0ac7d38775B3E2b4a0945222 */\n  0x21558c2cda098e7e0ac7d38775b3e2b4a0945222\n    /* \"@openzeppelin/contracts/access/Ownable.sol\":936:968  _transferOwnership(_msgSender()) */\n  tag_8\n    /* \"@openzeppelin/contracts/access/Ownable.sol\":955:967  _msgSender() */\n  tag_9\n    /* \"@openzeppelin/contracts/access/Ownable.sol\":955:965  _msgSender */\n  shl(0x20, tag_10)\n    /* \"@openzeppelin/contracts/access/Ownable.sol\":955:967  _msgSender() */\n  0x20\n  shr\n  jump\t// in\ntag_9:\n    /* \"@openzeppelin/contracts/access/Ownable.sol\":936:954  _transferOwnership */\n  shl(0x20, tag_11)\n    /* \"@openzeppelin/contracts/access/Ownable.sol\":936:968  _transferOwnership(_msgSender()) */\n  0x20\n  shr\n  jump\t// in\ntag_8:\n    /* \"contracts/CDS/PriceConsumer.sol\":321:329  _address */\n  dup1\n    /* \"contracts/CDS/PriceConsumer.sol\":291:302  priceOracle */\n  0x01\n  0x00\n    /* \"contracts/CDS/PriceConsumer.sol\":291:330  priceOracle = PriceOracleMock(_address) */\n  0x0100\n  exp\n  dup2\n  sload\n  dup2\n  0xffffffffffffffffffffffffffffffffffffffff\n  mul\n  not\n  and\n  swap1\n  dup4\n  0xffffffffffffffffffffffffffffffffffffffff\n  and\n  mul\n  or\n  swap1\n  sstore\n  pop\n    /* \"contracts/CDS/PriceConsumer.sol\":255:335  constructor(address _address) {... */\n  pop\n    /* \"contracts/CDS/CDS.sol\":1008:1023  _initAssetPrice */\n  dup7\n    /* \"contracts/CDS/CDS.sol\":991:1005  initAssetPrice */\n  0x03\n    /* \"contracts/CDS/CDS.sol\":991:1023  initAssetPrice = _initAssetPrice */\n  dup2\n  swap1\n  sstore\n  pop\n    /* \"contracts/CDS/CDS.sol\":1042:1053  _claimPrice */\n  dup6\n    /* \"contracts/CDS/CDS.sol\":1029:1039  claimPrice */\n  0x04\n    /* \"contracts/CDS/CDS.sol\":1029:1053  claimPrice = _claimPrice */\n  dup2\n  swap1\n  sstore\n  pop\n    /* \"contracts/CDS/CDS.sol\":1078:1095  _liquidationPrice */\n  dup5\n    /* \"contracts/CDS/CDS.sol\":1059:1075  liquidationPrice */\n  0x05\n    /* \"contracts/CDS/CDS.sol\":1059:1095  liquidationPrice = _liquidationPrice */\n  dup2\n  swap1\n  sstore\n  pop\n    /* \"contracts/CDS/CDS.sol\":1111:1119  _premium */\n  dup4\n    /* \"contracts/CDS/CDS.sol\":1101:1108  premium */\n  0x06\n    /* \"contracts/CDS/CDS.sol\":1101:1119  premium = _premium */\n  dup2\n  swap1\n  sstore\n  pop\n    /* \"contracts/CDS/CDS.sol\":1141:1155  _sellerDeposit */\n  dup3\n    /* \"contracts/CDS/CDS.sol\":1125:1138  sellerDeposit */\n  0x07\n    /* \"contracts/CDS/CDS.sol\":1125:1155  sellerDeposit = _sellerDeposit */\n  dup2\n  swap1\n  sstore\n  pop\n    /* \"contracts/CDS/CDS.sol\":1170:1177  _rounds */\n  dup2\n    /* \"contracts/CDS/CDS.sol\":1161:1167  rounds */\n  0x0a\n  0x14\n    /* \"contracts/CDS/CDS.sol\":1161:1177  rounds = _rounds */\n  0x0100\n  exp\n  dup2\n  sload\n  dup2\n  0xffffffff\n  mul\n  not\n  and\n  swap1\n  dup4\n  0xffffffff\n  and\n  mul\n  or\n  swap1\n  sstore\n  pop\n    /* \"contracts/CDS/CDS.sol\":1197:1204  _rounds */\n  dup2\n    /* \"contracts/CDS/CDS.sol\":1183:1194  totalRounds */\n  0x0a\n  0x18\n    /* \"contracts/CDS/CDS.sol\":1183:1204  totalRounds = _rounds */\n  0x0100\n  exp\n  dup2\n  sload\n  dup2\n  0xffffffff\n  mul\n  not\n  and\n  swap1\n  dup4\n  0xffffffff\n  and\n  mul\n  or\n  swap1\n  sstore\n  pop\n    /* \"contracts/CDS/CDS.sol\":1240:1241  0 */\n  0x00\n    /* \"contracts/CDS/CDS.sol\":1226:1236  _assetType */\n  dup2\n    /* \"contracts/CDS/CDS.sol\":1226:1241  _assetType == 0 */\n  0xffffffff\n  and\n  eq\n    /* \"contracts/CDS/CDS.sol\":1226:1260  _assetType == 0 || _assetType == 1 */\n  dup1\n  tag_14\n  jumpi\n  pop\n    /* \"contracts/CDS/CDS.sol\":1259:1260  1 */\n  0x01\n    /* \"contracts/CDS/CDS.sol\":1245:1255  _assetType */\n  dup2\n    /* \"contracts/CDS/CDS.sol\":1245:1260  _assetType == 1 */\n  0xffffffff\n  and\n  eq\n    /* \"contracts/CDS/CDS.sol\":1226:1260  _assetType == 0 || _assetType == 1 */\ntag_14:\n    /* \"contracts/CDS/CDS.sol\":1226:1279  _assetType == 0 || _assetType == 1 || _assetType == 2 */\n  dup1\n  tag_15\n  jumpi\n  pop\n    /* \"contracts/CDS/CDS.sol\":1278:1279  2 */\n  0x02\n    /* \"contracts/CDS/CDS.sol\":1264:1274  _assetType */\n  dup2\n    /* \"contracts/CDS/CDS.sol\":1264:1279  _assetType == 2 */\n  0xffffffff\n  and\n  eq\n    /* \"contracts/CDS/CDS.sol\":1226:1279  _assetType == 0 || _assetType == 1 || _assetType == 2 */\ntag_15:\n    /* \"contracts/CDS/CDS.sol\":1211:1315  require(... */\n  tag_16\n  jumpi\n  mload(0x40)\n  0x08c379a000000000000000000000000000000000000000000000000000000000\n  dup2\n  mstore\n  0x04\n  add\n  tag_17\n  swap1\n  tag_18\n  jump\t// in\ntag_17:\n  mload(0x40)\n  dup1\n  swap2\n  sub\n  swap1\n  revert\ntag_16:\n    /* \"contracts/CDS/CDS.sol\":1333:1343  _assetType */\n  dup1\n    /* \"contracts/CDS/CDS.sol\":1321:1330  assetType */\n  0x0a\n  0x1c\n    /* \"contracts/CDS/CDS.sol\":1321:1343  assetType = _assetType */\n  0x0100\n  exp\n  dup2\n  sload\n  dup2\n  0xffffffff\n  mul\n  not\n  and\n  swap1\n  dup4\n  0xffffffff\n  and\n  mul\n  or\n  swap1\n  sstore\n  pop\n    /* \"contracts/CDS/CDS.sol\":1366:1367  0 */\n  0x00\n    /* \"contracts/CDS/CDS.sol\":1350:1355  buyer */\n  0x09\n  0x00\n    /* \"contracts/CDS/CDS.sol\":1350:1368  buyer = address(0) */\n  0x0100\n  exp\n  dup2\n  sload\n  dup2\n  0xffffffffffffffffffffffffffffffffffffffff\n  mul\n  not\n  and\n  swap1\n  dup4\n  0xffffffffffffffffffffffffffffffffffffffff\n  and\n  mul\n  or\n  swap1\n  sstore\n  pop\n    /* \"contracts/CDS/CDS.sol\":1391:1392  0 */\n  0x00\n    /* \"contracts/CDS/CDS.sol\":1374:1380  seller */\n  0x0a\n  0x00\n    /* \"contracts/CDS/CDS.sol\":1374:1393  seller = address(0) */\n  0x0100\n  exp\n  dup2\n  sload\n  dup2\n  0xffffffffffffffffffffffffffffffffffffffff\n  mul\n  not\n  and\n  swap1\n  dup4\n  0xffffffffffffffffffffffffffffffffffffffff\n  and\n  mul\n  or\n  swap1\n  sstore\n  pop\n    /* \"contracts/CDS/CDS.sol\":1408:1422  Status.pending */\n  0x01\n    /* \"contracts/CDS/CDS.sol\":1399:1405  status */\n  0x02\n  0x14\n    /* \"contracts/CDS/CDS.sol\":1399:1422  status = Status.pending */\n  0x0100\n  exp\n  dup2\n  sload\n  dup2\n  0xff\n  mul\n  not\n  and\n  swap1\n  dup4\n  0x04\n  dup2\n  gt\n  iszero\n  tag_19\n  jumpi\n  tag_20\n  tag_21\n  jump\t// in\ntag_20:\ntag_19:\n  mul\n  or\n  swap1\n  sstore\n  pop\n    /* \"contracts/CDS/CDS.sol\":791:1427  constructor(... */\n  pop\n  pop\n  pop\n  pop\n  pop\n  pop\n  pop\n    /* \"contracts/CDS/CDS.sol\":208:4312  contract CDS is Ownable, PriceConsumer(0x21558C2cDA098e7e0ac7d38775B3E2b4a0945222) {... */\n  jump(tag_22)\n    /* \"@openzeppelin/contracts/utils/Context.sol\":640:736  function _msgSender() internal view virtual returns (address) {... */\ntag_10:\n    /* \"@openzeppelin/contracts/utils/Context.sol\":693:700  address */\n  0x00\n    /* \"@openzeppelin/contracts/utils/Context.sol\":719:729  msg.sender */\n  caller\n    /* \"@openzeppelin/contracts/utils/Context.sol\":712:729  return msg.sender */\n  swap1\n  pop\n    /* \"@openzeppelin/contracts/utils/Context.sol\":640:736  function _msgSender() internal view virtual returns (address) {... */\n  swap1\n  jump\t// out\n    /* \"@openzeppelin/contracts/access/Ownable.sol\":2433:2620  function _transferOwnership(address newOwner) internal virtual {... */\ntag_11:\n    /* \"@openzeppelin/contracts/access/Ownable.sol\":2506:2522  address oldOwner */\n  0x00\n    /* \"@openzeppelin/contracts/access/Ownable.sol\":2525:2531  _owner */\n  dup1\n  0x00\n  swap1\n  sload\n  swap1\n  0x0100\n  exp\n  swap1\n  div\n  0xffffffffffffffffffffffffffffffffffffffff\n  and\n    /* \"@openzeppelin/contracts/access/Ownable.sol\":2506:2531  address oldOwner = _owner */\n  swap1\n  pop\n    /* \"@openzeppelin/contracts/access/Ownable.sol\":2550:2558  newOwner */\n  dup2\n    /* \"@openzeppelin/contracts/access/Ownable.sol\":2541:2547  _owner */\n  0x00\n  dup1\n    /* \"@openzeppelin/contracts/access/Ownable.sol\":2541:2558  _owner = newOwner */\n  0x0100\n  exp\n  dup2\n  sload\n  dup2\n  0xffffffffffffffffffffffffffffffffffffffff\n  mul\n  not\n  and\n  swap1\n  dup4\n  0xffffffffffffffffffffffffffffffffffffffff\n  and\n  mul\n  or\n  swap1\n  sstore\n  pop\n    /* \"@openzeppelin/contracts/access/Ownable.sol\":2604:2612  newOwner */\n  dup2\n    /* \"@openzeppelin/contracts/access/Ownable.sol\":2573:2613  OwnershipTransferred(oldOwner, newOwner) */\n  0xffffffffffffffffffffffffffffffffffffffff\n  and\n    /* \"@openzeppelin/contracts/access/Ownable.sol\":2594:2602  oldOwner */\n  dup2\n    /* \"@openzeppelin/contracts/access/Ownable.sol\":2573:2613  OwnershipTransferred(oldOwner, newOwner) */\n  0xffffffffffffffffffffffffffffffffffffffff\n  and\n  0x8be0079c531659141344cd1fd0a4f28419497f9722a3daafe3b4186f6b6457e0\n  mload(0x40)\n  mload(0x40)\n  dup1\n  swap2\n  sub\n  swap1\n  log3\n    /* \"@openzeppelin/contracts/access/Ownable.sol\":2496:2620  {... */\n  pop\n    /* \"@openzeppelin/contracts/access/Ownable.sol\":2433:2620  function _transferOwnership(address newOwner) internal virtual {... */\n  pop\n  jump\t// out\n    /* \"#utility.yul\":88:205   */\ntag_26:\n    /* \"#utility.yul\":197:198   */\n  0x00\n    /* \"#utility.yul\":194:195   */\n  dup1\n    /* \"#utility.yul\":187:199   */\n  revert\n    /* \"#utility.yul\":334:411   */\ntag_28:\n    /* \"#utility.yul\":371:378   */\n  0x00\n    /* \"#utility.yul\":400:405   */\n  dup2\n    /* \"#utility.yul\":389:405   */\n  swap1\n  pop\n    /* \"#utility.yul\":334:411   */\n  swap2\n  swap1\n  pop\n  jump\t// out\n    /* \"#utility.yul\":417:539   */\ntag_29:\n    /* \"#utility.yul\":490:514   */\n  tag_43\n    /* \"#utility.yul\":508:513   */\n  dup2\n    /* \"#utility.yul\":490:514   */\n  tag_28\n  jump\t// in\ntag_43:\n    /* \"#utility.yul\":483:488   */\n  dup2\n    /* \"#utility.yul\":480:515   */\n  eq\n    /* \"#utility.yul\":470:533   */\n  tag_44\n  jumpi\n    /* \"#utility.yul\":529:530   */\n  0x00\n    /* \"#utility.yul\":526:527   */\n  dup1\n    /* \"#utility.yul\":519:531   */\n  revert\n    /* \"#utility.yul\":470:533   */\ntag_44:\n    /* \"#utility.yul\":417:539   */\n  pop\n  jump\t// out\n    /* \"#utility.yul\":545:688   */\ntag_30:\n    /* \"#utility.yul\":602:607   */\n  0x00\n    /* \"#utility.yul\":633:639   */\n  dup2\n    /* \"#utility.yul\":627:640   */\n  mload\n    /* \"#utility.yul\":618:640   */\n  swap1\n  pop\n    /* \"#utility.yul\":649:682   */\n  tag_46\n    /* \"#utility.yul\":676:681   */\n  dup2\n    /* \"#utility.yul\":649:682   */\n  tag_29\n  jump\t// in\ntag_46:\n    /* \"#utility.yul\":545:688   */\n  swap3\n  swap2\n  pop\n  pop\n  jump\t// out\n    /* \"#utility.yul\":694:787   */\ntag_31:\n    /* \"#utility.yul\":730:737   */\n  0x00\n    /* \"#utility.yul\":770:780   */\n  0xffffffff\n    /* \"#utility.yul\":763:768   */\n  dup3\n    /* \"#utility.yul\":759:781   */\n  and\n    /* \"#utility.yul\":748:781   */\n  swap1\n  pop\n    /* \"#utility.yul\":694:787   */\n  swap2\n  swap1\n  pop\n  jump\t// out\n    /* \"#utility.yul\":793:913   */\ntag_32:\n    /* \"#utility.yul\":865:888   */\n  tag_49\n    /* \"#utility.yul\":882:887   */\n  dup2\n    /* \"#utility.yul\":865:888   */\n  tag_31\n  jump\t// in\ntag_49:\n    /* \"#utility.yul\":858:863   */\n  dup2\n    /* \"#utility.yul\":855:889   */\n  eq\n    /* \"#utility.yul\":845:907   */\n  tag_50\n  jumpi\n    /* \"#utility.yul\":903:904   */\n  0x00\n    /* \"#utility.yul\":900:901   */\n  dup1\n    /* \"#utility.yul\":893:905   */\n  revert\n    /* \"#utility.yul\":845:907   */\ntag_50:\n    /* \"#utility.yul\":793:913   */\n  pop\n  jump\t// out\n    /* \"#utility.yul\":919:1060   */\ntag_33:\n    /* \"#utility.yul\":975:980   */\n  0x00\n    /* \"#utility.yul\":1006:1012   */\n  dup2\n    /* \"#utility.yul\":1000:1013   */\n  mload\n    /* \"#utility.yul\":991:1013   */\n  swap1\n  pop\n    /* \"#utility.yul\":1022:1054   */\n  tag_52\n    /* \"#utility.yul\":1048:1053   */\n  dup2\n    /* \"#utility.yul\":1022:1054   */\n  tag_32\n  jump\t// in\ntag_52:\n    /* \"#utility.yul\":919:1060   */\n  swap3\n  swap2\n  pop\n  pop\n  jump\t// out\n    /* \"#utility.yul\":1066:2353   */\ntag_3:\n    /* \"#utility.yul\":1188:1194   */\n  0x00\n    /* \"#utility.yul\":1196:1202   */\n  dup1\n    /* \"#utility.yul\":1204:1210   */\n  0x00\n    /* \"#utility.yul\":1212:1218   */\n  dup1\n    /* \"#utility.yul\":1220:1226   */\n  0x00\n    /* \"#utility.yul\":1228:1234   */\n  dup1\n    /* \"#utility.yul\":1236:1242   */\n  0x00\n    /* \"#utility.yul\":1285:1288   */\n  0xe0\n    /* \"#utility.yul\":1273:1282   */\n  dup9\n    /* \"#utility.yul\":1264:1271   */\n  dup11\n    /* \"#utility.yul\":1260:1283   */\n  sub\n    /* \"#utility.yul\":1256:1289   */\n  slt\n    /* \"#utility.yul\":1253:1373   */\n  iszero\n  tag_54\n  jumpi\n    /* \"#utility.yul\":1292:1371   */\n  tag_55\n  tag_26\n  jump\t// in\ntag_55:\n    /* \"#utility.yul\":1253:1373   */\ntag_54:\n    /* \"#utility.yul\":1412:1413   */\n  0x00\n    /* \"#utility.yul\":1437:1501   */\n  tag_56\n    /* \"#utility.yul\":1493:1500   */\n  dup11\n    /* \"#utility.yul\":1484:1490   */\n  dup3\n    /* \"#utility.yul\":1473:1482   */\n  dup12\n    /* \"#utility.yul\":1469:1491   */\n  add\n    /* \"#utility.yul\":1437:1501   */\n  tag_30\n  jump\t// in\ntag_56:\n    /* \"#utility.yul\":1427:1501   */\n  swap8\n  pop\n    /* \"#utility.yul\":1383:1511   */\n  pop\n    /* \"#utility.yul\":1550:1552   */\n  0x20\n    /* \"#utility.yul\":1576:1640   */\n  tag_57\n    /* \"#utility.yul\":1632:1639   */\n  dup11\n    /* \"#utility.yul\":1623:1629   */\n  dup3\n    /* \"#utility.yul\":1612:1621   */\n  dup12\n    /* \"#utility.yul\":1608:1630   */\n  add\n    /* \"#utility.yul\":1576:1640   */\n  tag_30\n  jump\t// in\ntag_57:\n    /* \"#utility.yul\":1566:1640   */\n  swap7\n  pop\n    /* \"#utility.yul\":1521:1650   */\n  pop\n    /* \"#utility.yul\":1689:1691   */\n  0x40\n    /* \"#utility.yul\":1715:1779   */\n  tag_58\n    /* \"#utility.yul\":1771:1778   */\n  dup11\n    /* \"#utility.yul\":1762:1768   */\n  dup3\n    /* \"#utility.yul\":1751:1760   */\n  dup12\n    /* \"#utility.yul\":1747:1769   */\n  add\n    /* \"#utility.yul\":1715:1779   */\n  tag_30\n  jump\t// in\ntag_58:\n    /* \"#utility.yul\":1705:1779   */\n  swap6\n  pop\n    /* \"#utility.yul\":1660:1789   */\n  pop\n    /* \"#utility.yul\":1828:1830   */\n  0x60\n    /* \"#utility.yul\":1854:1918   */\n  tag_59\n    /* \"#utility.yul\":1910:1917   */\n  dup11\n    /* \"#utility.yul\":1901:1907   */\n  dup3\n    /* \"#utility.yul\":1890:1899   */\n  dup12\n    /* \"#utility.yul\":1886:1908   */\n  add\n    /* \"#utility.yul\":1854:1918   */\n  tag_30\n  jump\t// in\ntag_59:\n    /* \"#utility.yul\":1844:1918   */\n  swap5\n  pop\n    /* \"#utility.yul\":1799:1928   */\n  pop\n    /* \"#utility.yul\":1967:1970   */\n  0x80\n    /* \"#utility.yul\":1994:2058   */\n  tag_60\n    /* \"#utility.yul\":2050:2057   */\n  dup11\n    /* \"#utility.yul\":2041:2047   */\n  dup3\n    /* \"#utility.yul\":2030:2039   */\n  dup12\n    /* \"#utility.yul\":2026:2048   */\n  add\n    /* \"#utility.yul\":1994:2058   */\n  tag_30\n  jump\t// in\ntag_60:\n    /* \"#utility.yul\":1984:2058   */\n  swap4\n  pop\n    /* \"#utility.yul\":1938:2068   */\n  pop\n    /* \"#utility.yul\":2107:2110   */\n  0xa0\n    /* \"#utility.yul\":2134:2197   */\n  tag_61\n    /* \"#utility.yul\":2189:2196   */\n  dup11\n    /* \"#utility.yul\":2180:2186   */\n  dup3\n    /* \"#utility.yul\":2169:2178   */\n  dup12\n    /* \"#utility.yul\":2165:2187   */\n  add\n    /* \"#utility.yul\":2134:2197   */\n  tag_33\n  jump\t// in\ntag_61:\n    /* \"#utility.yul\":2124:2197   */\n  swap3\n  pop\n    /* \"#utility.yul\":2078:2207   */\n  pop\n    /* \"#utility.yul\":2246:2249   */\n  0xc0\n    /* \"#utility.yul\":2273:2336   */\n  tag_62\n    /* \"#utility.yul\":2328:2335   */\n  dup11\n    /* \"#utility.yul\":2319:2325   */\n  dup3\n    /* \"#utility.yul\":2308:2317   */\n  dup12\n    /* \"#utility.yul\":2304:2326   */\n  add\n    /* \"#utility.yul\":2273:2336   */\n  tag_33\n  jump\t// in\ntag_62:\n    /* \"#utility.yul\":2263:2336   */\n  swap2\n  pop\n    /* \"#utility.yul\":2217:2346   */\n  pop\n    /* \"#utility.yul\":1066:2353   */\n  swap3\n  swap6\n  swap9\n  swap2\n  swap5\n  swap8\n  pop\n  swap3\n  swap6\n  pop\n  jump\t// out\n    /* \"#utility.yul\":2359:2528   */\ntag_34:\n    /* \"#utility.yul\":2443:2454   */\n  0x00\n    /* \"#utility.yul\":2477:2483   */\n  dup3\n    /* \"#utility.yul\":2472:2475   */\n  dup3\n    /* \"#utility.yul\":2465:2484   */\n  mstore\n    /* \"#utility.yul\":2517:2521   */\n  0x20\n    /* \"#utility.yul\":2512:2515   */\n  dup3\n    /* \"#utility.yul\":2508:2522   */\n  add\n    /* \"#utility.yul\":2493:2522   */\n  swap1\n  pop\n    /* \"#utility.yul\":2359:2528   */\n  swap3\n  swap2\n  pop\n  pop\n  jump\t// out\n    /* \"#utility.yul\":2534:2704   */\ntag_35:\n    /* \"#utility.yul\":2674:2696   */\n  0x4254433a302c204554483a312c204c494e4b3a32000000000000000000000000\n    /* \"#utility.yul\":2670:2671   */\n  0x00\n    /* \"#utility.yul\":2662:2668   */\n  dup3\n    /* \"#utility.yul\":2658:2672   */\n  add\n    /* \"#utility.yul\":2651:2697   */\n  mstore\n    /* \"#utility.yul\":2534:2704   */\n  pop\n  jump\t// out\n    /* \"#utility.yul\":2710:3076   */\ntag_36:\n    /* \"#utility.yul\":2852:2855   */\n  0x00\n    /* \"#utility.yul\":2873:2940   */\n  tag_66\n    /* \"#utility.yul\":2937:2939   */\n  0x14\n    /* \"#utility.yul\":2932:2935   */\n  dup4\n    /* \"#utility.yul\":2873:2940   */\n  tag_34\n  jump\t// in\ntag_66:\n    /* \"#utility.yul\":2866:2940   */\n  swap2\n  pop\n    /* \"#utility.yul\":2949:3042   */\n  tag_67\n    /* \"#utility.yul\":3038:3041   */\n  dup3\n    /* \"#utility.yul\":2949:3042   */\n  tag_35\n  jump\t// in\ntag_67:\n    /* \"#utility.yul\":3067:3069   */\n  0x20\n    /* \"#utility.yul\":3062:3065   */\n  dup3\n    /* \"#utility.yul\":3058:3070   */\n  add\n    /* \"#utility.yul\":3051:3070   */\n  swap1\n  pop\n    /* \"#utility.yul\":2710:3076   */\n  swap2\n  swap1\n  pop\n  jump\t// out\n    /* \"#utility.yul\":3082:3501   */\ntag_18:\n    /* \"#utility.yul\":3248:3252   */\n  0x00\n    /* \"#utility.yul\":3286:3288   */\n  0x20\n    /* \"#utility.yul\":3275:3284   */\n  dup3\n    /* \"#utility.yul\":3271:3289   */\n  add\n    /* \"#utility.yul\":3263:3289   */\n  swap1\n  pop\n    /* \"#utility.yul\":3335:3344   */\n  dup2\n    /* \"#utility.yul\":3329:3333   */\n  dup2\n    /* \"#utility.yul\":3325:3345   */\n  sub\n    /* \"#utility.yul\":3321:3322   */\n  0x00\n    /* \"#utility.yul\":3310:3319   */\n  dup4\n    /* \"#utility.yul\":3306:3323   */\n  add\n    /* \"#utility.yul\":3299:3346   */\n  mstore\n    /* \"#utility.yul\":3363:3494   */\n  tag_69\n    /* \"#utility.yul\":3489:3493   */\n  dup2\n    /* \"#utility.yul\":3363:3494   */\n  tag_36\n  jump\t// in\ntag_69:\n    /* \"#utility.yul\":3355:3494   */\n  swap1\n  pop\n    /* \"#utility.yul\":3082:3501   */\n  swap2\n  swap1\n  pop\n  jump\t// out\n    /* \"#utility.yul\":3507:3687   */\ntag_21:\n    /* \"#utility.yul\":3555:3632   */\n  0x4e487b7100000000000000000000000000000000000000000000000000000000\n    /* \"#utility.yul\":3552:3553   */\n  0x00\n    /* \"#utility.yul\":3545:3633   */\n  mstore\n    /* \"#utility.yul\":3652:3656   */\n  0x21\n    /* \"#utility.yul\":3649:3650   */\n  0x04\n    /* \"#utility.yul\":3642:3657   */\n  mstore\n    /* \"#utility.yul\":3676:3680   */\n  0x24\n    /* \"#utility.yul\":3673:3674   */\n  0x00\n    /* \"#utility.yul\":3666:3681   */\n  revert\n    /* \"contracts/CDS/CDS.sol\":208:4312  contract CDS is Ownable, PriceConsumer(0x21558C2cDA098e7e0ac7d38775B3E2b4a0945222) {... */\ntag_22:\n  dataSize(sub_0)\n  dup1\n  dataOffset(sub_0)\n  0x00\n  codecopy\n  0x00\n  return\nstop\n\nsub_0: assembly {\n        /* \"contracts/CDS/CDS.sol\":208:4312  contract CDS is Ownable, PriceConsumer(0x21558C2cDA098e7e0ac7d38775B3E2b4a0945222) {... */\n      mstore(0x40, 0x80)\n      callvalue\n      dup1\n      iszero\n      tag_1\n      jumpi\n      0x00\n      dup1\n      revert\n    tag_1:\n      pop\n      jumpi(tag_2, lt(calldatasize, 0x04))\n      shr(0xe0, calldataload(0x00))\n      dup1\n      0xa2e800ad\n      gt\n      tag_36\n      jumpi\n      dup1\n      0xd8683798\n      gt\n      tag_37\n      jumpi\n      dup1\n      0xea8a1af0\n      gt\n      tag_38\n      jumpi\n      dup1\n      0xea8a1af0\n      eq\n      tag_31\n      jumpi\n      dup1\n      0xf26cc58e\n      eq\n      tag_32\n      jumpi\n      dup1\n      0xf2fde38b\n      eq\n      tag_33\n      jumpi\n      dup1\n      0xfcb341df\n      eq\n      tag_34\n      jumpi\n      dup1\n      0xffd0e69f\n      eq\n      tag_35\n      jumpi\n      jump(tag_2)\n    tag_38:\n      dup1\n      0xd8683798\n      eq\n      tag_27\n      jumpi\n      dup1\n      0xdbd0e1b6\n      eq\n      tag_28\n      jumpi\n      dup1\n      0xe0a73a93\n      eq\n      tag_29\n      jumpi\n      dup1\n      0xe99d2866\n      eq\n      tag_30\n      jumpi\n      jump(tag_2)\n    tag_37:\n      dup1\n      0xbd9a548b\n      gt\n      tag_39\n      jumpi\n      dup1\n      0xbd9a548b\n      eq\n      tag_23\n      jumpi\n      dup1\n      0xbef904e3\n      eq\n      tag_24\n      jumpi\n      dup1\n      0xcbed2449\n      eq\n      tag_25\n      jumpi\n      dup1\n      0xd2895e93\n      eq\n      tag_26\n      jumpi\n      jump(tag_2)\n    tag_39:\n      dup1\n      0xa2e800ad\n      eq\n      tag_19\n      jumpi\n      dup1\n      0xa3f09ad6\n      eq\n      tag_20\n      jumpi\n      dup1\n      0xb6fc2d5f\n      eq\n      tag_21\n      jumpi\n      dup1\n      0xbab215f8\n      eq\n      tag_22\n      jumpi\n      jump(tag_2)\n    tag_36:\n      dup1\n      0x4e71d92d\n      gt\n      tag_40\n      jumpi\n      dup1\n      0x839966af\n      gt\n      tag_41\n      jumpi\n      dup1\n      0x839966af\n      eq\n      tag_15\n      jumpi\n      dup1\n      0x86be75b7\n      eq\n      tag_16\n      jumpi\n      dup1\n      0x8a568299\n      eq\n      tag_17\n      jumpi\n      dup1\n      0x8da5cb5b\n      eq\n      tag_18\n      jumpi\n      jump(tag_2)\n    tag_41:\n      dup1\n      0x4e71d92d\n      eq\n      tag_11\n      jumpi\n      dup1\n      0x5b6a251b\n      eq\n      tag_12\n      jumpi\n      dup1\n      0x603daf9a\n      eq\n      tag_13\n      jumpi\n      dup1\n      0x715018a6\n      eq\n      tag_14\n      jumpi\n      jump(tag_2)\n    tag_40:\n      dup1\n      0x3b41e19c\n      gt\n      tag_42\n      jumpi\n      dup1\n      0x3b41e19c\n      eq\n      tag_7\n      jumpi\n      dup1\n      0x3fe3347a\n      eq\n      tag_8\n      jumpi\n      dup1\n      0x43d726d6\n      eq\n      tag_9\n      jumpi\n      dup1\n      0x4c1786ea\n      eq\n      tag_10\n      jumpi\n      jump(tag_2)\n    tag_42:\n      dup1\n      0x15d655c9\n      eq\n      tag_3\n      jumpi\n      dup1\n      0x200d2ed2\n      eq\n      tag_4\n      jumpi\n      dup1\n      0x2e49d78b\n      eq\n      tag_5\n      jumpi\n      dup1\n      0x328a85f7\n      eq\n      tag_6\n      jumpi\n    tag_2:\n      0x00\n      dup1\n      revert\n        /* \"contracts/CDS/CDS.sol\":507:532  uint256 public claimPrice */\n    tag_3:\n      tag_43\n      tag_44\n      jump\t// in\n    tag_43:\n      mload(0x40)\n      tag_45\n      swap2\n      swap1\n      tag_46\n      jump\t// in\n    tag_45:\n      mload(0x40)\n      dup1\n      swap2\n      sub\n      swap1\n      return\n        /* \"contracts/CDS/CDS.sol\":449:469  Status public status */\n    tag_4:\n      tag_47\n      tag_48\n      jump\t// in\n    tag_47:\n      mload(0x40)\n      tag_49\n      swap2\n      swap1\n      tag_50\n      jump\t// in\n    tag_49:\n      mload(0x40)\n      dup1\n      swap2\n      sub\n      swap1\n      return\n        /* \"contracts/CDS/CDS.sol\":2385:2500  function setStatus(Status _status) public onlyOwner returns (Status) {... */\n    tag_5:\n      tag_51\n      0x04\n      dup1\n      calldatasize\n      sub\n      dup2\n      add\n      swap1\n      tag_52\n      swap2\n      swap1\n      tag_53\n      jump\t// in\n    tag_52:\n      tag_54\n      jump\t// in\n    tag_51:\n      mload(0x40)\n      tag_55\n      swap2\n      swap1\n      tag_50\n      jump\t// in\n    tag_55:\n      mload(0x40)\n      dup1\n      swap2\n      sub\n      swap1\n      return\n        /* \"contracts/CDS/CDS.sol\":3016:3134  function setNextPayDate() public onlyOwner returns (uint256) {... */\n    tag_6:\n      tag_56\n      tag_57\n      jump\t// in\n    tag_56:\n      mload(0x40)\n      tag_58\n      swap2\n      swap1\n      tag_46\n      jump\t// in\n    tag_58:\n      mload(0x40)\n      dup1\n      swap2\n      sub\n      swap1\n      return\n        /* \"contracts/CDS/CDS.sol\":3301:3562  function accept(uint256 _initAssetPrice, bool _isBuyerHost) external onlyOwner isPending {... */\n    tag_7:\n      tag_59\n      0x04\n      dup1\n      calldatasize\n      sub\n      dup2\n      add\n      swap1\n      tag_60\n      swap2\n      swap1\n      tag_61\n      jump\t// in\n    tag_60:\n      tag_62\n      jump\t// in\n    tag_59:\n      stop\n        /* \"contracts/CDS/CDS.sol\":763:786  uint32 public assetType */\n    tag_8:\n      tag_63\n      tag_64\n      jump\t// in\n    tag_63:\n      mload(0x40)\n      tag_65\n      swap2\n      swap1\n      tag_66\n      jump\t// in\n    tag_65:\n      mload(0x40)\n      dup1\n      swap2\n      sub\n      swap1\n      return\n        /* \"contracts/CDS/CDS.sol\":3648:3723  function close() external isActive {... */\n    tag_9:\n      tag_67\n      tag_68\n      jump\t// in\n    tag_67:\n      stop\n        /* \"contracts/CDS/CDS.sol\":597:625  uint256 public sellerDeposit */\n    tag_10:\n      tag_69\n      tag_70\n      jump\t// in\n    tag_69:\n      mload(0x40)\n      tag_71\n      swap2\n      swap1\n      tag_46\n      jump\t// in\n    tag_71:\n      mload(0x40)\n      dup1\n      swap2\n      sub\n      swap1\n      return\n        /* \"contracts/CDS/CDS.sol\":3727:3802  function claim() external isActive {... */\n    tag_11:\n      tag_72\n      tag_73\n      jump\t// in\n    tag_72:\n      stop\n        /* \"contracts/CDS/CDS.sol\":3138:3297  function premiumPaid() external onlyOwner isActive {... */\n    tag_12:\n      tag_74\n      tag_75\n      jump\t// in\n    tag_74:\n      stop\n        /* \"contracts/CDS/CDS.sol\":1783:1856  function getBuyer() public view returns (address) {... */\n    tag_13:\n      tag_76\n      tag_77\n      jump\t// in\n    tag_76:\n      mload(0x40)\n      tag_78\n      swap2\n      swap1\n      tag_79\n      jump\t// in\n    tag_78:\n      mload(0x40)\n      dup1\n      swap2\n      sub\n      swap1\n      return\n        /* \"@openzeppelin/contracts/access/Ownable.sol\":1831:1932  function renounceOwnership() public virtual onlyOwner {... */\n    tag_14:\n      tag_80\n      tag_81\n      jump\t// in\n    tag_80:\n      stop\n        /* \"contracts/CDS/CDS.sol\":3906:4024  function checkPayDatePassed() external view isActive returns (bool) {... */\n    tag_15:\n      tag_82\n      tag_83\n      jump\t// in\n    tag_82:\n      mload(0x40)\n      tag_84\n      swap2\n      swap1\n      tag_85\n      jump\t// in\n    tag_84:\n      mload(0x40)\n      dup1\n      swap2\n      sub\n      swap1\n      return\n        /* \"contracts/CDS/CDS.sol\":474:503  uint256 public initAssetPrice */\n    tag_16:\n      tag_86\n      tag_87\n      jump\t// in\n    tag_86:\n      mload(0x40)\n      tag_88\n      swap2\n      swap1\n      tag_46\n      jump\t// in\n    tag_88:\n      mload(0x40)\n      dup1\n      swap2\n      sub\n      swap1\n      return\n        /* \"contracts/CDS/CDS.sol\":734:759  uint32 public totalRounds */\n    tag_17:\n      tag_89\n      tag_90\n      jump\t// in\n    tag_89:\n      mload(0x40)\n      tag_91\n      swap2\n      swap1\n      tag_66\n      jump\t// in\n    tag_91:\n      mload(0x40)\n      dup1\n      swap2\n      sub\n      swap1\n      return\n        /* \"@openzeppelin/contracts/access/Ownable.sol\":1201:1286  function owner() public view virtual returns (address) {... */\n    tag_18:\n      tag_92\n      tag_93\n      jump\t// in\n    tag_92:\n      mload(0x40)\n      tag_94\n      swap2\n      swap1\n      tag_79\n      jump\t// in\n    tag_94:\n      mload(0x40)\n      dup1\n      swap2\n      sub\n      swap1\n      return\n        /* \"contracts/CDS/CDS.sol\":710:730  uint32 public rounds */\n    tag_19:\n      tag_95\n      tag_96\n      jump\t// in\n    tag_95:\n      mload(0x40)\n      tag_97\n      swap2\n      swap1\n      tag_66\n      jump\t// in\n    tag_97:\n      mload(0x40)\n      dup1\n      swap2\n      sub\n      swap1\n      return\n        /* \"contracts/CDS/CDS.sol\":2660:2772  function setBuyer(address _buyer) public onlyOwner returns (address) {... */\n    tag_20:\n      tag_98\n      0x04\n      dup1\n      calldatasize\n      sub\n      dup2\n      add\n      swap1\n      tag_99\n      swap2\n      swap1\n      tag_100\n      jump\t// in\n    tag_99:\n      tag_101\n      jump\t// in\n    tag_98:\n      mload(0x40)\n      tag_102\n      swap2\n      swap1\n      tag_79\n      jump\t// in\n    tag_102:\n      mload(0x40)\n      dup1\n      swap2\n      sub\n      swap1\n      return\n        /* \"contracts/CDS/CDS.sol\":536:567  uint256 public liquidationPrice */\n    tag_21:\n      tag_103\n      tag_104\n      jump\t// in\n    tag_103:\n      mload(0x40)\n      tag_105\n      swap2\n      swap1\n      tag_46\n      jump\t// in\n    tag_105:\n      mload(0x40)\n      dup1\n      swap2\n      sub\n      swap1\n      return\n        /* \"contracts/CDS/CDS.sol\":2504:2656  function setParticipants(address _participants, bool _isBuyer) public onlyOwner {... */\n    tag_22:\n      tag_106\n      0x04\n      dup1\n      calldatasize\n      sub\n      dup2\n      add\n      swap1\n      tag_107\n      swap2\n      swap1\n      tag_108\n      jump\t// in\n    tag_107:\n      tag_109\n      jump\t// in\n    tag_106:\n      stop\n        /* \"contracts/CDS/CDS.sol\":1431:1616  function getPrices() public view returns (uint256[5] memory) {... */\n    tag_23:\n      tag_110\n      tag_111\n      jump\t// in\n    tag_110:\n      mload(0x40)\n      tag_112\n      swap2\n      swap1\n      tag_113\n      jump\t// in\n    tag_112:\n      mload(0x40)\n      dup1\n      swap2\n      sub\n      swap1\n      return\n        /* \"contracts/CDS/CDS.sol\":2234:2381  function setInitAssetPrice(uint256 _initAssetPrice) public returns (uint256) {... */\n    tag_24:\n      tag_114\n      0x04\n      dup1\n      calldatasize\n      sub\n      dup2\n      add\n      swap1\n      tag_115\n      swap2\n      swap1\n      tag_116\n      jump\t// in\n    tag_115:\n      tag_117\n      jump\t// in\n    tag_114:\n      mload(0x40)\n      tag_118\n      swap2\n      swap1\n      tag_46\n      jump\t// in\n    tag_118:\n      mload(0x40)\n      dup1\n      swap2\n      sub\n      swap1\n      return\n        /* \"contracts/CDS/PriceConsumer.sol\":339:707  function getCurrPrice(uint32 _assetType) public view returns (uint256) {... */\n    tag_25:\n      tag_119\n      0x04\n      dup1\n      calldatasize\n      sub\n      dup2\n      add\n      swap1\n      tag_120\n      swap2\n      swap1\n      tag_121\n      jump\t// in\n    tag_120:\n      tag_122\n      jump\t// in\n    tag_119:\n      mload(0x40)\n      tag_123\n      swap2\n      swap1\n      tag_46\n      jump\t// in\n    tag_123:\n      mload(0x40)\n      dup1\n      swap2\n      sub\n      swap1\n      return\n        /* \"contracts/CDS/CDS.sol\":2897:3012  function setRounds(uint32 _rounds) public onlyOwner returns (uint32) {... */\n    tag_26:\n      tag_124\n      0x04\n      dup1\n      calldatasize\n      sub\n      dup2\n      add\n      swap1\n      tag_125\n      swap2\n      swap1\n      tag_121\n      jump\t// in\n    tag_125:\n      tag_126\n      jump\t// in\n    tag_124:\n      mload(0x40)\n      tag_127\n      swap2\n      swap1\n      tag_66\n      jump\t// in\n    tag_127:\n      mload(0x40)\n      dup1\n      swap2\n      sub\n      swap1\n      return\n        /* \"contracts/CDS/CDS.sol\":629:655  uint256 public nextPayDate */\n    tag_27:\n      tag_128\n      tag_129\n      jump\t// in\n    tag_128:\n      mload(0x40)\n      tag_130\n      swap2\n      swap1\n      tag_46\n      jump\t// in\n    tag_130:\n      mload(0x40)\n      dup1\n      swap2\n      sub\n      swap1\n      return\n        /* \"contracts/CDS/CDS.sol\":1860:1935  function getSeller() public view returns (address) {... */\n    tag_28:\n      tag_131\n      tag_132\n      jump\t// in\n    tag_131:\n      mload(0x40)\n      tag_133\n      swap2\n      swap1\n      tag_79\n      jump\t// in\n    tag_133:\n      mload(0x40)\n      dup1\n      swap2\n      sub\n      swap1\n      return\n        /* \"contracts/CDS/CDS.sol\":571:593  uint256 public premium */\n    tag_29:\n      tag_134\n      tag_135\n      jump\t// in\n    tag_134:\n      mload(0x40)\n      tag_136\n      swap2\n      swap1\n      tag_46\n      jump\t// in\n    tag_136:\n      mload(0x40)\n      dup1\n      swap2\n      sub\n      swap1\n      return\n        /* \"contracts/CDS/CDS.sol\":2776:2893  function setSeller(address _seller) public onlyOwner returns (address) {... */\n    tag_30:\n      tag_137\n      0x04\n      dup1\n      calldatasize\n      sub\n      dup2\n      add\n      swap1\n      tag_138\n      swap2\n      swap1\n      tag_100\n      jump\t// in\n    tag_138:\n      tag_139\n      jump\t// in\n    tag_137:\n      mload(0x40)\n      tag_140\n      swap2\n      swap1\n      tag_79\n      jump\t// in\n    tag_140:\n      mload(0x40)\n      dup1\n      swap2\n      sub\n      swap1\n      return\n        /* \"contracts/CDS/CDS.sol\":3566:3644  function cancel() external isPending {... */\n    tag_31:\n      tag_141\n      tag_142\n      jump\t// in\n    tag_141:\n      stop\n        /* \"contracts/CDS/CDS.sol\":1939:2230  function getClaimReward() public view returns (uint256) {... */\n    tag_32:\n      tag_143\n      tag_144\n      jump\t// in\n    tag_143:\n      mload(0x40)\n      tag_145\n      swap2\n      swap1\n      tag_46\n      jump\t// in\n    tag_145:\n      mload(0x40)\n      dup1\n      swap2\n      sub\n      swap1\n      return\n        /* \"@openzeppelin/contracts/access/Ownable.sol\":2081:2279  function transferOwnership(address newOwner) public virtual onlyOwner {... */\n    tag_33:\n      tag_146\n      0x04\n      dup1\n      calldatasize\n      sub\n      dup2\n      add\n      swap1\n      tag_147\n      swap2\n      swap1\n      tag_100\n      jump\t// in\n    tag_147:\n      tag_148\n      jump\t// in\n    tag_146:\n      stop\n        /* \"contracts/CDS/CDS.sol\":1620:1779  function getAmountOfAsset() public view returns (uint256) {... */\n    tag_34:\n      tag_149\n      tag_150\n      jump\t// in\n    tag_149:\n      mload(0x40)\n      tag_151\n      swap2\n      swap1\n      tag_46\n      jump\t// in\n    tag_151:\n      mload(0x40)\n      dup1\n      swap2\n      sub\n      swap1\n      return\n        /* \"contracts/CDS/CDS.sol\":3806:3902  function checkRoundsZero() external view isActive returns (bool) {... */\n    tag_35:\n      tag_152\n      tag_153\n      jump\t// in\n    tag_152:\n      mload(0x40)\n      tag_154\n      swap2\n      swap1\n      tag_85\n      jump\t// in\n    tag_154:\n      mload(0x40)\n      dup1\n      swap2\n      sub\n      swap1\n      return\n        /* \"contracts/CDS/CDS.sol\":507:532  uint256 public claimPrice */\n    tag_44:\n      sload(0x04)\n      dup2\n      jump\t// out\n        /* \"contracts/CDS/CDS.sol\":449:469  Status public status */\n    tag_48:\n      0x02\n      0x14\n      swap1\n      sload\n      swap1\n      0x0100\n      exp\n      swap1\n      div\n      0xff\n      and\n      dup2\n      jump\t// out\n        /* \"contracts/CDS/CDS.sol\":2385:2500  function setStatus(Status _status) public onlyOwner returns (Status) {... */\n    tag_54:\n        /* \"contracts/CDS/CDS.sol\":2446:2452  Status */\n      0x00\n        /* \"@openzeppelin/contracts/access/Ownable.sol\":1094:1107  _checkOwner() */\n      tag_156\n        /* \"@openzeppelin/contracts/access/Ownable.sol\":1094:1105  _checkOwner */\n      tag_157\n        /* \"@openzeppelin/contracts/access/Ownable.sol\":1094:1107  _checkOwner() */\n      jump\t// in\n    tag_156:\n        /* \"contracts/CDS/CDS.sol\":2469:2476  _status */\n      dup2\n        /* \"contracts/CDS/CDS.sol\":2460:2466  status */\n      0x02\n      0x14\n        /* \"contracts/CDS/CDS.sol\":2460:2476  status = _status */\n      0x0100\n      exp\n      dup2\n      sload\n      dup2\n      0xff\n      mul\n      not\n      and\n      swap1\n      dup4\n      0x04\n      dup2\n      gt\n      iszero\n      tag_159\n      jumpi\n      tag_160\n      tag_161\n      jump\t// in\n    tag_160:\n    tag_159:\n      mul\n      or\n      swap1\n      sstore\n      pop\n        /* \"contracts/CDS/CDS.sol\":2489:2495  status */\n      0x02\n      0x14\n      swap1\n      sload\n      swap1\n      0x0100\n      exp\n      swap1\n      div\n      0xff\n      and\n        /* \"contracts/CDS/CDS.sol\":2482:2495  return status */\n      swap1\n      pop\n        /* \"contracts/CDS/CDS.sol\":2385:2500  function setStatus(Status _status) public onlyOwner returns (Status) {... */\n      swap2\n      swap1\n      pop\n      jump\t// out\n        /* \"contracts/CDS/CDS.sol\":3016:3134  function setNextPayDate() public onlyOwner returns (uint256) {... */\n    tag_57:\n        /* \"contracts/CDS/CDS.sol\":3068:3075  uint256 */\n      0x00\n        /* \"@openzeppelin/contracts/access/Ownable.sol\":1094:1107  _checkOwner() */\n      tag_163\n        /* \"@openzeppelin/contracts/access/Ownable.sol\":1094:1105  _checkOwner */\n      tag_157\n        /* \"@openzeppelin/contracts/access/Ownable.sol\":1094:1107  _checkOwner() */\n      jump\t// in\n    tag_163:\n        /* \"contracts/CDS/CDS.sol\":3098:3105  4 weeks */\n      0x24ea00\n        /* \"contracts/CDS/CDS.sol\":3083:3094  nextPayDate */\n      0x08\n      0x00\n        /* \"contracts/CDS/CDS.sol\":3083:3105  nextPayDate += 4 weeks */\n      dup3\n      dup3\n      sload\n      tag_165\n      swap2\n      swap1\n      tag_166\n      jump\t// in\n    tag_165:\n      swap3\n      pop\n      pop\n      dup2\n      swap1\n      sstore\n      pop\n        /* \"contracts/CDS/CDS.sol\":3118:3129  nextPayDate */\n      sload(0x08)\n        /* \"contracts/CDS/CDS.sol\":3111:3129  return nextPayDate */\n      swap1\n      pop\n        /* \"contracts/CDS/CDS.sol\":3016:3134  function setNextPayDate() public onlyOwner returns (uint256) {... */\n      swap1\n      jump\t// out\n        /* \"contracts/CDS/CDS.sol\":3301:3562  function accept(uint256 _initAssetPrice, bool _isBuyerHost) external onlyOwner isPending {... */\n    tag_62:\n        /* \"@openzeppelin/contracts/access/Ownable.sol\":1094:1107  _checkOwner() */\n      tag_168\n        /* \"@openzeppelin/contracts/access/Ownable.sol\":1094:1105  _checkOwner */\n      tag_157\n        /* \"@openzeppelin/contracts/access/Ownable.sol\":1094:1107  _checkOwner() */\n      jump\t// in\n    tag_168:\n        /* \"contracts/CDS/CDS.sol\":4095:4109  Status.pending */\n      0x01\n        /* \"contracts/CDS/CDS.sol\":4085:4109  status == Status.pending */\n      0x04\n      dup2\n      gt\n      iszero\n      tag_170\n      jumpi\n      tag_171\n      tag_161\n      jump\t// in\n    tag_171:\n    tag_170:\n        /* \"contracts/CDS/CDS.sol\":4085:4091  status */\n      0x02\n      0x14\n      swap1\n      sload\n      swap1\n      0x0100\n      exp\n      swap1\n      div\n      0xff\n      and\n        /* \"contracts/CDS/CDS.sol\":4085:4109  status == Status.pending */\n      0x04\n      dup2\n      gt\n      iszero\n      tag_172\n      jumpi\n      tag_173\n      tag_161\n      jump\t// in\n    tag_173:\n    tag_172:\n      eq\n        /* \"contracts/CDS/CDS.sol\":4070:4164  require(... */\n      tag_174\n      jumpi\n      mload(0x40)\n      0x08c379a000000000000000000000000000000000000000000000000000000000\n      dup2\n      mstore\n      0x04\n      add\n      tag_175\n      swap1\n      tag_176\n      jump\t// in\n    tag_175:\n      mload(0x40)\n      dup1\n      swap2\n      sub\n      swap1\n      revert\n    tag_174:\n        /* \"contracts/CDS/CDS.sol\":3396:3430  setInitAssetPrice(_initAssetPrice) */\n      tag_178\n        /* \"contracts/CDS/CDS.sol\":3414:3429  _initAssetPrice */\n      dup3\n        /* \"contracts/CDS/CDS.sol\":3396:3413  setInitAssetPrice */\n      tag_117\n        /* \"contracts/CDS/CDS.sol\":3396:3430  setInitAssetPrice(_initAssetPrice) */\n      jump\t// in\n    tag_178:\n      pop\n        /* \"contracts/CDS/CDS.sol\":3468:3475  4 weeks */\n      0x24ea00\n        /* \"contracts/CDS/CDS.sol\":3450:3465  block.timestamp */\n      timestamp\n        /* \"contracts/CDS/CDS.sol\":3450:3475  block.timestamp + 4 weeks */\n      tag_179\n      swap2\n      swap1\n      tag_166\n      jump\t// in\n    tag_179:\n        /* \"contracts/CDS/CDS.sol\":3436:3447  nextPayDate */\n      0x08\n        /* \"contracts/CDS/CDS.sol\":3436:3475  nextPayDate = block.timestamp + 4 weeks */\n      dup2\n      swap1\n      sstore\n      pop\n        /* \"contracts/CDS/CDS.sol\":3481:3523  setParticipants(msg.sender, !_isBuyerHost) */\n      tag_180\n        /* \"contracts/CDS/CDS.sol\":3497:3507  msg.sender */\n      caller\n        /* \"contracts/CDS/CDS.sol\":3510:3522  _isBuyerHost */\n      dup3\n        /* \"contracts/CDS/CDS.sol\":3509:3522  !_isBuyerHost */\n      iszero\n        /* \"contracts/CDS/CDS.sol\":3481:3496  setParticipants */\n      tag_109\n        /* \"contracts/CDS/CDS.sol\":3481:3523  setParticipants(msg.sender, !_isBuyerHost) */\n      jump\t// in\n    tag_180:\n        /* \"contracts/CDS/CDS.sol\":3529:3557  setStatus(CDS.Status.active) */\n      tag_181\n        /* \"contracts/CDS/CDS.sol\":3539:3556  CDS.Status.active */\n      0x02\n        /* \"contracts/CDS/CDS.sol\":3529:3538  setStatus */\n      tag_54\n        /* \"contracts/CDS/CDS.sol\":3529:3557  setStatus(CDS.Status.active) */\n      jump\t// in\n    tag_181:\n      pop\n        /* \"contracts/CDS/CDS.sol\":3301:3562  function accept(uint256 _initAssetPrice, bool _isBuyerHost) external onlyOwner isPending {... */\n      pop\n      pop\n      jump\t// out\n        /* \"contracts/CDS/CDS.sol\":763:786  uint32 public assetType */\n    tag_64:\n      0x0a\n      0x1c\n      swap1\n      sload\n      swap1\n      0x0100\n      exp\n      swap1\n      div\n      0xffffffff\n      and\n      dup2\n      jump\t// out\n        /* \"contracts/CDS/CDS.sol\":3648:3723  function close() external isActive {... */\n    tag_68:\n        /* \"contracts/CDS/CDS.sol\":4231:4244  Status.active */\n      0x02\n        /* \"contracts/CDS/CDS.sol\":4221:4244  status == Status.active */\n      0x04\n      dup2\n      gt\n      iszero\n      tag_183\n      jumpi\n      tag_184\n      tag_161\n      jump\t// in\n    tag_184:\n    tag_183:\n        /* \"contracts/CDS/CDS.sol\":4221:4227  status */\n      0x02\n      0x14\n      swap1\n      sload\n      swap1\n      0x0100\n      exp\n      swap1\n      div\n      0xff\n      and\n        /* \"contracts/CDS/CDS.sol\":4221:4244  status == Status.active */\n      0x04\n      dup2\n      gt\n      iszero\n      tag_185\n      jumpi\n      tag_186\n      tag_161\n      jump\t// in\n    tag_186:\n    tag_185:\n      eq\n        /* \"contracts/CDS/CDS.sol\":4206:4298  require(... */\n      tag_187\n      jumpi\n      mload(0x40)\n      0x08c379a000000000000000000000000000000000000000000000000000000000\n      dup2\n      mstore\n      0x04\n      add\n      tag_188\n      swap1\n      tag_189\n      jump\t// in\n    tag_188:\n      mload(0x40)\n      dup1\n      swap2\n      sub\n      swap1\n      revert\n    tag_187:\n        /* \"contracts/CDS/CDS.sol\":3689:3718  setStatus(CDS.Status.expired) */\n      tag_191\n        /* \"contracts/CDS/CDS.sol\":3699:3717  CDS.Status.expired */\n      0x04\n        /* \"contracts/CDS/CDS.sol\":3689:3698  setStatus */\n      tag_54\n        /* \"contracts/CDS/CDS.sol\":3689:3718  setStatus(CDS.Status.expired) */\n      jump\t// in\n    tag_191:\n      pop\n        /* \"contracts/CDS/CDS.sol\":3648:3723  function close() external isActive {... */\n      jump\t// out\n        /* \"contracts/CDS/CDS.sol\":597:625  uint256 public sellerDeposit */\n    tag_70:\n      sload(0x07)\n      dup2\n      jump\t// out\n        /* \"contracts/CDS/CDS.sol\":3727:3802  function claim() external isActive {... */\n    tag_73:\n        /* \"contracts/CDS/CDS.sol\":4231:4244  Status.active */\n      0x02\n        /* \"contracts/CDS/CDS.sol\":4221:4244  status == Status.active */\n      0x04\n      dup2\n      gt\n      iszero\n      tag_193\n      jumpi\n      tag_194\n      tag_161\n      jump\t// in\n    tag_194:\n    tag_193:\n        /* \"contracts/CDS/CDS.sol\":4221:4227  status */\n      0x02\n      0x14\n      swap1\n      sload\n      swap1\n      0x0100\n      exp\n      swap1\n      div\n      0xff\n      and\n        /* \"contracts/CDS/CDS.sol\":4221:4244  status == Status.active */\n      0x04\n      dup2\n      gt\n      iszero\n      tag_195\n      jumpi\n      tag_196\n      tag_161\n      jump\t// in\n    tag_196:\n    tag_195:\n      eq\n        /* \"contracts/CDS/CDS.sol\":4206:4298  require(... */\n      tag_197\n      jumpi\n      mload(0x40)\n      0x08c379a000000000000000000000000000000000000000000000000000000000\n      dup2\n      mstore\n      0x04\n      add\n      tag_198\n      swap1\n      tag_189\n      jump\t// in\n    tag_198:\n      mload(0x40)\n      dup1\n      swap2\n      sub\n      swap1\n      revert\n    tag_197:\n        /* \"contracts/CDS/CDS.sol\":3768:3797  setStatus(CDS.Status.claimed) */\n      tag_200\n        /* \"contracts/CDS/CDS.sol\":3778:3796  CDS.Status.claimed */\n      0x03\n        /* \"contracts/CDS/CDS.sol\":3768:3777  setStatus */\n      tag_54\n        /* \"contracts/CDS/CDS.sol\":3768:3797  setStatus(CDS.Status.claimed) */\n      jump\t// in\n    tag_200:\n      pop\n        /* \"contracts/CDS/CDS.sol\":3727:3802  function claim() external isActive {... */\n      jump\t// out\n        /* \"contracts/CDS/CDS.sol\":3138:3297  function premiumPaid() external onlyOwner isActive {... */\n    tag_75:\n        /* \"@openzeppelin/contracts/access/Ownable.sol\":1094:1107  _checkOwner() */\n      tag_202\n        /* \"@openzeppelin/contracts/access/Ownable.sol\":1094:1105  _checkOwner */\n      tag_157\n        /* \"@openzeppelin/contracts/access/Ownable.sol\":1094:1107  _checkOwner() */\n      jump\t// in\n    tag_202:\n        /* \"contracts/CDS/CDS.sol\":4231:4244  Status.active */\n      0x02\n        /* \"contracts/CDS/CDS.sol\":4221:4244  status == Status.active */\n      0x04\n      dup2\n      gt\n      iszero\n      tag_204\n      jumpi\n      tag_205\n      tag_161\n      jump\t// in\n    tag_205:\n    tag_204:\n        /* \"contracts/CDS/CDS.sol\":4221:4227  status */\n      0x02\n      0x14\n      swap1\n      sload\n      swap1\n      0x0100\n      exp\n      swap1\n      div\n      0xff\n      and\n        /* \"contracts/CDS/CDS.sol\":4221:4244  status == Status.active */\n      0x04\n      dup2\n      gt\n      iszero\n      tag_206\n      jumpi\n      tag_207\n      tag_161\n      jump\t// in\n    tag_207:\n    tag_206:\n      eq\n        /* \"contracts/CDS/CDS.sol\":4206:4298  require(... */\n      tag_208\n      jumpi\n      mload(0x40)\n      0x08c379a000000000000000000000000000000000000000000000000000000000\n      dup2\n      mstore\n      0x04\n      add\n      tag_209\n      swap1\n      tag_189\n      jump\t// in\n    tag_209:\n      mload(0x40)\n      dup1\n      swap2\n      sub\n      swap1\n      revert\n    tag_208:\n        /* \"contracts/CDS/CDS.sol\":3212:3213  0 */\n      0x00\n        /* \"contracts/CDS/CDS.sol\":3203:3209  rounds */\n      0x0a\n      0x14\n      swap1\n      sload\n      swap1\n      0x0100\n      exp\n      swap1\n      div\n      0xffffffff\n      and\n        /* \"contracts/CDS/CDS.sol\":3203:3213  rounds > 0 */\n      0xffffffff\n      and\n      gt\n        /* \"contracts/CDS/CDS.sol\":3195:3237  require(rounds > 0, 'Round already ended') */\n      tag_211\n      jumpi\n      mload(0x40)\n      0x08c379a000000000000000000000000000000000000000000000000000000000\n      dup2\n      mstore\n      0x04\n      add\n      tag_212\n      swap1\n      tag_213\n      jump\t// in\n    tag_212:\n      mload(0x40)\n      dup1\n      swap2\n      sub\n      swap1\n      revert\n    tag_211:\n        /* \"contracts/CDS/CDS.sol\":3258:3265  4 weeks */\n      0x24ea00\n        /* \"contracts/CDS/CDS.sol\":3243:3254  nextPayDate */\n      0x08\n      0x00\n        /* \"contracts/CDS/CDS.sol\":3243:3265  nextPayDate += 4 weeks */\n      dup3\n      dup3\n      sload\n      tag_214\n      swap2\n      swap1\n      tag_166\n      jump\t// in\n    tag_214:\n      swap3\n      pop\n      pop\n      dup2\n      swap1\n      sstore\n      pop\n        /* \"contracts/CDS/CDS.sol\":3271:3292  setRounds(rounds - 1) */\n      tag_215\n        /* \"contracts/CDS/CDS.sol\":3290:3291  1 */\n      0x01\n        /* \"contracts/CDS/CDS.sol\":3281:3287  rounds */\n      0x0a\n      0x14\n      swap1\n      sload\n      swap1\n      0x0100\n      exp\n      swap1\n      div\n      0xffffffff\n      and\n        /* \"contracts/CDS/CDS.sol\":3281:3291  rounds - 1 */\n      tag_216\n      swap2\n      swap1\n      tag_217\n      jump\t// in\n    tag_216:\n        /* \"contracts/CDS/CDS.sol\":3271:3280  setRounds */\n      tag_126\n        /* \"contracts/CDS/CDS.sol\":3271:3292  setRounds(rounds - 1) */\n      jump\t// in\n    tag_215:\n      pop\n        /* \"contracts/CDS/CDS.sol\":3138:3297  function premiumPaid() external onlyOwner isActive {... */\n      jump\t// out\n        /* \"contracts/CDS/CDS.sol\":1783:1856  function getBuyer() public view returns (address) {... */\n    tag_77:\n        /* \"contracts/CDS/CDS.sol\":1824:1831  address */\n      0x00\n        /* \"contracts/CDS/CDS.sol\":1846:1851  buyer */\n      0x09\n      0x00\n      swap1\n      sload\n      swap1\n      0x0100\n      exp\n      swap1\n      div\n      0xffffffffffffffffffffffffffffffffffffffff\n      and\n        /* \"contracts/CDS/CDS.sol\":1839:1851  return buyer */\n      swap1\n      pop\n        /* \"contracts/CDS/CDS.sol\":1783:1856  function getBuyer() public view returns (address) {... */\n      swap1\n      jump\t// out\n        /* \"@openzeppelin/contracts/access/Ownable.sol\":1831:1932  function renounceOwnership() public virtual onlyOwner {... */\n    tag_81:\n        /* \"@openzeppelin/contracts/access/Ownable.sol\":1094:1107  _checkOwner() */\n      tag_220\n        /* \"@openzeppelin/contracts/access/Ownable.sol\":1094:1105  _checkOwner */\n      tag_157\n        /* \"@openzeppelin/contracts/access/Ownable.sol\":1094:1107  _checkOwner() */\n      jump\t// in\n    tag_220:\n        /* \"@openzeppelin/contracts/access/Ownable.sol\":1895:1925  _transferOwnership(address(0)) */\n      tag_222\n        /* \"@openzeppelin/contracts/access/Ownable.sol\":1922:1923  0 */\n      0x00\n        /* \"@openzeppelin/contracts/access/Ownable.sol\":1895:1913  _transferOwnership */\n      tag_223\n        /* \"@openzeppelin/contracts/access/Ownable.sol\":1895:1925  _transferOwnership(address(0)) */\n      jump\t// in\n    tag_222:\n        /* \"@openzeppelin/contracts/access/Ownable.sol\":1831:1932  function renounceOwnership() public virtual onlyOwner {... */\n      jump\t// out\n        /* \"contracts/CDS/CDS.sol\":3906:4024  function checkPayDatePassed() external view isActive returns (bool) {... */\n    tag_83:\n        /* \"contracts/CDS/CDS.sol\":3968:3972  bool */\n      0x00\n        /* \"contracts/CDS/CDS.sol\":4231:4244  Status.active */\n      0x02\n        /* \"contracts/CDS/CDS.sol\":4221:4244  status == Status.active */\n      0x04\n      dup2\n      gt\n      iszero\n      tag_225\n      jumpi\n      tag_226\n      tag_161\n      jump\t// in\n    tag_226:\n    tag_225:\n        /* \"contracts/CDS/CDS.sol\":4221:4227  status */\n      0x02\n      0x14\n      swap1\n      sload\n      swap1\n      0x0100\n      exp\n      swap1\n      div\n      0xff\n      and\n        /* \"contracts/CDS/CDS.sol\":4221:4244  status == Status.active */\n      0x04\n      dup2\n      gt\n      iszero\n      tag_227\n      jumpi\n      tag_228\n      tag_161\n      jump\t// in\n    tag_228:\n    tag_227:\n      eq\n        /* \"contracts/CDS/CDS.sol\":4206:4298  require(... */\n      tag_229\n      jumpi\n      mload(0x40)\n      0x08c379a000000000000000000000000000000000000000000000000000000000\n      dup2\n      mstore\n      0x04\n      add\n      tag_230\n      swap1\n      tag_189\n      jump\t// in\n    tag_230:\n      mload(0x40)\n      dup1\n      swap2\n      sub\n      swap1\n      revert\n    tag_229:\n        /* \"contracts/CDS/CDS.sol\":4007:4018  nextPayDate */\n      sload(0x08)\n        /* \"contracts/CDS/CDS.sol\":3988:4003  block.timestamp */\n      timestamp\n        /* \"contracts/CDS/CDS.sol\":3988:4018  block.timestamp >= nextPayDate */\n      lt\n      iszero\n        /* \"contracts/CDS/CDS.sol\":3980:4019  return (block.timestamp >= nextPayDate) */\n      swap1\n      pop\n        /* \"contracts/CDS/CDS.sol\":3906:4024  function checkPayDatePassed() external view isActive returns (bool) {... */\n      swap1\n      jump\t// out\n        /* \"contracts/CDS/CDS.sol\":474:503  uint256 public initAssetPrice */\n    tag_87:\n      sload(0x03)\n      dup2\n      jump\t// out\n        /* \"contracts/CDS/CDS.sol\":734:759  uint32 public totalRounds */\n    tag_90:\n      0x0a\n      0x18\n      swap1\n      sload\n      swap1\n      0x0100\n      exp\n      swap1\n      div\n      0xffffffff\n      and\n      dup2\n      jump\t// out\n        /* \"@openzeppelin/contracts/access/Ownable.sol\":1201:1286  function owner() public view virtual returns (address) {... */\n    tag_93:\n        /* \"@openzeppelin/contracts/access/Ownable.sol\":1247:1254  address */\n      0x00\n        /* \"@openzeppelin/contracts/access/Ownable.sol\":1273:1279  _owner */\n      dup1\n      0x00\n      swap1\n      sload\n      swap1\n      0x0100\n      exp\n      swap1\n      div\n      0xffffffffffffffffffffffffffffffffffffffff\n      and\n        /* \"@openzeppelin/contracts/access/Ownable.sol\":1266:1279  return _owner */\n      swap1\n      pop\n        /* \"@openzeppelin/contracts/access/Ownable.sol\":1201:1286  function owner() public view virtual returns (address) {... */\n      swap1\n      jump\t// out\n        /* \"contracts/CDS/CDS.sol\":710:730  uint32 public rounds */\n    tag_96:\n      0x0a\n      0x14\n      swap1\n      sload\n      swap1\n      0x0100\n      exp\n      swap1\n      div\n      0xffffffff\n      and\n      dup2\n      jump\t// out\n        /* \"contracts/CDS/CDS.sol\":2660:2772  function setBuyer(address _buyer) public onlyOwner returns (address) {... */\n    tag_101:\n        /* \"contracts/CDS/CDS.sol\":2720:2727  address */\n      0x00\n        /* \"@openzeppelin/contracts/access/Ownable.sol\":1094:1107  _checkOwner() */\n      tag_234\n        /* \"@openzeppelin/contracts/access/Ownable.sol\":1094:1105  _checkOwner */\n      tag_157\n        /* \"@openzeppelin/contracts/access/Ownable.sol\":1094:1107  _checkOwner() */\n      jump\t// in\n    tag_234:\n        /* \"contracts/CDS/CDS.sol\":2743:2749  _buyer */\n      dup2\n        /* \"contracts/CDS/CDS.sol\":2735:2740  buyer */\n      0x09\n      0x00\n        /* \"contracts/CDS/CDS.sol\":2735:2749  buyer = _buyer */\n      0x0100\n      exp\n      dup2\n      sload\n      dup2\n      0xffffffffffffffffffffffffffffffffffffffff\n      mul\n      not\n      and\n      swap1\n      dup4\n      0xffffffffffffffffffffffffffffffffffffffff\n      and\n      mul\n      or\n      swap1\n      sstore\n      pop\n        /* \"contracts/CDS/CDS.sol\":2762:2767  buyer */\n      0x09\n      0x00\n      swap1\n      sload\n      swap1\n      0x0100\n      exp\n      swap1\n      div\n      0xffffffffffffffffffffffffffffffffffffffff\n      and\n        /* \"contracts/CDS/CDS.sol\":2755:2767  return buyer */\n      swap1\n      pop\n        /* \"contracts/CDS/CDS.sol\":2660:2772  function setBuyer(address _buyer) public onlyOwner returns (address) {... */\n      swap2\n      swap1\n      pop\n      jump\t// out\n        /* \"contracts/CDS/CDS.sol\":536:567  uint256 public liquidationPrice */\n    tag_104:\n      sload(0x05)\n      dup2\n      jump\t// out\n        /* \"contracts/CDS/CDS.sol\":2504:2656  function setParticipants(address _participants, bool _isBuyer) public onlyOwner {... */\n    tag_109:\n        /* \"@openzeppelin/contracts/access/Ownable.sol\":1094:1107  _checkOwner() */\n      tag_237\n        /* \"@openzeppelin/contracts/access/Ownable.sol\":1094:1105  _checkOwner */\n      tag_157\n        /* \"@openzeppelin/contracts/access/Ownable.sol\":1094:1107  _checkOwner() */\n      jump\t// in\n    tag_237:\n        /* \"contracts/CDS/CDS.sol\":2590:2598  _isBuyer */\n      dup1\n        /* \"contracts/CDS/CDS.sol\":2590:2651  _isBuyer ? setBuyer(_participants) : setSeller(_participants) */\n      tag_239\n      jumpi\n        /* \"contracts/CDS/CDS.sol\":2627:2651  setSeller(_participants) */\n      tag_240\n        /* \"contracts/CDS/CDS.sol\":2637:2650  _participants */\n      dup3\n        /* \"contracts/CDS/CDS.sol\":2627:2636  setSeller */\n      tag_139\n        /* \"contracts/CDS/CDS.sol\":2627:2651  setSeller(_participants) */\n      jump\t// in\n    tag_240:\n        /* \"contracts/CDS/CDS.sol\":2590:2651  _isBuyer ? setBuyer(_participants) : setSeller(_participants) */\n      jump(tag_241)\n    tag_239:\n        /* \"contracts/CDS/CDS.sol\":2601:2624  setBuyer(_participants) */\n      tag_242\n        /* \"contracts/CDS/CDS.sol\":2610:2623  _participants */\n      dup3\n        /* \"contracts/CDS/CDS.sol\":2601:2609  setBuyer */\n      tag_101\n        /* \"contracts/CDS/CDS.sol\":2601:2624  setBuyer(_participants) */\n      jump\t// in\n    tag_242:\n        /* \"contracts/CDS/CDS.sol\":2590:2651  _isBuyer ? setBuyer(_participants) : setSeller(_participants) */\n    tag_241:\n      pop\n        /* \"contracts/CDS/CDS.sol\":2504:2656  function setParticipants(address _participants, bool _isBuyer) public onlyOwner {... */\n      pop\n      pop\n      jump\t// out\n        /* \"contracts/CDS/CDS.sol\":1431:1616  function getPrices() public view returns (uint256[5] memory) {... */\n    tag_111:\n        /* \"contracts/CDS/CDS.sol\":1473:1490  uint256[5] memory */\n      tag_243\n      tag_244\n      jump\t// in\n    tag_243:\n        /* \"contracts/CDS/CDS.sol\":1498:1611  return [... */\n      mload(0x40)\n      dup1\n      0xa0\n      add\n      0x40\n      mstore\n      dup1\n        /* \"contracts/CDS/CDS.sol\":1513:1527  initAssetPrice */\n      sload(0x03)\n        /* \"contracts/CDS/CDS.sol\":1498:1611  return [... */\n      dup2\n      mstore\n      0x20\n      add\n        /* \"contracts/CDS/CDS.sol\":1535:1545  claimPrice */\n      sload(0x04)\n        /* \"contracts/CDS/CDS.sol\":1498:1611  return [... */\n      dup2\n      mstore\n      0x20\n      add\n        /* \"contracts/CDS/CDS.sol\":1553:1569  liquidationPrice */\n      sload(0x05)\n        /* \"contracts/CDS/CDS.sol\":1498:1611  return [... */\n      dup2\n      mstore\n      0x20\n      add\n        /* \"contracts/CDS/CDS.sol\":1577:1584  premium */\n      sload(0x06)\n        /* \"contracts/CDS/CDS.sol\":1498:1611  return [... */\n      dup2\n      mstore\n      0x20\n      add\n        /* \"contracts/CDS/CDS.sol\":1592:1605  sellerDeposit */\n      sload(0x07)\n        /* \"contracts/CDS/CDS.sol\":1498:1611  return [... */\n      dup2\n      mstore\n      pop\n      swap1\n      pop\n        /* \"contracts/CDS/CDS.sol\":1431:1616  function getPrices() public view returns (uint256[5] memory) {... */\n      swap1\n      jump\t// out\n        /* \"contracts/CDS/CDS.sol\":2234:2381  function setInitAssetPrice(uint256 _initAssetPrice) public returns (uint256) {... */\n    tag_117:\n        /* \"contracts/CDS/CDS.sol\":2302:2309  uint256 */\n      0x00\n        /* \"contracts/CDS/CDS.sol\":2334:2349  _initAssetPrice */\n      dup2\n        /* \"contracts/CDS/CDS.sol\":2317:2331  initAssetPrice */\n      0x03\n        /* \"contracts/CDS/CDS.sol\":2317:2349  initAssetPrice = _initAssetPrice */\n      dup2\n      swap1\n      sstore\n      pop\n        /* \"contracts/CDS/CDS.sol\":2362:2376  initAssetPrice */\n      sload(0x03)\n        /* \"contracts/CDS/CDS.sol\":2355:2376  return initAssetPrice */\n      swap1\n      pop\n        /* \"contracts/CDS/CDS.sol\":2234:2381  function setInitAssetPrice(uint256 _initAssetPrice) public returns (uint256) {... */\n      swap2\n      swap1\n      pop\n      jump\t// out\n        /* \"contracts/CDS/PriceConsumer.sol\":339:707  function getCurrPrice(uint32 _assetType) public view returns (uint256) {... */\n    tag_122:\n        /* \"contracts/CDS/PriceConsumer.sol\":401:408  uint256 */\n      0x00\n        /* \"contracts/CDS/PriceConsumer.sol\":416:429  uint256 price */\n      dup1\n        /* \"contracts/CDS/PriceConsumer.sol\":453:454  0 */\n      0x00\n        /* \"contracts/CDS/PriceConsumer.sol\":439:449  _assetType */\n      dup4\n        /* \"contracts/CDS/PriceConsumer.sol\":439:454  _assetType == 0 */\n      0xffffffff\n      and\n      eq\n        /* \"contracts/CDS/PriceConsumer.sol\":435:685  if (_assetType == 0) {... */\n      iszero\n      tag_248\n      jumpi\n        /* \"contracts/CDS/PriceConsumer.sol\":472:507  priceOracle.btcPrice().div(10 ** 8) */\n      tag_249\n        /* \"contracts/CDS/PriceConsumer.sol\":499:506  10 ** 8 */\n      0x05f5e100\n        /* \"contracts/CDS/PriceConsumer.sol\":472:483  priceOracle */\n      0x01\n      0x00\n      swap1\n      sload\n      swap1\n      0x0100\n      exp\n      swap1\n      div\n      0xffffffffffffffffffffffffffffffffffffffff\n      and\n        /* \"contracts/CDS/PriceConsumer.sol\":472:492  priceOracle.btcPrice */\n      0xffffffffffffffffffffffffffffffffffffffff\n      and\n      0xa8ad52d1\n        /* \"contracts/CDS/PriceConsumer.sol\":472:494  priceOracle.btcPrice() */\n      mload(0x40)\n      dup2\n      0xffffffff\n      and\n      0xe0\n      shl\n      dup2\n      mstore\n      0x04\n      add\n      0x20\n      mload(0x40)\n      dup1\n      dup4\n      sub\n      dup2\n      dup7\n      gas\n      staticcall\n      iszero\n      dup1\n      iszero\n      tag_251\n      jumpi\n      returndatasize\n      0x00\n      dup1\n      returndatacopy\n      revert(0x00, returndatasize)\n    tag_251:\n      pop\n      pop\n      pop\n      pop\n      mload(0x40)\n      returndatasize\n      not(0x1f)\n      0x1f\n      dup3\n      add\n      and\n      dup3\n      add\n      dup1\n      0x40\n      mstore\n      pop\n      dup2\n      add\n      swap1\n      tag_252\n      swap2\n      swap1\n      tag_253\n      jump\t// in\n    tag_252:\n        /* \"contracts/CDS/PriceConsumer.sol\":472:498  priceOracle.btcPrice().div */\n      tag_254\n      swap1\n        /* \"contracts/CDS/PriceConsumer.sol\":472:507  priceOracle.btcPrice().div(10 ** 8) */\n      swap2\n      swap1\n      0xffffffff\n      and\n      jump\t// in\n    tag_249:\n        /* \"contracts/CDS/PriceConsumer.sol\":464:507  price = priceOracle.btcPrice().div(10 ** 8) */\n      swap1\n      pop\n        /* \"contracts/CDS/PriceConsumer.sol\":435:685  if (_assetType == 0) {... */\n      jump(tag_255)\n    tag_248:\n        /* \"contracts/CDS/PriceConsumer.sol\":538:539  1 */\n      0x01\n        /* \"contracts/CDS/PriceConsumer.sol\":524:534  _assetType */\n      dup4\n        /* \"contracts/CDS/PriceConsumer.sol\":524:539  _assetType == 1 */\n      0xffffffff\n      and\n      eq\n        /* \"contracts/CDS/PriceConsumer.sol\":520:685  if (_assetType == 1) {... */\n      iszero\n      tag_256\n      jumpi\n        /* \"contracts/CDS/PriceConsumer.sol\":557:592  priceOracle.ethPrice().div(10 ** 8) */\n      tag_257\n        /* \"contracts/CDS/PriceConsumer.sol\":584:591  10 ** 8 */\n      0x05f5e100\n        /* \"contracts/CDS/PriceConsumer.sol\":557:568  priceOracle */\n      0x01\n      0x00\n      swap1\n      sload\n      swap1\n      0x0100\n      exp\n      swap1\n      div\n      0xffffffffffffffffffffffffffffffffffffffff\n      and\n        /* \"contracts/CDS/PriceConsumer.sol\":557:577  priceOracle.ethPrice */\n      0xffffffffffffffffffffffffffffffffffffffff\n      and\n      0xff186b2e\n        /* \"contracts/CDS/PriceConsumer.sol\":557:579  priceOracle.ethPrice() */\n      mload(0x40)\n      dup2\n      0xffffffff\n      and\n      0xe0\n      shl\n      dup2\n      mstore\n      0x04\n      add\n      0x20\n      mload(0x40)\n      dup1\n      dup4\n      sub\n      dup2\n      dup7\n      gas\n      staticcall\n      iszero\n      dup1\n      iszero\n      tag_259\n      jumpi\n      returndatasize\n      0x00\n      dup1\n      returndatacopy\n      revert(0x00, returndatasize)\n    tag_259:\n      pop\n      pop\n      pop\n      pop\n      mload(0x40)\n      returndatasize\n      not(0x1f)\n      0x1f\n      dup3\n      add\n      and\n      dup3\n      add\n      dup1\n      0x40\n      mstore\n      pop\n      dup2\n      add\n      swap1\n      tag_260\n      swap2\n      swap1\n      tag_253\n      jump\t// in\n    tag_260:\n        /* \"contracts/CDS/PriceConsumer.sol\":557:583  priceOracle.ethPrice().div */\n      tag_254\n      swap1\n        /* \"contracts/CDS/PriceConsumer.sol\":557:592  priceOracle.ethPrice().div(10 ** 8) */\n      swap2\n      swap1\n      0xffffffff\n      and\n      jump\t// in\n    tag_257:\n        /* \"contracts/CDS/PriceConsumer.sol\":549:592  price = priceOracle.ethPrice().div(10 ** 8) */\n      swap1\n      pop\n        /* \"contracts/CDS/PriceConsumer.sol\":520:685  if (_assetType == 1) {... */\n      jump(tag_261)\n    tag_256:\n        /* \"contracts/CDS/PriceConsumer.sol\":623:624  2 */\n      0x02\n        /* \"contracts/CDS/PriceConsumer.sol\":609:619  _assetType */\n      dup4\n        /* \"contracts/CDS/PriceConsumer.sol\":609:624  _assetType == 2 */\n      0xffffffff\n      and\n      eq\n        /* \"contracts/CDS/PriceConsumer.sol\":605:685  if (_assetType == 2) {... */\n      iszero\n      tag_262\n      jumpi\n        /* \"contracts/CDS/PriceConsumer.sol\":642:678  priceOracle.linkPrice().div(10 ** 8) */\n      tag_263\n        /* \"contracts/CDS/PriceConsumer.sol\":670:677  10 ** 8 */\n      0x05f5e100\n        /* \"contracts/CDS/PriceConsumer.sol\":642:653  priceOracle */\n      0x01\n      0x00\n      swap1\n      sload\n      swap1\n      0x0100\n      exp\n      swap1\n      div\n      0xffffffffffffffffffffffffffffffffffffffff\n      and\n        /* \"contracts/CDS/PriceConsumer.sol\":642:663  priceOracle.linkPrice */\n      0xffffffffffffffffffffffffffffffffffffffff\n      and\n      0x0cf78535\n        /* \"contracts/CDS/PriceConsumer.sol\":642:665  priceOracle.linkPrice() */\n      mload(0x40)\n      dup2\n      0xffffffff\n      and\n      0xe0\n      shl\n      dup2\n      mstore\n      0x04\n      add\n      0x20\n      mload(0x40)\n      dup1\n      dup4\n      sub\n      dup2\n      dup7\n      gas\n      staticcall\n      iszero\n      dup1\n      iszero\n      tag_265\n      jumpi\n      returndatasize\n      0x00\n      dup1\n      returndatacopy\n      revert(0x00, returndatasize)\n    tag_265:\n      pop\n      pop\n      pop\n      pop\n      mload(0x40)\n      returndatasize\n      not(0x1f)\n      0x1f\n      dup3\n      add\n      and\n      dup3\n      add\n      dup1\n      0x40\n      mstore\n      pop\n      dup2\n      add\n      swap1\n      tag_266\n      swap2\n      swap1\n      tag_253\n      jump\t// in\n    tag_266:\n        /* \"contracts/CDS/PriceConsumer.sol\":642:669  priceOracle.linkPrice().div */\n      tag_254\n      swap1\n        /* \"contracts/CDS/PriceConsumer.sol\":642:678  priceOracle.linkPrice().div(10 ** 8) */\n      swap2\n      swap1\n      0xffffffff\n      and\n      jump\t// in\n    tag_263:\n        /* \"contracts/CDS/PriceConsumer.sol\":634:678  price = priceOracle.linkPrice().div(10 ** 8) */\n      swap1\n      pop\n        /* \"contracts/CDS/PriceConsumer.sol\":605:685  if (_assetType == 2) {... */\n    tag_262:\n        /* \"contracts/CDS/PriceConsumer.sol\":520:685  if (_assetType == 1) {... */\n    tag_261:\n        /* \"contracts/CDS/PriceConsumer.sol\":435:685  if (_assetType == 0) {... */\n    tag_255:\n        /* \"contracts/CDS/PriceConsumer.sol\":697:702  price */\n      dup1\n        /* \"contracts/CDS/PriceConsumer.sol\":690:702  return price */\n      swap2\n      pop\n      pop\n        /* \"contracts/CDS/PriceConsumer.sol\":339:707  function getCurrPrice(uint32 _assetType) public view returns (uint256) {... */\n      swap2\n      swap1\n      pop\n      jump\t// out\n        /* \"contracts/CDS/CDS.sol\":2897:3012  function setRounds(uint32 _rounds) public onlyOwner returns (uint32) {... */\n    tag_126:\n        /* \"contracts/CDS/CDS.sol\":2958:2964  uint32 */\n      0x00\n        /* \"@openzeppelin/contracts/access/Ownable.sol\":1094:1107  _checkOwner() */\n      tag_268\n        /* \"@openzeppelin/contracts/access/Ownable.sol\":1094:1105  _checkOwner */\n      tag_157\n        /* \"@openzeppelin/contracts/access/Ownable.sol\":1094:1107  _checkOwner() */\n      jump\t// in\n    tag_268:\n        /* \"contracts/CDS/CDS.sol\":2981:2988  _rounds */\n      dup2\n        /* \"contracts/CDS/CDS.sol\":2972:2978  rounds */\n      0x0a\n      0x14\n        /* \"contracts/CDS/CDS.sol\":2972:2988  rounds = _rounds */\n      0x0100\n      exp\n      dup2\n      sload\n      dup2\n      0xffffffff\n      mul\n      not\n      and\n      swap1\n      dup4\n      0xffffffff\n      and\n      mul\n      or\n      swap1\n      sstore\n      pop\n        /* \"contracts/CDS/CDS.sol\":3001:3007  rounds */\n      0x0a\n      0x14\n      swap1\n      sload\n      swap1\n      0x0100\n      exp\n      swap1\n      div\n      0xffffffff\n      and\n        /* \"contracts/CDS/CDS.sol\":2994:3007  return rounds */\n      swap1\n      pop\n        /* \"contracts/CDS/CDS.sol\":2897:3012  function setRounds(uint32 _rounds) public onlyOwner returns (uint32) {... */\n      swap2\n      swap1\n      pop\n      jump\t// out\n        /* \"contracts/CDS/CDS.sol\":629:655  uint256 public nextPayDate */\n    tag_129:\n      sload(0x08)\n      dup2\n      jump\t// out\n        /* \"contracts/CDS/CDS.sol\":1860:1935  function getSeller() public view returns (address) {... */\n    tag_132:\n        /* \"contracts/CDS/CDS.sol\":1902:1909  address */\n      0x00\n        /* \"contracts/CDS/CDS.sol\":1924:1930  seller */\n      0x0a\n      0x00\n      swap1\n      sload\n      swap1\n      0x0100\n      exp\n      swap1\n      div\n      0xffffffffffffffffffffffffffffffffffffffff\n      and\n        /* \"contracts/CDS/CDS.sol\":1917:1930  return seller */\n      swap1\n      pop\n        /* \"contracts/CDS/CDS.sol\":1860:1935  function getSeller() public view returns (address) {... */\n      swap1\n      jump\t// out\n        /* \"contracts/CDS/CDS.sol\":571:593  uint256 public premium */\n    tag_135:\n      sload(0x06)\n      dup2\n      jump\t// out\n        /* \"contracts/CDS/CDS.sol\":2776:2893  function setSeller(address _seller) public onlyOwner returns (address) {... */\n    tag_139:\n        /* \"contracts/CDS/CDS.sol\":2838:2845  address */\n      0x00\n        /* \"@openzeppelin/contracts/access/Ownable.sol\":1094:1107  _checkOwner() */\n      tag_272\n        /* \"@openzeppelin/contracts/access/Ownable.sol\":1094:1105  _checkOwner */\n      tag_157\n        /* \"@openzeppelin/contracts/access/Ownable.sol\":1094:1107  _checkOwner() */\n      jump\t// in\n    tag_272:\n        /* \"contracts/CDS/CDS.sol\":2862:2869  _seller */\n      dup2\n        /* \"contracts/CDS/CDS.sol\":2853:2859  seller */\n      0x0a\n      0x00\n        /* \"contracts/CDS/CDS.sol\":2853:2869  seller = _seller */\n      0x0100\n      exp\n      dup2\n      sload\n      dup2\n      0xffffffffffffffffffffffffffffffffffffffff\n      mul\n      not\n      and\n      swap1\n      dup4\n      0xffffffffffffffffffffffffffffffffffffffff\n      and\n      mul\n      or\n      swap1\n      sstore\n      pop\n        /* \"contracts/CDS/CDS.sol\":2882:2888  seller */\n      0x0a\n      0x00\n      swap1\n      sload\n      swap1\n      0x0100\n      exp\n      swap1\n      div\n      0xffffffffffffffffffffffffffffffffffffffff\n      and\n        /* \"contracts/CDS/CDS.sol\":2875:2888  return seller */\n      swap1\n      pop\n        /* \"contracts/CDS/CDS.sol\":2776:2893  function setSeller(address _seller) public onlyOwner returns (address) {... */\n      swap2\n      swap1\n      pop\n      jump\t// out\n        /* \"contracts/CDS/CDS.sol\":3566:3644  function cancel() external isPending {... */\n    tag_142:\n        /* \"contracts/CDS/CDS.sol\":4095:4109  Status.pending */\n      0x01\n        /* \"contracts/CDS/CDS.sol\":4085:4109  status == Status.pending */\n      0x04\n      dup2\n      gt\n      iszero\n      tag_275\n      jumpi\n      tag_276\n      tag_161\n      jump\t// in\n    tag_276:\n    tag_275:\n        /* \"contracts/CDS/CDS.sol\":4085:4091  status */\n      0x02\n      0x14\n      swap1\n      sload\n      swap1\n      0x0100\n      exp\n      swap1\n      div\n      0xff\n      and\n        /* \"contracts/CDS/CDS.sol\":4085:4109  status == Status.pending */\n      0x04\n      dup2\n      gt\n      iszero\n      tag_277\n      jumpi\n      tag_278\n      tag_161\n      jump\t// in\n    tag_278:\n    tag_277:\n      eq\n        /* \"contracts/CDS/CDS.sol\":4070:4164  require(... */\n      tag_279\n      jumpi\n      mload(0x40)\n      0x08c379a000000000000000000000000000000000000000000000000000000000\n      dup2\n      mstore\n      0x04\n      add\n      tag_280\n      swap1\n      tag_176\n      jump\t// in\n    tag_280:\n      mload(0x40)\n      dup1\n      swap2\n      sub\n      swap1\n      revert\n    tag_279:\n        /* \"contracts/CDS/CDS.sol\":3609:3639  setStatus(CDS.Status.inactive) */\n      tag_282\n        /* \"contracts/CDS/CDS.sol\":3619:3638  CDS.Status.inactive */\n      0x00\n        /* \"contracts/CDS/CDS.sol\":3609:3618  setStatus */\n      tag_54\n        /* \"contracts/CDS/CDS.sol\":3609:3639  setStatus(CDS.Status.inactive) */\n      jump\t// in\n    tag_282:\n      pop\n        /* \"contracts/CDS/CDS.sol\":3566:3644  function cancel() external isPending {... */\n      jump\t// out\n        /* \"contracts/CDS/CDS.sol\":1939:2230  function getClaimReward() public view returns (uint256) {... */\n    tag_144:\n        /* \"contracts/CDS/CDS.sol\":1986:1993  uint256 */\n      0x00\n        /* \"contracts/CDS/CDS.sol\":2001:2018  uint256 currPrice */\n      dup1\n        /* \"contracts/CDS/CDS.sol\":2021:2044  getCurrPrice(assetType) */\n      tag_284\n        /* \"contracts/CDS/CDS.sol\":2034:2043  assetType */\n      0x0a\n      0x1c\n      swap1\n      sload\n      swap1\n      0x0100\n      exp\n      swap1\n      div\n      0xffffffff\n      and\n        /* \"contracts/CDS/CDS.sol\":2021:2033  getCurrPrice */\n      tag_122\n        /* \"contracts/CDS/CDS.sol\":2021:2044  getCurrPrice(assetType) */\n      jump\t// in\n    tag_284:\n        /* \"contracts/CDS/CDS.sol\":2001:2044  uint256 currPrice = getCurrPrice(assetType) */\n      swap1\n      pop\n        /* \"contracts/CDS/CDS.sol\":2067:2076  currPrice */\n      dup1\n        /* \"contracts/CDS/CDS.sol\":2054:2064  claimPrice */\n      sload(0x04)\n        /* \"contracts/CDS/CDS.sol\":2054:2076  claimPrice < currPrice */\n      lt\n        /* \"contracts/CDS/CDS.sol\":2050:2101  if (claimPrice < currPrice) {... */\n      iszero\n      tag_285\n      jumpi\n        /* \"contracts/CDS/CDS.sol\":2093:2094  0 */\n      0x00\n        /* \"contracts/CDS/CDS.sol\":2086:2094  return 0 */\n      swap2\n      pop\n      pop\n      jump(tag_283)\n        /* \"contracts/CDS/CDS.sol\":2050:2101  if (claimPrice < currPrice) {... */\n    tag_285:\n        /* \"contracts/CDS/CDS.sol\":2119:2225  sellerDeposit.calcClaimReward(... */\n      tag_286\n        /* \"contracts/CDS/CDS.sol\":2158:2174  liquidationPrice */\n      sload(0x05)\n        /* \"contracts/CDS/CDS.sol\":2184:2198  initAssetPrice */\n      sload(0x03)\n        /* \"contracts/CDS/CDS.sol\":2208:2217  currPrice */\n      dup4\n        /* \"contracts/CDS/CDS.sol\":2119:2132  sellerDeposit */\n      sload(0x07)\n        /* \"contracts/CDS/CDS.sol\":2119:2148  sellerDeposit.calcClaimReward */\n      tag_287\n      swap1\n        /* \"contracts/CDS/CDS.sol\":2119:2225  sellerDeposit.calcClaimReward(... */\n      swap4\n      swap3\n      swap2\n      swap1\n      0xffffffff\n      and\n      jump\t// in\n    tag_286:\n        /* \"contracts/CDS/CDS.sol\":2106:2225  return... */\n      swap2\n      pop\n      pop\n        /* \"contracts/CDS/CDS.sol\":1939:2230  function getClaimReward() public view returns (uint256) {... */\n    tag_283:\n      swap1\n      jump\t// out\n        /* \"@openzeppelin/contracts/access/Ownable.sol\":2081:2279  function transferOwnership(address newOwner) public virtual onlyOwner {... */\n    tag_148:\n        /* \"@openzeppelin/contracts/access/Ownable.sol\":1094:1107  _checkOwner() */\n      tag_289\n        /* \"@openzeppelin/contracts/access/Ownable.sol\":1094:1105  _checkOwner */\n      tag_157\n        /* \"@openzeppelin/contracts/access/Ownable.sol\":1094:1107  _checkOwner() */\n      jump\t// in\n    tag_289:\n        /* \"@openzeppelin/contracts/access/Ownable.sol\":2189:2190  0 */\n      0x00\n        /* \"@openzeppelin/contracts/access/Ownable.sol\":2169:2191  newOwner != address(0) */\n      0xffffffffffffffffffffffffffffffffffffffff\n      and\n        /* \"@openzeppelin/contracts/access/Ownable.sol\":2169:2177  newOwner */\n      dup2\n        /* \"@openzeppelin/contracts/access/Ownable.sol\":2169:2191  newOwner != address(0) */\n      0xffffffffffffffffffffffffffffffffffffffff\n      and\n      eq\n      iszero\n        /* \"@openzeppelin/contracts/access/Ownable.sol\":2161:2234  require(newOwner != address(0), \"Ownable: new owner is the zero address\") */\n      tag_291\n      jumpi\n      mload(0x40)\n      0x08c379a000000000000000000000000000000000000000000000000000000000\n      dup2\n      mstore\n      0x04\n      add\n      tag_292\n      swap1\n      tag_293\n      jump\t// in\n    tag_292:\n      mload(0x40)\n      dup1\n      swap2\n      sub\n      swap1\n      revert\n    tag_291:\n        /* \"@openzeppelin/contracts/access/Ownable.sol\":2244:2272  _transferOwnership(newOwner) */\n      tag_294\n        /* \"@openzeppelin/contracts/access/Ownable.sol\":2263:2271  newOwner */\n      dup2\n        /* \"@openzeppelin/contracts/access/Ownable.sol\":2244:2262  _transferOwnership */\n      tag_223\n        /* \"@openzeppelin/contracts/access/Ownable.sol\":2244:2272  _transferOwnership(newOwner) */\n      jump\t// in\n    tag_294:\n        /* \"@openzeppelin/contracts/access/Ownable.sol\":2081:2279  function transferOwnership(address newOwner) public virtual onlyOwner {... */\n      pop\n      jump\t// out\n        /* \"contracts/CDS/CDS.sol\":1620:1779  function getAmountOfAsset() public view returns (uint256) {... */\n    tag_150:\n        /* \"contracts/CDS/CDS.sol\":1669:1676  uint256 */\n      0x00\n        /* \"contracts/CDS/CDS.sol\":1691:1774  initAssetPrice.calcAmountOfAsset(... */\n      tag_296\n        /* \"contracts/CDS/CDS.sol\":1731:1747  liquidationPrice */\n      sload(0x05)\n        /* \"contracts/CDS/CDS.sol\":1755:1768  sellerDeposit */\n      sload(0x07)\n        /* \"contracts/CDS/CDS.sol\":1691:1705  initAssetPrice */\n      sload(0x03)\n        /* \"contracts/CDS/CDS.sol\":1691:1723  initAssetPrice.calcAmountOfAsset */\n      tag_297\n      swap1\n        /* \"contracts/CDS/CDS.sol\":1691:1774  initAssetPrice.calcAmountOfAsset(... */\n      swap3\n      swap2\n      swap1\n      0xffffffff\n      and\n      jump\t// in\n    tag_296:\n        /* \"contracts/CDS/CDS.sol\":1684:1774  return initAssetPrice.calcAmountOfAsset(... */\n      swap1\n      pop\n        /* \"contracts/CDS/CDS.sol\":1620:1779  function getAmountOfAsset() public view returns (uint256) {... */\n      swap1\n      jump\t// out\n        /* \"contracts/CDS/CDS.sol\":3806:3902  function checkRoundsZero() external view isActive returns (bool) {... */\n    tag_153:\n        /* \"contracts/CDS/CDS.sol\":3865:3869  bool */\n      0x00\n        /* \"contracts/CDS/CDS.sol\":4231:4244  Status.active */\n      0x02\n        /* \"contracts/CDS/CDS.sol\":4221:4244  status == Status.active */\n      0x04\n      dup2\n      gt\n      iszero\n      tag_299\n      jumpi\n      tag_300\n      tag_161\n      jump\t// in\n    tag_300:\n    tag_299:\n        /* \"contracts/CDS/CDS.sol\":4221:4227  status */\n      0x02\n      0x14\n      swap1\n      sload\n      swap1\n      0x0100\n      exp\n      swap1\n      div\n      0xff\n      and\n        /* \"contracts/CDS/CDS.sol\":4221:4244  status == Status.active */\n      0x04\n      dup2\n      gt\n      iszero\n      tag_301\n      jumpi\n      tag_302\n      tag_161\n      jump\t// in\n    tag_302:\n    tag_301:\n      eq\n        /* \"contracts/CDS/CDS.sol\":4206:4298  require(... */\n      tag_303\n      jumpi\n      mload(0x40)\n      0x08c379a000000000000000000000000000000000000000000000000000000000\n      dup2\n      mstore\n      0x04\n      add\n      tag_304\n      swap1\n      tag_189\n      jump\t// in\n    tag_304:\n      mload(0x40)\n      dup1\n      swap2\n      sub\n      swap1\n      revert\n    tag_303:\n        /* \"contracts/CDS/CDS.sol\":3895:3896  0 */\n      0x00\n        /* \"contracts/CDS/CDS.sol\":3885:3891  rounds */\n      0x0a\n      0x14\n      swap1\n      sload\n      swap1\n      0x0100\n      exp\n      swap1\n      div\n      0xffffffff\n      and\n        /* \"contracts/CDS/CDS.sol\":3885:3896  rounds == 0 */\n      0xffffffff\n      and\n      eq\n        /* \"contracts/CDS/CDS.sol\":3877:3897  return (rounds == 0) */\n      swap1\n      pop\n        /* \"contracts/CDS/CDS.sol\":3806:3902  function checkRoundsZero() external view isActive returns (bool) {... */\n      swap1\n      jump\t// out\n        /* \"@openzeppelin/contracts/access/Ownable.sol\":1359:1489  function _checkOwner() internal view virtual {... */\n    tag_157:\n        /* \"@openzeppelin/contracts/access/Ownable.sol\":1433:1445  _msgSender() */\n      tag_307\n        /* \"@openzeppelin/contracts/access/Ownable.sol\":1433:1443  _msgSender */\n      tag_308\n        /* \"@openzeppelin/contracts/access/Ownable.sol\":1433:1445  _msgSender() */\n      jump\t// in\n    tag_307:\n        /* \"@openzeppelin/contracts/access/Ownable.sol\":1422:1445  owner() == _msgSender() */\n      0xffffffffffffffffffffffffffffffffffffffff\n      and\n        /* \"@openzeppelin/contracts/access/Ownable.sol\":1422:1429  owner() */\n      tag_309\n        /* \"@openzeppelin/contracts/access/Ownable.sol\":1422:1427  owner */\n      tag_93\n        /* \"@openzeppelin/contracts/access/Ownable.sol\":1422:1429  owner() */\n      jump\t// in\n    tag_309:\n        /* \"@openzeppelin/contracts/access/Ownable.sol\":1422:1445  owner() == _msgSender() */\n      0xffffffffffffffffffffffffffffffffffffffff\n      and\n      eq\n        /* \"@openzeppelin/contracts/access/Ownable.sol\":1414:1482  require(owner() == _msgSender(), \"Ownable: caller is not the owner\") */\n      tag_310\n      jumpi\n      mload(0x40)\n      0x08c379a000000000000000000000000000000000000000000000000000000000\n      dup2\n      mstore\n      0x04\n      add\n      tag_311\n      swap1\n      tag_312\n      jump\t// in\n    tag_311:\n      mload(0x40)\n      dup1\n      swap2\n      sub\n      swap1\n      revert\n    tag_310:\n        /* \"@openzeppelin/contracts/access/Ownable.sol\":1359:1489  function _checkOwner() internal view virtual {... */\n      jump\t// out\n        /* \"@openzeppelin/contracts/access/Ownable.sol\":2433:2620  function _transferOwnership(address newOwner) internal virtual {... */\n    tag_223:\n        /* \"@openzeppelin/contracts/access/Ownable.sol\":2506:2522  address oldOwner */\n      0x00\n        /* \"@openzeppelin/contracts/access/Ownable.sol\":2525:2531  _owner */\n      dup1\n      0x00\n      swap1\n      sload\n      swap1\n      0x0100\n      exp\n      swap1\n      div\n      0xffffffffffffffffffffffffffffffffffffffff\n      and\n        /* \"@openzeppelin/contracts/access/Ownable.sol\":2506:2531  address oldOwner = _owner */\n      swap1\n      pop\n        /* \"@openzeppelin/contracts/access/Ownable.sol\":2550:2558  newOwner */\n      dup2\n        /* \"@openzeppelin/contracts/access/Ownable.sol\":2541:2547  _owner */\n      0x00\n      dup1\n        /* \"@openzeppelin/contracts/access/Ownable.sol\":2541:2558  _owner = newOwner */\n      0x0100\n      exp\n      dup2\n      sload\n      dup2\n      0xffffffffffffffffffffffffffffffffffffffff\n      mul\n      not\n      and\n      swap1\n      dup4\n      0xffffffffffffffffffffffffffffffffffffffff\n      and\n      mul\n      or\n      swap1\n      sstore\n      pop\n        /* \"@openzeppelin/contracts/access/Ownable.sol\":2604:2612  newOwner */\n      dup2\n        /* \"@openzeppelin/contracts/access/Ownable.sol\":2573:2613  OwnershipTransferred(oldOwner, newOwner) */\n      0xffffffffffffffffffffffffffffffffffffffff\n      and\n        /* \"@openzeppelin/contracts/access/Ownable.sol\":2594:2602  oldOwner */\n      dup2\n        /* \"@openzeppelin/contracts/access/Ownable.sol\":2573:2613  OwnershipTransferred(oldOwner, newOwner) */\n      0xffffffffffffffffffffffffffffffffffffffff\n      and\n      0x8be0079c531659141344cd1fd0a4f28419497f9722a3daafe3b4186f6b6457e0\n      mload(0x40)\n      mload(0x40)\n      dup1\n      swap2\n      sub\n      swap1\n      log3\n        /* \"@openzeppelin/contracts/access/Ownable.sol\":2496:2620  {... */\n      pop\n        /* \"@openzeppelin/contracts/access/Ownable.sol\":2433:2620  function _transferOwnership(address newOwner) internal virtual {... */\n      pop\n      jump\t// out\n        /* \"@openzeppelin/contracts/utils/math/SafeMath.sol\":3850:3946  function div(uint256 a, uint256 b) internal pure returns (uint256) {... */\n    tag_254:\n        /* \"@openzeppelin/contracts/utils/math/SafeMath.sol\":3908:3915  uint256 */\n      0x00\n        /* \"@openzeppelin/contracts/utils/math/SafeMath.sol\":3938:3939  b */\n      dup2\n        /* \"@openzeppelin/contracts/utils/math/SafeMath.sol\":3934:3935  a */\n      dup4\n        /* \"@openzeppelin/contracts/utils/math/SafeMath.sol\":3934:3939  a / b */\n      tag_315\n      swap2\n      swap1\n      tag_316\n      jump\t// in\n    tag_315:\n        /* \"@openzeppelin/contracts/utils/math/SafeMath.sol\":3927:3939  return a / b */\n      swap1\n      pop\n        /* \"@openzeppelin/contracts/utils/math/SafeMath.sol\":3850:3946  function div(uint256 a, uint256 b) internal pure returns (uint256) {... */\n      swap3\n      swap2\n      pop\n      pop\n      jump\t// out\n        /* \"contracts/libs/LibSwap.sol\":167:588  function calcClaimReward(... */\n    tag_287:\n        /* \"contracts/libs/LibSwap.sol\":311:318  uint256 */\n      0x00\n        /* \"contracts/libs/LibSwap.sol\":326:345  uint256 claimReward */\n      dup1\n        /* \"contracts/libs/LibSwap.sol\":371:379  _current */\n      dup3\n        /* \"contracts/libs/LibSwap.sol\":355:367  _liquidation */\n      dup6\n        /* \"contracts/libs/LibSwap.sol\":355:379  _liquidation >= _current */\n      lt\n        /* \"contracts/libs/LibSwap.sol\":351:560  if (_liquidation >= _current) {... */\n      tag_318\n      jumpi\n        /* \"contracts/libs/LibSwap.sol\":403:411  _deposit */\n      dup6\n        /* \"contracts/libs/LibSwap.sol\":389:411  claimReward = _deposit */\n      swap1\n      pop\n        /* \"contracts/libs/LibSwap.sol\":351:560  if (_liquidation >= _current) {... */\n      jump(tag_319)\n    tag_318:\n        /* \"contracts/libs/LibSwap.sol\":432:450  uint256 numOfAsset */\n      0x00\n        /* \"contracts/libs/LibSwap.sol\":453:493  _deposit.div(_initial.sub(_liquidation)) */\n      tag_320\n        /* \"contracts/libs/LibSwap.sol\":466:492  _initial.sub(_liquidation) */\n      tag_321\n        /* \"contracts/libs/LibSwap.sol\":479:491  _liquidation */\n      dup8\n        /* \"contracts/libs/LibSwap.sol\":466:474  _initial */\n      dup8\n        /* \"contracts/libs/LibSwap.sol\":466:478  _initial.sub */\n      tag_322\n      swap1\n        /* \"contracts/libs/LibSwap.sol\":466:492  _initial.sub(_liquidation) */\n      swap2\n      swap1\n      0xffffffff\n      and\n      jump\t// in\n    tag_321:\n        /* \"contracts/libs/LibSwap.sol\":453:461  _deposit */\n      dup9\n        /* \"contracts/libs/LibSwap.sol\":453:465  _deposit.div */\n      tag_254\n      swap1\n        /* \"contracts/libs/LibSwap.sol\":453:493  _deposit.div(_initial.sub(_liquidation)) */\n      swap2\n      swap1\n      0xffffffff\n      and\n      jump\t// in\n    tag_320:\n        /* \"contracts/libs/LibSwap.sol\":432:493  uint256 numOfAsset = _deposit.div(_initial.sub(_liquidation)) */\n      swap1\n      pop\n        /* \"contracts/libs/LibSwap.sol\":515:553  numOfAsset.mul(_initial.sub(_current)) */\n      tag_323\n        /* \"contracts/libs/LibSwap.sol\":530:552  _initial.sub(_current) */\n      tag_324\n        /* \"contracts/libs/LibSwap.sol\":543:551  _current */\n      dup6\n        /* \"contracts/libs/LibSwap.sol\":530:538  _initial */\n      dup8\n        /* \"contracts/libs/LibSwap.sol\":530:542  _initial.sub */\n      tag_322\n      swap1\n        /* \"contracts/libs/LibSwap.sol\":530:552  _initial.sub(_current) */\n      swap2\n      swap1\n      0xffffffff\n      and\n      jump\t// in\n    tag_324:\n        /* \"contracts/libs/LibSwap.sol\":515:525  numOfAsset */\n      dup3\n        /* \"contracts/libs/LibSwap.sol\":515:529  numOfAsset.mul */\n      tag_325\n      swap1\n        /* \"contracts/libs/LibSwap.sol\":515:553  numOfAsset.mul(_initial.sub(_current)) */\n      swap2\n      swap1\n      0xffffffff\n      and\n      jump\t// in\n    tag_323:\n        /* \"contracts/libs/LibSwap.sol\":501:553  claimReward = numOfAsset.mul(_initial.sub(_current)) */\n      swap2\n      pop\n        /* \"contracts/libs/LibSwap.sol\":424:560  {... */\n      pop\n        /* \"contracts/libs/LibSwap.sol\":351:560  if (_liquidation >= _current) {... */\n    tag_319:\n        /* \"contracts/libs/LibSwap.sol\":572:583  claimReward */\n      dup1\n        /* \"contracts/libs/LibSwap.sol\":565:583  return claimReward */\n      swap2\n      pop\n      pop\n        /* \"contracts/libs/LibSwap.sol\":167:588  function calcClaimReward(... */\n      swap5\n      swap4\n      pop\n      pop\n      pop\n      pop\n      jump\t// out\n        /* \"contracts/libs/LibSwap.sol\":592:795  function calcAmountOfAsset(... */\n    tag_297:\n        /* \"contracts/libs/LibSwap.sol\":722:729  uint256 */\n      0x00\n        /* \"contracts/libs/LibSwap.sol\":744:790  _sellerDeposit.div(_initial.sub(_liquidation)) */\n      tag_327\n        /* \"contracts/libs/LibSwap.sol\":763:789  _initial.sub(_liquidation) */\n      tag_328\n        /* \"contracts/libs/LibSwap.sol\":776:788  _liquidation */\n      dup5\n        /* \"contracts/libs/LibSwap.sol\":763:771  _initial */\n      dup7\n        /* \"contracts/libs/LibSwap.sol\":763:775  _initial.sub */\n      tag_322\n      swap1\n        /* \"contracts/libs/LibSwap.sol\":763:789  _initial.sub(_liquidation) */\n      swap2\n      swap1\n      0xffffffff\n      and\n      jump\t// in\n    tag_328:\n        /* \"contracts/libs/LibSwap.sol\":744:758  _sellerDeposit */\n      dup4\n        /* \"contracts/libs/LibSwap.sol\":744:762  _sellerDeposit.div */\n      tag_254\n      swap1\n        /* \"contracts/libs/LibSwap.sol\":744:790  _sellerDeposit.div(_initial.sub(_liquidation)) */\n      swap2\n      swap1\n      0xffffffff\n      and\n      jump\t// in\n    tag_327:\n        /* \"contracts/libs/LibSwap.sol\":737:790  return _sellerDeposit.div(_initial.sub(_liquidation)) */\n      swap1\n      pop\n        /* \"contracts/libs/LibSwap.sol\":592:795  function calcAmountOfAsset(... */\n      swap4\n      swap3\n      pop\n      pop\n      pop\n      jump\t// out\n        /* \"@openzeppelin/contracts/utils/Context.sol\":640:736  function _msgSender() internal view virtual returns (address) {... */\n    tag_308:\n        /* \"@openzeppelin/contracts/utils/Context.sol\":693:700  address */\n      0x00\n        /* \"@openzeppelin/contracts/utils/Context.sol\":719:729  msg.sender */\n      caller\n        /* \"@openzeppelin/contracts/utils/Context.sol\":712:729  return msg.sender */\n      swap1\n      pop\n        /* \"@openzeppelin/contracts/utils/Context.sol\":640:736  function _msgSender() internal view virtual returns (address) {... */\n      swap1\n      jump\t// out\n        /* \"@openzeppelin/contracts/utils/math/SafeMath.sol\":3122:3218  function sub(uint256 a, uint256 b) internal pure returns (uint256) {... */\n    tag_322:\n        /* \"@openzeppelin/contracts/utils/math/SafeMath.sol\":3180:3187  uint256 */\n      0x00\n        /* \"@openzeppelin/contracts/utils/math/SafeMath.sol\":3210:3211  b */\n      dup2\n        /* \"@openzeppelin/contracts/utils/math/SafeMath.sol\":3206:3207  a */\n      dup4\n        /* \"@openzeppelin/contracts/utils/math/SafeMath.sol\":3206:3211  a - b */\n      tag_331\n      swap2\n      swap1\n      tag_332\n      jump\t// in\n    tag_331:\n        /* \"@openzeppelin/contracts/utils/math/SafeMath.sol\":3199:3211  return a - b */\n      swap1\n      pop\n        /* \"@openzeppelin/contracts/utils/math/SafeMath.sol\":3122:3218  function sub(uint256 a, uint256 b) internal pure returns (uint256) {... */\n      swap3\n      swap2\n      pop\n      pop\n      jump\t// out\n        /* \"@openzeppelin/contracts/utils/math/SafeMath.sol\":3465:3561  function mul(uint256 a, uint256 b) internal pure returns (uint256) {... */\n    tag_325:\n        /* \"@openzeppelin/contracts/utils/math/SafeMath.sol\":3523:3530  uint256 */\n      0x00\n        /* \"@openzeppelin/contracts/utils/math/SafeMath.sol\":3553:3554  b */\n      dup2\n        /* \"@openzeppelin/contracts/utils/math/SafeMath.sol\":3549:3550  a */\n      dup4\n        /* \"@openzeppelin/contracts/utils/math/SafeMath.sol\":3549:3554  a * b */\n      tag_334\n      swap2\n      swap1\n      tag_335\n      jump\t// in\n    tag_334:\n        /* \"@openzeppelin/contracts/utils/math/SafeMath.sol\":3542:3554  return a * b */\n      swap1\n      pop\n        /* \"@openzeppelin/contracts/utils/math/SafeMath.sol\":3465:3561  function mul(uint256 a, uint256 b) internal pure returns (uint256) {... */\n      swap3\n      swap2\n      pop\n      pop\n      jump\t// out\n    tag_244:\n      mload(0x40)\n      dup1\n      0xa0\n      add\n      0x40\n      mstore\n      dup1\n      0x05\n      swap1\n      0x20\n      dup3\n      mul\n      dup1\n      calldatasize\n      dup4\n      calldatacopy\n      dup1\n      dup3\n      add\n      swap2\n      pop\n      pop\n      swap1\n      pop\n      pop\n      swap1\n      jump\t// out\n        /* \"#utility.yul\":7:84   */\n    tag_336:\n        /* \"#utility.yul\":44:51   */\n      0x00\n        /* \"#utility.yul\":73:78   */\n      dup2\n        /* \"#utility.yul\":62:78   */\n      swap1\n      pop\n        /* \"#utility.yul\":7:84   */\n      swap2\n      swap1\n      pop\n      jump\t// out\n        /* \"#utility.yul\":90:208   */\n    tag_337:\n        /* \"#utility.yul\":177:201   */\n      tag_386\n        /* \"#utility.yul\":195:200   */\n      dup2\n        /* \"#utility.yul\":177:201   */\n      tag_336\n      jump\t// in\n    tag_386:\n        /* \"#utility.yul\":172:175   */\n      dup3\n        /* \"#utility.yul\":165:202   */\n      mstore\n        /* \"#utility.yul\":90:208   */\n      pop\n      pop\n      jump\t// out\n        /* \"#utility.yul\":214:436   */\n    tag_46:\n        /* \"#utility.yul\":307:311   */\n      0x00\n        /* \"#utility.yul\":345:347   */\n      0x20\n        /* \"#utility.yul\":334:343   */\n      dup3\n        /* \"#utility.yul\":330:348   */\n      add\n        /* \"#utility.yul\":322:348   */\n      swap1\n      pop\n        /* \"#utility.yul\":358:429   */\n      tag_388\n        /* \"#utility.yul\":426:427   */\n      0x00\n        /* \"#utility.yul\":415:424   */\n      dup4\n        /* \"#utility.yul\":411:428   */\n      add\n        /* \"#utility.yul\":402:408   */\n      dup5\n        /* \"#utility.yul\":358:429   */\n      tag_337\n      jump\t// in\n    tag_388:\n        /* \"#utility.yul\":214:436   */\n      swap3\n      swap2\n      pop\n      pop\n      jump\t// out\n        /* \"#utility.yul\":442:622   */\n    tag_161:\n        /* \"#utility.yul\":490:567   */\n      0x4e487b7100000000000000000000000000000000000000000000000000000000\n        /* \"#utility.yul\":487:488   */\n      0x00\n        /* \"#utility.yul\":480:568   */\n      mstore\n        /* \"#utility.yul\":587:591   */\n      0x21\n        /* \"#utility.yul\":584:585   */\n      0x04\n        /* \"#utility.yul\":577:592   */\n      mstore\n        /* \"#utility.yul\":611:615   */\n      0x24\n        /* \"#utility.yul\":608:609   */\n      0x00\n        /* \"#utility.yul\":601:616   */\n      revert\n        /* \"#utility.yul\":628:743   */\n    tag_338:\n        /* \"#utility.yul\":711:712   */\n      0x05\n        /* \"#utility.yul\":704:709   */\n      dup2\n        /* \"#utility.yul\":701:713   */\n      lt\n        /* \"#utility.yul\":691:737   */\n      tag_391\n      jumpi\n        /* \"#utility.yul\":717:735   */\n      tag_392\n      tag_161\n      jump\t// in\n    tag_392:\n        /* \"#utility.yul\":691:737   */\n    tag_391:\n        /* \"#utility.yul\":628:743   */\n      pop\n      jump\t// out\n        /* \"#utility.yul\":749:880   */\n    tag_339:\n        /* \"#utility.yul\":796:803   */\n      0x00\n        /* \"#utility.yul\":825:830   */\n      dup2\n        /* \"#utility.yul\":814:830   */\n      swap1\n      pop\n        /* \"#utility.yul\":831:874   */\n      tag_394\n        /* \"#utility.yul\":868:873   */\n      dup3\n        /* \"#utility.yul\":831:874   */\n      tag_338\n      jump\t// in\n    tag_394:\n        /* \"#utility.yul\":749:880   */\n      swap2\n      swap1\n      pop\n      jump\t// out\n        /* \"#utility.yul\":886:1017   */\n    tag_340:\n        /* \"#utility.yul\":944:953   */\n      0x00\n        /* \"#utility.yul\":977:1011   */\n      tag_396\n        /* \"#utility.yul\":1005:1010   */\n      dup3\n        /* \"#utility.yul\":977:1011   */\n      tag_339\n      jump\t// in\n    tag_396:\n        /* \"#utility.yul\":964:1011   */\n      swap1\n      pop\n        /* \"#utility.yul\":886:1017   */\n      swap2\n      swap1\n      pop\n      jump\t// out\n        /* \"#utility.yul\":1023:1170   */\n    tag_341:\n        /* \"#utility.yul\":1118:1163   */\n      tag_398\n        /* \"#utility.yul\":1157:1162   */\n      dup2\n        /* \"#utility.yul\":1118:1163   */\n      tag_340\n      jump\t// in\n    tag_398:\n        /* \"#utility.yul\":1113:1116   */\n      dup3\n        /* \"#utility.yul\":1106:1164   */\n      mstore\n        /* \"#utility.yul\":1023:1170   */\n      pop\n      pop\n      jump\t// out\n        /* \"#utility.yul\":1176:1414   */\n    tag_50:\n        /* \"#utility.yul\":1277:1281   */\n      0x00\n        /* \"#utility.yul\":1315:1317   */\n      0x20\n        /* \"#utility.yul\":1304:1313   */\n      dup3\n        /* \"#utility.yul\":1300:1318   */\n      add\n        /* \"#utility.yul\":1292:1318   */\n      swap1\n      pop\n        /* \"#utility.yul\":1328:1407   */\n      tag_400\n        /* \"#utility.yul\":1404:1405   */\n      0x00\n        /* \"#utility.yul\":1393:1402   */\n      dup4\n        /* \"#utility.yul\":1389:1406   */\n      add\n        /* \"#utility.yul\":1380:1386   */\n      dup5\n        /* \"#utility.yul\":1328:1407   */\n      tag_341\n      jump\t// in\n    tag_400:\n        /* \"#utility.yul\":1176:1414   */\n      swap3\n      swap2\n      pop\n      pop\n      jump\t// out\n        /* \"#utility.yul\":1501:1618   */\n    tag_343:\n        /* \"#utility.yul\":1610:1611   */\n      0x00\n        /* \"#utility.yul\":1607:1608   */\n      dup1\n        /* \"#utility.yul\":1600:1612   */\n      revert\n        /* \"#utility.yul\":1747:1856   */\n    tag_345:\n        /* \"#utility.yul\":1830:1831   */\n      0x05\n        /* \"#utility.yul\":1823:1828   */\n      dup2\n        /* \"#utility.yul\":1820:1832   */\n      lt\n        /* \"#utility.yul\":1810:1850   */\n      tag_405\n      jumpi\n        /* \"#utility.yul\":1846:1847   */\n      0x00\n        /* \"#utility.yul\":1843:1844   */\n      dup1\n        /* \"#utility.yul\":1836:1848   */\n      revert\n        /* \"#utility.yul\":1810:1850   */\n    tag_405:\n        /* \"#utility.yul\":1747:1856   */\n      pop\n      jump\t// out\n        /* \"#utility.yul\":1862:2021   */\n    tag_346:\n        /* \"#utility.yul\":1918:1923   */\n      0x00\n        /* \"#utility.yul\":1956:1962   */\n      dup2\n        /* \"#utility.yul\":1943:1963   */\n      calldataload\n        /* \"#utility.yul\":1934:1963   */\n      swap1\n      pop\n        /* \"#utility.yul\":1972:2015   */\n      tag_407\n        /* \"#utility.yul\":2009:2014   */\n      dup2\n        /* \"#utility.yul\":1972:2015   */\n      tag_345\n      jump\t// in\n    tag_407:\n        /* \"#utility.yul\":1862:2021   */\n      swap3\n      swap2\n      pop\n      pop\n      jump\t// out\n        /* \"#utility.yul\":2027:2376   */\n    tag_53:\n        /* \"#utility.yul\":2096:2102   */\n      0x00\n        /* \"#utility.yul\":2145:2147   */\n      0x20\n        /* \"#utility.yul\":2133:2142   */\n      dup3\n        /* \"#utility.yul\":2124:2131   */\n      dup5\n        /* \"#utility.yul\":2120:2143   */\n      sub\n        /* \"#utility.yul\":2116:2148   */\n      slt\n        /* \"#utility.yul\":2113:2232   */\n      iszero\n      tag_409\n      jumpi\n        /* \"#utility.yul\":2151:2230   */\n      tag_410\n      tag_343\n      jump\t// in\n    tag_410:\n        /* \"#utility.yul\":2113:2232   */\n    tag_409:\n        /* \"#utility.yul\":2271:2272   */\n      0x00\n        /* \"#utility.yul\":2296:2359   */\n      tag_411\n        /* \"#utility.yul\":2351:2358   */\n      dup5\n        /* \"#utility.yul\":2342:2348   */\n      dup3\n        /* \"#utility.yul\":2331:2340   */\n      dup6\n        /* \"#utility.yul\":2327:2349   */\n      add\n        /* \"#utility.yul\":2296:2359   */\n      tag_346\n      jump\t// in\n    tag_411:\n        /* \"#utility.yul\":2286:2359   */\n      swap2\n      pop\n        /* \"#utility.yul\":2242:2369   */\n      pop\n        /* \"#utility.yul\":2027:2376   */\n      swap3\n      swap2\n      pop\n      pop\n      jump\t// out\n        /* \"#utility.yul\":2382:2504   */\n    tag_347:\n        /* \"#utility.yul\":2455:2479   */\n      tag_413\n        /* \"#utility.yul\":2473:2478   */\n      dup2\n        /* \"#utility.yul\":2455:2479   */\n      tag_336\n      jump\t// in\n    tag_413:\n        /* \"#utility.yul\":2448:2453   */\n      dup2\n        /* \"#utility.yul\":2445:2480   */\n      eq\n        /* \"#utility.yul\":2435:2498   */\n      tag_414\n      jumpi\n        /* \"#utility.yul\":2494:2495   */\n      0x00\n        /* \"#utility.yul\":2491:2492   */\n      dup1\n        /* \"#utility.yul\":2484:2496   */\n      revert\n        /* \"#utility.yul\":2435:2498   */\n    tag_414:\n        /* \"#utility.yul\":2382:2504   */\n      pop\n      jump\t// out\n        /* \"#utility.yul\":2510:2649   */\n    tag_348:\n        /* \"#utility.yul\":2556:2561   */\n      0x00\n        /* \"#utility.yul\":2594:2600   */\n      dup2\n        /* \"#utility.yul\":2581:2601   */\n      calldataload\n        /* \"#utility.yul\":2572:2601   */\n      swap1\n      pop\n        /* \"#utility.yul\":2610:2643   */\n      tag_416\n        /* \"#utility.yul\":2637:2642   */\n      dup2\n        /* \"#utility.yul\":2610:2643   */\n      tag_347\n      jump\t// in\n    tag_416:\n        /* \"#utility.yul\":2510:2649   */\n      swap3\n      swap2\n      pop\n      pop\n      jump\t// out\n        /* \"#utility.yul\":2655:2745   */\n    tag_349:\n        /* \"#utility.yul\":2689:2696   */\n      0x00\n        /* \"#utility.yul\":2732:2737   */\n      dup2\n        /* \"#utility.yul\":2725:2738   */\n      iszero\n        /* \"#utility.yul\":2718:2739   */\n      iszero\n        /* \"#utility.yul\":2707:2739   */\n      swap1\n      pop\n        /* \"#utility.yul\":2655:2745   */\n      swap2\n      swap1\n      pop\n      jump\t// out\n        /* \"#utility.yul\":2751:2867   */\n    tag_350:\n        /* \"#utility.yul\":2821:2842   */\n      tag_419\n        /* \"#utility.yul\":2836:2841   */\n      dup2\n        /* \"#utility.yul\":2821:2842   */\n      tag_349\n      jump\t// in\n    tag_419:\n        /* \"#utility.yul\":2814:2819   */\n      dup2\n        /* \"#utility.yul\":2811:2843   */\n      eq\n        /* \"#utility.yul\":2801:2861   */\n      tag_420\n      jumpi\n        /* \"#utility.yul\":2857:2858   */\n      0x00\n        /* \"#utility.yul\":2854:2855   */\n      dup1\n        /* \"#utility.yul\":2847:2859   */\n      revert\n        /* \"#utility.yul\":2801:2861   */\n    tag_420:\n        /* \"#utility.yul\":2751:2867   */\n      pop\n      jump\t// out\n        /* \"#utility.yul\":2873:3006   */\n    tag_351:\n        /* \"#utility.yul\":2916:2921   */\n      0x00\n        /* \"#utility.yul\":2954:2960   */\n      dup2\n        /* \"#utility.yul\":2941:2961   */\n      calldataload\n        /* \"#utility.yul\":2932:2961   */\n      swap1\n      pop\n        /* \"#utility.yul\":2970:3000   */\n      tag_422\n        /* \"#utility.yul\":2994:2999   */\n      dup2\n        /* \"#utility.yul\":2970:3000   */\n      tag_350\n      jump\t// in\n    tag_422:\n        /* \"#utility.yul\":2873:3006   */\n      swap3\n      swap2\n      pop\n      pop\n      jump\t// out\n        /* \"#utility.yul\":3012:3480   */\n    tag_61:\n        /* \"#utility.yul\":3077:3083   */\n      0x00\n        /* \"#utility.yul\":3085:3091   */\n      dup1\n        /* \"#utility.yul\":3134:3136   */\n      0x40\n        /* \"#utility.yul\":3122:3131   */\n      dup4\n        /* \"#utility.yul\":3113:3120   */\n      dup6\n        /* \"#utility.yul\":3109:3132   */\n      sub\n        /* \"#utility.yul\":3105:3137   */\n      slt\n        /* \"#utility.yul\":3102:3221   */\n      iszero\n      tag_424\n      jumpi\n        /* \"#utility.yul\":3140:3219   */\n      tag_425\n      tag_343\n      jump\t// in\n    tag_425:\n        /* \"#utility.yul\":3102:3221   */\n    tag_424:\n        /* \"#utility.yul\":3260:3261   */\n      0x00\n        /* \"#utility.yul\":3285:3338   */\n      tag_426\n        /* \"#utility.yul\":3330:3337   */\n      dup6\n        /* \"#utility.yul\":3321:3327   */\n      dup3\n        /* \"#utility.yul\":3310:3319   */\n      dup7\n        /* \"#utility.yul\":3306:3328   */\n      add\n        /* \"#utility.yul\":3285:3338   */\n      tag_348\n      jump\t// in\n    tag_426:\n        /* \"#utility.yul\":3275:3338   */\n      swap3\n      pop\n        /* \"#utility.yul\":3231:3348   */\n      pop\n        /* \"#utility.yul\":3387:3389   */\n      0x20\n        /* \"#utility.yul\":3413:3463   */\n      tag_427\n        /* \"#utility.yul\":3455:3462   */\n      dup6\n        /* \"#utility.yul\":3446:3452   */\n      dup3\n        /* \"#utility.yul\":3435:3444   */\n      dup7\n        /* \"#utility.yul\":3431:3453   */\n      add\n        /* \"#utility.yul\":3413:3463   */\n      tag_351\n      jump\t// in\n    tag_427:\n        /* \"#utility.yul\":3403:3463   */\n      swap2\n      pop\n        /* \"#utility.yul\":3358:3473   */\n      pop\n        /* \"#utility.yul\":3012:3480   */\n      swap3\n      pop\n      swap3\n      swap1\n      pop\n      jump\t// out\n        /* \"#utility.yul\":3486:3579   */\n    tag_352:\n        /* \"#utility.yul\":3522:3529   */\n      0x00\n        /* \"#utility.yul\":3562:3572   */\n      0xffffffff\n        /* \"#utility.yul\":3555:3560   */\n      dup3\n        /* \"#utility.yul\":3551:3573   */\n      and\n        /* \"#utility.yul\":3540:3573   */\n      swap1\n      pop\n        /* \"#utility.yul\":3486:3579   */\n      swap2\n      swap1\n      pop\n      jump\t// out\n        /* \"#utility.yul\":3585:3700   */\n    tag_353:\n        /* \"#utility.yul\":3670:3693   */\n      tag_430\n        /* \"#utility.yul\":3687:3692   */\n      dup2\n        /* \"#utility.yul\":3670:3693   */\n      tag_352\n      jump\t// in\n    tag_430:\n        /* \"#utility.yul\":3665:3668   */\n      dup3\n        /* \"#utility.yul\":3658:3694   */\n      mstore\n        /* \"#utility.yul\":3585:3700   */\n      pop\n      pop\n      jump\t// out\n        /* \"#utility.yul\":3706:3924   */\n    tag_66:\n        /* \"#utility.yul\":3797:3801   */\n      0x00\n        /* \"#utility.yul\":3835:3837   */\n      0x20\n        /* \"#utility.yul\":3824:3833   */\n      dup3\n        /* \"#utility.yul\":3820:3838   */\n      add\n        /* \"#utility.yul\":3812:3838   */\n      swap1\n      pop\n        /* \"#utility.yul\":3848:3917   */\n      tag_432\n        /* \"#utility.yul\":3914:3915   */\n      0x00\n        /* \"#utility.yul\":3903:3912   */\n      dup4\n        /* \"#utility.yul\":3899:3916   */\n      add\n        /* \"#utility.yul\":3890:3896   */\n      dup5\n        /* \"#utility.yul\":3848:3917   */\n      tag_353\n      jump\t// in\n    tag_432:\n        /* \"#utility.yul\":3706:3924   */\n      swap3\n      swap2\n      pop\n      pop\n      jump\t// out\n        /* \"#utility.yul\":3930:4056   */\n    tag_354:\n        /* \"#utility.yul\":3967:3974   */\n      0x00\n        /* \"#utility.yul\":4007:4049   */\n      0xffffffffffffffffffffffffffffffffffffffff\n        /* \"#utility.yul\":4000:4005   */\n      dup3\n        /* \"#utility.yul\":3996:4050   */\n      and\n        /* \"#utility.yul\":3985:4050   */\n      swap1\n      pop\n        /* \"#utility.yul\":3930:4056   */\n      swap2\n      swap1\n      pop\n      jump\t// out\n        /* \"#utility.yul\":4062:4158   */\n    tag_355:\n        /* \"#utility.yul\":4099:4106   */\n      0x00\n        /* \"#utility.yul\":4128:4152   */\n      tag_435\n        /* \"#utility.yul\":4146:4151   */\n      dup3\n        /* \"#utility.yul\":4128:4152   */\n      tag_354\n      jump\t// in\n    tag_435:\n        /* \"#utility.yul\":4117:4152   */\n      swap1\n      pop\n        /* \"#utility.yul\":4062:4158   */\n      swap2\n      swap1\n      pop\n      jump\t// out\n        /* \"#utility.yul\":4164:4282   */\n    tag_356:\n        /* \"#utility.yul\":4251:4275   */\n      tag_437\n        /* \"#utility.yul\":4269:4274   */\n      dup2\n        /* \"#utility.yul\":4251:4275   */\n      tag_355\n      jump\t// in\n    tag_437:\n        /* \"#utility.yul\":4246:4249   */\n      dup3\n        /* \"#utility.yul\":4239:4276   */\n      mstore\n        /* \"#utility.yul\":4164:4282   */\n      pop\n      pop\n      jump\t// out\n        /* \"#utility.yul\":4288:4510   */\n    tag_79:\n        /* \"#utility.yul\":4381:4385   */\n      0x00\n        /* \"#utility.yul\":4419:4421   */\n      0x20\n        /* \"#utility.yul\":4408:4417   */\n      dup3\n        /* \"#utility.yul\":4404:4422   */\n      add\n        /* \"#utility.yul\":4396:4422   */\n      swap1\n      pop\n        /* \"#utility.yul\":4432:4503   */\n      tag_439\n        /* \"#utility.yul\":4500:4501   */\n      0x00\n        /* \"#utility.yul\":4489:4498   */\n      dup4\n        /* \"#utility.yul\":4485:4502   */\n      add\n        /* \"#utility.yul\":4476:4482   */\n      dup5\n        /* \"#utility.yul\":4432:4503   */\n      tag_356\n      jump\t// in\n    tag_439:\n        /* \"#utility.yul\":4288:4510   */\n      swap3\n      swap2\n      pop\n      pop\n      jump\t// out\n        /* \"#utility.yul\":4516:4625   */\n    tag_357:\n        /* \"#utility.yul\":4597:4618   */\n      tag_441\n        /* \"#utility.yul\":4612:4617   */\n      dup2\n        /* \"#utility.yul\":4597:4618   */\n      tag_349\n      jump\t// in\n    tag_441:\n        /* \"#utility.yul\":4592:4595   */\n      dup3\n        /* \"#utility.yul\":4585:4619   */\n      mstore\n        /* \"#utility.yul\":4516:4625   */\n      pop\n      pop\n      jump\t// out\n        /* \"#utility.yul\":4631:4841   */\n    tag_85:\n        /* \"#utility.yul\":4718:4722   */\n      0x00\n        /* \"#utility.yul\":4756:4758   */\n      0x20\n        /* \"#utility.yul\":4745:4754   */\n      dup3\n        /* \"#utility.yul\":4741:4759   */\n      add\n        /* \"#utility.yul\":4733:4759   */\n      swap1\n      pop\n        /* \"#utility.yul\":4769:4834   */\n      tag_443\n        /* \"#utility.yul\":4831:4832   */\n      0x00\n        /* \"#utility.yul\":4820:4829   */\n      dup4\n        /* \"#utility.yul\":4816:4833   */\n      add\n        /* \"#utility.yul\":4807:4813   */\n      dup5\n        /* \"#utility.yul\":4769:4834   */\n      tag_357\n      jump\t// in\n    tag_443:\n        /* \"#utility.yul\":4631:4841   */\n      swap3\n      swap2\n      pop\n      pop\n      jump\t// out\n        /* \"#utility.yul\":4847:4969   */\n    tag_358:\n        /* \"#utility.yul\":4920:4944   */\n      tag_445\n        /* \"#utility.yul\":4938:4943   */\n      dup2\n        /* \"#utility.yul\":4920:4944   */\n      tag_355\n      jump\t// in\n    tag_445:\n        /* \"#utility.yul\":4913:4918   */\n      dup2\n        /* \"#utility.yul\":4910:4945   */\n      eq\n        /* \"#utility.yul\":4900:4963   */\n      tag_446\n      jumpi\n        /* \"#utility.yul\":4959:4960   */\n      0x00\n        /* \"#utility.yul\":4956:4957   */\n      dup1\n        /* \"#utility.yul\":4949:4961   */\n      revert\n        /* \"#utility.yul\":4900:4963   */\n    tag_446:\n        /* \"#utility.yul\":4847:4969   */\n      pop\n      jump\t// out\n        /* \"#utility.yul\":4975:5114   */\n    tag_359:\n        /* \"#utility.yul\":5021:5026   */\n      0x00\n        /* \"#utility.yul\":5059:5065   */\n      dup2\n        /* \"#utility.yul\":5046:5066   */\n      calldataload\n        /* \"#utility.yul\":5037:5066   */\n      swap1\n      pop\n        /* \"#utility.yul\":5075:5108   */\n      tag_448\n        /* \"#utility.yul\":5102:5107   */\n      dup2\n        /* \"#utility.yul\":5075:5108   */\n      tag_358\n      jump\t// in\n    tag_448:\n        /* \"#utility.yul\":4975:5114   */\n      swap3\n      swap2\n      pop\n      pop\n      jump\t// out\n        /* \"#utility.yul\":5120:5449   */\n    tag_100:\n        /* \"#utility.yul\":5179:5185   */\n      0x00\n        /* \"#utility.yul\":5228:5230   */\n      0x20\n        /* \"#utility.yul\":5216:5225   */\n      dup3\n        /* \"#utility.yul\":5207:5214   */\n      dup5\n        /* \"#utility.yul\":5203:5226   */\n      sub\n        /* \"#utility.yul\":5199:5231   */\n      slt\n        /* \"#utility.yul\":5196:5315   */\n      iszero\n      tag_450\n      jumpi\n        /* \"#utility.yul\":5234:5313   */\n      tag_451\n      tag_343\n      jump\t// in\n    tag_451:\n        /* \"#utility.yul\":5196:5315   */\n    tag_450:\n        /* \"#utility.yul\":5354:5355   */\n      0x00\n        /* \"#utility.yul\":5379:5432   */\n      tag_452\n        /* \"#utility.yul\":5424:5431   */\n      dup5\n        /* \"#utility.yul\":5415:5421   */\n      dup3\n        /* \"#utility.yul\":5404:5413   */\n      dup6\n        /* \"#utility.yul\":5400:5422   */\n      add\n        /* \"#utility.yul\":5379:5432   */\n      tag_359\n      jump\t// in\n    tag_452:\n        /* \"#utility.yul\":5369:5432   */\n      swap2\n      pop\n        /* \"#utility.yul\":5325:5442   */\n      pop\n        /* \"#utility.yul\":5120:5449   */\n      swap3\n      swap2\n      pop\n      pop\n      jump\t// out\n        /* \"#utility.yul\":5455:5923   */\n    tag_108:\n        /* \"#utility.yul\":5520:5526   */\n      0x00\n        /* \"#utility.yul\":5528:5534   */\n      dup1\n        /* \"#utility.yul\":5577:5579   */\n      0x40\n        /* \"#utility.yul\":5565:5574   */\n      dup4\n        /* \"#utility.yul\":5556:5563   */\n      dup6\n        /* \"#utility.yul\":5552:5575   */\n      sub\n        /* \"#utility.yul\":5548:5580   */\n      slt\n        /* \"#utility.yul\":5545:5664   */\n      iszero\n      tag_454\n      jumpi\n        /* \"#utility.yul\":5583:5662   */\n      tag_455\n      tag_343\n      jump\t// in\n    tag_455:\n        /* \"#utility.yul\":5545:5664   */\n    tag_454:\n        /* \"#utility.yul\":5703:5704   */\n      0x00\n        /* \"#utility.yul\":5728:5781   */\n      tag_456\n        /* \"#utility.yul\":5773:5780   */\n      dup6\n        /* \"#utility.yul\":5764:5770   */\n      dup3\n        /* \"#utility.yul\":5753:5762   */\n      dup7\n        /* \"#utility.yul\":5749:5771   */\n      add\n        /* \"#utility.yul\":5728:5781   */\n      tag_359\n      jump\t// in\n    tag_456:\n        /* \"#utility.yul\":5718:5781   */\n      swap3\n      pop\n        /* \"#utility.yul\":5674:5791   */\n      pop\n        /* \"#utility.yul\":5830:5832   */\n      0x20\n        /* \"#utility.yul\":5856:5906   */\n      tag_457\n        /* \"#utility.yul\":5898:5905   */\n      dup6\n        /* \"#utility.yul\":5889:5895   */\n      dup3\n        /* \"#utility.yul\":5878:5887   */\n      dup7\n        /* \"#utility.yul\":5874:5896   */\n      add\n        /* \"#utility.yul\":5856:5906   */\n      tag_351\n      jump\t// in\n    tag_457:\n        /* \"#utility.yul\":5846:5906   */\n      swap2\n      pop\n        /* \"#utility.yul\":5801:5916   */\n      pop\n        /* \"#utility.yul\":5455:5923   */\n      swap3\n      pop\n      swap3\n      swap1\n      pop\n      jump\t// out\n        /* \"#utility.yul\":5929:6033   */\n    tag_360:\n        /* \"#utility.yul\":5994:6000   */\n      0x00\n        /* \"#utility.yul\":6022:6026   */\n      0x05\n        /* \"#utility.yul\":6012:6026   */\n      swap1\n      pop\n        /* \"#utility.yul\":5929:6033   */\n      swap2\n      swap1\n      pop\n      jump\t// out\n        /* \"#utility.yul\":6039:6182   */\n    tag_361:\n        /* \"#utility.yul\":6136:6147   */\n      0x00\n        /* \"#utility.yul\":6173:6176   */\n      dup2\n        /* \"#utility.yul\":6158:6176   */\n      swap1\n      pop\n        /* \"#utility.yul\":6039:6182   */\n      swap3\n      swap2\n      pop\n      pop\n      jump\t// out\n        /* \"#utility.yul\":6188:6286   */\n    tag_362:\n        /* \"#utility.yul\":6253:6257   */\n      0x00\n        /* \"#utility.yul\":6276:6279   */\n      dup2\n        /* \"#utility.yul\":6268:6279   */\n      swap1\n      pop\n        /* \"#utility.yul\":6188:6286   */\n      swap2\n      swap1\n      pop\n      jump\t// out\n        /* \"#utility.yul\":6292:6400   */\n    tag_363:\n        /* \"#utility.yul\":6369:6393   */\n      tag_462\n        /* \"#utility.yul\":6387:6392   */\n      dup2\n        /* \"#utility.yul\":6369:6393   */\n      tag_336\n      jump\t// in\n    tag_462:\n        /* \"#utility.yul\":6364:6367   */\n      dup3\n        /* \"#utility.yul\":6357:6394   */\n      mstore\n        /* \"#utility.yul\":6292:6400   */\n      pop\n      pop\n      jump\t// out\n        /* \"#utility.yul\":6406:6585   */\n    tag_364:\n        /* \"#utility.yul\":6475:6485   */\n      0x00\n        /* \"#utility.yul\":6496:6542   */\n      tag_464\n        /* \"#utility.yul\":6538:6541   */\n      dup4\n        /* \"#utility.yul\":6530:6536   */\n      dup4\n        /* \"#utility.yul\":6496:6542   */\n      tag_363\n      jump\t// in\n    tag_464:\n        /* \"#utility.yul\":6574:6578   */\n      0x20\n        /* \"#utility.yul\":6569:6572   */\n      dup4\n        /* \"#utility.yul\":6565:6579   */\n      add\n        /* \"#utility.yul\":6551:6579   */\n      swap1\n      pop\n        /* \"#utility.yul\":6406:6585   */\n      swap3\n      swap2\n      pop\n      pop\n      jump\t// out\n        /* \"#utility.yul\":6591:6702   */\n    tag_365:\n        /* \"#utility.yul\":6659:6663   */\n      0x00\n        /* \"#utility.yul\":6691:6695   */\n      0x20\n        /* \"#utility.yul\":6686:6689   */\n      dup3\n        /* \"#utility.yul\":6682:6696   */\n      add\n        /* \"#utility.yul\":6674:6696   */\n      swap1\n      pop\n        /* \"#utility.yul\":6591:6702   */\n      swap2\n      swap1\n      pop\n      jump\t// out\n        /* \"#utility.yul\":6740:7434   */\n    tag_366:\n        /* \"#utility.yul\":6876:6928   */\n      tag_467\n        /* \"#utility.yul\":6922:6927   */\n      dup2\n        /* \"#utility.yul\":6876:6928   */\n      tag_360\n      jump\t// in\n    tag_467:\n        /* \"#utility.yul\":6944:7028   */\n      tag_468\n        /* \"#utility.yul\":7021:7027   */\n      dup2\n        /* \"#utility.yul\":7016:7019   */\n      dup5\n        /* \"#utility.yul\":6944:7028   */\n      tag_361\n      jump\t// in\n    tag_468:\n        /* \"#utility.yul\":6937:7028   */\n      swap3\n      pop\n        /* \"#utility.yul\":7052:7106   */\n      tag_469\n        /* \"#utility.yul\":7100:7105   */\n      dup3\n        /* \"#utility.yul\":7052:7106   */\n      tag_362\n      jump\t// in\n    tag_469:\n        /* \"#utility.yul\":7129:7136   */\n      dup1\n        /* \"#utility.yul\":7160:7161   */\n      0x00\n        /* \"#utility.yul\":7145:7427   */\n    tag_470:\n        /* \"#utility.yul\":7170:7176   */\n      dup4\n        /* \"#utility.yul\":7167:7168   */\n      dup2\n        /* \"#utility.yul\":7164:7177   */\n      lt\n        /* \"#utility.yul\":7145:7427   */\n      iszero\n      tag_472\n      jumpi\n        /* \"#utility.yul\":7246:7252   */\n      dup2\n        /* \"#utility.yul\":7240:7253   */\n      mload\n        /* \"#utility.yul\":7273:7336   */\n      tag_473\n        /* \"#utility.yul\":7332:7335   */\n      dup8\n        /* \"#utility.yul\":7317:7330   */\n      dup3\n        /* \"#utility.yul\":7273:7336   */\n      tag_364\n      jump\t// in\n    tag_473:\n        /* \"#utility.yul\":7266:7336   */\n      swap7\n      pop\n        /* \"#utility.yul\":7359:7417   */\n      tag_474\n        /* \"#utility.yul\":7410:7416   */\n      dup4\n        /* \"#utility.yul\":7359:7417   */\n      tag_365\n      jump\t// in\n    tag_474:\n        /* \"#utility.yul\":7349:7417   */\n      swap3\n      pop\n        /* \"#utility.yul\":7205:7427   */\n      pop\n        /* \"#utility.yul\":7192:7193   */\n      0x01\n        /* \"#utility.yul\":7189:7190   */\n      dup2\n        /* \"#utility.yul\":7185:7194   */\n      add\n        /* \"#utility.yul\":7180:7194   */\n      swap1\n      pop\n        /* \"#utility.yul\":7145:7427   */\n      jump(tag_470)\n    tag_472:\n        /* \"#utility.yul\":7149:7163   */\n      pop\n        /* \"#utility.yul\":6852:7434   */\n      pop\n      pop\n      pop\n        /* \"#utility.yul\":6740:7434   */\n      pop\n      pop\n      jump\t// out\n        /* \"#utility.yul\":7440:7755   */\n    tag_113:\n        /* \"#utility.yul\":7579:7583   */\n      0x00\n        /* \"#utility.yul\":7617:7620   */\n      0xa0\n        /* \"#utility.yul\":7606:7615   */\n      dup3\n        /* \"#utility.yul\":7602:7621   */\n      add\n        /* \"#utility.yul\":7594:7621   */\n      swap1\n      pop\n        /* \"#utility.yul\":7631:7748   */\n      tag_476\n        /* \"#utility.yul\":7745:7746   */\n      0x00\n        /* \"#utility.yul\":7734:7743   */\n      dup4\n        /* \"#utility.yul\":7730:7747   */\n      add\n        /* \"#utility.yul\":7721:7727   */\n      dup5\n        /* \"#utility.yul\":7631:7748   */\n      tag_366\n      jump\t// in\n    tag_476:\n        /* \"#utility.yul\":7440:7755   */\n      swap3\n      swap2\n      pop\n      pop\n      jump\t// out\n        /* \"#utility.yul\":7761:8090   */\n    tag_116:\n        /* \"#utility.yul\":7820:7826   */\n      0x00\n        /* \"#utility.yul\":7869:7871   */\n      0x20\n        /* \"#utility.yul\":7857:7866   */\n      dup3\n        /* \"#utility.yul\":7848:7855   */\n      dup5\n        /* \"#utility.yul\":7844:7867   */\n      sub\n        /* \"#utility.yul\":7840:7872   */\n      slt\n        /* \"#utility.yul\":7837:7956   */\n      iszero\n      tag_478\n      jumpi\n        /* \"#utility.yul\":7875:7954   */\n      tag_479\n      tag_343\n      jump\t// in\n    tag_479:\n        /* \"#utility.yul\":7837:7956   */\n    tag_478:\n        /* \"#utility.yul\":7995:7996   */\n      0x00\n        /* \"#utility.yul\":8020:8073   */\n      tag_480\n        /* \"#utility.yul\":8065:8072   */\n      dup5\n        /* \"#utility.yul\":8056:8062   */\n      dup3\n        /* \"#utility.yul\":8045:8054   */\n      dup6\n        /* \"#utility.yul\":8041:8063   */\n      add\n        /* \"#utility.yul\":8020:8073   */\n      tag_348\n      jump\t// in\n    tag_480:\n        /* \"#utility.yul\":8010:8073   */\n      swap2\n      pop\n        /* \"#utility.yul\":7966:8083   */\n      pop\n        /* \"#utility.yul\":7761:8090   */\n      swap3\n      swap2\n      pop\n      pop\n      jump\t// out\n        /* \"#utility.yul\":8096:8216   */\n    tag_367:\n        /* \"#utility.yul\":8168:8191   */\n      tag_482\n        /* \"#utility.yul\":8185:8190   */\n      dup2\n        /* \"#utility.yul\":8168:8191   */\n      tag_352\n      jump\t// in\n    tag_482:\n        /* \"#utility.yul\":8161:8166   */\n      dup2\n        /* \"#utility.yul\":8158:8192   */\n      eq\n        /* \"#utility.yul\":8148:8210   */\n      tag_483\n      jumpi\n        /* \"#utility.yul\":8206:8207   */\n      0x00\n        /* \"#utility.yul\":8203:8204   */\n      dup1\n        /* \"#utility.yul\":8196:8208   */\n      revert\n        /* \"#utility.yul\":8148:8210   */\n    tag_483:\n        /* \"#utility.yul\":8096:8216   */\n      pop\n      jump\t// out\n        /* \"#utility.yul\":8222:8359   */\n    tag_368:\n        /* \"#utility.yul\":8267:8272   */\n      0x00\n        /* \"#utility.yul\":8305:8311   */\n      dup2\n        /* \"#utility.yul\":8292:8312   */\n      calldataload\n        /* \"#utility.yul\":8283:8312   */\n      swap1\n      pop\n        /* \"#utility.yul\":8321:8353   */\n      tag_485\n        /* \"#utility.yul\":8347:8352   */\n      dup2\n        /* \"#utility.yul\":8321:8353   */\n      tag_367\n      jump\t// in\n    tag_485:\n        /* \"#utility.yul\":8222:8359   */\n      swap3\n      swap2\n      pop\n      pop\n      jump\t// out\n        /* \"#utility.yul\":8365:8692   */\n    tag_121:\n        /* \"#utility.yul\":8423:8429   */\n      0x00\n        /* \"#utility.yul\":8472:8474   */\n      0x20\n        /* \"#utility.yul\":8460:8469   */\n      dup3\n        /* \"#utility.yul\":8451:8458   */\n      dup5\n        /* \"#utility.yul\":8447:8470   */\n      sub\n        /* \"#utility.yul\":8443:8475   */\n      slt\n        /* \"#utility.yul\":8440:8559   */\n      iszero\n      tag_487\n      jumpi\n        /* \"#utility.yul\":8478:8557   */\n      tag_488\n      tag_343\n      jump\t// in\n    tag_488:\n        /* \"#utility.yul\":8440:8559   */\n    tag_487:\n        /* \"#utility.yul\":8598:8599   */\n      0x00\n        /* \"#utility.yul\":8623:8675   */\n      tag_489\n        /* \"#utility.yul\":8667:8674   */\n      dup5\n        /* \"#utility.yul\":8658:8664   */\n      dup3\n        /* \"#utility.yul\":8647:8656   */\n      dup6\n        /* \"#utility.yul\":8643:8665   */\n      add\n        /* \"#utility.yul\":8623:8675   */\n      tag_368\n      jump\t// in\n    tag_489:\n        /* \"#utility.yul\":8613:8675   */\n      swap2\n      pop\n        /* \"#utility.yul\":8569:8685   */\n      pop\n        /* \"#utility.yul\":8365:8692   */\n      swap3\n      swap2\n      pop\n      pop\n      jump\t// out\n        /* \"#utility.yul\":8698:8878   */\n    tag_369:\n        /* \"#utility.yul\":8746:8823   */\n      0x4e487b7100000000000000000000000000000000000000000000000000000000\n        /* \"#utility.yul\":8743:8744   */\n      0x00\n        /* \"#utility.yul\":8736:8824   */\n      mstore\n        /* \"#utility.yul\":8843:8847   */\n      0x11\n        /* \"#utility.yul\":8840:8841   */\n      0x04\n        /* \"#utility.yul\":8833:8848   */\n      mstore\n        /* \"#utility.yul\":8867:8871   */\n      0x24\n        /* \"#utility.yul\":8864:8865   */\n      0x00\n        /* \"#utility.yul\":8857:8872   */\n      revert\n        /* \"#utility.yul\":8884:9189   */\n    tag_166:\n        /* \"#utility.yul\":8924:8927   */\n      0x00\n        /* \"#utility.yul\":8943:8963   */\n      tag_492\n        /* \"#utility.yul\":8961:8962   */\n      dup3\n        /* \"#utility.yul\":8943:8963   */\n      tag_336\n      jump\t// in\n    tag_492:\n        /* \"#utility.yul\":8938:8963   */\n      swap2\n      pop\n        /* \"#utility.yul\":8977:8997   */\n      tag_493\n        /* \"#utility.yul\":8995:8996   */\n      dup4\n        /* \"#utility.yul\":8977:8997   */\n      tag_336\n      jump\t// in\n    tag_493:\n        /* \"#utility.yul\":8972:8997   */\n      swap3\n      pop\n        /* \"#utility.yul\":9131:9132   */\n      dup3\n        /* \"#utility.yul\":9063:9129   */\n      0xffffffffffffffffffffffffffffffffffffffffffffffffffffffffffffffff\n        /* \"#utility.yul\":9059:9133   */\n      sub\n        /* \"#utility.yul\":9056:9057   */\n      dup3\n        /* \"#utility.yul\":9053:9134   */\n      gt\n        /* \"#utility.yul\":9050:9157   */\n      iszero\n      tag_494\n      jumpi\n        /* \"#utility.yul\":9137:9155   */\n      tag_495\n      tag_369\n      jump\t// in\n    tag_495:\n        /* \"#utility.yul\":9050:9157   */\n    tag_494:\n        /* \"#utility.yul\":9181:9182   */\n      dup3\n        /* \"#utility.yul\":9178:9179   */\n      dup3\n        /* \"#utility.yul\":9174:9183   */\n      add\n        /* \"#utility.yul\":9167:9183   */\n      swap1\n      pop\n        /* \"#utility.yul\":8884:9189   */\n      swap3\n      swap2\n      pop\n      pop\n      jump\t// out\n        /* \"#utility.yul\":9195:9364   */\n    tag_370:\n        /* \"#utility.yul\":9279:9290   */\n      0x00\n        /* \"#utility.yul\":9313:9319   */\n      dup3\n        /* \"#utility.yul\":9308:9311   */\n      dup3\n        /* \"#utility.yul\":9301:9320   */\n      mstore\n        /* \"#utility.yul\":9353:9357   */\n      0x20\n        /* \"#utility.yul\":9348:9351   */\n      dup3\n        /* \"#utility.yul\":9344:9358   */\n      add\n        /* \"#utility.yul\":9329:9358   */\n      swap1\n      pop\n        /* \"#utility.yul\":9195:9364   */\n      swap3\n      swap2\n      pop\n      pop\n      jump\t// out\n        /* \"#utility.yul\":9370:9596   */\n    tag_371:\n        /* \"#utility.yul\":9510:9544   */\n      0x54686520737461747573206f6620746865204344532073686f756c6420626520\n        /* \"#utility.yul\":9506:9507   */\n      0x00\n        /* \"#utility.yul\":9498:9504   */\n      dup3\n        /* \"#utility.yul\":9494:9508   */\n      add\n        /* \"#utility.yul\":9487:9545   */\n      mstore\n        /* \"#utility.yul\":9579:9588   */\n      0x70656e64696e6700000000000000000000000000000000000000000000000000\n        /* \"#utility.yul\":9574:9576   */\n      0x20\n        /* \"#utility.yul\":9566:9572   */\n      dup3\n        /* \"#utility.yul\":9562:9577   */\n      add\n        /* \"#utility.yul\":9555:9589   */\n      mstore\n        /* \"#utility.yul\":9370:9596   */\n      pop\n      jump\t// out\n        /* \"#utility.yul\":9602:9968   */\n    tag_372:\n        /* \"#utility.yul\":9744:9747   */\n      0x00\n        /* \"#utility.yul\":9765:9832   */\n      tag_499\n        /* \"#utility.yul\":9829:9831   */\n      0x27\n        /* \"#utility.yul\":9824:9827   */\n      dup4\n        /* \"#utility.yul\":9765:9832   */\n      tag_370\n      jump\t// in\n    tag_499:\n        /* \"#utility.yul\":9758:9832   */\n      swap2\n      pop\n        /* \"#utility.yul\":9841:9934   */\n      tag_500\n        /* \"#utility.yul\":9930:9933   */\n      dup3\n        /* \"#utility.yul\":9841:9934   */\n      tag_371\n      jump\t// in\n    tag_500:\n        /* \"#utility.yul\":9959:9961   */\n      0x40\n        /* \"#utility.yul\":9954:9957   */\n      dup3\n        /* \"#utility.yul\":9950:9962   */\n      add\n        /* \"#utility.yul\":9943:9962   */\n      swap1\n      pop\n        /* \"#utility.yul\":9602:9968   */\n      swap2\n      swap1\n      pop\n      jump\t// out\n        /* \"#utility.yul\":9974:10393   */\n    tag_176:\n        /* \"#utility.yul\":10140:10144   */\n      0x00\n        /* \"#utility.yul\":10178:10180   */\n      0x20\n        /* \"#utility.yul\":10167:10176   */\n      dup3\n        /* \"#utility.yul\":10163:10181   */\n      add\n        /* \"#utility.yul\":10155:10181   */\n      swap1\n      pop\n        /* \"#utility.yul\":10227:10236   */\n      dup2\n        /* \"#utility.yul\":10221:10225   */\n      dup2\n        /* \"#utility.yul\":10217:10237   */\n      sub\n        /* \"#utility.yul\":10213:10214   */\n      0x00\n        /* \"#utility.yul\":10202:10211   */\n      dup4\n        /* \"#utility.yul\":10198:10215   */\n      add\n        /* \"#utility.yul\":10191:10238   */\n      mstore\n        /* \"#utility.yul\":10255:10386   */\n      tag_502\n        /* \"#utility.yul\":10381:10385   */\n      dup2\n        /* \"#utility.yul\":10255:10386   */\n      tag_372\n      jump\t// in\n    tag_502:\n        /* \"#utility.yul\":10247:10386   */\n      swap1\n      pop\n        /* \"#utility.yul\":9974:10393   */\n      swap2\n      swap1\n      pop\n      jump\t// out\n        /* \"#utility.yul\":10399:10624   */\n    tag_373:\n        /* \"#utility.yul\":10539:10573   */\n      0x54686520737461747573206f6620746865204344532073686f756c6420626520\n        /* \"#utility.yul\":10535:10536   */\n      0x00\n        /* \"#utility.yul\":10527:10533   */\n      dup3\n        /* \"#utility.yul\":10523:10537   */\n      add\n        /* \"#utility.yul\":10516:10574   */\n      mstore\n        /* \"#utility.yul\":10608:10616   */\n      0x6163746976650000000000000000000000000000000000000000000000000000\n        /* \"#utility.yul\":10603:10605   */\n      0x20\n        /* \"#utility.yul\":10595:10601   */\n      dup3\n        /* \"#utility.yul\":10591:10606   */\n      add\n        /* \"#utility.yul\":10584:10617   */\n      mstore\n        /* \"#utility.yul\":10399:10624   */\n      pop\n      jump\t// out\n        /* \"#utility.yul\":10630:10996   */\n    tag_374:\n        /* \"#utility.yul\":10772:10775   */\n      0x00\n        /* \"#utility.yul\":10793:10860   */\n      tag_505\n        /* \"#utility.yul\":10857:10859   */\n      0x26\n        /* \"#utility.yul\":10852:10855   */\n      dup4\n        /* \"#utility.yul\":10793:10860   */\n      tag_370\n      jump\t// in\n    tag_505:\n        /* \"#utility.yul\":10786:10860   */\n      swap2\n      pop\n        /* \"#utility.yul\":10869:10962   */\n      tag_506\n        /* \"#utility.yul\":10958:10961   */\n      dup3\n        /* \"#utility.yul\":10869:10962   */\n      tag_373\n      jump\t// in\n    tag_506:\n        /* \"#utility.yul\":10987:10989   */\n      0x40\n        /* \"#utility.yul\":10982:10985   */\n      dup3\n        /* \"#utility.yul\":10978:10990   */\n      add\n        /* \"#utility.yul\":10971:10990   */\n      swap1\n      pop\n        /* \"#utility.yul\":10630:10996   */\n      swap2\n      swap1\n      pop\n      jump\t// out\n        /* \"#utility.yul\":11002:11421   */\n    tag_189:\n        /* \"#utility.yul\":11168:11172   */\n      0x00\n        /* \"#utility.yul\":11206:11208   */\n      0x20\n        /* \"#utility.yul\":11195:11204   */\n      dup3\n        /* \"#utility.yul\":11191:11209   */\n      add\n        /* \"#utility.yul\":11183:11209   */\n      swap1\n      pop\n        /* \"#utility.yul\":11255:11264   */\n      dup2\n        /* \"#utility.yul\":11249:11253   */\n      dup2\n        /* \"#utility.yul\":11245:11265   */\n      sub\n        /* \"#utility.yul\":11241:11242   */\n      0x00\n        /* \"#utility.yul\":11230:11239   */\n      dup4\n        /* \"#utility.yul\":11226:11243   */\n      add\n        /* \"#utility.yul\":11219:11266   */\n      mstore\n        /* \"#utility.yul\":11283:11414   */\n      tag_508\n        /* \"#utility.yul\":11409:11413   */\n      dup2\n        /* \"#utility.yul\":11283:11414   */\n      tag_374\n      jump\t// in\n    tag_508:\n        /* \"#utility.yul\":11275:11414   */\n      swap1\n      pop\n        /* \"#utility.yul\":11002:11421   */\n      swap2\n      swap1\n      pop\n      jump\t// out\n        /* \"#utility.yul\":11427:11596   */\n    tag_375:\n        /* \"#utility.yul\":11567:11588   */\n      0x526f756e6420616c726561647920656e64656400000000000000000000000000\n        /* \"#utility.yul\":11563:11564   */\n      0x00\n        /* \"#utility.yul\":11555:11561   */\n      dup3\n        /* \"#utility.yul\":11551:11565   */\n      add\n        /* \"#utility.yul\":11544:11589   */\n      mstore\n        /* \"#utility.yul\":11427:11596   */\n      pop\n      jump\t// out\n        /* \"#utility.yul\":11602:11968   */\n    tag_376:\n        /* \"#utility.yul\":11744:11747   */\n      0x00\n        /* \"#utility.yul\":11765:11832   */\n      tag_511\n        /* \"#utility.yul\":11829:11831   */\n      0x13\n        /* \"#utility.yul\":11824:11827   */\n      dup4\n        /* \"#utility.yul\":11765:11832   */\n      tag_370\n      jump\t// in\n    tag_511:\n        /* \"#utility.yul\":11758:11832   */\n      swap2\n      pop\n        /* \"#utility.yul\":11841:11934   */\n      tag_512\n        /* \"#utility.yul\":11930:11933   */\n      dup3\n        /* \"#utility.yul\":11841:11934   */\n      tag_375\n      jump\t// in\n    tag_512:\n        /* \"#utility.yul\":11959:11961   */\n      0x20\n        /* \"#utility.yul\":11954:11957   */\n      dup3\n        /* \"#utility.yul\":11950:11962   */\n      add\n        /* \"#utility.yul\":11943:11962   */\n      swap1\n      pop\n        /* \"#utility.yul\":11602:11968   */\n      swap2\n      swap1\n      pop\n      jump\t// out\n        /* \"#utility.yul\":11974:12393   */\n    tag_213:\n        /* \"#utility.yul\":12140:12144   */\n      0x00\n        /* \"#utility.yul\":12178:12180   */\n      0x20\n        /* \"#utility.yul\":12167:12176   */\n      dup3\n        /* \"#utility.yul\":12163:12181   */\n      add\n        /* \"#utility.yul\":12155:12181   */\n      swap1\n      pop\n        /* \"#utility.yul\":12227:12236   */\n      dup2\n        /* \"#utility.yul\":12221:12225   */\n      dup2\n        /* \"#utility.yul\":12217:12237   */\n      sub\n        /* \"#utility.yul\":12213:12214   */\n      0x00\n        /* \"#utility.yul\":12202:12211   */\n      dup4\n        /* \"#utility.yul\":12198:12215   */\n      add\n        /* \"#utility.yul\":12191:12238   */\n      mstore\n        /* \"#utility.yul\":12255:12386   */\n      tag_514\n        /* \"#utility.yul\":12381:12385   */\n      dup2\n        /* \"#utility.yul\":12255:12386   */\n      tag_376\n      jump\t// in\n    tag_514:\n        /* \"#utility.yul\":12247:12386   */\n      swap1\n      pop\n        /* \"#utility.yul\":11974:12393   */\n      swap2\n      swap1\n      pop\n      jump\t// out\n        /* \"#utility.yul\":12399:12587   */\n    tag_217:\n        /* \"#utility.yul\":12438:12442   */\n      0x00\n        /* \"#utility.yul\":12458:12477   */\n      tag_516\n        /* \"#utility.yul\":12475:12476   */\n      dup3\n        /* \"#utility.yul\":12458:12477   */\n      tag_352\n      jump\t// in\n    tag_516:\n        /* \"#utility.yul\":12453:12477   */\n      swap2\n      pop\n        /* \"#utility.yul\":12491:12510   */\n      tag_517\n        /* \"#utility.yul\":12508:12509   */\n      dup4\n        /* \"#utility.yul\":12491:12510   */\n      tag_352\n      jump\t// in\n    tag_517:\n        /* \"#utility.yul\":12486:12510   */\n      swap3\n      pop\n        /* \"#utility.yul\":12529:12530   */\n      dup3\n        /* \"#utility.yul\":12526:12527   */\n      dup3\n        /* \"#utility.yul\":12523:12531   */\n      lt\n        /* \"#utility.yul\":12520:12554   */\n      iszero\n      tag_518\n      jumpi\n        /* \"#utility.yul\":12534:12552   */\n      tag_519\n      tag_369\n      jump\t// in\n    tag_519:\n        /* \"#utility.yul\":12520:12554   */\n    tag_518:\n        /* \"#utility.yul\":12579:12580   */\n      dup3\n        /* \"#utility.yul\":12576:12577   */\n      dup3\n        /* \"#utility.yul\":12572:12581   */\n      sub\n        /* \"#utility.yul\":12564:12581   */\n      swap1\n      pop\n        /* \"#utility.yul\":12399:12587   */\n      swap3\n      swap2\n      pop\n      pop\n      jump\t// out\n        /* \"#utility.yul\":12593:12736   */\n    tag_377:\n        /* \"#utility.yul\":12650:12655   */\n      0x00\n        /* \"#utility.yul\":12681:12687   */\n      dup2\n        /* \"#utility.yul\":12675:12688   */\n      mload\n        /* \"#utility.yul\":12666:12688   */\n      swap1\n      pop\n        /* \"#utility.yul\":12697:12730   */\n      tag_521\n        /* \"#utility.yul\":12724:12729   */\n      dup2\n        /* \"#utility.yul\":12697:12730   */\n      tag_347\n      jump\t// in\n    tag_521:\n        /* \"#utility.yul\":12593:12736   */\n      swap3\n      swap2\n      pop\n      pop\n      jump\t// out\n        /* \"#utility.yul\":12742:13093   */\n    tag_253:\n        /* \"#utility.yul\":12812:12818   */\n      0x00\n        /* \"#utility.yul\":12861:12863   */\n      0x20\n        /* \"#utility.yul\":12849:12858   */\n      dup3\n        /* \"#utility.yul\":12840:12847   */\n      dup5\n        /* \"#utility.yul\":12836:12859   */\n      sub\n        /* \"#utility.yul\":12832:12864   */\n      slt\n        /* \"#utility.yul\":12829:12948   */\n      iszero\n      tag_523\n      jumpi\n        /* \"#utility.yul\":12867:12946   */\n      tag_524\n      tag_343\n      jump\t// in\n    tag_524:\n        /* \"#utility.yul\":12829:12948   */\n    tag_523:\n        /* \"#utility.yul\":12987:12988   */\n      0x00\n        /* \"#utility.yul\":13012:13076   */\n      tag_525\n        /* \"#utility.yul\":13068:13075   */\n      dup5\n        /* \"#utility.yul\":13059:13065   */\n      dup3\n        /* \"#utility.yul\":13048:13057   */\n      dup6\n        /* \"#utility.yul\":13044:13066   */\n      add\n        /* \"#utility.yul\":13012:13076   */\n      tag_377\n      jump\t// in\n    tag_525:\n        /* \"#utility.yul\":13002:13076   */\n      swap2\n      pop\n        /* \"#utility.yul\":12958:13086   */\n      pop\n        /* \"#utility.yul\":12742:13093   */\n      swap3\n      swap2\n      pop\n      pop\n      jump\t// out\n        /* \"#utility.yul\":13099:13324   */\n    tag_378:\n        /* \"#utility.yul\":13239:13273   */\n      0x4f776e61626c653a206e6577206f776e657220697320746865207a65726f2061\n        /* \"#utility.yul\":13235:13236   */\n      0x00\n        /* \"#utility.yul\":13227:13233   */\n      dup3\n        /* \"#utility.yul\":13223:13237   */\n      add\n        /* \"#utility.yul\":13216:13274   */\n      mstore\n        /* \"#utility.yul\":13308:13316   */\n      0x6464726573730000000000000000000000000000000000000000000000000000\n        /* \"#utility.yul\":13303:13305   */\n      0x20\n        /* \"#utility.yul\":13295:13301   */\n      dup3\n        /* \"#utility.yul\":13291:13306   */\n      add\n        /* \"#utility.yul\":13284:13317   */\n      mstore\n        /* \"#utility.yul\":13099:13324   */\n      pop\n      jump\t// out\n        /* \"#utility.yul\":13330:13696   */\n    tag_379:\n        /* \"#utility.yul\":13472:13475   */\n      0x00\n        /* \"#utility.yul\":13493:13560   */\n      tag_528\n        /* \"#utility.yul\":13557:13559   */\n      0x26\n        /* \"#utility.yul\":13552:13555   */\n      dup4\n        /* \"#utility.yul\":13493:13560   */\n      tag_370\n      jump\t// in\n    tag_528:\n        /* \"#utility.yul\":13486:13560   */\n      swap2\n      pop\n        /* \"#utility.yul\":13569:13662   */\n      tag_529\n        /* \"#utility.yul\":13658:13661   */\n      dup3\n        /* \"#utility.yul\":13569:13662   */\n      tag_378\n      jump\t// in\n    tag_529:\n        /* \"#utility.yul\":13687:13689   */\n      0x40\n        /* \"#utility.yul\":13682:13685   */\n      dup3\n        /* \"#utility.yul\":13678:13690   */\n      add\n        /* \"#utility.yul\":13671:13690   */\n      swap1\n      pop\n        /* \"#utility.yul\":13330:13696   */\n      swap2\n      swap1\n      pop\n      jump\t// out\n        /* \"#utility.yul\":13702:14121   */\n    tag_293:\n        /* \"#utility.yul\":13868:13872   */\n      0x00\n        /* \"#utility.yul\":13906:13908   */\n      0x20\n        /* \"#utility.yul\":13895:13904   */\n      dup3\n        /* \"#utility.yul\":13891:13909   */\n      add\n        /* \"#utility.yul\":13883:13909   */\n      swap1\n      pop\n        /* \"#utility.yul\":13955:13964   */\n      dup2\n        /* \"#utility.yul\":13949:13953   */\n      dup2\n        /* \"#utility.yul\":13945:13965   */\n      sub\n        /* \"#utility.yul\":13941:13942   */\n      0x00\n        /* \"#utility.yul\":13930:13939   */\n      dup4\n        /* \"#utility.yul\":13926:13943   */\n      add\n        /* \"#utility.yul\":13919:13966   */\n      mstore\n        /* \"#utility.yul\":13983:14114   */\n      tag_531\n        /* \"#utility.yul\":14109:14113   */\n      dup2\n        /* \"#utility.yul\":13983:14114   */\n      tag_379\n      jump\t// in\n    tag_531:\n        /* \"#utility.yul\":13975:14114   */\n      swap1\n      pop\n        /* \"#utility.yul\":13702:14121   */\n      swap2\n      swap1\n      pop\n      jump\t// out\n        /* \"#utility.yul\":14127:14309   */\n    tag_380:\n        /* \"#utility.yul\":14267:14301   */\n      0x4f776e61626c653a2063616c6c6572206973206e6f7420746865206f776e6572\n        /* \"#utility.yul\":14263:14264   */\n      0x00\n        /* \"#utility.yul\":14255:14261   */\n      dup3\n        /* \"#utility.yul\":14251:14265   */\n      add\n        /* \"#utility.yul\":14244:14302   */\n      mstore\n        /* \"#utility.yul\":14127:14309   */\n      pop\n      jump\t// out\n        /* \"#utility.yul\":14315:14681   */\n    tag_381:\n        /* \"#utility.yul\":14457:14460   */\n      0x00\n        /* \"#utility.yul\":14478:14545   */\n      tag_534\n        /* \"#utility.yul\":14542:14544   */\n      0x20\n        /* \"#utility.yul\":14537:14540   */\n      dup4\n        /* \"#utility.yul\":14478:14545   */\n      tag_370\n      jump\t// in\n    tag_534:\n        /* \"#utility.yul\":14471:14545   */\n      swap2\n      pop\n        /* \"#utility.yul\":14554:14647   */\n      tag_535\n        /* \"#utility.yul\":14643:14646   */\n      dup3\n        /* \"#utility.yul\":14554:14647   */\n      tag_380\n      jump\t// in\n    tag_535:\n        /* \"#utility.yul\":14672:14674   */\n      0x20\n        /* \"#utility.yul\":14667:14670   */\n      dup3\n        /* \"#utility.yul\":14663:14675   */\n      add\n        /* \"#utility.yul\":14656:14675   */\n      swap1\n      pop\n        /* \"#utility.yul\":14315:14681   */\n      swap2\n      swap1\n      pop\n      jump\t// out\n        /* \"#utility.yul\":14687:15106   */\n    tag_312:\n        /* \"#utility.yul\":14853:14857   */\n      0x00\n        /* \"#utility.yul\":14891:14893   */\n      0x20\n        /* \"#utility.yul\":14880:14889   */\n      dup3\n        /* \"#utility.yul\":14876:14894   */\n      add\n        /* \"#utility.yul\":14868:14894   */\n      swap1\n      pop\n        /* \"#utility.yul\":14940:14949   */\n      dup2\n        /* \"#utility.yul\":14934:14938   */\n      dup2\n        /* \"#utility.yul\":14930:14950   */\n      sub\n        /* \"#utility.yul\":14926:14927   */\n      0x00\n        /* \"#utility.yul\":14915:14924   */\n      dup4\n        /* \"#utility.yul\":14911:14928   */\n      add\n        /* \"#utility.yul\":14904:14951   */\n      mstore\n        /* \"#utility.yul\":14968:15099   */\n      tag_537\n        /* \"#utility.yul\":15094:15098   */\n      dup2\n        /* \"#utility.yul\":14968:15099   */\n      tag_381\n      jump\t// in\n    tag_537:\n        /* \"#utility.yul\":14960:15099   */\n      swap1\n      pop\n        /* \"#utility.yul\":14687:15106   */\n      swap2\n      swap1\n      pop\n      jump\t// out\n        /* \"#utility.yul\":15112:15292   */\n    tag_382:\n        /* \"#utility.yul\":15160:15237   */\n      0x4e487b7100000000000000000000000000000000000000000000000000000000\n        /* \"#utility.yul\":15157:15158   */\n      0x00\n        /* \"#utility.yul\":15150:15238   */\n      mstore\n        /* \"#utility.yul\":15257:15261   */\n      0x12\n        /* \"#utility.yul\":15254:15255   */\n      0x04\n        /* \"#utility.yul\":15247:15262   */\n      mstore\n        /* \"#utility.yul\":15281:15285   */\n      0x24\n        /* \"#utility.yul\":15278:15279   */\n      0x00\n        /* \"#utility.yul\":15271:15286   */\n      revert\n        /* \"#utility.yul\":15298:15483   */\n    tag_316:\n        /* \"#utility.yul\":15338:15339   */\n      0x00\n        /* \"#utility.yul\":15355:15375   */\n      tag_540\n        /* \"#utility.yul\":15373:15374   */\n      dup3\n        /* \"#utility.yul\":15355:15375   */\n      tag_336\n      jump\t// in\n    tag_540:\n        /* \"#utility.yul\":15350:15375   */\n      swap2\n      pop\n        /* \"#utility.yul\":15389:15409   */\n      tag_541\n        /* \"#utility.yul\":15407:15408   */\n      dup4\n        /* \"#utility.yul\":15389:15409   */\n      tag_336\n      jump\t// in\n    tag_541:\n        /* \"#utility.yul\":15384:15409   */\n      swap3\n      pop\n        /* \"#utility.yul\":15428:15429   */\n      dup3\n        /* \"#utility.yul\":15418:15453   */\n      tag_542\n      jumpi\n        /* \"#utility.yul\":15433:15451   */\n      tag_543\n      tag_382\n      jump\t// in\n    tag_543:\n        /* \"#utility.yul\":15418:15453   */\n    tag_542:\n        /* \"#utility.yul\":15475:15476   */\n      dup3\n        /* \"#utility.yul\":15472:15473   */\n      dup3\n        /* \"#utility.yul\":15468:15477   */\n      div\n        /* \"#utility.yul\":15463:15477   */\n      swap1\n      pop\n        /* \"#utility.yul\":15298:15483   */\n      swap3\n      swap2\n      pop\n      pop\n      jump\t// out\n        /* \"#utility.yul\":15489:15680   */\n    tag_332:\n        /* \"#utility.yul\":15529:15533   */\n      0x00\n        /* \"#utility.yul\":15549:15569   */\n      tag_545\n        /* \"#utility.yul\":15567:15568   */\n      dup3\n        /* \"#utility.yul\":15549:15569   */\n      tag_336\n      jump\t// in\n    tag_545:\n        /* \"#utility.yul\":15544:15569   */\n      swap2\n      pop\n        /* \"#utility.yul\":15583:15603   */\n      tag_546\n        /* \"#utility.yul\":15601:15602   */\n      dup4\n        /* \"#utility.yul\":15583:15603   */\n      tag_336\n      jump\t// in\n    tag_546:\n        /* \"#utility.yul\":15578:15603   */\n      swap3\n      pop\n        /* \"#utility.yul\":15622:15623   */\n      dup3\n        /* \"#utility.yul\":15619:15620   */\n      dup3\n        /* \"#utility.yul\":15616:15624   */\n      lt\n        /* \"#utility.yul\":15613:15647   */\n      iszero\n      tag_547\n      jumpi\n        /* \"#utility.yul\":15627:15645   */\n      tag_548\n      tag_369\n      jump\t// in\n    tag_548:\n        /* \"#utility.yul\":15613:15647   */\n    tag_547:\n        /* \"#utility.yul\":15672:15673   */\n      dup3\n        /* \"#utility.yul\":15669:15670   */\n      dup3\n        /* \"#utility.yul\":15665:15674   */\n      sub\n        /* \"#utility.yul\":15657:15674   */\n      swap1\n      pop\n        /* \"#utility.yul\":15489:15680   */\n      swap3\n      swap2\n      pop\n      pop\n      jump\t// out\n        /* \"#utility.yul\":15686:16034   */\n    tag_335:\n        /* \"#utility.yul\":15726:15733   */\n      0x00\n        /* \"#utility.yul\":15749:15769   */\n      tag_550\n        /* \"#utility.yul\":15767:15768   */\n      dup3\n        /* \"#utility.yul\":15749:15769   */\n      tag_336\n      jump\t// in\n    tag_550:\n        /* \"#utility.yul\":15744:15769   */\n      swap2\n      pop\n        /* \"#utility.yul\":15783:15803   */\n      tag_551\n        /* \"#utility.yul\":15801:15802   */\n      dup4\n        /* \"#utility.yul\":15783:15803   */\n      tag_336\n      jump\t// in\n    tag_551:\n        /* \"#utility.yul\":15778:15803   */\n      swap3\n      pop\n        /* \"#utility.yul\":15971:15972   */\n      dup2\n        /* \"#utility.yul\":15903:15969   */\n      0xffffffffffffffffffffffffffffffffffffffffffffffffffffffffffffffff\n        /* \"#utility.yul\":15899:15973   */\n      div\n        /* \"#utility.yul\":15896:15897   */\n      dup4\n        /* \"#utility.yul\":15893:15974   */\n      gt\n        /* \"#utility.yul\":15888:15889   */\n      dup3\n        /* \"#utility.yul\":15881:15890   */\n      iszero\n        /* \"#utility.yul\":15874:15891   */\n      iszero\n        /* \"#utility.yul\":15870:15975   */\n      and\n        /* \"#utility.yul\":15867:15998   */\n      iszero\n      tag_552\n      jumpi\n        /* \"#utility.yul\":15978:15996   */\n      tag_553\n      tag_369\n      jump\t// in\n    tag_553:\n        /* \"#utility.yul\":15867:15998   */\n    tag_552:\n        /* \"#utility.yul\":16026:16027   */\n      dup3\n        /* \"#utility.yul\":16023:16024   */\n      dup3\n        /* \"#utility.yul\":16019:16028   */\n      mul\n        /* \"#utility.yul\":16008:16028   */\n      swap1\n      pop\n        /* \"#utility.yul\":15686:16034   */\n      swap3\n      swap2\n      pop\n      pop\n      jump\t// out\n\n    auxdata: 0xa26469706673582212202e85e33135062d48325742706799868e745cc5da0960adff227e35925ea9af1864736f6c634300080a0033\n}\n",
				"bytecode": {
					"linkReferences": {},
					"object": "60806040523480156200001157600080fd5b506040516200215e3803806200215e8339818101604052810190620000379190620003b0565b7321558c2cda098e7e0ac7d38775b3e2b4a09452226200006c620000606200026360201b60201c565b6200026b60201b60201c565b80600160006101000a81548173ffffffffffffffffffffffffffffffffffffffff021916908373ffffffffffffffffffffffffffffffffffffffff16021790555050866003819055508560048190555084600581905550836006819055508260078190555081600a60146101000a81548163ffffffff021916908363ffffffff16021790555081600a60186101000a81548163ffffffff021916908363ffffffff16021790555060008163ffffffff1614806200012f575060018163ffffffff16145b8062000141575060028163ffffffff16145b62000183576040517f08c379a00000000000000000000000000000000000000000000000000000000081526004016200017a90620004c4565b60405180910390fd5b80600a601c6101000a81548163ffffffff021916908363ffffffff1602179055506000600960006101000a81548173ffffffffffffffffffffffffffffffffffffffff021916908373ffffffffffffffffffffffffffffffffffffffff1602179055506000600a60006101000a81548173ffffffffffffffffffffffffffffffffffffffff021916908373ffffffffffffffffffffffffffffffffffffffff1602179055506001600260146101000a81548160ff02191690836004811115620002515762000250620004e6565b5b02179055505050505050505062000515565b600033905090565b60008060009054906101000a900473ffffffffffffffffffffffffffffffffffffffff169050816000806101000a81548173ffffffffffffffffffffffffffffffffffffffff021916908373ffffffffffffffffffffffffffffffffffffffff1602179055508173ffffffffffffffffffffffffffffffffffffffff168173ffffffffffffffffffffffffffffffffffffffff167f8be0079c531659141344cd1fd0a4f28419497f9722a3daafe3b4186f6b6457e060405160405180910390a35050565b600080fd5b6000819050919050565b620003498162000334565b81146200035557600080fd5b50565b60008151905062000369816200033e565b92915050565b600063ffffffff82169050919050565b6200038a816200036f565b81146200039657600080fd5b50565b600081519050620003aa816200037f565b92915050565b600080600080600080600060e0888a031215620003d257620003d16200032f565b5b6000620003e28a828b0162000358565b9750506020620003f58a828b0162000358565b9650506040620004088a828b0162000358565b95505060606200041b8a828b0162000358565b94505060806200042e8a828b0162000358565b93505060a0620004418a828b0162000399565b92505060c0620004548a828b0162000399565b91505092959891949750929550565b600082825260208201905092915050565b7f4254433a302c204554483a312c204c494e4b3a32000000000000000000000000600082015250565b6000620004ac60148362000463565b9150620004b98262000474565b602082019050919050565b60006020820190508181036000830152620004df816200049d565b9050919050565b7f4e487b7100000000000000000000000000000000000000000000000000000000600052602160045260246000fd5b611c3980620005256000396000f3fe608060405234801561001057600080fd5b50600436106101fb5760003560e01c8063a2e800ad1161011a578063d8683798116100ad578063ea8a1af01161007c578063ea8a1af014610560578063f26cc58e1461056a578063f2fde38b14610588578063fcb341df146105a4578063ffd0e69f146105c2576101fb565b8063d8683798146104d6578063dbd0e1b6146104f4578063e0a73a9314610512578063e99d286614610530576101fb565b8063bd9a548b116100e9578063bd9a548b14610428578063bef904e314610446578063cbed244914610476578063d2895e93146104a6576101fb565b8063a2e800ad146103a0578063a3f09ad6146103be578063b6fc2d5f146103ee578063bab215f81461040c576101fb565b80634e71d92d11610192578063839966af11610161578063839966af1461032857806386be75b7146103465780638a568299146103645780638da5cb5b14610382576101fb565b80634e71d92d146102ec5780635b6a251b146102f6578063603daf9a14610300578063715018a61461031e576101fb565b80633b41e19c116101ce5780633b41e19c1461028a5780633fe3347a146102a657806343d726d6146102c45780634c1786ea146102ce576101fb565b806315d655c914610200578063200d2ed21461021e5780632e49d78b1461023c578063328a85f71461026c575b600080fd5b6102086105e0565b604051610215919061132e565b60405180910390f35b6102266105e6565b60405161023391906113c0565b60405180910390f35b61025660048036038101906102519190611405565b6105f9565b60405161026391906113c0565b60405180910390f35b610274610644565b604051610281919061132e565b60405180910390f35b6102a4600480360381019061029f9190611496565b610672565b005b6102ae610729565b6040516102bb91906114f5565b60405180910390f35b6102cc61073f565b005b6102d66107c2565b6040516102e3919061132e565b60405180910390f35b6102f46107c8565b005b6102fe61084b565b005b61030861096a565b6040516103159190611551565b60405180910390f35b610326610994565b005b6103306109a8565b60405161033d919061157b565b60405180910390f35b61034e610a2b565b60405161035b919061132e565b60405180910390f35b61036c610a31565b60405161037991906114f5565b60405180910390f35b61038a610a47565b6040516103979190611551565b60405180910390f35b6103a8610a70565b6040516103b591906114f5565b60405180910390f35b6103d860048036038101906103d391906115c2565b610a86565b6040516103e59190611551565b60405180910390f35b6103f6610afb565b604051610403919061132e565b60405180910390f35b610426600480360381019061042191906115ef565b610b01565b005b610430610b2b565b60405161043d91906116da565b60405180910390f35b610460600480360381019061045b91906116f5565b610b69565b60405161046d919061132e565b60405180910390f35b610490600480360381019061048b919061174e565b610b7c565b60405161049d919061132e565b60405180910390f35b6104c060048036038101906104bb919061174e565b610dbd565b6040516104cd91906114f5565b60405180910390f35b6104de610e02565b6040516104eb919061132e565b60405180910390f35b6104fc610e08565b6040516105099190611551565b60405180910390f35b61051a610e32565b604051610527919061132e565b60405180910390f35b61054a600480360381019061054591906115c2565b610e38565b6040516105579190611551565b60405180910390f35b610568610ead565b005b610572610f30565b60405161057f919061132e565b60405180910390f35b6105a2600480360381019061059d91906115c2565b610f88565b005b6105ac61100c565b6040516105b9919061132e565b60405180910390f35b6105ca61102e565b6040516105d7919061157b565b60405180910390f35b60045481565b600260149054906101000a900460ff1681565b60006106036110c7565b81600260146101000a81548160ff0219169083600481111561062857610627611349565b5b0217905550600260149054906101000a900460ff169050919050565b600061064e6110c7565b6224ea006008600082825461066391906117aa565b92505081905550600854905090565b61067a6110c7565b6001600481111561068e5761068d611349565b5b600260149054906101000a900460ff1660048111156106b0576106af611349565b5b146106f0576040517f08c379a00000000000000000000000000000000000000000000000000000000081526004016106e790611883565b60405180910390fd5b6106f982610b69565b506224ea004261070991906117aa565b60088190555061071a338215610b01565b61072460026105f9565b505050565b600a601c9054906101000a900463ffffffff1681565b6002600481111561075357610752611349565b5b600260149054906101000a900460ff16600481111561077557610774611349565b5b146107b5576040517f08c379a00000000000000000000000000000000000000000000000000000000081526004016107ac90611915565b60405180910390fd5b6107bf60046105f9565b50565b60075481565b600260048111156107dc576107db611349565b5b600260149054906101000a900460ff1660048111156107fe576107fd611349565b5b1461083e576040517f08c379a000000000000000000000000000000000000000000000000000000000815260040161083590611915565b60405180910390fd5b61084860036105f9565b50565b6108536110c7565b6002600481111561086757610866611349565b5b600260149054906101000a900460ff16600481111561088957610888611349565b5b146108c9576040517f08c379a00000000000000000000000000000000000000000000000000000000081526004016108c090611915565b60405180910390fd5b6000600a60149054906101000a900463ffffffff1663ffffffff1611610924576040517f08c379a000000000000000000000000000000000000000000000000000000000815260040161091b90611981565b60405180910390fd5b6224ea006008600082825461093991906117aa565b925050819055506109676001600a60149054906101000a900463ffffffff1661096291906119a1565b610dbd565b50565b6000600960009054906101000a900473ffffffffffffffffffffffffffffffffffffffff16905090565b61099c6110c7565b6109a66000611145565b565b6000600260048111156109be576109bd611349565b5b600260149054906101000a900460ff1660048111156109e0576109df611349565b5b14610a20576040517f08c379a0000000000000000000000000000000000000000000000000000000008152600401610a1790611915565b60405180910390fd5b600854421015905090565b60035481565b600a60189054906101000a900463ffffffff1681565b60008060009054906101000a900473ffffffffffffffffffffffffffffffffffffffff16905090565b600a60149054906101000a900463ffffffff1681565b6000610a906110c7565b81600960006101000a81548173ffffffffffffffffffffffffffffffffffffffff021916908373ffffffffffffffffffffffffffffffffffffffff160217905550600960009054906101000a900473ffffffffffffffffffffffffffffffffffffffff169050919050565b60055481565b610b096110c7565b80610b1c57610b1782610e38565b610b26565b610b2582610a86565b5b505050565b610b336112f3565b6040518060a001604052806003548152602001600454815260200160055481526020016006548152602001600754815250905090565b6000816003819055506003549050919050565b60008060008363ffffffff161415610c3c57610c356305f5e100600160009054906101000a900473ffffffffffffffffffffffffffffffffffffffff1673ffffffffffffffffffffffffffffffffffffffff1663a8ad52d16040518163ffffffff1660e01b8152600401602060405180830381865afa158015610c03573d6000803e3d6000fd5b505050506040513d601f19601f82011682018060405250810190610c2791906119ea565b61120990919063ffffffff16565b9050610db4565b60018363ffffffff161415610cf957610cf26305f5e100600160009054906101000a900473ffffffffffffffffffffffffffffffffffffffff1673ffffffffffffffffffffffffffffffffffffffff1663ff186b2e6040518163ffffffff1660e01b8152600401602060405180830381865afa158015610cc0573d6000803e3d6000fd5b505050506040513d601f19601f82011682018060405250810190610ce491906119ea565b61120990919063ffffffff16565b9050610db3565b60028363ffffffff161415610db257610daf6305f5e100600160009054906101000a900473ffffffffffffffffffffffffffffffffffffffff1673ffffffffffffffffffffffffffffffffffffffff16630cf785356040518163ffffffff1660e01b8152600401602060405180830381865afa158015610d7d573d6000803e3d6000fd5b505050506040513d601f19601f82011682018060405250810190610da191906119ea565b61120990919063ffffffff16565b90505b5b5b80915050919050565b6000610dc76110c7565b81600a60146101000a81548163ffffffff021916908363ffffffff160217905550600a60149054906101000a900463ffffffff169050919050565b60085481565b6000600a60009054906101000a900473ffffffffffffffffffffffffffffffffffffffff16905090565b60065481565b6000610e426110c7565b81600a60006101000a81548173ffffffffffffffffffffffffffffffffffffffff021916908373ffffffffffffffffffffffffffffffffffffffff160217905550600a60009054906101000a900473ffffffffffffffffffffffffffffffffffffffff169050919050565b60016004811115610ec157610ec0611349565b5b600260149054906101000a900460ff166004811115610ee357610ee2611349565b5b14610f23576040517f08c379a0000000000000000000000000000000000000000000000000000000008152600401610f1a90611883565b60405180910390fd5b610f2d60006105f9565b50565b600080610f4e600a601c9054906101000a900463ffffffff16610b7c565b9050806004541015610f64576000915050610f85565b610f816005546003548360075461121f909392919063ffffffff16565b9150505b90565b610f906110c7565b600073ffffffffffffffffffffffffffffffffffffffff168173ffffffffffffffffffffffffffffffffffffffff161415611000576040517f08c379a0000000000000000000000000000000000000000000000000000000008152600401610ff790611a89565b60405180910390fd5b61100981611145565b50565b600061102960055460075460035461128f9092919063ffffffff16565b905090565b60006002600481111561104457611043611349565b5b600260149054906101000a900460ff16600481111561106657611065611349565b5b146110a6576040517f08c379a000000000000000000000000000000000000000000000000000000000815260040161109d90611915565b60405180910390fd5b6000600a60149054906101000a900463ffffffff1663ffffffff1614905090565b6110cf6112bf565b73ffffffffffffffffffffffffffffffffffffffff166110ed610a47565b73ffffffffffffffffffffffffffffffffffffffff1614611143576040517f08c379a000000000000000000000000000000000000000000000000000000000815260040161113a90611af5565b60405180910390fd5b565b60008060009054906101000a900473ffffffffffffffffffffffffffffffffffffffff169050816000806101000a81548173ffffffffffffffffffffffffffffffffffffffff021916908373ffffffffffffffffffffffffffffffffffffffff1602179055508173ffffffffffffffffffffffffffffffffffffffff168173ffffffffffffffffffffffffffffffffffffffff167f8be0079c531659141344cd1fd0a4f28419497f9722a3daafe3b4186f6b6457e060405160405180910390a35050565b600081836112179190611b44565b905092915050565b60008082851061123157859050611283565b600061125861124987876112c790919063ffffffff16565b8861120990919063ffffffff16565b905061127f61127085876112c790919063ffffffff16565b826112dd90919063ffffffff16565b9150505b80915050949350505050565b60006112b66112a784866112c790919063ffffffff16565b8361120990919063ffffffff16565b90509392505050565b600033905090565b600081836112d59190611b75565b905092915050565b600081836112eb9190611ba9565b905092915050565b6040518060a00160405280600590602082028036833780820191505090505090565b6000819050919050565b61132881611315565b82525050565b6000602082019050611343600083018461131f565b92915050565b7f4e487b7100000000000000000000000000000000000000000000000000000000600052602160045260246000fd5b6005811061138957611388611349565b5b50565b600081905061139a82611378565b919050565b60006113aa8261138c565b9050919050565b6113ba8161139f565b82525050565b60006020820190506113d560008301846113b1565b92915050565b600080fd5b600581106113ed57600080fd5b50565b6000813590506113ff816113e0565b92915050565b60006020828403121561141b5761141a6113db565b5b6000611429848285016113f0565b91505092915050565b61143b81611315565b811461144657600080fd5b50565b60008135905061145881611432565b92915050565b60008115159050919050565b6114738161145e565b811461147e57600080fd5b50565b6000813590506114908161146a565b92915050565b600080604083850312156114ad576114ac6113db565b5b60006114bb85828601611449565b92505060206114cc85828601611481565b9150509250929050565b600063ffffffff82169050919050565b6114ef816114d6565b82525050565b600060208201905061150a60008301846114e6565b92915050565b600073ffffffffffffffffffffffffffffffffffffffff82169050919050565b600061153b82611510565b9050919050565b61154b81611530565b82525050565b60006020820190506115666000830184611542565b92915050565b6115758161145e565b82525050565b6000602082019050611590600083018461156c565b92915050565b61159f81611530565b81146115aa57600080fd5b50565b6000813590506115bc81611596565b92915050565b6000602082840312156115d8576115d76113db565b5b60006115e6848285016115ad565b91505092915050565b60008060408385031215611606576116056113db565b5b6000611614858286016115ad565b925050602061162585828601611481565b9150509250929050565b600060059050919050565b600081905092915050565b6000819050919050565b61165881611315565b82525050565b600061166a838361164f565b60208301905092915050565b6000602082019050919050565b61168c8161162f565b611696818461163a565b92506116a182611645565b8060005b838110156116d25781516116b9878261165e565b96506116c483611676565b9250506001810190506116a5565b505050505050565b600060a0820190506116ef6000830184611683565b92915050565b60006020828403121561170b5761170a6113db565b5b600061171984828501611449565b91505092915050565b61172b816114d6565b811461173657600080fd5b50565b60008135905061174881611722565b92915050565b600060208284031215611764576117636113db565b5b600061177284828501611739565b91505092915050565b7f4e487b7100000000000000000000000000000000000000000000000000000000600052601160045260246000fd5b60006117b582611315565b91506117c083611315565b9250827fffffffffffffffffffffffffffffffffffffffffffffffffffffffffffffffff038211156117f5576117f461177b565b5b828201905092915050565b600082825260208201905092915050565b7f54686520737461747573206f6620746865204344532073686f756c642062652060008201527f70656e64696e6700000000000000000000000000000000000000000000000000602082015250565b600061186d602783611800565b915061187882611811565b604082019050919050565b6000602082019050818103600083015261189c81611860565b9050919050565b7f54686520737461747573206f6620746865204344532073686f756c642062652060008201527f6163746976650000000000000000000000000000000000000000000000000000602082015250565b60006118ff602683611800565b915061190a826118a3565b604082019050919050565b6000602082019050818103600083015261192e816118f2565b9050919050565b7f526f756e6420616c726561647920656e64656400000000000000000000000000600082015250565b600061196b601383611800565b915061197682611935565b602082019050919050565b6000602082019050818103600083015261199a8161195e565b9050919050565b60006119ac826114d6565b91506119b7836114d6565b9250828210156119ca576119c961177b565b5b828203905092915050565b6000815190506119e481611432565b92915050565b600060208284031215611a00576119ff6113db565b5b6000611a0e848285016119d5565b91505092915050565b7f4f776e61626c653a206e6577206f776e657220697320746865207a65726f206160008201527f6464726573730000000000000000000000000000000000000000000000000000602082015250565b6000611a73602683611800565b9150611a7e82611a17565b604082019050919050565b60006020820190508181036000830152611aa281611a66565b9050919050565b7f4f776e61626c653a2063616c6c6572206973206e6f7420746865206f776e6572600082015250565b6000611adf602083611800565b9150611aea82611aa9565b602082019050919050565b60006020820190508181036000830152611b0e81611ad2565b9050919050565b7f4e487b7100000000000000000000000000000000000000000000000000000000600052601260045260246000fd5b6000611b4f82611315565b9150611b5a83611315565b925082611b6a57611b69611b15565b5b828204905092915050565b6000611b8082611315565b9150611b8b83611315565b925082821015611b9e57611b9d61177b565b5b828203905092915050565b6000611bb482611315565b9150611bbf83611315565b9250817fffffffffffffffffffffffffffffffffffffffffffffffffffffffffffffffff0483118215151615611bf857611bf761177b565b5b82820290509291505056fea26469706673582212202e85e33135062d48325742706799868e745cc5da0960adff227e35925ea9af1864736f6c634300080a0033",
					"opcodes": "PUSH1 0x80 PUSH1 0x40 MSTORE CALLVALUE DUP1 ISZERO PUSH3 0x11 JUMPI PUSH1 0x0 DUP1 REVERT JUMPDEST POP PUSH1 0x40 MLOAD PUSH3 0x215E CODESIZE SUB DUP1 PUSH3 0x215E DUP4 CODECOPY DUP2 DUP2 ADD PUSH1 0x40 MSTORE DUP2 ADD SWAP1 PUSH3 0x37 SWAP2 SWAP1 PUSH3 0x3B0 JUMP JUMPDEST PUSH20 0x21558C2CDA098E7E0AC7D38775B3E2B4A0945222 PUSH3 0x6C PUSH3 0x60 PUSH3 0x263 PUSH1 0x20 SHL PUSH1 0x20 SHR JUMP JUMPDEST PUSH3 0x26B PUSH1 0x20 SHL PUSH1 0x20 SHR JUMP JUMPDEST DUP1 PUSH1 0x1 PUSH1 0x0 PUSH2 0x100 EXP DUP2 SLOAD DUP2 PUSH20 0xFFFFFFFFFFFFFFFFFFFFFFFFFFFFFFFFFFFFFFFF MUL NOT AND SWAP1 DUP4 PUSH20 0xFFFFFFFFFFFFFFFFFFFFFFFFFFFFFFFFFFFFFFFF AND MUL OR SWAP1 SSTORE POP POP DUP7 PUSH1 0x3 DUP2 SWAP1 SSTORE POP DUP6 PUSH1 0x4 DUP2 SWAP1 SSTORE POP DUP5 PUSH1 0x5 DUP2 SWAP1 SSTORE POP DUP4 PUSH1 0x6 DUP2 SWAP1 SSTORE POP DUP3 PUSH1 0x7 DUP2 SWAP1 SSTORE POP DUP2 PUSH1 0xA PUSH1 0x14 PUSH2 0x100 EXP DUP2 SLOAD DUP2 PUSH4 0xFFFFFFFF MUL NOT AND SWAP1 DUP4 PUSH4 0xFFFFFFFF AND MUL OR SWAP1 SSTORE POP DUP2 PUSH1 0xA PUSH1 0x18 PUSH2 0x100 EXP DUP2 SLOAD DUP2 PUSH4 0xFFFFFFFF MUL NOT AND SWAP1 DUP4 PUSH4 0xFFFFFFFF AND MUL OR SWAP1 SSTORE POP PUSH1 0x0 DUP2 PUSH4 0xFFFFFFFF AND EQ DUP1 PUSH3 0x12F JUMPI POP PUSH1 0x1 DUP2 PUSH4 0xFFFFFFFF AND EQ JUMPDEST DUP1 PUSH3 0x141 JUMPI POP PUSH1 0x2 DUP2 PUSH4 0xFFFFFFFF AND EQ JUMPDEST PUSH3 0x183 JUMPI PUSH1 0x40 MLOAD PUSH32 0x8C379A000000000000000000000000000000000000000000000000000000000 DUP2 MSTORE PUSH1 0x4 ADD PUSH3 0x17A SWAP1 PUSH3 0x4C4 JUMP JUMPDEST PUSH1 0x40 MLOAD DUP1 SWAP2 SUB SWAP1 REVERT JUMPDEST DUP1 PUSH1 0xA PUSH1 0x1C PUSH2 0x100 EXP DUP2 SLOAD DUP2 PUSH4 0xFFFFFFFF MUL NOT AND SWAP1 DUP4 PUSH4 0xFFFFFFFF AND MUL OR SWAP1 SSTORE POP PUSH1 0x0 PUSH1 0x9 PUSH1 0x0 PUSH2 0x100 EXP DUP2 SLOAD DUP2 PUSH20 0xFFFFFFFFFFFFFFFFFFFFFFFFFFFFFFFFFFFFFFFF MUL NOT AND SWAP1 DUP4 PUSH20 0xFFFFFFFFFFFFFFFFFFFFFFFFFFFFFFFFFFFFFFFF AND MUL OR SWAP1 SSTORE POP PUSH1 0x0 PUSH1 0xA PUSH1 0x0 PUSH2 0x100 EXP DUP2 SLOAD DUP2 PUSH20 0xFFFFFFFFFFFFFFFFFFFFFFFFFFFFFFFFFFFFFFFF MUL NOT AND SWAP1 DUP4 PUSH20 0xFFFFFFFFFFFFFFFFFFFFFFFFFFFFFFFFFFFFFFFF AND MUL OR SWAP1 SSTORE POP PUSH1 0x1 PUSH1 0x2 PUSH1 0x14 PUSH2 0x100 EXP DUP2 SLOAD DUP2 PUSH1 0xFF MUL NOT AND SWAP1 DUP4 PUSH1 0x4 DUP2 GT ISZERO PUSH3 0x251 JUMPI PUSH3 0x250 PUSH3 0x4E6 JUMP JUMPDEST JUMPDEST MUL OR SWAP1 SSTORE POP POP POP POP POP POP POP POP PUSH3 0x515 JUMP JUMPDEST PUSH1 0x0 CALLER SWAP1 POP SWAP1 JUMP JUMPDEST PUSH1 0x0 DUP1 PUSH1 0x0 SWAP1 SLOAD SWAP1 PUSH2 0x100 EXP SWAP1 DIV PUSH20 0xFFFFFFFFFFFFFFFFFFFFFFFFFFFFFFFFFFFFFFFF AND SWAP1 POP DUP2 PUSH1 0x0 DUP1 PUSH2 0x100 EXP DUP2 SLOAD DUP2 PUSH20 0xFFFFFFFFFFFFFFFFFFFFFFFFFFFFFFFFFFFFFFFF MUL NOT AND SWAP1 DUP4 PUSH20 0xFFFFFFFFFFFFFFFFFFFFFFFFFFFFFFFFFFFFFFFF AND MUL OR SWAP1 SSTORE POP DUP2 PUSH20 0xFFFFFFFFFFFFFFFFFFFFFFFFFFFFFFFFFFFFFFFF AND DUP2 PUSH20 0xFFFFFFFFFFFFFFFFFFFFFFFFFFFFFFFFFFFFFFFF AND PUSH32 0x8BE0079C531659141344CD1FD0A4F28419497F9722A3DAAFE3B4186F6B6457E0 PUSH1 0x40 MLOAD PUSH1 0x40 MLOAD DUP1 SWAP2 SUB SWAP1 LOG3 POP POP JUMP JUMPDEST PUSH1 0x0 DUP1 REVERT JUMPDEST PUSH1 0x0 DUP2 SWAP1 POP SWAP2 SWAP1 POP JUMP JUMPDEST PUSH3 0x349 DUP2 PUSH3 0x334 JUMP JUMPDEST DUP2 EQ PUSH3 0x355 JUMPI PUSH1 0x0 DUP1 REVERT JUMPDEST POP JUMP JUMPDEST PUSH1 0x0 DUP2 MLOAD SWAP1 POP PUSH3 0x369 DUP2 PUSH3 0x33E JUMP JUMPDEST SWAP3 SWAP2 POP POP JUMP JUMPDEST PUSH1 0x0 PUSH4 0xFFFFFFFF DUP3 AND SWAP1 POP SWAP2 SWAP1 POP JUMP JUMPDEST PUSH3 0x38A DUP2 PUSH3 0x36F JUMP JUMPDEST DUP2 EQ PUSH3 0x396 JUMPI PUSH1 0x0 DUP1 REVERT JUMPDEST POP JUMP JUMPDEST PUSH1 0x0 DUP2 MLOAD SWAP1 POP PUSH3 0x3AA DUP2 PUSH3 0x37F JUMP JUMPDEST SWAP3 SWAP2 POP POP JUMP JUMPDEST PUSH1 0x0 DUP1 PUSH1 0x0 DUP1 PUSH1 0x0 DUP1 PUSH1 0x0 PUSH1 0xE0 DUP9 DUP11 SUB SLT ISZERO PUSH3 0x3D2 JUMPI PUSH3 0x3D1 PUSH3 0x32F JUMP JUMPDEST JUMPDEST PUSH1 0x0 PUSH3 0x3E2 DUP11 DUP3 DUP12 ADD PUSH3 0x358 JUMP JUMPDEST SWAP8 POP POP PUSH1 0x20 PUSH3 0x3F5 DUP11 DUP3 DUP12 ADD PUSH3 0x358 JUMP JUMPDEST SWAP7 POP POP PUSH1 0x40 PUSH3 0x408 DUP11 DUP3 DUP12 ADD PUSH3 0x358 JUMP JUMPDEST SWAP6 POP POP PUSH1 0x60 PUSH3 0x41B DUP11 DUP3 DUP12 ADD PUSH3 0x358 JUMP JUMPDEST SWAP5 POP POP PUSH1 0x80 PUSH3 0x42E DUP11 DUP3 DUP12 ADD PUSH3 0x358 JUMP JUMPDEST SWAP4 POP POP PUSH1 0xA0 PUSH3 0x441 DUP11 DUP3 DUP12 ADD PUSH3 0x399 JUMP JUMPDEST SWAP3 POP POP PUSH1 0xC0 PUSH3 0x454 DUP11 DUP3 DUP12 ADD PUSH3 0x399 JUMP JUMPDEST SWAP2 POP POP SWAP3 SWAP6 SWAP9 SWAP2 SWAP5 SWAP8 POP SWAP3 SWAP6 POP JUMP JUMPDEST PUSH1 0x0 DUP3 DUP3 MSTORE PUSH1 0x20 DUP3 ADD SWAP1 POP SWAP3 SWAP2 POP POP JUMP JUMPDEST PUSH32 0x4254433A302C204554483A312C204C494E4B3A32000000000000000000000000 PUSH1 0x0 DUP3 ADD MSTORE POP JUMP JUMPDEST PUSH1 0x0 PUSH3 0x4AC PUSH1 0x14 DUP4 PUSH3 0x463 JUMP JUMPDEST SWAP2 POP PUSH3 0x4B9 DUP3 PUSH3 0x474 JUMP JUMPDEST PUSH1 0x20 DUP3 ADD SWAP1 POP SWAP2 SWAP1 POP JUMP JUMPDEST PUSH1 0x0 PUSH1 0x20 DUP3 ADD SWAP1 POP DUP2 DUP2 SUB PUSH1 0x0 DUP4 ADD MSTORE PUSH3 0x4DF DUP2 PUSH3 0x49D JUMP JUMPDEST SWAP1 POP SWAP2 SWAP1 POP JUMP JUMPDEST PUSH32 0x4E487B7100000000000000000000000000000000000000000000000000000000 PUSH1 0x0 MSTORE PUSH1 0x21 PUSH1 0x4 MSTORE PUSH1 0x24 PUSH1 0x0 REVERT JUMPDEST PUSH2 0x1C39 DUP1 PUSH3 0x525 PUSH1 0x0 CODECOPY PUSH1 0x0 RETURN INVALID PUSH1 0x80 PUSH1 0x40 MSTORE CALLVALUE DUP1 ISZERO PUSH2 0x10 JUMPI PUSH1 0x0 DUP1 REVERT JUMPDEST POP PUSH1 0x4 CALLDATASIZE LT PUSH2 0x1FB JUMPI PUSH1 0x0 CALLDATALOAD PUSH1 0xE0 SHR DUP1 PUSH4 0xA2E800AD GT PUSH2 0x11A JUMPI DUP1 PUSH4 0xD8683798 GT PUSH2 0xAD JUMPI DUP1 PUSH4 0xEA8A1AF0 GT PUSH2 0x7C JUMPI DUP1 PUSH4 0xEA8A1AF0 EQ PUSH2 0x560 JUMPI DUP1 PUSH4 0xF26CC58E EQ PUSH2 0x56A JUMPI DUP1 PUSH4 0xF2FDE38B EQ PUSH2 0x588 JUMPI DUP1 PUSH4 0xFCB341DF EQ PUSH2 0x5A4 JUMPI DUP1 PUSH4 0xFFD0E69F EQ PUSH2 0x5C2 JUMPI PUSH2 0x1FB JUMP JUMPDEST DUP1 PUSH4 0xD8683798 EQ PUSH2 0x4D6 JUMPI DUP1 PUSH4 0xDBD0E1B6 EQ PUSH2 0x4F4 JUMPI DUP1 PUSH4 0xE0A73A93 EQ PUSH2 0x512 JUMPI DUP1 PUSH4 0xE99D2866 EQ PUSH2 0x530 JUMPI PUSH2 0x1FB JUMP JUMPDEST DUP1 PUSH4 0xBD9A548B GT PUSH2 0xE9 JUMPI DUP1 PUSH4 0xBD9A548B EQ PUSH2 0x428 JUMPI DUP1 PUSH4 0xBEF904E3 EQ PUSH2 0x446 JUMPI DUP1 PUSH4 0xCBED2449 EQ PUSH2 0x476 JUMPI DUP1 PUSH4 0xD2895E93 EQ PUSH2 0x4A6 JUMPI PUSH2 0x1FB JUMP JUMPDEST DUP1 PUSH4 0xA2E800AD EQ PUSH2 0x3A0 JUMPI DUP1 PUSH4 0xA3F09AD6 EQ PUSH2 0x3BE JUMPI DUP1 PUSH4 0xB6FC2D5F EQ PUSH2 0x3EE JUMPI DUP1 PUSH4 0xBAB215F8 EQ PUSH2 0x40C JUMPI PUSH2 0x1FB JUMP JUMPDEST DUP1 PUSH4 0x4E71D92D GT PUSH2 0x192 JUMPI DUP1 PUSH4 0x839966AF GT PUSH2 0x161 JUMPI DUP1 PUSH4 0x839966AF EQ PUSH2 0x328 JUMPI DUP1 PUSH4 0x86BE75B7 EQ PUSH2 0x346 JUMPI DUP1 PUSH4 0x8A568299 EQ PUSH2 0x364 JUMPI DUP1 PUSH4 0x8DA5CB5B EQ PUSH2 0x382 JUMPI PUSH2 0x1FB JUMP JUMPDEST DUP1 PUSH4 0x4E71D92D EQ PUSH2 0x2EC JUMPI DUP1 PUSH4 0x5B6A251B EQ PUSH2 0x2F6 JUMPI DUP1 PUSH4 0x603DAF9A EQ PUSH2 0x300 JUMPI DUP1 PUSH4 0x715018A6 EQ PUSH2 0x31E JUMPI PUSH2 0x1FB JUMP JUMPDEST DUP1 PUSH4 0x3B41E19C GT PUSH2 0x1CE JUMPI DUP1 PUSH4 0x3B41E19C EQ PUSH2 0x28A JUMPI DUP1 PUSH4 0x3FE3347A EQ PUSH2 0x2A6 JUMPI DUP1 PUSH4 0x43D726D6 EQ PUSH2 0x2C4 JUMPI DUP1 PUSH4 0x4C1786EA EQ PUSH2 0x2CE JUMPI PUSH2 0x1FB JUMP JUMPDEST DUP1 PUSH4 0x15D655C9 EQ PUSH2 0x200 JUMPI DUP1 PUSH4 0x200D2ED2 EQ PUSH2 0x21E JUMPI DUP1 PUSH4 0x2E49D78B EQ PUSH2 0x23C JUMPI DUP1 PUSH4 0x328A85F7 EQ PUSH2 0x26C JUMPI JUMPDEST PUSH1 0x0 DUP1 REVERT JUMPDEST PUSH2 0x208 PUSH2 0x5E0 JUMP JUMPDEST PUSH1 0x40 MLOAD PUSH2 0x215 SWAP2 SWAP1 PUSH2 0x132E JUMP JUMPDEST PUSH1 0x40 MLOAD DUP1 SWAP2 SUB SWAP1 RETURN JUMPDEST PUSH2 0x226 PUSH2 0x5E6 JUMP JUMPDEST PUSH1 0x40 MLOAD PUSH2 0x233 SWAP2 SWAP1 PUSH2 0x13C0 JUMP JUMPDEST PUSH1 0x40 MLOAD DUP1 SWAP2 SUB SWAP1 RETURN JUMPDEST PUSH2 0x256 PUSH1 0x4 DUP1 CALLDATASIZE SUB DUP2 ADD SWAP1 PUSH2 0x251 SWAP2 SWAP1 PUSH2 0x1405 JUMP JUMPDEST PUSH2 0x5F9 JUMP JUMPDEST PUSH1 0x40 MLOAD PUSH2 0x263 SWAP2 SWAP1 PUSH2 0x13C0 JUMP JUMPDEST PUSH1 0x40 MLOAD DUP1 SWAP2 SUB SWAP1 RETURN JUMPDEST PUSH2 0x274 PUSH2 0x644 JUMP JUMPDEST PUSH1 0x40 MLOAD PUSH2 0x281 SWAP2 SWAP1 PUSH2 0x132E JUMP JUMPDEST PUSH1 0x40 MLOAD DUP1 SWAP2 SUB SWAP1 RETURN JUMPDEST PUSH2 0x2A4 PUSH1 0x4 DUP1 CALLDATASIZE SUB DUP2 ADD SWAP1 PUSH2 0x29F SWAP2 SWAP1 PUSH2 0x1496 JUMP JUMPDEST PUSH2 0x672 JUMP JUMPDEST STOP JUMPDEST PUSH2 0x2AE PUSH2 0x729 JUMP JUMPDEST PUSH1 0x40 MLOAD PUSH2 0x2BB SWAP2 SWAP1 PUSH2 0x14F5 JUMP JUMPDEST PUSH1 0x40 MLOAD DUP1 SWAP2 SUB SWAP1 RETURN JUMPDEST PUSH2 0x2CC PUSH2 0x73F JUMP JUMPDEST STOP JUMPDEST PUSH2 0x2D6 PUSH2 0x7C2 JUMP JUMPDEST PUSH1 0x40 MLOAD PUSH2 0x2E3 SWAP2 SWAP1 PUSH2 0x132E JUMP JUMPDEST PUSH1 0x40 MLOAD DUP1 SWAP2 SUB SWAP1 RETURN JUMPDEST PUSH2 0x2F4 PUSH2 0x7C8 JUMP JUMPDEST STOP JUMPDEST PUSH2 0x2FE PUSH2 0x84B JUMP JUMPDEST STOP JUMPDEST PUSH2 0x308 PUSH2 0x96A JUMP JUMPDEST PUSH1 0x40 MLOAD PUSH2 0x315 SWAP2 SWAP1 PUSH2 0x1551 JUMP JUMPDEST PUSH1 0x40 MLOAD DUP1 SWAP2 SUB SWAP1 RETURN JUMPDEST PUSH2 0x326 PUSH2 0x994 JUMP JUMPDEST STOP JUMPDEST PUSH2 0x330 PUSH2 0x9A8 JUMP JUMPDEST PUSH1 0x40 MLOAD PUSH2 0x33D SWAP2 SWAP1 PUSH2 0x157B JUMP JUMPDEST PUSH1 0x40 MLOAD DUP1 SWAP2 SUB SWAP1 RETURN JUMPDEST PUSH2 0x34E PUSH2 0xA2B JUMP JUMPDEST PUSH1 0x40 MLOAD PUSH2 0x35B SWAP2 SWAP1 PUSH2 0x132E JUMP JUMPDEST PUSH1 0x40 MLOAD DUP1 SWAP2 SUB SWAP1 RETURN JUMPDEST PUSH2 0x36C PUSH2 0xA31 JUMP JUMPDEST PUSH1 0x40 MLOAD PUSH2 0x379 SWAP2 SWAP1 PUSH2 0x14F5 JUMP JUMPDEST PUSH1 0x40 MLOAD DUP1 SWAP2 SUB SWAP1 RETURN JUMPDEST PUSH2 0x38A PUSH2 0xA47 JUMP JUMPDEST PUSH1 0x40 MLOAD PUSH2 0x397 SWAP2 SWAP1 PUSH2 0x1551 JUMP JUMPDEST PUSH1 0x40 MLOAD DUP1 SWAP2 SUB SWAP1 RETURN JUMPDEST PUSH2 0x3A8 PUSH2 0xA70 JUMP JUMPDEST PUSH1 0x40 MLOAD PUSH2 0x3B5 SWAP2 SWAP1 PUSH2 0x14F5 JUMP JUMPDEST PUSH1 0x40 MLOAD DUP1 SWAP2 SUB SWAP1 RETURN JUMPDEST PUSH2 0x3D8 PUSH1 0x4 DUP1 CALLDATASIZE SUB DUP2 ADD SWAP1 PUSH2 0x3D3 SWAP2 SWAP1 PUSH2 0x15C2 JUMP JUMPDEST PUSH2 0xA86 JUMP JUMPDEST PUSH1 0x40 MLOAD PUSH2 0x3E5 SWAP2 SWAP1 PUSH2 0x1551 JUMP JUMPDEST PUSH1 0x40 MLOAD DUP1 SWAP2 SUB SWAP1 RETURN JUMPDEST PUSH2 0x3F6 PUSH2 0xAFB JUMP JUMPDEST PUSH1 0x40 MLOAD PUSH2 0x403 SWAP2 SWAP1 PUSH2 0x132E JUMP JUMPDEST PUSH1 0x40 MLOAD DUP1 SWAP2 SUB SWAP1 RETURN JUMPDEST PUSH2 0x426 PUSH1 0x4 DUP1 CALLDATASIZE SUB DUP2 ADD SWAP1 PUSH2 0x421 SWAP2 SWAP1 PUSH2 0x15EF JUMP JUMPDEST PUSH2 0xB01 JUMP JUMPDEST STOP JUMPDEST PUSH2 0x430 PUSH2 0xB2B JUMP JUMPDEST PUSH1 0x40 MLOAD PUSH2 0x43D SWAP2 SWAP1 PUSH2 0x16DA JUMP JUMPDEST PUSH1 0x40 MLOAD DUP1 SWAP2 SUB SWAP1 RETURN JUMPDEST PUSH2 0x460 PUSH1 0x4 DUP1 CALLDATASIZE SUB DUP2 ADD SWAP1 PUSH2 0x45B SWAP2 SWAP1 PUSH2 0x16F5 JUMP JUMPDEST PUSH2 0xB69 JUMP JUMPDEST PUSH1 0x40 MLOAD PUSH2 0x46D SWAP2 SWAP1 PUSH2 0x132E JUMP JUMPDEST PUSH1 0x40 MLOAD DUP1 SWAP2 SUB SWAP1 RETURN JUMPDEST PUSH2 0x490 PUSH1 0x4 DUP1 CALLDATASIZE SUB DUP2 ADD SWAP1 PUSH2 0x48B SWAP2 SWAP1 PUSH2 0x174E JUMP JUMPDEST PUSH2 0xB7C JUMP JUMPDEST PUSH1 0x40 MLOAD PUSH2 0x49D SWAP2 SWAP1 PUSH2 0x132E JUMP JUMPDEST PUSH1 0x40 MLOAD DUP1 SWAP2 SUB SWAP1 RETURN JUMPDEST PUSH2 0x4C0 PUSH1 0x4 DUP1 CALLDATASIZE SUB DUP2 ADD SWAP1 PUSH2 0x4BB SWAP2 SWAP1 PUSH2 0x174E JUMP JUMPDEST PUSH2 0xDBD JUMP JUMPDEST PUSH1 0x40 MLOAD PUSH2 0x4CD SWAP2 SWAP1 PUSH2 0x14F5 JUMP JUMPDEST PUSH1 0x40 MLOAD DUP1 SWAP2 SUB SWAP1 RETURN JUMPDEST PUSH2 0x4DE PUSH2 0xE02 JUMP JUMPDEST PUSH1 0x40 MLOAD PUSH2 0x4EB SWAP2 SWAP1 PUSH2 0x132E JUMP JUMPDEST PUSH1 0x40 MLOAD DUP1 SWAP2 SUB SWAP1 RETURN JUMPDEST PUSH2 0x4FC PUSH2 0xE08 JUMP JUMPDEST PUSH1 0x40 MLOAD PUSH2 0x509 SWAP2 SWAP1 PUSH2 0x1551 JUMP JUMPDEST PUSH1 0x40 MLOAD DUP1 SWAP2 SUB SWAP1 RETURN JUMPDEST PUSH2 0x51A PUSH2 0xE32 JUMP JUMPDEST PUSH1 0x40 MLOAD PUSH2 0x527 SWAP2 SWAP1 PUSH2 0x132E JUMP JUMPDEST PUSH1 0x40 MLOAD DUP1 SWAP2 SUB SWAP1 RETURN JUMPDEST PUSH2 0x54A PUSH1 0x4 DUP1 CALLDATASIZE SUB DUP2 ADD SWAP1 PUSH2 0x545 SWAP2 SWAP1 PUSH2 0x15C2 JUMP JUMPDEST PUSH2 0xE38 JUMP JUMPDEST PUSH1 0x40 MLOAD PUSH2 0x557 SWAP2 SWAP1 PUSH2 0x1551 JUMP JUMPDEST PUSH1 0x40 MLOAD DUP1 SWAP2 SUB SWAP1 RETURN JUMPDEST PUSH2 0x568 PUSH2 0xEAD JUMP JUMPDEST STOP JUMPDEST PUSH2 0x572 PUSH2 0xF30 JUMP JUMPDEST PUSH1 0x40 MLOAD PUSH2 0x57F SWAP2 SWAP1 PUSH2 0x132E JUMP JUMPDEST PUSH1 0x40 MLOAD DUP1 SWAP2 SUB SWAP1 RETURN JUMPDEST PUSH2 0x5A2 PUSH1 0x4 DUP1 CALLDATASIZE SUB DUP2 ADD SWAP1 PUSH2 0x59D SWAP2 SWAP1 PUSH2 0x15C2 JUMP JUMPDEST PUSH2 0xF88 JUMP JUMPDEST STOP JUMPDEST PUSH2 0x5AC PUSH2 0x100C JUMP JUMPDEST PUSH1 0x40 MLOAD PUSH2 0x5B9 SWAP2 SWAP1 PUSH2 0x132E JUMP JUMPDEST PUSH1 0x40 MLOAD DUP1 SWAP2 SUB SWAP1 RETURN JUMPDEST PUSH2 0x5CA PUSH2 0x102E JUMP JUMPDEST PUSH1 0x40 MLOAD PUSH2 0x5D7 SWAP2 SWAP1 PUSH2 0x157B JUMP JUMPDEST PUSH1 0x40 MLOAD DUP1 SWAP2 SUB SWAP1 RETURN JUMPDEST PUSH1 0x4 SLOAD DUP2 JUMP JUMPDEST PUSH1 0x2 PUSH1 0x14 SWAP1 SLOAD SWAP1 PUSH2 0x100 EXP SWAP1 DIV PUSH1 0xFF AND DUP2 JUMP JUMPDEST PUSH1 0x0 PUSH2 0x603 PUSH2 0x10C7 JUMP JUMPDEST DUP2 PUSH1 0x2 PUSH1 0x14 PUSH2 0x100 EXP DUP2 SLOAD DUP2 PUSH1 0xFF MUL NOT AND SWAP1 DUP4 PUSH1 0x4 DUP2 GT ISZERO PUSH2 0x628 JUMPI PUSH2 0x627 PUSH2 0x1349 JUMP JUMPDEST JUMPDEST MUL OR SWAP1 SSTORE POP PUSH1 0x2 PUSH1 0x14 SWAP1 SLOAD SWAP1 PUSH2 0x100 EXP SWAP1 DIV PUSH1 0xFF AND SWAP1 POP SWAP2 SWAP1 POP JUMP JUMPDEST PUSH1 0x0 PUSH2 0x64E PUSH2 0x10C7 JUMP JUMPDEST PUSH3 0x24EA00 PUSH1 0x8 PUSH1 0x0 DUP3 DUP3 SLOAD PUSH2 0x663 SWAP2 SWAP1 PUSH2 0x17AA JUMP JUMPDEST SWAP3 POP POP DUP2 SWAP1 SSTORE POP PUSH1 0x8 SLOAD SWAP1 POP SWAP1 JUMP JUMPDEST PUSH2 0x67A PUSH2 0x10C7 JUMP JUMPDEST PUSH1 0x1 PUSH1 0x4 DUP2 GT ISZERO PUSH2 0x68E JUMPI PUSH2 0x68D PUSH2 0x1349 JUMP JUMPDEST JUMPDEST PUSH1 0x2 PUSH1 0x14 SWAP1 SLOAD SWAP1 PUSH2 0x100 EXP SWAP1 DIV PUSH1 0xFF AND PUSH1 0x4 DUP2 GT ISZERO PUSH2 0x6B0 JUMPI PUSH2 0x6AF PUSH2 0x1349 JUMP JUMPDEST JUMPDEST EQ PUSH2 0x6F0 JUMPI PUSH1 0x40 MLOAD PUSH32 0x8C379A000000000000000000000000000000000000000000000000000000000 DUP2 MSTORE PUSH1 0x4 ADD PUSH2 0x6E7 SWAP1 PUSH2 0x1883 JUMP JUMPDEST PUSH1 0x40 MLOAD DUP1 SWAP2 SUB SWAP1 REVERT JUMPDEST PUSH2 0x6F9 DUP3 PUSH2 0xB69 JUMP JUMPDEST POP PUSH3 0x24EA00 TIMESTAMP PUSH2 0x709 SWAP2 SWAP1 PUSH2 0x17AA JUMP JUMPDEST PUSH1 0x8 DUP2 SWAP1 SSTORE POP PUSH2 0x71A CALLER DUP3 ISZERO PUSH2 0xB01 JUMP JUMPDEST PUSH2 0x724 PUSH1 0x2 PUSH2 0x5F9 JUMP JUMPDEST POP POP POP JUMP JUMPDEST PUSH1 0xA PUSH1 0x1C SWAP1 SLOAD SWAP1 PUSH2 0x100 EXP SWAP1 DIV PUSH4 0xFFFFFFFF AND DUP2 JUMP JUMPDEST PUSH1 0x2 PUSH1 0x4 DUP2 GT ISZERO PUSH2 0x753 JUMPI PUSH2 0x752 PUSH2 0x1349 JUMP JUMPDEST JUMPDEST PUSH1 0x2 PUSH1 0x14 SWAP1 SLOAD SWAP1 PUSH2 0x100 EXP SWAP1 DIV PUSH1 0xFF AND PUSH1 0x4 DUP2 GT ISZERO PUSH2 0x775 JUMPI PUSH2 0x774 PUSH2 0x1349 JUMP JUMPDEST JUMPDEST EQ PUSH2 0x7B5 JUMPI PUSH1 0x40 MLOAD PUSH32 0x8C379A000000000000000000000000000000000000000000000000000000000 DUP2 MSTORE PUSH1 0x4 ADD PUSH2 0x7AC SWAP1 PUSH2 0x1915 JUMP JUMPDEST PUSH1 0x40 MLOAD DUP1 SWAP2 SUB SWAP1 REVERT JUMPDEST PUSH2 0x7BF PUSH1 0x4 PUSH2 0x5F9 JUMP JUMPDEST POP JUMP JUMPDEST PUSH1 0x7 SLOAD DUP2 JUMP JUMPDEST PUSH1 0x2 PUSH1 0x4 DUP2 GT ISZERO PUSH2 0x7DC JUMPI PUSH2 0x7DB PUSH2 0x1349 JUMP JUMPDEST JUMPDEST PUSH1 0x2 PUSH1 0x14 SWAP1 SLOAD SWAP1 PUSH2 0x100 EXP SWAP1 DIV PUSH1 0xFF AND PUSH1 0x4 DUP2 GT ISZERO PUSH2 0x7FE JUMPI PUSH2 0x7FD PUSH2 0x1349 JUMP JUMPDEST JUMPDEST EQ PUSH2 0x83E JUMPI PUSH1 0x40 MLOAD PUSH32 0x8C379A000000000000000000000000000000000000000000000000000000000 DUP2 MSTORE PUSH1 0x4 ADD PUSH2 0x835 SWAP1 PUSH2 0x1915 JUMP JUMPDEST PUSH1 0x40 MLOAD DUP1 SWAP2 SUB SWAP1 REVERT JUMPDEST PUSH2 0x848 PUSH1 0x3 PUSH2 0x5F9 JUMP JUMPDEST POP JUMP JUMPDEST PUSH2 0x853 PUSH2 0x10C7 JUMP JUMPDEST PUSH1 0x2 PUSH1 0x4 DUP2 GT ISZERO PUSH2 0x867 JUMPI PUSH2 0x866 PUSH2 0x1349 JUMP JUMPDEST JUMPDEST PUSH1 0x2 PUSH1 0x14 SWAP1 SLOAD SWAP1 PUSH2 0x100 EXP SWAP1 DIV PUSH1 0xFF AND PUSH1 0x4 DUP2 GT ISZERO PUSH2 0x889 JUMPI PUSH2 0x888 PUSH2 0x1349 JUMP JUMPDEST JUMPDEST EQ PUSH2 0x8C9 JUMPI PUSH1 0x40 MLOAD PUSH32 0x8C379A000000000000000000000000000000000000000000000000000000000 DUP2 MSTORE PUSH1 0x4 ADD PUSH2 0x8C0 SWAP1 PUSH2 0x1915 JUMP JUMPDEST PUSH1 0x40 MLOAD DUP1 SWAP2 SUB SWAP1 REVERT JUMPDEST PUSH1 0x0 PUSH1 0xA PUSH1 0x14 SWAP1 SLOAD SWAP1 PUSH2 0x100 EXP SWAP1 DIV PUSH4 0xFFFFFFFF AND PUSH4 0xFFFFFFFF AND GT PUSH2 0x924 JUMPI PUSH1 0x40 MLOAD PUSH32 0x8C379A000000000000000000000000000000000000000000000000000000000 DUP2 MSTORE PUSH1 0x4 ADD PUSH2 0x91B SWAP1 PUSH2 0x1981 JUMP JUMPDEST PUSH1 0x40 MLOAD DUP1 SWAP2 SUB SWAP1 REVERT JUMPDEST PUSH3 0x24EA00 PUSH1 0x8 PUSH1 0x0 DUP3 DUP3 SLOAD PUSH2 0x939 SWAP2 SWAP1 PUSH2 0x17AA JUMP JUMPDEST SWAP3 POP POP DUP2 SWAP1 SSTORE POP PUSH2 0x967 PUSH1 0x1 PUSH1 0xA PUSH1 0x14 SWAP1 SLOAD SWAP1 PUSH2 0x100 EXP SWAP1 DIV PUSH4 0xFFFFFFFF AND PUSH2 0x962 SWAP2 SWAP1 PUSH2 0x19A1 JUMP JUMPDEST PUSH2 0xDBD JUMP JUMPDEST POP JUMP JUMPDEST PUSH1 0x0 PUSH1 0x9 PUSH1 0x0 SWAP1 SLOAD SWAP1 PUSH2 0x100 EXP SWAP1 DIV PUSH20 0xFFFFFFFFFFFFFFFFFFFFFFFFFFFFFFFFFFFFFFFF AND SWAP1 POP SWAP1 JUMP JUMPDEST PUSH2 0x99C PUSH2 0x10C7 JUMP JUMPDEST PUSH2 0x9A6 PUSH1 0x0 PUSH2 0x1145 JUMP JUMPDEST JUMP JUMPDEST PUSH1 0x0 PUSH1 0x2 PUSH1 0x4 DUP2 GT ISZERO PUSH2 0x9BE JUMPI PUSH2 0x9BD PUSH2 0x1349 JUMP JUMPDEST JUMPDEST PUSH1 0x2 PUSH1 0x14 SWAP1 SLOAD SWAP1 PUSH2 0x100 EXP SWAP1 DIV PUSH1 0xFF AND PUSH1 0x4 DUP2 GT ISZERO PUSH2 0x9E0 JUMPI PUSH2 0x9DF PUSH2 0x1349 JUMP JUMPDEST JUMPDEST EQ PUSH2 0xA20 JUMPI PUSH1 0x40 MLOAD PUSH32 0x8C379A000000000000000000000000000000000000000000000000000000000 DUP2 MSTORE PUSH1 0x4 ADD PUSH2 0xA17 SWAP1 PUSH2 0x1915 JUMP JUMPDEST PUSH1 0x40 MLOAD DUP1 SWAP2 SUB SWAP1 REVERT JUMPDEST PUSH1 0x8 SLOAD TIMESTAMP LT ISZERO SWAP1 POP SWAP1 JUMP JUMPDEST PUSH1 0x3 SLOAD DUP2 JUMP JUMPDEST PUSH1 0xA PUSH1 0x18 SWAP1 SLOAD SWAP1 PUSH2 0x100 EXP SWAP1 DIV PUSH4 0xFFFFFFFF AND DUP2 JUMP JUMPDEST PUSH1 0x0 DUP1 PUSH1 0x0 SWAP1 SLOAD SWAP1 PUSH2 0x100 EXP SWAP1 DIV PUSH20 0xFFFFFFFFFFFFFFFFFFFFFFFFFFFFFFFFFFFFFFFF AND SWAP1 POP SWAP1 JUMP JUMPDEST PUSH1 0xA PUSH1 0x14 SWAP1 SLOAD SWAP1 PUSH2 0x100 EXP SWAP1 DIV PUSH4 0xFFFFFFFF AND DUP2 JUMP JUMPDEST PUSH1 0x0 PUSH2 0xA90 PUSH2 0x10C7 JUMP JUMPDEST DUP2 PUSH1 0x9 PUSH1 0x0 PUSH2 0x100 EXP DUP2 SLOAD DUP2 PUSH20 0xFFFFFFFFFFFFFFFFFFFFFFFFFFFFFFFFFFFFFFFF MUL NOT AND SWAP1 DUP4 PUSH20 0xFFFFFFFFFFFFFFFFFFFFFFFFFFFFFFFFFFFFFFFF AND MUL OR SWAP1 SSTORE POP PUSH1 0x9 PUSH1 0x0 SWAP1 SLOAD SWAP1 PUSH2 0x100 EXP SWAP1 DIV PUSH20 0xFFFFFFFFFFFFFFFFFFFFFFFFFFFFFFFFFFFFFFFF AND SWAP1 POP SWAP2 SWAP1 POP JUMP JUMPDEST PUSH1 0x5 SLOAD DUP2 JUMP JUMPDEST PUSH2 0xB09 PUSH2 0x10C7 JUMP JUMPDEST DUP1 PUSH2 0xB1C JUMPI PUSH2 0xB17 DUP3 PUSH2 0xE38 JUMP JUMPDEST PUSH2 0xB26 JUMP JUMPDEST PUSH2 0xB25 DUP3 PUSH2 0xA86 JUMP JUMPDEST JUMPDEST POP POP POP JUMP JUMPDEST PUSH2 0xB33 PUSH2 0x12F3 JUMP JUMPDEST PUSH1 0x40 MLOAD DUP1 PUSH1 0xA0 ADD PUSH1 0x40 MSTORE DUP1 PUSH1 0x3 SLOAD DUP2 MSTORE PUSH1 0x20 ADD PUSH1 0x4 SLOAD DUP2 MSTORE PUSH1 0x20 ADD PUSH1 0x5 SLOAD DUP2 MSTORE PUSH1 0x20 ADD PUSH1 0x6 SLOAD DUP2 MSTORE PUSH1 0x20 ADD PUSH1 0x7 SLOAD DUP2 MSTORE POP SWAP1 POP SWAP1 JUMP JUMPDEST PUSH1 0x0 DUP2 PUSH1 0x3 DUP2 SWAP1 SSTORE POP PUSH1 0x3 SLOAD SWAP1 POP SWAP2 SWAP1 POP JUMP JUMPDEST PUSH1 0x0 DUP1 PUSH1 0x0 DUP4 PUSH4 0xFFFFFFFF AND EQ ISZERO PUSH2 0xC3C JUMPI PUSH2 0xC35 PUSH4 0x5F5E100 PUSH1 0x1 PUSH1 0x0 SWAP1 SLOAD SWAP1 PUSH2 0x100 EXP SWAP1 DIV PUSH20 0xFFFFFFFFFFFFFFFFFFFFFFFFFFFFFFFFFFFFFFFF AND PUSH20 0xFFFFFFFFFFFFFFFFFFFFFFFFFFFFFFFFFFFFFFFF AND PUSH4 0xA8AD52D1 PUSH1 0x40 MLOAD DUP2 PUSH4 0xFFFFFFFF AND PUSH1 0xE0 SHL DUP2 MSTORE PUSH1 0x4 ADD PUSH1 0x20 PUSH1 0x40 MLOAD DUP1 DUP4 SUB DUP2 DUP7 GAS STATICCALL ISZERO DUP1 ISZERO PUSH2 0xC03 JUMPI RETURNDATASIZE PUSH1 0x0 DUP1 RETURNDATACOPY RETURNDATASIZE PUSH1 0x0 REVERT JUMPDEST POP POP POP POP PUSH1 0x40 MLOAD RETURNDATASIZE PUSH1 0x1F NOT PUSH1 0x1F DUP3 ADD AND DUP3 ADD DUP1 PUSH1 0x40 MSTORE POP DUP2 ADD SWAP1 PUSH2 0xC27 SWAP2 SWAP1 PUSH2 0x19EA JUMP JUMPDEST PUSH2 0x1209 SWAP1 SWAP2 SWAP1 PUSH4 0xFFFFFFFF AND JUMP JUMPDEST SWAP1 POP PUSH2 0xDB4 JUMP JUMPDEST PUSH1 0x1 DUP4 PUSH4 0xFFFFFFFF AND EQ ISZERO PUSH2 0xCF9 JUMPI PUSH2 0xCF2 PUSH4 0x5F5E100 PUSH1 0x1 PUSH1 0x0 SWAP1 SLOAD SWAP1 PUSH2 0x100 EXP SWAP1 DIV PUSH20 0xFFFFFFFFFFFFFFFFFFFFFFFFFFFFFFFFFFFFFFFF AND PUSH20 0xFFFFFFFFFFFFFFFFFFFFFFFFFFFFFFFFFFFFFFFF AND PUSH4 0xFF186B2E PUSH1 0x40 MLOAD DUP2 PUSH4 0xFFFFFFFF AND PUSH1 0xE0 SHL DUP2 MSTORE PUSH1 0x4 ADD PUSH1 0x20 PUSH1 0x40 MLOAD DUP1 DUP4 SUB DUP2 DUP7 GAS STATICCALL ISZERO DUP1 ISZERO PUSH2 0xCC0 JUMPI RETURNDATASIZE PUSH1 0x0 DUP1 RETURNDATACOPY RETURNDATASIZE PUSH1 0x0 REVERT JUMPDEST POP POP POP POP PUSH1 0x40 MLOAD RETURNDATASIZE PUSH1 0x1F NOT PUSH1 0x1F DUP3 ADD AND DUP3 ADD DUP1 PUSH1 0x40 MSTORE POP DUP2 ADD SWAP1 PUSH2 0xCE4 SWAP2 SWAP1 PUSH2 0x19EA JUMP JUMPDEST PUSH2 0x1209 SWAP1 SWAP2 SWAP1 PUSH4 0xFFFFFFFF AND JUMP JUMPDEST SWAP1 POP PUSH2 0xDB3 JUMP JUMPDEST PUSH1 0x2 DUP4 PUSH4 0xFFFFFFFF AND EQ ISZERO PUSH2 0xDB2 JUMPI PUSH2 0xDAF PUSH4 0x5F5E100 PUSH1 0x1 PUSH1 0x0 SWAP1 SLOAD SWAP1 PUSH2 0x100 EXP SWAP1 DIV PUSH20 0xFFFFFFFFFFFFFFFFFFFFFFFFFFFFFFFFFFFFFFFF AND PUSH20 0xFFFFFFFFFFFFFFFFFFFFFFFFFFFFFFFFFFFFFFFF AND PUSH4 0xCF78535 PUSH1 0x40 MLOAD DUP2 PUSH4 0xFFFFFFFF AND PUSH1 0xE0 SHL DUP2 MSTORE PUSH1 0x4 ADD PUSH1 0x20 PUSH1 0x40 MLOAD DUP1 DUP4 SUB DUP2 DUP7 GAS STATICCALL ISZERO DUP1 ISZERO PUSH2 0xD7D JUMPI RETURNDATASIZE PUSH1 0x0 DUP1 RETURNDATACOPY RETURNDATASIZE PUSH1 0x0 REVERT JUMPDEST POP POP POP POP PUSH1 0x40 MLOAD RETURNDATASIZE PUSH1 0x1F NOT PUSH1 0x1F DUP3 ADD AND DUP3 ADD DUP1 PUSH1 0x40 MSTORE POP DUP2 ADD SWAP1 PUSH2 0xDA1 SWAP2 SWAP1 PUSH2 0x19EA JUMP JUMPDEST PUSH2 0x1209 SWAP1 SWAP2 SWAP1 PUSH4 0xFFFFFFFF AND JUMP JUMPDEST SWAP1 POP JUMPDEST JUMPDEST JUMPDEST DUP1 SWAP2 POP POP SWAP2 SWAP1 POP JUMP JUMPDEST PUSH1 0x0 PUSH2 0xDC7 PUSH2 0x10C7 JUMP JUMPDEST DUP2 PUSH1 0xA PUSH1 0x14 PUSH2 0x100 EXP DUP2 SLOAD DUP2 PUSH4 0xFFFFFFFF MUL NOT AND SWAP1 DUP4 PUSH4 0xFFFFFFFF AND MUL OR SWAP1 SSTORE POP PUSH1 0xA PUSH1 0x14 SWAP1 SLOAD SWAP1 PUSH2 0x100 EXP SWAP1 DIV PUSH4 0xFFFFFFFF AND SWAP1 POP SWAP2 SWAP1 POP JUMP JUMPDEST PUSH1 0x8 SLOAD DUP2 JUMP JUMPDEST PUSH1 0x0 PUSH1 0xA PUSH1 0x0 SWAP1 SLOAD SWAP1 PUSH2 0x100 EXP SWAP1 DIV PUSH20 0xFFFFFFFFFFFFFFFFFFFFFFFFFFFFFFFFFFFFFFFF AND SWAP1 POP SWAP1 JUMP JUMPDEST PUSH1 0x6 SLOAD DUP2 JUMP JUMPDEST PUSH1 0x0 PUSH2 0xE42 PUSH2 0x10C7 JUMP JUMPDEST DUP2 PUSH1 0xA PUSH1 0x0 PUSH2 0x100 EXP DUP2 SLOAD DUP2 PUSH20 0xFFFFFFFFFFFFFFFFFFFFFFFFFFFFFFFFFFFFFFFF MUL NOT AND SWAP1 DUP4 PUSH20 0xFFFFFFFFFFFFFFFFFFFFFFFFFFFFFFFFFFFFFFFF AND MUL OR SWAP1 SSTORE POP PUSH1 0xA PUSH1 0x0 SWAP1 SLOAD SWAP1 PUSH2 0x100 EXP SWAP1 DIV PUSH20 0xFFFFFFFFFFFFFFFFFFFFFFFFFFFFFFFFFFFFFFFF AND SWAP1 POP SWAP2 SWAP1 POP JUMP JUMPDEST PUSH1 0x1 PUSH1 0x4 DUP2 GT ISZERO PUSH2 0xEC1 JUMPI PUSH2 0xEC0 PUSH2 0x1349 JUMP JUMPDEST JUMPDEST PUSH1 0x2 PUSH1 0x14 SWAP1 SLOAD SWAP1 PUSH2 0x100 EXP SWAP1 DIV PUSH1 0xFF AND PUSH1 0x4 DUP2 GT ISZERO PUSH2 0xEE3 JUMPI PUSH2 0xEE2 PUSH2 0x1349 JUMP JUMPDEST JUMPDEST EQ PUSH2 0xF23 JUMPI PUSH1 0x40 MLOAD PUSH32 0x8C379A000000000000000000000000000000000000000000000000000000000 DUP2 MSTORE PUSH1 0x4 ADD PUSH2 0xF1A SWAP1 PUSH2 0x1883 JUMP JUMPDEST PUSH1 0x40 MLOAD DUP1 SWAP2 SUB SWAP1 REVERT JUMPDEST PUSH2 0xF2D PUSH1 0x0 PUSH2 0x5F9 JUMP JUMPDEST POP JUMP JUMPDEST PUSH1 0x0 DUP1 PUSH2 0xF4E PUSH1 0xA PUSH1 0x1C SWAP1 SLOAD SWAP1 PUSH2 0x100 EXP SWAP1 DIV PUSH4 0xFFFFFFFF AND PUSH2 0xB7C JUMP JUMPDEST SWAP1 POP DUP1 PUSH1 0x4 SLOAD LT ISZERO PUSH2 0xF64 JUMPI PUSH1 0x0 SWAP2 POP POP PUSH2 0xF85 JUMP JUMPDEST PUSH2 0xF81 PUSH1 0x5 SLOAD PUSH1 0x3 SLOAD DUP4 PUSH1 0x7 SLOAD PUSH2 0x121F SWAP1 SWAP4 SWAP3 SWAP2 SWAP1 PUSH4 0xFFFFFFFF AND JUMP JUMPDEST SWAP2 POP POP JUMPDEST SWAP1 JUMP JUMPDEST PUSH2 0xF90 PUSH2 0x10C7 JUMP JUMPDEST PUSH1 0x0 PUSH20 0xFFFFFFFFFFFFFFFFFFFFFFFFFFFFFFFFFFFFFFFF AND DUP2 PUSH20 0xFFFFFFFFFFFFFFFFFFFFFFFFFFFFFFFFFFFFFFFF AND EQ ISZERO PUSH2 0x1000 JUMPI PUSH1 0x40 MLOAD PUSH32 0x8C379A000000000000000000000000000000000000000000000000000000000 DUP2 MSTORE PUSH1 0x4 ADD PUSH2 0xFF7 SWAP1 PUSH2 0x1A89 JUMP JUMPDEST PUSH1 0x40 MLOAD DUP1 SWAP2 SUB SWAP1 REVERT JUMPDEST PUSH2 0x1009 DUP2 PUSH2 0x1145 JUMP JUMPDEST POP JUMP JUMPDEST PUSH1 0x0 PUSH2 0x1029 PUSH1 0x5 SLOAD PUSH1 0x7 SLOAD PUSH1 0x3 SLOAD PUSH2 0x128F SWAP1 SWAP3 SWAP2 SWAP1 PUSH4 0xFFFFFFFF AND JUMP JUMPDEST SWAP1 POP SWAP1 JUMP JUMPDEST PUSH1 0x0 PUSH1 0x2 PUSH1 0x4 DUP2 GT ISZERO PUSH2 0x1044 JUMPI PUSH2 0x1043 PUSH2 0x1349 JUMP JUMPDEST JUMPDEST PUSH1 0x2 PUSH1 0x14 SWAP1 SLOAD SWAP1 PUSH2 0x100 EXP SWAP1 DIV PUSH1 0xFF AND PUSH1 0x4 DUP2 GT ISZERO PUSH2 0x1066 JUMPI PUSH2 0x1065 PUSH2 0x1349 JUMP JUMPDEST JUMPDEST EQ PUSH2 0x10A6 JUMPI PUSH1 0x40 MLOAD PUSH32 0x8C379A000000000000000000000000000000000000000000000000000000000 DUP2 MSTORE PUSH1 0x4 ADD PUSH2 0x109D SWAP1 PUSH2 0x1915 JUMP JUMPDEST PUSH1 0x40 MLOAD DUP1 SWAP2 SUB SWAP1 REVERT JUMPDEST PUSH1 0x0 PUSH1 0xA PUSH1 0x14 SWAP1 SLOAD SWAP1 PUSH2 0x100 EXP SWAP1 DIV PUSH4 0xFFFFFFFF AND PUSH4 0xFFFFFFFF AND EQ SWAP1 POP SWAP1 JUMP JUMPDEST PUSH2 0x10CF PUSH2 0x12BF JUMP JUMPDEST PUSH20 0xFFFFFFFFFFFFFFFFFFFFFFFFFFFFFFFFFFFFFFFF AND PUSH2 0x10ED PUSH2 0xA47 JUMP JUMPDEST PUSH20 0xFFFFFFFFFFFFFFFFFFFFFFFFFFFFFFFFFFFFFFFF AND EQ PUSH2 0x1143 JUMPI PUSH1 0x40 MLOAD PUSH32 0x8C379A000000000000000000000000000000000000000000000000000000000 DUP2 MSTORE PUSH1 0x4 ADD PUSH2 0x113A SWAP1 PUSH2 0x1AF5 JUMP JUMPDEST PUSH1 0x40 MLOAD DUP1 SWAP2 SUB SWAP1 REVERT JUMPDEST JUMP JUMPDEST PUSH1 0x0 DUP1 PUSH1 0x0 SWAP1 SLOAD SWAP1 PUSH2 0x100 EXP SWAP1 DIV PUSH20 0xFFFFFFFFFFFFFFFFFFFFFFFFFFFFFFFFFFFFFFFF AND SWAP1 POP DUP2 PUSH1 0x0 DUP1 PUSH2 0x100 EXP DUP2 SLOAD DUP2 PUSH20 0xFFFFFFFFFFFFFFFFFFFFFFFFFFFFFFFFFFFFFFFF MUL NOT AND SWAP1 DUP4 PUSH20 0xFFFFFFFFFFFFFFFFFFFFFFFFFFFFFFFFFFFFFFFF AND MUL OR SWAP1 SSTORE POP DUP2 PUSH20 0xFFFFFFFFFFFFFFFFFFFFFFFFFFFFFFFFFFFFFFFF AND DUP2 PUSH20 0xFFFFFFFFFFFFFFFFFFFFFFFFFFFFFFFFFFFFFFFF AND PUSH32 0x8BE0079C531659141344CD1FD0A4F28419497F9722A3DAAFE3B4186F6B6457E0 PUSH1 0x40 MLOAD PUSH1 0x40 MLOAD DUP1 SWAP2 SUB SWAP1 LOG3 POP POP JUMP JUMPDEST PUSH1 0x0 DUP2 DUP4 PUSH2 0x1217 SWAP2 SWAP1 PUSH2 0x1B44 JUMP JUMPDEST SWAP1 POP SWAP3 SWAP2 POP POP JUMP JUMPDEST PUSH1 0x0 DUP1 DUP3 DUP6 LT PUSH2 0x1231 JUMPI DUP6 SWAP1 POP PUSH2 0x1283 JUMP JUMPDEST PUSH1 0x0 PUSH2 0x1258 PUSH2 0x1249 DUP8 DUP8 PUSH2 0x12C7 SWAP1 SWAP2 SWAP1 PUSH4 0xFFFFFFFF AND JUMP JUMPDEST DUP9 PUSH2 0x1209 SWAP1 SWAP2 SWAP1 PUSH4 0xFFFFFFFF AND JUMP JUMPDEST SWAP1 POP PUSH2 0x127F PUSH2 0x1270 DUP6 DUP8 PUSH2 0x12C7 SWAP1 SWAP2 SWAP1 PUSH4 0xFFFFFFFF AND JUMP JUMPDEST DUP3 PUSH2 0x12DD SWAP1 SWAP2 SWAP1 PUSH4 0xFFFFFFFF AND JUMP JUMPDEST SWAP2 POP POP JUMPDEST DUP1 SWAP2 POP POP SWAP5 SWAP4 POP POP POP POP JUMP JUMPDEST PUSH1 0x0 PUSH2 0x12B6 PUSH2 0x12A7 DUP5 DUP7 PUSH2 0x12C7 SWAP1 SWAP2 SWAP1 PUSH4 0xFFFFFFFF AND JUMP JUMPDEST DUP4 PUSH2 0x1209 SWAP1 SWAP2 SWAP1 PUSH4 0xFFFFFFFF AND JUMP JUMPDEST SWAP1 POP SWAP4 SWAP3 POP POP POP JUMP JUMPDEST PUSH1 0x0 CALLER SWAP1 POP SWAP1 JUMP JUMPDEST PUSH1 0x0 DUP2 DUP4 PUSH2 0x12D5 SWAP2 SWAP1 PUSH2 0x1B75 JUMP JUMPDEST SWAP1 POP SWAP3 SWAP2 POP POP JUMP JUMPDEST PUSH1 0x0 DUP2 DUP4 PUSH2 0x12EB SWAP2 SWAP1 PUSH2 0x1BA9 JUMP JUMPDEST SWAP1 POP SWAP3 SWAP2 POP POP JUMP JUMPDEST PUSH1 0x40 MLOAD DUP1 PUSH1 0xA0 ADD PUSH1 0x40 MSTORE DUP1 PUSH1 0x5 SWAP1 PUSH1 0x20 DUP3 MUL DUP1 CALLDATASIZE DUP4 CALLDATACOPY DUP1 DUP3 ADD SWAP2 POP POP SWAP1 POP POP SWAP1 JUMP JUMPDEST PUSH1 0x0 DUP2 SWAP1 POP SWAP2 SWAP1 POP JUMP JUMPDEST PUSH2 0x1328 DUP2 PUSH2 0x1315 JUMP JUMPDEST DUP3 MSTORE POP POP JUMP JUMPDEST PUSH1 0x0 PUSH1 0x20 DUP3 ADD SWAP1 POP PUSH2 0x1343 PUSH1 0x0 DUP4 ADD DUP5 PUSH2 0x131F JUMP JUMPDEST SWAP3 SWAP2 POP POP JUMP JUMPDEST PUSH32 0x4E487B7100000000000000000000000000000000000000000000000000000000 PUSH1 0x0 MSTORE PUSH1 0x21 PUSH1 0x4 MSTORE PUSH1 0x24 PUSH1 0x0 REVERT JUMPDEST PUSH1 0x5 DUP2 LT PUSH2 0x1389 JUMPI PUSH2 0x1388 PUSH2 0x1349 JUMP JUMPDEST JUMPDEST POP JUMP JUMPDEST PUSH1 0x0 DUP2 SWAP1 POP PUSH2 0x139A DUP3 PUSH2 0x1378 JUMP JUMPDEST SWAP2 SWAP1 POP JUMP JUMPDEST PUSH1 0x0 PUSH2 0x13AA DUP3 PUSH2 0x138C JUMP JUMPDEST SWAP1 POP SWAP2 SWAP1 POP JUMP JUMPDEST PUSH2 0x13BA DUP2 PUSH2 0x139F JUMP JUMPDEST DUP3 MSTORE POP POP JUMP JUMPDEST PUSH1 0x0 PUSH1 0x20 DUP3 ADD SWAP1 POP PUSH2 0x13D5 PUSH1 0x0 DUP4 ADD DUP5 PUSH2 0x13B1 JUMP JUMPDEST SWAP3 SWAP2 POP POP JUMP JUMPDEST PUSH1 0x0 DUP1 REVERT JUMPDEST PUSH1 0x5 DUP2 LT PUSH2 0x13ED JUMPI PUSH1 0x0 DUP1 REVERT JUMPDEST POP JUMP JUMPDEST PUSH1 0x0 DUP2 CALLDATALOAD SWAP1 POP PUSH2 0x13FF DUP2 PUSH2 0x13E0 JUMP JUMPDEST SWAP3 SWAP2 POP POP JUMP JUMPDEST PUSH1 0x0 PUSH1 0x20 DUP3 DUP5 SUB SLT ISZERO PUSH2 0x141B JUMPI PUSH2 0x141A PUSH2 0x13DB JUMP JUMPDEST JUMPDEST PUSH1 0x0 PUSH2 0x1429 DUP5 DUP3 DUP6 ADD PUSH2 0x13F0 JUMP JUMPDEST SWAP2 POP POP SWAP3 SWAP2 POP POP JUMP JUMPDEST PUSH2 0x143B DUP2 PUSH2 0x1315 JUMP JUMPDEST DUP2 EQ PUSH2 0x1446 JUMPI PUSH1 0x0 DUP1 REVERT JUMPDEST POP JUMP JUMPDEST PUSH1 0x0 DUP2 CALLDATALOAD SWAP1 POP PUSH2 0x1458 DUP2 PUSH2 0x1432 JUMP JUMPDEST SWAP3 SWAP2 POP POP JUMP JUMPDEST PUSH1 0x0 DUP2 ISZERO ISZERO SWAP1 POP SWAP2 SWAP1 POP JUMP JUMPDEST PUSH2 0x1473 DUP2 PUSH2 0x145E JUMP JUMPDEST DUP2 EQ PUSH2 0x147E JUMPI PUSH1 0x0 DUP1 REVERT JUMPDEST POP JUMP JUMPDEST PUSH1 0x0 DUP2 CALLDATALOAD SWAP1 POP PUSH2 0x1490 DUP2 PUSH2 0x146A JUMP JUMPDEST SWAP3 SWAP2 POP POP JUMP JUMPDEST PUSH1 0x0 DUP1 PUSH1 0x40 DUP4 DUP6 SUB SLT ISZERO PUSH2 0x14AD JUMPI PUSH2 0x14AC PUSH2 0x13DB JUMP JUMPDEST JUMPDEST PUSH1 0x0 PUSH2 0x14BB DUP6 DUP3 DUP7 ADD PUSH2 0x1449 JUMP JUMPDEST SWAP3 POP POP PUSH1 0x20 PUSH2 0x14CC DUP6 DUP3 DUP7 ADD PUSH2 0x1481 JUMP JUMPDEST SWAP2 POP POP SWAP3 POP SWAP3 SWAP1 POP JUMP JUMPDEST PUSH1 0x0 PUSH4 0xFFFFFFFF DUP3 AND SWAP1 POP SWAP2 SWAP1 POP JUMP JUMPDEST PUSH2 0x14EF DUP2 PUSH2 0x14D6 JUMP JUMPDEST DUP3 MSTORE POP POP JUMP JUMPDEST PUSH1 0x0 PUSH1 0x20 DUP3 ADD SWAP1 POP PUSH2 0x150A PUSH1 0x0 DUP4 ADD DUP5 PUSH2 0x14E6 JUMP JUMPDEST SWAP3 SWAP2 POP POP JUMP JUMPDEST PUSH1 0x0 PUSH20 0xFFFFFFFFFFFFFFFFFFFFFFFFFFFFFFFFFFFFFFFF DUP3 AND SWAP1 POP SWAP2 SWAP1 POP JUMP JUMPDEST PUSH1 0x0 PUSH2 0x153B DUP3 PUSH2 0x1510 JUMP JUMPDEST SWAP1 POP SWAP2 SWAP1 POP JUMP JUMPDEST PUSH2 0x154B DUP2 PUSH2 0x1530 JUMP JUMPDEST DUP3 MSTORE POP POP JUMP JUMPDEST PUSH1 0x0 PUSH1 0x20 DUP3 ADD SWAP1 POP PUSH2 0x1566 PUSH1 0x0 DUP4 ADD DUP5 PUSH2 0x1542 JUMP JUMPDEST SWAP3 SWAP2 POP POP JUMP JUMPDEST PUSH2 0x1575 DUP2 PUSH2 0x145E JUMP JUMPDEST DUP3 MSTORE POP POP JUMP JUMPDEST PUSH1 0x0 PUSH1 0x20 DUP3 ADD SWAP1 POP PUSH2 0x1590 PUSH1 0x0 DUP4 ADD DUP5 PUSH2 0x156C JUMP JUMPDEST SWAP3 SWAP2 POP POP JUMP JUMPDEST PUSH2 0x159F DUP2 PUSH2 0x1530 JUMP JUMPDEST DUP2 EQ PUSH2 0x15AA JUMPI PUSH1 0x0 DUP1 REVERT JUMPDEST POP JUMP JUMPDEST PUSH1 0x0 DUP2 CALLDATALOAD SWAP1 POP PUSH2 0x15BC DUP2 PUSH2 0x1596 JUMP JUMPDEST SWAP3 SWAP2 POP POP JUMP JUMPDEST PUSH1 0x0 PUSH1 0x20 DUP3 DUP5 SUB SLT ISZERO PUSH2 0x15D8 JUMPI PUSH2 0x15D7 PUSH2 0x13DB JUMP JUMPDEST JUMPDEST PUSH1 0x0 PUSH2 0x15E6 DUP5 DUP3 DUP6 ADD PUSH2 0x15AD JUMP JUMPDEST SWAP2 POP POP SWAP3 SWAP2 POP POP JUMP JUMPDEST PUSH1 0x0 DUP1 PUSH1 0x40 DUP4 DUP6 SUB SLT ISZERO PUSH2 0x1606 JUMPI PUSH2 0x1605 PUSH2 0x13DB JUMP JUMPDEST JUMPDEST PUSH1 0x0 PUSH2 0x1614 DUP6 DUP3 DUP7 ADD PUSH2 0x15AD JUMP JUMPDEST SWAP3 POP POP PUSH1 0x20 PUSH2 0x1625 DUP6 DUP3 DUP7 ADD PUSH2 0x1481 JUMP JUMPDEST SWAP2 POP POP SWAP3 POP SWAP3 SWAP1 POP JUMP JUMPDEST PUSH1 0x0 PUSH1 0x5 SWAP1 POP SWAP2 SWAP1 POP JUMP JUMPDEST PUSH1 0x0 DUP2 SWAP1 POP SWAP3 SWAP2 POP POP JUMP JUMPDEST PUSH1 0x0 DUP2 SWAP1 POP SWAP2 SWAP1 POP JUMP JUMPDEST PUSH2 0x1658 DUP2 PUSH2 0x1315 JUMP JUMPDEST DUP3 MSTORE POP POP JUMP JUMPDEST PUSH1 0x0 PUSH2 0x166A DUP4 DUP4 PUSH2 0x164F JUMP JUMPDEST PUSH1 0x20 DUP4 ADD SWAP1 POP SWAP3 SWAP2 POP POP JUMP JUMPDEST PUSH1 0x0 PUSH1 0x20 DUP3 ADD SWAP1 POP SWAP2 SWAP1 POP JUMP JUMPDEST PUSH2 0x168C DUP2 PUSH2 0x162F JUMP JUMPDEST PUSH2 0x1696 DUP2 DUP5 PUSH2 0x163A JUMP JUMPDEST SWAP3 POP PUSH2 0x16A1 DUP3 PUSH2 0x1645 JUMP JUMPDEST DUP1 PUSH1 0x0 JUMPDEST DUP4 DUP2 LT ISZERO PUSH2 0x16D2 JUMPI DUP2 MLOAD PUSH2 0x16B9 DUP8 DUP3 PUSH2 0x165E JUMP JUMPDEST SWAP7 POP PUSH2 0x16C4 DUP4 PUSH2 0x1676 JUMP JUMPDEST SWAP3 POP POP PUSH1 0x1 DUP2 ADD SWAP1 POP PUSH2 0x16A5 JUMP JUMPDEST POP POP POP POP POP POP JUMP JUMPDEST PUSH1 0x0 PUSH1 0xA0 DUP3 ADD SWAP1 POP PUSH2 0x16EF PUSH1 0x0 DUP4 ADD DUP5 PUSH2 0x1683 JUMP JUMPDEST SWAP3 SWAP2 POP POP JUMP JUMPDEST PUSH1 0x0 PUSH1 0x20 DUP3 DUP5 SUB SLT ISZERO PUSH2 0x170B JUMPI PUSH2 0x170A PUSH2 0x13DB JUMP JUMPDEST JUMPDEST PUSH1 0x0 PUSH2 0x1719 DUP5 DUP3 DUP6 ADD PUSH2 0x1449 JUMP JUMPDEST SWAP2 POP POP SWAP3 SWAP2 POP POP JUMP JUMPDEST PUSH2 0x172B DUP2 PUSH2 0x14D6 JUMP JUMPDEST DUP2 EQ PUSH2 0x1736 JUMPI PUSH1 0x0 DUP1 REVERT JUMPDEST POP JUMP JUMPDEST PUSH1 0x0 DUP2 CALLDATALOAD SWAP1 POP PUSH2 0x1748 DUP2 PUSH2 0x1722 JUMP JUMPDEST SWAP3 SWAP2 POP POP JUMP JUMPDEST PUSH1 0x0 PUSH1 0x20 DUP3 DUP5 SUB SLT ISZERO PUSH2 0x1764 JUMPI PUSH2 0x1763 PUSH2 0x13DB JUMP JUMPDEST JUMPDEST PUSH1 0x0 PUSH2 0x1772 DUP5 DUP3 DUP6 ADD PUSH2 0x1739 JUMP JUMPDEST SWAP2 POP POP SWAP3 SWAP2 POP POP JUMP JUMPDEST PUSH32 0x4E487B7100000000000000000000000000000000000000000000000000000000 PUSH1 0x0 MSTORE PUSH1 0x11 PUSH1 0x4 MSTORE PUSH1 0x24 PUSH1 0x0 REVERT JUMPDEST PUSH1 0x0 PUSH2 0x17B5 DUP3 PUSH2 0x1315 JUMP JUMPDEST SWAP2 POP PUSH2 0x17C0 DUP4 PUSH2 0x1315 JUMP JUMPDEST SWAP3 POP DUP3 PUSH32 0xFFFFFFFFFFFFFFFFFFFFFFFFFFFFFFFFFFFFFFFFFFFFFFFFFFFFFFFFFFFFFFFF SUB DUP3 GT ISZERO PUSH2 0x17F5 JUMPI PUSH2 0x17F4 PUSH2 0x177B JUMP JUMPDEST JUMPDEST DUP3 DUP3 ADD SWAP1 POP SWAP3 SWAP2 POP POP JUMP JUMPDEST PUSH1 0x0 DUP3 DUP3 MSTORE PUSH1 0x20 DUP3 ADD SWAP1 POP SWAP3 SWAP2 POP POP JUMP JUMPDEST PUSH32 0x54686520737461747573206F6620746865204344532073686F756C6420626520 PUSH1 0x0 DUP3 ADD MSTORE PUSH32 0x70656E64696E6700000000000000000000000000000000000000000000000000 PUSH1 0x20 DUP3 ADD MSTORE POP JUMP JUMPDEST PUSH1 0x0 PUSH2 0x186D PUSH1 0x27 DUP4 PUSH2 0x1800 JUMP JUMPDEST SWAP2 POP PUSH2 0x1878 DUP3 PUSH2 0x1811 JUMP JUMPDEST PUSH1 0x40 DUP3 ADD SWAP1 POP SWAP2 SWAP1 POP JUMP JUMPDEST PUSH1 0x0 PUSH1 0x20 DUP3 ADD SWAP1 POP DUP2 DUP2 SUB PUSH1 0x0 DUP4 ADD MSTORE PUSH2 0x189C DUP2 PUSH2 0x1860 JUMP JUMPDEST SWAP1 POP SWAP2 SWAP1 POP JUMP JUMPDEST PUSH32 0x54686520737461747573206F6620746865204344532073686F756C6420626520 PUSH1 0x0 DUP3 ADD MSTORE PUSH32 0x6163746976650000000000000000000000000000000000000000000000000000 PUSH1 0x20 DUP3 ADD MSTORE POP JUMP JUMPDEST PUSH1 0x0 PUSH2 0x18FF PUSH1 0x26 DUP4 PUSH2 0x1800 JUMP JUMPDEST SWAP2 POP PUSH2 0x190A DUP3 PUSH2 0x18A3 JUMP JUMPDEST PUSH1 0x40 DUP3 ADD SWAP1 POP SWAP2 SWAP1 POP JUMP JUMPDEST PUSH1 0x0 PUSH1 0x20 DUP3 ADD SWAP1 POP DUP2 DUP2 SUB PUSH1 0x0 DUP4 ADD MSTORE PUSH2 0x192E DUP2 PUSH2 0x18F2 JUMP JUMPDEST SWAP1 POP SWAP2 SWAP1 POP JUMP JUMPDEST PUSH32 0x526F756E6420616C726561647920656E64656400000000000000000000000000 PUSH1 0x0 DUP3 ADD MSTORE POP JUMP JUMPDEST PUSH1 0x0 PUSH2 0x196B PUSH1 0x13 DUP4 PUSH2 0x1800 JUMP JUMPDEST SWAP2 POP PUSH2 0x1976 DUP3 PUSH2 0x1935 JUMP JUMPDEST PUSH1 0x20 DUP3 ADD SWAP1 POP SWAP2 SWAP1 POP JUMP JUMPDEST PUSH1 0x0 PUSH1 0x20 DUP3 ADD SWAP1 POP DUP2 DUP2 SUB PUSH1 0x0 DUP4 ADD MSTORE PUSH2 0x199A DUP2 PUSH2 0x195E JUMP JUMPDEST SWAP1 POP SWAP2 SWAP1 POP JUMP JUMPDEST PUSH1 0x0 PUSH2 0x19AC DUP3 PUSH2 0x14D6 JUMP JUMPDEST SWAP2 POP PUSH2 0x19B7 DUP4 PUSH2 0x14D6 JUMP JUMPDEST SWAP3 POP DUP3 DUP3 LT ISZERO PUSH2 0x19CA JUMPI PUSH2 0x19C9 PUSH2 0x177B JUMP JUMPDEST JUMPDEST DUP3 DUP3 SUB SWAP1 POP SWAP3 SWAP2 POP POP JUMP JUMPDEST PUSH1 0x0 DUP2 MLOAD SWAP1 POP PUSH2 0x19E4 DUP2 PUSH2 0x1432 JUMP JUMPDEST SWAP3 SWAP2 POP POP JUMP JUMPDEST PUSH1 0x0 PUSH1 0x20 DUP3 DUP5 SUB SLT ISZERO PUSH2 0x1A00 JUMPI PUSH2 0x19FF PUSH2 0x13DB JUMP JUMPDEST JUMPDEST PUSH1 0x0 PUSH2 0x1A0E DUP5 DUP3 DUP6 ADD PUSH2 0x19D5 JUMP JUMPDEST SWAP2 POP POP SWAP3 SWAP2 POP POP JUMP JUMPDEST PUSH32 0x4F776E61626C653A206E6577206F776E657220697320746865207A65726F2061 PUSH1 0x0 DUP3 ADD MSTORE PUSH32 0x6464726573730000000000000000000000000000000000000000000000000000 PUSH1 0x20 DUP3 ADD MSTORE POP JUMP JUMPDEST PUSH1 0x0 PUSH2 0x1A73 PUSH1 0x26 DUP4 PUSH2 0x1800 JUMP JUMPDEST SWAP2 POP PUSH2 0x1A7E DUP3 PUSH2 0x1A17 JUMP JUMPDEST PUSH1 0x40 DUP3 ADD SWAP1 POP SWAP2 SWAP1 POP JUMP JUMPDEST PUSH1 0x0 PUSH1 0x20 DUP3 ADD SWAP1 POP DUP2 DUP2 SUB PUSH1 0x0 DUP4 ADD MSTORE PUSH2 0x1AA2 DUP2 PUSH2 0x1A66 JUMP JUMPDEST SWAP1 POP SWAP2 SWAP1 POP JUMP JUMPDEST PUSH32 0x4F776E61626C653A2063616C6C6572206973206E6F7420746865206F776E6572 PUSH1 0x0 DUP3 ADD MSTORE POP JUMP JUMPDEST PUSH1 0x0 PUSH2 0x1ADF PUSH1 0x20 DUP4 PUSH2 0x1800 JUMP JUMPDEST SWAP2 POP PUSH2 0x1AEA DUP3 PUSH2 0x1AA9 JUMP JUMPDEST PUSH1 0x20 DUP3 ADD SWAP1 POP SWAP2 SWAP1 POP JUMP JUMPDEST PUSH1 0x0 PUSH1 0x20 DUP3 ADD SWAP1 POP DUP2 DUP2 SUB PUSH1 0x0 DUP4 ADD MSTORE PUSH2 0x1B0E DUP2 PUSH2 0x1AD2 JUMP JUMPDEST SWAP1 POP SWAP2 SWAP1 POP JUMP JUMPDEST PUSH32 0x4E487B7100000000000000000000000000000000000000000000000000000000 PUSH1 0x0 MSTORE PUSH1 0x12 PUSH1 0x4 MSTORE PUSH1 0x24 PUSH1 0x0 REVERT JUMPDEST PUSH1 0x0 PUSH2 0x1B4F DUP3 PUSH2 0x1315 JUMP JUMPDEST SWAP2 POP PUSH2 0x1B5A DUP4 PUSH2 0x1315 JUMP JUMPDEST SWAP3 POP DUP3 PUSH2 0x1B6A JUMPI PUSH2 0x1B69 PUSH2 0x1B15 JUMP JUMPDEST JUMPDEST DUP3 DUP3 DIV SWAP1 POP SWAP3 SWAP2 POP POP JUMP JUMPDEST PUSH1 0x0 PUSH2 0x1B80 DUP3 PUSH2 0x1315 JUMP JUMPDEST SWAP2 POP PUSH2 0x1B8B DUP4 PUSH2 0x1315 JUMP JUMPDEST SWAP3 POP DUP3 DUP3 LT ISZERO PUSH2 0x1B9E JUMPI PUSH2 0x1B9D PUSH2 0x177B JUMP JUMPDEST JUMPDEST DUP3 DUP3 SUB SWAP1 POP SWAP3 SWAP2 POP POP JUMP JUMPDEST PUSH1 0x0 PUSH2 0x1BB4 DUP3 PUSH2 0x1315 JUMP JUMPDEST SWAP2 POP PUSH2 0x1BBF DUP4 PUSH2 0x1315 JUMP JUMPDEST SWAP3 POP DUP2 PUSH32 0xFFFFFFFFFFFFFFFFFFFFFFFFFFFFFFFFFFFFFFFFFFFFFFFFFFFFFFFFFFFFFFFF DIV DUP4 GT DUP3 ISZERO ISZERO AND ISZERO PUSH2 0x1BF8 JUMPI PUSH2 0x1BF7 PUSH2 0x177B JUMP JUMPDEST JUMPDEST DUP3 DUP3 MUL SWAP1 POP SWAP3 SWAP2 POP POP JUMP INVALID LOG2 PUSH5 0x6970667358 0x22 SLT KECCAK256 0x2E DUP6 0xE3 BALANCE CALLDATALOAD MOD 0x2D BASEFEE ORIGIN JUMPI TIMESTAMP PUSH17 0x6799868E745CC5DA0960ADFF227E35925E 0xA9 0xAF XOR PUSH5 0x736F6C6343 STOP ADDMOD EXP STOP CALLER "
				},
				"gasEstimates": {
					"creation": {
						"codeDepositCost": "1445000",
						"executionCost": "infinite",
						"totalCost": "infinite"
					},
					"external": {
						"accept(uint256,bool)": "infinite",
						"assetType()": "2589",
						"cancel()": "31284",
						"checkPayDatePassed()": "4757",
						"checkRoundsZero()": "4934",
						"claim()": "31286",
						"claimPrice()": "2476",
						"close()": "31330",
						"getAmountOfAsset()": "infinite",
						"getBuyer()": "2612",
						"getClaimReward()": "infinite",
						"getCurrPrice(uint32)": "infinite",
						"getPrices()": "infinite",
						"getSeller()": "2589",
						"initAssetPrice()": "2496",
						"liquidationPrice()": "2519",
						"nextPayDate()": "2474",
						"owner()": "2633",
						"premium()": "2518",
						"premiumPaid()": "infinite",
						"renounceOwnership()": "30510",
						"rounds()": "2567",
						"sellerDeposit()": "2541",
						"setBuyer(address)": "infinite",
						"setInitAssetPrice(uint256)": "infinite",
						"setNextPayDate()": "infinite",
						"setParticipants(address,bool)": "infinite",
						"setRounds(uint32)": "infinite",
						"setSeller(address)": "infinite",
						"setStatus(uint8)": "29532",
						"status()": "2679",
						"totalRounds()": "2610",
						"transferOwnership(address)": "30835"
					}
				},
				"methodIdentifiers": {
					"accept(uint256,bool)": "3b41e19c",
					"assetType()": "3fe3347a",
					"cancel()": "ea8a1af0",
					"checkPayDatePassed()": "839966af",
					"checkRoundsZero()": "ffd0e69f",
					"claim()": "4e71d92d",
					"claimPrice()": "15d655c9",
					"close()": "43d726d6",
					"getAmountOfAsset()": "fcb341df",
					"getBuyer()": "603daf9a",
					"getClaimReward()": "f26cc58e",
					"getCurrPrice(uint32)": "cbed2449",
					"getPrices()": "bd9a548b",
					"getSeller()": "dbd0e1b6",
					"initAssetPrice()": "86be75b7",
					"liquidationPrice()": "b6fc2d5f",
					"nextPayDate()": "d8683798",
					"owner()": "8da5cb5b",
					"premium()": "e0a73a93",
					"premiumPaid()": "5b6a251b",
					"renounceOwnership()": "715018a6",
					"rounds()": "a2e800ad",
					"sellerDeposit()": "4c1786ea",
					"setBuyer(address)": "a3f09ad6",
					"setInitAssetPrice(uint256)": "bef904e3",
					"setNextPayDate()": "328a85f7",
					"setParticipants(address,bool)": "bab215f8",
					"setRounds(uint32)": "d2895e93",
					"setSeller(address)": "e99d2866",
					"setStatus(uint8)": "2e49d78b",
					"status()": "200d2ed2",
					"totalRounds()": "8a568299",
					"transferOwnership(address)": "f2fde38b"
				}
			},
			"storageLayout": {
				"storage": [
					{
						"astId": 7,
						"contract": "contracts/CDS/CDS.sol:CDS",
						"label": "_owner",
						"offset": 0,
						"slot": "0",
						"type": "t_address"
					},
					{
						"astId": 918,
						"contract": "contracts/CDS/CDS.sol:CDS",
						"label": "priceOracle",
						"offset": 0,
						"slot": "1",
						"type": "t_contract(PriceOracleMock)1059"
					},
					{
						"astId": 462,
						"contract": "contracts/CDS/CDS.sol:CDS",
						"label": "priceOracle",
						"offset": 0,
						"slot": "2",
						"type": "t_contract(PriceOracleMock)1059"
					},
					{
						"astId": 471,
						"contract": "contracts/CDS/CDS.sol:CDS",
						"label": "status",
						"offset": 20,
						"slot": "2",
						"type": "t_enum(Status)468"
					},
					{
						"astId": 473,
						"contract": "contracts/CDS/CDS.sol:CDS",
						"label": "initAssetPrice",
						"offset": 0,
						"slot": "3",
						"type": "t_uint256"
					},
					{
						"astId": 475,
						"contract": "contracts/CDS/CDS.sol:CDS",
						"label": "claimPrice",
						"offset": 0,
						"slot": "4",
						"type": "t_uint256"
					},
					{
						"astId": 477,
						"contract": "contracts/CDS/CDS.sol:CDS",
						"label": "liquidationPrice",
						"offset": 0,
						"slot": "5",
						"type": "t_uint256"
					},
					{
						"astId": 479,
						"contract": "contracts/CDS/CDS.sol:CDS",
						"label": "premium",
						"offset": 0,
						"slot": "6",
						"type": "t_uint256"
					},
					{
						"astId": 481,
						"contract": "contracts/CDS/CDS.sol:CDS",
						"label": "sellerDeposit",
						"offset": 0,
						"slot": "7",
						"type": "t_uint256"
					},
					{
						"astId": 483,
						"contract": "contracts/CDS/CDS.sol:CDS",
						"label": "nextPayDate",
						"offset": 0,
						"slot": "8",
						"type": "t_uint256"
					},
					{
						"astId": 485,
						"contract": "contracts/CDS/CDS.sol:CDS",
						"label": "buyer",
						"offset": 0,
						"slot": "9",
						"type": "t_address"
					},
					{
						"astId": 487,
						"contract": "contracts/CDS/CDS.sol:CDS",
						"label": "seller",
						"offset": 0,
						"slot": "10",
						"type": "t_address"
					},
					{
						"astId": 489,
						"contract": "contracts/CDS/CDS.sol:CDS",
						"label": "rounds",
						"offset": 20,
						"slot": "10",
						"type": "t_uint32"
					},
					{
						"astId": 491,
						"contract": "contracts/CDS/CDS.sol:CDS",
						"label": "totalRounds",
						"offset": 24,
						"slot": "10",
						"type": "t_uint32"
					},
					{
						"astId": 493,
						"contract": "contracts/CDS/CDS.sol:CDS",
						"label": "assetType",
						"offset": 28,
						"slot": "10",
						"type": "t_uint32"
					}
				],
				"types": {
					"t_address": {
						"encoding": "inplace",
						"label": "address",
						"numberOfBytes": "20"
					},
					"t_contract(PriceOracleMock)1059": {
						"encoding": "inplace",
						"label": "contract PriceOracleMock",
						"numberOfBytes": "20"
					},
					"t_enum(Status)468": {
						"encoding": "inplace",
						"label": "enum CDS.Status",
						"numberOfBytes": "1"
					},
					"t_uint256": {
						"encoding": "inplace",
						"label": "uint256",
						"numberOfBytes": "32"
					},
					"t_uint32": {
						"encoding": "inplace",
						"label": "uint32",
						"numberOfBytes": "4"
					}
				}
			},
			"userdoc": {
				"kind": "user",
				"methods": {},
				"version": 1
			}
		}
	}
}